{
	"contracts/PaymentEscrow.sol": {
		"PaymentEscrow": {
			"abi": [
				{
					"inputs": [
						{
							"internalType": "address",
							"name": "_stablecoin",
							"type": "address"
						},
						{
							"internalType": "address",
							"name": "_platformWallet",
							"type": "address"
						}
					],
					"stateMutability": "nonpayable",
					"type": "constructor"
				},
				{
					"inputs": [
						{
							"internalType": "address",
							"name": "owner",
							"type": "address"
						}
					],
					"name": "OwnableInvalidOwner",
					"type": "error"
				},
				{
					"inputs": [
						{
							"internalType": "address",
							"name": "account",
							"type": "address"
						}
					],
					"name": "OwnableUnauthorizedAccount",
					"type": "error"
				},
				{
					"anonymous": false,
					"inputs": [
						{
							"indexed": true,
							"internalType": "address",
							"name": "creator",
							"type": "address"
						},
						{
							"indexed": false,
							"internalType": "uint8",
							"name": "rating",
							"type": "uint8"
						}
					],
					"name": "BuyerRated",
					"type": "event"
				},
				{
					"anonymous": false,
					"inputs": [
						{
							"indexed": false,
							"internalType": "uint256",
							"name": "purchaseId",
							"type": "uint256"
						},
						{
							"indexed": true,
							"internalType": "address",
							"name": "approver",
							"type": "address"
						}
					],
					"name": "ContentApproved",
					"type": "event"
				},
				{
					"anonymous": false,
					"inputs": [
						{
							"indexed": true,
							"internalType": "address",
							"name": "creator",
							"type": "address"
						},
						{
							"indexed": false,
							"internalType": "uint256",
							"name": "amount",
							"type": "uint256"
						}
					],
					"name": "CreatorWithdraw",
					"type": "event"
				},
				{
					"anonymous": false,
					"inputs": [
						{
							"indexed": false,
							"internalType": "uint256",
							"name": "purchaseId",
							"type": "uint256"
						},
						{
							"indexed": true,
							"internalType": "address",
							"name": "buyer",
							"type": "address"
						},
						{
							"indexed": false,
							"internalType": "uint256",
							"name": "amount",
							"type": "uint256"
						},
						{
							"indexed": false,
							"internalType": "string",
							"name": "paymentReference",
							"type": "string"
						}
					],
					"name": "FiatPaymentVerified",
					"type": "event"
				},
				{
					"anonymous": false,
					"inputs": [
						{
							"indexed": true,
							"internalType": "address",
							"name": "previousOwner",
							"type": "address"
						},
						{
							"indexed": true,
							"internalType": "address",
							"name": "newOwner",
							"type": "address"
						}
					],
					"name": "OwnershipTransferred",
					"type": "event"
				},
				{
					"anonymous": false,
					"inputs": [
						{
							"indexed": false,
							"internalType": "uint256",
							"name": "purchaseId",
							"type": "uint256"
						},
						{
							"indexed": true,
							"internalType": "address",
							"name": "buyer",
							"type": "address"
						},
						{
							"indexed": true,
							"internalType": "address",
							"name": "creator",
							"type": "address"
						},
						{
							"indexed": false,
							"internalType": "uint256",
							"name": "amount",
							"type": "uint256"
						},
						{
							"indexed": false,
							"internalType": "string",
							"name": "method",
							"type": "string"
						}
					],
					"name": "PaymentReceived",
					"type": "event"
				},
				{
					"anonymous": false,
					"inputs": [
						{
							"indexed": false,
							"internalType": "uint256",
							"name": "purchaseId",
							"type": "uint256"
						},
						{
							"indexed": true,
							"internalType": "address",
							"name": "buyer",
							"type": "address"
						}
					],
					"name": "RefundIssued",
					"type": "event"
				},
				{
					"inputs": [
						{
							"internalType": "uint256",
							"name": "purchaseId",
							"type": "uint256"
						}
					],
					"name": "approveContent",
					"outputs": [],
					"stateMutability": "nonpayable",
					"type": "function"
				},
				{
					"inputs": [
						{
							"internalType": "address",
							"name": "",
							"type": "address"
						}
					],
					"name": "buyerRewards",
					"outputs": [
						{
							"internalType": "uint256",
							"name": "",
							"type": "uint256"
						}
					],
					"stateMutability": "view",
					"type": "function"
				},
				{
					"inputs": [
						{
							"internalType": "uint256",
							"name": "purchaseId",
							"type": "uint256"
						}
					],
					"name": "confirmDelivery",
					"outputs": [],
					"stateMutability": "nonpayable",
					"type": "function"
				},
				{
					"inputs": [
						{
							"internalType": "address",
							"name": "",
							"type": "address"
						}
					],
					"name": "creatorBalances",
					"outputs": [
						{
							"internalType": "uint256",
							"name": "",
							"type": "uint256"
						}
					],
					"stateMutability": "view",
					"type": "function"
				},
				{
					"inputs": [],
					"name": "escrowTimeLimit",
					"outputs": [
						{
							"internalType": "uint256",
							"name": "",
							"type": "uint256"
						}
					],
					"stateMutability": "view",
					"type": "function"
				},
				{
					"inputs": [
						{
							"internalType": "address",
							"name": "creator",
							"type": "address"
						}
					],
					"name": "getAverageRating",
					"outputs": [
						{
							"internalType": "uint256",
							"name": "",
							"type": "uint256"
						}
					],
					"stateMutability": "view",
					"type": "function"
				},
				{
					"inputs": [
						{
							"internalType": "address",
							"name": "buyer",
							"type": "address"
						}
					],
					"name": "getBuyerRewards",
					"outputs": [
						{
							"internalType": "uint256",
							"name": "",
							"type": "uint256"
						}
					],
					"stateMutability": "view",
					"type": "function"
				},
				{
					"inputs": [],
					"name": "owner",
					"outputs": [
						{
							"internalType": "address",
							"name": "",
							"type": "address"
						}
					],
					"stateMutability": "view",
					"type": "function"
				},
				{
					"inputs": [
						{
							"internalType": "address",
							"name": "creator",
							"type": "address"
						}
					],
					"name": "payWithETH",
					"outputs": [],
					"stateMutability": "payable",
					"type": "function"
				},
				{
					"inputs": [
						{
							"internalType": "address",
							"name": "creator",
							"type": "address"
						},
						{
							"internalType": "uint256",
							"name": "amount",
							"type": "uint256"
						}
					],
					"name": "payWithStablecoin",
					"outputs": [],
					"stateMutability": "nonpayable",
					"type": "function"
				},
				{
					"inputs": [],
					"name": "platformFeePercentage",
					"outputs": [
						{
							"internalType": "uint256",
							"name": "",
							"type": "uint256"
						}
					],
					"stateMutability": "view",
					"type": "function"
				},
				{
					"inputs": [],
					"name": "platformWallet",
					"outputs": [
						{
							"internalType": "address",
							"name": "",
							"type": "address"
						}
					],
					"stateMutability": "view",
					"type": "function"
				},
				{
					"inputs": [
						{
							"internalType": "address",
							"name": "buyer",
							"type": "address"
						},
						{
							"internalType": "address",
							"name": "creator",
							"type": "address"
						},
						{
							"internalType": "uint256",
							"name": "amount",
							"type": "uint256"
						},
						{
							"internalType": "string",
							"name": "paymentReference",
							"type": "string"
						}
					],
					"name": "processMPesaPayment",
					"outputs": [],
					"stateMutability": "nonpayable",
					"type": "function"
				},
				{
					"inputs": [],
					"name": "purchaseCounter",
					"outputs": [
						{
							"internalType": "uint256",
							"name": "",
							"type": "uint256"
						}
					],
					"stateMutability": "view",
					"type": "function"
				},
				{
					"inputs": [
						{
							"internalType": "uint256",
							"name": "",
							"type": "uint256"
						}
					],
					"name": "purchases",
					"outputs": [
						{
							"internalType": "address",
							"name": "buyer",
							"type": "address"
						},
						{
							"internalType": "address",
							"name": "creator",
							"type": "address"
						},
						{
							"internalType": "uint256",
							"name": "amount",
							"type": "uint256"
						},
						{
							"internalType": "bool",
							"name": "buyerApproval",
							"type": "bool"
						},
						{
							"internalType": "bool",
							"name": "creatorApproval",
							"type": "bool"
						},
						{
							"internalType": "uint256",
							"name": "deadline",
							"type": "uint256"
						},
						{
							"internalType": "bool",
							"name": "refunded",
							"type": "bool"
						}
					],
					"stateMutability": "view",
					"type": "function"
				},
				{
					"inputs": [
						{
							"internalType": "address",
							"name": "creator",
							"type": "address"
						},
						{
							"internalType": "uint8",
							"name": "rating",
							"type": "uint8"
						}
					],
					"name": "rateCreator",
					"outputs": [],
					"stateMutability": "nonpayable",
					"type": "function"
				},
				{
					"inputs": [
						{
							"internalType": "address",
							"name": "",
							"type": "address"
						}
					],
					"name": "ratings",
					"outputs": [
						{
							"internalType": "uint256",
							"name": "",
							"type": "uint256"
						}
					],
					"stateMutability": "view",
					"type": "function"
				},
				{
					"inputs": [],
					"name": "renounceOwnership",
					"outputs": [],
					"stateMutability": "nonpayable",
					"type": "function"
				},
				{
					"inputs": [
						{
							"internalType": "uint256",
							"name": "purchaseId",
							"type": "uint256"
						}
					],
					"name": "requestRefund",
					"outputs": [],
					"stateMutability": "nonpayable",
					"type": "function"
				},
				{
					"inputs": [],
					"name": "stablecoin",
					"outputs": [
						{
							"internalType": "address",
							"name": "",
							"type": "address"
						}
					],
					"stateMutability": "view",
					"type": "function"
				},
				{
					"inputs": [
						{
							"internalType": "address",
							"name": "",
							"type": "address"
						}
					],
					"name": "totalRatings",
					"outputs": [
						{
							"internalType": "uint256",
							"name": "",
							"type": "uint256"
						}
					],
					"stateMutability": "view",
					"type": "function"
				},
				{
					"inputs": [
						{
							"internalType": "address",
							"name": "newOwner",
							"type": "address"
						}
					],
					"name": "transferOwnership",
					"outputs": [],
					"stateMutability": "nonpayable",
					"type": "function"
				},
				{
					"inputs": [],
					"name": "withdrawFunds",
					"outputs": [],
					"stateMutability": "nonpayable",
					"type": "function"
				}
			],
			"devdoc": {
				"errors": {
					"OwnableInvalidOwner(address)": [
						{
							"details": "The owner is not a valid owner account. (eg. `address(0)`)"
						}
					],
					"OwnableUnauthorizedAccount(address)": [
						{
							"details": "The caller account is not authorized to perform an operation."
						}
					]
				},
				"kind": "dev",
				"methods": {
					"owner()": {
						"details": "Returns the address of the current owner."
					},
					"renounceOwnership()": {
						"details": "Leaves the contract without owner. It will not be possible to call `onlyOwner` functions. Can only be called by the current owner. NOTE: Renouncing ownership will leave the contract without an owner, thereby disabling any functionality that is only available to the owner."
					},
					"transferOwnership(address)": {
						"details": "Transfers ownership of the contract to a new account (`newOwner`). Can only be called by the current owner."
					}
				},
				"version": 1
			},
			"evm": {
				"assembly": "    /* \"contracts/PaymentEscrow.sol\":174:6214  contract PaymentEscrow is Ownable (address(this)) {... */\n  mstore(0x40, 0x80)\n    /* \"contracts/PaymentEscrow.sol\":817:823  3 days */\n  0x03f480\n    /* \"contracts/PaymentEscrow.sol\":784:823  uint256 public escrowTimeLimit = 3 days */\n  0x08\n  sstore\n    /* \"contracts/PaymentEscrow.sol\":869:870  5 */\n  0x05\n    /* \"contracts/PaymentEscrow.sol\":830:870  uint256 public platformFeePercentage = 5 */\n  0x09\n  sstore\n    /* \"contracts/PaymentEscrow.sol\":1458:1602  constructor(address _stablecoin, address _platformWallet) {... */\n  callvalue\n  dup1\n  iszero\n  tag_1\n  jumpi\n  0x00\n  dup1\n  revert\ntag_1:\n  pop\n  mload(0x40)\n  sub(codesize, bytecodeSize)\n  dup1\n  bytecodeSize\n  dup4\n  codecopy\n  dup2\n  dup2\n  add\n  0x40\n  mstore\n  dup2\n  add\n  swap1\n  tag_2\n  swap2\n  swap1\n  tag_3\n  jump\t// in\ntag_2:\n    /* \"contracts/PaymentEscrow.sol\":217:221  this */\n  address\n    /* \"@openzeppelin/contracts/access/Ownable.sol\":1297:1298  0 */\n  0x00\n    /* \"@openzeppelin/contracts/access/Ownable.sol\":1273:1299  initialOwner == address(0) */\n  0xffffffffffffffffffffffffffffffffffffffff\n  and\n    /* \"@openzeppelin/contracts/access/Ownable.sol\":1273:1285  initialOwner */\n  dup2\n    /* \"@openzeppelin/contracts/access/Ownable.sol\":1273:1299  initialOwner == address(0) */\n  0xffffffffffffffffffffffffffffffffffffffff\n  and\n  sub\n    /* \"@openzeppelin/contracts/access/Ownable.sol\":1269:1364  if (initialOwner == address(0)) {... */\n  tag_7\n  jumpi\n    /* \"@openzeppelin/contracts/access/Ownable.sol\":1350:1351  0 */\n  0x00\n    /* \"@openzeppelin/contracts/access/Ownable.sol\":1322:1353  OwnableInvalidOwner(address(0)) */\n  mload(0x40)\n  0x1e4fbdf700000000000000000000000000000000000000000000000000000000\n  dup2\n  mstore\n  0x04\n  add\n  tag_8\n  swap2\n  swap1\n  tag_9\n  jump\t// in\ntag_8:\n  mload(0x40)\n  dup1\n  swap2\n  sub\n  swap1\n  revert\n    /* \"@openzeppelin/contracts/access/Ownable.sol\":1269:1364  if (initialOwner == address(0)) {... */\ntag_7:\n    /* \"@openzeppelin/contracts/access/Ownable.sol\":1373:1405  _transferOwnership(initialOwner) */\n  tag_10\n    /* \"@openzeppelin/contracts/access/Ownable.sol\":1392:1404  initialOwner */\n  dup2\n    /* \"@openzeppelin/contracts/access/Ownable.sol\":1373:1391  _transferOwnership */\n  shl(0x20, tag_11)\n    /* \"@openzeppelin/contracts/access/Ownable.sol\":1373:1405  _transferOwnership(initialOwner) */\n  0x20\n  shr\n  jump\t// in\ntag_10:\n    /* \"@openzeppelin/contracts/access/Ownable.sol\":1225:1412  constructor(address initialOwner) {... */\n  pop\n    /* \"contracts/PaymentEscrow.sol\":1540:1551  _stablecoin */\n  dup2\n    /* \"contracts/PaymentEscrow.sol\":1527:1537  stablecoin */\n  0x07\n  0x00\n    /* \"contracts/PaymentEscrow.sol\":1527:1551  stablecoin = _stablecoin */\n  0x0100\n  exp\n  dup2\n  sload\n  dup2\n  0xffffffffffffffffffffffffffffffffffffffff\n  mul\n  not\n  and\n  swap1\n  dup4\n  0xffffffffffffffffffffffffffffffffffffffff\n  and\n  mul\n  or\n  swap1\n  sstore\n  pop\n    /* \"contracts/PaymentEscrow.sol\":1579:1594  _platformWallet */\n  dup1\n    /* \"contracts/PaymentEscrow.sol\":1562:1576  platformWallet */\n  0x0a\n  0x00\n    /* \"contracts/PaymentEscrow.sol\":1562:1594  platformWallet = _platformWallet */\n  0x0100\n  exp\n  dup2\n  sload\n  dup2\n  0xffffffffffffffffffffffffffffffffffffffff\n  mul\n  not\n  and\n  swap1\n  dup4\n  0xffffffffffffffffffffffffffffffffffffffff\n  and\n  mul\n  or\n  swap1\n  sstore\n  pop\n    /* \"contracts/PaymentEscrow.sol\":1458:1602  constructor(address _stablecoin, address _platformWallet) {... */\n  pop\n  pop\n    /* \"contracts/PaymentEscrow.sol\":174:6214  contract PaymentEscrow is Ownable (address(this)) {... */\n  jump(tag_13)\n    /* \"@openzeppelin/contracts/access/Ownable.sol\":2912:3099  function _transferOwnership(address newOwner) internal virtual {... */\ntag_11:\n    /* \"@openzeppelin/contracts/access/Ownable.sol\":2985:3001  address oldOwner */\n  0x00\n    /* \"@openzeppelin/contracts/access/Ownable.sol\":3004:3010  _owner */\n  dup1\n  0x00\n  swap1\n  sload\n  swap1\n  0x0100\n  exp\n  swap1\n  div\n  0xffffffffffffffffffffffffffffffffffffffff\n  and\n    /* \"@openzeppelin/contracts/access/Ownable.sol\":2985:3010  address oldOwner = _owner */\n  swap1\n  pop\n    /* \"@openzeppelin/contracts/access/Ownable.sol\":3029:3037  newOwner */\n  dup2\n    /* \"@openzeppelin/contracts/access/Ownable.sol\":3020:3026  _owner */\n  0x00\n  dup1\n    /* \"@openzeppelin/contracts/access/Ownable.sol\":3020:3037  _owner = newOwner */\n  0x0100\n  exp\n  dup2\n  sload\n  dup2\n  0xffffffffffffffffffffffffffffffffffffffff\n  mul\n  not\n  and\n  swap1\n  dup4\n  0xffffffffffffffffffffffffffffffffffffffff\n  and\n  mul\n  or\n  swap1\n  sstore\n  pop\n    /* \"@openzeppelin/contracts/access/Ownable.sol\":3083:3091  newOwner */\n  dup2\n    /* \"@openzeppelin/contracts/access/Ownable.sol\":3052:3092  OwnershipTransferred(oldOwner, newOwner) */\n  0xffffffffffffffffffffffffffffffffffffffff\n  and\n    /* \"@openzeppelin/contracts/access/Ownable.sol\":3073:3081  oldOwner */\n  dup2\n    /* \"@openzeppelin/contracts/access/Ownable.sol\":3052:3092  OwnershipTransferred(oldOwner, newOwner) */\n  0xffffffffffffffffffffffffffffffffffffffff\n  and\n  0x8be0079c531659141344cd1fd0a4f28419497f9722a3daafe3b4186f6b6457e0\n  mload(0x40)\n  mload(0x40)\n  dup1\n  swap2\n  sub\n  swap1\n  log3\n    /* \"@openzeppelin/contracts/access/Ownable.sol\":2975:3099  {... */\n  pop\n    /* \"@openzeppelin/contracts/access/Ownable.sol\":2912:3099  function _transferOwnership(address newOwner) internal virtual {... */\n  pop\n  jump\t// out\n    /* \"#utility.yul\":88:205   */\ntag_16:\n    /* \"#utility.yul\":197:198   */\n  0x00\n    /* \"#utility.yul\":194:195   */\n  dup1\n    /* \"#utility.yul\":187:199   */\n  revert\n    /* \"#utility.yul\":334:460   */\ntag_18:\n    /* \"#utility.yul\":371:378   */\n  0x00\n    /* \"#utility.yul\":411:453   */\n  0xffffffffffffffffffffffffffffffffffffffff\n    /* \"#utility.yul\":404:409   */\n  dup3\n    /* \"#utility.yul\":400:454   */\n  and\n    /* \"#utility.yul\":389:454   */\n  swap1\n  pop\n    /* \"#utility.yul\":334:460   */\n  swap2\n  swap1\n  pop\n  jump\t// out\n    /* \"#utility.yul\":466:562   */\ntag_19:\n    /* \"#utility.yul\":503:510   */\n  0x00\n    /* \"#utility.yul\":532:556   */\n  tag_29\n    /* \"#utility.yul\":550:555   */\n  dup3\n    /* \"#utility.yul\":532:556   */\n  tag_18\n  jump\t// in\ntag_29:\n    /* \"#utility.yul\":521:556   */\n  swap1\n  pop\n    /* \"#utility.yul\":466:562   */\n  swap2\n  swap1\n  pop\n  jump\t// out\n    /* \"#utility.yul\":568:690   */\ntag_20:\n    /* \"#utility.yul\":641:665   */\n  tag_31\n    /* \"#utility.yul\":659:664   */\n  dup2\n    /* \"#utility.yul\":641:665   */\n  tag_19\n  jump\t// in\ntag_31:\n    /* \"#utility.yul\":634:639   */\n  dup2\n    /* \"#utility.yul\":631:666   */\n  eq\n    /* \"#utility.yul\":621:684   */\n  tag_32\n  jumpi\n    /* \"#utility.yul\":680:681   */\n  0x00\n    /* \"#utility.yul\":677:678   */\n  dup1\n    /* \"#utility.yul\":670:682   */\n  revert\n    /* \"#utility.yul\":621:684   */\ntag_32:\n    /* \"#utility.yul\":568:690   */\n  pop\n  jump\t// out\n    /* \"#utility.yul\":696:839   */\ntag_21:\n    /* \"#utility.yul\":753:758   */\n  0x00\n    /* \"#utility.yul\":784:790   */\n  dup2\n    /* \"#utility.yul\":778:791   */\n  mload\n    /* \"#utility.yul\":769:791   */\n  swap1\n  pop\n    /* \"#utility.yul\":800:833   */\n  tag_34\n    /* \"#utility.yul\":827:832   */\n  dup2\n    /* \"#utility.yul\":800:833   */\n  tag_20\n  jump\t// in\ntag_34:\n    /* \"#utility.yul\":696:839   */\n  swap3\n  swap2\n  pop\n  pop\n  jump\t// out\n    /* \"#utility.yul\":845:1352   */\ntag_3:\n    /* \"#utility.yul\":924:930   */\n  0x00\n    /* \"#utility.yul\":932:938   */\n  dup1\n    /* \"#utility.yul\":981:983   */\n  0x40\n    /* \"#utility.yul\":969:978   */\n  dup4\n    /* \"#utility.yul\":960:967   */\n  dup6\n    /* \"#utility.yul\":956:979   */\n  sub\n    /* \"#utility.yul\":952:984   */\n  slt\n    /* \"#utility.yul\":949:1068   */\n  iszero\n  tag_36\n  jumpi\n    /* \"#utility.yul\":987:1066   */\n  tag_37\n  tag_16\n  jump\t// in\ntag_37:\n    /* \"#utility.yul\":949:1068   */\ntag_36:\n    /* \"#utility.yul\":1107:1108   */\n  0x00\n    /* \"#utility.yul\":1132:1196   */\n  tag_38\n    /* \"#utility.yul\":1188:1195   */\n  dup6\n    /* \"#utility.yul\":1179:1185   */\n  dup3\n    /* \"#utility.yul\":1168:1177   */\n  dup7\n    /* \"#utility.yul\":1164:1186   */\n  add\n    /* \"#utility.yul\":1132:1196   */\n  tag_21\n  jump\t// in\ntag_38:\n    /* \"#utility.yul\":1122:1196   */\n  swap3\n  pop\n    /* \"#utility.yul\":1078:1206   */\n  pop\n    /* \"#utility.yul\":1245:1247   */\n  0x20\n    /* \"#utility.yul\":1271:1335   */\n  tag_39\n    /* \"#utility.yul\":1327:1334   */\n  dup6\n    /* \"#utility.yul\":1318:1324   */\n  dup3\n    /* \"#utility.yul\":1307:1316   */\n  dup7\n    /* \"#utility.yul\":1303:1325   */\n  add\n    /* \"#utility.yul\":1271:1335   */\n  tag_21\n  jump\t// in\ntag_39:\n    /* \"#utility.yul\":1261:1335   */\n  swap2\n  pop\n    /* \"#utility.yul\":1216:1345   */\n  pop\n    /* \"#utility.yul\":845:1352   */\n  swap3\n  pop\n  swap3\n  swap1\n  pop\n  jump\t// out\n    /* \"#utility.yul\":1358:1476   */\ntag_22:\n    /* \"#utility.yul\":1445:1469   */\n  tag_41\n    /* \"#utility.yul\":1463:1468   */\n  dup2\n    /* \"#utility.yul\":1445:1469   */\n  tag_19\n  jump\t// in\ntag_41:\n    /* \"#utility.yul\":1440:1443   */\n  dup3\n    /* \"#utility.yul\":1433:1470   */\n  mstore\n    /* \"#utility.yul\":1358:1476   */\n  pop\n  pop\n  jump\t// out\n    /* \"#utility.yul\":1482:1704   */\ntag_9:\n    /* \"#utility.yul\":1575:1579   */\n  0x00\n    /* \"#utility.yul\":1613:1615   */\n  0x20\n    /* \"#utility.yul\":1602:1611   */\n  dup3\n    /* \"#utility.yul\":1598:1616   */\n  add\n    /* \"#utility.yul\":1590:1616   */\n  swap1\n  pop\n    /* \"#utility.yul\":1626:1697   */\n  tag_43\n    /* \"#utility.yul\":1694:1695   */\n  0x00\n    /* \"#utility.yul\":1683:1692   */\n  dup4\n    /* \"#utility.yul\":1679:1696   */\n  add\n    /* \"#utility.yul\":1670:1676   */\n  dup5\n    /* \"#utility.yul\":1626:1697   */\n  tag_22\n  jump\t// in\ntag_43:\n    /* \"#utility.yul\":1482:1704   */\n  swap3\n  swap2\n  pop\n  pop\n  jump\t// out\n    /* \"contracts/PaymentEscrow.sol\":174:6214  contract PaymentEscrow is Ownable (address(this)) {... */\ntag_13:\n  dataSize(sub_0)\n  dup1\n  dataOffset(sub_0)\n  0x00\n  codecopy\n  0x00\n  return\nstop\n\nsub_0: assembly {\n        /* \"contracts/PaymentEscrow.sol\":174:6214  contract PaymentEscrow is Ownable (address(this)) {... */\n      mstore(0x40, 0x80)\n      jumpi(tag_1, lt(calldatasize, 0x04))\n      shr(0xe0, calldataload(0x00))\n      dup1\n      0x8392fe31\n      gt\n      tag_25\n      jumpi\n      dup1\n      0xc8b67522\n      gt\n      tag_26\n      jumpi\n      dup1\n      0xc8b67522\n      eq\n      tag_19\n      jumpi\n      dup1\n      0xcdd78cfc\n      eq\n      tag_20\n      jumpi\n      dup1\n      0xe9cbd822\n      eq\n      tag_21\n      jumpi\n      dup1\n      0xf2fde38b\n      eq\n      tag_22\n      jumpi\n      dup1\n      0xfa2af9da\n      eq\n      tag_23\n      jumpi\n      dup1\n      0xfd84cb97\n      eq\n      tag_24\n      jumpi\n      jump(tag_1)\n    tag_26:\n      dup1\n      0x8392fe31\n      eq\n      tag_13\n      jumpi\n      dup1\n      0x8b609dab\n      eq\n      tag_14\n      jumpi\n      dup1\n      0x8da5cb5b\n      eq\n      tag_15\n      jumpi\n      dup1\n      0x9e01dfbb\n      eq\n      tag_16\n      jumpi\n      dup1\n      0x9f766246\n      eq\n      tag_17\n      jumpi\n      dup1\n      0xa4b2409e\n      eq\n      tag_18\n      jumpi\n      jump(tag_1)\n    tag_25:\n      dup1\n      0x3222365f\n      gt\n      tag_27\n      jumpi\n      dup1\n      0x3222365f\n      eq\n      tag_7\n      jumpi\n      dup1\n      0x454c1723\n      eq\n      tag_8\n      jumpi\n      dup1\n      0x57ac1d07\n      eq\n      tag_9\n      jumpi\n      dup1\n      0x589c9648\n      eq\n      tag_10\n      jumpi\n      dup1\n      0x604cbee4\n      eq\n      tag_11\n      jumpi\n      dup1\n      0x715018a6\n      eq\n      tag_12\n      jumpi\n      jump(tag_1)\n    tag_27:\n      dup1\n      0x055680f0\n      eq\n      tag_2\n      jumpi\n      dup1\n      0x1b41c1ff\n      eq\n      tag_3\n      jumpi\n      dup1\n      0x24600fc3\n      eq\n      tag_4\n      jumpi\n      dup1\n      0x279805c9\n      eq\n      tag_5\n      jumpi\n      dup1\n      0x2a782802\n      eq\n      tag_6\n      jumpi\n    tag_1:\n      0x00\n      dup1\n      revert\n        /* \"contracts/PaymentEscrow.sol\":715:745  uint256 public purchaseCounter */\n    tag_2:\n      callvalue\n      dup1\n      iszero\n      tag_28\n      jumpi\n      0x00\n      dup1\n      revert\n    tag_28:\n      pop\n      tag_29\n      tag_30\n      jump\t// in\n    tag_29:\n      mload(0x40)\n      tag_31\n      swap2\n      swap1\n      tag_32\n      jump\t// in\n    tag_31:\n      mload(0x40)\n      dup1\n      swap2\n      sub\n      swap1\n      return\n        /* \"contracts/PaymentEscrow.sol\":784:823  uint256 public escrowTimeLimit = 3 days */\n    tag_3:\n      callvalue\n      dup1\n      iszero\n      tag_33\n      jumpi\n      0x00\n      dup1\n      revert\n    tag_33:\n      pop\n      tag_34\n      tag_35\n      jump\t// in\n    tag_34:\n      mload(0x40)\n      tag_36\n      swap2\n      swap1\n      tag_32\n      jump\t// in\n    tag_36:\n      mload(0x40)\n      dup1\n      swap2\n      sub\n      swap1\n      return\n        /* \"contracts/PaymentEscrow.sol\":5228:5521  function withdrawFunds() external {... */\n    tag_4:\n      callvalue\n      dup1\n      iszero\n      tag_37\n      jumpi\n      0x00\n      dup1\n      revert\n    tag_37:\n      pop\n      tag_38\n      tag_39\n      jump\t// in\n    tag_38:\n      stop\n        /* \"contracts/PaymentEscrow.sol\":1610:2178  function payWithETH(address creator) external payable {... */\n    tag_5:\n      tag_40\n      0x04\n      dup1\n      calldatasize\n      sub\n      dup2\n      add\n      swap1\n      tag_41\n      swap2\n      swap1\n      tag_42\n      jump\t// in\n    tag_41:\n      tag_43\n      jump\t// in\n    tag_40:\n      stop\n        /* \"contracts/PaymentEscrow.sol\":501:551  mapping(address => uint256) public creatorBalances */\n    tag_6:\n      callvalue\n      dup1\n      iszero\n      tag_44\n      jumpi\n      0x00\n      dup1\n      revert\n    tag_44:\n      pop\n      tag_45\n      0x04\n      dup1\n      calldatasize\n      sub\n      dup2\n      add\n      swap1\n      tag_46\n      swap2\n      swap1\n      tag_42\n      jump\t// in\n    tag_46:\n      tag_47\n      jump\t// in\n    tag_45:\n      mload(0x40)\n      tag_48\n      swap2\n      swap1\n      tag_32\n      jump\t// in\n    tag_48:\n      mload(0x40)\n      dup1\n      swap2\n      sub\n      swap1\n      return\n        /* \"contracts/PaymentEscrow.sol\":2963:3598  function processMPesaPayment(address buyer, address creator, uint256 amount, string memory paymentReference) external onlyOwner {... */\n    tag_7:\n      callvalue\n      dup1\n      iszero\n      tag_49\n      jumpi\n      0x00\n      dup1\n      revert\n    tag_49:\n      pop\n      tag_50\n      0x04\n      dup1\n      calldatasize\n      sub\n      dup2\n      add\n      swap1\n      tag_51\n      swap2\n      swap1\n      tag_52\n      jump\t// in\n    tag_51:\n      tag_53\n      jump\t// in\n    tag_50:\n      stop\n        /* \"contracts/PaymentEscrow.sol\":5868:5985  function getBuyerRewards(address buyer) external view returns (uint256) {... */\n    tag_8:\n      callvalue\n      dup1\n      iszero\n      tag_54\n      jumpi\n      0x00\n      dup1\n      revert\n    tag_54:\n      pop\n      tag_55\n      0x04\n      dup1\n      calldatasize\n      sub\n      dup2\n      add\n      swap1\n      tag_56\n      swap2\n      swap1\n      tag_42\n      jump\t// in\n    tag_56:\n      tag_57\n      jump\t// in\n    tag_55:\n      mload(0x40)\n      tag_58\n      swap2\n      swap1\n      tag_32\n      jump\t// in\n    tag_58:\n      mload(0x40)\n      dup1\n      swap2\n      sub\n      swap1\n      return\n        /* \"contracts/PaymentEscrow.sol\":5529:5860  function rateCreator(address creator, uint8 rating) external {... */\n    tag_9:\n      callvalue\n      dup1\n      iszero\n      tag_59\n      jumpi\n      0x00\n      dup1\n      revert\n    tag_59:\n      pop\n      tag_60\n      0x04\n      dup1\n      calldatasize\n      sub\n      dup2\n      add\n      swap1\n      tag_61\n      swap2\n      swap1\n      tag_62\n      jump\t// in\n    tag_61:\n      tag_63\n      jump\t// in\n    tag_60:\n      stop\n        /* \"contracts/PaymentEscrow.sol\":3606:3977  function approveContent(uint256 purchaseId) external {... */\n    tag_10:\n      callvalue\n      dup1\n      iszero\n      tag_64\n      jumpi\n      0x00\n      dup1\n      revert\n    tag_64:\n      pop\n      tag_65\n      0x04\n      dup1\n      calldatasize\n      sub\n      dup2\n      add\n      swap1\n      tag_66\n      swap2\n      swap1\n      tag_67\n      jump\t// in\n    tag_66:\n      tag_68\n      jump\t// in\n    tag_65:\n      stop\n        /* \"contracts/PaymentEscrow.sol\":2186:2955  function payWithStablecoin(address creator, uint256 amount) external {... */\n    tag_11:\n      callvalue\n      dup1\n      iszero\n      tag_69\n      jumpi\n      0x00\n      dup1\n      revert\n    tag_69:\n      pop\n      tag_70\n      0x04\n      dup1\n      calldatasize\n      sub\n      dup2\n      add\n      swap1\n      tag_71\n      swap2\n      swap1\n      tag_72\n      jump\t// in\n    tag_71:\n      tag_73\n      jump\t// in\n    tag_70:\n      stop\n        /* \"@openzeppelin/contracts/access/Ownable.sol\":2293:2394  function renounceOwnership() public virtual onlyOwner {... */\n    tag_12:\n      callvalue\n      dup1\n      iszero\n      tag_74\n      jumpi\n      0x00\n      dup1\n      revert\n    tag_74:\n      pop\n      tag_75\n      tag_76\n      jump\t// in\n    tag_75:\n      stop\n        /* \"contracts/PaymentEscrow.sol\":449:494  mapping(uint256 => Purchase) public purchases */\n    tag_13:\n      callvalue\n      dup1\n      iszero\n      tag_77\n      jumpi\n      0x00\n      dup1\n      revert\n    tag_77:\n      pop\n      tag_78\n      0x04\n      dup1\n      calldatasize\n      sub\n      dup2\n      add\n      swap1\n      tag_79\n      swap2\n      swap1\n      tag_67\n      jump\t// in\n    tag_79:\n      tag_80\n      jump\t// in\n    tag_78:\n      mload(0x40)\n      tag_81\n      swap8\n      swap7\n      swap6\n      swap5\n      swap4\n      swap3\n      swap2\n      swap1\n      tag_82\n      jump\t// in\n    tag_81:\n      mload(0x40)\n      dup1\n      swap2\n      sub\n      swap1\n      return\n        /* \"contracts/PaymentEscrow.sol\":661:708  mapping(address => uint256) public totalRatings */\n    tag_14:\n      callvalue\n      dup1\n      iszero\n      tag_83\n      jumpi\n      0x00\n      dup1\n      revert\n    tag_83:\n      pop\n      tag_84\n      0x04\n      dup1\n      calldatasize\n      sub\n      dup2\n      add\n      swap1\n      tag_85\n      swap2\n      swap1\n      tag_42\n      jump\t// in\n    tag_85:\n      tag_86\n      jump\t// in\n    tag_84:\n      mload(0x40)\n      tag_87\n      swap2\n      swap1\n      tag_32\n      jump\t// in\n    tag_87:\n      mload(0x40)\n      dup1\n      swap2\n      sub\n      swap1\n      return\n        /* \"@openzeppelin/contracts/access/Ownable.sol\":1638:1723  function owner() public view virtual returns (address) {... */\n    tag_15:\n      callvalue\n      dup1\n      iszero\n      tag_88\n      jumpi\n      0x00\n      dup1\n      revert\n    tag_88:\n      pop\n      tag_89\n      tag_90\n      jump\t// in\n    tag_89:\n      mload(0x40)\n      tag_91\n      swap2\n      swap1\n      tag_92\n      jump\t// in\n    tag_91:\n      mload(0x40)\n      dup1\n      swap2\n      sub\n      swap1\n      return\n        /* \"contracts/PaymentEscrow.sol\":612:654  mapping(address => uint256) public ratings */\n    tag_16:\n      callvalue\n      dup1\n      iszero\n      tag_93\n      jumpi\n      0x00\n      dup1\n      revert\n    tag_93:\n      pop\n      tag_94\n      0x04\n      dup1\n      calldatasize\n      sub\n      dup2\n      add\n      swap1\n      tag_95\n      swap2\n      swap1\n      tag_42\n      jump\t// in\n    tag_95:\n      tag_96\n      jump\t// in\n    tag_94:\n      mload(0x40)\n      tag_97\n      swap2\n      swap1\n      tag_32\n      jump\t// in\n    tag_97:\n      mload(0x40)\n      dup1\n      swap2\n      sub\n      swap1\n      return\n        /* \"contracts/PaymentEscrow.sol\":558:605  mapping(address => uint256) public buyerRewards */\n    tag_17:\n      callvalue\n      dup1\n      iszero\n      tag_98\n      jumpi\n      0x00\n      dup1\n      revert\n    tag_98:\n      pop\n      tag_99\n      0x04\n      dup1\n      calldatasize\n      sub\n      dup2\n      add\n      swap1\n      tag_100\n      swap2\n      swap1\n      tag_42\n      jump\t// in\n    tag_100:\n      tag_101\n      jump\t// in\n    tag_99:\n      mload(0x40)\n      tag_102\n      swap2\n      swap1\n      tag_32\n      jump\t// in\n    tag_102:\n      mload(0x40)\n      dup1\n      swap2\n      sub\n      swap1\n      return\n        /* \"contracts/PaymentEscrow.sol\":4639:5220  function requestRefund(uint256 purchaseId) external {... */\n    tag_18:\n      callvalue\n      dup1\n      iszero\n      tag_103\n      jumpi\n      0x00\n      dup1\n      revert\n    tag_103:\n      pop\n      tag_104\n      0x04\n      dup1\n      calldatasize\n      sub\n      dup2\n      add\n      swap1\n      tag_105\n      swap2\n      swap1\n      tag_67\n      jump\t// in\n    tag_105:\n      tag_106\n      jump\t// in\n    tag_104:\n      stop\n        /* \"contracts/PaymentEscrow.sol\":5993:6211  function getAverageRating(address creator) external view returns (uint256) {... */\n    tag_19:\n      callvalue\n      dup1\n      iszero\n      tag_107\n      jumpi\n      0x00\n      dup1\n      revert\n    tag_107:\n      pop\n      tag_108\n      0x04\n      dup1\n      calldatasize\n      sub\n      dup2\n      add\n      swap1\n      tag_109\n      swap2\n      swap1\n      tag_42\n      jump\t// in\n    tag_109:\n      tag_110\n      jump\t// in\n    tag_108:\n      mload(0x40)\n      tag_111\n      swap2\n      swap1\n      tag_32\n      jump\t// in\n    tag_111:\n      mload(0x40)\n      dup1\n      swap2\n      sub\n      swap1\n      return\n        /* \"contracts/PaymentEscrow.sol\":830:870  uint256 public platformFeePercentage = 5 */\n    tag_20:\n      callvalue\n      dup1\n      iszero\n      tag_112\n      jumpi\n      0x00\n      dup1\n      revert\n    tag_112:\n      pop\n      tag_113\n      tag_114\n      jump\t// in\n    tag_113:\n      mload(0x40)\n      tag_115\n      swap2\n      swap1\n      tag_32\n      jump\t// in\n    tag_115:\n      mload(0x40)\n      dup1\n      swap2\n      sub\n      swap1\n      return\n        /* \"contracts/PaymentEscrow.sol\":752:777  address public stablecoin */\n    tag_21:\n      callvalue\n      dup1\n      iszero\n      tag_116\n      jumpi\n      0x00\n      dup1\n      revert\n    tag_116:\n      pop\n      tag_117\n      tag_118\n      jump\t// in\n    tag_117:\n      mload(0x40)\n      tag_119\n      swap2\n      swap1\n      tag_92\n      jump\t// in\n    tag_119:\n      mload(0x40)\n      dup1\n      swap2\n      sub\n      swap1\n      return\n        /* \"@openzeppelin/contracts/access/Ownable.sol\":2543:2758  function transferOwnership(address newOwner) public virtual onlyOwner {... */\n    tag_22:\n      callvalue\n      dup1\n      iszero\n      tag_120\n      jumpi\n      0x00\n      dup1\n      revert\n    tag_120:\n      pop\n      tag_121\n      0x04\n      dup1\n      calldatasize\n      sub\n      dup2\n      add\n      swap1\n      tag_122\n      swap2\n      swap1\n      tag_42\n      jump\t// in\n    tag_122:\n      tag_123\n      jump\t// in\n    tag_121:\n      stop\n        /* \"contracts/PaymentEscrow.sol\":898:927  address public platformWallet */\n    tag_23:\n      callvalue\n      dup1\n      iszero\n      tag_124\n      jumpi\n      0x00\n      dup1\n      revert\n    tag_124:\n      pop\n      tag_125\n      tag_126\n      jump\t// in\n    tag_125:\n      mload(0x40)\n      tag_127\n      swap2\n      swap1\n      tag_92\n      jump\t// in\n    tag_127:\n      mload(0x40)\n      dup1\n      swap2\n      sub\n      swap1\n      return\n        /* \"contracts/PaymentEscrow.sol\":3985:4365  function confirmDelivery(uint256 purchaseId) external {... */\n    tag_24:\n      callvalue\n      dup1\n      iszero\n      tag_128\n      jumpi\n      0x00\n      dup1\n      revert\n    tag_128:\n      pop\n      tag_129\n      0x04\n      dup1\n      calldatasize\n      sub\n      dup2\n      add\n      swap1\n      tag_130\n      swap2\n      swap1\n      tag_67\n      jump\t// in\n    tag_130:\n      tag_131\n      jump\t// in\n    tag_129:\n      stop\n        /* \"contracts/PaymentEscrow.sol\":715:745  uint256 public purchaseCounter */\n    tag_30:\n      sload(0x06)\n      dup2\n      jump\t// out\n        /* \"contracts/PaymentEscrow.sol\":784:823  uint256 public escrowTimeLimit = 3 days */\n    tag_35:\n      sload(0x08)\n      dup2\n      jump\t// out\n        /* \"contracts/PaymentEscrow.sol\":5228:5521  function withdrawFunds() external {... */\n    tag_39:\n        /* \"contracts/PaymentEscrow.sol\":5273:5288  uint256 balance */\n      0x00\n        /* \"contracts/PaymentEscrow.sol\":5291:5306  creatorBalances */\n      0x02\n        /* \"contracts/PaymentEscrow.sol\":5291:5318  creatorBalances[msg.sender] */\n      0x00\n        /* \"contracts/PaymentEscrow.sol\":5307:5317  msg.sender */\n      caller\n        /* \"contracts/PaymentEscrow.sol\":5291:5318  creatorBalances[msg.sender] */\n      0xffffffffffffffffffffffffffffffffffffffff\n      and\n      0xffffffffffffffffffffffffffffffffffffffff\n      and\n      dup2\n      mstore\n      0x20\n      add\n      swap1\n      dup2\n      mstore\n      0x20\n      add\n      0x00\n      keccak256\n      sload\n        /* \"contracts/PaymentEscrow.sol\":5273:5318  uint256 balance = creatorBalances[msg.sender] */\n      swap1\n      pop\n        /* \"contracts/PaymentEscrow.sol\":5347:5348  0 */\n      0x00\n        /* \"contracts/PaymentEscrow.sol\":5337:5344  balance */\n      dup2\n        /* \"contracts/PaymentEscrow.sol\":5337:5348  balance > 0 */\n      gt\n        /* \"contracts/PaymentEscrow.sol\":5329:5371  require(balance > 0, \"No funds available\") */\n      tag_133\n      jumpi\n      mload(0x40)\n      0x08c379a000000000000000000000000000000000000000000000000000000000\n      dup2\n      mstore\n      0x04\n      add\n      tag_134\n      swap1\n      tag_135\n      jump\t// in\n    tag_134:\n      mload(0x40)\n      dup1\n      swap2\n      sub\n      swap1\n      revert\n    tag_133:\n        /* \"contracts/PaymentEscrow.sol\":5412:5413  0 */\n      0x00\n        /* \"contracts/PaymentEscrow.sol\":5382:5397  creatorBalances */\n      0x02\n        /* \"contracts/PaymentEscrow.sol\":5382:5409  creatorBalances[msg.sender] */\n      0x00\n        /* \"contracts/PaymentEscrow.sol\":5398:5408  msg.sender */\n      caller\n        /* \"contracts/PaymentEscrow.sol\":5382:5409  creatorBalances[msg.sender] */\n      0xffffffffffffffffffffffffffffffffffffffff\n      and\n      0xffffffffffffffffffffffffffffffffffffffff\n      and\n      dup2\n      mstore\n      0x20\n      add\n      swap1\n      dup2\n      mstore\n      0x20\n      add\n      0x00\n      keccak256\n        /* \"contracts/PaymentEscrow.sol\":5382:5413  creatorBalances[msg.sender] = 0 */\n      dup2\n      swap1\n      sstore\n      pop\n        /* \"contracts/PaymentEscrow.sol\":5432:5442  msg.sender */\n      caller\n        /* \"contracts/PaymentEscrow.sol\":5424:5452  payable(msg.sender).transfer */\n      0xffffffffffffffffffffffffffffffffffffffff\n      and\n        /* \"contracts/PaymentEscrow.sol\":5424:5461  payable(msg.sender).transfer(balance) */\n      0x08fc\n        /* \"contracts/PaymentEscrow.sol\":5453:5460  balance */\n      dup3\n        /* \"contracts/PaymentEscrow.sol\":5424:5461  payable(msg.sender).transfer(balance) */\n      swap1\n      dup2\n      iszero\n      mul\n      swap1\n      mload(0x40)\n      0x00\n      mload(0x40)\n      dup1\n      dup4\n      sub\n      dup2\n      dup6\n      dup9\n      dup9\n      call\n      swap4\n      pop\n      pop\n      pop\n      pop\n      iszero\n      dup1\n      iszero\n      tag_137\n      jumpi\n      returndatasize\n      0x00\n      dup1\n      returndatacopy\n      revert(0x00, returndatasize)\n    tag_137:\n      pop\n        /* \"contracts/PaymentEscrow.sol\":5493:5503  msg.sender */\n      caller\n        /* \"contracts/PaymentEscrow.sol\":5477:5513  CreatorWithdraw(msg.sender, balance) */\n      0xffffffffffffffffffffffffffffffffffffffff\n      and\n      0x957727802c31109adcff14fcfbd2dc576e9bfd4d6385ddd160fe42832a4555fe\n        /* \"contracts/PaymentEscrow.sol\":5505:5512  balance */\n      dup3\n        /* \"contracts/PaymentEscrow.sol\":5477:5513  CreatorWithdraw(msg.sender, balance) */\n      mload(0x40)\n      tag_138\n      swap2\n      swap1\n      tag_32\n      jump\t// in\n    tag_138:\n      mload(0x40)\n      dup1\n      swap2\n      sub\n      swap1\n      log2\n        /* \"contracts/PaymentEscrow.sol\":5262:5521  {... */\n      pop\n        /* \"contracts/PaymentEscrow.sol\":5228:5521  function withdrawFunds() external {... */\n      jump\t// out\n        /* \"contracts/PaymentEscrow.sol\":1610:2178  function payWithETH(address creator) external payable {... */\n    tag_43:\n        /* \"contracts/PaymentEscrow.sol\":1695:1696  0 */\n      0x00\n        /* \"contracts/PaymentEscrow.sol\":1683:1692  msg.value */\n      callvalue\n        /* \"contracts/PaymentEscrow.sol\":1683:1696  msg.value > 0 */\n      gt\n        /* \"contracts/PaymentEscrow.sol\":1675:1731  require(msg.value > 0, \"Payment must be greater than 0\") */\n      tag_140\n      jumpi\n      mload(0x40)\n      0x08c379a000000000000000000000000000000000000000000000000000000000\n      dup2\n      mstore\n      0x04\n      add\n      tag_141\n      swap1\n      tag_142\n      jump\t// in\n    tag_141:\n      mload(0x40)\n      dup1\n      swap2\n      sub\n      swap1\n      revert\n    tag_140:\n        /* \"contracts/PaymentEscrow.sol\":1742:1753  uint256 fee */\n      0x00\n        /* \"contracts/PaymentEscrow.sol\":1794:1797  100 */\n      0x64\n        /* \"contracts/PaymentEscrow.sol\":1769:1790  platformFeePercentage */\n      sload(0x09)\n        /* \"contracts/PaymentEscrow.sol\":1757:1766  msg.value */\n      callvalue\n        /* \"contracts/PaymentEscrow.sol\":1757:1790  msg.value * platformFeePercentage */\n      tag_143\n      swap2\n      swap1\n      tag_144\n      jump\t// in\n    tag_143:\n        /* \"contracts/PaymentEscrow.sol\":1756:1797  (msg.value * platformFeePercentage) / 100 */\n      tag_145\n      swap2\n      swap1\n      tag_146\n      jump\t// in\n    tag_145:\n        /* \"contracts/PaymentEscrow.sol\":1742:1797  uint256 fee = (msg.value * platformFeePercentage) / 100 */\n      swap1\n      pop\n        /* \"contracts/PaymentEscrow.sol\":1808:1829  uint256 creatorAmount */\n      0x00\n        /* \"contracts/PaymentEscrow.sol\":1844:1847  fee */\n      dup2\n        /* \"contracts/PaymentEscrow.sol\":1832:1841  msg.value */\n      callvalue\n        /* \"contracts/PaymentEscrow.sol\":1832:1847  msg.value - fee */\n      tag_147\n      swap2\n      swap1\n      tag_148\n      jump\t// in\n    tag_147:\n        /* \"contracts/PaymentEscrow.sol\":1808:1847  uint256 creatorAmount = msg.value - fee */\n      swap1\n      pop\n        /* \"contracts/PaymentEscrow.sol\":1868:1883  purchaseCounter */\n      0x06\n      0x00\n        /* \"contracts/PaymentEscrow.sol\":1868:1885  purchaseCounter++ */\n      dup2\n      sload\n      dup1\n      swap3\n      swap2\n      swap1\n      tag_149\n      swap1\n      tag_150\n      jump\t// in\n    tag_149:\n      swap2\n      swap1\n      pop\n      sstore\n      pop\n        /* \"contracts/PaymentEscrow.sol\":1925:2025  Purchase(msg.sender, creator, creatorAmount, false, false, block.timestamp + escrowTimeLimit, false) */\n      mload(0x40)\n      dup1\n      0xe0\n      add\n      0x40\n      mstore\n      dup1\n        /* \"contracts/PaymentEscrow.sol\":1934:1944  msg.sender */\n      caller\n        /* \"contracts/PaymentEscrow.sol\":1925:2025  Purchase(msg.sender, creator, creatorAmount, false, false, block.timestamp + escrowTimeLimit, false) */\n      0xffffffffffffffffffffffffffffffffffffffff\n      and\n      dup2\n      mstore\n      0x20\n      add\n        /* \"contracts/PaymentEscrow.sol\":1946:1953  creator */\n      dup5\n        /* \"contracts/PaymentEscrow.sol\":1925:2025  Purchase(msg.sender, creator, creatorAmount, false, false, block.timestamp + escrowTimeLimit, false) */\n      0xffffffffffffffffffffffffffffffffffffffff\n      and\n      dup2\n      mstore\n      0x20\n      add\n        /* \"contracts/PaymentEscrow.sol\":1955:1968  creatorAmount */\n      dup3\n        /* \"contracts/PaymentEscrow.sol\":1925:2025  Purchase(msg.sender, creator, creatorAmount, false, false, block.timestamp + escrowTimeLimit, false) */\n      dup2\n      mstore\n      0x20\n      add\n        /* \"contracts/PaymentEscrow.sol\":1970:1975  false */\n      0x00\n        /* \"contracts/PaymentEscrow.sol\":1925:2025  Purchase(msg.sender, creator, creatorAmount, false, false, block.timestamp + escrowTimeLimit, false) */\n      iszero\n      iszero\n      dup2\n      mstore\n      0x20\n      add\n        /* \"contracts/PaymentEscrow.sol\":1977:1982  false */\n      0x00\n        /* \"contracts/PaymentEscrow.sol\":1925:2025  Purchase(msg.sender, creator, creatorAmount, false, false, block.timestamp + escrowTimeLimit, false) */\n      iszero\n      iszero\n      dup2\n      mstore\n      0x20\n      add\n        /* \"contracts/PaymentEscrow.sol\":2002:2017  escrowTimeLimit */\n      sload(0x08)\n        /* \"contracts/PaymentEscrow.sol\":1984:1999  block.timestamp */\n      timestamp\n        /* \"contracts/PaymentEscrow.sol\":1984:2017  block.timestamp + escrowTimeLimit */\n      tag_151\n      swap2\n      swap1\n      tag_152\n      jump\t// in\n    tag_151:\n        /* \"contracts/PaymentEscrow.sol\":1925:2025  Purchase(msg.sender, creator, creatorAmount, false, false, block.timestamp + escrowTimeLimit, false) */\n      dup2\n      mstore\n      0x20\n      add\n        /* \"contracts/PaymentEscrow.sol\":2019:2024  false */\n      0x00\n        /* \"contracts/PaymentEscrow.sol\":1925:2025  Purchase(msg.sender, creator, creatorAmount, false, false, block.timestamp + escrowTimeLimit, false) */\n      iszero\n      iszero\n      dup2\n      mstore\n      pop\n        /* \"contracts/PaymentEscrow.sol\":1896:1905  purchases */\n      0x01\n        /* \"contracts/PaymentEscrow.sol\":1896:1922  purchases[purchaseCounter] */\n      0x00\n        /* \"contracts/PaymentEscrow.sol\":1906:1921  purchaseCounter */\n      sload(0x06)\n        /* \"contracts/PaymentEscrow.sol\":1896:1922  purchases[purchaseCounter] */\n      dup2\n      mstore\n      0x20\n      add\n      swap1\n      dup2\n      mstore\n      0x20\n      add\n      0x00\n      keccak256\n        /* \"contracts/PaymentEscrow.sol\":1896:2025  purchases[purchaseCounter] = Purchase(msg.sender, creator, creatorAmount, false, false, block.timestamp + escrowTimeLimit, false) */\n      0x00\n      dup3\n      add\n      mload\n      dup2\n      0x00\n      add\n      exp(0x0100, 0x00)\n      dup2\n      sload\n      dup2\n      0xffffffffffffffffffffffffffffffffffffffff\n      mul\n      not\n      and\n      swap1\n      dup4\n      0xffffffffffffffffffffffffffffffffffffffff\n      and\n      mul\n      or\n      swap1\n      sstore\n      pop\n      0x20\n      dup3\n      add\n      mload\n      dup2\n      0x01\n      add\n      exp(0x0100, 0x00)\n      dup2\n      sload\n      dup2\n      0xffffffffffffffffffffffffffffffffffffffff\n      mul\n      not\n      and\n      swap1\n      dup4\n      0xffffffffffffffffffffffffffffffffffffffff\n      and\n      mul\n      or\n      swap1\n      sstore\n      pop\n      0x40\n      dup3\n      add\n      mload\n      dup2\n      0x02\n      add\n      sstore\n      0x60\n      dup3\n      add\n      mload\n      dup2\n      0x03\n      add\n      exp(0x0100, 0x00)\n      dup2\n      sload\n      dup2\n      0xff\n      mul\n      not\n      and\n      swap1\n      dup4\n      iszero\n      iszero\n      mul\n      or\n      swap1\n      sstore\n      pop\n      0x80\n      dup3\n      add\n      mload\n      dup2\n      0x03\n      add\n      exp(0x0100, 0x01)\n      dup2\n      sload\n      dup2\n      0xff\n      mul\n      not\n      and\n      swap1\n      dup4\n      iszero\n      iszero\n      mul\n      or\n      swap1\n      sstore\n      pop\n      0xa0\n      dup3\n      add\n      mload\n      dup2\n      0x04\n      add\n      sstore\n      0xc0\n      dup3\n      add\n      mload\n      dup2\n      0x05\n      add\n      exp(0x0100, 0x00)\n      dup2\n      sload\n      dup2\n      0xff\n      mul\n      not\n      and\n      swap1\n      dup4\n      iszero\n      iszero\n      mul\n      or\n      swap1\n      sstore\n      pop\n      swap1\n      pop\n      pop\n        /* \"contracts/PaymentEscrow.sol\":2044:2058  platformWallet */\n      0x0a\n      0x00\n      swap1\n      sload\n      swap1\n      0x0100\n      exp\n      swap1\n      div\n      0xffffffffffffffffffffffffffffffffffffffff\n      and\n        /* \"contracts/PaymentEscrow.sol\":2036:2068  payable(platformWallet).transfer */\n      0xffffffffffffffffffffffffffffffffffffffff\n      and\n        /* \"contracts/PaymentEscrow.sol\":2036:2073  payable(platformWallet).transfer(fee) */\n      0x08fc\n        /* \"contracts/PaymentEscrow.sol\":2069:2072  fee */\n      dup4\n        /* \"contracts/PaymentEscrow.sol\":2036:2073  payable(platformWallet).transfer(fee) */\n      swap1\n      dup2\n      iszero\n      mul\n      swap1\n      mload(0x40)\n      0x00\n      mload(0x40)\n      dup1\n      dup4\n      sub\n      dup2\n      dup6\n      dup9\n      dup9\n      call\n      swap4\n      pop\n      pop\n      pop\n      pop\n      iszero\n      dup1\n      iszero\n      tag_154\n      jumpi\n      returndatasize\n      0x00\n      dup1\n      returndatacopy\n      revert(0x00, returndatasize)\n    tag_154:\n      pop\n        /* \"contracts/PaymentEscrow.sol\":2144:2151  creator */\n      dup3\n        /* \"contracts/PaymentEscrow.sol\":2099:2170  PaymentReceived(purchaseCounter, msg.sender, creator, msg.value, \"ETH\") */\n      0xffffffffffffffffffffffffffffffffffffffff\n      and\n        /* \"contracts/PaymentEscrow.sol\":2132:2142  msg.sender */\n      caller\n        /* \"contracts/PaymentEscrow.sol\":2099:2170  PaymentReceived(purchaseCounter, msg.sender, creator, msg.value, \"ETH\") */\n      0xffffffffffffffffffffffffffffffffffffffff\n      and\n      0x62b4265ef816f751a94c5c93fa40a90302c6924509b973ed4094dcf30c6c61ed\n        /* \"contracts/PaymentEscrow.sol\":2115:2130  purchaseCounter */\n      sload(0x06)\n        /* \"contracts/PaymentEscrow.sol\":2153:2162  msg.value */\n      callvalue\n        /* \"contracts/PaymentEscrow.sol\":2099:2170  PaymentReceived(purchaseCounter, msg.sender, creator, msg.value, \"ETH\") */\n      mload(0x40)\n      tag_155\n      swap3\n      swap2\n      swap1\n      tag_156\n      jump\t// in\n    tag_155:\n      mload(0x40)\n      dup1\n      swap2\n      sub\n      swap1\n      log3\n        /* \"contracts/PaymentEscrow.sol\":1664:2178  {... */\n      pop\n      pop\n        /* \"contracts/PaymentEscrow.sol\":1610:2178  function payWithETH(address creator) external payable {... */\n      pop\n      jump\t// out\n        /* \"contracts/PaymentEscrow.sol\":501:551  mapping(address => uint256) public creatorBalances */\n    tag_47:\n      mstore(0x20, 0x02)\n      dup1\n      0x00\n      mstore\n      keccak256(0x00, 0x40)\n      0x00\n      swap2\n      pop\n      swap1\n      pop\n      sload\n      dup2\n      jump\t// out\n        /* \"contracts/PaymentEscrow.sol\":2963:3598  function processMPesaPayment(address buyer, address creator, uint256 amount, string memory paymentReference) external onlyOwner {... */\n    tag_53:\n        /* \"@openzeppelin/contracts/access/Ownable.sol\":1531:1544  _checkOwner() */\n      tag_158\n        /* \"@openzeppelin/contracts/access/Ownable.sol\":1531:1542  _checkOwner */\n      tag_159\n        /* \"@openzeppelin/contracts/access/Ownable.sol\":1531:1544  _checkOwner() */\n      jump\t// in\n    tag_158:\n        /* \"contracts/PaymentEscrow.sol\":3119:3120  0 */\n      0x00\n        /* \"contracts/PaymentEscrow.sol\":3110:3116  amount */\n      dup3\n        /* \"contracts/PaymentEscrow.sol\":3110:3120  amount > 0 */\n      gt\n        /* \"contracts/PaymentEscrow.sol\":3102:3154  require(amount > 0, \"Amount must be greater than 0\") */\n      tag_161\n      jumpi\n      mload(0x40)\n      0x08c379a000000000000000000000000000000000000000000000000000000000\n      dup2\n      mstore\n      0x04\n      add\n      tag_162\n      swap1\n      tag_163\n      jump\t// in\n    tag_162:\n      mload(0x40)\n      dup1\n      swap2\n      sub\n      swap1\n      revert\n    tag_161:\n        /* \"contracts/PaymentEscrow.sol\":3165:3176  uint256 fee */\n      0x00\n        /* \"contracts/PaymentEscrow.sol\":3214:3217  100 */\n      0x64\n        /* \"contracts/PaymentEscrow.sol\":3189:3210  platformFeePercentage */\n      sload(0x09)\n        /* \"contracts/PaymentEscrow.sol\":3180:3186  amount */\n      dup5\n        /* \"contracts/PaymentEscrow.sol\":3180:3210  amount * platformFeePercentage */\n      tag_164\n      swap2\n      swap1\n      tag_144\n      jump\t// in\n    tag_164:\n        /* \"contracts/PaymentEscrow.sol\":3179:3217  (amount * platformFeePercentage) / 100 */\n      tag_165\n      swap2\n      swap1\n      tag_146\n      jump\t// in\n    tag_165:\n        /* \"contracts/PaymentEscrow.sol\":3165:3217  uint256 fee = (amount * platformFeePercentage) / 100 */\n      swap1\n      pop\n        /* \"contracts/PaymentEscrow.sol\":3228:3249  uint256 creatorAmount */\n      0x00\n        /* \"contracts/PaymentEscrow.sol\":3261:3264  fee */\n      dup2\n        /* \"contracts/PaymentEscrow.sol\":3252:3258  amount */\n      dup5\n        /* \"contracts/PaymentEscrow.sol\":3252:3264  amount - fee */\n      tag_166\n      swap2\n      swap1\n      tag_148\n      jump\t// in\n    tag_166:\n        /* \"contracts/PaymentEscrow.sol\":3228:3264  uint256 creatorAmount = amount - fee */\n      swap1\n      pop\n        /* \"contracts/PaymentEscrow.sol\":3293:3307  platformWallet */\n      0x0a\n      0x00\n      swap1\n      sload\n      swap1\n      0x0100\n      exp\n      swap1\n      div\n      0xffffffffffffffffffffffffffffffffffffffff\n      and\n        /* \"contracts/PaymentEscrow.sol\":3285:3317  payable(platformWallet).transfer */\n      0xffffffffffffffffffffffffffffffffffffffff\n      and\n        /* \"contracts/PaymentEscrow.sol\":3285:3322  payable(platformWallet).transfer(fee) */\n      0x08fc\n        /* \"contracts/PaymentEscrow.sol\":3318:3321  fee */\n      dup4\n        /* \"contracts/PaymentEscrow.sol\":3285:3322  payable(platformWallet).transfer(fee) */\n      swap1\n      dup2\n      iszero\n      mul\n      swap1\n      mload(0x40)\n      0x00\n      mload(0x40)\n      dup1\n      dup4\n      sub\n      dup2\n      dup6\n      dup9\n      dup9\n      call\n      swap4\n      pop\n      pop\n      pop\n      pop\n      iszero\n      dup1\n      iszero\n      tag_168\n      jumpi\n      returndatasize\n      0x00\n      dup1\n      returndatacopy\n      revert(0x00, returndatasize)\n    tag_168:\n      pop\n        /* \"contracts/PaymentEscrow.sol\":3343:3358  purchaseCounter */\n      0x06\n      0x00\n        /* \"contracts/PaymentEscrow.sol\":3343:3360  purchaseCounter++ */\n      dup2\n      sload\n      dup1\n      swap3\n      swap2\n      swap1\n      tag_169\n      swap1\n      tag_150\n      jump\t// in\n    tag_169:\n      swap2\n      swap1\n      pop\n      sstore\n      pop\n        /* \"contracts/PaymentEscrow.sol\":3400:3495  Purchase(buyer, creator, creatorAmount, false, false, block.timestamp + escrowTimeLimit, false) */\n      mload(0x40)\n      dup1\n      0xe0\n      add\n      0x40\n      mstore\n      dup1\n        /* \"contracts/PaymentEscrow.sol\":3409:3414  buyer */\n      dup8\n        /* \"contracts/PaymentEscrow.sol\":3400:3495  Purchase(buyer, creator, creatorAmount, false, false, block.timestamp + escrowTimeLimit, false) */\n      0xffffffffffffffffffffffffffffffffffffffff\n      and\n      dup2\n      mstore\n      0x20\n      add\n        /* \"contracts/PaymentEscrow.sol\":3416:3423  creator */\n      dup7\n        /* \"contracts/PaymentEscrow.sol\":3400:3495  Purchase(buyer, creator, creatorAmount, false, false, block.timestamp + escrowTimeLimit, false) */\n      0xffffffffffffffffffffffffffffffffffffffff\n      and\n      dup2\n      mstore\n      0x20\n      add\n        /* \"contracts/PaymentEscrow.sol\":3425:3438  creatorAmount */\n      dup3\n        /* \"contracts/PaymentEscrow.sol\":3400:3495  Purchase(buyer, creator, creatorAmount, false, false, block.timestamp + escrowTimeLimit, false) */\n      dup2\n      mstore\n      0x20\n      add\n        /* \"contracts/PaymentEscrow.sol\":3440:3445  false */\n      0x00\n        /* \"contracts/PaymentEscrow.sol\":3400:3495  Purchase(buyer, creator, creatorAmount, false, false, block.timestamp + escrowTimeLimit, false) */\n      iszero\n      iszero\n      dup2\n      mstore\n      0x20\n      add\n        /* \"contracts/PaymentEscrow.sol\":3447:3452  false */\n      0x00\n        /* \"contracts/PaymentEscrow.sol\":3400:3495  Purchase(buyer, creator, creatorAmount, false, false, block.timestamp + escrowTimeLimit, false) */\n      iszero\n      iszero\n      dup2\n      mstore\n      0x20\n      add\n        /* \"contracts/PaymentEscrow.sol\":3472:3487  escrowTimeLimit */\n      sload(0x08)\n        /* \"contracts/PaymentEscrow.sol\":3454:3469  block.timestamp */\n      timestamp\n        /* \"contracts/PaymentEscrow.sol\":3454:3487  block.timestamp + escrowTimeLimit */\n      tag_170\n      swap2\n      swap1\n      tag_152\n      jump\t// in\n    tag_170:\n        /* \"contracts/PaymentEscrow.sol\":3400:3495  Purchase(buyer, creator, creatorAmount, false, false, block.timestamp + escrowTimeLimit, false) */\n      dup2\n      mstore\n      0x20\n      add\n        /* \"contracts/PaymentEscrow.sol\":3489:3494  false */\n      0x00\n        /* \"contracts/PaymentEscrow.sol\":3400:3495  Purchase(buyer, creator, creatorAmount, false, false, block.timestamp + escrowTimeLimit, false) */\n      iszero\n      iszero\n      dup2\n      mstore\n      pop\n        /* \"contracts/PaymentEscrow.sol\":3371:3380  purchases */\n      0x01\n        /* \"contracts/PaymentEscrow.sol\":3371:3397  purchases[purchaseCounter] */\n      0x00\n        /* \"contracts/PaymentEscrow.sol\":3381:3396  purchaseCounter */\n      sload(0x06)\n        /* \"contracts/PaymentEscrow.sol\":3371:3397  purchases[purchaseCounter] */\n      dup2\n      mstore\n      0x20\n      add\n      swap1\n      dup2\n      mstore\n      0x20\n      add\n      0x00\n      keccak256\n        /* \"contracts/PaymentEscrow.sol\":3371:3495  purchases[purchaseCounter] = Purchase(buyer, creator, creatorAmount, false, false, block.timestamp + escrowTimeLimit, false) */\n      0x00\n      dup3\n      add\n      mload\n      dup2\n      0x00\n      add\n      exp(0x0100, 0x00)\n      dup2\n      sload\n      dup2\n      0xffffffffffffffffffffffffffffffffffffffff\n      mul\n      not\n      and\n      swap1\n      dup4\n      0xffffffffffffffffffffffffffffffffffffffff\n      and\n      mul\n      or\n      swap1\n      sstore\n      pop\n      0x20\n      dup3\n      add\n      mload\n      dup2\n      0x01\n      add\n      exp(0x0100, 0x00)\n      dup2\n      sload\n      dup2\n      0xffffffffffffffffffffffffffffffffffffffff\n      mul\n      not\n      and\n      swap1\n      dup4\n      0xffffffffffffffffffffffffffffffffffffffff\n      and\n      mul\n      or\n      swap1\n      sstore\n      pop\n      0x40\n      dup3\n      add\n      mload\n      dup2\n      0x02\n      add\n      sstore\n      0x60\n      dup3\n      add\n      mload\n      dup2\n      0x03\n      add\n      exp(0x0100, 0x00)\n      dup2\n      sload\n      dup2\n      0xff\n      mul\n      not\n      and\n      swap1\n      dup4\n      iszero\n      iszero\n      mul\n      or\n      swap1\n      sstore\n      pop\n      0x80\n      dup3\n      add\n      mload\n      dup2\n      0x03\n      add\n      exp(0x0100, 0x01)\n      dup2\n      sload\n      dup2\n      0xff\n      mul\n      not\n      and\n      swap1\n      dup4\n      iszero\n      iszero\n      mul\n      or\n      swap1\n      sstore\n      pop\n      0xa0\n      dup3\n      add\n      mload\n      dup2\n      0x04\n      add\n      sstore\n      0xc0\n      dup3\n      add\n      mload\n      dup2\n      0x05\n      add\n      exp(0x0100, 0x00)\n      dup2\n      sload\n      dup2\n      0xff\n      mul\n      not\n      and\n      swap1\n      dup4\n      iszero\n      iszero\n      mul\n      or\n      swap1\n      sstore\n      pop\n      swap1\n      pop\n      pop\n        /* \"contracts/PaymentEscrow.sol\":3558:3563  buyer */\n      dup6\n        /* \"contracts/PaymentEscrow.sol\":3521:3590  FiatPaymentVerified(purchaseCounter, buyer, amount, paymentReference) */\n      0xffffffffffffffffffffffffffffffffffffffff\n      and\n      0xcab36cec3e30686ba4bd5c4316f76e9e8e4ac8eb1668be5c825146cf11224479\n        /* \"contracts/PaymentEscrow.sol\":3541:3556  purchaseCounter */\n      sload(0x06)\n        /* \"contracts/PaymentEscrow.sol\":3565:3571  amount */\n      dup7\n        /* \"contracts/PaymentEscrow.sol\":3573:3589  paymentReference */\n      dup7\n        /* \"contracts/PaymentEscrow.sol\":3521:3590  FiatPaymentVerified(purchaseCounter, buyer, amount, paymentReference) */\n      mload(0x40)\n      tag_171\n      swap4\n      swap3\n      swap2\n      swap1\n      tag_172\n      jump\t// in\n    tag_171:\n      mload(0x40)\n      dup1\n      swap2\n      sub\n      swap1\n      log2\n        /* \"contracts/PaymentEscrow.sol\":3091:3598  {... */\n      pop\n      pop\n        /* \"contracts/PaymentEscrow.sol\":2963:3598  function processMPesaPayment(address buyer, address creator, uint256 amount, string memory paymentReference) external onlyOwner {... */\n      pop\n      pop\n      pop\n      pop\n      jump\t// out\n        /* \"contracts/PaymentEscrow.sol\":5868:5985  function getBuyerRewards(address buyer) external view returns (uint256) {... */\n    tag_57:\n        /* \"contracts/PaymentEscrow.sol\":5931:5938  uint256 */\n      0x00\n        /* \"contracts/PaymentEscrow.sol\":5958:5970  buyerRewards */\n      0x03\n        /* \"contracts/PaymentEscrow.sol\":5958:5977  buyerRewards[buyer] */\n      0x00\n        /* \"contracts/PaymentEscrow.sol\":5971:5976  buyer */\n      dup4\n        /* \"contracts/PaymentEscrow.sol\":5958:5977  buyerRewards[buyer] */\n      0xffffffffffffffffffffffffffffffffffffffff\n      and\n      0xffffffffffffffffffffffffffffffffffffffff\n      and\n      dup2\n      mstore\n      0x20\n      add\n      swap1\n      dup2\n      mstore\n      0x20\n      add\n      0x00\n      keccak256\n      sload\n        /* \"contracts/PaymentEscrow.sol\":5951:5977  return buyerRewards[buyer] */\n      swap1\n      pop\n        /* \"contracts/PaymentEscrow.sol\":5868:5985  function getBuyerRewards(address buyer) external view returns (uint256) {... */\n      swap2\n      swap1\n      pop\n      jump\t// out\n        /* \"contracts/PaymentEscrow.sol\":5529:5860  function rateCreator(address creator, uint8 rating) external {... */\n    tag_63:\n        /* \"contracts/PaymentEscrow.sol\":5618:5619  0 */\n      0x00\n        /* \"contracts/PaymentEscrow.sol\":5609:5615  rating */\n      dup2\n        /* \"contracts/PaymentEscrow.sol\":5609:5619  rating > 0 */\n      0xff\n      and\n      gt\n        /* \"contracts/PaymentEscrow.sol\":5609:5634  rating > 0 && rating <= 5 */\n      dup1\n      iszero\n      tag_175\n      jumpi\n      pop\n        /* \"contracts/PaymentEscrow.sol\":5633:5634  5 */\n      0x05\n        /* \"contracts/PaymentEscrow.sol\":5623:5629  rating */\n      dup2\n        /* \"contracts/PaymentEscrow.sol\":5623:5634  rating <= 5 */\n      0xff\n      and\n      gt\n      iszero\n        /* \"contracts/PaymentEscrow.sol\":5609:5634  rating > 0 && rating <= 5 */\n    tag_175:\n        /* \"contracts/PaymentEscrow.sol\":5601:5669  require(rating > 0 && rating <= 5, \"Rating must be between 1 and 5\") */\n      tag_176\n      jumpi\n      mload(0x40)\n      0x08c379a000000000000000000000000000000000000000000000000000000000\n      dup2\n      mstore\n      0x04\n      add\n      tag_177\n      swap1\n      tag_178\n      jump\t// in\n    tag_177:\n      mload(0x40)\n      dup1\n      swap2\n      sub\n      swap1\n      revert\n    tag_176:\n        /* \"contracts/PaymentEscrow.sol\":5699:5709  msg.sender */\n      caller\n        /* \"contracts/PaymentEscrow.sol\":5688:5709  creator != msg.sender */\n      0xffffffffffffffffffffffffffffffffffffffff\n      and\n        /* \"contracts/PaymentEscrow.sol\":5688:5695  creator */\n      dup3\n        /* \"contracts/PaymentEscrow.sol\":5688:5709  creator != msg.sender */\n      0xffffffffffffffffffffffffffffffffffffffff\n      and\n      sub\n        /* \"contracts/PaymentEscrow.sol\":5680:5738  require(creator != msg.sender, \"You cannot rate yourself\") */\n      tag_179\n      jumpi\n      mload(0x40)\n      0x08c379a000000000000000000000000000000000000000000000000000000000\n      dup2\n      mstore\n      0x04\n      add\n      tag_180\n      swap1\n      tag_181\n      jump\t// in\n    tag_180:\n      mload(0x40)\n      dup1\n      swap2\n      sub\n      swap1\n      revert\n    tag_179:\n        /* \"contracts/PaymentEscrow.sol\":5769:5775  rating */\n      dup1\n        /* \"contracts/PaymentEscrow.sol\":5749:5775  ratings[creator] += rating */\n      0xff\n      and\n        /* \"contracts/PaymentEscrow.sol\":5749:5756  ratings */\n      0x04\n        /* \"contracts/PaymentEscrow.sol\":5749:5765  ratings[creator] */\n      0x00\n        /* \"contracts/PaymentEscrow.sol\":5757:5764  creator */\n      dup5\n        /* \"contracts/PaymentEscrow.sol\":5749:5765  ratings[creator] */\n      0xffffffffffffffffffffffffffffffffffffffff\n      and\n      0xffffffffffffffffffffffffffffffffffffffff\n      and\n      dup2\n      mstore\n      0x20\n      add\n      swap1\n      dup2\n      mstore\n      0x20\n      add\n      0x00\n      keccak256\n      0x00\n        /* \"contracts/PaymentEscrow.sol\":5749:5775  ratings[creator] += rating */\n      dup3\n      dup3\n      sload\n      tag_182\n      swap2\n      swap1\n      tag_152\n      jump\t// in\n    tag_182:\n      swap3\n      pop\n      pop\n      dup2\n      swap1\n      sstore\n      pop\n        /* \"contracts/PaymentEscrow.sol\":5786:5798  totalRatings */\n      0x05\n        /* \"contracts/PaymentEscrow.sol\":5786:5807  totalRatings[creator] */\n      0x00\n        /* \"contracts/PaymentEscrow.sol\":5799:5806  creator */\n      dup4\n        /* \"contracts/PaymentEscrow.sol\":5786:5807  totalRatings[creator] */\n      0xffffffffffffffffffffffffffffffffffffffff\n      and\n      0xffffffffffffffffffffffffffffffffffffffff\n      and\n      dup2\n      mstore\n      0x20\n      add\n      swap1\n      dup2\n      mstore\n      0x20\n      add\n      0x00\n      keccak256\n      0x00\n        /* \"contracts/PaymentEscrow.sol\":5786:5809  totalRatings[creator]++ */\n      dup2\n      sload\n      dup1\n      swap3\n      swap2\n      swap1\n      tag_183\n      swap1\n      tag_150\n      jump\t// in\n    tag_183:\n      swap2\n      swap1\n      pop\n      sstore\n      pop\n        /* \"contracts/PaymentEscrow.sol\":5836:5843  creator */\n      dup2\n        /* \"contracts/PaymentEscrow.sol\":5825:5852  BuyerRated(creator, rating) */\n      0xffffffffffffffffffffffffffffffffffffffff\n      and\n      0xcff064d89477505103315f73f5e691bd8bcdcf9f4bfe2e4713bcdbac12810db4\n        /* \"contracts/PaymentEscrow.sol\":5845:5851  rating */\n      dup3\n        /* \"contracts/PaymentEscrow.sol\":5825:5852  BuyerRated(creator, rating) */\n      mload(0x40)\n      tag_184\n      swap2\n      swap1\n      tag_185\n      jump\t// in\n    tag_184:\n      mload(0x40)\n      dup1\n      swap2\n      sub\n      swap1\n      log2\n        /* \"contracts/PaymentEscrow.sol\":5529:5860  function rateCreator(address creator, uint8 rating) external {... */\n      pop\n      pop\n      jump\t// out\n        /* \"contracts/PaymentEscrow.sol\":3606:3977  function approveContent(uint256 purchaseId) external {... */\n    tag_68:\n        /* \"contracts/PaymentEscrow.sol\":3709:3719  msg.sender */\n      caller\n        /* \"contracts/PaymentEscrow.sol\":3678:3719  purchases[purchaseId].buyer == msg.sender */\n      0xffffffffffffffffffffffffffffffffffffffff\n      and\n        /* \"contracts/PaymentEscrow.sol\":3678:3687  purchases */\n      0x01\n        /* \"contracts/PaymentEscrow.sol\":3678:3699  purchases[purchaseId] */\n      0x00\n        /* \"contracts/PaymentEscrow.sol\":3688:3698  purchaseId */\n      dup4\n        /* \"contracts/PaymentEscrow.sol\":3678:3699  purchases[purchaseId] */\n      dup2\n      mstore\n      0x20\n      add\n      swap1\n      dup2\n      mstore\n      0x20\n      add\n      0x00\n      keccak256\n        /* \"contracts/PaymentEscrow.sol\":3678:3705  purchases[purchaseId].buyer */\n      0x00\n      add\n      0x00\n      swap1\n      sload\n      swap1\n      0x0100\n      exp\n      swap1\n      div\n      0xffffffffffffffffffffffffffffffffffffffff\n      and\n        /* \"contracts/PaymentEscrow.sol\":3678:3719  purchases[purchaseId].buyer == msg.sender */\n      0xffffffffffffffffffffffffffffffffffffffff\n      and\n      eq\n        /* \"contracts/PaymentEscrow.sol\":3670:3746  require(purchases[purchaseId].buyer == msg.sender, \"Only buyer can approve\") */\n      tag_187\n      jumpi\n      mload(0x40)\n      0x08c379a000000000000000000000000000000000000000000000000000000000\n      dup2\n      mstore\n      0x04\n      add\n      tag_188\n      swap1\n      tag_189\n      jump\t// in\n    tag_188:\n      mload(0x40)\n      dup1\n      swap2\n      sub\n      swap1\n      revert\n    tag_187:\n        /* \"contracts/PaymentEscrow.sol\":3766:3775  purchases */\n      0x01\n        /* \"contracts/PaymentEscrow.sol\":3766:3787  purchases[purchaseId] */\n      0x00\n        /* \"contracts/PaymentEscrow.sol\":3776:3786  purchaseId */\n      dup3\n        /* \"contracts/PaymentEscrow.sol\":3766:3787  purchases[purchaseId] */\n      dup2\n      mstore\n      0x20\n      add\n      swap1\n      dup2\n      mstore\n      0x20\n      add\n      0x00\n      keccak256\n        /* \"contracts/PaymentEscrow.sol\":3766:3801  purchases[purchaseId].buyerApproval */\n      0x03\n      add\n      0x00\n      swap1\n      sload\n      swap1\n      0x0100\n      exp\n      swap1\n      div\n      0xff\n      and\n        /* \"contracts/PaymentEscrow.sol\":3765:3801  !purchases[purchaseId].buyerApproval */\n      iszero\n        /* \"contracts/PaymentEscrow.sol\":3757:3822  require(!purchases[purchaseId].buyerApproval, \"Already approved\") */\n      tag_190\n      jumpi\n      mload(0x40)\n      0x08c379a000000000000000000000000000000000000000000000000000000000\n      dup2\n      mstore\n      0x04\n      add\n      tag_191\n      swap1\n      tag_192\n      jump\t// in\n    tag_191:\n      mload(0x40)\n      dup1\n      swap2\n      sub\n      swap1\n      revert\n    tag_190:\n        /* \"contracts/PaymentEscrow.sol\":3873:3877  true */\n      0x01\n        /* \"contracts/PaymentEscrow.sol\":3835:3844  purchases */\n      dup1\n        /* \"contracts/PaymentEscrow.sol\":3835:3856  purchases[purchaseId] */\n      0x00\n        /* \"contracts/PaymentEscrow.sol\":3845:3855  purchaseId */\n      dup4\n        /* \"contracts/PaymentEscrow.sol\":3835:3856  purchases[purchaseId] */\n      dup2\n      mstore\n      0x20\n      add\n      swap1\n      dup2\n      mstore\n      0x20\n      add\n      0x00\n      keccak256\n        /* \"contracts/PaymentEscrow.sol\":3835:3870  purchases[purchaseId].buyerApproval */\n      0x03\n      add\n      0x00\n        /* \"contracts/PaymentEscrow.sol\":3835:3877  purchases[purchaseId].buyerApproval = true */\n      0x0100\n      exp\n      dup2\n      sload\n      dup2\n      0xff\n      mul\n      not\n      and\n      swap1\n      dup4\n      iszero\n      iszero\n      mul\n      or\n      swap1\n      sstore\n      pop\n        /* \"contracts/PaymentEscrow.sol\":3921:3931  msg.sender */\n      caller\n        /* \"contracts/PaymentEscrow.sol\":3893:3932  ContentApproved(purchaseId, msg.sender) */\n      0xffffffffffffffffffffffffffffffffffffffff\n      and\n      0xff0391c86d08750af277dd496813bf415c212a98090e0f6807c72d7f35eab113\n        /* \"contracts/PaymentEscrow.sol\":3909:3919  purchaseId */\n      dup3\n        /* \"contracts/PaymentEscrow.sol\":3893:3932  ContentApproved(purchaseId, msg.sender) */\n      mload(0x40)\n      tag_193\n      swap2\n      swap1\n      tag_32\n      jump\t// in\n    tag_193:\n      mload(0x40)\n      dup1\n      swap2\n      sub\n      swap1\n      log2\n        /* \"contracts/PaymentEscrow.sol\":3943:3969  finalizeEscrow(purchaseId) */\n      tag_194\n        /* \"contracts/PaymentEscrow.sol\":3958:3968  purchaseId */\n      dup2\n        /* \"contracts/PaymentEscrow.sol\":3943:3957  finalizeEscrow */\n      tag_195\n        /* \"contracts/PaymentEscrow.sol\":3943:3969  finalizeEscrow(purchaseId) */\n      jump\t// in\n    tag_194:\n        /* \"contracts/PaymentEscrow.sol\":3606:3977  function approveContent(uint256 purchaseId) external {... */\n      pop\n      jump\t// out\n        /* \"contracts/PaymentEscrow.sol\":2186:2955  function payWithStablecoin(address creator, uint256 amount) external {... */\n    tag_73:\n        /* \"contracts/PaymentEscrow.sol\":2283:2284  0 */\n      0x00\n        /* \"contracts/PaymentEscrow.sol\":2274:2280  amount */\n      dup2\n        /* \"contracts/PaymentEscrow.sol\":2274:2284  amount > 0 */\n      gt\n        /* \"contracts/PaymentEscrow.sol\":2266:2318  require(amount > 0, \"Amount must be greater than 0\") */\n      tag_197\n      jumpi\n      mload(0x40)\n      0x08c379a000000000000000000000000000000000000000000000000000000000\n      dup2\n      mstore\n      0x04\n      add\n      tag_198\n      swap1\n      tag_163\n      jump\t// in\n    tag_198:\n      mload(0x40)\n      dup1\n      swap2\n      sub\n      swap1\n      revert\n    tag_197:\n        /* \"contracts/PaymentEscrow.sol\":2329:2340  uint256 fee */\n      0x00\n        /* \"contracts/PaymentEscrow.sol\":2378:2381  100 */\n      0x64\n        /* \"contracts/PaymentEscrow.sol\":2353:2374  platformFeePercentage */\n      sload(0x09)\n        /* \"contracts/PaymentEscrow.sol\":2344:2350  amount */\n      dup4\n        /* \"contracts/PaymentEscrow.sol\":2344:2374  amount * platformFeePercentage */\n      tag_199\n      swap2\n      swap1\n      tag_144\n      jump\t// in\n    tag_199:\n        /* \"contracts/PaymentEscrow.sol\":2343:2381  (amount * platformFeePercentage) / 100 */\n      tag_200\n      swap2\n      swap1\n      tag_146\n      jump\t// in\n    tag_200:\n        /* \"contracts/PaymentEscrow.sol\":2329:2381  uint256 fee = (amount * platformFeePercentage) / 100 */\n      swap1\n      pop\n        /* \"contracts/PaymentEscrow.sol\":2392:2413  uint256 creatorAmount */\n      0x00\n        /* \"contracts/PaymentEscrow.sol\":2425:2428  fee */\n      dup2\n        /* \"contracts/PaymentEscrow.sol\":2416:2422  amount */\n      dup4\n        /* \"contracts/PaymentEscrow.sol\":2416:2428  amount - fee */\n      tag_201\n      swap2\n      swap1\n      tag_148\n      jump\t// in\n    tag_201:\n        /* \"contracts/PaymentEscrow.sol\":2392:2428  uint256 creatorAmount = amount - fee */\n      swap1\n      pop\n        /* \"contracts/PaymentEscrow.sol\":2464:2474  stablecoin */\n      0x07\n      0x00\n      swap1\n      sload\n      swap1\n      0x0100\n      exp\n      swap1\n      div\n      0xffffffffffffffffffffffffffffffffffffffff\n      and\n        /* \"contracts/PaymentEscrow.sol\":2457:2488  IERC20(stablecoin).transferFrom */\n      0xffffffffffffffffffffffffffffffffffffffff\n      and\n      0x23b872dd\n        /* \"contracts/PaymentEscrow.sol\":2489:2499  msg.sender */\n      caller\n        /* \"contracts/PaymentEscrow.sol\":2501:2515  platformWallet */\n      0x0a\n      0x00\n      swap1\n      sload\n      swap1\n      0x0100\n      exp\n      swap1\n      div\n      0xffffffffffffffffffffffffffffffffffffffff\n      and\n        /* \"contracts/PaymentEscrow.sol\":2517:2520  fee */\n      dup6\n        /* \"contracts/PaymentEscrow.sol\":2457:2521  IERC20(stablecoin).transferFrom(msg.sender, platformWallet, fee) */\n      mload(0x40)\n      dup5\n      0xffffffff\n      and\n      0xe0\n      shl\n      dup2\n      mstore\n      0x04\n      add\n      tag_202\n      swap4\n      swap3\n      swap2\n      swap1\n      tag_203\n      jump\t// in\n    tag_202:\n      0x20\n      mload(0x40)\n      dup1\n      dup4\n      sub\n      dup2\n      0x00\n      dup8\n      gas\n      call\n      iszero\n      dup1\n      iszero\n      tag_205\n      jumpi\n      returndatasize\n      0x00\n      dup1\n      returndatacopy\n      revert(0x00, returndatasize)\n    tag_205:\n      pop\n      pop\n      pop\n      pop\n      mload(0x40)\n      returndatasize\n      not(0x1f)\n      0x1f\n      dup3\n      add\n      and\n      dup3\n      add\n      dup1\n      0x40\n      mstore\n      pop\n      dup2\n      add\n      swap1\n      tag_206\n      swap2\n      swap1\n      tag_207\n      jump\t// in\n    tag_206:\n        /* \"contracts/PaymentEscrow.sol\":2449:2545  require(IERC20(stablecoin).transferFrom(msg.sender, platformWallet, fee), \"Fee transfer failed\") */\n      tag_208\n      jumpi\n      mload(0x40)\n      0x08c379a000000000000000000000000000000000000000000000000000000000\n      dup2\n      mstore\n      0x04\n      add\n      tag_209\n      swap1\n      tag_210\n      jump\t// in\n    tag_209:\n      mload(0x40)\n      dup1\n      swap2\n      sub\n      swap1\n      revert\n    tag_208:\n        /* \"contracts/PaymentEscrow.sol\":2571:2581  stablecoin */\n      0x07\n      0x00\n      swap1\n      sload\n      swap1\n      0x0100\n      exp\n      swap1\n      div\n      0xffffffffffffffffffffffffffffffffffffffff\n      and\n        /* \"contracts/PaymentEscrow.sol\":2564:2595  IERC20(stablecoin).transferFrom */\n      0xffffffffffffffffffffffffffffffffffffffff\n      and\n      0x23b872dd\n        /* \"contracts/PaymentEscrow.sol\":2596:2606  msg.sender */\n      caller\n        /* \"contracts/PaymentEscrow.sol\":2616:2620  this */\n      address\n        /* \"contracts/PaymentEscrow.sol\":2623:2636  creatorAmount */\n      dup5\n        /* \"contracts/PaymentEscrow.sol\":2564:2637  IERC20(stablecoin).transferFrom(msg.sender, address(this), creatorAmount) */\n      mload(0x40)\n      dup5\n      0xffffffff\n      and\n      0xe0\n      shl\n      dup2\n      mstore\n      0x04\n      add\n      tag_211\n      swap4\n      swap3\n      swap2\n      swap1\n      tag_203\n      jump\t// in\n    tag_211:\n      0x20\n      mload(0x40)\n      dup1\n      dup4\n      sub\n      dup2\n      0x00\n      dup8\n      gas\n      call\n      iszero\n      dup1\n      iszero\n      tag_213\n      jumpi\n      returndatasize\n      0x00\n      dup1\n      returndatacopy\n      revert(0x00, returndatasize)\n    tag_213:\n      pop\n      pop\n      pop\n      pop\n      mload(0x40)\n      returndatasize\n      not(0x1f)\n      0x1f\n      dup3\n      add\n      and\n      dup3\n      add\n      dup1\n      0x40\n      mstore\n      pop\n      dup2\n      add\n      swap1\n      tag_214\n      swap2\n      swap1\n      tag_207\n      jump\t// in\n    tag_214:\n        /* \"contracts/PaymentEscrow.sol\":2556:2668  require(IERC20(stablecoin).transferFrom(msg.sender, address(this), creatorAmount), \"Stablecoin transfer failed\") */\n      tag_215\n      jumpi\n      mload(0x40)\n      0x08c379a000000000000000000000000000000000000000000000000000000000\n      dup2\n      mstore\n      0x04\n      add\n      tag_216\n      swap1\n      tag_217\n      jump\t// in\n    tag_216:\n      mload(0x40)\n      dup1\n      swap2\n      sub\n      swap1\n      revert\n    tag_215:\n        /* \"contracts/PaymentEscrow.sol\":2689:2704  purchaseCounter */\n      0x06\n      0x00\n        /* \"contracts/PaymentEscrow.sol\":2689:2706  purchaseCounter++ */\n      dup2\n      sload\n      dup1\n      swap3\n      swap2\n      swap1\n      tag_218\n      swap1\n      tag_150\n      jump\t// in\n    tag_218:\n      swap2\n      swap1\n      pop\n      sstore\n      pop\n        /* \"contracts/PaymentEscrow.sol\":2746:2846  Purchase(msg.sender, creator, creatorAmount, false, false, block.timestamp + escrowTimeLimit, false) */\n      mload(0x40)\n      dup1\n      0xe0\n      add\n      0x40\n      mstore\n      dup1\n        /* \"contracts/PaymentEscrow.sol\":2755:2765  msg.sender */\n      caller\n        /* \"contracts/PaymentEscrow.sol\":2746:2846  Purchase(msg.sender, creator, creatorAmount, false, false, block.timestamp + escrowTimeLimit, false) */\n      0xffffffffffffffffffffffffffffffffffffffff\n      and\n      dup2\n      mstore\n      0x20\n      add\n        /* \"contracts/PaymentEscrow.sol\":2767:2774  creator */\n      dup6\n        /* \"contracts/PaymentEscrow.sol\":2746:2846  Purchase(msg.sender, creator, creatorAmount, false, false, block.timestamp + escrowTimeLimit, false) */\n      0xffffffffffffffffffffffffffffffffffffffff\n      and\n      dup2\n      mstore\n      0x20\n      add\n        /* \"contracts/PaymentEscrow.sol\":2776:2789  creatorAmount */\n      dup3\n        /* \"contracts/PaymentEscrow.sol\":2746:2846  Purchase(msg.sender, creator, creatorAmount, false, false, block.timestamp + escrowTimeLimit, false) */\n      dup2\n      mstore\n      0x20\n      add\n        /* \"contracts/PaymentEscrow.sol\":2791:2796  false */\n      0x00\n        /* \"contracts/PaymentEscrow.sol\":2746:2846  Purchase(msg.sender, creator, creatorAmount, false, false, block.timestamp + escrowTimeLimit, false) */\n      iszero\n      iszero\n      dup2\n      mstore\n      0x20\n      add\n        /* \"contracts/PaymentEscrow.sol\":2798:2803  false */\n      0x00\n        /* \"contracts/PaymentEscrow.sol\":2746:2846  Purchase(msg.sender, creator, creatorAmount, false, false, block.timestamp + escrowTimeLimit, false) */\n      iszero\n      iszero\n      dup2\n      mstore\n      0x20\n      add\n        /* \"contracts/PaymentEscrow.sol\":2823:2838  escrowTimeLimit */\n      sload(0x08)\n        /* \"contracts/PaymentEscrow.sol\":2805:2820  block.timestamp */\n      timestamp\n        /* \"contracts/PaymentEscrow.sol\":2805:2838  block.timestamp + escrowTimeLimit */\n      tag_219\n      swap2\n      swap1\n      tag_152\n      jump\t// in\n    tag_219:\n        /* \"contracts/PaymentEscrow.sol\":2746:2846  Purchase(msg.sender, creator, creatorAmount, false, false, block.timestamp + escrowTimeLimit, false) */\n      dup2\n      mstore\n      0x20\n      add\n        /* \"contracts/PaymentEscrow.sol\":2840:2845  false */\n      0x00\n        /* \"contracts/PaymentEscrow.sol\":2746:2846  Purchase(msg.sender, creator, creatorAmount, false, false, block.timestamp + escrowTimeLimit, false) */\n      iszero\n      iszero\n      dup2\n      mstore\n      pop\n        /* \"contracts/PaymentEscrow.sol\":2717:2726  purchases */\n      0x01\n        /* \"contracts/PaymentEscrow.sol\":2717:2743  purchases[purchaseCounter] */\n      0x00\n        /* \"contracts/PaymentEscrow.sol\":2727:2742  purchaseCounter */\n      sload(0x06)\n        /* \"contracts/PaymentEscrow.sol\":2717:2743  purchases[purchaseCounter] */\n      dup2\n      mstore\n      0x20\n      add\n      swap1\n      dup2\n      mstore\n      0x20\n      add\n      0x00\n      keccak256\n        /* \"contracts/PaymentEscrow.sol\":2717:2846  purchases[purchaseCounter] = Purchase(msg.sender, creator, creatorAmount, false, false, block.timestamp + escrowTimeLimit, false) */\n      0x00\n      dup3\n      add\n      mload\n      dup2\n      0x00\n      add\n      exp(0x0100, 0x00)\n      dup2\n      sload\n      dup2\n      0xffffffffffffffffffffffffffffffffffffffff\n      mul\n      not\n      and\n      swap1\n      dup4\n      0xffffffffffffffffffffffffffffffffffffffff\n      and\n      mul\n      or\n      swap1\n      sstore\n      pop\n      0x20\n      dup3\n      add\n      mload\n      dup2\n      0x01\n      add\n      exp(0x0100, 0x00)\n      dup2\n      sload\n      dup2\n      0xffffffffffffffffffffffffffffffffffffffff\n      mul\n      not\n      and\n      swap1\n      dup4\n      0xffffffffffffffffffffffffffffffffffffffff\n      and\n      mul\n      or\n      swap1\n      sstore\n      pop\n      0x40\n      dup3\n      add\n      mload\n      dup2\n      0x02\n      add\n      sstore\n      0x60\n      dup3\n      add\n      mload\n      dup2\n      0x03\n      add\n      exp(0x0100, 0x00)\n      dup2\n      sload\n      dup2\n      0xff\n      mul\n      not\n      and\n      swap1\n      dup4\n      iszero\n      iszero\n      mul\n      or\n      swap1\n      sstore\n      pop\n      0x80\n      dup3\n      add\n      mload\n      dup2\n      0x03\n      add\n      exp(0x0100, 0x01)\n      dup2\n      sload\n      dup2\n      0xff\n      mul\n      not\n      and\n      swap1\n      dup4\n      iszero\n      iszero\n      mul\n      or\n      swap1\n      sstore\n      pop\n      0xa0\n      dup3\n      add\n      mload\n      dup2\n      0x04\n      add\n      sstore\n      0xc0\n      dup3\n      add\n      mload\n      dup2\n      0x05\n      add\n      exp(0x0100, 0x00)\n      dup2\n      sload\n      dup2\n      0xff\n      mul\n      not\n      and\n      swap1\n      dup4\n      iszero\n      iszero\n      mul\n      or\n      swap1\n      sstore\n      pop\n      swap1\n      pop\n      pop\n        /* \"contracts/PaymentEscrow.sol\":2917:2924  creator */\n      dup4\n        /* \"contracts/PaymentEscrow.sol\":2872:2947  PaymentReceived(purchaseCounter, msg.sender, creator, amount, \"Stablecoin\") */\n      0xffffffffffffffffffffffffffffffffffffffff\n      and\n        /* \"contracts/PaymentEscrow.sol\":2905:2915  msg.sender */\n      caller\n        /* \"contracts/PaymentEscrow.sol\":2872:2947  PaymentReceived(purchaseCounter, msg.sender, creator, amount, \"Stablecoin\") */\n      0xffffffffffffffffffffffffffffffffffffffff\n      and\n      0x62b4265ef816f751a94c5c93fa40a90302c6924509b973ed4094dcf30c6c61ed\n        /* \"contracts/PaymentEscrow.sol\":2888:2903  purchaseCounter */\n      sload(0x06)\n        /* \"contracts/PaymentEscrow.sol\":2926:2932  amount */\n      dup7\n        /* \"contracts/PaymentEscrow.sol\":2872:2947  PaymentReceived(purchaseCounter, msg.sender, creator, amount, \"Stablecoin\") */\n      mload(0x40)\n      tag_220\n      swap3\n      swap2\n      swap1\n      tag_221\n      jump\t// in\n    tag_220:\n      mload(0x40)\n      dup1\n      swap2\n      sub\n      swap1\n      log3\n        /* \"contracts/PaymentEscrow.sol\":2255:2955  {... */\n      pop\n      pop\n        /* \"contracts/PaymentEscrow.sol\":2186:2955  function payWithStablecoin(address creator, uint256 amount) external {... */\n      pop\n      pop\n      jump\t// out\n        /* \"@openzeppelin/contracts/access/Ownable.sol\":2293:2394  function renounceOwnership() public virtual onlyOwner {... */\n    tag_76:\n        /* \"@openzeppelin/contracts/access/Ownable.sol\":1531:1544  _checkOwner() */\n      tag_223\n        /* \"@openzeppelin/contracts/access/Ownable.sol\":1531:1542  _checkOwner */\n      tag_159\n        /* \"@openzeppelin/contracts/access/Ownable.sol\":1531:1544  _checkOwner() */\n      jump\t// in\n    tag_223:\n        /* \"@openzeppelin/contracts/access/Ownable.sol\":2357:2387  _transferOwnership(address(0)) */\n      tag_225\n        /* \"@openzeppelin/contracts/access/Ownable.sol\":2384:2385  0 */\n      0x00\n        /* \"@openzeppelin/contracts/access/Ownable.sol\":2357:2375  _transferOwnership */\n      tag_226\n        /* \"@openzeppelin/contracts/access/Ownable.sol\":2357:2387  _transferOwnership(address(0)) */\n      jump\t// in\n    tag_225:\n        /* \"@openzeppelin/contracts/access/Ownable.sol\":2293:2394  function renounceOwnership() public virtual onlyOwner {... */\n      jump\t// out\n        /* \"contracts/PaymentEscrow.sol\":449:494  mapping(uint256 => Purchase) public purchases */\n    tag_80:\n      mstore(0x20, 0x01)\n      dup1\n      0x00\n      mstore\n      keccak256(0x00, 0x40)\n      0x00\n      swap2\n      pop\n      swap1\n      pop\n      dup1\n      0x00\n      add\n      0x00\n      swap1\n      sload\n      swap1\n      0x0100\n      exp\n      swap1\n      div\n      0xffffffffffffffffffffffffffffffffffffffff\n      and\n      swap1\n      dup1\n      0x01\n      add\n      0x00\n      swap1\n      sload\n      swap1\n      0x0100\n      exp\n      swap1\n      div\n      0xffffffffffffffffffffffffffffffffffffffff\n      and\n      swap1\n      dup1\n      0x02\n      add\n      sload\n      swap1\n      dup1\n      0x03\n      add\n      0x00\n      swap1\n      sload\n      swap1\n      0x0100\n      exp\n      swap1\n      div\n      0xff\n      and\n      swap1\n      dup1\n      0x03\n      add\n      0x01\n      swap1\n      sload\n      swap1\n      0x0100\n      exp\n      swap1\n      div\n      0xff\n      and\n      swap1\n      dup1\n      0x04\n      add\n      sload\n      swap1\n      dup1\n      0x05\n      add\n      0x00\n      swap1\n      sload\n      swap1\n      0x0100\n      exp\n      swap1\n      div\n      0xff\n      and\n      swap1\n      pop\n      dup8\n      jump\t// out\n        /* \"contracts/PaymentEscrow.sol\":661:708  mapping(address => uint256) public totalRatings */\n    tag_86:\n      mstore(0x20, 0x05)\n      dup1\n      0x00\n      mstore\n      keccak256(0x00, 0x40)\n      0x00\n      swap2\n      pop\n      swap1\n      pop\n      sload\n      dup2\n      jump\t// out\n        /* \"@openzeppelin/contracts/access/Ownable.sol\":1638:1723  function owner() public view virtual returns (address) {... */\n    tag_90:\n        /* \"@openzeppelin/contracts/access/Ownable.sol\":1684:1691  address */\n      0x00\n        /* \"@openzeppelin/contracts/access/Ownable.sol\":1710:1716  _owner */\n      dup1\n      0x00\n      swap1\n      sload\n      swap1\n      0x0100\n      exp\n      swap1\n      div\n      0xffffffffffffffffffffffffffffffffffffffff\n      and\n        /* \"@openzeppelin/contracts/access/Ownable.sol\":1703:1716  return _owner */\n      swap1\n      pop\n        /* \"@openzeppelin/contracts/access/Ownable.sol\":1638:1723  function owner() public view virtual returns (address) {... */\n      swap1\n      jump\t// out\n        /* \"contracts/PaymentEscrow.sol\":612:654  mapping(address => uint256) public ratings */\n    tag_96:\n      mstore(0x20, 0x04)\n      dup1\n      0x00\n      mstore\n      keccak256(0x00, 0x40)\n      0x00\n      swap2\n      pop\n      swap1\n      pop\n      sload\n      dup2\n      jump\t// out\n        /* \"contracts/PaymentEscrow.sol\":558:605  mapping(address => uint256) public buyerRewards */\n    tag_101:\n      mstore(0x20, 0x03)\n      dup1\n      0x00\n      mstore\n      keccak256(0x00, 0x40)\n      0x00\n      swap2\n      pop\n      swap1\n      pop\n      sload\n      dup2\n      jump\t// out\n        /* \"contracts/PaymentEscrow.sol\":4639:5220  function requestRefund(uint256 purchaseId) external {... */\n    tag_106:\n        /* \"contracts/PaymentEscrow.sol\":4741:4751  msg.sender */\n      caller\n        /* \"contracts/PaymentEscrow.sol\":4710:4751  purchases[purchaseId].buyer == msg.sender */\n      0xffffffffffffffffffffffffffffffffffffffff\n      and\n        /* \"contracts/PaymentEscrow.sol\":4710:4719  purchases */\n      0x01\n        /* \"contracts/PaymentEscrow.sol\":4710:4731  purchases[purchaseId] */\n      0x00\n        /* \"contracts/PaymentEscrow.sol\":4720:4730  purchaseId */\n      dup4\n        /* \"contracts/PaymentEscrow.sol\":4710:4731  purchases[purchaseId] */\n      dup2\n      mstore\n      0x20\n      add\n      swap1\n      dup2\n      mstore\n      0x20\n      add\n      0x00\n      keccak256\n        /* \"contracts/PaymentEscrow.sol\":4710:4737  purchases[purchaseId].buyer */\n      0x00\n      add\n      0x00\n      swap1\n      sload\n      swap1\n      0x0100\n      exp\n      swap1\n      div\n      0xffffffffffffffffffffffffffffffffffffffff\n      and\n        /* \"contracts/PaymentEscrow.sol\":4710:4751  purchases[purchaseId].buyer == msg.sender */\n      0xffffffffffffffffffffffffffffffffffffffff\n      and\n      eq\n        /* \"contracts/PaymentEscrow.sol\":4702:4785  require(purchases[purchaseId].buyer == msg.sender, \"Only buyer can request refund\") */\n      tag_229\n      jumpi\n      mload(0x40)\n      0x08c379a000000000000000000000000000000000000000000000000000000000\n      dup2\n      mstore\n      0x04\n      add\n      tag_230\n      swap1\n      tag_231\n      jump\t// in\n    tag_230:\n      mload(0x40)\n      dup1\n      swap2\n      sub\n      swap1\n      revert\n    tag_229:\n        /* \"contracts/PaymentEscrow.sol\":4822:4831  purchases */\n      0x01\n        /* \"contracts/PaymentEscrow.sol\":4822:4843  purchases[purchaseId] */\n      0x00\n        /* \"contracts/PaymentEscrow.sol\":4832:4842  purchaseId */\n      dup3\n        /* \"contracts/PaymentEscrow.sol\":4822:4843  purchases[purchaseId] */\n      dup2\n      mstore\n      0x20\n      add\n      swap1\n      dup2\n      mstore\n      0x20\n      add\n      0x00\n      keccak256\n        /* \"contracts/PaymentEscrow.sol\":4822:4852  purchases[purchaseId].deadline */\n      0x04\n      add\n      sload\n        /* \"contracts/PaymentEscrow.sol\":4804:4819  block.timestamp */\n      timestamp\n        /* \"contracts/PaymentEscrow.sol\":4804:4852  block.timestamp > purchases[purchaseId].deadline */\n      gt\n        /* \"contracts/PaymentEscrow.sol\":4796:4880  require(block.timestamp > purchases[purchaseId].deadline, \"Escrow time not expired\") */\n      tag_232\n      jumpi\n      mload(0x40)\n      0x08c379a000000000000000000000000000000000000000000000000000000000\n      dup2\n      mstore\n      0x04\n      add\n      tag_233\n      swap1\n      tag_234\n      jump\t// in\n    tag_233:\n      mload(0x40)\n      dup1\n      swap2\n      sub\n      swap1\n      revert\n    tag_232:\n        /* \"contracts/PaymentEscrow.sol\":4900:4909  purchases */\n      0x01\n        /* \"contracts/PaymentEscrow.sol\":4900:4921  purchases[purchaseId] */\n      0x00\n        /* \"contracts/PaymentEscrow.sol\":4910:4920  purchaseId */\n      dup3\n        /* \"contracts/PaymentEscrow.sol\":4900:4921  purchases[purchaseId] */\n      dup2\n      mstore\n      0x20\n      add\n      swap1\n      dup2\n      mstore\n      0x20\n      add\n      0x00\n      keccak256\n        /* \"contracts/PaymentEscrow.sol\":4900:4937  purchases[purchaseId].creatorApproval */\n      0x03\n      add\n      0x01\n      swap1\n      sload\n      swap1\n      0x0100\n      exp\n      swap1\n      div\n      0xff\n      and\n        /* \"contracts/PaymentEscrow.sol\":4899:4937  !purchases[purchaseId].creatorApproval */\n      iszero\n        /* \"contracts/PaymentEscrow.sol\":4891:4970  require(!purchases[purchaseId].creatorApproval, \"Creator has already approved\") */\n      tag_235\n      jumpi\n      mload(0x40)\n      0x08c379a000000000000000000000000000000000000000000000000000000000\n      dup2\n      mstore\n      0x04\n      add\n      tag_236\n      swap1\n      tag_237\n      jump\t// in\n    tag_236:\n      mload(0x40)\n      dup1\n      swap2\n      sub\n      swap1\n      revert\n    tag_235:\n        /* \"contracts/PaymentEscrow.sol\":4990:4999  purchases */\n      0x01\n        /* \"contracts/PaymentEscrow.sol\":4990:5011  purchases[purchaseId] */\n      0x00\n        /* \"contracts/PaymentEscrow.sol\":5000:5010  purchaseId */\n      dup3\n        /* \"contracts/PaymentEscrow.sol\":4990:5011  purchases[purchaseId] */\n      dup2\n      mstore\n      0x20\n      add\n      swap1\n      dup2\n      mstore\n      0x20\n      add\n      0x00\n      keccak256\n        /* \"contracts/PaymentEscrow.sol\":4990:5020  purchases[purchaseId].refunded */\n      0x05\n      add\n      0x00\n      swap1\n      sload\n      swap1\n      0x0100\n      exp\n      swap1\n      div\n      0xff\n      and\n        /* \"contracts/PaymentEscrow.sol\":4989:5020  !purchases[purchaseId].refunded */\n      iszero\n        /* \"contracts/PaymentEscrow.sol\":4981:5041  require(!purchases[purchaseId].refunded, \"Already refunded\") */\n      tag_238\n      jumpi\n      mload(0x40)\n      0x08c379a000000000000000000000000000000000000000000000000000000000\n      dup2\n      mstore\n      0x04\n      add\n      tag_239\n      swap1\n      tag_240\n      jump\t// in\n    tag_239:\n      mload(0x40)\n      dup1\n      swap2\n      sub\n      swap1\n      revert\n    tag_238:\n        /* \"contracts/PaymentEscrow.sol\":5087:5091  true */\n      0x01\n        /* \"contracts/PaymentEscrow.sol\":5054:5063  purchases */\n      dup1\n        /* \"contracts/PaymentEscrow.sol\":5054:5075  purchases[purchaseId] */\n      0x00\n        /* \"contracts/PaymentEscrow.sol\":5064:5074  purchaseId */\n      dup4\n        /* \"contracts/PaymentEscrow.sol\":5054:5075  purchases[purchaseId] */\n      dup2\n      mstore\n      0x20\n      add\n      swap1\n      dup2\n      mstore\n      0x20\n      add\n      0x00\n      keccak256\n        /* \"contracts/PaymentEscrow.sol\":5054:5084  purchases[purchaseId].refunded */\n      0x05\n      add\n      0x00\n        /* \"contracts/PaymentEscrow.sol\":5054:5091  purchases[purchaseId].refunded = true */\n      0x0100\n      exp\n      dup2\n      sload\n      dup2\n      0xff\n      mul\n      not\n      and\n      swap1\n      dup4\n      iszero\n      iszero\n      mul\n      or\n      swap1\n      sstore\n      pop\n        /* \"contracts/PaymentEscrow.sol\":5110:5120  msg.sender */\n      caller\n        /* \"contracts/PaymentEscrow.sol\":5102:5130  payable(msg.sender).transfer */\n      0xffffffffffffffffffffffffffffffffffffffff\n      and\n        /* \"contracts/PaymentEscrow.sol\":5102:5160  payable(msg.sender).transfer(purchases[purchaseId].amount) */\n      0x08fc\n        /* \"contracts/PaymentEscrow.sol\":5131:5140  purchases */\n      0x01\n        /* \"contracts/PaymentEscrow.sol\":5131:5152  purchases[purchaseId] */\n      0x00\n        /* \"contracts/PaymentEscrow.sol\":5141:5151  purchaseId */\n      dup5\n        /* \"contracts/PaymentEscrow.sol\":5131:5152  purchases[purchaseId] */\n      dup2\n      mstore\n      0x20\n      add\n      swap1\n      dup2\n      mstore\n      0x20\n      add\n      0x00\n      keccak256\n        /* \"contracts/PaymentEscrow.sol\":5131:5159  purchases[purchaseId].amount */\n      0x02\n      add\n      sload\n        /* \"contracts/PaymentEscrow.sol\":5102:5160  payable(msg.sender).transfer(purchases[purchaseId].amount) */\n      swap1\n      dup2\n      iszero\n      mul\n      swap1\n      mload(0x40)\n      0x00\n      mload(0x40)\n      dup1\n      dup4\n      sub\n      dup2\n      dup6\n      dup9\n      dup9\n      call\n      swap4\n      pop\n      pop\n      pop\n      pop\n      iszero\n      dup1\n      iszero\n      tag_242\n      jumpi\n      returndatasize\n      0x00\n      dup1\n      returndatacopy\n      revert(0x00, returndatasize)\n    tag_242:\n      pop\n        /* \"contracts/PaymentEscrow.sol\":5201:5211  msg.sender */\n      caller\n        /* \"contracts/PaymentEscrow.sol\":5176:5212  RefundIssued(purchaseId, msg.sender) */\n      0xffffffffffffffffffffffffffffffffffffffff\n      and\n      0x4f98299055c017596024bf5f17efb243bb559423f63a766e2effca248d0a9521\n        /* \"contracts/PaymentEscrow.sol\":5189:5199  purchaseId */\n      dup3\n        /* \"contracts/PaymentEscrow.sol\":5176:5212  RefundIssued(purchaseId, msg.sender) */\n      mload(0x40)\n      tag_243\n      swap2\n      swap1\n      tag_32\n      jump\t// in\n    tag_243:\n      mload(0x40)\n      dup1\n      swap2\n      sub\n      swap1\n      log2\n        /* \"contracts/PaymentEscrow.sol\":4639:5220  function requestRefund(uint256 purchaseId) external {... */\n      pop\n      jump\t// out\n        /* \"contracts/PaymentEscrow.sol\":5993:6211  function getAverageRating(address creator) external view returns (uint256) {... */\n    tag_110:\n        /* \"contracts/PaymentEscrow.sol\":6059:6066  uint256 */\n      0x00\n        /* \"contracts/PaymentEscrow.sol\":6108:6109  0 */\n      dup1\n        /* \"contracts/PaymentEscrow.sol\":6083:6095  totalRatings */\n      0x05\n        /* \"contracts/PaymentEscrow.sol\":6083:6104  totalRatings[creator] */\n      0x00\n        /* \"contracts/PaymentEscrow.sol\":6096:6103  creator */\n      dup5\n        /* \"contracts/PaymentEscrow.sol\":6083:6104  totalRatings[creator] */\n      0xffffffffffffffffffffffffffffffffffffffff\n      and\n      0xffffffffffffffffffffffffffffffffffffffff\n      and\n      dup2\n      mstore\n      0x20\n      add\n      swap1\n      dup2\n      mstore\n      0x20\n      add\n      0x00\n      keccak256\n      sload\n        /* \"contracts/PaymentEscrow.sol\":6083:6109  totalRatings[creator] == 0 */\n      sub\n        /* \"contracts/PaymentEscrow.sol\":6079:6146  if (totalRatings[creator] == 0) {... */\n      tag_245\n      jumpi\n        /* \"contracts/PaymentEscrow.sol\":6133:6134  0 */\n      0x00\n        /* \"contracts/PaymentEscrow.sol\":6126:6134  return 0 */\n      swap1\n      pop\n      jump(tag_244)\n        /* \"contracts/PaymentEscrow.sol\":6079:6146  if (totalRatings[creator] == 0) {... */\n    tag_245:\n        /* \"contracts/PaymentEscrow.sol\":6182:6194  totalRatings */\n      0x05\n        /* \"contracts/PaymentEscrow.sol\":6182:6203  totalRatings[creator] */\n      0x00\n        /* \"contracts/PaymentEscrow.sol\":6195:6202  creator */\n      dup4\n        /* \"contracts/PaymentEscrow.sol\":6182:6203  totalRatings[creator] */\n      0xffffffffffffffffffffffffffffffffffffffff\n      and\n      0xffffffffffffffffffffffffffffffffffffffff\n      and\n      dup2\n      mstore\n      0x20\n      add\n      swap1\n      dup2\n      mstore\n      0x20\n      add\n      0x00\n      keccak256\n      sload\n        /* \"contracts/PaymentEscrow.sol\":6163:6170  ratings */\n      0x04\n        /* \"contracts/PaymentEscrow.sol\":6163:6179  ratings[creator] */\n      0x00\n        /* \"contracts/PaymentEscrow.sol\":6171:6178  creator */\n      dup5\n        /* \"contracts/PaymentEscrow.sol\":6163:6179  ratings[creator] */\n      0xffffffffffffffffffffffffffffffffffffffff\n      and\n      0xffffffffffffffffffffffffffffffffffffffff\n      and\n      dup2\n      mstore\n      0x20\n      add\n      swap1\n      dup2\n      mstore\n      0x20\n      add\n      0x00\n      keccak256\n      sload\n        /* \"contracts/PaymentEscrow.sol\":6163:6203  ratings[creator] / totalRatings[creator] */\n      tag_246\n      swap2\n      swap1\n      tag_146\n      jump\t// in\n    tag_246:\n        /* \"contracts/PaymentEscrow.sol\":6156:6203  return ratings[creator] / totalRatings[creator] */\n      swap1\n      pop\n        /* \"contracts/PaymentEscrow.sol\":5993:6211  function getAverageRating(address creator) external view returns (uint256) {... */\n    tag_244:\n      swap2\n      swap1\n      pop\n      jump\t// out\n        /* \"contracts/PaymentEscrow.sol\":830:870  uint256 public platformFeePercentage = 5 */\n    tag_114:\n      sload(0x09)\n      dup2\n      jump\t// out\n        /* \"contracts/PaymentEscrow.sol\":752:777  address public stablecoin */\n    tag_118:\n      0x07\n      0x00\n      swap1\n      sload\n      swap1\n      0x0100\n      exp\n      swap1\n      div\n      0xffffffffffffffffffffffffffffffffffffffff\n      and\n      dup2\n      jump\t// out\n        /* \"@openzeppelin/contracts/access/Ownable.sol\":2543:2758  function transferOwnership(address newOwner) public virtual onlyOwner {... */\n    tag_123:\n        /* \"@openzeppelin/contracts/access/Ownable.sol\":1531:1544  _checkOwner() */\n      tag_248\n        /* \"@openzeppelin/contracts/access/Ownable.sol\":1531:1542  _checkOwner */\n      tag_159\n        /* \"@openzeppelin/contracts/access/Ownable.sol\":1531:1544  _checkOwner() */\n      jump\t// in\n    tag_248:\n        /* \"@openzeppelin/contracts/access/Ownable.sol\":2647:2648  0 */\n      0x00\n        /* \"@openzeppelin/contracts/access/Ownable.sol\":2627:2649  newOwner == address(0) */\n      0xffffffffffffffffffffffffffffffffffffffff\n      and\n        /* \"@openzeppelin/contracts/access/Ownable.sol\":2627:2635  newOwner */\n      dup2\n        /* \"@openzeppelin/contracts/access/Ownable.sol\":2627:2649  newOwner == address(0) */\n      0xffffffffffffffffffffffffffffffffffffffff\n      and\n      sub\n        /* \"@openzeppelin/contracts/access/Ownable.sol\":2623:2714  if (newOwner == address(0)) {... */\n      tag_250\n      jumpi\n        /* \"@openzeppelin/contracts/access/Ownable.sol\":2700:2701  0 */\n      0x00\n        /* \"@openzeppelin/contracts/access/Ownable.sol\":2672:2703  OwnableInvalidOwner(address(0)) */\n      mload(0x40)\n      0x1e4fbdf700000000000000000000000000000000000000000000000000000000\n      dup2\n      mstore\n      0x04\n      add\n      tag_251\n      swap2\n      swap1\n      tag_92\n      jump\t// in\n    tag_251:\n      mload(0x40)\n      dup1\n      swap2\n      sub\n      swap1\n      revert\n        /* \"@openzeppelin/contracts/access/Ownable.sol\":2623:2714  if (newOwner == address(0)) {... */\n    tag_250:\n        /* \"@openzeppelin/contracts/access/Ownable.sol\":2723:2751  _transferOwnership(newOwner) */\n      tag_252\n        /* \"@openzeppelin/contracts/access/Ownable.sol\":2742:2750  newOwner */\n      dup2\n        /* \"@openzeppelin/contracts/access/Ownable.sol\":2723:2741  _transferOwnership */\n      tag_226\n        /* \"@openzeppelin/contracts/access/Ownable.sol\":2723:2751  _transferOwnership(newOwner) */\n      jump\t// in\n    tag_252:\n        /* \"@openzeppelin/contracts/access/Ownable.sol\":2543:2758  function transferOwnership(address newOwner) public virtual onlyOwner {... */\n      pop\n      jump\t// out\n        /* \"contracts/PaymentEscrow.sol\":898:927  address public platformWallet */\n    tag_126:\n      0x0a\n      0x00\n      swap1\n      sload\n      swap1\n      0x0100\n      exp\n      swap1\n      div\n      0xffffffffffffffffffffffffffffffffffffffff\n      and\n      dup2\n      jump\t// out\n        /* \"contracts/PaymentEscrow.sol\":3985:4365  function confirmDelivery(uint256 purchaseId) external {... */\n    tag_131:\n        /* \"contracts/PaymentEscrow.sol\":4091:4101  msg.sender */\n      caller\n        /* \"contracts/PaymentEscrow.sol\":4058:4101  purchases[purchaseId].creator == msg.sender */\n      0xffffffffffffffffffffffffffffffffffffffff\n      and\n        /* \"contracts/PaymentEscrow.sol\":4058:4067  purchases */\n      0x01\n        /* \"contracts/PaymentEscrow.sol\":4058:4079  purchases[purchaseId] */\n      0x00\n        /* \"contracts/PaymentEscrow.sol\":4068:4078  purchaseId */\n      dup4\n        /* \"contracts/PaymentEscrow.sol\":4058:4079  purchases[purchaseId] */\n      dup2\n      mstore\n      0x20\n      add\n      swap1\n      dup2\n      mstore\n      0x20\n      add\n      0x00\n      keccak256\n        /* \"contracts/PaymentEscrow.sol\":4058:4087  purchases[purchaseId].creator */\n      0x01\n      add\n      0x00\n      swap1\n      sload\n      swap1\n      0x0100\n      exp\n      swap1\n      div\n      0xffffffffffffffffffffffffffffffffffffffff\n      and\n        /* \"contracts/PaymentEscrow.sol\":4058:4101  purchases[purchaseId].creator == msg.sender */\n      0xffffffffffffffffffffffffffffffffffffffff\n      and\n      eq\n        /* \"contracts/PaymentEscrow.sol\":4050:4130  require(purchases[purchaseId].creator == msg.sender, \"Only creator can confirm\") */\n      tag_254\n      jumpi\n      mload(0x40)\n      0x08c379a000000000000000000000000000000000000000000000000000000000\n      dup2\n      mstore\n      0x04\n      add\n      tag_255\n      swap1\n      tag_256\n      jump\t// in\n    tag_255:\n      mload(0x40)\n      dup1\n      swap2\n      sub\n      swap1\n      revert\n    tag_254:\n        /* \"contracts/PaymentEscrow.sol\":4150:4159  purchases */\n      0x01\n        /* \"contracts/PaymentEscrow.sol\":4150:4171  purchases[purchaseId] */\n      0x00\n        /* \"contracts/PaymentEscrow.sol\":4160:4170  purchaseId */\n      dup3\n        /* \"contracts/PaymentEscrow.sol\":4150:4171  purchases[purchaseId] */\n      dup2\n      mstore\n      0x20\n      add\n      swap1\n      dup2\n      mstore\n      0x20\n      add\n      0x00\n      keccak256\n        /* \"contracts/PaymentEscrow.sol\":4150:4187  purchases[purchaseId].creatorApproval */\n      0x03\n      add\n      0x01\n      swap1\n      sload\n      swap1\n      0x0100\n      exp\n      swap1\n      div\n      0xff\n      and\n        /* \"contracts/PaymentEscrow.sol\":4149:4187  !purchases[purchaseId].creatorApproval */\n      iszero\n        /* \"contracts/PaymentEscrow.sol\":4141:4208  require(!purchases[purchaseId].creatorApproval, \"Already approved\") */\n      tag_257\n      jumpi\n      mload(0x40)\n      0x08c379a000000000000000000000000000000000000000000000000000000000\n      dup2\n      mstore\n      0x04\n      add\n      tag_258\n      swap1\n      tag_192\n      jump\t// in\n    tag_258:\n      mload(0x40)\n      dup1\n      swap2\n      sub\n      swap1\n      revert\n    tag_257:\n        /* \"contracts/PaymentEscrow.sol\":4261:4265  true */\n      0x01\n        /* \"contracts/PaymentEscrow.sol\":4221:4230  purchases */\n      dup1\n        /* \"contracts/PaymentEscrow.sol\":4221:4242  purchases[purchaseId] */\n      0x00\n        /* \"contracts/PaymentEscrow.sol\":4231:4241  purchaseId */\n      dup4\n        /* \"contracts/PaymentEscrow.sol\":4221:4242  purchases[purchaseId] */\n      dup2\n      mstore\n      0x20\n      add\n      swap1\n      dup2\n      mstore\n      0x20\n      add\n      0x00\n      keccak256\n        /* \"contracts/PaymentEscrow.sol\":4221:4258  purchases[purchaseId].creatorApproval */\n      0x03\n      add\n      0x01\n        /* \"contracts/PaymentEscrow.sol\":4221:4265  purchases[purchaseId].creatorApproval = true */\n      0x0100\n      exp\n      dup2\n      sload\n      dup2\n      0xff\n      mul\n      not\n      and\n      swap1\n      dup4\n      iszero\n      iszero\n      mul\n      or\n      swap1\n      sstore\n      pop\n        /* \"contracts/PaymentEscrow.sol\":4309:4319  msg.sender */\n      caller\n        /* \"contracts/PaymentEscrow.sol\":4281:4320  ContentApproved(purchaseId, msg.sender) */\n      0xffffffffffffffffffffffffffffffffffffffff\n      and\n      0xff0391c86d08750af277dd496813bf415c212a98090e0f6807c72d7f35eab113\n        /* \"contracts/PaymentEscrow.sol\":4297:4307  purchaseId */\n      dup3\n        /* \"contracts/PaymentEscrow.sol\":4281:4320  ContentApproved(purchaseId, msg.sender) */\n      mload(0x40)\n      tag_259\n      swap2\n      swap1\n      tag_32\n      jump\t// in\n    tag_259:\n      mload(0x40)\n      dup1\n      swap2\n      sub\n      swap1\n      log2\n        /* \"contracts/PaymentEscrow.sol\":4331:4357  finalizeEscrow(purchaseId) */\n      tag_260\n        /* \"contracts/PaymentEscrow.sol\":4346:4356  purchaseId */\n      dup2\n        /* \"contracts/PaymentEscrow.sol\":4331:4345  finalizeEscrow */\n      tag_195\n        /* \"contracts/PaymentEscrow.sol\":4331:4357  finalizeEscrow(purchaseId) */\n      jump\t// in\n    tag_260:\n        /* \"contracts/PaymentEscrow.sol\":3985:4365  function confirmDelivery(uint256 purchaseId) external {... */\n      pop\n      jump\t// out\n        /* \"@openzeppelin/contracts/access/Ownable.sol\":1796:1958  function _checkOwner() internal view virtual {... */\n    tag_159:\n        /* \"@openzeppelin/contracts/access/Ownable.sol\":1866:1878  _msgSender() */\n      tag_262\n        /* \"@openzeppelin/contracts/access/Ownable.sol\":1866:1876  _msgSender */\n      tag_263\n        /* \"@openzeppelin/contracts/access/Ownable.sol\":1866:1878  _msgSender() */\n      jump\t// in\n    tag_262:\n        /* \"@openzeppelin/contracts/access/Ownable.sol\":1855:1878  owner() != _msgSender() */\n      0xffffffffffffffffffffffffffffffffffffffff\n      and\n        /* \"@openzeppelin/contracts/access/Ownable.sol\":1855:1862  owner() */\n      tag_264\n        /* \"@openzeppelin/contracts/access/Ownable.sol\":1855:1860  owner */\n      tag_90\n        /* \"@openzeppelin/contracts/access/Ownable.sol\":1855:1862  owner() */\n      jump\t// in\n    tag_264:\n        /* \"@openzeppelin/contracts/access/Ownable.sol\":1855:1878  owner() != _msgSender() */\n      0xffffffffffffffffffffffffffffffffffffffff\n      and\n      eq\n        /* \"@openzeppelin/contracts/access/Ownable.sol\":1851:1952  if (owner() != _msgSender()) {... */\n      tag_265\n      jumpi\n        /* \"@openzeppelin/contracts/access/Ownable.sol\":1928:1940  _msgSender() */\n      tag_266\n        /* \"@openzeppelin/contracts/access/Ownable.sol\":1928:1938  _msgSender */\n      tag_263\n        /* \"@openzeppelin/contracts/access/Ownable.sol\":1928:1940  _msgSender() */\n      jump\t// in\n    tag_266:\n        /* \"@openzeppelin/contracts/access/Ownable.sol\":1901:1941  OwnableUnauthorizedAccount(_msgSender()) */\n      mload(0x40)\n      0x118cdaa700000000000000000000000000000000000000000000000000000000\n      dup2\n      mstore\n      0x04\n      add\n      tag_267\n      swap2\n      swap1\n      tag_92\n      jump\t// in\n    tag_267:\n      mload(0x40)\n      dup1\n      swap2\n      sub\n      swap1\n      revert\n        /* \"@openzeppelin/contracts/access/Ownable.sol\":1851:1952  if (owner() != _msgSender()) {... */\n    tag_265:\n        /* \"@openzeppelin/contracts/access/Ownable.sol\":1796:1958  function _checkOwner() internal view virtual {... */\n      jump\t// out\n        /* \"contracts/PaymentEscrow.sol\":4373:4631  function finalizeEscrow(uint256 purchaseId) internal {... */\n    tag_195:\n        /* \"contracts/PaymentEscrow.sol\":4441:4450  purchases */\n      0x01\n        /* \"contracts/PaymentEscrow.sol\":4441:4462  purchases[purchaseId] */\n      0x00\n        /* \"contracts/PaymentEscrow.sol\":4451:4461  purchaseId */\n      dup3\n        /* \"contracts/PaymentEscrow.sol\":4441:4462  purchases[purchaseId] */\n      dup2\n      mstore\n      0x20\n      add\n      swap1\n      dup2\n      mstore\n      0x20\n      add\n      0x00\n      keccak256\n        /* \"contracts/PaymentEscrow.sol\":4441:4476  purchases[purchaseId].buyerApproval */\n      0x03\n      add\n      0x00\n      swap1\n      sload\n      swap1\n      0x0100\n      exp\n      swap1\n      div\n      0xff\n      and\n        /* \"contracts/PaymentEscrow.sol\":4441:4517  purchases[purchaseId].buyerApproval && purchases[purchaseId].creatorApproval */\n      dup1\n      iszero\n      tag_269\n      jumpi\n      pop\n        /* \"contracts/PaymentEscrow.sol\":4480:4489  purchases */\n      0x01\n        /* \"contracts/PaymentEscrow.sol\":4480:4501  purchases[purchaseId] */\n      0x00\n        /* \"contracts/PaymentEscrow.sol\":4490:4500  purchaseId */\n      dup3\n        /* \"contracts/PaymentEscrow.sol\":4480:4501  purchases[purchaseId] */\n      dup2\n      mstore\n      0x20\n      add\n      swap1\n      dup2\n      mstore\n      0x20\n      add\n      0x00\n      keccak256\n        /* \"contracts/PaymentEscrow.sol\":4480:4517  purchases[purchaseId].creatorApproval */\n      0x03\n      add\n      0x01\n      swap1\n      sload\n      swap1\n      0x0100\n      exp\n      swap1\n      div\n      0xff\n      and\n        /* \"contracts/PaymentEscrow.sol\":4441:4517  purchases[purchaseId].buyerApproval && purchases[purchaseId].creatorApproval */\n    tag_269:\n        /* \"contracts/PaymentEscrow.sol\":4437:4624  if (purchases[purchaseId].buyerApproval && purchases[purchaseId].creatorApproval) {... */\n      iszero\n      tag_270\n      jumpi\n        /* \"contracts/PaymentEscrow.sol\":4584:4593  purchases */\n      0x01\n        /* \"contracts/PaymentEscrow.sol\":4584:4605  purchases[purchaseId] */\n      0x00\n        /* \"contracts/PaymentEscrow.sol\":4594:4604  purchaseId */\n      dup3\n        /* \"contracts/PaymentEscrow.sol\":4584:4605  purchases[purchaseId] */\n      dup2\n      mstore\n      0x20\n      add\n      swap1\n      dup2\n      mstore\n      0x20\n      add\n      0x00\n      keccak256\n        /* \"contracts/PaymentEscrow.sol\":4584:4612  purchases[purchaseId].amount */\n      0x02\n      add\n      sload\n        /* \"contracts/PaymentEscrow.sol\":4534:4549  creatorBalances */\n      0x02\n        /* \"contracts/PaymentEscrow.sol\":4534:4580  creatorBalances[purchases[purchaseId].creator] */\n      0x00\n        /* \"contracts/PaymentEscrow.sol\":4550:4559  purchases */\n      0x01\n        /* \"contracts/PaymentEscrow.sol\":4550:4571  purchases[purchaseId] */\n      0x00\n        /* \"contracts/PaymentEscrow.sol\":4560:4570  purchaseId */\n      dup6\n        /* \"contracts/PaymentEscrow.sol\":4550:4571  purchases[purchaseId] */\n      dup2\n      mstore\n      0x20\n      add\n      swap1\n      dup2\n      mstore\n      0x20\n      add\n      0x00\n      keccak256\n        /* \"contracts/PaymentEscrow.sol\":4550:4579  purchases[purchaseId].creator */\n      0x01\n      add\n      0x00\n      swap1\n      sload\n      swap1\n      0x0100\n      exp\n      swap1\n      div\n      0xffffffffffffffffffffffffffffffffffffffff\n      and\n        /* \"contracts/PaymentEscrow.sol\":4534:4580  creatorBalances[purchases[purchaseId].creator] */\n      0xffffffffffffffffffffffffffffffffffffffff\n      and\n      0xffffffffffffffffffffffffffffffffffffffff\n      and\n      dup2\n      mstore\n      0x20\n      add\n      swap1\n      dup2\n      mstore\n      0x20\n      add\n      0x00\n      keccak256\n      0x00\n        /* \"contracts/PaymentEscrow.sol\":4534:4612  creatorBalances[purchases[purchaseId].creator] += purchases[purchaseId].amount */\n      dup3\n      dup3\n      sload\n      tag_271\n      swap2\n      swap1\n      tag_152\n      jump\t// in\n    tag_271:\n      swap3\n      pop\n      pop\n      dup2\n      swap1\n      sstore\n      pop\n        /* \"contracts/PaymentEscrow.sol\":4437:4624  if (purchases[purchaseId].buyerApproval && purchases[purchaseId].creatorApproval) {... */\n    tag_270:\n        /* \"contracts/PaymentEscrow.sol\":4373:4631  function finalizeEscrow(uint256 purchaseId) internal {... */\n      pop\n      jump\t// out\n        /* \"@openzeppelin/contracts/access/Ownable.sol\":2912:3099  function _transferOwnership(address newOwner) internal virtual {... */\n    tag_226:\n        /* \"@openzeppelin/contracts/access/Ownable.sol\":2985:3001  address oldOwner */\n      0x00\n        /* \"@openzeppelin/contracts/access/Ownable.sol\":3004:3010  _owner */\n      dup1\n      0x00\n      swap1\n      sload\n      swap1\n      0x0100\n      exp\n      swap1\n      div\n      0xffffffffffffffffffffffffffffffffffffffff\n      and\n        /* \"@openzeppelin/contracts/access/Ownable.sol\":2985:3010  address oldOwner = _owner */\n      swap1\n      pop\n        /* \"@openzeppelin/contracts/access/Ownable.sol\":3029:3037  newOwner */\n      dup2\n        /* \"@openzeppelin/contracts/access/Ownable.sol\":3020:3026  _owner */\n      0x00\n      dup1\n        /* \"@openzeppelin/contracts/access/Ownable.sol\":3020:3037  _owner = newOwner */\n      0x0100\n      exp\n      dup2\n      sload\n      dup2\n      0xffffffffffffffffffffffffffffffffffffffff\n      mul\n      not\n      and\n      swap1\n      dup4\n      0xffffffffffffffffffffffffffffffffffffffff\n      and\n      mul\n      or\n      swap1\n      sstore\n      pop\n        /* \"@openzeppelin/contracts/access/Ownable.sol\":3083:3091  newOwner */\n      dup2\n        /* \"@openzeppelin/contracts/access/Ownable.sol\":3052:3092  OwnershipTransferred(oldOwner, newOwner) */\n      0xffffffffffffffffffffffffffffffffffffffff\n      and\n        /* \"@openzeppelin/contracts/access/Ownable.sol\":3073:3081  oldOwner */\n      dup2\n        /* \"@openzeppelin/contracts/access/Ownable.sol\":3052:3092  OwnershipTransferred(oldOwner, newOwner) */\n      0xffffffffffffffffffffffffffffffffffffffff\n      and\n      0x8be0079c531659141344cd1fd0a4f28419497f9722a3daafe3b4186f6b6457e0\n      mload(0x40)\n      mload(0x40)\n      dup1\n      swap2\n      sub\n      swap1\n      log3\n        /* \"@openzeppelin/contracts/access/Ownable.sol\":2975:3099  {... */\n      pop\n        /* \"@openzeppelin/contracts/access/Ownable.sol\":2912:3099  function _transferOwnership(address newOwner) internal virtual {... */\n      pop\n      jump\t// out\n        /* \"@openzeppelin/contracts/utils/Context.sol\":656:752  function _msgSender() internal view virtual returns (address) {... */\n    tag_263:\n        /* \"@openzeppelin/contracts/utils/Context.sol\":709:716  address */\n      0x00\n        /* \"@openzeppelin/contracts/utils/Context.sol\":735:745  msg.sender */\n      caller\n        /* \"@openzeppelin/contracts/utils/Context.sol\":728:745  return msg.sender */\n      swap1\n      pop\n        /* \"@openzeppelin/contracts/utils/Context.sol\":656:752  function _msgSender() internal view virtual returns (address) {... */\n      swap1\n      jump\t// out\n        /* \"#utility.yul\":7:84   */\n    tag_274:\n        /* \"#utility.yul\":44:51   */\n      0x00\n        /* \"#utility.yul\":73:78   */\n      dup2\n        /* \"#utility.yul\":62:78   */\n      swap1\n      pop\n        /* \"#utility.yul\":7:84   */\n      swap2\n      swap1\n      pop\n      jump\t// out\n        /* \"#utility.yul\":90:208   */\n    tag_275:\n        /* \"#utility.yul\":177:201   */\n      tag_345\n        /* \"#utility.yul\":195:200   */\n      dup2\n        /* \"#utility.yul\":177:201   */\n      tag_274\n      jump\t// in\n    tag_345:\n        /* \"#utility.yul\":172:175   */\n      dup3\n        /* \"#utility.yul\":165:202   */\n      mstore\n        /* \"#utility.yul\":90:208   */\n      pop\n      pop\n      jump\t// out\n        /* \"#utility.yul\":214:436   */\n    tag_32:\n        /* \"#utility.yul\":307:311   */\n      0x00\n        /* \"#utility.yul\":345:347   */\n      0x20\n        /* \"#utility.yul\":334:343   */\n      dup3\n        /* \"#utility.yul\":330:348   */\n      add\n        /* \"#utility.yul\":322:348   */\n      swap1\n      pop\n        /* \"#utility.yul\":358:429   */\n      tag_347\n        /* \"#utility.yul\":426:427   */\n      0x00\n        /* \"#utility.yul\":415:424   */\n      dup4\n        /* \"#utility.yul\":411:428   */\n      add\n        /* \"#utility.yul\":402:408   */\n      dup5\n        /* \"#utility.yul\":358:429   */\n      tag_275\n      jump\t// in\n    tag_347:\n        /* \"#utility.yul\":214:436   */\n      swap3\n      swap2\n      pop\n      pop\n      jump\t// out\n        /* \"#utility.yul\":442:517   */\n    tag_276:\n        /* \"#utility.yul\":475:481   */\n      0x00\n        /* \"#utility.yul\":508:510   */\n      0x40\n        /* \"#utility.yul\":502:511   */\n      mload\n        /* \"#utility.yul\":492:511   */\n      swap1\n      pop\n        /* \"#utility.yul\":442:517   */\n      swap1\n      jump\t// out\n        /* \"#utility.yul\":523:640   */\n    tag_277:\n        /* \"#utility.yul\":632:633   */\n      0x00\n        /* \"#utility.yul\":629:630   */\n      dup1\n        /* \"#utility.yul\":622:634   */\n      revert\n        /* \"#utility.yul\":646:763   */\n    tag_278:\n        /* \"#utility.yul\":755:756   */\n      0x00\n        /* \"#utility.yul\":752:753   */\n      dup1\n        /* \"#utility.yul\":745:757   */\n      revert\n        /* \"#utility.yul\":769:895   */\n    tag_279:\n        /* \"#utility.yul\":806:813   */\n      0x00\n        /* \"#utility.yul\":846:888   */\n      0xffffffffffffffffffffffffffffffffffffffff\n        /* \"#utility.yul\":839:844   */\n      dup3\n        /* \"#utility.yul\":835:889   */\n      and\n        /* \"#utility.yul\":824:889   */\n      swap1\n      pop\n        /* \"#utility.yul\":769:895   */\n      swap2\n      swap1\n      pop\n      jump\t// out\n        /* \"#utility.yul\":901:997   */\n    tag_280:\n        /* \"#utility.yul\":938:945   */\n      0x00\n        /* \"#utility.yul\":967:991   */\n      tag_353\n        /* \"#utility.yul\":985:990   */\n      dup3\n        /* \"#utility.yul\":967:991   */\n      tag_279\n      jump\t// in\n    tag_353:\n        /* \"#utility.yul\":956:991   */\n      swap1\n      pop\n        /* \"#utility.yul\":901:997   */\n      swap2\n      swap1\n      pop\n      jump\t// out\n        /* \"#utility.yul\":1003:1125   */\n    tag_281:\n        /* \"#utility.yul\":1076:1100   */\n      tag_355\n        /* \"#utility.yul\":1094:1099   */\n      dup2\n        /* \"#utility.yul\":1076:1100   */\n      tag_280\n      jump\t// in\n    tag_355:\n        /* \"#utility.yul\":1069:1074   */\n      dup2\n        /* \"#utility.yul\":1066:1101   */\n      eq\n        /* \"#utility.yul\":1056:1119   */\n      tag_356\n      jumpi\n        /* \"#utility.yul\":1115:1116   */\n      0x00\n        /* \"#utility.yul\":1112:1113   */\n      dup1\n        /* \"#utility.yul\":1105:1117   */\n      revert\n        /* \"#utility.yul\":1056:1119   */\n    tag_356:\n        /* \"#utility.yul\":1003:1125   */\n      pop\n      jump\t// out\n        /* \"#utility.yul\":1131:1270   */\n    tag_282:\n        /* \"#utility.yul\":1177:1182   */\n      0x00\n        /* \"#utility.yul\":1215:1221   */\n      dup2\n        /* \"#utility.yul\":1202:1222   */\n      calldataload\n        /* \"#utility.yul\":1193:1222   */\n      swap1\n      pop\n        /* \"#utility.yul\":1231:1264   */\n      tag_358\n        /* \"#utility.yul\":1258:1263   */\n      dup2\n        /* \"#utility.yul\":1231:1264   */\n      tag_281\n      jump\t// in\n    tag_358:\n        /* \"#utility.yul\":1131:1270   */\n      swap3\n      swap2\n      pop\n      pop\n      jump\t// out\n        /* \"#utility.yul\":1276:1605   */\n    tag_42:\n        /* \"#utility.yul\":1335:1341   */\n      0x00\n        /* \"#utility.yul\":1384:1386   */\n      0x20\n        /* \"#utility.yul\":1372:1381   */\n      dup3\n        /* \"#utility.yul\":1363:1370   */\n      dup5\n        /* \"#utility.yul\":1359:1382   */\n      sub\n        /* \"#utility.yul\":1355:1387   */\n      slt\n        /* \"#utility.yul\":1352:1471   */\n      iszero\n      tag_360\n      jumpi\n        /* \"#utility.yul\":1390:1469   */\n      tag_361\n      tag_277\n      jump\t// in\n    tag_361:\n        /* \"#utility.yul\":1352:1471   */\n    tag_360:\n        /* \"#utility.yul\":1510:1511   */\n      0x00\n        /* \"#utility.yul\":1535:1588   */\n      tag_362\n        /* \"#utility.yul\":1580:1587   */\n      dup5\n        /* \"#utility.yul\":1571:1577   */\n      dup3\n        /* \"#utility.yul\":1560:1569   */\n      dup6\n        /* \"#utility.yul\":1556:1578   */\n      add\n        /* \"#utility.yul\":1535:1588   */\n      tag_282\n      jump\t// in\n    tag_362:\n        /* \"#utility.yul\":1525:1588   */\n      swap2\n      pop\n        /* \"#utility.yul\":1481:1598   */\n      pop\n        /* \"#utility.yul\":1276:1605   */\n      swap3\n      swap2\n      pop\n      pop\n      jump\t// out\n        /* \"#utility.yul\":1611:1733   */\n    tag_283:\n        /* \"#utility.yul\":1684:1708   */\n      tag_364\n        /* \"#utility.yul\":1702:1707   */\n      dup2\n        /* \"#utility.yul\":1684:1708   */\n      tag_274\n      jump\t// in\n    tag_364:\n        /* \"#utility.yul\":1677:1682   */\n      dup2\n        /* \"#utility.yul\":1674:1709   */\n      eq\n        /* \"#utility.yul\":1664:1727   */\n      tag_365\n      jumpi\n        /* \"#utility.yul\":1723:1724   */\n      0x00\n        /* \"#utility.yul\":1720:1721   */\n      dup1\n        /* \"#utility.yul\":1713:1725   */\n      revert\n        /* \"#utility.yul\":1664:1727   */\n    tag_365:\n        /* \"#utility.yul\":1611:1733   */\n      pop\n      jump\t// out\n        /* \"#utility.yul\":1739:1878   */\n    tag_284:\n        /* \"#utility.yul\":1785:1790   */\n      0x00\n        /* \"#utility.yul\":1823:1829   */\n      dup2\n        /* \"#utility.yul\":1810:1830   */\n      calldataload\n        /* \"#utility.yul\":1801:1830   */\n      swap1\n      pop\n        /* \"#utility.yul\":1839:1872   */\n      tag_367\n        /* \"#utility.yul\":1866:1871   */\n      dup2\n        /* \"#utility.yul\":1839:1872   */\n      tag_283\n      jump\t// in\n    tag_367:\n        /* \"#utility.yul\":1739:1878   */\n      swap3\n      swap2\n      pop\n      pop\n      jump\t// out\n        /* \"#utility.yul\":1884:2001   */\n    tag_285:\n        /* \"#utility.yul\":1993:1994   */\n      0x00\n        /* \"#utility.yul\":1990:1991   */\n      dup1\n        /* \"#utility.yul\":1983:1995   */\n      revert\n        /* \"#utility.yul\":2007:2124   */\n    tag_286:\n        /* \"#utility.yul\":2116:2117   */\n      0x00\n        /* \"#utility.yul\":2113:2114   */\n      dup1\n        /* \"#utility.yul\":2106:2118   */\n      revert\n        /* \"#utility.yul\":2130:2232   */\n    tag_287:\n        /* \"#utility.yul\":2171:2177   */\n      0x00\n        /* \"#utility.yul\":2222:2224   */\n      0x1f\n        /* \"#utility.yul\":2218:2225   */\n      not\n        /* \"#utility.yul\":2213:2215   */\n      0x1f\n        /* \"#utility.yul\":2206:2211   */\n      dup4\n        /* \"#utility.yul\":2202:2216   */\n      add\n        /* \"#utility.yul\":2198:2226   */\n      and\n        /* \"#utility.yul\":2188:2226   */\n      swap1\n      pop\n        /* \"#utility.yul\":2130:2232   */\n      swap2\n      swap1\n      pop\n      jump\t// out\n        /* \"#utility.yul\":2238:2418   */\n    tag_288:\n        /* \"#utility.yul\":2286:2363   */\n      0x4e487b7100000000000000000000000000000000000000000000000000000000\n        /* \"#utility.yul\":2283:2284   */\n      0x00\n        /* \"#utility.yul\":2276:2364   */\n      mstore\n        /* \"#utility.yul\":2383:2387   */\n      0x41\n        /* \"#utility.yul\":2380:2381   */\n      0x04\n        /* \"#utility.yul\":2373:2388   */\n      mstore\n        /* \"#utility.yul\":2407:2411   */\n      0x24\n        /* \"#utility.yul\":2404:2405   */\n      0x00\n        /* \"#utility.yul\":2397:2412   */\n      revert\n        /* \"#utility.yul\":2424:2705   */\n    tag_289:\n        /* \"#utility.yul\":2507:2534   */\n      tag_373\n        /* \"#utility.yul\":2529:2533   */\n      dup3\n        /* \"#utility.yul\":2507:2534   */\n      tag_287\n      jump\t// in\n    tag_373:\n        /* \"#utility.yul\":2499:2505   */\n      dup2\n        /* \"#utility.yul\":2495:2535   */\n      add\n        /* \"#utility.yul\":2637:2643   */\n      dup2\n        /* \"#utility.yul\":2625:2635   */\n      dup2\n        /* \"#utility.yul\":2622:2644   */\n      lt\n        /* \"#utility.yul\":2601:2619   */\n      0xffffffffffffffff\n        /* \"#utility.yul\":2589:2599   */\n      dup3\n        /* \"#utility.yul\":2586:2620   */\n      gt\n        /* \"#utility.yul\":2583:2645   */\n      or\n        /* \"#utility.yul\":2580:2668   */\n      iszero\n      tag_374\n      jumpi\n        /* \"#utility.yul\":2648:2666   */\n      tag_375\n      tag_288\n      jump\t// in\n    tag_375:\n        /* \"#utility.yul\":2580:2668   */\n    tag_374:\n        /* \"#utility.yul\":2688:2698   */\n      dup1\n        /* \"#utility.yul\":2684:2686   */\n      0x40\n        /* \"#utility.yul\":2677:2699   */\n      mstore\n        /* \"#utility.yul\":2467:2705   */\n      pop\n        /* \"#utility.yul\":2424:2705   */\n      pop\n      pop\n      jump\t// out\n        /* \"#utility.yul\":2711:2840   */\n    tag_290:\n        /* \"#utility.yul\":2745:2751   */\n      0x00\n        /* \"#utility.yul\":2772:2792   */\n      tag_377\n      tag_276\n      jump\t// in\n    tag_377:\n        /* \"#utility.yul\":2762:2792   */\n      swap1\n      pop\n        /* \"#utility.yul\":2801:2834   */\n      tag_378\n        /* \"#utility.yul\":2829:2833   */\n      dup3\n        /* \"#utility.yul\":2821:2827   */\n      dup3\n        /* \"#utility.yul\":2801:2834   */\n      tag_289\n      jump\t// in\n    tag_378:\n        /* \"#utility.yul\":2711:2840   */\n      swap2\n      swap1\n      pop\n      jump\t// out\n        /* \"#utility.yul\":2846:3154   */\n    tag_291:\n        /* \"#utility.yul\":2908:2912   */\n      0x00\n        /* \"#utility.yul\":2998:3016   */\n      0xffffffffffffffff\n        /* \"#utility.yul\":2990:2996   */\n      dup3\n        /* \"#utility.yul\":2987:3017   */\n      gt\n        /* \"#utility.yul\":2984:3040   */\n      iszero\n      tag_380\n      jumpi\n        /* \"#utility.yul\":3020:3038   */\n      tag_381\n      tag_288\n      jump\t// in\n    tag_381:\n        /* \"#utility.yul\":2984:3040   */\n    tag_380:\n        /* \"#utility.yul\":3058:3087   */\n      tag_382\n        /* \"#utility.yul\":3080:3086   */\n      dup3\n        /* \"#utility.yul\":3058:3087   */\n      tag_287\n      jump\t// in\n    tag_382:\n        /* \"#utility.yul\":3050:3087   */\n      swap1\n      pop\n        /* \"#utility.yul\":3142:3146   */\n      0x20\n        /* \"#utility.yul\":3136:3140   */\n      dup2\n        /* \"#utility.yul\":3132:3147   */\n      add\n        /* \"#utility.yul\":3124:3147   */\n      swap1\n      pop\n        /* \"#utility.yul\":2846:3154   */\n      swap2\n      swap1\n      pop\n      jump\t// out\n        /* \"#utility.yul\":3160:3308   */\n    tag_292:\n        /* \"#utility.yul\":3258:3264   */\n      dup3\n        /* \"#utility.yul\":3253:3256   */\n      dup2\n        /* \"#utility.yul\":3248:3251   */\n      dup4\n        /* \"#utility.yul\":3235:3265   */\n      calldatacopy\n        /* \"#utility.yul\":3299:3300   */\n      0x00\n        /* \"#utility.yul\":3290:3296   */\n      dup4\n        /* \"#utility.yul\":3285:3288   */\n      dup4\n        /* \"#utility.yul\":3281:3297   */\n      add\n        /* \"#utility.yul\":3274:3301   */\n      mstore\n        /* \"#utility.yul\":3160:3308   */\n      pop\n      pop\n      pop\n      jump\t// out\n        /* \"#utility.yul\":3314:3739   */\n    tag_293:\n        /* \"#utility.yul\":3392:3397   */\n      0x00\n        /* \"#utility.yul\":3417:3483   */\n      tag_385\n        /* \"#utility.yul\":3433:3482   */\n      tag_386\n        /* \"#utility.yul\":3475:3481   */\n      dup5\n        /* \"#utility.yul\":3433:3482   */\n      tag_291\n      jump\t// in\n    tag_386:\n        /* \"#utility.yul\":3417:3483   */\n      tag_290\n      jump\t// in\n    tag_385:\n        /* \"#utility.yul\":3408:3483   */\n      swap1\n      pop\n        /* \"#utility.yul\":3506:3512   */\n      dup3\n        /* \"#utility.yul\":3499:3504   */\n      dup2\n        /* \"#utility.yul\":3492:3513   */\n      mstore\n        /* \"#utility.yul\":3544:3548   */\n      0x20\n        /* \"#utility.yul\":3537:3542   */\n      dup2\n        /* \"#utility.yul\":3533:3549   */\n      add\n        /* \"#utility.yul\":3582:3585   */\n      dup5\n        /* \"#utility.yul\":3573:3579   */\n      dup5\n        /* \"#utility.yul\":3568:3571   */\n      dup5\n        /* \"#utility.yul\":3564:3580   */\n      add\n        /* \"#utility.yul\":3561:3586   */\n      gt\n        /* \"#utility.yul\":3558:3670   */\n      iszero\n      tag_387\n      jumpi\n        /* \"#utility.yul\":3589:3668   */\n      tag_388\n      tag_286\n      jump\t// in\n    tag_388:\n        /* \"#utility.yul\":3558:3670   */\n    tag_387:\n        /* \"#utility.yul\":3679:3733   */\n      tag_389\n        /* \"#utility.yul\":3726:3732   */\n      dup5\n        /* \"#utility.yul\":3721:3724   */\n      dup3\n        /* \"#utility.yul\":3716:3719   */\n      dup6\n        /* \"#utility.yul\":3679:3733   */\n      tag_292\n      jump\t// in\n    tag_389:\n        /* \"#utility.yul\":3398:3739   */\n      pop\n        /* \"#utility.yul\":3314:3739   */\n      swap4\n      swap3\n      pop\n      pop\n      pop\n      jump\t// out\n        /* \"#utility.yul\":3759:4099   */\n    tag_294:\n        /* \"#utility.yul\":3815:3820   */\n      0x00\n        /* \"#utility.yul\":3864:3867   */\n      dup3\n        /* \"#utility.yul\":3857:3861   */\n      0x1f\n        /* \"#utility.yul\":3849:3855   */\n      dup4\n        /* \"#utility.yul\":3845:3862   */\n      add\n        /* \"#utility.yul\":3841:3868   */\n      slt\n        /* \"#utility.yul\":3831:3953   */\n      tag_391\n      jumpi\n        /* \"#utility.yul\":3872:3951   */\n      tag_392\n      tag_285\n      jump\t// in\n    tag_392:\n        /* \"#utility.yul\":3831:3953   */\n    tag_391:\n        /* \"#utility.yul\":3989:3995   */\n      dup2\n        /* \"#utility.yul\":3976:3996   */\n      calldataload\n        /* \"#utility.yul\":4014:4093   */\n      tag_393\n        /* \"#utility.yul\":4089:4092   */\n      dup5\n        /* \"#utility.yul\":4081:4087   */\n      dup3\n        /* \"#utility.yul\":4074:4078   */\n      0x20\n        /* \"#utility.yul\":4066:4072   */\n      dup7\n        /* \"#utility.yul\":4062:4079   */\n      add\n        /* \"#utility.yul\":4014:4093   */\n      tag_293\n      jump\t// in\n    tag_393:\n        /* \"#utility.yul\":4005:4093   */\n      swap2\n      pop\n        /* \"#utility.yul\":3821:4099   */\n      pop\n        /* \"#utility.yul\":3759:4099   */\n      swap3\n      swap2\n      pop\n      pop\n      jump\t// out\n        /* \"#utility.yul\":4105:5050   */\n    tag_52:\n        /* \"#utility.yul\":4201:4207   */\n      0x00\n        /* \"#utility.yul\":4209:4215   */\n      dup1\n        /* \"#utility.yul\":4217:4223   */\n      0x00\n        /* \"#utility.yul\":4225:4231   */\n      dup1\n        /* \"#utility.yul\":4274:4277   */\n      0x80\n        /* \"#utility.yul\":4262:4271   */\n      dup6\n        /* \"#utility.yul\":4253:4260   */\n      dup8\n        /* \"#utility.yul\":4249:4272   */\n      sub\n        /* \"#utility.yul\":4245:4278   */\n      slt\n        /* \"#utility.yul\":4242:4362   */\n      iszero\n      tag_395\n      jumpi\n        /* \"#utility.yul\":4281:4360   */\n      tag_396\n      tag_277\n      jump\t// in\n    tag_396:\n        /* \"#utility.yul\":4242:4362   */\n    tag_395:\n        /* \"#utility.yul\":4401:4402   */\n      0x00\n        /* \"#utility.yul\":4426:4479   */\n      tag_397\n        /* \"#utility.yul\":4471:4478   */\n      dup8\n        /* \"#utility.yul\":4462:4468   */\n      dup3\n        /* \"#utility.yul\":4451:4460   */\n      dup9\n        /* \"#utility.yul\":4447:4469   */\n      add\n        /* \"#utility.yul\":4426:4479   */\n      tag_282\n      jump\t// in\n    tag_397:\n        /* \"#utility.yul\":4416:4479   */\n      swap5\n      pop\n        /* \"#utility.yul\":4372:4489   */\n      pop\n        /* \"#utility.yul\":4528:4530   */\n      0x20\n        /* \"#utility.yul\":4554:4607   */\n      tag_398\n        /* \"#utility.yul\":4599:4606   */\n      dup8\n        /* \"#utility.yul\":4590:4596   */\n      dup3\n        /* \"#utility.yul\":4579:4588   */\n      dup9\n        /* \"#utility.yul\":4575:4597   */\n      add\n        /* \"#utility.yul\":4554:4607   */\n      tag_282\n      jump\t// in\n    tag_398:\n        /* \"#utility.yul\":4544:4607   */\n      swap4\n      pop\n        /* \"#utility.yul\":4499:4617   */\n      pop\n        /* \"#utility.yul\":4656:4658   */\n      0x40\n        /* \"#utility.yul\":4682:4735   */\n      tag_399\n        /* \"#utility.yul\":4727:4734   */\n      dup8\n        /* \"#utility.yul\":4718:4724   */\n      dup3\n        /* \"#utility.yul\":4707:4716   */\n      dup9\n        /* \"#utility.yul\":4703:4725   */\n      add\n        /* \"#utility.yul\":4682:4735   */\n      tag_284\n      jump\t// in\n    tag_399:\n        /* \"#utility.yul\":4672:4735   */\n      swap3\n      pop\n        /* \"#utility.yul\":4627:4745   */\n      pop\n        /* \"#utility.yul\":4812:4814   */\n      0x60\n        /* \"#utility.yul\":4801:4810   */\n      dup6\n        /* \"#utility.yul\":4797:4815   */\n      add\n        /* \"#utility.yul\":4784:4816   */\n      calldataload\n        /* \"#utility.yul\":4843:4861   */\n      0xffffffffffffffff\n        /* \"#utility.yul\":4835:4841   */\n      dup2\n        /* \"#utility.yul\":4832:4862   */\n      gt\n        /* \"#utility.yul\":4829:4946   */\n      iszero\n      tag_400\n      jumpi\n        /* \"#utility.yul\":4865:4944   */\n      tag_401\n      tag_278\n      jump\t// in\n    tag_401:\n        /* \"#utility.yul\":4829:4946   */\n    tag_400:\n        /* \"#utility.yul\":4970:5033   */\n      tag_402\n        /* \"#utility.yul\":5025:5032   */\n      dup8\n        /* \"#utility.yul\":5016:5022   */\n      dup3\n        /* \"#utility.yul\":5005:5014   */\n      dup9\n        /* \"#utility.yul\":5001:5023   */\n      add\n        /* \"#utility.yul\":4970:5033   */\n      tag_294\n      jump\t// in\n    tag_402:\n        /* \"#utility.yul\":4960:5033   */\n      swap2\n      pop\n        /* \"#utility.yul\":4755:5043   */\n      pop\n        /* \"#utility.yul\":4105:5050   */\n      swap3\n      swap6\n      swap2\n      swap5\n      pop\n      swap3\n      pop\n      jump\t// out\n        /* \"#utility.yul\":5056:5142   */\n    tag_295:\n        /* \"#utility.yul\":5091:5098   */\n      0x00\n        /* \"#utility.yul\":5131:5135   */\n      0xff\n        /* \"#utility.yul\":5124:5129   */\n      dup3\n        /* \"#utility.yul\":5120:5136   */\n      and\n        /* \"#utility.yul\":5109:5136   */\n      swap1\n      pop\n        /* \"#utility.yul\":5056:5142   */\n      swap2\n      swap1\n      pop\n      jump\t// out\n        /* \"#utility.yul\":5148:5266   */\n    tag_296:\n        /* \"#utility.yul\":5219:5241   */\n      tag_405\n        /* \"#utility.yul\":5235:5240   */\n      dup2\n        /* \"#utility.yul\":5219:5241   */\n      tag_295\n      jump\t// in\n    tag_405:\n        /* \"#utility.yul\":5212:5217   */\n      dup2\n        /* \"#utility.yul\":5209:5242   */\n      eq\n        /* \"#utility.yul\":5199:5260   */\n      tag_406\n      jumpi\n        /* \"#utility.yul\":5256:5257   */\n      0x00\n        /* \"#utility.yul\":5253:5254   */\n      dup1\n        /* \"#utility.yul\":5246:5258   */\n      revert\n        /* \"#utility.yul\":5199:5260   */\n    tag_406:\n        /* \"#utility.yul\":5148:5266   */\n      pop\n      jump\t// out\n        /* \"#utility.yul\":5272:5407   */\n    tag_297:\n        /* \"#utility.yul\":5316:5321   */\n      0x00\n        /* \"#utility.yul\":5354:5360   */\n      dup2\n        /* \"#utility.yul\":5341:5361   */\n      calldataload\n        /* \"#utility.yul\":5332:5361   */\n      swap1\n      pop\n        /* \"#utility.yul\":5370:5401   */\n      tag_408\n        /* \"#utility.yul\":5395:5400   */\n      dup2\n        /* \"#utility.yul\":5370:5401   */\n      tag_296\n      jump\t// in\n    tag_408:\n        /* \"#utility.yul\":5272:5407   */\n      swap3\n      swap2\n      pop\n      pop\n      jump\t// out\n        /* \"#utility.yul\":5413:5883   */\n    tag_62:\n        /* \"#utility.yul\":5479:5485   */\n      0x00\n        /* \"#utility.yul\":5487:5493   */\n      dup1\n        /* \"#utility.yul\":5536:5538   */\n      0x40\n        /* \"#utility.yul\":5524:5533   */\n      dup4\n        /* \"#utility.yul\":5515:5522   */\n      dup6\n        /* \"#utility.yul\":5511:5534   */\n      sub\n        /* \"#utility.yul\":5507:5539   */\n      slt\n        /* \"#utility.yul\":5504:5623   */\n      iszero\n      tag_410\n      jumpi\n        /* \"#utility.yul\":5542:5621   */\n      tag_411\n      tag_277\n      jump\t// in\n    tag_411:\n        /* \"#utility.yul\":5504:5623   */\n    tag_410:\n        /* \"#utility.yul\":5662:5663   */\n      0x00\n        /* \"#utility.yul\":5687:5740   */\n      tag_412\n        /* \"#utility.yul\":5732:5739   */\n      dup6\n        /* \"#utility.yul\":5723:5729   */\n      dup3\n        /* \"#utility.yul\":5712:5721   */\n      dup7\n        /* \"#utility.yul\":5708:5730   */\n      add\n        /* \"#utility.yul\":5687:5740   */\n      tag_282\n      jump\t// in\n    tag_412:\n        /* \"#utility.yul\":5677:5740   */\n      swap3\n      pop\n        /* \"#utility.yul\":5633:5750   */\n      pop\n        /* \"#utility.yul\":5789:5791   */\n      0x20\n        /* \"#utility.yul\":5815:5866   */\n      tag_413\n        /* \"#utility.yul\":5858:5865   */\n      dup6\n        /* \"#utility.yul\":5849:5855   */\n      dup3\n        /* \"#utility.yul\":5838:5847   */\n      dup7\n        /* \"#utility.yul\":5834:5856   */\n      add\n        /* \"#utility.yul\":5815:5866   */\n      tag_297\n      jump\t// in\n    tag_413:\n        /* \"#utility.yul\":5805:5866   */\n      swap2\n      pop\n        /* \"#utility.yul\":5760:5876   */\n      pop\n        /* \"#utility.yul\":5413:5883   */\n      swap3\n      pop\n      swap3\n      swap1\n      pop\n      jump\t// out\n        /* \"#utility.yul\":5889:6218   */\n    tag_67:\n        /* \"#utility.yul\":5948:5954   */\n      0x00\n        /* \"#utility.yul\":5997:5999   */\n      0x20\n        /* \"#utility.yul\":5985:5994   */\n      dup3\n        /* \"#utility.yul\":5976:5983   */\n      dup5\n        /* \"#utility.yul\":5972:5995   */\n      sub\n        /* \"#utility.yul\":5968:6000   */\n      slt\n        /* \"#utility.yul\":5965:6084   */\n      iszero\n      tag_415\n      jumpi\n        /* \"#utility.yul\":6003:6082   */\n      tag_416\n      tag_277\n      jump\t// in\n    tag_416:\n        /* \"#utility.yul\":5965:6084   */\n    tag_415:\n        /* \"#utility.yul\":6123:6124   */\n      0x00\n        /* \"#utility.yul\":6148:6201   */\n      tag_417\n        /* \"#utility.yul\":6193:6200   */\n      dup5\n        /* \"#utility.yul\":6184:6190   */\n      dup3\n        /* \"#utility.yul\":6173:6182   */\n      dup6\n        /* \"#utility.yul\":6169:6191   */\n      add\n        /* \"#utility.yul\":6148:6201   */\n      tag_284\n      jump\t// in\n    tag_417:\n        /* \"#utility.yul\":6138:6201   */\n      swap2\n      pop\n        /* \"#utility.yul\":6094:6211   */\n      pop\n        /* \"#utility.yul\":5889:6218   */\n      swap3\n      swap2\n      pop\n      pop\n      jump\t// out\n        /* \"#utility.yul\":6224:6698   */\n    tag_72:\n        /* \"#utility.yul\":6292:6298   */\n      0x00\n        /* \"#utility.yul\":6300:6306   */\n      dup1\n        /* \"#utility.yul\":6349:6351   */\n      0x40\n        /* \"#utility.yul\":6337:6346   */\n      dup4\n        /* \"#utility.yul\":6328:6335   */\n      dup6\n        /* \"#utility.yul\":6324:6347   */\n      sub\n        /* \"#utility.yul\":6320:6352   */\n      slt\n        /* \"#utility.yul\":6317:6436   */\n      iszero\n      tag_419\n      jumpi\n        /* \"#utility.yul\":6355:6434   */\n      tag_420\n      tag_277\n      jump\t// in\n    tag_420:\n        /* \"#utility.yul\":6317:6436   */\n    tag_419:\n        /* \"#utility.yul\":6475:6476   */\n      0x00\n        /* \"#utility.yul\":6500:6553   */\n      tag_421\n        /* \"#utility.yul\":6545:6552   */\n      dup6\n        /* \"#utility.yul\":6536:6542   */\n      dup3\n        /* \"#utility.yul\":6525:6534   */\n      dup7\n        /* \"#utility.yul\":6521:6543   */\n      add\n        /* \"#utility.yul\":6500:6553   */\n      tag_282\n      jump\t// in\n    tag_421:\n        /* \"#utility.yul\":6490:6553   */\n      swap3\n      pop\n        /* \"#utility.yul\":6446:6563   */\n      pop\n        /* \"#utility.yul\":6602:6604   */\n      0x20\n        /* \"#utility.yul\":6628:6681   */\n      tag_422\n        /* \"#utility.yul\":6673:6680   */\n      dup6\n        /* \"#utility.yul\":6664:6670   */\n      dup3\n        /* \"#utility.yul\":6653:6662   */\n      dup7\n        /* \"#utility.yul\":6649:6671   */\n      add\n        /* \"#utility.yul\":6628:6681   */\n      tag_284\n      jump\t// in\n    tag_422:\n        /* \"#utility.yul\":6618:6681   */\n      swap2\n      pop\n        /* \"#utility.yul\":6573:6691   */\n      pop\n        /* \"#utility.yul\":6224:6698   */\n      swap3\n      pop\n      swap3\n      swap1\n      pop\n      jump\t// out\n        /* \"#utility.yul\":6704:6822   */\n    tag_298:\n        /* \"#utility.yul\":6791:6815   */\n      tag_424\n        /* \"#utility.yul\":6809:6814   */\n      dup2\n        /* \"#utility.yul\":6791:6815   */\n      tag_280\n      jump\t// in\n    tag_424:\n        /* \"#utility.yul\":6786:6789   */\n      dup3\n        /* \"#utility.yul\":6779:6816   */\n      mstore\n        /* \"#utility.yul\":6704:6822   */\n      pop\n      pop\n      jump\t// out\n        /* \"#utility.yul\":6828:6918   */\n    tag_299:\n        /* \"#utility.yul\":6862:6869   */\n      0x00\n        /* \"#utility.yul\":6905:6910   */\n      dup2\n        /* \"#utility.yul\":6898:6911   */\n      iszero\n        /* \"#utility.yul\":6891:6912   */\n      iszero\n        /* \"#utility.yul\":6880:6912   */\n      swap1\n      pop\n        /* \"#utility.yul\":6828:6918   */\n      swap2\n      swap1\n      pop\n      jump\t// out\n        /* \"#utility.yul\":6924:7033   */\n    tag_300:\n        /* \"#utility.yul\":7005:7026   */\n      tag_427\n        /* \"#utility.yul\":7020:7025   */\n      dup2\n        /* \"#utility.yul\":7005:7026   */\n      tag_299\n      jump\t// in\n    tag_427:\n        /* \"#utility.yul\":7000:7003   */\n      dup3\n        /* \"#utility.yul\":6993:7027   */\n      mstore\n        /* \"#utility.yul\":6924:7033   */\n      pop\n      pop\n      jump\t// out\n        /* \"#utility.yul\":7039:7889   */\n    tag_82:\n        /* \"#utility.yul\":7282:7286   */\n      0x00\n        /* \"#utility.yul\":7320:7323   */\n      0xe0\n        /* \"#utility.yul\":7309:7318   */\n      dup3\n        /* \"#utility.yul\":7305:7324   */\n      add\n        /* \"#utility.yul\":7297:7324   */\n      swap1\n      pop\n        /* \"#utility.yul\":7334:7405   */\n      tag_429\n        /* \"#utility.yul\":7402:7403   */\n      0x00\n        /* \"#utility.yul\":7391:7400   */\n      dup4\n        /* \"#utility.yul\":7387:7404   */\n      add\n        /* \"#utility.yul\":7378:7384   */\n      dup11\n        /* \"#utility.yul\":7334:7405   */\n      tag_298\n      jump\t// in\n    tag_429:\n        /* \"#utility.yul\":7415:7487   */\n      tag_430\n        /* \"#utility.yul\":7483:7485   */\n      0x20\n        /* \"#utility.yul\":7472:7481   */\n      dup4\n        /* \"#utility.yul\":7468:7486   */\n      add\n        /* \"#utility.yul\":7459:7465   */\n      dup10\n        /* \"#utility.yul\":7415:7487   */\n      tag_298\n      jump\t// in\n    tag_430:\n        /* \"#utility.yul\":7497:7569   */\n      tag_431\n        /* \"#utility.yul\":7565:7567   */\n      0x40\n        /* \"#utility.yul\":7554:7563   */\n      dup4\n        /* \"#utility.yul\":7550:7568   */\n      add\n        /* \"#utility.yul\":7541:7547   */\n      dup9\n        /* \"#utility.yul\":7497:7569   */\n      tag_275\n      jump\t// in\n    tag_431:\n        /* \"#utility.yul\":7579:7645   */\n      tag_432\n        /* \"#utility.yul\":7641:7643   */\n      0x60\n        /* \"#utility.yul\":7630:7639   */\n      dup4\n        /* \"#utility.yul\":7626:7644   */\n      add\n        /* \"#utility.yul\":7617:7623   */\n      dup8\n        /* \"#utility.yul\":7579:7645   */\n      tag_300\n      jump\t// in\n    tag_432:\n        /* \"#utility.yul\":7655:7722   */\n      tag_433\n        /* \"#utility.yul\":7717:7720   */\n      0x80\n        /* \"#utility.yul\":7706:7715   */\n      dup4\n        /* \"#utility.yul\":7702:7721   */\n      add\n        /* \"#utility.yul\":7693:7699   */\n      dup7\n        /* \"#utility.yul\":7655:7722   */\n      tag_300\n      jump\t// in\n    tag_433:\n        /* \"#utility.yul\":7732:7805   */\n      tag_434\n        /* \"#utility.yul\":7800:7803   */\n      0xa0\n        /* \"#utility.yul\":7789:7798   */\n      dup4\n        /* \"#utility.yul\":7785:7804   */\n      add\n        /* \"#utility.yul\":7776:7782   */\n      dup6\n        /* \"#utility.yul\":7732:7805   */\n      tag_275\n      jump\t// in\n    tag_434:\n        /* \"#utility.yul\":7815:7882   */\n      tag_435\n        /* \"#utility.yul\":7877:7880   */\n      0xc0\n        /* \"#utility.yul\":7866:7875   */\n      dup4\n        /* \"#utility.yul\":7862:7881   */\n      add\n        /* \"#utility.yul\":7853:7859   */\n      dup5\n        /* \"#utility.yul\":7815:7882   */\n      tag_300\n      jump\t// in\n    tag_435:\n        /* \"#utility.yul\":7039:7889   */\n      swap9\n      swap8\n      pop\n      pop\n      pop\n      pop\n      pop\n      pop\n      pop\n      pop\n      jump\t// out\n        /* \"#utility.yul\":7895:8117   */\n    tag_92:\n        /* \"#utility.yul\":7988:7992   */\n      0x00\n        /* \"#utility.yul\":8026:8028   */\n      0x20\n        /* \"#utility.yul\":8015:8024   */\n      dup3\n        /* \"#utility.yul\":8011:8029   */\n      add\n        /* \"#utility.yul\":8003:8029   */\n      swap1\n      pop\n        /* \"#utility.yul\":8039:8110   */\n      tag_437\n        /* \"#utility.yul\":8107:8108   */\n      0x00\n        /* \"#utility.yul\":8096:8105   */\n      dup4\n        /* \"#utility.yul\":8092:8109   */\n      add\n        /* \"#utility.yul\":8083:8089   */\n      dup5\n        /* \"#utility.yul\":8039:8110   */\n      tag_298\n      jump\t// in\n    tag_437:\n        /* \"#utility.yul\":7895:8117   */\n      swap3\n      swap2\n      pop\n      pop\n      jump\t// out\n        /* \"#utility.yul\":8123:8292   */\n    tag_301:\n        /* \"#utility.yul\":8207:8218   */\n      0x00\n        /* \"#utility.yul\":8241:8247   */\n      dup3\n        /* \"#utility.yul\":8236:8239   */\n      dup3\n        /* \"#utility.yul\":8229:8248   */\n      mstore\n        /* \"#utility.yul\":8281:8285   */\n      0x20\n        /* \"#utility.yul\":8276:8279   */\n      dup3\n        /* \"#utility.yul\":8272:8286   */\n      add\n        /* \"#utility.yul\":8257:8286   */\n      swap1\n      pop\n        /* \"#utility.yul\":8123:8292   */\n      swap3\n      swap2\n      pop\n      pop\n      jump\t// out\n        /* \"#utility.yul\":8298:8466   */\n    tag_302:\n        /* \"#utility.yul\":8438:8458   */\n      0x4e6f2066756e647320617661696c61626c650000000000000000000000000000\n        /* \"#utility.yul\":8434:8435   */\n      0x00\n        /* \"#utility.yul\":8426:8432   */\n      dup3\n        /* \"#utility.yul\":8422:8436   */\n      add\n        /* \"#utility.yul\":8415:8459   */\n      mstore\n        /* \"#utility.yul\":8298:8466   */\n      pop\n      jump\t// out\n        /* \"#utility.yul\":8472:8838   */\n    tag_303:\n        /* \"#utility.yul\":8614:8617   */\n      0x00\n        /* \"#utility.yul\":8635:8702   */\n      tag_441\n        /* \"#utility.yul\":8699:8701   */\n      0x12\n        /* \"#utility.yul\":8694:8697   */\n      dup4\n        /* \"#utility.yul\":8635:8702   */\n      tag_301\n      jump\t// in\n    tag_441:\n        /* \"#utility.yul\":8628:8702   */\n      swap2\n      pop\n        /* \"#utility.yul\":8711:8804   */\n      tag_442\n        /* \"#utility.yul\":8800:8803   */\n      dup3\n        /* \"#utility.yul\":8711:8804   */\n      tag_302\n      jump\t// in\n    tag_442:\n        /* \"#utility.yul\":8829:8831   */\n      0x20\n        /* \"#utility.yul\":8824:8827   */\n      dup3\n        /* \"#utility.yul\":8820:8832   */\n      add\n        /* \"#utility.yul\":8813:8832   */\n      swap1\n      pop\n        /* \"#utility.yul\":8472:8838   */\n      swap2\n      swap1\n      pop\n      jump\t// out\n        /* \"#utility.yul\":8844:9263   */\n    tag_135:\n        /* \"#utility.yul\":9010:9014   */\n      0x00\n        /* \"#utility.yul\":9048:9050   */\n      0x20\n        /* \"#utility.yul\":9037:9046   */\n      dup3\n        /* \"#utility.yul\":9033:9051   */\n      add\n        /* \"#utility.yul\":9025:9051   */\n      swap1\n      pop\n        /* \"#utility.yul\":9097:9106   */\n      dup2\n        /* \"#utility.yul\":9091:9095   */\n      dup2\n        /* \"#utility.yul\":9087:9107   */\n      sub\n        /* \"#utility.yul\":9083:9084   */\n      0x00\n        /* \"#utility.yul\":9072:9081   */\n      dup4\n        /* \"#utility.yul\":9068:9085   */\n      add\n        /* \"#utility.yul\":9061:9108   */\n      mstore\n        /* \"#utility.yul\":9125:9256   */\n      tag_444\n        /* \"#utility.yul\":9251:9255   */\n      dup2\n        /* \"#utility.yul\":9125:9256   */\n      tag_303\n      jump\t// in\n    tag_444:\n        /* \"#utility.yul\":9117:9256   */\n      swap1\n      pop\n        /* \"#utility.yul\":8844:9263   */\n      swap2\n      swap1\n      pop\n      jump\t// out\n        /* \"#utility.yul\":9269:9449   */\n    tag_304:\n        /* \"#utility.yul\":9409:9441   */\n      0x5061796d656e74206d7573742062652067726561746572207468616e20300000\n        /* \"#utility.yul\":9405:9406   */\n      0x00\n        /* \"#utility.yul\":9397:9403   */\n      dup3\n        /* \"#utility.yul\":9393:9407   */\n      add\n        /* \"#utility.yul\":9386:9442   */\n      mstore\n        /* \"#utility.yul\":9269:9449   */\n      pop\n      jump\t// out\n        /* \"#utility.yul\":9455:9821   */\n    tag_305:\n        /* \"#utility.yul\":9597:9600   */\n      0x00\n        /* \"#utility.yul\":9618:9685   */\n      tag_447\n        /* \"#utility.yul\":9682:9684   */\n      0x1e\n        /* \"#utility.yul\":9677:9680   */\n      dup4\n        /* \"#utility.yul\":9618:9685   */\n      tag_301\n      jump\t// in\n    tag_447:\n        /* \"#utility.yul\":9611:9685   */\n      swap2\n      pop\n        /* \"#utility.yul\":9694:9787   */\n      tag_448\n        /* \"#utility.yul\":9783:9786   */\n      dup3\n        /* \"#utility.yul\":9694:9787   */\n      tag_304\n      jump\t// in\n    tag_448:\n        /* \"#utility.yul\":9812:9814   */\n      0x20\n        /* \"#utility.yul\":9807:9810   */\n      dup3\n        /* \"#utility.yul\":9803:9815   */\n      add\n        /* \"#utility.yul\":9796:9815   */\n      swap1\n      pop\n        /* \"#utility.yul\":9455:9821   */\n      swap2\n      swap1\n      pop\n      jump\t// out\n        /* \"#utility.yul\":9827:10246   */\n    tag_142:\n        /* \"#utility.yul\":9993:9997   */\n      0x00\n        /* \"#utility.yul\":10031:10033   */\n      0x20\n        /* \"#utility.yul\":10020:10029   */\n      dup3\n        /* \"#utility.yul\":10016:10034   */\n      add\n        /* \"#utility.yul\":10008:10034   */\n      swap1\n      pop\n        /* \"#utility.yul\":10080:10089   */\n      dup2\n        /* \"#utility.yul\":10074:10078   */\n      dup2\n        /* \"#utility.yul\":10070:10090   */\n      sub\n        /* \"#utility.yul\":10066:10067   */\n      0x00\n        /* \"#utility.yul\":10055:10064   */\n      dup4\n        /* \"#utility.yul\":10051:10068   */\n      add\n        /* \"#utility.yul\":10044:10091   */\n      mstore\n        /* \"#utility.yul\":10108:10239   */\n      tag_450\n        /* \"#utility.yul\":10234:10238   */\n      dup2\n        /* \"#utility.yul\":10108:10239   */\n      tag_305\n      jump\t// in\n    tag_450:\n        /* \"#utility.yul\":10100:10239   */\n      swap1\n      pop\n        /* \"#utility.yul\":9827:10246   */\n      swap2\n      swap1\n      pop\n      jump\t// out\n        /* \"#utility.yul\":10252:10432   */\n    tag_306:\n        /* \"#utility.yul\":10300:10377   */\n      0x4e487b7100000000000000000000000000000000000000000000000000000000\n        /* \"#utility.yul\":10297:10298   */\n      0x00\n        /* \"#utility.yul\":10290:10378   */\n      mstore\n        /* \"#utility.yul\":10397:10401   */\n      0x11\n        /* \"#utility.yul\":10394:10395   */\n      0x04\n        /* \"#utility.yul\":10387:10402   */\n      mstore\n        /* \"#utility.yul\":10421:10425   */\n      0x24\n        /* \"#utility.yul\":10418:10419   */\n      0x00\n        /* \"#utility.yul\":10411:10426   */\n      revert\n        /* \"#utility.yul\":10438:10848   */\n    tag_144:\n        /* \"#utility.yul\":10478:10485   */\n      0x00\n        /* \"#utility.yul\":10501:10521   */\n      tag_453\n        /* \"#utility.yul\":10519:10520   */\n      dup3\n        /* \"#utility.yul\":10501:10521   */\n      tag_274\n      jump\t// in\n    tag_453:\n        /* \"#utility.yul\":10496:10521   */\n      swap2\n      pop\n        /* \"#utility.yul\":10535:10555   */\n      tag_454\n        /* \"#utility.yul\":10553:10554   */\n      dup4\n        /* \"#utility.yul\":10535:10555   */\n      tag_274\n      jump\t// in\n    tag_454:\n        /* \"#utility.yul\":10530:10555   */\n      swap3\n      pop\n        /* \"#utility.yul\":10590:10591   */\n      dup3\n        /* \"#utility.yul\":10587:10588   */\n      dup3\n        /* \"#utility.yul\":10583:10592   */\n      mul\n        /* \"#utility.yul\":10612:10642   */\n      tag_455\n        /* \"#utility.yul\":10630:10641   */\n      dup2\n        /* \"#utility.yul\":10612:10642   */\n      tag_274\n      jump\t// in\n    tag_455:\n        /* \"#utility.yul\":10601:10642   */\n      swap2\n      pop\n        /* \"#utility.yul\":10791:10792   */\n      dup3\n        /* \"#utility.yul\":10782:10789   */\n      dup3\n        /* \"#utility.yul\":10778:10793   */\n      div\n        /* \"#utility.yul\":10775:10776   */\n      dup5\n        /* \"#utility.yul\":10772:10794   */\n      eq\n        /* \"#utility.yul\":10752:10753   */\n      dup4\n        /* \"#utility.yul\":10745:10754   */\n      iszero\n        /* \"#utility.yul\":10725:10808   */\n      or\n        /* \"#utility.yul\":10702:10841   */\n      tag_456\n      jumpi\n        /* \"#utility.yul\":10821:10839   */\n      tag_457\n      tag_306\n      jump\t// in\n    tag_457:\n        /* \"#utility.yul\":10702:10841   */\n    tag_456:\n        /* \"#utility.yul\":10486:10848   */\n      pop\n        /* \"#utility.yul\":10438:10848   */\n      swap3\n      swap2\n      pop\n      pop\n      jump\t// out\n        /* \"#utility.yul\":10854:11034   */\n    tag_307:\n        /* \"#utility.yul\":10902:10979   */\n      0x4e487b7100000000000000000000000000000000000000000000000000000000\n        /* \"#utility.yul\":10899:10900   */\n      0x00\n        /* \"#utility.yul\":10892:10980   */\n      mstore\n        /* \"#utility.yul\":10999:11003   */\n      0x12\n        /* \"#utility.yul\":10996:10997   */\n      0x04\n        /* \"#utility.yul\":10989:11004   */\n      mstore\n        /* \"#utility.yul\":11023:11027   */\n      0x24\n        /* \"#utility.yul\":11020:11021   */\n      0x00\n        /* \"#utility.yul\":11013:11028   */\n      revert\n        /* \"#utility.yul\":11040:11225   */\n    tag_146:\n        /* \"#utility.yul\":11080:11081   */\n      0x00\n        /* \"#utility.yul\":11097:11117   */\n      tag_460\n        /* \"#utility.yul\":11115:11116   */\n      dup3\n        /* \"#utility.yul\":11097:11117   */\n      tag_274\n      jump\t// in\n    tag_460:\n        /* \"#utility.yul\":11092:11117   */\n      swap2\n      pop\n        /* \"#utility.yul\":11131:11151   */\n      tag_461\n        /* \"#utility.yul\":11149:11150   */\n      dup4\n        /* \"#utility.yul\":11131:11151   */\n      tag_274\n      jump\t// in\n    tag_461:\n        /* \"#utility.yul\":11126:11151   */\n      swap3\n      pop\n        /* \"#utility.yul\":11170:11171   */\n      dup3\n        /* \"#utility.yul\":11160:11195   */\n      tag_462\n      jumpi\n        /* \"#utility.yul\":11175:11193   */\n      tag_463\n      tag_307\n      jump\t// in\n    tag_463:\n        /* \"#utility.yul\":11160:11195   */\n    tag_462:\n        /* \"#utility.yul\":11217:11218   */\n      dup3\n        /* \"#utility.yul\":11214:11215   */\n      dup3\n        /* \"#utility.yul\":11210:11219   */\n      div\n        /* \"#utility.yul\":11205:11219   */\n      swap1\n      pop\n        /* \"#utility.yul\":11040:11225   */\n      swap3\n      swap2\n      pop\n      pop\n      jump\t// out\n        /* \"#utility.yul\":11231:11425   */\n    tag_148:\n        /* \"#utility.yul\":11271:11275   */\n      0x00\n        /* \"#utility.yul\":11291:11311   */\n      tag_465\n        /* \"#utility.yul\":11309:11310   */\n      dup3\n        /* \"#utility.yul\":11291:11311   */\n      tag_274\n      jump\t// in\n    tag_465:\n        /* \"#utility.yul\":11286:11311   */\n      swap2\n      pop\n        /* \"#utility.yul\":11325:11345   */\n      tag_466\n        /* \"#utility.yul\":11343:11344   */\n      dup4\n        /* \"#utility.yul\":11325:11345   */\n      tag_274\n      jump\t// in\n    tag_466:\n        /* \"#utility.yul\":11320:11345   */\n      swap3\n      pop\n        /* \"#utility.yul\":11369:11370   */\n      dup3\n        /* \"#utility.yul\":11366:11367   */\n      dup3\n        /* \"#utility.yul\":11362:11371   */\n      sub\n        /* \"#utility.yul\":11354:11371   */\n      swap1\n      pop\n        /* \"#utility.yul\":11393:11394   */\n      dup2\n        /* \"#utility.yul\":11387:11391   */\n      dup2\n        /* \"#utility.yul\":11384:11395   */\n      gt\n        /* \"#utility.yul\":11381:11418   */\n      iszero\n      tag_467\n      jumpi\n        /* \"#utility.yul\":11398:11416   */\n      tag_468\n      tag_306\n      jump\t// in\n    tag_468:\n        /* \"#utility.yul\":11381:11418   */\n    tag_467:\n        /* \"#utility.yul\":11231:11425   */\n      swap3\n      swap2\n      pop\n      pop\n      jump\t// out\n        /* \"#utility.yul\":11431:11664   */\n    tag_150:\n        /* \"#utility.yul\":11470:11473   */\n      0x00\n        /* \"#utility.yul\":11493:11517   */\n      tag_470\n        /* \"#utility.yul\":11511:11516   */\n      dup3\n        /* \"#utility.yul\":11493:11517   */\n      tag_274\n      jump\t// in\n    tag_470:\n        /* \"#utility.yul\":11484:11517   */\n      swap2\n      pop\n        /* \"#utility.yul\":11539:11605   */\n      0xffffffffffffffffffffffffffffffffffffffffffffffffffffffffffffffff\n        /* \"#utility.yul\":11532:11537   */\n      dup3\n        /* \"#utility.yul\":11529:11606   */\n      sub\n        /* \"#utility.yul\":11526:11629   */\n      tag_471\n      jumpi\n        /* \"#utility.yul\":11609:11627   */\n      tag_472\n      tag_306\n      jump\t// in\n    tag_472:\n        /* \"#utility.yul\":11526:11629   */\n    tag_471:\n        /* \"#utility.yul\":11656:11657   */\n      0x01\n        /* \"#utility.yul\":11649:11654   */\n      dup3\n        /* \"#utility.yul\":11645:11658   */\n      add\n        /* \"#utility.yul\":11638:11658   */\n      swap1\n      pop\n        /* \"#utility.yul\":11431:11664   */\n      swap2\n      swap1\n      pop\n      jump\t// out\n        /* \"#utility.yul\":11670:11861   */\n    tag_152:\n        /* \"#utility.yul\":11710:11713   */\n      0x00\n        /* \"#utility.yul\":11729:11749   */\n      tag_474\n        /* \"#utility.yul\":11747:11748   */\n      dup3\n        /* \"#utility.yul\":11729:11749   */\n      tag_274\n      jump\t// in\n    tag_474:\n        /* \"#utility.yul\":11724:11749   */\n      swap2\n      pop\n        /* \"#utility.yul\":11763:11783   */\n      tag_475\n        /* \"#utility.yul\":11781:11782   */\n      dup4\n        /* \"#utility.yul\":11763:11783   */\n      tag_274\n      jump\t// in\n    tag_475:\n        /* \"#utility.yul\":11758:11783   */\n      swap3\n      pop\n        /* \"#utility.yul\":11806:11807   */\n      dup3\n        /* \"#utility.yul\":11803:11804   */\n      dup3\n        /* \"#utility.yul\":11799:11808   */\n      add\n        /* \"#utility.yul\":11792:11808   */\n      swap1\n      pop\n        /* \"#utility.yul\":11827:11830   */\n      dup1\n        /* \"#utility.yul\":11824:11825   */\n      dup3\n        /* \"#utility.yul\":11821:11831   */\n      gt\n        /* \"#utility.yul\":11818:11854   */\n      iszero\n      tag_476\n      jumpi\n        /* \"#utility.yul\":11834:11852   */\n      tag_477\n      tag_306\n      jump\t// in\n    tag_477:\n        /* \"#utility.yul\":11818:11854   */\n    tag_476:\n        /* \"#utility.yul\":11670:11861   */\n      swap3\n      swap2\n      pop\n      pop\n      jump\t// out\n        /* \"#utility.yul\":11867:12020   */\n    tag_308:\n        /* \"#utility.yul\":12007:12012   */\n      0x4554480000000000000000000000000000000000000000000000000000000000\n        /* \"#utility.yul\":12003:12004   */\n      0x00\n        /* \"#utility.yul\":11995:12001   */\n      dup3\n        /* \"#utility.yul\":11991:12005   */\n      add\n        /* \"#utility.yul\":11984:12013   */\n      mstore\n        /* \"#utility.yul\":11867:12020   */\n      pop\n      jump\t// out\n        /* \"#utility.yul\":12026:12391   */\n    tag_309:\n        /* \"#utility.yul\":12168:12171   */\n      0x00\n        /* \"#utility.yul\":12189:12255   */\n      tag_480\n        /* \"#utility.yul\":12253:12254   */\n      0x03\n        /* \"#utility.yul\":12248:12251   */\n      dup4\n        /* \"#utility.yul\":12189:12255   */\n      tag_301\n      jump\t// in\n    tag_480:\n        /* \"#utility.yul\":12182:12255   */\n      swap2\n      pop\n        /* \"#utility.yul\":12264:12357   */\n      tag_481\n        /* \"#utility.yul\":12353:12356   */\n      dup3\n        /* \"#utility.yul\":12264:12357   */\n      tag_308\n      jump\t// in\n    tag_481:\n        /* \"#utility.yul\":12382:12384   */\n      0x20\n        /* \"#utility.yul\":12377:12380   */\n      dup3\n        /* \"#utility.yul\":12373:12385   */\n      add\n        /* \"#utility.yul\":12366:12385   */\n      swap1\n      pop\n        /* \"#utility.yul\":12026:12391   */\n      swap2\n      swap1\n      pop\n      jump\t// out\n        /* \"#utility.yul\":12397:13036   */\n    tag_156:\n        /* \"#utility.yul\":12619:12623   */\n      0x00\n        /* \"#utility.yul\":12657:12659   */\n      0x60\n        /* \"#utility.yul\":12646:12655   */\n      dup3\n        /* \"#utility.yul\":12642:12660   */\n      add\n        /* \"#utility.yul\":12634:12660   */\n      swap1\n      pop\n        /* \"#utility.yul\":12670:12741   */\n      tag_483\n        /* \"#utility.yul\":12738:12739   */\n      0x00\n        /* \"#utility.yul\":12727:12736   */\n      dup4\n        /* \"#utility.yul\":12723:12740   */\n      add\n        /* \"#utility.yul\":12714:12720   */\n      dup6\n        /* \"#utility.yul\":12670:12741   */\n      tag_275\n      jump\t// in\n    tag_483:\n        /* \"#utility.yul\":12751:12823   */\n      tag_484\n        /* \"#utility.yul\":12819:12821   */\n      0x20\n        /* \"#utility.yul\":12808:12817   */\n      dup4\n        /* \"#utility.yul\":12804:12822   */\n      add\n        /* \"#utility.yul\":12795:12801   */\n      dup5\n        /* \"#utility.yul\":12751:12823   */\n      tag_275\n      jump\t// in\n    tag_484:\n        /* \"#utility.yul\":12870:12879   */\n      dup2\n        /* \"#utility.yul\":12864:12868   */\n      dup2\n        /* \"#utility.yul\":12860:12880   */\n      sub\n        /* \"#utility.yul\":12855:12857   */\n      0x40\n        /* \"#utility.yul\":12844:12853   */\n      dup4\n        /* \"#utility.yul\":12840:12858   */\n      add\n        /* \"#utility.yul\":12833:12881   */\n      mstore\n        /* \"#utility.yul\":12898:13029   */\n      tag_485\n        /* \"#utility.yul\":13024:13028   */\n      dup2\n        /* \"#utility.yul\":12898:13029   */\n      tag_309\n      jump\t// in\n    tag_485:\n        /* \"#utility.yul\":12890:13029   */\n      swap1\n      pop\n        /* \"#utility.yul\":12397:13036   */\n      swap4\n      swap3\n      pop\n      pop\n      pop\n      jump\t// out\n        /* \"#utility.yul\":13042:13221   */\n    tag_310:\n        /* \"#utility.yul\":13182:13213   */\n      0x416d6f756e74206d7573742062652067726561746572207468616e2030000000\n        /* \"#utility.yul\":13178:13179   */\n      0x00\n        /* \"#utility.yul\":13170:13176   */\n      dup3\n        /* \"#utility.yul\":13166:13180   */\n      add\n        /* \"#utility.yul\":13159:13214   */\n      mstore\n        /* \"#utility.yul\":13042:13221   */\n      pop\n      jump\t// out\n        /* \"#utility.yul\":13227:13593   */\n    tag_311:\n        /* \"#utility.yul\":13369:13372   */\n      0x00\n        /* \"#utility.yul\":13390:13457   */\n      tag_488\n        /* \"#utility.yul\":13454:13456   */\n      0x1d\n        /* \"#utility.yul\":13449:13452   */\n      dup4\n        /* \"#utility.yul\":13390:13457   */\n      tag_301\n      jump\t// in\n    tag_488:\n        /* \"#utility.yul\":13383:13457   */\n      swap2\n      pop\n        /* \"#utility.yul\":13466:13559   */\n      tag_489\n        /* \"#utility.yul\":13555:13558   */\n      dup3\n        /* \"#utility.yul\":13466:13559   */\n      tag_310\n      jump\t// in\n    tag_489:\n        /* \"#utility.yul\":13584:13586   */\n      0x20\n        /* \"#utility.yul\":13579:13582   */\n      dup3\n        /* \"#utility.yul\":13575:13587   */\n      add\n        /* \"#utility.yul\":13568:13587   */\n      swap1\n      pop\n        /* \"#utility.yul\":13227:13593   */\n      swap2\n      swap1\n      pop\n      jump\t// out\n        /* \"#utility.yul\":13599:14018   */\n    tag_163:\n        /* \"#utility.yul\":13765:13769   */\n      0x00\n        /* \"#utility.yul\":13803:13805   */\n      0x20\n        /* \"#utility.yul\":13792:13801   */\n      dup3\n        /* \"#utility.yul\":13788:13806   */\n      add\n        /* \"#utility.yul\":13780:13806   */\n      swap1\n      pop\n        /* \"#utility.yul\":13852:13861   */\n      dup2\n        /* \"#utility.yul\":13846:13850   */\n      dup2\n        /* \"#utility.yul\":13842:13862   */\n      sub\n        /* \"#utility.yul\":13838:13839   */\n      0x00\n        /* \"#utility.yul\":13827:13836   */\n      dup4\n        /* \"#utility.yul\":13823:13840   */\n      add\n        /* \"#utility.yul\":13816:13863   */\n      mstore\n        /* \"#utility.yul\":13880:14011   */\n      tag_491\n        /* \"#utility.yul\":14006:14010   */\n      dup2\n        /* \"#utility.yul\":13880:14011   */\n      tag_311\n      jump\t// in\n    tag_491:\n        /* \"#utility.yul\":13872:14011   */\n      swap1\n      pop\n        /* \"#utility.yul\":13599:14018   */\n      swap2\n      swap1\n      pop\n      jump\t// out\n        /* \"#utility.yul\":14024:14123   */\n    tag_312:\n        /* \"#utility.yul\":14076:14082   */\n      0x00\n        /* \"#utility.yul\":14110:14115   */\n      dup2\n        /* \"#utility.yul\":14104:14116   */\n      mload\n        /* \"#utility.yul\":14094:14116   */\n      swap1\n      pop\n        /* \"#utility.yul\":14024:14123   */\n      swap2\n      swap1\n      pop\n      jump\t// out\n        /* \"#utility.yul\":14129:14268   */\n    tag_313:\n        /* \"#utility.yul\":14218:14224   */\n      dup3\n        /* \"#utility.yul\":14213:14216   */\n      dup2\n        /* \"#utility.yul\":14208:14211   */\n      dup4\n        /* \"#utility.yul\":14202:14225   */\n      mcopy\n        /* \"#utility.yul\":14259:14260   */\n      0x00\n        /* \"#utility.yul\":14250:14256   */\n      dup4\n        /* \"#utility.yul\":14245:14248   */\n      dup4\n        /* \"#utility.yul\":14241:14257   */\n      add\n        /* \"#utility.yul\":14234:14261   */\n      mstore\n        /* \"#utility.yul\":14129:14268   */\n      pop\n      pop\n      pop\n      jump\t// out\n        /* \"#utility.yul\":14274:14651   */\n    tag_314:\n        /* \"#utility.yul\":14362:14365   */\n      0x00\n        /* \"#utility.yul\":14390:14429   */\n      tag_495\n        /* \"#utility.yul\":14423:14428   */\n      dup3\n        /* \"#utility.yul\":14390:14429   */\n      tag_312\n      jump\t// in\n    tag_495:\n        /* \"#utility.yul\":14445:14516   */\n      tag_496\n        /* \"#utility.yul\":14509:14515   */\n      dup2\n        /* \"#utility.yul\":14504:14507   */\n      dup6\n        /* \"#utility.yul\":14445:14516   */\n      tag_301\n      jump\t// in\n    tag_496:\n        /* \"#utility.yul\":14438:14516   */\n      swap4\n      pop\n        /* \"#utility.yul\":14525:14590   */\n      tag_497\n        /* \"#utility.yul\":14583:14589   */\n      dup2\n        /* \"#utility.yul\":14578:14581   */\n      dup6\n        /* \"#utility.yul\":14571:14575   */\n      0x20\n        /* \"#utility.yul\":14564:14569   */\n      dup7\n        /* \"#utility.yul\":14560:14576   */\n      add\n        /* \"#utility.yul\":14525:14590   */\n      tag_313\n      jump\t// in\n    tag_497:\n        /* \"#utility.yul\":14615:14644   */\n      tag_498\n        /* \"#utility.yul\":14637:14643   */\n      dup2\n        /* \"#utility.yul\":14615:14644   */\n      tag_287\n      jump\t// in\n    tag_498:\n        /* \"#utility.yul\":14610:14613   */\n      dup5\n        /* \"#utility.yul\":14606:14645   */\n      add\n        /* \"#utility.yul\":14599:14645   */\n      swap2\n      pop\n        /* \"#utility.yul\":14366:14651   */\n      pop\n        /* \"#utility.yul\":14274:14651   */\n      swap3\n      swap2\n      pop\n      pop\n      jump\t// out\n        /* \"#utility.yul\":14657:15190   */\n    tag_172:\n        /* \"#utility.yul\":14826:14830   */\n      0x00\n        /* \"#utility.yul\":14864:14866   */\n      0x60\n        /* \"#utility.yul\":14853:14862   */\n      dup3\n        /* \"#utility.yul\":14849:14867   */\n      add\n        /* \"#utility.yul\":14841:14867   */\n      swap1\n      pop\n        /* \"#utility.yul\":14877:14948   */\n      tag_500\n        /* \"#utility.yul\":14945:14946   */\n      0x00\n        /* \"#utility.yul\":14934:14943   */\n      dup4\n        /* \"#utility.yul\":14930:14947   */\n      add\n        /* \"#utility.yul\":14921:14927   */\n      dup7\n        /* \"#utility.yul\":14877:14948   */\n      tag_275\n      jump\t// in\n    tag_500:\n        /* \"#utility.yul\":14958:15030   */\n      tag_501\n        /* \"#utility.yul\":15026:15028   */\n      0x20\n        /* \"#utility.yul\":15015:15024   */\n      dup4\n        /* \"#utility.yul\":15011:15029   */\n      add\n        /* \"#utility.yul\":15002:15008   */\n      dup6\n        /* \"#utility.yul\":14958:15030   */\n      tag_275\n      jump\t// in\n    tag_501:\n        /* \"#utility.yul\":15077:15086   */\n      dup2\n        /* \"#utility.yul\":15071:15075   */\n      dup2\n        /* \"#utility.yul\":15067:15087   */\n      sub\n        /* \"#utility.yul\":15062:15064   */\n      0x40\n        /* \"#utility.yul\":15051:15060   */\n      dup4\n        /* \"#utility.yul\":15047:15065   */\n      add\n        /* \"#utility.yul\":15040:15088   */\n      mstore\n        /* \"#utility.yul\":15105:15183   */\n      tag_502\n        /* \"#utility.yul\":15178:15182   */\n      dup2\n        /* \"#utility.yul\":15169:15175   */\n      dup5\n        /* \"#utility.yul\":15105:15183   */\n      tag_314\n      jump\t// in\n    tag_502:\n        /* \"#utility.yul\":15097:15183   */\n      swap1\n      pop\n        /* \"#utility.yul\":14657:15190   */\n      swap5\n      swap4\n      pop\n      pop\n      pop\n      pop\n      jump\t// out\n        /* \"#utility.yul\":15196:15376   */\n    tag_315:\n        /* \"#utility.yul\":15336:15368   */\n      0x526174696e67206d757374206265206265747765656e203120616e6420350000\n        /* \"#utility.yul\":15332:15333   */\n      0x00\n        /* \"#utility.yul\":15324:15330   */\n      dup3\n        /* \"#utility.yul\":15320:15334   */\n      add\n        /* \"#utility.yul\":15313:15369   */\n      mstore\n        /* \"#utility.yul\":15196:15376   */\n      pop\n      jump\t// out\n        /* \"#utility.yul\":15382:15748   */\n    tag_316:\n        /* \"#utility.yul\":15524:15527   */\n      0x00\n        /* \"#utility.yul\":15545:15612   */\n      tag_505\n        /* \"#utility.yul\":15609:15611   */\n      0x1e\n        /* \"#utility.yul\":15604:15607   */\n      dup4\n        /* \"#utility.yul\":15545:15612   */\n      tag_301\n      jump\t// in\n    tag_505:\n        /* \"#utility.yul\":15538:15612   */\n      swap2\n      pop\n        /* \"#utility.yul\":15621:15714   */\n      tag_506\n        /* \"#utility.yul\":15710:15713   */\n      dup3\n        /* \"#utility.yul\":15621:15714   */\n      tag_315\n      jump\t// in\n    tag_506:\n        /* \"#utility.yul\":15739:15741   */\n      0x20\n        /* \"#utility.yul\":15734:15737   */\n      dup3\n        /* \"#utility.yul\":15730:15742   */\n      add\n        /* \"#utility.yul\":15723:15742   */\n      swap1\n      pop\n        /* \"#utility.yul\":15382:15748   */\n      swap2\n      swap1\n      pop\n      jump\t// out\n        /* \"#utility.yul\":15754:16173   */\n    tag_178:\n        /* \"#utility.yul\":15920:15924   */\n      0x00\n        /* \"#utility.yul\":15958:15960   */\n      0x20\n        /* \"#utility.yul\":15947:15956   */\n      dup3\n        /* \"#utility.yul\":15943:15961   */\n      add\n        /* \"#utility.yul\":15935:15961   */\n      swap1\n      pop\n        /* \"#utility.yul\":16007:16016   */\n      dup2\n        /* \"#utility.yul\":16001:16005   */\n      dup2\n        /* \"#utility.yul\":15997:16017   */\n      sub\n        /* \"#utility.yul\":15993:15994   */\n      0x00\n        /* \"#utility.yul\":15982:15991   */\n      dup4\n        /* \"#utility.yul\":15978:15995   */\n      add\n        /* \"#utility.yul\":15971:16018   */\n      mstore\n        /* \"#utility.yul\":16035:16166   */\n      tag_508\n        /* \"#utility.yul\":16161:16165   */\n      dup2\n        /* \"#utility.yul\":16035:16166   */\n      tag_316\n      jump\t// in\n    tag_508:\n        /* \"#utility.yul\":16027:16166   */\n      swap1\n      pop\n        /* \"#utility.yul\":15754:16173   */\n      swap2\n      swap1\n      pop\n      jump\t// out\n        /* \"#utility.yul\":16179:16353   */\n    tag_317:\n        /* \"#utility.yul\":16319:16345   */\n      0x596f752063616e6e6f74207261746520796f757273656c660000000000000000\n        /* \"#utility.yul\":16315:16316   */\n      0x00\n        /* \"#utility.yul\":16307:16313   */\n      dup3\n        /* \"#utility.yul\":16303:16317   */\n      add\n        /* \"#utility.yul\":16296:16346   */\n      mstore\n        /* \"#utility.yul\":16179:16353   */\n      pop\n      jump\t// out\n        /* \"#utility.yul\":16359:16725   */\n    tag_318:\n        /* \"#utility.yul\":16501:16504   */\n      0x00\n        /* \"#utility.yul\":16522:16589   */\n      tag_511\n        /* \"#utility.yul\":16586:16588   */\n      0x18\n        /* \"#utility.yul\":16581:16584   */\n      dup4\n        /* \"#utility.yul\":16522:16589   */\n      tag_301\n      jump\t// in\n    tag_511:\n        /* \"#utility.yul\":16515:16589   */\n      swap2\n      pop\n        /* \"#utility.yul\":16598:16691   */\n      tag_512\n        /* \"#utility.yul\":16687:16690   */\n      dup3\n        /* \"#utility.yul\":16598:16691   */\n      tag_317\n      jump\t// in\n    tag_512:\n        /* \"#utility.yul\":16716:16718   */\n      0x20\n        /* \"#utility.yul\":16711:16714   */\n      dup3\n        /* \"#utility.yul\":16707:16719   */\n      add\n        /* \"#utility.yul\":16700:16719   */\n      swap1\n      pop\n        /* \"#utility.yul\":16359:16725   */\n      swap2\n      swap1\n      pop\n      jump\t// out\n        /* \"#utility.yul\":16731:17150   */\n    tag_181:\n        /* \"#utility.yul\":16897:16901   */\n      0x00\n        /* \"#utility.yul\":16935:16937   */\n      0x20\n        /* \"#utility.yul\":16924:16933   */\n      dup3\n        /* \"#utility.yul\":16920:16938   */\n      add\n        /* \"#utility.yul\":16912:16938   */\n      swap1\n      pop\n        /* \"#utility.yul\":16984:16993   */\n      dup2\n        /* \"#utility.yul\":16978:16982   */\n      dup2\n        /* \"#utility.yul\":16974:16994   */\n      sub\n        /* \"#utility.yul\":16970:16971   */\n      0x00\n        /* \"#utility.yul\":16959:16968   */\n      dup4\n        /* \"#utility.yul\":16955:16972   */\n      add\n        /* \"#utility.yul\":16948:16995   */\n      mstore\n        /* \"#utility.yul\":17012:17143   */\n      tag_514\n        /* \"#utility.yul\":17138:17142   */\n      dup2\n        /* \"#utility.yul\":17012:17143   */\n      tag_318\n      jump\t// in\n    tag_514:\n        /* \"#utility.yul\":17004:17143   */\n      swap1\n      pop\n        /* \"#utility.yul\":16731:17150   */\n      swap2\n      swap1\n      pop\n      jump\t// out\n        /* \"#utility.yul\":17156:17268   */\n    tag_319:\n        /* \"#utility.yul\":17239:17261   */\n      tag_516\n        /* \"#utility.yul\":17255:17260   */\n      dup2\n        /* \"#utility.yul\":17239:17261   */\n      tag_295\n      jump\t// in\n    tag_516:\n        /* \"#utility.yul\":17234:17237   */\n      dup3\n        /* \"#utility.yul\":17227:17262   */\n      mstore\n        /* \"#utility.yul\":17156:17268   */\n      pop\n      pop\n      jump\t// out\n        /* \"#utility.yul\":17274:17488   */\n    tag_185:\n        /* \"#utility.yul\":17363:17367   */\n      0x00\n        /* \"#utility.yul\":17401:17403   */\n      0x20\n        /* \"#utility.yul\":17390:17399   */\n      dup3\n        /* \"#utility.yul\":17386:17404   */\n      add\n        /* \"#utility.yul\":17378:17404   */\n      swap1\n      pop\n        /* \"#utility.yul\":17414:17481   */\n      tag_518\n        /* \"#utility.yul\":17478:17479   */\n      0x00\n        /* \"#utility.yul\":17467:17476   */\n      dup4\n        /* \"#utility.yul\":17463:17480   */\n      add\n        /* \"#utility.yul\":17454:17460   */\n      dup5\n        /* \"#utility.yul\":17414:17481   */\n      tag_319\n      jump\t// in\n    tag_518:\n        /* \"#utility.yul\":17274:17488   */\n      swap3\n      swap2\n      pop\n      pop\n      jump\t// out\n        /* \"#utility.yul\":17494:17666   */\n    tag_320:\n        /* \"#utility.yul\":17634:17658   */\n      0x4f6e6c792062757965722063616e20617070726f766500000000000000000000\n        /* \"#utility.yul\":17630:17631   */\n      0x00\n        /* \"#utility.yul\":17622:17628   */\n      dup3\n        /* \"#utility.yul\":17618:17632   */\n      add\n        /* \"#utility.yul\":17611:17659   */\n      mstore\n        /* \"#utility.yul\":17494:17666   */\n      pop\n      jump\t// out\n        /* \"#utility.yul\":17672:18038   */\n    tag_321:\n        /* \"#utility.yul\":17814:17817   */\n      0x00\n        /* \"#utility.yul\":17835:17902   */\n      tag_521\n        /* \"#utility.yul\":17899:17901   */\n      0x16\n        /* \"#utility.yul\":17894:17897   */\n      dup4\n        /* \"#utility.yul\":17835:17902   */\n      tag_301\n      jump\t// in\n    tag_521:\n        /* \"#utility.yul\":17828:17902   */\n      swap2\n      pop\n        /* \"#utility.yul\":17911:18004   */\n      tag_522\n        /* \"#utility.yul\":18000:18003   */\n      dup3\n        /* \"#utility.yul\":17911:18004   */\n      tag_320\n      jump\t// in\n    tag_522:\n        /* \"#utility.yul\":18029:18031   */\n      0x20\n        /* \"#utility.yul\":18024:18027   */\n      dup3\n        /* \"#utility.yul\":18020:18032   */\n      add\n        /* \"#utility.yul\":18013:18032   */\n      swap1\n      pop\n        /* \"#utility.yul\":17672:18038   */\n      swap2\n      swap1\n      pop\n      jump\t// out\n        /* \"#utility.yul\":18044:18463   */\n    tag_189:\n        /* \"#utility.yul\":18210:18214   */\n      0x00\n        /* \"#utility.yul\":18248:18250   */\n      0x20\n        /* \"#utility.yul\":18237:18246   */\n      dup3\n        /* \"#utility.yul\":18233:18251   */\n      add\n        /* \"#utility.yul\":18225:18251   */\n      swap1\n      pop\n        /* \"#utility.yul\":18297:18306   */\n      dup2\n        /* \"#utility.yul\":18291:18295   */\n      dup2\n        /* \"#utility.yul\":18287:18307   */\n      sub\n        /* \"#utility.yul\":18283:18284   */\n      0x00\n        /* \"#utility.yul\":18272:18281   */\n      dup4\n        /* \"#utility.yul\":18268:18285   */\n      add\n        /* \"#utility.yul\":18261:18308   */\n      mstore\n        /* \"#utility.yul\":18325:18456   */\n      tag_524\n        /* \"#utility.yul\":18451:18455   */\n      dup2\n        /* \"#utility.yul\":18325:18456   */\n      tag_321\n      jump\t// in\n    tag_524:\n        /* \"#utility.yul\":18317:18456   */\n      swap1\n      pop\n        /* \"#utility.yul\":18044:18463   */\n      swap2\n      swap1\n      pop\n      jump\t// out\n        /* \"#utility.yul\":18469:18635   */\n    tag_322:\n        /* \"#utility.yul\":18609:18627   */\n      0x416c726561647920617070726f76656400000000000000000000000000000000\n        /* \"#utility.yul\":18605:18606   */\n      0x00\n        /* \"#utility.yul\":18597:18603   */\n      dup3\n        /* \"#utility.yul\":18593:18607   */\n      add\n        /* \"#utility.yul\":18586:18628   */\n      mstore\n        /* \"#utility.yul\":18469:18635   */\n      pop\n      jump\t// out\n        /* \"#utility.yul\":18641:19007   */\n    tag_323:\n        /* \"#utility.yul\":18783:18786   */\n      0x00\n        /* \"#utility.yul\":18804:18871   */\n      tag_527\n        /* \"#utility.yul\":18868:18870   */\n      0x10\n        /* \"#utility.yul\":18863:18866   */\n      dup4\n        /* \"#utility.yul\":18804:18871   */\n      tag_301\n      jump\t// in\n    tag_527:\n        /* \"#utility.yul\":18797:18871   */\n      swap2\n      pop\n        /* \"#utility.yul\":18880:18973   */\n      tag_528\n        /* \"#utility.yul\":18969:18972   */\n      dup3\n        /* \"#utility.yul\":18880:18973   */\n      tag_322\n      jump\t// in\n    tag_528:\n        /* \"#utility.yul\":18998:19000   */\n      0x20\n        /* \"#utility.yul\":18993:18996   */\n      dup3\n        /* \"#utility.yul\":18989:19001   */\n      add\n        /* \"#utility.yul\":18982:19001   */\n      swap1\n      pop\n        /* \"#utility.yul\":18641:19007   */\n      swap2\n      swap1\n      pop\n      jump\t// out\n        /* \"#utility.yul\":19013:19432   */\n    tag_192:\n        /* \"#utility.yul\":19179:19183   */\n      0x00\n        /* \"#utility.yul\":19217:19219   */\n      0x20\n        /* \"#utility.yul\":19206:19215   */\n      dup3\n        /* \"#utility.yul\":19202:19220   */\n      add\n        /* \"#utility.yul\":19194:19220   */\n      swap1\n      pop\n        /* \"#utility.yul\":19266:19275   */\n      dup2\n        /* \"#utility.yul\":19260:19264   */\n      dup2\n        /* \"#utility.yul\":19256:19276   */\n      sub\n        /* \"#utility.yul\":19252:19253   */\n      0x00\n        /* \"#utility.yul\":19241:19250   */\n      dup4\n        /* \"#utility.yul\":19237:19254   */\n      add\n        /* \"#utility.yul\":19230:19277   */\n      mstore\n        /* \"#utility.yul\":19294:19425   */\n      tag_530\n        /* \"#utility.yul\":19420:19424   */\n      dup2\n        /* \"#utility.yul\":19294:19425   */\n      tag_323\n      jump\t// in\n    tag_530:\n        /* \"#utility.yul\":19286:19425   */\n      swap1\n      pop\n        /* \"#utility.yul\":19013:19432   */\n      swap2\n      swap1\n      pop\n      jump\t// out\n        /* \"#utility.yul\":19438:19880   */\n    tag_203:\n        /* \"#utility.yul\":19587:19591   */\n      0x00\n        /* \"#utility.yul\":19625:19627   */\n      0x60\n        /* \"#utility.yul\":19614:19623   */\n      dup3\n        /* \"#utility.yul\":19610:19628   */\n      add\n        /* \"#utility.yul\":19602:19628   */\n      swap1\n      pop\n        /* \"#utility.yul\":19638:19709   */\n      tag_532\n        /* \"#utility.yul\":19706:19707   */\n      0x00\n        /* \"#utility.yul\":19695:19704   */\n      dup4\n        /* \"#utility.yul\":19691:19708   */\n      add\n        /* \"#utility.yul\":19682:19688   */\n      dup7\n        /* \"#utility.yul\":19638:19709   */\n      tag_298\n      jump\t// in\n    tag_532:\n        /* \"#utility.yul\":19719:19791   */\n      tag_533\n        /* \"#utility.yul\":19787:19789   */\n      0x20\n        /* \"#utility.yul\":19776:19785   */\n      dup4\n        /* \"#utility.yul\":19772:19790   */\n      add\n        /* \"#utility.yul\":19763:19769   */\n      dup6\n        /* \"#utility.yul\":19719:19791   */\n      tag_298\n      jump\t// in\n    tag_533:\n        /* \"#utility.yul\":19801:19873   */\n      tag_534\n        /* \"#utility.yul\":19869:19871   */\n      0x40\n        /* \"#utility.yul\":19858:19867   */\n      dup4\n        /* \"#utility.yul\":19854:19872   */\n      add\n        /* \"#utility.yul\":19845:19851   */\n      dup5\n        /* \"#utility.yul\":19801:19873   */\n      tag_275\n      jump\t// in\n    tag_534:\n        /* \"#utility.yul\":19438:19880   */\n      swap5\n      swap4\n      pop\n      pop\n      pop\n      pop\n      jump\t// out\n        /* \"#utility.yul\":19886:20002   */\n    tag_324:\n        /* \"#utility.yul\":19956:19977   */\n      tag_536\n        /* \"#utility.yul\":19971:19976   */\n      dup2\n        /* \"#utility.yul\":19956:19977   */\n      tag_299\n      jump\t// in\n    tag_536:\n        /* \"#utility.yul\":19949:19954   */\n      dup2\n        /* \"#utility.yul\":19946:19978   */\n      eq\n        /* \"#utility.yul\":19936:19996   */\n      tag_537\n      jumpi\n        /* \"#utility.yul\":19992:19993   */\n      0x00\n        /* \"#utility.yul\":19989:19990   */\n      dup1\n        /* \"#utility.yul\":19982:19994   */\n      revert\n        /* \"#utility.yul\":19936:19996   */\n    tag_537:\n        /* \"#utility.yul\":19886:20002   */\n      pop\n      jump\t// out\n        /* \"#utility.yul\":20008:20145   */\n    tag_325:\n        /* \"#utility.yul\":20062:20067   */\n      0x00\n        /* \"#utility.yul\":20093:20099   */\n      dup2\n        /* \"#utility.yul\":20087:20100   */\n      mload\n        /* \"#utility.yul\":20078:20100   */\n      swap1\n      pop\n        /* \"#utility.yul\":20109:20139   */\n      tag_539\n        /* \"#utility.yul\":20133:20138   */\n      dup2\n        /* \"#utility.yul\":20109:20139   */\n      tag_324\n      jump\t// in\n    tag_539:\n        /* \"#utility.yul\":20008:20145   */\n      swap3\n      swap2\n      pop\n      pop\n      jump\t// out\n        /* \"#utility.yul\":20151:20496   */\n    tag_207:\n        /* \"#utility.yul\":20218:20224   */\n      0x00\n        /* \"#utility.yul\":20267:20269   */\n      0x20\n        /* \"#utility.yul\":20255:20264   */\n      dup3\n        /* \"#utility.yul\":20246:20253   */\n      dup5\n        /* \"#utility.yul\":20242:20265   */\n      sub\n        /* \"#utility.yul\":20238:20270   */\n      slt\n        /* \"#utility.yul\":20235:20354   */\n      iszero\n      tag_541\n      jumpi\n        /* \"#utility.yul\":20273:20352   */\n      tag_542\n      tag_277\n      jump\t// in\n    tag_542:\n        /* \"#utility.yul\":20235:20354   */\n    tag_541:\n        /* \"#utility.yul\":20393:20394   */\n      0x00\n        /* \"#utility.yul\":20418:20479   */\n      tag_543\n        /* \"#utility.yul\":20471:20478   */\n      dup5\n        /* \"#utility.yul\":20462:20468   */\n      dup3\n        /* \"#utility.yul\":20451:20460   */\n      dup6\n        /* \"#utility.yul\":20447:20469   */\n      add\n        /* \"#utility.yul\":20418:20479   */\n      tag_325\n      jump\t// in\n    tag_543:\n        /* \"#utility.yul\":20408:20479   */\n      swap2\n      pop\n        /* \"#utility.yul\":20364:20489   */\n      pop\n        /* \"#utility.yul\":20151:20496   */\n      swap3\n      swap2\n      pop\n      pop\n      jump\t// out\n        /* \"#utility.yul\":20502:20671   */\n    tag_326:\n        /* \"#utility.yul\":20642:20663   */\n      0x466565207472616e73666572206661696c656400000000000000000000000000\n        /* \"#utility.yul\":20638:20639   */\n      0x00\n        /* \"#utility.yul\":20630:20636   */\n      dup3\n        /* \"#utility.yul\":20626:20640   */\n      add\n        /* \"#utility.yul\":20619:20664   */\n      mstore\n        /* \"#utility.yul\":20502:20671   */\n      pop\n      jump\t// out\n        /* \"#utility.yul\":20677:21043   */\n    tag_327:\n        /* \"#utility.yul\":20819:20822   */\n      0x00\n        /* \"#utility.yul\":20840:20907   */\n      tag_546\n        /* \"#utility.yul\":20904:20906   */\n      0x13\n        /* \"#utility.yul\":20899:20902   */\n      dup4\n        /* \"#utility.yul\":20840:20907   */\n      tag_301\n      jump\t// in\n    tag_546:\n        /* \"#utility.yul\":20833:20907   */\n      swap2\n      pop\n        /* \"#utility.yul\":20916:21009   */\n      tag_547\n        /* \"#utility.yul\":21005:21008   */\n      dup3\n        /* \"#utility.yul\":20916:21009   */\n      tag_326\n      jump\t// in\n    tag_547:\n        /* \"#utility.yul\":21034:21036   */\n      0x20\n        /* \"#utility.yul\":21029:21032   */\n      dup3\n        /* \"#utility.yul\":21025:21037   */\n      add\n        /* \"#utility.yul\":21018:21037   */\n      swap1\n      pop\n        /* \"#utility.yul\":20677:21043   */\n      swap2\n      swap1\n      pop\n      jump\t// out\n        /* \"#utility.yul\":21049:21468   */\n    tag_210:\n        /* \"#utility.yul\":21215:21219   */\n      0x00\n        /* \"#utility.yul\":21253:21255   */\n      0x20\n        /* \"#utility.yul\":21242:21251   */\n      dup3\n        /* \"#utility.yul\":21238:21256   */\n      add\n        /* \"#utility.yul\":21230:21256   */\n      swap1\n      pop\n        /* \"#utility.yul\":21302:21311   */\n      dup2\n        /* \"#utility.yul\":21296:21300   */\n      dup2\n        /* \"#utility.yul\":21292:21312   */\n      sub\n        /* \"#utility.yul\":21288:21289   */\n      0x00\n        /* \"#utility.yul\":21277:21286   */\n      dup4\n        /* \"#utility.yul\":21273:21290   */\n      add\n        /* \"#utility.yul\":21266:21313   */\n      mstore\n        /* \"#utility.yul\":21330:21461   */\n      tag_549\n        /* \"#utility.yul\":21456:21460   */\n      dup2\n        /* \"#utility.yul\":21330:21461   */\n      tag_327\n      jump\t// in\n    tag_549:\n        /* \"#utility.yul\":21322:21461   */\n      swap1\n      pop\n        /* \"#utility.yul\":21049:21468   */\n      swap2\n      swap1\n      pop\n      jump\t// out\n        /* \"#utility.yul\":21474:21650   */\n    tag_328:\n        /* \"#utility.yul\":21614:21642   */\n      0x537461626c65636f696e207472616e73666572206661696c6564000000000000\n        /* \"#utility.yul\":21610:21611   */\n      0x00\n        /* \"#utility.yul\":21602:21608   */\n      dup3\n        /* \"#utility.yul\":21598:21612   */\n      add\n        /* \"#utility.yul\":21591:21643   */\n      mstore\n        /* \"#utility.yul\":21474:21650   */\n      pop\n      jump\t// out\n        /* \"#utility.yul\":21656:22022   */\n    tag_329:\n        /* \"#utility.yul\":21798:21801   */\n      0x00\n        /* \"#utility.yul\":21819:21886   */\n      tag_552\n        /* \"#utility.yul\":21883:21885   */\n      0x1a\n        /* \"#utility.yul\":21878:21881   */\n      dup4\n        /* \"#utility.yul\":21819:21886   */\n      tag_301\n      jump\t// in\n    tag_552:\n        /* \"#utility.yul\":21812:21886   */\n      swap2\n      pop\n        /* \"#utility.yul\":21895:21988   */\n      tag_553\n        /* \"#utility.yul\":21984:21987   */\n      dup3\n        /* \"#utility.yul\":21895:21988   */\n      tag_328\n      jump\t// in\n    tag_553:\n        /* \"#utility.yul\":22013:22015   */\n      0x20\n        /* \"#utility.yul\":22008:22011   */\n      dup3\n        /* \"#utility.yul\":22004:22016   */\n      add\n        /* \"#utility.yul\":21997:22016   */\n      swap1\n      pop\n        /* \"#utility.yul\":21656:22022   */\n      swap2\n      swap1\n      pop\n      jump\t// out\n        /* \"#utility.yul\":22028:22447   */\n    tag_217:\n        /* \"#utility.yul\":22194:22198   */\n      0x00\n        /* \"#utility.yul\":22232:22234   */\n      0x20\n        /* \"#utility.yul\":22221:22230   */\n      dup3\n        /* \"#utility.yul\":22217:22235   */\n      add\n        /* \"#utility.yul\":22209:22235   */\n      swap1\n      pop\n        /* \"#utility.yul\":22281:22290   */\n      dup2\n        /* \"#utility.yul\":22275:22279   */\n      dup2\n        /* \"#utility.yul\":22271:22291   */\n      sub\n        /* \"#utility.yul\":22267:22268   */\n      0x00\n        /* \"#utility.yul\":22256:22265   */\n      dup4\n        /* \"#utility.yul\":22252:22269   */\n      add\n        /* \"#utility.yul\":22245:22292   */\n      mstore\n        /* \"#utility.yul\":22309:22440   */\n      tag_555\n        /* \"#utility.yul\":22435:22439   */\n      dup2\n        /* \"#utility.yul\":22309:22440   */\n      tag_329\n      jump\t// in\n    tag_555:\n        /* \"#utility.yul\":22301:22440   */\n      swap1\n      pop\n        /* \"#utility.yul\":22028:22447   */\n      swap2\n      swap1\n      pop\n      jump\t// out\n        /* \"#utility.yul\":22453:22613   */\n    tag_330:\n        /* \"#utility.yul\":22593:22605   */\n      0x537461626c65636f696e00000000000000000000000000000000000000000000\n        /* \"#utility.yul\":22589:22590   */\n      0x00\n        /* \"#utility.yul\":22581:22587   */\n      dup3\n        /* \"#utility.yul\":22577:22591   */\n      add\n        /* \"#utility.yul\":22570:22606   */\n      mstore\n        /* \"#utility.yul\":22453:22613   */\n      pop\n      jump\t// out\n        /* \"#utility.yul\":22619:22985   */\n    tag_331:\n        /* \"#utility.yul\":22761:22764   */\n      0x00\n        /* \"#utility.yul\":22782:22849   */\n      tag_558\n        /* \"#utility.yul\":22846:22848   */\n      0x0a\n        /* \"#utility.yul\":22841:22844   */\n      dup4\n        /* \"#utility.yul\":22782:22849   */\n      tag_301\n      jump\t// in\n    tag_558:\n        /* \"#utility.yul\":22775:22849   */\n      swap2\n      pop\n        /* \"#utility.yul\":22858:22951   */\n      tag_559\n        /* \"#utility.yul\":22947:22950   */\n      dup3\n        /* \"#utility.yul\":22858:22951   */\n      tag_330\n      jump\t// in\n    tag_559:\n        /* \"#utility.yul\":22976:22978   */\n      0x20\n        /* \"#utility.yul\":22971:22974   */\n      dup3\n        /* \"#utility.yul\":22967:22979   */\n      add\n        /* \"#utility.yul\":22960:22979   */\n      swap1\n      pop\n        /* \"#utility.yul\":22619:22985   */\n      swap2\n      swap1\n      pop\n      jump\t// out\n        /* \"#utility.yul\":22991:23630   */\n    tag_221:\n        /* \"#utility.yul\":23213:23217   */\n      0x00\n        /* \"#utility.yul\":23251:23253   */\n      0x60\n        /* \"#utility.yul\":23240:23249   */\n      dup3\n        /* \"#utility.yul\":23236:23254   */\n      add\n        /* \"#utility.yul\":23228:23254   */\n      swap1\n      pop\n        /* \"#utility.yul\":23264:23335   */\n      tag_561\n        /* \"#utility.yul\":23332:23333   */\n      0x00\n        /* \"#utility.yul\":23321:23330   */\n      dup4\n        /* \"#utility.yul\":23317:23334   */\n      add\n        /* \"#utility.yul\":23308:23314   */\n      dup6\n        /* \"#utility.yul\":23264:23335   */\n      tag_275\n      jump\t// in\n    tag_561:\n        /* \"#utility.yul\":23345:23417   */\n      tag_562\n        /* \"#utility.yul\":23413:23415   */\n      0x20\n        /* \"#utility.yul\":23402:23411   */\n      dup4\n        /* \"#utility.yul\":23398:23416   */\n      add\n        /* \"#utility.yul\":23389:23395   */\n      dup5\n        /* \"#utility.yul\":23345:23417   */\n      tag_275\n      jump\t// in\n    tag_562:\n        /* \"#utility.yul\":23464:23473   */\n      dup2\n        /* \"#utility.yul\":23458:23462   */\n      dup2\n        /* \"#utility.yul\":23454:23474   */\n      sub\n        /* \"#utility.yul\":23449:23451   */\n      0x40\n        /* \"#utility.yul\":23438:23447   */\n      dup4\n        /* \"#utility.yul\":23434:23452   */\n      add\n        /* \"#utility.yul\":23427:23475   */\n      mstore\n        /* \"#utility.yul\":23492:23623   */\n      tag_563\n        /* \"#utility.yul\":23618:23622   */\n      dup2\n        /* \"#utility.yul\":23492:23623   */\n      tag_331\n      jump\t// in\n    tag_563:\n        /* \"#utility.yul\":23484:23623   */\n      swap1\n      pop\n        /* \"#utility.yul\":22991:23630   */\n      swap4\n      swap3\n      pop\n      pop\n      pop\n      jump\t// out\n        /* \"#utility.yul\":23636:23815   */\n    tag_332:\n        /* \"#utility.yul\":23776:23807   */\n      0x4f6e6c792062757965722063616e207265717565737420726566756e64000000\n        /* \"#utility.yul\":23772:23773   */\n      0x00\n        /* \"#utility.yul\":23764:23770   */\n      dup3\n        /* \"#utility.yul\":23760:23774   */\n      add\n        /* \"#utility.yul\":23753:23808   */\n      mstore\n        /* \"#utility.yul\":23636:23815   */\n      pop\n      jump\t// out\n        /* \"#utility.yul\":23821:24187   */\n    tag_333:\n        /* \"#utility.yul\":23963:23966   */\n      0x00\n        /* \"#utility.yul\":23984:24051   */\n      tag_566\n        /* \"#utility.yul\":24048:24050   */\n      0x1d\n        /* \"#utility.yul\":24043:24046   */\n      dup4\n        /* \"#utility.yul\":23984:24051   */\n      tag_301\n      jump\t// in\n    tag_566:\n        /* \"#utility.yul\":23977:24051   */\n      swap2\n      pop\n        /* \"#utility.yul\":24060:24153   */\n      tag_567\n        /* \"#utility.yul\":24149:24152   */\n      dup3\n        /* \"#utility.yul\":24060:24153   */\n      tag_332\n      jump\t// in\n    tag_567:\n        /* \"#utility.yul\":24178:24180   */\n      0x20\n        /* \"#utility.yul\":24173:24176   */\n      dup3\n        /* \"#utility.yul\":24169:24181   */\n      add\n        /* \"#utility.yul\":24162:24181   */\n      swap1\n      pop\n        /* \"#utility.yul\":23821:24187   */\n      swap2\n      swap1\n      pop\n      jump\t// out\n        /* \"#utility.yul\":24193:24612   */\n    tag_231:\n        /* \"#utility.yul\":24359:24363   */\n      0x00\n        /* \"#utility.yul\":24397:24399   */\n      0x20\n        /* \"#utility.yul\":24386:24395   */\n      dup3\n        /* \"#utility.yul\":24382:24400   */\n      add\n        /* \"#utility.yul\":24374:24400   */\n      swap1\n      pop\n        /* \"#utility.yul\":24446:24455   */\n      dup2\n        /* \"#utility.yul\":24440:24444   */\n      dup2\n        /* \"#utility.yul\":24436:24456   */\n      sub\n        /* \"#utility.yul\":24432:24433   */\n      0x00\n        /* \"#utility.yul\":24421:24430   */\n      dup4\n        /* \"#utility.yul\":24417:24434   */\n      add\n        /* \"#utility.yul\":24410:24457   */\n      mstore\n        /* \"#utility.yul\":24474:24605   */\n      tag_569\n        /* \"#utility.yul\":24600:24604   */\n      dup2\n        /* \"#utility.yul\":24474:24605   */\n      tag_333\n      jump\t// in\n    tag_569:\n        /* \"#utility.yul\":24466:24605   */\n      swap1\n      pop\n        /* \"#utility.yul\":24193:24612   */\n      swap2\n      swap1\n      pop\n      jump\t// out\n        /* \"#utility.yul\":24618:24791   */\n    tag_334:\n        /* \"#utility.yul\":24758:24783   */\n      0x457363726f772074696d65206e6f742065787069726564000000000000000000\n        /* \"#utility.yul\":24754:24755   */\n      0x00\n        /* \"#utility.yul\":24746:24752   */\n      dup3\n        /* \"#utility.yul\":24742:24756   */\n      add\n        /* \"#utility.yul\":24735:24784   */\n      mstore\n        /* \"#utility.yul\":24618:24791   */\n      pop\n      jump\t// out\n        /* \"#utility.yul\":24797:25163   */\n    tag_335:\n        /* \"#utility.yul\":24939:24942   */\n      0x00\n        /* \"#utility.yul\":24960:25027   */\n      tag_572\n        /* \"#utility.yul\":25024:25026   */\n      0x17\n        /* \"#utility.yul\":25019:25022   */\n      dup4\n        /* \"#utility.yul\":24960:25027   */\n      tag_301\n      jump\t// in\n    tag_572:\n        /* \"#utility.yul\":24953:25027   */\n      swap2\n      pop\n        /* \"#utility.yul\":25036:25129   */\n      tag_573\n        /* \"#utility.yul\":25125:25128   */\n      dup3\n        /* \"#utility.yul\":25036:25129   */\n      tag_334\n      jump\t// in\n    tag_573:\n        /* \"#utility.yul\":25154:25156   */\n      0x20\n        /* \"#utility.yul\":25149:25152   */\n      dup3\n        /* \"#utility.yul\":25145:25157   */\n      add\n        /* \"#utility.yul\":25138:25157   */\n      swap1\n      pop\n        /* \"#utility.yul\":24797:25163   */\n      swap2\n      swap1\n      pop\n      jump\t// out\n        /* \"#utility.yul\":25169:25588   */\n    tag_234:\n        /* \"#utility.yul\":25335:25339   */\n      0x00\n        /* \"#utility.yul\":25373:25375   */\n      0x20\n        /* \"#utility.yul\":25362:25371   */\n      dup3\n        /* \"#utility.yul\":25358:25376   */\n      add\n        /* \"#utility.yul\":25350:25376   */\n      swap1\n      pop\n        /* \"#utility.yul\":25422:25431   */\n      dup2\n        /* \"#utility.yul\":25416:25420   */\n      dup2\n        /* \"#utility.yul\":25412:25432   */\n      sub\n        /* \"#utility.yul\":25408:25409   */\n      0x00\n        /* \"#utility.yul\":25397:25406   */\n      dup4\n        /* \"#utility.yul\":25393:25410   */\n      add\n        /* \"#utility.yul\":25386:25433   */\n      mstore\n        /* \"#utility.yul\":25450:25581   */\n      tag_575\n        /* \"#utility.yul\":25576:25580   */\n      dup2\n        /* \"#utility.yul\":25450:25581   */\n      tag_335\n      jump\t// in\n    tag_575:\n        /* \"#utility.yul\":25442:25581   */\n      swap1\n      pop\n        /* \"#utility.yul\":25169:25588   */\n      swap2\n      swap1\n      pop\n      jump\t// out\n        /* \"#utility.yul\":25594:25772   */\n    tag_336:\n        /* \"#utility.yul\":25734:25764   */\n      0x43726561746f722068617320616c726561647920617070726f76656400000000\n        /* \"#utility.yul\":25730:25731   */\n      0x00\n        /* \"#utility.yul\":25722:25728   */\n      dup3\n        /* \"#utility.yul\":25718:25732   */\n      add\n        /* \"#utility.yul\":25711:25765   */\n      mstore\n        /* \"#utility.yul\":25594:25772   */\n      pop\n      jump\t// out\n        /* \"#utility.yul\":25778:26144   */\n    tag_337:\n        /* \"#utility.yul\":25920:25923   */\n      0x00\n        /* \"#utility.yul\":25941:26008   */\n      tag_578\n        /* \"#utility.yul\":26005:26007   */\n      0x1c\n        /* \"#utility.yul\":26000:26003   */\n      dup4\n        /* \"#utility.yul\":25941:26008   */\n      tag_301\n      jump\t// in\n    tag_578:\n        /* \"#utility.yul\":25934:26008   */\n      swap2\n      pop\n        /* \"#utility.yul\":26017:26110   */\n      tag_579\n        /* \"#utility.yul\":26106:26109   */\n      dup3\n        /* \"#utility.yul\":26017:26110   */\n      tag_336\n      jump\t// in\n    tag_579:\n        /* \"#utility.yul\":26135:26137   */\n      0x20\n        /* \"#utility.yul\":26130:26133   */\n      dup3\n        /* \"#utility.yul\":26126:26138   */\n      add\n        /* \"#utility.yul\":26119:26138   */\n      swap1\n      pop\n        /* \"#utility.yul\":25778:26144   */\n      swap2\n      swap1\n      pop\n      jump\t// out\n        /* \"#utility.yul\":26150:26569   */\n    tag_237:\n        /* \"#utility.yul\":26316:26320   */\n      0x00\n        /* \"#utility.yul\":26354:26356   */\n      0x20\n        /* \"#utility.yul\":26343:26352   */\n      dup3\n        /* \"#utility.yul\":26339:26357   */\n      add\n        /* \"#utility.yul\":26331:26357   */\n      swap1\n      pop\n        /* \"#utility.yul\":26403:26412   */\n      dup2\n        /* \"#utility.yul\":26397:26401   */\n      dup2\n        /* \"#utility.yul\":26393:26413   */\n      sub\n        /* \"#utility.yul\":26389:26390   */\n      0x00\n        /* \"#utility.yul\":26378:26387   */\n      dup4\n        /* \"#utility.yul\":26374:26391   */\n      add\n        /* \"#utility.yul\":26367:26414   */\n      mstore\n        /* \"#utility.yul\":26431:26562   */\n      tag_581\n        /* \"#utility.yul\":26557:26561   */\n      dup2\n        /* \"#utility.yul\":26431:26562   */\n      tag_337\n      jump\t// in\n    tag_581:\n        /* \"#utility.yul\":26423:26562   */\n      swap1\n      pop\n        /* \"#utility.yul\":26150:26569   */\n      swap2\n      swap1\n      pop\n      jump\t// out\n        /* \"#utility.yul\":26575:26741   */\n    tag_338:\n        /* \"#utility.yul\":26715:26733   */\n      0x416c726561647920726566756e64656400000000000000000000000000000000\n        /* \"#utility.yul\":26711:26712   */\n      0x00\n        /* \"#utility.yul\":26703:26709   */\n      dup3\n        /* \"#utility.yul\":26699:26713   */\n      add\n        /* \"#utility.yul\":26692:26734   */\n      mstore\n        /* \"#utility.yul\":26575:26741   */\n      pop\n      jump\t// out\n        /* \"#utility.yul\":26747:27113   */\n    tag_339:\n        /* \"#utility.yul\":26889:26892   */\n      0x00\n        /* \"#utility.yul\":26910:26977   */\n      tag_584\n        /* \"#utility.yul\":26974:26976   */\n      0x10\n        /* \"#utility.yul\":26969:26972   */\n      dup4\n        /* \"#utility.yul\":26910:26977   */\n      tag_301\n      jump\t// in\n    tag_584:\n        /* \"#utility.yul\":26903:26977   */\n      swap2\n      pop\n        /* \"#utility.yul\":26986:27079   */\n      tag_585\n        /* \"#utility.yul\":27075:27078   */\n      dup3\n        /* \"#utility.yul\":26986:27079   */\n      tag_338\n      jump\t// in\n    tag_585:\n        /* \"#utility.yul\":27104:27106   */\n      0x20\n        /* \"#utility.yul\":27099:27102   */\n      dup3\n        /* \"#utility.yul\":27095:27107   */\n      add\n        /* \"#utility.yul\":27088:27107   */\n      swap1\n      pop\n        /* \"#utility.yul\":26747:27113   */\n      swap2\n      swap1\n      pop\n      jump\t// out\n        /* \"#utility.yul\":27119:27538   */\n    tag_240:\n        /* \"#utility.yul\":27285:27289   */\n      0x00\n        /* \"#utility.yul\":27323:27325   */\n      0x20\n        /* \"#utility.yul\":27312:27321   */\n      dup3\n        /* \"#utility.yul\":27308:27326   */\n      add\n        /* \"#utility.yul\":27300:27326   */\n      swap1\n      pop\n        /* \"#utility.yul\":27372:27381   */\n      dup2\n        /* \"#utility.yul\":27366:27370   */\n      dup2\n        /* \"#utility.yul\":27362:27382   */\n      sub\n        /* \"#utility.yul\":27358:27359   */\n      0x00\n        /* \"#utility.yul\":27347:27356   */\n      dup4\n        /* \"#utility.yul\":27343:27360   */\n      add\n        /* \"#utility.yul\":27336:27383   */\n      mstore\n        /* \"#utility.yul\":27400:27531   */\n      tag_587\n        /* \"#utility.yul\":27526:27530   */\n      dup2\n        /* \"#utility.yul\":27400:27531   */\n      tag_339\n      jump\t// in\n    tag_587:\n        /* \"#utility.yul\":27392:27531   */\n      swap1\n      pop\n        /* \"#utility.yul\":27119:27538   */\n      swap2\n      swap1\n      pop\n      jump\t// out\n        /* \"#utility.yul\":27544:27718   */\n    tag_340:\n        /* \"#utility.yul\":27684:27710   */\n      0x4f6e6c792063726561746f722063616e20636f6e6669726d0000000000000000\n        /* \"#utility.yul\":27680:27681   */\n      0x00\n        /* \"#utility.yul\":27672:27678   */\n      dup3\n        /* \"#utility.yul\":27668:27682   */\n      add\n        /* \"#utility.yul\":27661:27711   */\n      mstore\n        /* \"#utility.yul\":27544:27718   */\n      pop\n      jump\t// out\n        /* \"#utility.yul\":27724:28090   */\n    tag_341:\n        /* \"#utility.yul\":27866:27869   */\n      0x00\n        /* \"#utility.yul\":27887:27954   */\n      tag_590\n        /* \"#utility.yul\":27951:27953   */\n      0x18\n        /* \"#utility.yul\":27946:27949   */\n      dup4\n        /* \"#utility.yul\":27887:27954   */\n      tag_301\n      jump\t// in\n    tag_590:\n        /* \"#utility.yul\":27880:27954   */\n      swap2\n      pop\n        /* \"#utility.yul\":27963:28056   */\n      tag_591\n        /* \"#utility.yul\":28052:28055   */\n      dup3\n        /* \"#utility.yul\":27963:28056   */\n      tag_340\n      jump\t// in\n    tag_591:\n        /* \"#utility.yul\":28081:28083   */\n      0x20\n        /* \"#utility.yul\":28076:28079   */\n      dup3\n        /* \"#utility.yul\":28072:28084   */\n      add\n        /* \"#utility.yul\":28065:28084   */\n      swap1\n      pop\n        /* \"#utility.yul\":27724:28090   */\n      swap2\n      swap1\n      pop\n      jump\t// out\n        /* \"#utility.yul\":28096:28515   */\n    tag_256:\n        /* \"#utility.yul\":28262:28266   */\n      0x00\n        /* \"#utility.yul\":28300:28302   */\n      0x20\n        /* \"#utility.yul\":28289:28298   */\n      dup3\n        /* \"#utility.yul\":28285:28303   */\n      add\n        /* \"#utility.yul\":28277:28303   */\n      swap1\n      pop\n        /* \"#utility.yul\":28349:28358   */\n      dup2\n        /* \"#utility.yul\":28343:28347   */\n      dup2\n        /* \"#utility.yul\":28339:28359   */\n      sub\n        /* \"#utility.yul\":28335:28336   */\n      0x00\n        /* \"#utility.yul\":28324:28333   */\n      dup4\n        /* \"#utility.yul\":28320:28337   */\n      add\n        /* \"#utility.yul\":28313:28360   */\n      mstore\n        /* \"#utility.yul\":28377:28508   */\n      tag_593\n        /* \"#utility.yul\":28503:28507   */\n      dup2\n        /* \"#utility.yul\":28377:28508   */\n      tag_341\n      jump\t// in\n    tag_593:\n        /* \"#utility.yul\":28369:28508   */\n      swap1\n      pop\n        /* \"#utility.yul\":28096:28515   */\n      swap2\n      swap1\n      pop\n      jump\t// out\n\n    auxdata: 0xa2646970667358221220814252c5bac6074efa77db2d975a41d101b333c87718212d069b751329cc0a9464736f6c634300081a0033\n}\n",
				"bytecode": {
					"linkReferences": {},
					"object": "60806040526203f480600855600560095534801561001b575f80fd5b50604051612e2e380380612e2e833981810160405281019061003d9190610264565b305f73ffffffffffffffffffffffffffffffffffffffff168173ffffffffffffffffffffffffffffffffffffffff16036100ae575f6040517f1e4fbdf70000000000000000000000000000000000000000000000000000000081526004016100a591906102b1565b60405180910390fd5b6100bd8161014560201b60201c565b508160075f6101000a81548173ffffffffffffffffffffffffffffffffffffffff021916908373ffffffffffffffffffffffffffffffffffffffff16021790555080600a5f6101000a81548173ffffffffffffffffffffffffffffffffffffffff021916908373ffffffffffffffffffffffffffffffffffffffff16021790555050506102ca565b5f805f9054906101000a900473ffffffffffffffffffffffffffffffffffffffff169050815f806101000a81548173ffffffffffffffffffffffffffffffffffffffff021916908373ffffffffffffffffffffffffffffffffffffffff1602179055508173ffffffffffffffffffffffffffffffffffffffff168173ffffffffffffffffffffffffffffffffffffffff167f8be0079c531659141344cd1fd0a4f28419497f9722a3daafe3b4186f6b6457e060405160405180910390a35050565b5f80fd5b5f73ffffffffffffffffffffffffffffffffffffffff82169050919050565b5f6102338261020a565b9050919050565b61024381610229565b811461024d575f80fd5b50565b5f8151905061025e8161023a565b92915050565b5f806040838503121561027a57610279610206565b5b5f61028785828601610250565b925050602061029885828601610250565b9150509250929050565b6102ab81610229565b82525050565b5f6020820190506102c45f8301846102a2565b92915050565b612b57806102d75f395ff3fe60806040526004361061013f575f3560e01c80638392fe31116100b5578063c8b675221161006e578063c8b675221461043f578063cdd78cfc1461047b578063e9cbd822146104a5578063f2fde38b146104cf578063fa2af9da146104f7578063fd84cb97146105215761013f565b80638392fe31146102f75780638b609dab146103395780638da5cb5b146103755780639e01dfbb1461039f5780639f766246146103db578063a4b2409e146104175761013f565b80633222365f116101075780633222365f14610205578063454c17231461022d57806357ac1d0714610269578063589c964814610291578063604cbee4146102b9578063715018a6146102e15761013f565b8063055680f0146101435780631b41c1ff1461016d57806324600fc314610197578063279805c9146101ad5780632a782802146101c9575b5f80fd5b34801561014e575f80fd5b50610157610549565b6040516101649190611d82565b60405180910390f35b348015610178575f80fd5b5061018161054f565b60405161018e9190611d82565b60405180910390f35b3480156101a2575f80fd5b506101ab610555565b005b6101c760048036038101906101c29190611e06565b6106af565b005b3480156101d4575f80fd5b506101ef60048036038101906101ea9190611e06565b61098b565b6040516101fc9190611d82565b60405180910390f35b348015610210575f80fd5b5061022b60048036038101906102269190611f97565b6109a0565b005b348015610238575f80fd5b50610253600480360381019061024e9190611e06565b610c72565b6040516102609190611d82565b60405180910390f35b348015610274575f80fd5b5061028f600480360381019061028a919061204d565b610cb8565b005b34801561029c575f80fd5b506102b760048036038101906102b2919061208b565b610e75565b005b3480156102c4575f80fd5b506102df60048036038101906102da91906120b6565b610ffb565b005b3480156102ec575f80fd5b506102f561144e565b005b348015610302575f80fd5b5061031d6004803603810190610318919061208b565b611461565b604051610330979695949392919061211d565b60405180910390f35b348015610344575f80fd5b5061035f600480360381019061035a9190611e06565b611502565b60405161036c9190611d82565b60405180910390f35b348015610380575f80fd5b50610389611517565b604051610396919061218a565b60405180910390f35b3480156103aa575f80fd5b506103c560048036038101906103c09190611e06565b61153e565b6040516103d29190611d82565b60405180910390f35b3480156103e6575f80fd5b5061040160048036038101906103fc9190611e06565b611553565b60405161040e9190611d82565b60405180910390f35b348015610422575f80fd5b5061043d6004803603810190610438919061208b565b611568565b005b34801561044a575f80fd5b5061046560048036038101906104609190611e06565b6117f5565b6040516104729190611d82565b60405180910390f35b348015610486575f80fd5b5061048f6118d0565b60405161049c9190611d82565b60405180910390f35b3480156104b0575f80fd5b506104b96118d6565b6040516104c6919061218a565b60405180910390f35b3480156104da575f80fd5b506104f560048036038101906104f09190611e06565b6118fb565b005b348015610502575f80fd5b5061050b61197f565b604051610518919061218a565b60405180910390f35b34801561052c575f80fd5b506105476004803603810190610542919061208b565b6119a4565b005b60065481565b60085481565b5f60025f3373ffffffffffffffffffffffffffffffffffffffff1673ffffffffffffffffffffffffffffffffffffffff1681526020019081526020015f205490505f81116105d8576040517f08c379a00000000000000000000000000000000000000000000000000000000081526004016105cf906121fd565b60405180910390fd5b5f60025f3373ffffffffffffffffffffffffffffffffffffffff1673ffffffffffffffffffffffffffffffffffffffff1681526020019081526020015f20819055503373ffffffffffffffffffffffffffffffffffffffff166108fc8290811502906040515f60405180830381858888f1935050505015801561065d573d5f803e3d5ffd5b503373ffffffffffffffffffffffffffffffffffffffff167f957727802c31109adcff14fcfbd2dc576e9bfd4d6385ddd160fe42832a4555fe826040516106a49190611d82565b60405180910390a250565b5f34116106f1576040517f08c379a00000000000000000000000000000000000000000000000000000000081526004016106e890612265565b60405180910390fd5b5f60646009543461070291906122b0565b61070c919061231e565b90505f813461071b919061234e565b905060065f81548092919061072f90612381565b91905055506040518060e001604052803373ffffffffffffffffffffffffffffffffffffffff1681526020018473ffffffffffffffffffffffffffffffffffffffff1681526020018281526020015f151581526020015f151581526020016008544261079b91906123c8565b81526020015f151581525060015f60065481526020019081526020015f205f820151815f015f6101000a81548173ffffffffffffffffffffffffffffffffffffffff021916908373ffffffffffffffffffffffffffffffffffffffff1602179055506020820151816001015f6101000a81548173ffffffffffffffffffffffffffffffffffffffff021916908373ffffffffffffffffffffffffffffffffffffffff160217905550604082015181600201556060820151816003015f6101000a81548160ff02191690831515021790555060808201518160030160016101000a81548160ff02191690831515021790555060a0820151816004015560c0820151816005015f6101000a81548160ff021916908315150217905550905050600a5f9054906101000a900473ffffffffffffffffffffffffffffffffffffffff1673ffffffffffffffffffffffffffffffffffffffff166108fc8390811502906040515f60405180830381858888f1935050505015801561091c573d5f803e3d5ffd5b508273ffffffffffffffffffffffffffffffffffffffff163373ffffffffffffffffffffffffffffffffffffffff167f62b4265ef816f751a94c5c93fa40a90302c6924509b973ed4094dcf30c6c61ed6006543460405161097e929190612445565b60405180910390a3505050565b6002602052805f5260405f205f915090505481565b6109a8611b2d565b5f82116109ea576040517f08c379a00000000000000000000000000000000000000000000000000000000081526004016109e1906124c9565b60405180910390fd5b5f6064600954846109fb91906122b0565b610a05919061231e565b90505f8184610a14919061234e565b9050600a5f9054906101000a900473ffffffffffffffffffffffffffffffffffffffff1673ffffffffffffffffffffffffffffffffffffffff166108fc8390811502906040515f60405180830381858888f19350505050158015610a7a573d5f803e3d5ffd5b5060065f815480929190610a8d90612381565b91905055506040518060e001604052808773ffffffffffffffffffffffffffffffffffffffff1681526020018673ffffffffffffffffffffffffffffffffffffffff1681526020018281526020015f151581526020015f1515815260200160085442610af991906123c8565b81526020015f151581525060015f60065481526020019081526020015f205f820151815f015f6101000a81548173ffffffffffffffffffffffffffffffffffffffff021916908373ffffffffffffffffffffffffffffffffffffffff1602179055506020820151816001015f6101000a81548173ffffffffffffffffffffffffffffffffffffffff021916908373ffffffffffffffffffffffffffffffffffffffff160217905550604082015181600201556060820151816003015f6101000a81548160ff02191690831515021790555060808201518160030160016101000a81548160ff02191690831515021790555060a0820151816004015560c0820151816005015f6101000a81548160ff0219169083151502179055509050508573ffffffffffffffffffffffffffffffffffffffff167fcab36cec3e30686ba4bd5c4316f76e9e8e4ac8eb1668be5c825146cf112244796006548686604051610c6293929190612537565b60405180910390a2505050505050565b5f60035f8373ffffffffffffffffffffffffffffffffffffffff1673ffffffffffffffffffffffffffffffffffffffff1681526020019081526020015f20549050919050565b5f8160ff16118015610cce575060058160ff1611155b610d0d576040517f08c379a0000000000000000000000000000000000000000000000000000000008152600401610d04906125bd565b60405180910390fd5b3373ffffffffffffffffffffffffffffffffffffffff168273ffffffffffffffffffffffffffffffffffffffff1603610d7b576040517f08c379a0000000000000000000000000000000000000000000000000000000008152600401610d7290612625565b60405180910390fd5b8060ff1660045f8473ffffffffffffffffffffffffffffffffffffffff1673ffffffffffffffffffffffffffffffffffffffff1681526020019081526020015f205f828254610dca91906123c8565b9250508190555060055f8373ffffffffffffffffffffffffffffffffffffffff1673ffffffffffffffffffffffffffffffffffffffff1681526020019081526020015f205f815480929190610e1e90612381565b91905055508173ffffffffffffffffffffffffffffffffffffffff167fcff064d89477505103315f73f5e691bd8bcdcf9f4bfe2e4713bcdbac12810db482604051610e699190612652565b60405180910390a25050565b3373ffffffffffffffffffffffffffffffffffffffff1660015f8381526020019081526020015f205f015f9054906101000a900473ffffffffffffffffffffffffffffffffffffffff1673ffffffffffffffffffffffffffffffffffffffff1614610f15576040517f08c379a0000000000000000000000000000000000000000000000000000000008152600401610f0c906126b5565b60405180910390fd5b60015f8281526020019081526020015f206003015f9054906101000a900460ff1615610f76576040517f08c379a0000000000000000000000000000000000000000000000000000000008152600401610f6d9061271d565b60405180910390fd5b6001805f8381526020019081526020015f206003015f6101000a81548160ff0219169083151502179055503373ffffffffffffffffffffffffffffffffffffffff167fff0391c86d08750af277dd496813bf415c212a98090e0f6807c72d7f35eab11382604051610fe79190611d82565b60405180910390a2610ff881611bb4565b50565b5f811161103d576040517f08c379a0000000000000000000000000000000000000000000000000000000008152600401611034906124c9565b60405180910390fd5b5f60646009548361104e91906122b0565b611058919061231e565b90505f8183611067919061234e565b905060075f9054906101000a900473ffffffffffffffffffffffffffffffffffffffff1673ffffffffffffffffffffffffffffffffffffffff166323b872dd33600a5f9054906101000a900473ffffffffffffffffffffffffffffffffffffffff16856040518463ffffffff1660e01b81526004016110e89392919061273b565b6020604051808303815f875af1158015611104573d5f803e3d5ffd5b505050506040513d601f19601f82011682018060405250810190611128919061279a565b611167576040517f08c379a000000000000000000000000000000000000000000000000000000000815260040161115e9061280f565b60405180910390fd5b60075f9054906101000a900473ffffffffffffffffffffffffffffffffffffffff1673ffffffffffffffffffffffffffffffffffffffff166323b872dd3330846040518463ffffffff1660e01b81526004016111c59392919061273b565b6020604051808303815f875af11580156111e1573d5f803e3d5ffd5b505050506040513d601f19601f82011682018060405250810190611205919061279a565b611244576040517f08c379a000000000000000000000000000000000000000000000000000000000815260040161123b90612877565b60405180910390fd5b60065f81548092919061125690612381565b91905055506040518060e001604052803373ffffffffffffffffffffffffffffffffffffffff1681526020018573ffffffffffffffffffffffffffffffffffffffff1681526020018281526020015f151581526020015f15158152602001600854426112c291906123c8565b81526020015f151581525060015f60065481526020019081526020015f205f820151815f015f6101000a81548173ffffffffffffffffffffffffffffffffffffffff021916908373ffffffffffffffffffffffffffffffffffffffff1602179055506020820151816001015f6101000a81548173ffffffffffffffffffffffffffffffffffffffff021916908373ffffffffffffffffffffffffffffffffffffffff160217905550604082015181600201556060820151816003015f6101000a81548160ff02191690831515021790555060808201518160030160016101000a81548160ff02191690831515021790555060a0820151816004015560c0820151816005015f6101000a81548160ff0219169083151502179055509050508373ffffffffffffffffffffffffffffffffffffffff163373ffffffffffffffffffffffffffffffffffffffff167f62b4265ef816f751a94c5c93fa40a90302c6924509b973ed4094dcf30c6c61ed600654866040516114409291906128df565b60405180910390a350505050565b611456611b2d565b61145f5f611ca2565b565b6001602052805f5260405f205f91509050805f015f9054906101000a900473ffffffffffffffffffffffffffffffffffffffff1690806001015f9054906101000a900473ffffffffffffffffffffffffffffffffffffffff1690806002015490806003015f9054906101000a900460ff16908060030160019054906101000a900460ff1690806004015490806005015f9054906101000a900460ff16905087565b6005602052805f5260405f205f915090505481565b5f805f9054906101000a900473ffffffffffffffffffffffffffffffffffffffff16905090565b6004602052805f5260405f205f915090505481565b6003602052805f5260405f205f915090505481565b3373ffffffffffffffffffffffffffffffffffffffff1660015f8381526020019081526020015f205f015f9054906101000a900473ffffffffffffffffffffffffffffffffffffffff1673ffffffffffffffffffffffffffffffffffffffff1614611608576040517f08c379a00000000000000000000000000000000000000000000000000000000081526004016115ff90612963565b60405180910390fd5b60015f8281526020019081526020015f2060040154421161165e576040517f08c379a0000000000000000000000000000000000000000000000000000000008152600401611655906129cb565b60405180910390fd5b60015f8281526020019081526020015f2060030160019054906101000a900460ff16156116c0576040517f08c379a00000000000000000000000000000000000000000000000000000000081526004016116b790612a33565b60405180910390fd5b60015f8281526020019081526020015f206005015f9054906101000a900460ff1615611721576040517f08c379a000000000000000000000000000000000000000000000000000000000815260040161171890612a9b565b60405180910390fd5b6001805f8381526020019081526020015f206005015f6101000a81548160ff0219169083151502179055503373ffffffffffffffffffffffffffffffffffffffff166108fc60015f8481526020019081526020015f206002015490811502906040515f60405180830381858888f193505050501580156117a3573d5f803e3d5ffd5b503373ffffffffffffffffffffffffffffffffffffffff167f4f98299055c017596024bf5f17efb243bb559423f63a766e2effca248d0a9521826040516117ea9190611d82565b60405180910390a250565b5f8060055f8473ffffffffffffffffffffffffffffffffffffffff1673ffffffffffffffffffffffffffffffffffffffff1681526020019081526020015f205403611842575f90506118cb565b60055f8373ffffffffffffffffffffffffffffffffffffffff1673ffffffffffffffffffffffffffffffffffffffff1681526020019081526020015f205460045f8473ffffffffffffffffffffffffffffffffffffffff1673ffffffffffffffffffffffffffffffffffffffff1681526020019081526020015f20546118c8919061231e565b90505b919050565b60095481565b60075f9054906101000a900473ffffffffffffffffffffffffffffffffffffffff1681565b611903611b2d565b5f73ffffffffffffffffffffffffffffffffffffffff168173ffffffffffffffffffffffffffffffffffffffff1603611973575f6040517f1e4fbdf700000000000000000000000000000000000000000000000000000000815260040161196a919061218a565b60405180910390fd5b61197c81611ca2565b50565b600a5f9054906101000a900473ffffffffffffffffffffffffffffffffffffffff1681565b3373ffffffffffffffffffffffffffffffffffffffff1660015f8381526020019081526020015f206001015f9054906101000a900473ffffffffffffffffffffffffffffffffffffffff1673ffffffffffffffffffffffffffffffffffffffff1614611a45576040517f08c379a0000000000000000000000000000000000000000000000000000000008152600401611a3c90612b03565b60405180910390fd5b60015f8281526020019081526020015f2060030160019054906101000a900460ff1615611aa7576040517f08c379a0000000000000000000000000000000000000000000000000000000008152600401611a9e9061271d565b60405180910390fd5b6001805f8381526020019081526020015f2060030160016101000a81548160ff0219169083151502179055503373ffffffffffffffffffffffffffffffffffffffff167fff0391c86d08750af277dd496813bf415c212a98090e0f6807c72d7f35eab11382604051611b199190611d82565b60405180910390a2611b2a81611bb4565b50565b611b35611d63565b73ffffffffffffffffffffffffffffffffffffffff16611b53611517565b73ffffffffffffffffffffffffffffffffffffffff1614611bb257611b76611d63565b6040517f118cdaa7000000000000000000000000000000000000000000000000000000008152600401611ba9919061218a565b60405180910390fd5b565b60015f8281526020019081526020015f206003015f9054906101000a900460ff168015611bff575060015f8281526020019081526020015f2060030160019054906101000a900460ff165b15611c9f5760015f8281526020019081526020015f206002015460025f60015f8581526020019081526020015f206001015f9054906101000a900473ffffffffffffffffffffffffffffffffffffffff1673ffffffffffffffffffffffffffffffffffffffff1673ffffffffffffffffffffffffffffffffffffffff1681526020019081526020015f205f828254611c9791906123c8565b925050819055505b50565b5f805f9054906101000a900473ffffffffffffffffffffffffffffffffffffffff169050815f806101000a81548173ffffffffffffffffffffffffffffffffffffffff021916908373ffffffffffffffffffffffffffffffffffffffff1602179055508173ffffffffffffffffffffffffffffffffffffffff168173ffffffffffffffffffffffffffffffffffffffff167f8be0079c531659141344cd1fd0a4f28419497f9722a3daafe3b4186f6b6457e060405160405180910390a35050565b5f33905090565b5f819050919050565b611d7c81611d6a565b82525050565b5f602082019050611d955f830184611d73565b92915050565b5f604051905090565b5f80fd5b5f80fd5b5f73ffffffffffffffffffffffffffffffffffffffff82169050919050565b5f611dd582611dac565b9050919050565b611de581611dcb565b8114611def575f80fd5b50565b5f81359050611e0081611ddc565b92915050565b5f60208284031215611e1b57611e1a611da4565b5b5f611e2884828501611df2565b91505092915050565b611e3a81611d6a565b8114611e44575f80fd5b50565b5f81359050611e5581611e31565b92915050565b5f80fd5b5f80fd5b5f601f19601f8301169050919050565b7f4e487b71000000000000000000000000000000000000000000000000000000005f52604160045260245ffd5b611ea982611e63565b810181811067ffffffffffffffff82111715611ec857611ec7611e73565b5b80604052505050565b5f611eda611d9b565b9050611ee68282611ea0565b919050565b5f67ffffffffffffffff821115611f0557611f04611e73565b5b611f0e82611e63565b9050602081019050919050565b828183375f83830152505050565b5f611f3b611f3684611eeb565b611ed1565b905082815260208101848484011115611f5757611f56611e5f565b5b611f62848285611f1b565b509392505050565b5f82601f830112611f7e57611f7d611e5b565b5b8135611f8e848260208601611f29565b91505092915050565b5f805f8060808587031215611faf57611fae611da4565b5b5f611fbc87828801611df2565b9450506020611fcd87828801611df2565b9350506040611fde87828801611e47565b925050606085013567ffffffffffffffff811115611fff57611ffe611da8565b5b61200b87828801611f6a565b91505092959194509250565b5f60ff82169050919050565b61202c81612017565b8114612036575f80fd5b50565b5f8135905061204781612023565b92915050565b5f806040838503121561206357612062611da4565b5b5f61207085828601611df2565b925050602061208185828601612039565b9150509250929050565b5f602082840312156120a05761209f611da4565b5b5f6120ad84828501611e47565b91505092915050565b5f80604083850312156120cc576120cb611da4565b5b5f6120d985828601611df2565b92505060206120ea85828601611e47565b9150509250929050565b6120fd81611dcb565b82525050565b5f8115159050919050565b61211781612103565b82525050565b5f60e0820190506121305f83018a6120f4565b61213d60208301896120f4565b61214a6040830188611d73565b612157606083018761210e565b612164608083018661210e565b61217160a0830185611d73565b61217e60c083018461210e565b98975050505050505050565b5f60208201905061219d5f8301846120f4565b92915050565b5f82825260208201905092915050565b7f4e6f2066756e647320617661696c61626c6500000000000000000000000000005f82015250565b5f6121e76012836121a3565b91506121f2826121b3565b602082019050919050565b5f6020820190508181035f830152612214816121db565b9050919050565b7f5061796d656e74206d7573742062652067726561746572207468616e203000005f82015250565b5f61224f601e836121a3565b915061225a8261221b565b602082019050919050565b5f6020820190508181035f83015261227c81612243565b9050919050565b7f4e487b71000000000000000000000000000000000000000000000000000000005f52601160045260245ffd5b5f6122ba82611d6a565b91506122c583611d6a565b92508282026122d381611d6a565b915082820484148315176122ea576122e9612283565b5b5092915050565b7f4e487b71000000000000000000000000000000000000000000000000000000005f52601260045260245ffd5b5f61232882611d6a565b915061233383611d6a565b925082612343576123426122f1565b5b828204905092915050565b5f61235882611d6a565b915061236383611d6a565b925082820390508181111561237b5761237a612283565b5b92915050565b5f61238b82611d6a565b91507fffffffffffffffffffffffffffffffffffffffffffffffffffffffffffffffff82036123bd576123bc612283565b5b600182019050919050565b5f6123d282611d6a565b91506123dd83611d6a565b92508282019050808211156123f5576123f4612283565b5b92915050565b7f45544800000000000000000000000000000000000000000000000000000000005f82015250565b5f61242f6003836121a3565b915061243a826123fb565b602082019050919050565b5f6060820190506124585f830185611d73565b6124656020830184611d73565b818103604083015261247681612423565b90509392505050565b7f416d6f756e74206d7573742062652067726561746572207468616e20300000005f82015250565b5f6124b3601d836121a3565b91506124be8261247f565b602082019050919050565b5f6020820190508181035f8301526124e0816124a7565b9050919050565b5f81519050919050565b8281835e5f83830152505050565b5f612509826124e7565b61251381856121a3565b93506125238185602086016124f1565b61252c81611e63565b840191505092915050565b5f60608201905061254a5f830186611d73565b6125576020830185611d73565b818103604083015261256981846124ff565b9050949350505050565b7f526174696e67206d757374206265206265747765656e203120616e64203500005f82015250565b5f6125a7601e836121a3565b91506125b282612573565b602082019050919050565b5f6020820190508181035f8301526125d48161259b565b9050919050565b7f596f752063616e6e6f74207261746520796f757273656c6600000000000000005f82015250565b5f61260f6018836121a3565b915061261a826125db565b602082019050919050565b5f6020820190508181035f83015261263c81612603565b9050919050565b61264c81612017565b82525050565b5f6020820190506126655f830184612643565b92915050565b7f4f6e6c792062757965722063616e20617070726f7665000000000000000000005f82015250565b5f61269f6016836121a3565b91506126aa8261266b565b602082019050919050565b5f6020820190508181035f8301526126cc81612693565b9050919050565b7f416c726561647920617070726f766564000000000000000000000000000000005f82015250565b5f6127076010836121a3565b9150612712826126d3565b602082019050919050565b5f6020820190508181035f830152612734816126fb565b9050919050565b5f60608201905061274e5f8301866120f4565b61275b60208301856120f4565b6127686040830184611d73565b949350505050565b61277981612103565b8114612783575f80fd5b50565b5f8151905061279481612770565b92915050565b5f602082840312156127af576127ae611da4565b5b5f6127bc84828501612786565b91505092915050565b7f466565207472616e73666572206661696c6564000000000000000000000000005f82015250565b5f6127f96013836121a3565b9150612804826127c5565b602082019050919050565b5f6020820190508181035f830152612826816127ed565b9050919050565b7f537461626c65636f696e207472616e73666572206661696c65640000000000005f82015250565b5f612861601a836121a3565b915061286c8261282d565b602082019050919050565b5f6020820190508181035f83015261288e81612855565b9050919050565b7f537461626c65636f696e000000000000000000000000000000000000000000005f82015250565b5f6128c9600a836121a3565b91506128d482612895565b602082019050919050565b5f6060820190506128f25f830185611d73565b6128ff6020830184611d73565b8181036040830152612910816128bd565b90509392505050565b7f4f6e6c792062757965722063616e207265717565737420726566756e640000005f82015250565b5f61294d601d836121a3565b915061295882612919565b602082019050919050565b5f6020820190508181035f83015261297a81612941565b9050919050565b7f457363726f772074696d65206e6f7420657870697265640000000000000000005f82015250565b5f6129b56017836121a3565b91506129c082612981565b602082019050919050565b5f6020820190508181035f8301526129e2816129a9565b9050919050565b7f43726561746f722068617320616c726561647920617070726f766564000000005f82015250565b5f612a1d601c836121a3565b9150612a28826129e9565b602082019050919050565b5f6020820190508181035f830152612a4a81612a11565b9050919050565b7f416c726561647920726566756e646564000000000000000000000000000000005f82015250565b5f612a856010836121a3565b9150612a9082612a51565b602082019050919050565b5f6020820190508181035f830152612ab281612a79565b9050919050565b7f4f6e6c792063726561746f722063616e20636f6e6669726d00000000000000005f82015250565b5f612aed6018836121a3565b9150612af882612ab9565b602082019050919050565b5f6020820190508181035f830152612b1a81612ae1565b905091905056fea2646970667358221220814252c5bac6074efa77db2d975a41d101b333c87718212d069b751329cc0a9464736f6c634300081a0033",
					"opcodes": "PUSH1 0x80 PUSH1 0x40 MSTORE PUSH3 0x3F480 PUSH1 0x8 SSTORE PUSH1 0x5 PUSH1 0x9 SSTORE CALLVALUE DUP1 ISZERO PUSH2 0x1B JUMPI PUSH0 DUP1 REVERT JUMPDEST POP PUSH1 0x40 MLOAD PUSH2 0x2E2E CODESIZE SUB DUP1 PUSH2 0x2E2E DUP4 CODECOPY DUP2 DUP2 ADD PUSH1 0x40 MSTORE DUP2 ADD SWAP1 PUSH2 0x3D SWAP2 SWAP1 PUSH2 0x264 JUMP JUMPDEST ADDRESS PUSH0 PUSH20 0xFFFFFFFFFFFFFFFFFFFFFFFFFFFFFFFFFFFFFFFF AND DUP2 PUSH20 0xFFFFFFFFFFFFFFFFFFFFFFFFFFFFFFFFFFFFFFFF AND SUB PUSH2 0xAE JUMPI PUSH0 PUSH1 0x40 MLOAD PUSH32 0x1E4FBDF700000000000000000000000000000000000000000000000000000000 DUP2 MSTORE PUSH1 0x4 ADD PUSH2 0xA5 SWAP2 SWAP1 PUSH2 0x2B1 JUMP JUMPDEST PUSH1 0x40 MLOAD DUP1 SWAP2 SUB SWAP1 REVERT JUMPDEST PUSH2 0xBD DUP2 PUSH2 0x145 PUSH1 0x20 SHL PUSH1 0x20 SHR JUMP JUMPDEST POP DUP2 PUSH1 0x7 PUSH0 PUSH2 0x100 EXP DUP2 SLOAD DUP2 PUSH20 0xFFFFFFFFFFFFFFFFFFFFFFFFFFFFFFFFFFFFFFFF MUL NOT AND SWAP1 DUP4 PUSH20 0xFFFFFFFFFFFFFFFFFFFFFFFFFFFFFFFFFFFFFFFF AND MUL OR SWAP1 SSTORE POP DUP1 PUSH1 0xA PUSH0 PUSH2 0x100 EXP DUP2 SLOAD DUP2 PUSH20 0xFFFFFFFFFFFFFFFFFFFFFFFFFFFFFFFFFFFFFFFF MUL NOT AND SWAP1 DUP4 PUSH20 0xFFFFFFFFFFFFFFFFFFFFFFFFFFFFFFFFFFFFFFFF AND MUL OR SWAP1 SSTORE POP POP POP PUSH2 0x2CA JUMP JUMPDEST PUSH0 DUP1 PUSH0 SWAP1 SLOAD SWAP1 PUSH2 0x100 EXP SWAP1 DIV PUSH20 0xFFFFFFFFFFFFFFFFFFFFFFFFFFFFFFFFFFFFFFFF AND SWAP1 POP DUP2 PUSH0 DUP1 PUSH2 0x100 EXP DUP2 SLOAD DUP2 PUSH20 0xFFFFFFFFFFFFFFFFFFFFFFFFFFFFFFFFFFFFFFFF MUL NOT AND SWAP1 DUP4 PUSH20 0xFFFFFFFFFFFFFFFFFFFFFFFFFFFFFFFFFFFFFFFF AND MUL OR SWAP1 SSTORE POP DUP2 PUSH20 0xFFFFFFFFFFFFFFFFFFFFFFFFFFFFFFFFFFFFFFFF AND DUP2 PUSH20 0xFFFFFFFFFFFFFFFFFFFFFFFFFFFFFFFFFFFFFFFF AND PUSH32 0x8BE0079C531659141344CD1FD0A4F28419497F9722A3DAAFE3B4186F6B6457E0 PUSH1 0x40 MLOAD PUSH1 0x40 MLOAD DUP1 SWAP2 SUB SWAP1 LOG3 POP POP JUMP JUMPDEST PUSH0 DUP1 REVERT JUMPDEST PUSH0 PUSH20 0xFFFFFFFFFFFFFFFFFFFFFFFFFFFFFFFFFFFFFFFF DUP3 AND SWAP1 POP SWAP2 SWAP1 POP JUMP JUMPDEST PUSH0 PUSH2 0x233 DUP3 PUSH2 0x20A JUMP JUMPDEST SWAP1 POP SWAP2 SWAP1 POP JUMP JUMPDEST PUSH2 0x243 DUP2 PUSH2 0x229 JUMP JUMPDEST DUP2 EQ PUSH2 0x24D JUMPI PUSH0 DUP1 REVERT JUMPDEST POP JUMP JUMPDEST PUSH0 DUP2 MLOAD SWAP1 POP PUSH2 0x25E DUP2 PUSH2 0x23A JUMP JUMPDEST SWAP3 SWAP2 POP POP JUMP JUMPDEST PUSH0 DUP1 PUSH1 0x40 DUP4 DUP6 SUB SLT ISZERO PUSH2 0x27A JUMPI PUSH2 0x279 PUSH2 0x206 JUMP JUMPDEST JUMPDEST PUSH0 PUSH2 0x287 DUP6 DUP3 DUP7 ADD PUSH2 0x250 JUMP JUMPDEST SWAP3 POP POP PUSH1 0x20 PUSH2 0x298 DUP6 DUP3 DUP7 ADD PUSH2 0x250 JUMP JUMPDEST SWAP2 POP POP SWAP3 POP SWAP3 SWAP1 POP JUMP JUMPDEST PUSH2 0x2AB DUP2 PUSH2 0x229 JUMP JUMPDEST DUP3 MSTORE POP POP JUMP JUMPDEST PUSH0 PUSH1 0x20 DUP3 ADD SWAP1 POP PUSH2 0x2C4 PUSH0 DUP4 ADD DUP5 PUSH2 0x2A2 JUMP JUMPDEST SWAP3 SWAP2 POP POP JUMP JUMPDEST PUSH2 0x2B57 DUP1 PUSH2 0x2D7 PUSH0 CODECOPY PUSH0 RETURN INVALID PUSH1 0x80 PUSH1 0x40 MSTORE PUSH1 0x4 CALLDATASIZE LT PUSH2 0x13F JUMPI PUSH0 CALLDATALOAD PUSH1 0xE0 SHR DUP1 PUSH4 0x8392FE31 GT PUSH2 0xB5 JUMPI DUP1 PUSH4 0xC8B67522 GT PUSH2 0x6E JUMPI DUP1 PUSH4 0xC8B67522 EQ PUSH2 0x43F JUMPI DUP1 PUSH4 0xCDD78CFC EQ PUSH2 0x47B JUMPI DUP1 PUSH4 0xE9CBD822 EQ PUSH2 0x4A5 JUMPI DUP1 PUSH4 0xF2FDE38B EQ PUSH2 0x4CF JUMPI DUP1 PUSH4 0xFA2AF9DA EQ PUSH2 0x4F7 JUMPI DUP1 PUSH4 0xFD84CB97 EQ PUSH2 0x521 JUMPI PUSH2 0x13F JUMP JUMPDEST DUP1 PUSH4 0x8392FE31 EQ PUSH2 0x2F7 JUMPI DUP1 PUSH4 0x8B609DAB EQ PUSH2 0x339 JUMPI DUP1 PUSH4 0x8DA5CB5B EQ PUSH2 0x375 JUMPI DUP1 PUSH4 0x9E01DFBB EQ PUSH2 0x39F JUMPI DUP1 PUSH4 0x9F766246 EQ PUSH2 0x3DB JUMPI DUP1 PUSH4 0xA4B2409E EQ PUSH2 0x417 JUMPI PUSH2 0x13F JUMP JUMPDEST DUP1 PUSH4 0x3222365F GT PUSH2 0x107 JUMPI DUP1 PUSH4 0x3222365F EQ PUSH2 0x205 JUMPI DUP1 PUSH4 0x454C1723 EQ PUSH2 0x22D JUMPI DUP1 PUSH4 0x57AC1D07 EQ PUSH2 0x269 JUMPI DUP1 PUSH4 0x589C9648 EQ PUSH2 0x291 JUMPI DUP1 PUSH4 0x604CBEE4 EQ PUSH2 0x2B9 JUMPI DUP1 PUSH4 0x715018A6 EQ PUSH2 0x2E1 JUMPI PUSH2 0x13F JUMP JUMPDEST DUP1 PUSH4 0x55680F0 EQ PUSH2 0x143 JUMPI DUP1 PUSH4 0x1B41C1FF EQ PUSH2 0x16D JUMPI DUP1 PUSH4 0x24600FC3 EQ PUSH2 0x197 JUMPI DUP1 PUSH4 0x279805C9 EQ PUSH2 0x1AD JUMPI DUP1 PUSH4 0x2A782802 EQ PUSH2 0x1C9 JUMPI JUMPDEST PUSH0 DUP1 REVERT JUMPDEST CALLVALUE DUP1 ISZERO PUSH2 0x14E JUMPI PUSH0 DUP1 REVERT JUMPDEST POP PUSH2 0x157 PUSH2 0x549 JUMP JUMPDEST PUSH1 0x40 MLOAD PUSH2 0x164 SWAP2 SWAP1 PUSH2 0x1D82 JUMP JUMPDEST PUSH1 0x40 MLOAD DUP1 SWAP2 SUB SWAP1 RETURN JUMPDEST CALLVALUE DUP1 ISZERO PUSH2 0x178 JUMPI PUSH0 DUP1 REVERT JUMPDEST POP PUSH2 0x181 PUSH2 0x54F JUMP JUMPDEST PUSH1 0x40 MLOAD PUSH2 0x18E SWAP2 SWAP1 PUSH2 0x1D82 JUMP JUMPDEST PUSH1 0x40 MLOAD DUP1 SWAP2 SUB SWAP1 RETURN JUMPDEST CALLVALUE DUP1 ISZERO PUSH2 0x1A2 JUMPI PUSH0 DUP1 REVERT JUMPDEST POP PUSH2 0x1AB PUSH2 0x555 JUMP JUMPDEST STOP JUMPDEST PUSH2 0x1C7 PUSH1 0x4 DUP1 CALLDATASIZE SUB DUP2 ADD SWAP1 PUSH2 0x1C2 SWAP2 SWAP1 PUSH2 0x1E06 JUMP JUMPDEST PUSH2 0x6AF JUMP JUMPDEST STOP JUMPDEST CALLVALUE DUP1 ISZERO PUSH2 0x1D4 JUMPI PUSH0 DUP1 REVERT JUMPDEST POP PUSH2 0x1EF PUSH1 0x4 DUP1 CALLDATASIZE SUB DUP2 ADD SWAP1 PUSH2 0x1EA SWAP2 SWAP1 PUSH2 0x1E06 JUMP JUMPDEST PUSH2 0x98B JUMP JUMPDEST PUSH1 0x40 MLOAD PUSH2 0x1FC SWAP2 SWAP1 PUSH2 0x1D82 JUMP JUMPDEST PUSH1 0x40 MLOAD DUP1 SWAP2 SUB SWAP1 RETURN JUMPDEST CALLVALUE DUP1 ISZERO PUSH2 0x210 JUMPI PUSH0 DUP1 REVERT JUMPDEST POP PUSH2 0x22B PUSH1 0x4 DUP1 CALLDATASIZE SUB DUP2 ADD SWAP1 PUSH2 0x226 SWAP2 SWAP1 PUSH2 0x1F97 JUMP JUMPDEST PUSH2 0x9A0 JUMP JUMPDEST STOP JUMPDEST CALLVALUE DUP1 ISZERO PUSH2 0x238 JUMPI PUSH0 DUP1 REVERT JUMPDEST POP PUSH2 0x253 PUSH1 0x4 DUP1 CALLDATASIZE SUB DUP2 ADD SWAP1 PUSH2 0x24E SWAP2 SWAP1 PUSH2 0x1E06 JUMP JUMPDEST PUSH2 0xC72 JUMP JUMPDEST PUSH1 0x40 MLOAD PUSH2 0x260 SWAP2 SWAP1 PUSH2 0x1D82 JUMP JUMPDEST PUSH1 0x40 MLOAD DUP1 SWAP2 SUB SWAP1 RETURN JUMPDEST CALLVALUE DUP1 ISZERO PUSH2 0x274 JUMPI PUSH0 DUP1 REVERT JUMPDEST POP PUSH2 0x28F PUSH1 0x4 DUP1 CALLDATASIZE SUB DUP2 ADD SWAP1 PUSH2 0x28A SWAP2 SWAP1 PUSH2 0x204D JUMP JUMPDEST PUSH2 0xCB8 JUMP JUMPDEST STOP JUMPDEST CALLVALUE DUP1 ISZERO PUSH2 0x29C JUMPI PUSH0 DUP1 REVERT JUMPDEST POP PUSH2 0x2B7 PUSH1 0x4 DUP1 CALLDATASIZE SUB DUP2 ADD SWAP1 PUSH2 0x2B2 SWAP2 SWAP1 PUSH2 0x208B JUMP JUMPDEST PUSH2 0xE75 JUMP JUMPDEST STOP JUMPDEST CALLVALUE DUP1 ISZERO PUSH2 0x2C4 JUMPI PUSH0 DUP1 REVERT JUMPDEST POP PUSH2 0x2DF PUSH1 0x4 DUP1 CALLDATASIZE SUB DUP2 ADD SWAP1 PUSH2 0x2DA SWAP2 SWAP1 PUSH2 0x20B6 JUMP JUMPDEST PUSH2 0xFFB JUMP JUMPDEST STOP JUMPDEST CALLVALUE DUP1 ISZERO PUSH2 0x2EC JUMPI PUSH0 DUP1 REVERT JUMPDEST POP PUSH2 0x2F5 PUSH2 0x144E JUMP JUMPDEST STOP JUMPDEST CALLVALUE DUP1 ISZERO PUSH2 0x302 JUMPI PUSH0 DUP1 REVERT JUMPDEST POP PUSH2 0x31D PUSH1 0x4 DUP1 CALLDATASIZE SUB DUP2 ADD SWAP1 PUSH2 0x318 SWAP2 SWAP1 PUSH2 0x208B JUMP JUMPDEST PUSH2 0x1461 JUMP JUMPDEST PUSH1 0x40 MLOAD PUSH2 0x330 SWAP8 SWAP7 SWAP6 SWAP5 SWAP4 SWAP3 SWAP2 SWAP1 PUSH2 0x211D JUMP JUMPDEST PUSH1 0x40 MLOAD DUP1 SWAP2 SUB SWAP1 RETURN JUMPDEST CALLVALUE DUP1 ISZERO PUSH2 0x344 JUMPI PUSH0 DUP1 REVERT JUMPDEST POP PUSH2 0x35F PUSH1 0x4 DUP1 CALLDATASIZE SUB DUP2 ADD SWAP1 PUSH2 0x35A SWAP2 SWAP1 PUSH2 0x1E06 JUMP JUMPDEST PUSH2 0x1502 JUMP JUMPDEST PUSH1 0x40 MLOAD PUSH2 0x36C SWAP2 SWAP1 PUSH2 0x1D82 JUMP JUMPDEST PUSH1 0x40 MLOAD DUP1 SWAP2 SUB SWAP1 RETURN JUMPDEST CALLVALUE DUP1 ISZERO PUSH2 0x380 JUMPI PUSH0 DUP1 REVERT JUMPDEST POP PUSH2 0x389 PUSH2 0x1517 JUMP JUMPDEST PUSH1 0x40 MLOAD PUSH2 0x396 SWAP2 SWAP1 PUSH2 0x218A JUMP JUMPDEST PUSH1 0x40 MLOAD DUP1 SWAP2 SUB SWAP1 RETURN JUMPDEST CALLVALUE DUP1 ISZERO PUSH2 0x3AA JUMPI PUSH0 DUP1 REVERT JUMPDEST POP PUSH2 0x3C5 PUSH1 0x4 DUP1 CALLDATASIZE SUB DUP2 ADD SWAP1 PUSH2 0x3C0 SWAP2 SWAP1 PUSH2 0x1E06 JUMP JUMPDEST PUSH2 0x153E JUMP JUMPDEST PUSH1 0x40 MLOAD PUSH2 0x3D2 SWAP2 SWAP1 PUSH2 0x1D82 JUMP JUMPDEST PUSH1 0x40 MLOAD DUP1 SWAP2 SUB SWAP1 RETURN JUMPDEST CALLVALUE DUP1 ISZERO PUSH2 0x3E6 JUMPI PUSH0 DUP1 REVERT JUMPDEST POP PUSH2 0x401 PUSH1 0x4 DUP1 CALLDATASIZE SUB DUP2 ADD SWAP1 PUSH2 0x3FC SWAP2 SWAP1 PUSH2 0x1E06 JUMP JUMPDEST PUSH2 0x1553 JUMP JUMPDEST PUSH1 0x40 MLOAD PUSH2 0x40E SWAP2 SWAP1 PUSH2 0x1D82 JUMP JUMPDEST PUSH1 0x40 MLOAD DUP1 SWAP2 SUB SWAP1 RETURN JUMPDEST CALLVALUE DUP1 ISZERO PUSH2 0x422 JUMPI PUSH0 DUP1 REVERT JUMPDEST POP PUSH2 0x43D PUSH1 0x4 DUP1 CALLDATASIZE SUB DUP2 ADD SWAP1 PUSH2 0x438 SWAP2 SWAP1 PUSH2 0x208B JUMP JUMPDEST PUSH2 0x1568 JUMP JUMPDEST STOP JUMPDEST CALLVALUE DUP1 ISZERO PUSH2 0x44A JUMPI PUSH0 DUP1 REVERT JUMPDEST POP PUSH2 0x465 PUSH1 0x4 DUP1 CALLDATASIZE SUB DUP2 ADD SWAP1 PUSH2 0x460 SWAP2 SWAP1 PUSH2 0x1E06 JUMP JUMPDEST PUSH2 0x17F5 JUMP JUMPDEST PUSH1 0x40 MLOAD PUSH2 0x472 SWAP2 SWAP1 PUSH2 0x1D82 JUMP JUMPDEST PUSH1 0x40 MLOAD DUP1 SWAP2 SUB SWAP1 RETURN JUMPDEST CALLVALUE DUP1 ISZERO PUSH2 0x486 JUMPI PUSH0 DUP1 REVERT JUMPDEST POP PUSH2 0x48F PUSH2 0x18D0 JUMP JUMPDEST PUSH1 0x40 MLOAD PUSH2 0x49C SWAP2 SWAP1 PUSH2 0x1D82 JUMP JUMPDEST PUSH1 0x40 MLOAD DUP1 SWAP2 SUB SWAP1 RETURN JUMPDEST CALLVALUE DUP1 ISZERO PUSH2 0x4B0 JUMPI PUSH0 DUP1 REVERT JUMPDEST POP PUSH2 0x4B9 PUSH2 0x18D6 JUMP JUMPDEST PUSH1 0x40 MLOAD PUSH2 0x4C6 SWAP2 SWAP1 PUSH2 0x218A JUMP JUMPDEST PUSH1 0x40 MLOAD DUP1 SWAP2 SUB SWAP1 RETURN JUMPDEST CALLVALUE DUP1 ISZERO PUSH2 0x4DA JUMPI PUSH0 DUP1 REVERT JUMPDEST POP PUSH2 0x4F5 PUSH1 0x4 DUP1 CALLDATASIZE SUB DUP2 ADD SWAP1 PUSH2 0x4F0 SWAP2 SWAP1 PUSH2 0x1E06 JUMP JUMPDEST PUSH2 0x18FB JUMP JUMPDEST STOP JUMPDEST CALLVALUE DUP1 ISZERO PUSH2 0x502 JUMPI PUSH0 DUP1 REVERT JUMPDEST POP PUSH2 0x50B PUSH2 0x197F JUMP JUMPDEST PUSH1 0x40 MLOAD PUSH2 0x518 SWAP2 SWAP1 PUSH2 0x218A JUMP JUMPDEST PUSH1 0x40 MLOAD DUP1 SWAP2 SUB SWAP1 RETURN JUMPDEST CALLVALUE DUP1 ISZERO PUSH2 0x52C JUMPI PUSH0 DUP1 REVERT JUMPDEST POP PUSH2 0x547 PUSH1 0x4 DUP1 CALLDATASIZE SUB DUP2 ADD SWAP1 PUSH2 0x542 SWAP2 SWAP1 PUSH2 0x208B JUMP JUMPDEST PUSH2 0x19A4 JUMP JUMPDEST STOP JUMPDEST PUSH1 0x6 SLOAD DUP2 JUMP JUMPDEST PUSH1 0x8 SLOAD DUP2 JUMP JUMPDEST PUSH0 PUSH1 0x2 PUSH0 CALLER PUSH20 0xFFFFFFFFFFFFFFFFFFFFFFFFFFFFFFFFFFFFFFFF AND PUSH20 0xFFFFFFFFFFFFFFFFFFFFFFFFFFFFFFFFFFFFFFFF AND DUP2 MSTORE PUSH1 0x20 ADD SWAP1 DUP2 MSTORE PUSH1 0x20 ADD PUSH0 KECCAK256 SLOAD SWAP1 POP PUSH0 DUP2 GT PUSH2 0x5D8 JUMPI PUSH1 0x40 MLOAD PUSH32 0x8C379A000000000000000000000000000000000000000000000000000000000 DUP2 MSTORE PUSH1 0x4 ADD PUSH2 0x5CF SWAP1 PUSH2 0x21FD JUMP JUMPDEST PUSH1 0x40 MLOAD DUP1 SWAP2 SUB SWAP1 REVERT JUMPDEST PUSH0 PUSH1 0x2 PUSH0 CALLER PUSH20 0xFFFFFFFFFFFFFFFFFFFFFFFFFFFFFFFFFFFFFFFF AND PUSH20 0xFFFFFFFFFFFFFFFFFFFFFFFFFFFFFFFFFFFFFFFF AND DUP2 MSTORE PUSH1 0x20 ADD SWAP1 DUP2 MSTORE PUSH1 0x20 ADD PUSH0 KECCAK256 DUP2 SWAP1 SSTORE POP CALLER PUSH20 0xFFFFFFFFFFFFFFFFFFFFFFFFFFFFFFFFFFFFFFFF AND PUSH2 0x8FC DUP3 SWAP1 DUP2 ISZERO MUL SWAP1 PUSH1 0x40 MLOAD PUSH0 PUSH1 0x40 MLOAD DUP1 DUP4 SUB DUP2 DUP6 DUP9 DUP9 CALL SWAP4 POP POP POP POP ISZERO DUP1 ISZERO PUSH2 0x65D JUMPI RETURNDATASIZE PUSH0 DUP1 RETURNDATACOPY RETURNDATASIZE PUSH0 REVERT JUMPDEST POP CALLER PUSH20 0xFFFFFFFFFFFFFFFFFFFFFFFFFFFFFFFFFFFFFFFF AND PUSH32 0x957727802C31109ADCFF14FCFBD2DC576E9BFD4D6385DDD160FE42832A4555FE DUP3 PUSH1 0x40 MLOAD PUSH2 0x6A4 SWAP2 SWAP1 PUSH2 0x1D82 JUMP JUMPDEST PUSH1 0x40 MLOAD DUP1 SWAP2 SUB SWAP1 LOG2 POP JUMP JUMPDEST PUSH0 CALLVALUE GT PUSH2 0x6F1 JUMPI PUSH1 0x40 MLOAD PUSH32 0x8C379A000000000000000000000000000000000000000000000000000000000 DUP2 MSTORE PUSH1 0x4 ADD PUSH2 0x6E8 SWAP1 PUSH2 0x2265 JUMP JUMPDEST PUSH1 0x40 MLOAD DUP1 SWAP2 SUB SWAP1 REVERT JUMPDEST PUSH0 PUSH1 0x64 PUSH1 0x9 SLOAD CALLVALUE PUSH2 0x702 SWAP2 SWAP1 PUSH2 0x22B0 JUMP JUMPDEST PUSH2 0x70C SWAP2 SWAP1 PUSH2 0x231E JUMP JUMPDEST SWAP1 POP PUSH0 DUP2 CALLVALUE PUSH2 0x71B SWAP2 SWAP1 PUSH2 0x234E JUMP JUMPDEST SWAP1 POP PUSH1 0x6 PUSH0 DUP2 SLOAD DUP1 SWAP3 SWAP2 SWAP1 PUSH2 0x72F SWAP1 PUSH2 0x2381 JUMP JUMPDEST SWAP2 SWAP1 POP SSTORE POP PUSH1 0x40 MLOAD DUP1 PUSH1 0xE0 ADD PUSH1 0x40 MSTORE DUP1 CALLER PUSH20 0xFFFFFFFFFFFFFFFFFFFFFFFFFFFFFFFFFFFFFFFF AND DUP2 MSTORE PUSH1 0x20 ADD DUP5 PUSH20 0xFFFFFFFFFFFFFFFFFFFFFFFFFFFFFFFFFFFFFFFF AND DUP2 MSTORE PUSH1 0x20 ADD DUP3 DUP2 MSTORE PUSH1 0x20 ADD PUSH0 ISZERO ISZERO DUP2 MSTORE PUSH1 0x20 ADD PUSH0 ISZERO ISZERO DUP2 MSTORE PUSH1 0x20 ADD PUSH1 0x8 SLOAD TIMESTAMP PUSH2 0x79B SWAP2 SWAP1 PUSH2 0x23C8 JUMP JUMPDEST DUP2 MSTORE PUSH1 0x20 ADD PUSH0 ISZERO ISZERO DUP2 MSTORE POP PUSH1 0x1 PUSH0 PUSH1 0x6 SLOAD DUP2 MSTORE PUSH1 0x20 ADD SWAP1 DUP2 MSTORE PUSH1 0x20 ADD PUSH0 KECCAK256 PUSH0 DUP3 ADD MLOAD DUP2 PUSH0 ADD PUSH0 PUSH2 0x100 EXP DUP2 SLOAD DUP2 PUSH20 0xFFFFFFFFFFFFFFFFFFFFFFFFFFFFFFFFFFFFFFFF MUL NOT AND SWAP1 DUP4 PUSH20 0xFFFFFFFFFFFFFFFFFFFFFFFFFFFFFFFFFFFFFFFF AND MUL OR SWAP1 SSTORE POP PUSH1 0x20 DUP3 ADD MLOAD DUP2 PUSH1 0x1 ADD PUSH0 PUSH2 0x100 EXP DUP2 SLOAD DUP2 PUSH20 0xFFFFFFFFFFFFFFFFFFFFFFFFFFFFFFFFFFFFFFFF MUL NOT AND SWAP1 DUP4 PUSH20 0xFFFFFFFFFFFFFFFFFFFFFFFFFFFFFFFFFFFFFFFF AND MUL OR SWAP1 SSTORE POP PUSH1 0x40 DUP3 ADD MLOAD DUP2 PUSH1 0x2 ADD SSTORE PUSH1 0x60 DUP3 ADD MLOAD DUP2 PUSH1 0x3 ADD PUSH0 PUSH2 0x100 EXP DUP2 SLOAD DUP2 PUSH1 0xFF MUL NOT AND SWAP1 DUP4 ISZERO ISZERO MUL OR SWAP1 SSTORE POP PUSH1 0x80 DUP3 ADD MLOAD DUP2 PUSH1 0x3 ADD PUSH1 0x1 PUSH2 0x100 EXP DUP2 SLOAD DUP2 PUSH1 0xFF MUL NOT AND SWAP1 DUP4 ISZERO ISZERO MUL OR SWAP1 SSTORE POP PUSH1 0xA0 DUP3 ADD MLOAD DUP2 PUSH1 0x4 ADD SSTORE PUSH1 0xC0 DUP3 ADD MLOAD DUP2 PUSH1 0x5 ADD PUSH0 PUSH2 0x100 EXP DUP2 SLOAD DUP2 PUSH1 0xFF MUL NOT AND SWAP1 DUP4 ISZERO ISZERO MUL OR SWAP1 SSTORE POP SWAP1 POP POP PUSH1 0xA PUSH0 SWAP1 SLOAD SWAP1 PUSH2 0x100 EXP SWAP1 DIV PUSH20 0xFFFFFFFFFFFFFFFFFFFFFFFFFFFFFFFFFFFFFFFF AND PUSH20 0xFFFFFFFFFFFFFFFFFFFFFFFFFFFFFFFFFFFFFFFF AND PUSH2 0x8FC DUP4 SWAP1 DUP2 ISZERO MUL SWAP1 PUSH1 0x40 MLOAD PUSH0 PUSH1 0x40 MLOAD DUP1 DUP4 SUB DUP2 DUP6 DUP9 DUP9 CALL SWAP4 POP POP POP POP ISZERO DUP1 ISZERO PUSH2 0x91C JUMPI RETURNDATASIZE PUSH0 DUP1 RETURNDATACOPY RETURNDATASIZE PUSH0 REVERT JUMPDEST POP DUP3 PUSH20 0xFFFFFFFFFFFFFFFFFFFFFFFFFFFFFFFFFFFFFFFF AND CALLER PUSH20 0xFFFFFFFFFFFFFFFFFFFFFFFFFFFFFFFFFFFFFFFF AND PUSH32 0x62B4265EF816F751A94C5C93FA40A90302C6924509B973ED4094DCF30C6C61ED PUSH1 0x6 SLOAD CALLVALUE PUSH1 0x40 MLOAD PUSH2 0x97E SWAP3 SWAP2 SWAP1 PUSH2 0x2445 JUMP JUMPDEST PUSH1 0x40 MLOAD DUP1 SWAP2 SUB SWAP1 LOG3 POP POP POP JUMP JUMPDEST PUSH1 0x2 PUSH1 0x20 MSTORE DUP1 PUSH0 MSTORE PUSH1 0x40 PUSH0 KECCAK256 PUSH0 SWAP2 POP SWAP1 POP SLOAD DUP2 JUMP JUMPDEST PUSH2 0x9A8 PUSH2 0x1B2D JUMP JUMPDEST PUSH0 DUP3 GT PUSH2 0x9EA JUMPI PUSH1 0x40 MLOAD PUSH32 0x8C379A000000000000000000000000000000000000000000000000000000000 DUP2 MSTORE PUSH1 0x4 ADD PUSH2 0x9E1 SWAP1 PUSH2 0x24C9 JUMP JUMPDEST PUSH1 0x40 MLOAD DUP1 SWAP2 SUB SWAP1 REVERT JUMPDEST PUSH0 PUSH1 0x64 PUSH1 0x9 SLOAD DUP5 PUSH2 0x9FB SWAP2 SWAP1 PUSH2 0x22B0 JUMP JUMPDEST PUSH2 0xA05 SWAP2 SWAP1 PUSH2 0x231E JUMP JUMPDEST SWAP1 POP PUSH0 DUP2 DUP5 PUSH2 0xA14 SWAP2 SWAP1 PUSH2 0x234E JUMP JUMPDEST SWAP1 POP PUSH1 0xA PUSH0 SWAP1 SLOAD SWAP1 PUSH2 0x100 EXP SWAP1 DIV PUSH20 0xFFFFFFFFFFFFFFFFFFFFFFFFFFFFFFFFFFFFFFFF AND PUSH20 0xFFFFFFFFFFFFFFFFFFFFFFFFFFFFFFFFFFFFFFFF AND PUSH2 0x8FC DUP4 SWAP1 DUP2 ISZERO MUL SWAP1 PUSH1 0x40 MLOAD PUSH0 PUSH1 0x40 MLOAD DUP1 DUP4 SUB DUP2 DUP6 DUP9 DUP9 CALL SWAP4 POP POP POP POP ISZERO DUP1 ISZERO PUSH2 0xA7A JUMPI RETURNDATASIZE PUSH0 DUP1 RETURNDATACOPY RETURNDATASIZE PUSH0 REVERT JUMPDEST POP PUSH1 0x6 PUSH0 DUP2 SLOAD DUP1 SWAP3 SWAP2 SWAP1 PUSH2 0xA8D SWAP1 PUSH2 0x2381 JUMP JUMPDEST SWAP2 SWAP1 POP SSTORE POP PUSH1 0x40 MLOAD DUP1 PUSH1 0xE0 ADD PUSH1 0x40 MSTORE DUP1 DUP8 PUSH20 0xFFFFFFFFFFFFFFFFFFFFFFFFFFFFFFFFFFFFFFFF AND DUP2 MSTORE PUSH1 0x20 ADD DUP7 PUSH20 0xFFFFFFFFFFFFFFFFFFFFFFFFFFFFFFFFFFFFFFFF AND DUP2 MSTORE PUSH1 0x20 ADD DUP3 DUP2 MSTORE PUSH1 0x20 ADD PUSH0 ISZERO ISZERO DUP2 MSTORE PUSH1 0x20 ADD PUSH0 ISZERO ISZERO DUP2 MSTORE PUSH1 0x20 ADD PUSH1 0x8 SLOAD TIMESTAMP PUSH2 0xAF9 SWAP2 SWAP1 PUSH2 0x23C8 JUMP JUMPDEST DUP2 MSTORE PUSH1 0x20 ADD PUSH0 ISZERO ISZERO DUP2 MSTORE POP PUSH1 0x1 PUSH0 PUSH1 0x6 SLOAD DUP2 MSTORE PUSH1 0x20 ADD SWAP1 DUP2 MSTORE PUSH1 0x20 ADD PUSH0 KECCAK256 PUSH0 DUP3 ADD MLOAD DUP2 PUSH0 ADD PUSH0 PUSH2 0x100 EXP DUP2 SLOAD DUP2 PUSH20 0xFFFFFFFFFFFFFFFFFFFFFFFFFFFFFFFFFFFFFFFF MUL NOT AND SWAP1 DUP4 PUSH20 0xFFFFFFFFFFFFFFFFFFFFFFFFFFFFFFFFFFFFFFFF AND MUL OR SWAP1 SSTORE POP PUSH1 0x20 DUP3 ADD MLOAD DUP2 PUSH1 0x1 ADD PUSH0 PUSH2 0x100 EXP DUP2 SLOAD DUP2 PUSH20 0xFFFFFFFFFFFFFFFFFFFFFFFFFFFFFFFFFFFFFFFF MUL NOT AND SWAP1 DUP4 PUSH20 0xFFFFFFFFFFFFFFFFFFFFFFFFFFFFFFFFFFFFFFFF AND MUL OR SWAP1 SSTORE POP PUSH1 0x40 DUP3 ADD MLOAD DUP2 PUSH1 0x2 ADD SSTORE PUSH1 0x60 DUP3 ADD MLOAD DUP2 PUSH1 0x3 ADD PUSH0 PUSH2 0x100 EXP DUP2 SLOAD DUP2 PUSH1 0xFF MUL NOT AND SWAP1 DUP4 ISZERO ISZERO MUL OR SWAP1 SSTORE POP PUSH1 0x80 DUP3 ADD MLOAD DUP2 PUSH1 0x3 ADD PUSH1 0x1 PUSH2 0x100 EXP DUP2 SLOAD DUP2 PUSH1 0xFF MUL NOT AND SWAP1 DUP4 ISZERO ISZERO MUL OR SWAP1 SSTORE POP PUSH1 0xA0 DUP3 ADD MLOAD DUP2 PUSH1 0x4 ADD SSTORE PUSH1 0xC0 DUP3 ADD MLOAD DUP2 PUSH1 0x5 ADD PUSH0 PUSH2 0x100 EXP DUP2 SLOAD DUP2 PUSH1 0xFF MUL NOT AND SWAP1 DUP4 ISZERO ISZERO MUL OR SWAP1 SSTORE POP SWAP1 POP POP DUP6 PUSH20 0xFFFFFFFFFFFFFFFFFFFFFFFFFFFFFFFFFFFFFFFF AND PUSH32 0xCAB36CEC3E30686BA4BD5C4316F76E9E8E4AC8EB1668BE5C825146CF11224479 PUSH1 0x6 SLOAD DUP7 DUP7 PUSH1 0x40 MLOAD PUSH2 0xC62 SWAP4 SWAP3 SWAP2 SWAP1 PUSH2 0x2537 JUMP JUMPDEST PUSH1 0x40 MLOAD DUP1 SWAP2 SUB SWAP1 LOG2 POP POP POP POP POP POP JUMP JUMPDEST PUSH0 PUSH1 0x3 PUSH0 DUP4 PUSH20 0xFFFFFFFFFFFFFFFFFFFFFFFFFFFFFFFFFFFFFFFF AND PUSH20 0xFFFFFFFFFFFFFFFFFFFFFFFFFFFFFFFFFFFFFFFF AND DUP2 MSTORE PUSH1 0x20 ADD SWAP1 DUP2 MSTORE PUSH1 0x20 ADD PUSH0 KECCAK256 SLOAD SWAP1 POP SWAP2 SWAP1 POP JUMP JUMPDEST PUSH0 DUP2 PUSH1 0xFF AND GT DUP1 ISZERO PUSH2 0xCCE JUMPI POP PUSH1 0x5 DUP2 PUSH1 0xFF AND GT ISZERO JUMPDEST PUSH2 0xD0D JUMPI PUSH1 0x40 MLOAD PUSH32 0x8C379A000000000000000000000000000000000000000000000000000000000 DUP2 MSTORE PUSH1 0x4 ADD PUSH2 0xD04 SWAP1 PUSH2 0x25BD JUMP JUMPDEST PUSH1 0x40 MLOAD DUP1 SWAP2 SUB SWAP1 REVERT JUMPDEST CALLER PUSH20 0xFFFFFFFFFFFFFFFFFFFFFFFFFFFFFFFFFFFFFFFF AND DUP3 PUSH20 0xFFFFFFFFFFFFFFFFFFFFFFFFFFFFFFFFFFFFFFFF AND SUB PUSH2 0xD7B JUMPI PUSH1 0x40 MLOAD PUSH32 0x8C379A000000000000000000000000000000000000000000000000000000000 DUP2 MSTORE PUSH1 0x4 ADD PUSH2 0xD72 SWAP1 PUSH2 0x2625 JUMP JUMPDEST PUSH1 0x40 MLOAD DUP1 SWAP2 SUB SWAP1 REVERT JUMPDEST DUP1 PUSH1 0xFF AND PUSH1 0x4 PUSH0 DUP5 PUSH20 0xFFFFFFFFFFFFFFFFFFFFFFFFFFFFFFFFFFFFFFFF AND PUSH20 0xFFFFFFFFFFFFFFFFFFFFFFFFFFFFFFFFFFFFFFFF AND DUP2 MSTORE PUSH1 0x20 ADD SWAP1 DUP2 MSTORE PUSH1 0x20 ADD PUSH0 KECCAK256 PUSH0 DUP3 DUP3 SLOAD PUSH2 0xDCA SWAP2 SWAP1 PUSH2 0x23C8 JUMP JUMPDEST SWAP3 POP POP DUP2 SWAP1 SSTORE POP PUSH1 0x5 PUSH0 DUP4 PUSH20 0xFFFFFFFFFFFFFFFFFFFFFFFFFFFFFFFFFFFFFFFF AND PUSH20 0xFFFFFFFFFFFFFFFFFFFFFFFFFFFFFFFFFFFFFFFF AND DUP2 MSTORE PUSH1 0x20 ADD SWAP1 DUP2 MSTORE PUSH1 0x20 ADD PUSH0 KECCAK256 PUSH0 DUP2 SLOAD DUP1 SWAP3 SWAP2 SWAP1 PUSH2 0xE1E SWAP1 PUSH2 0x2381 JUMP JUMPDEST SWAP2 SWAP1 POP SSTORE POP DUP2 PUSH20 0xFFFFFFFFFFFFFFFFFFFFFFFFFFFFFFFFFFFFFFFF AND PUSH32 0xCFF064D89477505103315F73F5E691BD8BCDCF9F4BFE2E4713BCDBAC12810DB4 DUP3 PUSH1 0x40 MLOAD PUSH2 0xE69 SWAP2 SWAP1 PUSH2 0x2652 JUMP JUMPDEST PUSH1 0x40 MLOAD DUP1 SWAP2 SUB SWAP1 LOG2 POP POP JUMP JUMPDEST CALLER PUSH20 0xFFFFFFFFFFFFFFFFFFFFFFFFFFFFFFFFFFFFFFFF AND PUSH1 0x1 PUSH0 DUP4 DUP2 MSTORE PUSH1 0x20 ADD SWAP1 DUP2 MSTORE PUSH1 0x20 ADD PUSH0 KECCAK256 PUSH0 ADD PUSH0 SWAP1 SLOAD SWAP1 PUSH2 0x100 EXP SWAP1 DIV PUSH20 0xFFFFFFFFFFFFFFFFFFFFFFFFFFFFFFFFFFFFFFFF AND PUSH20 0xFFFFFFFFFFFFFFFFFFFFFFFFFFFFFFFFFFFFFFFF AND EQ PUSH2 0xF15 JUMPI PUSH1 0x40 MLOAD PUSH32 0x8C379A000000000000000000000000000000000000000000000000000000000 DUP2 MSTORE PUSH1 0x4 ADD PUSH2 0xF0C SWAP1 PUSH2 0x26B5 JUMP JUMPDEST PUSH1 0x40 MLOAD DUP1 SWAP2 SUB SWAP1 REVERT JUMPDEST PUSH1 0x1 PUSH0 DUP3 DUP2 MSTORE PUSH1 0x20 ADD SWAP1 DUP2 MSTORE PUSH1 0x20 ADD PUSH0 KECCAK256 PUSH1 0x3 ADD PUSH0 SWAP1 SLOAD SWAP1 PUSH2 0x100 EXP SWAP1 DIV PUSH1 0xFF AND ISZERO PUSH2 0xF76 JUMPI PUSH1 0x40 MLOAD PUSH32 0x8C379A000000000000000000000000000000000000000000000000000000000 DUP2 MSTORE PUSH1 0x4 ADD PUSH2 0xF6D SWAP1 PUSH2 0x271D JUMP JUMPDEST PUSH1 0x40 MLOAD DUP1 SWAP2 SUB SWAP1 REVERT JUMPDEST PUSH1 0x1 DUP1 PUSH0 DUP4 DUP2 MSTORE PUSH1 0x20 ADD SWAP1 DUP2 MSTORE PUSH1 0x20 ADD PUSH0 KECCAK256 PUSH1 0x3 ADD PUSH0 PUSH2 0x100 EXP DUP2 SLOAD DUP2 PUSH1 0xFF MUL NOT AND SWAP1 DUP4 ISZERO ISZERO MUL OR SWAP1 SSTORE POP CALLER PUSH20 0xFFFFFFFFFFFFFFFFFFFFFFFFFFFFFFFFFFFFFFFF AND PUSH32 0xFF0391C86D08750AF277DD496813BF415C212A98090E0F6807C72D7F35EAB113 DUP3 PUSH1 0x40 MLOAD PUSH2 0xFE7 SWAP2 SWAP1 PUSH2 0x1D82 JUMP JUMPDEST PUSH1 0x40 MLOAD DUP1 SWAP2 SUB SWAP1 LOG2 PUSH2 0xFF8 DUP2 PUSH2 0x1BB4 JUMP JUMPDEST POP JUMP JUMPDEST PUSH0 DUP2 GT PUSH2 0x103D JUMPI PUSH1 0x40 MLOAD PUSH32 0x8C379A000000000000000000000000000000000000000000000000000000000 DUP2 MSTORE PUSH1 0x4 ADD PUSH2 0x1034 SWAP1 PUSH2 0x24C9 JUMP JUMPDEST PUSH1 0x40 MLOAD DUP1 SWAP2 SUB SWAP1 REVERT JUMPDEST PUSH0 PUSH1 0x64 PUSH1 0x9 SLOAD DUP4 PUSH2 0x104E SWAP2 SWAP1 PUSH2 0x22B0 JUMP JUMPDEST PUSH2 0x1058 SWAP2 SWAP1 PUSH2 0x231E JUMP JUMPDEST SWAP1 POP PUSH0 DUP2 DUP4 PUSH2 0x1067 SWAP2 SWAP1 PUSH2 0x234E JUMP JUMPDEST SWAP1 POP PUSH1 0x7 PUSH0 SWAP1 SLOAD SWAP1 PUSH2 0x100 EXP SWAP1 DIV PUSH20 0xFFFFFFFFFFFFFFFFFFFFFFFFFFFFFFFFFFFFFFFF AND PUSH20 0xFFFFFFFFFFFFFFFFFFFFFFFFFFFFFFFFFFFFFFFF AND PUSH4 0x23B872DD CALLER PUSH1 0xA PUSH0 SWAP1 SLOAD SWAP1 PUSH2 0x100 EXP SWAP1 DIV PUSH20 0xFFFFFFFFFFFFFFFFFFFFFFFFFFFFFFFFFFFFFFFF AND DUP6 PUSH1 0x40 MLOAD DUP5 PUSH4 0xFFFFFFFF AND PUSH1 0xE0 SHL DUP2 MSTORE PUSH1 0x4 ADD PUSH2 0x10E8 SWAP4 SWAP3 SWAP2 SWAP1 PUSH2 0x273B JUMP JUMPDEST PUSH1 0x20 PUSH1 0x40 MLOAD DUP1 DUP4 SUB DUP2 PUSH0 DUP8 GAS CALL ISZERO DUP1 ISZERO PUSH2 0x1104 JUMPI RETURNDATASIZE PUSH0 DUP1 RETURNDATACOPY RETURNDATASIZE PUSH0 REVERT JUMPDEST POP POP POP POP PUSH1 0x40 MLOAD RETURNDATASIZE PUSH1 0x1F NOT PUSH1 0x1F DUP3 ADD AND DUP3 ADD DUP1 PUSH1 0x40 MSTORE POP DUP2 ADD SWAP1 PUSH2 0x1128 SWAP2 SWAP1 PUSH2 0x279A JUMP JUMPDEST PUSH2 0x1167 JUMPI PUSH1 0x40 MLOAD PUSH32 0x8C379A000000000000000000000000000000000000000000000000000000000 DUP2 MSTORE PUSH1 0x4 ADD PUSH2 0x115E SWAP1 PUSH2 0x280F JUMP JUMPDEST PUSH1 0x40 MLOAD DUP1 SWAP2 SUB SWAP1 REVERT JUMPDEST PUSH1 0x7 PUSH0 SWAP1 SLOAD SWAP1 PUSH2 0x100 EXP SWAP1 DIV PUSH20 0xFFFFFFFFFFFFFFFFFFFFFFFFFFFFFFFFFFFFFFFF AND PUSH20 0xFFFFFFFFFFFFFFFFFFFFFFFFFFFFFFFFFFFFFFFF AND PUSH4 0x23B872DD CALLER ADDRESS DUP5 PUSH1 0x40 MLOAD DUP5 PUSH4 0xFFFFFFFF AND PUSH1 0xE0 SHL DUP2 MSTORE PUSH1 0x4 ADD PUSH2 0x11C5 SWAP4 SWAP3 SWAP2 SWAP1 PUSH2 0x273B JUMP JUMPDEST PUSH1 0x20 PUSH1 0x40 MLOAD DUP1 DUP4 SUB DUP2 PUSH0 DUP8 GAS CALL ISZERO DUP1 ISZERO PUSH2 0x11E1 JUMPI RETURNDATASIZE PUSH0 DUP1 RETURNDATACOPY RETURNDATASIZE PUSH0 REVERT JUMPDEST POP POP POP POP PUSH1 0x40 MLOAD RETURNDATASIZE PUSH1 0x1F NOT PUSH1 0x1F DUP3 ADD AND DUP3 ADD DUP1 PUSH1 0x40 MSTORE POP DUP2 ADD SWAP1 PUSH2 0x1205 SWAP2 SWAP1 PUSH2 0x279A JUMP JUMPDEST PUSH2 0x1244 JUMPI PUSH1 0x40 MLOAD PUSH32 0x8C379A000000000000000000000000000000000000000000000000000000000 DUP2 MSTORE PUSH1 0x4 ADD PUSH2 0x123B SWAP1 PUSH2 0x2877 JUMP JUMPDEST PUSH1 0x40 MLOAD DUP1 SWAP2 SUB SWAP1 REVERT JUMPDEST PUSH1 0x6 PUSH0 DUP2 SLOAD DUP1 SWAP3 SWAP2 SWAP1 PUSH2 0x1256 SWAP1 PUSH2 0x2381 JUMP JUMPDEST SWAP2 SWAP1 POP SSTORE POP PUSH1 0x40 MLOAD DUP1 PUSH1 0xE0 ADD PUSH1 0x40 MSTORE DUP1 CALLER PUSH20 0xFFFFFFFFFFFFFFFFFFFFFFFFFFFFFFFFFFFFFFFF AND DUP2 MSTORE PUSH1 0x20 ADD DUP6 PUSH20 0xFFFFFFFFFFFFFFFFFFFFFFFFFFFFFFFFFFFFFFFF AND DUP2 MSTORE PUSH1 0x20 ADD DUP3 DUP2 MSTORE PUSH1 0x20 ADD PUSH0 ISZERO ISZERO DUP2 MSTORE PUSH1 0x20 ADD PUSH0 ISZERO ISZERO DUP2 MSTORE PUSH1 0x20 ADD PUSH1 0x8 SLOAD TIMESTAMP PUSH2 0x12C2 SWAP2 SWAP1 PUSH2 0x23C8 JUMP JUMPDEST DUP2 MSTORE PUSH1 0x20 ADD PUSH0 ISZERO ISZERO DUP2 MSTORE POP PUSH1 0x1 PUSH0 PUSH1 0x6 SLOAD DUP2 MSTORE PUSH1 0x20 ADD SWAP1 DUP2 MSTORE PUSH1 0x20 ADD PUSH0 KECCAK256 PUSH0 DUP3 ADD MLOAD DUP2 PUSH0 ADD PUSH0 PUSH2 0x100 EXP DUP2 SLOAD DUP2 PUSH20 0xFFFFFFFFFFFFFFFFFFFFFFFFFFFFFFFFFFFFFFFF MUL NOT AND SWAP1 DUP4 PUSH20 0xFFFFFFFFFFFFFFFFFFFFFFFFFFFFFFFFFFFFFFFF AND MUL OR SWAP1 SSTORE POP PUSH1 0x20 DUP3 ADD MLOAD DUP2 PUSH1 0x1 ADD PUSH0 PUSH2 0x100 EXP DUP2 SLOAD DUP2 PUSH20 0xFFFFFFFFFFFFFFFFFFFFFFFFFFFFFFFFFFFFFFFF MUL NOT AND SWAP1 DUP4 PUSH20 0xFFFFFFFFFFFFFFFFFFFFFFFFFFFFFFFFFFFFFFFF AND MUL OR SWAP1 SSTORE POP PUSH1 0x40 DUP3 ADD MLOAD DUP2 PUSH1 0x2 ADD SSTORE PUSH1 0x60 DUP3 ADD MLOAD DUP2 PUSH1 0x3 ADD PUSH0 PUSH2 0x100 EXP DUP2 SLOAD DUP2 PUSH1 0xFF MUL NOT AND SWAP1 DUP4 ISZERO ISZERO MUL OR SWAP1 SSTORE POP PUSH1 0x80 DUP3 ADD MLOAD DUP2 PUSH1 0x3 ADD PUSH1 0x1 PUSH2 0x100 EXP DUP2 SLOAD DUP2 PUSH1 0xFF MUL NOT AND SWAP1 DUP4 ISZERO ISZERO MUL OR SWAP1 SSTORE POP PUSH1 0xA0 DUP3 ADD MLOAD DUP2 PUSH1 0x4 ADD SSTORE PUSH1 0xC0 DUP3 ADD MLOAD DUP2 PUSH1 0x5 ADD PUSH0 PUSH2 0x100 EXP DUP2 SLOAD DUP2 PUSH1 0xFF MUL NOT AND SWAP1 DUP4 ISZERO ISZERO MUL OR SWAP1 SSTORE POP SWAP1 POP POP DUP4 PUSH20 0xFFFFFFFFFFFFFFFFFFFFFFFFFFFFFFFFFFFFFFFF AND CALLER PUSH20 0xFFFFFFFFFFFFFFFFFFFFFFFFFFFFFFFFFFFFFFFF AND PUSH32 0x62B4265EF816F751A94C5C93FA40A90302C6924509B973ED4094DCF30C6C61ED PUSH1 0x6 SLOAD DUP7 PUSH1 0x40 MLOAD PUSH2 0x1440 SWAP3 SWAP2 SWAP1 PUSH2 0x28DF JUMP JUMPDEST PUSH1 0x40 MLOAD DUP1 SWAP2 SUB SWAP1 LOG3 POP POP POP POP JUMP JUMPDEST PUSH2 0x1456 PUSH2 0x1B2D JUMP JUMPDEST PUSH2 0x145F PUSH0 PUSH2 0x1CA2 JUMP JUMPDEST JUMP JUMPDEST PUSH1 0x1 PUSH1 0x20 MSTORE DUP1 PUSH0 MSTORE PUSH1 0x40 PUSH0 KECCAK256 PUSH0 SWAP2 POP SWAP1 POP DUP1 PUSH0 ADD PUSH0 SWAP1 SLOAD SWAP1 PUSH2 0x100 EXP SWAP1 DIV PUSH20 0xFFFFFFFFFFFFFFFFFFFFFFFFFFFFFFFFFFFFFFFF AND SWAP1 DUP1 PUSH1 0x1 ADD PUSH0 SWAP1 SLOAD SWAP1 PUSH2 0x100 EXP SWAP1 DIV PUSH20 0xFFFFFFFFFFFFFFFFFFFFFFFFFFFFFFFFFFFFFFFF AND SWAP1 DUP1 PUSH1 0x2 ADD SLOAD SWAP1 DUP1 PUSH1 0x3 ADD PUSH0 SWAP1 SLOAD SWAP1 PUSH2 0x100 EXP SWAP1 DIV PUSH1 0xFF AND SWAP1 DUP1 PUSH1 0x3 ADD PUSH1 0x1 SWAP1 SLOAD SWAP1 PUSH2 0x100 EXP SWAP1 DIV PUSH1 0xFF AND SWAP1 DUP1 PUSH1 0x4 ADD SLOAD SWAP1 DUP1 PUSH1 0x5 ADD PUSH0 SWAP1 SLOAD SWAP1 PUSH2 0x100 EXP SWAP1 DIV PUSH1 0xFF AND SWAP1 POP DUP8 JUMP JUMPDEST PUSH1 0x5 PUSH1 0x20 MSTORE DUP1 PUSH0 MSTORE PUSH1 0x40 PUSH0 KECCAK256 PUSH0 SWAP2 POP SWAP1 POP SLOAD DUP2 JUMP JUMPDEST PUSH0 DUP1 PUSH0 SWAP1 SLOAD SWAP1 PUSH2 0x100 EXP SWAP1 DIV PUSH20 0xFFFFFFFFFFFFFFFFFFFFFFFFFFFFFFFFFFFFFFFF AND SWAP1 POP SWAP1 JUMP JUMPDEST PUSH1 0x4 PUSH1 0x20 MSTORE DUP1 PUSH0 MSTORE PUSH1 0x40 PUSH0 KECCAK256 PUSH0 SWAP2 POP SWAP1 POP SLOAD DUP2 JUMP JUMPDEST PUSH1 0x3 PUSH1 0x20 MSTORE DUP1 PUSH0 MSTORE PUSH1 0x40 PUSH0 KECCAK256 PUSH0 SWAP2 POP SWAP1 POP SLOAD DUP2 JUMP JUMPDEST CALLER PUSH20 0xFFFFFFFFFFFFFFFFFFFFFFFFFFFFFFFFFFFFFFFF AND PUSH1 0x1 PUSH0 DUP4 DUP2 MSTORE PUSH1 0x20 ADD SWAP1 DUP2 MSTORE PUSH1 0x20 ADD PUSH0 KECCAK256 PUSH0 ADD PUSH0 SWAP1 SLOAD SWAP1 PUSH2 0x100 EXP SWAP1 DIV PUSH20 0xFFFFFFFFFFFFFFFFFFFFFFFFFFFFFFFFFFFFFFFF AND PUSH20 0xFFFFFFFFFFFFFFFFFFFFFFFFFFFFFFFFFFFFFFFF AND EQ PUSH2 0x1608 JUMPI PUSH1 0x40 MLOAD PUSH32 0x8C379A000000000000000000000000000000000000000000000000000000000 DUP2 MSTORE PUSH1 0x4 ADD PUSH2 0x15FF SWAP1 PUSH2 0x2963 JUMP JUMPDEST PUSH1 0x40 MLOAD DUP1 SWAP2 SUB SWAP1 REVERT JUMPDEST PUSH1 0x1 PUSH0 DUP3 DUP2 MSTORE PUSH1 0x20 ADD SWAP1 DUP2 MSTORE PUSH1 0x20 ADD PUSH0 KECCAK256 PUSH1 0x4 ADD SLOAD TIMESTAMP GT PUSH2 0x165E JUMPI PUSH1 0x40 MLOAD PUSH32 0x8C379A000000000000000000000000000000000000000000000000000000000 DUP2 MSTORE PUSH1 0x4 ADD PUSH2 0x1655 SWAP1 PUSH2 0x29CB JUMP JUMPDEST PUSH1 0x40 MLOAD DUP1 SWAP2 SUB SWAP1 REVERT JUMPDEST PUSH1 0x1 PUSH0 DUP3 DUP2 MSTORE PUSH1 0x20 ADD SWAP1 DUP2 MSTORE PUSH1 0x20 ADD PUSH0 KECCAK256 PUSH1 0x3 ADD PUSH1 0x1 SWAP1 SLOAD SWAP1 PUSH2 0x100 EXP SWAP1 DIV PUSH1 0xFF AND ISZERO PUSH2 0x16C0 JUMPI PUSH1 0x40 MLOAD PUSH32 0x8C379A000000000000000000000000000000000000000000000000000000000 DUP2 MSTORE PUSH1 0x4 ADD PUSH2 0x16B7 SWAP1 PUSH2 0x2A33 JUMP JUMPDEST PUSH1 0x40 MLOAD DUP1 SWAP2 SUB SWAP1 REVERT JUMPDEST PUSH1 0x1 PUSH0 DUP3 DUP2 MSTORE PUSH1 0x20 ADD SWAP1 DUP2 MSTORE PUSH1 0x20 ADD PUSH0 KECCAK256 PUSH1 0x5 ADD PUSH0 SWAP1 SLOAD SWAP1 PUSH2 0x100 EXP SWAP1 DIV PUSH1 0xFF AND ISZERO PUSH2 0x1721 JUMPI PUSH1 0x40 MLOAD PUSH32 0x8C379A000000000000000000000000000000000000000000000000000000000 DUP2 MSTORE PUSH1 0x4 ADD PUSH2 0x1718 SWAP1 PUSH2 0x2A9B JUMP JUMPDEST PUSH1 0x40 MLOAD DUP1 SWAP2 SUB SWAP1 REVERT JUMPDEST PUSH1 0x1 DUP1 PUSH0 DUP4 DUP2 MSTORE PUSH1 0x20 ADD SWAP1 DUP2 MSTORE PUSH1 0x20 ADD PUSH0 KECCAK256 PUSH1 0x5 ADD PUSH0 PUSH2 0x100 EXP DUP2 SLOAD DUP2 PUSH1 0xFF MUL NOT AND SWAP1 DUP4 ISZERO ISZERO MUL OR SWAP1 SSTORE POP CALLER PUSH20 0xFFFFFFFFFFFFFFFFFFFFFFFFFFFFFFFFFFFFFFFF AND PUSH2 0x8FC PUSH1 0x1 PUSH0 DUP5 DUP2 MSTORE PUSH1 0x20 ADD SWAP1 DUP2 MSTORE PUSH1 0x20 ADD PUSH0 KECCAK256 PUSH1 0x2 ADD SLOAD SWAP1 DUP2 ISZERO MUL SWAP1 PUSH1 0x40 MLOAD PUSH0 PUSH1 0x40 MLOAD DUP1 DUP4 SUB DUP2 DUP6 DUP9 DUP9 CALL SWAP4 POP POP POP POP ISZERO DUP1 ISZERO PUSH2 0x17A3 JUMPI RETURNDATASIZE PUSH0 DUP1 RETURNDATACOPY RETURNDATASIZE PUSH0 REVERT JUMPDEST POP CALLER PUSH20 0xFFFFFFFFFFFFFFFFFFFFFFFFFFFFFFFFFFFFFFFF AND PUSH32 0x4F98299055C017596024BF5F17EFB243BB559423F63A766E2EFFCA248D0A9521 DUP3 PUSH1 0x40 MLOAD PUSH2 0x17EA SWAP2 SWAP1 PUSH2 0x1D82 JUMP JUMPDEST PUSH1 0x40 MLOAD DUP1 SWAP2 SUB SWAP1 LOG2 POP JUMP JUMPDEST PUSH0 DUP1 PUSH1 0x5 PUSH0 DUP5 PUSH20 0xFFFFFFFFFFFFFFFFFFFFFFFFFFFFFFFFFFFFFFFF AND PUSH20 0xFFFFFFFFFFFFFFFFFFFFFFFFFFFFFFFFFFFFFFFF AND DUP2 MSTORE PUSH1 0x20 ADD SWAP1 DUP2 MSTORE PUSH1 0x20 ADD PUSH0 KECCAK256 SLOAD SUB PUSH2 0x1842 JUMPI PUSH0 SWAP1 POP PUSH2 0x18CB JUMP JUMPDEST PUSH1 0x5 PUSH0 DUP4 PUSH20 0xFFFFFFFFFFFFFFFFFFFFFFFFFFFFFFFFFFFFFFFF AND PUSH20 0xFFFFFFFFFFFFFFFFFFFFFFFFFFFFFFFFFFFFFFFF AND DUP2 MSTORE PUSH1 0x20 ADD SWAP1 DUP2 MSTORE PUSH1 0x20 ADD PUSH0 KECCAK256 SLOAD PUSH1 0x4 PUSH0 DUP5 PUSH20 0xFFFFFFFFFFFFFFFFFFFFFFFFFFFFFFFFFFFFFFFF AND PUSH20 0xFFFFFFFFFFFFFFFFFFFFFFFFFFFFFFFFFFFFFFFF AND DUP2 MSTORE PUSH1 0x20 ADD SWAP1 DUP2 MSTORE PUSH1 0x20 ADD PUSH0 KECCAK256 SLOAD PUSH2 0x18C8 SWAP2 SWAP1 PUSH2 0x231E JUMP JUMPDEST SWAP1 POP JUMPDEST SWAP2 SWAP1 POP JUMP JUMPDEST PUSH1 0x9 SLOAD DUP2 JUMP JUMPDEST PUSH1 0x7 PUSH0 SWAP1 SLOAD SWAP1 PUSH2 0x100 EXP SWAP1 DIV PUSH20 0xFFFFFFFFFFFFFFFFFFFFFFFFFFFFFFFFFFFFFFFF AND DUP2 JUMP JUMPDEST PUSH2 0x1903 PUSH2 0x1B2D JUMP JUMPDEST PUSH0 PUSH20 0xFFFFFFFFFFFFFFFFFFFFFFFFFFFFFFFFFFFFFFFF AND DUP2 PUSH20 0xFFFFFFFFFFFFFFFFFFFFFFFFFFFFFFFFFFFFFFFF AND SUB PUSH2 0x1973 JUMPI PUSH0 PUSH1 0x40 MLOAD PUSH32 0x1E4FBDF700000000000000000000000000000000000000000000000000000000 DUP2 MSTORE PUSH1 0x4 ADD PUSH2 0x196A SWAP2 SWAP1 PUSH2 0x218A JUMP JUMPDEST PUSH1 0x40 MLOAD DUP1 SWAP2 SUB SWAP1 REVERT JUMPDEST PUSH2 0x197C DUP2 PUSH2 0x1CA2 JUMP JUMPDEST POP JUMP JUMPDEST PUSH1 0xA PUSH0 SWAP1 SLOAD SWAP1 PUSH2 0x100 EXP SWAP1 DIV PUSH20 0xFFFFFFFFFFFFFFFFFFFFFFFFFFFFFFFFFFFFFFFF AND DUP2 JUMP JUMPDEST CALLER PUSH20 0xFFFFFFFFFFFFFFFFFFFFFFFFFFFFFFFFFFFFFFFF AND PUSH1 0x1 PUSH0 DUP4 DUP2 MSTORE PUSH1 0x20 ADD SWAP1 DUP2 MSTORE PUSH1 0x20 ADD PUSH0 KECCAK256 PUSH1 0x1 ADD PUSH0 SWAP1 SLOAD SWAP1 PUSH2 0x100 EXP SWAP1 DIV PUSH20 0xFFFFFFFFFFFFFFFFFFFFFFFFFFFFFFFFFFFFFFFF AND PUSH20 0xFFFFFFFFFFFFFFFFFFFFFFFFFFFFFFFFFFFFFFFF AND EQ PUSH2 0x1A45 JUMPI PUSH1 0x40 MLOAD PUSH32 0x8C379A000000000000000000000000000000000000000000000000000000000 DUP2 MSTORE PUSH1 0x4 ADD PUSH2 0x1A3C SWAP1 PUSH2 0x2B03 JUMP JUMPDEST PUSH1 0x40 MLOAD DUP1 SWAP2 SUB SWAP1 REVERT JUMPDEST PUSH1 0x1 PUSH0 DUP3 DUP2 MSTORE PUSH1 0x20 ADD SWAP1 DUP2 MSTORE PUSH1 0x20 ADD PUSH0 KECCAK256 PUSH1 0x3 ADD PUSH1 0x1 SWAP1 SLOAD SWAP1 PUSH2 0x100 EXP SWAP1 DIV PUSH1 0xFF AND ISZERO PUSH2 0x1AA7 JUMPI PUSH1 0x40 MLOAD PUSH32 0x8C379A000000000000000000000000000000000000000000000000000000000 DUP2 MSTORE PUSH1 0x4 ADD PUSH2 0x1A9E SWAP1 PUSH2 0x271D JUMP JUMPDEST PUSH1 0x40 MLOAD DUP1 SWAP2 SUB SWAP1 REVERT JUMPDEST PUSH1 0x1 DUP1 PUSH0 DUP4 DUP2 MSTORE PUSH1 0x20 ADD SWAP1 DUP2 MSTORE PUSH1 0x20 ADD PUSH0 KECCAK256 PUSH1 0x3 ADD PUSH1 0x1 PUSH2 0x100 EXP DUP2 SLOAD DUP2 PUSH1 0xFF MUL NOT AND SWAP1 DUP4 ISZERO ISZERO MUL OR SWAP1 SSTORE POP CALLER PUSH20 0xFFFFFFFFFFFFFFFFFFFFFFFFFFFFFFFFFFFFFFFF AND PUSH32 0xFF0391C86D08750AF277DD496813BF415C212A98090E0F6807C72D7F35EAB113 DUP3 PUSH1 0x40 MLOAD PUSH2 0x1B19 SWAP2 SWAP1 PUSH2 0x1D82 JUMP JUMPDEST PUSH1 0x40 MLOAD DUP1 SWAP2 SUB SWAP1 LOG2 PUSH2 0x1B2A DUP2 PUSH2 0x1BB4 JUMP JUMPDEST POP JUMP JUMPDEST PUSH2 0x1B35 PUSH2 0x1D63 JUMP JUMPDEST PUSH20 0xFFFFFFFFFFFFFFFFFFFFFFFFFFFFFFFFFFFFFFFF AND PUSH2 0x1B53 PUSH2 0x1517 JUMP JUMPDEST PUSH20 0xFFFFFFFFFFFFFFFFFFFFFFFFFFFFFFFFFFFFFFFF AND EQ PUSH2 0x1BB2 JUMPI PUSH2 0x1B76 PUSH2 0x1D63 JUMP JUMPDEST PUSH1 0x40 MLOAD PUSH32 0x118CDAA700000000000000000000000000000000000000000000000000000000 DUP2 MSTORE PUSH1 0x4 ADD PUSH2 0x1BA9 SWAP2 SWAP1 PUSH2 0x218A JUMP JUMPDEST PUSH1 0x40 MLOAD DUP1 SWAP2 SUB SWAP1 REVERT JUMPDEST JUMP JUMPDEST PUSH1 0x1 PUSH0 DUP3 DUP2 MSTORE PUSH1 0x20 ADD SWAP1 DUP2 MSTORE PUSH1 0x20 ADD PUSH0 KECCAK256 PUSH1 0x3 ADD PUSH0 SWAP1 SLOAD SWAP1 PUSH2 0x100 EXP SWAP1 DIV PUSH1 0xFF AND DUP1 ISZERO PUSH2 0x1BFF JUMPI POP PUSH1 0x1 PUSH0 DUP3 DUP2 MSTORE PUSH1 0x20 ADD SWAP1 DUP2 MSTORE PUSH1 0x20 ADD PUSH0 KECCAK256 PUSH1 0x3 ADD PUSH1 0x1 SWAP1 SLOAD SWAP1 PUSH2 0x100 EXP SWAP1 DIV PUSH1 0xFF AND JUMPDEST ISZERO PUSH2 0x1C9F JUMPI PUSH1 0x1 PUSH0 DUP3 DUP2 MSTORE PUSH1 0x20 ADD SWAP1 DUP2 MSTORE PUSH1 0x20 ADD PUSH0 KECCAK256 PUSH1 0x2 ADD SLOAD PUSH1 0x2 PUSH0 PUSH1 0x1 PUSH0 DUP6 DUP2 MSTORE PUSH1 0x20 ADD SWAP1 DUP2 MSTORE PUSH1 0x20 ADD PUSH0 KECCAK256 PUSH1 0x1 ADD PUSH0 SWAP1 SLOAD SWAP1 PUSH2 0x100 EXP SWAP1 DIV PUSH20 0xFFFFFFFFFFFFFFFFFFFFFFFFFFFFFFFFFFFFFFFF AND PUSH20 0xFFFFFFFFFFFFFFFFFFFFFFFFFFFFFFFFFFFFFFFF AND PUSH20 0xFFFFFFFFFFFFFFFFFFFFFFFFFFFFFFFFFFFFFFFF AND DUP2 MSTORE PUSH1 0x20 ADD SWAP1 DUP2 MSTORE PUSH1 0x20 ADD PUSH0 KECCAK256 PUSH0 DUP3 DUP3 SLOAD PUSH2 0x1C97 SWAP2 SWAP1 PUSH2 0x23C8 JUMP JUMPDEST SWAP3 POP POP DUP2 SWAP1 SSTORE POP JUMPDEST POP JUMP JUMPDEST PUSH0 DUP1 PUSH0 SWAP1 SLOAD SWAP1 PUSH2 0x100 EXP SWAP1 DIV PUSH20 0xFFFFFFFFFFFFFFFFFFFFFFFFFFFFFFFFFFFFFFFF AND SWAP1 POP DUP2 PUSH0 DUP1 PUSH2 0x100 EXP DUP2 SLOAD DUP2 PUSH20 0xFFFFFFFFFFFFFFFFFFFFFFFFFFFFFFFFFFFFFFFF MUL NOT AND SWAP1 DUP4 PUSH20 0xFFFFFFFFFFFFFFFFFFFFFFFFFFFFFFFFFFFFFFFF AND MUL OR SWAP1 SSTORE POP DUP2 PUSH20 0xFFFFFFFFFFFFFFFFFFFFFFFFFFFFFFFFFFFFFFFF AND DUP2 PUSH20 0xFFFFFFFFFFFFFFFFFFFFFFFFFFFFFFFFFFFFFFFF AND PUSH32 0x8BE0079C531659141344CD1FD0A4F28419497F9722A3DAAFE3B4186F6B6457E0 PUSH1 0x40 MLOAD PUSH1 0x40 MLOAD DUP1 SWAP2 SUB SWAP1 LOG3 POP POP JUMP JUMPDEST PUSH0 CALLER SWAP1 POP SWAP1 JUMP JUMPDEST PUSH0 DUP2 SWAP1 POP SWAP2 SWAP1 POP JUMP JUMPDEST PUSH2 0x1D7C DUP2 PUSH2 0x1D6A JUMP JUMPDEST DUP3 MSTORE POP POP JUMP JUMPDEST PUSH0 PUSH1 0x20 DUP3 ADD SWAP1 POP PUSH2 0x1D95 PUSH0 DUP4 ADD DUP5 PUSH2 0x1D73 JUMP JUMPDEST SWAP3 SWAP2 POP POP JUMP JUMPDEST PUSH0 PUSH1 0x40 MLOAD SWAP1 POP SWAP1 JUMP JUMPDEST PUSH0 DUP1 REVERT JUMPDEST PUSH0 DUP1 REVERT JUMPDEST PUSH0 PUSH20 0xFFFFFFFFFFFFFFFFFFFFFFFFFFFFFFFFFFFFFFFF DUP3 AND SWAP1 POP SWAP2 SWAP1 POP JUMP JUMPDEST PUSH0 PUSH2 0x1DD5 DUP3 PUSH2 0x1DAC JUMP JUMPDEST SWAP1 POP SWAP2 SWAP1 POP JUMP JUMPDEST PUSH2 0x1DE5 DUP2 PUSH2 0x1DCB JUMP JUMPDEST DUP2 EQ PUSH2 0x1DEF JUMPI PUSH0 DUP1 REVERT JUMPDEST POP JUMP JUMPDEST PUSH0 DUP2 CALLDATALOAD SWAP1 POP PUSH2 0x1E00 DUP2 PUSH2 0x1DDC JUMP JUMPDEST SWAP3 SWAP2 POP POP JUMP JUMPDEST PUSH0 PUSH1 0x20 DUP3 DUP5 SUB SLT ISZERO PUSH2 0x1E1B JUMPI PUSH2 0x1E1A PUSH2 0x1DA4 JUMP JUMPDEST JUMPDEST PUSH0 PUSH2 0x1E28 DUP5 DUP3 DUP6 ADD PUSH2 0x1DF2 JUMP JUMPDEST SWAP2 POP POP SWAP3 SWAP2 POP POP JUMP JUMPDEST PUSH2 0x1E3A DUP2 PUSH2 0x1D6A JUMP JUMPDEST DUP2 EQ PUSH2 0x1E44 JUMPI PUSH0 DUP1 REVERT JUMPDEST POP JUMP JUMPDEST PUSH0 DUP2 CALLDATALOAD SWAP1 POP PUSH2 0x1E55 DUP2 PUSH2 0x1E31 JUMP JUMPDEST SWAP3 SWAP2 POP POP JUMP JUMPDEST PUSH0 DUP1 REVERT JUMPDEST PUSH0 DUP1 REVERT JUMPDEST PUSH0 PUSH1 0x1F NOT PUSH1 0x1F DUP4 ADD AND SWAP1 POP SWAP2 SWAP1 POP JUMP JUMPDEST PUSH32 0x4E487B7100000000000000000000000000000000000000000000000000000000 PUSH0 MSTORE PUSH1 0x41 PUSH1 0x4 MSTORE PUSH1 0x24 PUSH0 REVERT JUMPDEST PUSH2 0x1EA9 DUP3 PUSH2 0x1E63 JUMP JUMPDEST DUP2 ADD DUP2 DUP2 LT PUSH8 0xFFFFFFFFFFFFFFFF DUP3 GT OR ISZERO PUSH2 0x1EC8 JUMPI PUSH2 0x1EC7 PUSH2 0x1E73 JUMP JUMPDEST JUMPDEST DUP1 PUSH1 0x40 MSTORE POP POP POP JUMP JUMPDEST PUSH0 PUSH2 0x1EDA PUSH2 0x1D9B JUMP JUMPDEST SWAP1 POP PUSH2 0x1EE6 DUP3 DUP3 PUSH2 0x1EA0 JUMP JUMPDEST SWAP2 SWAP1 POP JUMP JUMPDEST PUSH0 PUSH8 0xFFFFFFFFFFFFFFFF DUP3 GT ISZERO PUSH2 0x1F05 JUMPI PUSH2 0x1F04 PUSH2 0x1E73 JUMP JUMPDEST JUMPDEST PUSH2 0x1F0E DUP3 PUSH2 0x1E63 JUMP JUMPDEST SWAP1 POP PUSH1 0x20 DUP2 ADD SWAP1 POP SWAP2 SWAP1 POP JUMP JUMPDEST DUP3 DUP2 DUP4 CALLDATACOPY PUSH0 DUP4 DUP4 ADD MSTORE POP POP POP JUMP JUMPDEST PUSH0 PUSH2 0x1F3B PUSH2 0x1F36 DUP5 PUSH2 0x1EEB JUMP JUMPDEST PUSH2 0x1ED1 JUMP JUMPDEST SWAP1 POP DUP3 DUP2 MSTORE PUSH1 0x20 DUP2 ADD DUP5 DUP5 DUP5 ADD GT ISZERO PUSH2 0x1F57 JUMPI PUSH2 0x1F56 PUSH2 0x1E5F JUMP JUMPDEST JUMPDEST PUSH2 0x1F62 DUP5 DUP3 DUP6 PUSH2 0x1F1B JUMP JUMPDEST POP SWAP4 SWAP3 POP POP POP JUMP JUMPDEST PUSH0 DUP3 PUSH1 0x1F DUP4 ADD SLT PUSH2 0x1F7E JUMPI PUSH2 0x1F7D PUSH2 0x1E5B JUMP JUMPDEST JUMPDEST DUP2 CALLDATALOAD PUSH2 0x1F8E DUP5 DUP3 PUSH1 0x20 DUP7 ADD PUSH2 0x1F29 JUMP JUMPDEST SWAP2 POP POP SWAP3 SWAP2 POP POP JUMP JUMPDEST PUSH0 DUP1 PUSH0 DUP1 PUSH1 0x80 DUP6 DUP8 SUB SLT ISZERO PUSH2 0x1FAF JUMPI PUSH2 0x1FAE PUSH2 0x1DA4 JUMP JUMPDEST JUMPDEST PUSH0 PUSH2 0x1FBC DUP8 DUP3 DUP9 ADD PUSH2 0x1DF2 JUMP JUMPDEST SWAP5 POP POP PUSH1 0x20 PUSH2 0x1FCD DUP8 DUP3 DUP9 ADD PUSH2 0x1DF2 JUMP JUMPDEST SWAP4 POP POP PUSH1 0x40 PUSH2 0x1FDE DUP8 DUP3 DUP9 ADD PUSH2 0x1E47 JUMP JUMPDEST SWAP3 POP POP PUSH1 0x60 DUP6 ADD CALLDATALOAD PUSH8 0xFFFFFFFFFFFFFFFF DUP2 GT ISZERO PUSH2 0x1FFF JUMPI PUSH2 0x1FFE PUSH2 0x1DA8 JUMP JUMPDEST JUMPDEST PUSH2 0x200B DUP8 DUP3 DUP9 ADD PUSH2 0x1F6A JUMP JUMPDEST SWAP2 POP POP SWAP3 SWAP6 SWAP2 SWAP5 POP SWAP3 POP JUMP JUMPDEST PUSH0 PUSH1 0xFF DUP3 AND SWAP1 POP SWAP2 SWAP1 POP JUMP JUMPDEST PUSH2 0x202C DUP2 PUSH2 0x2017 JUMP JUMPDEST DUP2 EQ PUSH2 0x2036 JUMPI PUSH0 DUP1 REVERT JUMPDEST POP JUMP JUMPDEST PUSH0 DUP2 CALLDATALOAD SWAP1 POP PUSH2 0x2047 DUP2 PUSH2 0x2023 JUMP JUMPDEST SWAP3 SWAP2 POP POP JUMP JUMPDEST PUSH0 DUP1 PUSH1 0x40 DUP4 DUP6 SUB SLT ISZERO PUSH2 0x2063 JUMPI PUSH2 0x2062 PUSH2 0x1DA4 JUMP JUMPDEST JUMPDEST PUSH0 PUSH2 0x2070 DUP6 DUP3 DUP7 ADD PUSH2 0x1DF2 JUMP JUMPDEST SWAP3 POP POP PUSH1 0x20 PUSH2 0x2081 DUP6 DUP3 DUP7 ADD PUSH2 0x2039 JUMP JUMPDEST SWAP2 POP POP SWAP3 POP SWAP3 SWAP1 POP JUMP JUMPDEST PUSH0 PUSH1 0x20 DUP3 DUP5 SUB SLT ISZERO PUSH2 0x20A0 JUMPI PUSH2 0x209F PUSH2 0x1DA4 JUMP JUMPDEST JUMPDEST PUSH0 PUSH2 0x20AD DUP5 DUP3 DUP6 ADD PUSH2 0x1E47 JUMP JUMPDEST SWAP2 POP POP SWAP3 SWAP2 POP POP JUMP JUMPDEST PUSH0 DUP1 PUSH1 0x40 DUP4 DUP6 SUB SLT ISZERO PUSH2 0x20CC JUMPI PUSH2 0x20CB PUSH2 0x1DA4 JUMP JUMPDEST JUMPDEST PUSH0 PUSH2 0x20D9 DUP6 DUP3 DUP7 ADD PUSH2 0x1DF2 JUMP JUMPDEST SWAP3 POP POP PUSH1 0x20 PUSH2 0x20EA DUP6 DUP3 DUP7 ADD PUSH2 0x1E47 JUMP JUMPDEST SWAP2 POP POP SWAP3 POP SWAP3 SWAP1 POP JUMP JUMPDEST PUSH2 0x20FD DUP2 PUSH2 0x1DCB JUMP JUMPDEST DUP3 MSTORE POP POP JUMP JUMPDEST PUSH0 DUP2 ISZERO ISZERO SWAP1 POP SWAP2 SWAP1 POP JUMP JUMPDEST PUSH2 0x2117 DUP2 PUSH2 0x2103 JUMP JUMPDEST DUP3 MSTORE POP POP JUMP JUMPDEST PUSH0 PUSH1 0xE0 DUP3 ADD SWAP1 POP PUSH2 0x2130 PUSH0 DUP4 ADD DUP11 PUSH2 0x20F4 JUMP JUMPDEST PUSH2 0x213D PUSH1 0x20 DUP4 ADD DUP10 PUSH2 0x20F4 JUMP JUMPDEST PUSH2 0x214A PUSH1 0x40 DUP4 ADD DUP9 PUSH2 0x1D73 JUMP JUMPDEST PUSH2 0x2157 PUSH1 0x60 DUP4 ADD DUP8 PUSH2 0x210E JUMP JUMPDEST PUSH2 0x2164 PUSH1 0x80 DUP4 ADD DUP7 PUSH2 0x210E JUMP JUMPDEST PUSH2 0x2171 PUSH1 0xA0 DUP4 ADD DUP6 PUSH2 0x1D73 JUMP JUMPDEST PUSH2 0x217E PUSH1 0xC0 DUP4 ADD DUP5 PUSH2 0x210E JUMP JUMPDEST SWAP9 SWAP8 POP POP POP POP POP POP POP POP JUMP JUMPDEST PUSH0 PUSH1 0x20 DUP3 ADD SWAP1 POP PUSH2 0x219D PUSH0 DUP4 ADD DUP5 PUSH2 0x20F4 JUMP JUMPDEST SWAP3 SWAP2 POP POP JUMP JUMPDEST PUSH0 DUP3 DUP3 MSTORE PUSH1 0x20 DUP3 ADD SWAP1 POP SWAP3 SWAP2 POP POP JUMP JUMPDEST PUSH32 0x4E6F2066756E647320617661696C61626C650000000000000000000000000000 PUSH0 DUP3 ADD MSTORE POP JUMP JUMPDEST PUSH0 PUSH2 0x21E7 PUSH1 0x12 DUP4 PUSH2 0x21A3 JUMP JUMPDEST SWAP2 POP PUSH2 0x21F2 DUP3 PUSH2 0x21B3 JUMP JUMPDEST PUSH1 0x20 DUP3 ADD SWAP1 POP SWAP2 SWAP1 POP JUMP JUMPDEST PUSH0 PUSH1 0x20 DUP3 ADD SWAP1 POP DUP2 DUP2 SUB PUSH0 DUP4 ADD MSTORE PUSH2 0x2214 DUP2 PUSH2 0x21DB JUMP JUMPDEST SWAP1 POP SWAP2 SWAP1 POP JUMP JUMPDEST PUSH32 0x5061796D656E74206D7573742062652067726561746572207468616E20300000 PUSH0 DUP3 ADD MSTORE POP JUMP JUMPDEST PUSH0 PUSH2 0x224F PUSH1 0x1E DUP4 PUSH2 0x21A3 JUMP JUMPDEST SWAP2 POP PUSH2 0x225A DUP3 PUSH2 0x221B JUMP JUMPDEST PUSH1 0x20 DUP3 ADD SWAP1 POP SWAP2 SWAP1 POP JUMP JUMPDEST PUSH0 PUSH1 0x20 DUP3 ADD SWAP1 POP DUP2 DUP2 SUB PUSH0 DUP4 ADD MSTORE PUSH2 0x227C DUP2 PUSH2 0x2243 JUMP JUMPDEST SWAP1 POP SWAP2 SWAP1 POP JUMP JUMPDEST PUSH32 0x4E487B7100000000000000000000000000000000000000000000000000000000 PUSH0 MSTORE PUSH1 0x11 PUSH1 0x4 MSTORE PUSH1 0x24 PUSH0 REVERT JUMPDEST PUSH0 PUSH2 0x22BA DUP3 PUSH2 0x1D6A JUMP JUMPDEST SWAP2 POP PUSH2 0x22C5 DUP4 PUSH2 0x1D6A JUMP JUMPDEST SWAP3 POP DUP3 DUP3 MUL PUSH2 0x22D3 DUP2 PUSH2 0x1D6A JUMP JUMPDEST SWAP2 POP DUP3 DUP3 DIV DUP5 EQ DUP4 ISZERO OR PUSH2 0x22EA JUMPI PUSH2 0x22E9 PUSH2 0x2283 JUMP JUMPDEST JUMPDEST POP SWAP3 SWAP2 POP POP JUMP JUMPDEST PUSH32 0x4E487B7100000000000000000000000000000000000000000000000000000000 PUSH0 MSTORE PUSH1 0x12 PUSH1 0x4 MSTORE PUSH1 0x24 PUSH0 REVERT JUMPDEST PUSH0 PUSH2 0x2328 DUP3 PUSH2 0x1D6A JUMP JUMPDEST SWAP2 POP PUSH2 0x2333 DUP4 PUSH2 0x1D6A JUMP JUMPDEST SWAP3 POP DUP3 PUSH2 0x2343 JUMPI PUSH2 0x2342 PUSH2 0x22F1 JUMP JUMPDEST JUMPDEST DUP3 DUP3 DIV SWAP1 POP SWAP3 SWAP2 POP POP JUMP JUMPDEST PUSH0 PUSH2 0x2358 DUP3 PUSH2 0x1D6A JUMP JUMPDEST SWAP2 POP PUSH2 0x2363 DUP4 PUSH2 0x1D6A JUMP JUMPDEST SWAP3 POP DUP3 DUP3 SUB SWAP1 POP DUP2 DUP2 GT ISZERO PUSH2 0x237B JUMPI PUSH2 0x237A PUSH2 0x2283 JUMP JUMPDEST JUMPDEST SWAP3 SWAP2 POP POP JUMP JUMPDEST PUSH0 PUSH2 0x238B DUP3 PUSH2 0x1D6A JUMP JUMPDEST SWAP2 POP PUSH32 0xFFFFFFFFFFFFFFFFFFFFFFFFFFFFFFFFFFFFFFFFFFFFFFFFFFFFFFFFFFFFFFFF DUP3 SUB PUSH2 0x23BD JUMPI PUSH2 0x23BC PUSH2 0x2283 JUMP JUMPDEST JUMPDEST PUSH1 0x1 DUP3 ADD SWAP1 POP SWAP2 SWAP1 POP JUMP JUMPDEST PUSH0 PUSH2 0x23D2 DUP3 PUSH2 0x1D6A JUMP JUMPDEST SWAP2 POP PUSH2 0x23DD DUP4 PUSH2 0x1D6A JUMP JUMPDEST SWAP3 POP DUP3 DUP3 ADD SWAP1 POP DUP1 DUP3 GT ISZERO PUSH2 0x23F5 JUMPI PUSH2 0x23F4 PUSH2 0x2283 JUMP JUMPDEST JUMPDEST SWAP3 SWAP2 POP POP JUMP JUMPDEST PUSH32 0x4554480000000000000000000000000000000000000000000000000000000000 PUSH0 DUP3 ADD MSTORE POP JUMP JUMPDEST PUSH0 PUSH2 0x242F PUSH1 0x3 DUP4 PUSH2 0x21A3 JUMP JUMPDEST SWAP2 POP PUSH2 0x243A DUP3 PUSH2 0x23FB JUMP JUMPDEST PUSH1 0x20 DUP3 ADD SWAP1 POP SWAP2 SWAP1 POP JUMP JUMPDEST PUSH0 PUSH1 0x60 DUP3 ADD SWAP1 POP PUSH2 0x2458 PUSH0 DUP4 ADD DUP6 PUSH2 0x1D73 JUMP JUMPDEST PUSH2 0x2465 PUSH1 0x20 DUP4 ADD DUP5 PUSH2 0x1D73 JUMP JUMPDEST DUP2 DUP2 SUB PUSH1 0x40 DUP4 ADD MSTORE PUSH2 0x2476 DUP2 PUSH2 0x2423 JUMP JUMPDEST SWAP1 POP SWAP4 SWAP3 POP POP POP JUMP JUMPDEST PUSH32 0x416D6F756E74206D7573742062652067726561746572207468616E2030000000 PUSH0 DUP3 ADD MSTORE POP JUMP JUMPDEST PUSH0 PUSH2 0x24B3 PUSH1 0x1D DUP4 PUSH2 0x21A3 JUMP JUMPDEST SWAP2 POP PUSH2 0x24BE DUP3 PUSH2 0x247F JUMP JUMPDEST PUSH1 0x20 DUP3 ADD SWAP1 POP SWAP2 SWAP1 POP JUMP JUMPDEST PUSH0 PUSH1 0x20 DUP3 ADD SWAP1 POP DUP2 DUP2 SUB PUSH0 DUP4 ADD MSTORE PUSH2 0x24E0 DUP2 PUSH2 0x24A7 JUMP JUMPDEST SWAP1 POP SWAP2 SWAP1 POP JUMP JUMPDEST PUSH0 DUP2 MLOAD SWAP1 POP SWAP2 SWAP1 POP JUMP JUMPDEST DUP3 DUP2 DUP4 MCOPY PUSH0 DUP4 DUP4 ADD MSTORE POP POP POP JUMP JUMPDEST PUSH0 PUSH2 0x2509 DUP3 PUSH2 0x24E7 JUMP JUMPDEST PUSH2 0x2513 DUP2 DUP6 PUSH2 0x21A3 JUMP JUMPDEST SWAP4 POP PUSH2 0x2523 DUP2 DUP6 PUSH1 0x20 DUP7 ADD PUSH2 0x24F1 JUMP JUMPDEST PUSH2 0x252C DUP2 PUSH2 0x1E63 JUMP JUMPDEST DUP5 ADD SWAP2 POP POP SWAP3 SWAP2 POP POP JUMP JUMPDEST PUSH0 PUSH1 0x60 DUP3 ADD SWAP1 POP PUSH2 0x254A PUSH0 DUP4 ADD DUP7 PUSH2 0x1D73 JUMP JUMPDEST PUSH2 0x2557 PUSH1 0x20 DUP4 ADD DUP6 PUSH2 0x1D73 JUMP JUMPDEST DUP2 DUP2 SUB PUSH1 0x40 DUP4 ADD MSTORE PUSH2 0x2569 DUP2 DUP5 PUSH2 0x24FF JUMP JUMPDEST SWAP1 POP SWAP5 SWAP4 POP POP POP POP JUMP JUMPDEST PUSH32 0x526174696E67206D757374206265206265747765656E203120616E6420350000 PUSH0 DUP3 ADD MSTORE POP JUMP JUMPDEST PUSH0 PUSH2 0x25A7 PUSH1 0x1E DUP4 PUSH2 0x21A3 JUMP JUMPDEST SWAP2 POP PUSH2 0x25B2 DUP3 PUSH2 0x2573 JUMP JUMPDEST PUSH1 0x20 DUP3 ADD SWAP1 POP SWAP2 SWAP1 POP JUMP JUMPDEST PUSH0 PUSH1 0x20 DUP3 ADD SWAP1 POP DUP2 DUP2 SUB PUSH0 DUP4 ADD MSTORE PUSH2 0x25D4 DUP2 PUSH2 0x259B JUMP JUMPDEST SWAP1 POP SWAP2 SWAP1 POP JUMP JUMPDEST PUSH32 0x596F752063616E6E6F74207261746520796F757273656C660000000000000000 PUSH0 DUP3 ADD MSTORE POP JUMP JUMPDEST PUSH0 PUSH2 0x260F PUSH1 0x18 DUP4 PUSH2 0x21A3 JUMP JUMPDEST SWAP2 POP PUSH2 0x261A DUP3 PUSH2 0x25DB JUMP JUMPDEST PUSH1 0x20 DUP3 ADD SWAP1 POP SWAP2 SWAP1 POP JUMP JUMPDEST PUSH0 PUSH1 0x20 DUP3 ADD SWAP1 POP DUP2 DUP2 SUB PUSH0 DUP4 ADD MSTORE PUSH2 0x263C DUP2 PUSH2 0x2603 JUMP JUMPDEST SWAP1 POP SWAP2 SWAP1 POP JUMP JUMPDEST PUSH2 0x264C DUP2 PUSH2 0x2017 JUMP JUMPDEST DUP3 MSTORE POP POP JUMP JUMPDEST PUSH0 PUSH1 0x20 DUP3 ADD SWAP1 POP PUSH2 0x2665 PUSH0 DUP4 ADD DUP5 PUSH2 0x2643 JUMP JUMPDEST SWAP3 SWAP2 POP POP JUMP JUMPDEST PUSH32 0x4F6E6C792062757965722063616E20617070726F766500000000000000000000 PUSH0 DUP3 ADD MSTORE POP JUMP JUMPDEST PUSH0 PUSH2 0x269F PUSH1 0x16 DUP4 PUSH2 0x21A3 JUMP JUMPDEST SWAP2 POP PUSH2 0x26AA DUP3 PUSH2 0x266B JUMP JUMPDEST PUSH1 0x20 DUP3 ADD SWAP1 POP SWAP2 SWAP1 POP JUMP JUMPDEST PUSH0 PUSH1 0x20 DUP3 ADD SWAP1 POP DUP2 DUP2 SUB PUSH0 DUP4 ADD MSTORE PUSH2 0x26CC DUP2 PUSH2 0x2693 JUMP JUMPDEST SWAP1 POP SWAP2 SWAP1 POP JUMP JUMPDEST PUSH32 0x416C726561647920617070726F76656400000000000000000000000000000000 PUSH0 DUP3 ADD MSTORE POP JUMP JUMPDEST PUSH0 PUSH2 0x2707 PUSH1 0x10 DUP4 PUSH2 0x21A3 JUMP JUMPDEST SWAP2 POP PUSH2 0x2712 DUP3 PUSH2 0x26D3 JUMP JUMPDEST PUSH1 0x20 DUP3 ADD SWAP1 POP SWAP2 SWAP1 POP JUMP JUMPDEST PUSH0 PUSH1 0x20 DUP3 ADD SWAP1 POP DUP2 DUP2 SUB PUSH0 DUP4 ADD MSTORE PUSH2 0x2734 DUP2 PUSH2 0x26FB JUMP JUMPDEST SWAP1 POP SWAP2 SWAP1 POP JUMP JUMPDEST PUSH0 PUSH1 0x60 DUP3 ADD SWAP1 POP PUSH2 0x274E PUSH0 DUP4 ADD DUP7 PUSH2 0x20F4 JUMP JUMPDEST PUSH2 0x275B PUSH1 0x20 DUP4 ADD DUP6 PUSH2 0x20F4 JUMP JUMPDEST PUSH2 0x2768 PUSH1 0x40 DUP4 ADD DUP5 PUSH2 0x1D73 JUMP JUMPDEST SWAP5 SWAP4 POP POP POP POP JUMP JUMPDEST PUSH2 0x2779 DUP2 PUSH2 0x2103 JUMP JUMPDEST DUP2 EQ PUSH2 0x2783 JUMPI PUSH0 DUP1 REVERT JUMPDEST POP JUMP JUMPDEST PUSH0 DUP2 MLOAD SWAP1 POP PUSH2 0x2794 DUP2 PUSH2 0x2770 JUMP JUMPDEST SWAP3 SWAP2 POP POP JUMP JUMPDEST PUSH0 PUSH1 0x20 DUP3 DUP5 SUB SLT ISZERO PUSH2 0x27AF JUMPI PUSH2 0x27AE PUSH2 0x1DA4 JUMP JUMPDEST JUMPDEST PUSH0 PUSH2 0x27BC DUP5 DUP3 DUP6 ADD PUSH2 0x2786 JUMP JUMPDEST SWAP2 POP POP SWAP3 SWAP2 POP POP JUMP JUMPDEST PUSH32 0x466565207472616E73666572206661696C656400000000000000000000000000 PUSH0 DUP3 ADD MSTORE POP JUMP JUMPDEST PUSH0 PUSH2 0x27F9 PUSH1 0x13 DUP4 PUSH2 0x21A3 JUMP JUMPDEST SWAP2 POP PUSH2 0x2804 DUP3 PUSH2 0x27C5 JUMP JUMPDEST PUSH1 0x20 DUP3 ADD SWAP1 POP SWAP2 SWAP1 POP JUMP JUMPDEST PUSH0 PUSH1 0x20 DUP3 ADD SWAP1 POP DUP2 DUP2 SUB PUSH0 DUP4 ADD MSTORE PUSH2 0x2826 DUP2 PUSH2 0x27ED JUMP JUMPDEST SWAP1 POP SWAP2 SWAP1 POP JUMP JUMPDEST PUSH32 0x537461626C65636F696E207472616E73666572206661696C6564000000000000 PUSH0 DUP3 ADD MSTORE POP JUMP JUMPDEST PUSH0 PUSH2 0x2861 PUSH1 0x1A DUP4 PUSH2 0x21A3 JUMP JUMPDEST SWAP2 POP PUSH2 0x286C DUP3 PUSH2 0x282D JUMP JUMPDEST PUSH1 0x20 DUP3 ADD SWAP1 POP SWAP2 SWAP1 POP JUMP JUMPDEST PUSH0 PUSH1 0x20 DUP3 ADD SWAP1 POP DUP2 DUP2 SUB PUSH0 DUP4 ADD MSTORE PUSH2 0x288E DUP2 PUSH2 0x2855 JUMP JUMPDEST SWAP1 POP SWAP2 SWAP1 POP JUMP JUMPDEST PUSH32 0x537461626C65636F696E00000000000000000000000000000000000000000000 PUSH0 DUP3 ADD MSTORE POP JUMP JUMPDEST PUSH0 PUSH2 0x28C9 PUSH1 0xA DUP4 PUSH2 0x21A3 JUMP JUMPDEST SWAP2 POP PUSH2 0x28D4 DUP3 PUSH2 0x2895 JUMP JUMPDEST PUSH1 0x20 DUP3 ADD SWAP1 POP SWAP2 SWAP1 POP JUMP JUMPDEST PUSH0 PUSH1 0x60 DUP3 ADD SWAP1 POP PUSH2 0x28F2 PUSH0 DUP4 ADD DUP6 PUSH2 0x1D73 JUMP JUMPDEST PUSH2 0x28FF PUSH1 0x20 DUP4 ADD DUP5 PUSH2 0x1D73 JUMP JUMPDEST DUP2 DUP2 SUB PUSH1 0x40 DUP4 ADD MSTORE PUSH2 0x2910 DUP2 PUSH2 0x28BD JUMP JUMPDEST SWAP1 POP SWAP4 SWAP3 POP POP POP JUMP JUMPDEST PUSH32 0x4F6E6C792062757965722063616E207265717565737420726566756E64000000 PUSH0 DUP3 ADD MSTORE POP JUMP JUMPDEST PUSH0 PUSH2 0x294D PUSH1 0x1D DUP4 PUSH2 0x21A3 JUMP JUMPDEST SWAP2 POP PUSH2 0x2958 DUP3 PUSH2 0x2919 JUMP JUMPDEST PUSH1 0x20 DUP3 ADD SWAP1 POP SWAP2 SWAP1 POP JUMP JUMPDEST PUSH0 PUSH1 0x20 DUP3 ADD SWAP1 POP DUP2 DUP2 SUB PUSH0 DUP4 ADD MSTORE PUSH2 0x297A DUP2 PUSH2 0x2941 JUMP JUMPDEST SWAP1 POP SWAP2 SWAP1 POP JUMP JUMPDEST PUSH32 0x457363726F772074696D65206E6F742065787069726564000000000000000000 PUSH0 DUP3 ADD MSTORE POP JUMP JUMPDEST PUSH0 PUSH2 0x29B5 PUSH1 0x17 DUP4 PUSH2 0x21A3 JUMP JUMPDEST SWAP2 POP PUSH2 0x29C0 DUP3 PUSH2 0x2981 JUMP JUMPDEST PUSH1 0x20 DUP3 ADD SWAP1 POP SWAP2 SWAP1 POP JUMP JUMPDEST PUSH0 PUSH1 0x20 DUP3 ADD SWAP1 POP DUP2 DUP2 SUB PUSH0 DUP4 ADD MSTORE PUSH2 0x29E2 DUP2 PUSH2 0x29A9 JUMP JUMPDEST SWAP1 POP SWAP2 SWAP1 POP JUMP JUMPDEST PUSH32 0x43726561746F722068617320616C726561647920617070726F76656400000000 PUSH0 DUP3 ADD MSTORE POP JUMP JUMPDEST PUSH0 PUSH2 0x2A1D PUSH1 0x1C DUP4 PUSH2 0x21A3 JUMP JUMPDEST SWAP2 POP PUSH2 0x2A28 DUP3 PUSH2 0x29E9 JUMP JUMPDEST PUSH1 0x20 DUP3 ADD SWAP1 POP SWAP2 SWAP1 POP JUMP JUMPDEST PUSH0 PUSH1 0x20 DUP3 ADD SWAP1 POP DUP2 DUP2 SUB PUSH0 DUP4 ADD MSTORE PUSH2 0x2A4A DUP2 PUSH2 0x2A11 JUMP JUMPDEST SWAP1 POP SWAP2 SWAP1 POP JUMP JUMPDEST PUSH32 0x416C726561647920726566756E64656400000000000000000000000000000000 PUSH0 DUP3 ADD MSTORE POP JUMP JUMPDEST PUSH0 PUSH2 0x2A85 PUSH1 0x10 DUP4 PUSH2 0x21A3 JUMP JUMPDEST SWAP2 POP PUSH2 0x2A90 DUP3 PUSH2 0x2A51 JUMP JUMPDEST PUSH1 0x20 DUP3 ADD SWAP1 POP SWAP2 SWAP1 POP JUMP JUMPDEST PUSH0 PUSH1 0x20 DUP3 ADD SWAP1 POP DUP2 DUP2 SUB PUSH0 DUP4 ADD MSTORE PUSH2 0x2AB2 DUP2 PUSH2 0x2A79 JUMP JUMPDEST SWAP1 POP SWAP2 SWAP1 POP JUMP JUMPDEST PUSH32 0x4F6E6C792063726561746F722063616E20636F6E6669726D0000000000000000 PUSH0 DUP3 ADD MSTORE POP JUMP JUMPDEST PUSH0 PUSH2 0x2AED PUSH1 0x18 DUP4 PUSH2 0x21A3 JUMP JUMPDEST SWAP2 POP PUSH2 0x2AF8 DUP3 PUSH2 0x2AB9 JUMP JUMPDEST PUSH1 0x20 DUP3 ADD SWAP1 POP SWAP2 SWAP1 POP JUMP JUMPDEST PUSH0 PUSH1 0x20 DUP3 ADD SWAP1 POP DUP2 DUP2 SUB PUSH0 DUP4 ADD MSTORE PUSH2 0x2B1A DUP2 PUSH2 0x2AE1 JUMP JUMPDEST SWAP1 POP SWAP2 SWAP1 POP JUMP INVALID LOG2 PUSH5 0x6970667358 0x22 SLT KECCAK256 DUP2 TIMESTAMP MSTORE 0xC5 0xBA 0xC6 SMOD 0x4E STATICCALL PUSH24 0xDB2D975A41D101B333C87718212D069B751329CC0A946473 PUSH16 0x6C634300081A00330000000000000000 "
				},
				"gasEstimates": {
					"creation": {
						"codeDepositCost": "2219000",
						"executionCost": "infinite",
						"totalCost": "infinite"
					},
					"external": {
						"approveContent(uint256)": "infinite",
						"buyerRewards(address)": "2913",
						"confirmDelivery(uint256)": "infinite",
						"creatorBalances(address)": "2914",
						"escrowTimeLimit()": "2471",
						"getAverageRating(address)": "infinite",
						"getBuyerRewards(address)": "2874",
						"owner()": "2582",
						"payWithETH(address)": "infinite",
						"payWithStablecoin(address,uint256)": "infinite",
						"platformFeePercentage()": "2469",
						"platformWallet()": "2618",
						"processMPesaPayment(address,address,uint256,string)": "infinite",
						"purchaseCounter()": "2449",
						"purchases(uint256)": "infinite",
						"rateCreator(address,uint8)": "infinite",
						"ratings(address)": "2891",
						"renounceOwnership()": "infinite",
						"requestRefund(uint256)": "infinite",
						"stablecoin()": "2574",
						"totalRatings(address)": "2847",
						"transferOwnership(address)": "infinite",
						"withdrawFunds()": "infinite"
					},
					"internal": {
						"finalizeEscrow(uint256)": "infinite"
					}
				},
				"methodIdentifiers": {
					"approveContent(uint256)": "589c9648",
					"buyerRewards(address)": "9f766246",
					"confirmDelivery(uint256)": "fd84cb97",
					"creatorBalances(address)": "2a782802",
					"escrowTimeLimit()": "1b41c1ff",
					"getAverageRating(address)": "c8b67522",
					"getBuyerRewards(address)": "454c1723",
					"owner()": "8da5cb5b",
					"payWithETH(address)": "279805c9",
					"payWithStablecoin(address,uint256)": "604cbee4",
					"platformFeePercentage()": "cdd78cfc",
					"platformWallet()": "fa2af9da",
					"processMPesaPayment(address,address,uint256,string)": "3222365f",
					"purchaseCounter()": "055680f0",
					"purchases(uint256)": "8392fe31",
					"rateCreator(address,uint8)": "57ac1d07",
					"ratings(address)": "9e01dfbb",
					"renounceOwnership()": "715018a6",
					"requestRefund(uint256)": "a4b2409e",
					"stablecoin()": "e9cbd822",
					"totalRatings(address)": "8b609dab",
					"transferOwnership(address)": "f2fde38b",
					"withdrawFunds()": "24600fc3"
				}
			},
			"storageLayout": {
				"storage": [
					{
						"astId": 8,
						"contract": "contracts/PaymentEscrow.sol:PaymentEscrow",
						"label": "_owner",
						"offset": 0,
						"slot": "0",
						"type": "t_address"
					},
					{
						"astId": 285,
						"contract": "contracts/PaymentEscrow.sol:PaymentEscrow",
						"label": "purchases",
						"offset": 0,
						"slot": "1",
						"type": "t_mapping(t_uint256,t_struct(Purchase)280_storage)"
					},
					{
						"astId": 289,
						"contract": "contracts/PaymentEscrow.sol:PaymentEscrow",
						"label": "creatorBalances",
						"offset": 0,
						"slot": "2",
						"type": "t_mapping(t_address,t_uint256)"
					},
					{
						"astId": 293,
						"contract": "contracts/PaymentEscrow.sol:PaymentEscrow",
						"label": "buyerRewards",
						"offset": 0,
						"slot": "3",
						"type": "t_mapping(t_address,t_uint256)"
					},
					{
						"astId": 297,
						"contract": "contracts/PaymentEscrow.sol:PaymentEscrow",
						"label": "ratings",
						"offset": 0,
						"slot": "4",
						"type": "t_mapping(t_address,t_uint256)"
					},
					{
						"astId": 301,
						"contract": "contracts/PaymentEscrow.sol:PaymentEscrow",
						"label": "totalRatings",
						"offset": 0,
						"slot": "5",
						"type": "t_mapping(t_address,t_uint256)"
					},
					{
						"astId": 303,
						"contract": "contracts/PaymentEscrow.sol:PaymentEscrow",
						"label": "purchaseCounter",
						"offset": 0,
						"slot": "6",
						"type": "t_uint256"
					},
					{
						"astId": 305,
						"contract": "contracts/PaymentEscrow.sol:PaymentEscrow",
						"label": "stablecoin",
						"offset": 0,
						"slot": "7",
						"type": "t_address"
					},
					{
						"astId": 308,
						"contract": "contracts/PaymentEscrow.sol:PaymentEscrow",
						"label": "escrowTimeLimit",
						"offset": 0,
						"slot": "8",
						"type": "t_uint256"
					},
					{
						"astId": 311,
						"contract": "contracts/PaymentEscrow.sol:PaymentEscrow",
						"label": "platformFeePercentage",
						"offset": 0,
						"slot": "9",
						"type": "t_uint256"
					},
					{
						"astId": 313,
						"contract": "contracts/PaymentEscrow.sol:PaymentEscrow",
						"label": "platformWallet",
						"offset": 0,
						"slot": "10",
						"type": "t_address"
					}
				],
				"types": {
					"t_address": {
						"encoding": "inplace",
						"label": "address",
						"numberOfBytes": "20"
					},
					"t_bool": {
						"encoding": "inplace",
						"label": "bool",
						"numberOfBytes": "1"
					},
					"t_mapping(t_address,t_uint256)": {
						"encoding": "mapping",
						"key": "t_address",
						"label": "mapping(address => uint256)",
						"numberOfBytes": "32",
						"value": "t_uint256"
					},
					"t_mapping(t_uint256,t_struct(Purchase)280_storage)": {
						"encoding": "mapping",
						"key": "t_uint256",
						"label": "mapping(uint256 => struct PaymentEscrow.Purchase)",
						"numberOfBytes": "32",
						"value": "t_struct(Purchase)280_storage"
					},
					"t_struct(Purchase)280_storage": {
						"encoding": "inplace",
						"label": "struct PaymentEscrow.Purchase",
						"members": [
							{
								"astId": 267,
								"contract": "contracts/PaymentEscrow.sol:PaymentEscrow",
								"label": "buyer",
								"offset": 0,
								"slot": "0",
								"type": "t_address"
							},
							{
								"astId": 269,
								"contract": "contracts/PaymentEscrow.sol:PaymentEscrow",
								"label": "creator",
								"offset": 0,
								"slot": "1",
								"type": "t_address"
							},
							{
								"astId": 271,
								"contract": "contracts/PaymentEscrow.sol:PaymentEscrow",
								"label": "amount",
								"offset": 0,
								"slot": "2",
								"type": "t_uint256"
							},
							{
								"astId": 273,
								"contract": "contracts/PaymentEscrow.sol:PaymentEscrow",
								"label": "buyerApproval",
								"offset": 0,
								"slot": "3",
								"type": "t_bool"
							},
							{
								"astId": 275,
								"contract": "contracts/PaymentEscrow.sol:PaymentEscrow",
								"label": "creatorApproval",
								"offset": 1,
								"slot": "3",
								"type": "t_bool"
							},
							{
								"astId": 277,
								"contract": "contracts/PaymentEscrow.sol:PaymentEscrow",
								"label": "deadline",
								"offset": 0,
								"slot": "4",
								"type": "t_uint256"
							},
							{
								"astId": 279,
								"contract": "contracts/PaymentEscrow.sol:PaymentEscrow",
								"label": "refunded",
								"offset": 0,
								"slot": "5",
								"type": "t_bool"
							}
						],
						"numberOfBytes": "192"
					},
					"t_uint256": {
						"encoding": "inplace",
						"label": "uint256",
						"numberOfBytes": "32"
					}
				}
			},
			"userdoc": {
				"kind": "user",
				"methods": {},
				"version": 1
			}
		}
	}
}