{
	"contracts/ContentAccess.sol": {
		"ContentAccess": {
			"abi": [
				{
					"inputs": [
						{
							"internalType": "address",
							"name": "tokenAddress",
							"type": "address"
						}
					],
					"stateMutability": "nonpayable",
					"type": "constructor"
				},
				{
					"inputs": [
						{
							"internalType": "address",
							"name": "owner",
							"type": "address"
						}
					],
					"name": "OwnableInvalidOwner",
					"type": "error"
				},
				{
					"inputs": [
						{
							"internalType": "address",
							"name": "account",
							"type": "address"
						}
					],
					"name": "OwnableUnauthorizedAccount",
					"type": "error"
				},
				{
					"anonymous": false,
					"inputs": [
						{
							"indexed": true,
							"internalType": "address",
							"name": "user",
							"type": "address"
						},
						{
							"indexed": false,
							"internalType": "uint256",
							"name": "contentId",
							"type": "uint256"
						}
					],
					"name": "ContentUnlocked",
					"type": "event"
				},
				{
					"anonymous": false,
					"inputs": [
						{
							"indexed": true,
							"internalType": "address",
							"name": "previousOwner",
							"type": "address"
						},
						{
							"indexed": true,
							"internalType": "address",
							"name": "newOwner",
							"type": "address"
						}
					],
					"name": "OwnershipTransferred",
					"type": "event"
				},
				{
					"inputs": [
						{
							"internalType": "uint256",
							"name": "",
							"type": "uint256"
						}
					],
					"name": "contentTiers",
					"outputs": [
						{
							"internalType": "enum ContentAccess.Tier",
							"name": "",
							"type": "uint8"
						}
					],
					"stateMutability": "view",
					"type": "function"
				},
				{
					"inputs": [
						{
							"internalType": "address",
							"name": "user",
							"type": "address"
						},
						{
							"internalType": "uint256",
							"name": "contentId",
							"type": "uint256"
						}
					],
					"name": "hasAccess",
					"outputs": [
						{
							"internalType": "bool",
							"name": "",
							"type": "bool"
						}
					],
					"stateMutability": "view",
					"type": "function"
				},
				{
					"inputs": [],
					"name": "owner",
					"outputs": [
						{
							"internalType": "address",
							"name": "",
							"type": "address"
						}
					],
					"stateMutability": "view",
					"type": "function"
				},
				{
					"inputs": [],
					"name": "renounceOwnership",
					"outputs": [],
					"stateMutability": "nonpayable",
					"type": "function"
				},
				{
					"inputs": [
						{
							"internalType": "uint256",
							"name": "contentId",
							"type": "uint256"
						},
						{
							"internalType": "enum ContentAccess.Tier",
							"name": "tier",
							"type": "uint8"
						}
					],
					"name": "setContentTier",
					"outputs": [],
					"stateMutability": "nonpayable",
					"type": "function"
				},
				{
					"inputs": [
						{
							"internalType": "enum ContentAccess.Tier",
							"name": "tier",
							"type": "uint8"
						},
						{
							"internalType": "uint256",
							"name": "requirement",
							"type": "uint256"
						}
					],
					"name": "setTierRequirement",
					"outputs": [],
					"stateMutability": "nonpayable",
					"type": "function"
				},
				{
					"inputs": [
						{
							"internalType": "enum ContentAccess.Tier",
							"name": "",
							"type": "uint8"
						}
					],
					"name": "tiers",
					"outputs": [
						{
							"internalType": "uint256",
							"name": "tokenRequirement",
							"type": "uint256"
						}
					],
					"stateMutability": "view",
					"type": "function"
				},
				{
					"inputs": [],
					"name": "token",
					"outputs": [
						{
							"internalType": "contract IERC20",
							"name": "",
							"type": "address"
						}
					],
					"stateMutability": "view",
					"type": "function"
				},
				{
					"inputs": [
						{
							"internalType": "address",
							"name": "newOwner",
							"type": "address"
						}
					],
					"name": "transferOwnership",
					"outputs": [],
					"stateMutability": "nonpayable",
					"type": "function"
				},
				{
					"inputs": [
						{
							"internalType": "uint256",
							"name": "contentId",
							"type": "uint256"
						}
					],
					"name": "unlockContent",
					"outputs": [],
					"stateMutability": "nonpayable",
					"type": "function"
				},
				{
					"inputs": [
						{
							"internalType": "address",
							"name": "recipient",
							"type": "address"
						},
						{
							"internalType": "uint256",
							"name": "amount",
							"type": "uint256"
						}
					],
					"name": "withdrawTokens",
					"outputs": [],
					"stateMutability": "nonpayable",
					"type": "function"
				}
			],
			"devdoc": {
				"details": "Smart contract for managing premium content access based on ERC-20 token ownership.",
				"errors": {
					"OwnableInvalidOwner(address)": [
						{
							"details": "The owner is not a valid owner account. (eg. `address(0)`)"
						}
					],
					"OwnableUnauthorizedAccount(address)": [
						{
							"details": "The caller account is not authorized to perform an operation."
						}
					]
				},
				"kind": "dev",
				"methods": {
					"owner()": {
						"details": "Returns the address of the current owner."
					},
					"renounceOwnership()": {
						"details": "Leaves the contract without owner. It will not be possible to call `onlyOwner` functions. Can only be called by the current owner. NOTE: Renouncing ownership will leave the contract without an owner, thereby disabling any functionality that is only available to the owner."
					},
					"transferOwnership(address)": {
						"details": "Transfers ownership of the contract to a new account (`newOwner`). Can only be called by the current owner."
					}
				},
				"title": "ContentAccess",
				"version": 1
			},
			"evm": {
				"assembly": "    /* \"contracts/ContentAccess.sol\":302:2144  contract ContentAccess is Ownable {... */\n  mstore(0x40, 0x80)\n    /* \"contracts/ContentAccess.sol\":774:1139  constructor(address tokenAddress) Ownable (msg.sender) {... */\n  callvalue\n  dup1\n  iszero\n  tag_1\n  jumpi\n  0x00\n  dup1\n  revert\ntag_1:\n  pop\n  mload(0x40)\n  sub(codesize, bytecodeSize)\n  dup1\n  bytecodeSize\n  dup4\n  codecopy\n  dup2\n  dup2\n  add\n  0x40\n  mstore\n  dup2\n  add\n  swap1\n  tag_2\n  swap2\n  swap1\n  tag_3\n  jump\t// in\ntag_2:\n    /* \"contracts/ContentAccess.sol\":817:827  msg.sender */\n  caller\n    /* \"@openzeppelin/contracts/access/Ownable.sol\":1297:1298  0 */\n  0x00\n    /* \"@openzeppelin/contracts/access/Ownable.sol\":1273:1299  initialOwner == address(0) */\n  0xffffffffffffffffffffffffffffffffffffffff\n  and\n    /* \"@openzeppelin/contracts/access/Ownable.sol\":1273:1285  initialOwner */\n  dup2\n    /* \"@openzeppelin/contracts/access/Ownable.sol\":1273:1299  initialOwner == address(0) */\n  0xffffffffffffffffffffffffffffffffffffffff\n  and\n  sub\n    /* \"@openzeppelin/contracts/access/Ownable.sol\":1269:1364  if (initialOwner == address(0)) {... */\n  tag_7\n  jumpi\n    /* \"@openzeppelin/contracts/access/Ownable.sol\":1350:1351  0 */\n  0x00\n    /* \"@openzeppelin/contracts/access/Ownable.sol\":1322:1353  OwnableInvalidOwner(address(0)) */\n  mload(0x40)\n  0x1e4fbdf700000000000000000000000000000000000000000000000000000000\n  dup2\n  mstore\n  0x04\n  add\n  tag_8\n  swap2\n  swap1\n  tag_9\n  jump\t// in\ntag_8:\n  mload(0x40)\n  dup1\n  swap2\n  sub\n  swap1\n  revert\n    /* \"@openzeppelin/contracts/access/Ownable.sol\":1269:1364  if (initialOwner == address(0)) {... */\ntag_7:\n    /* \"@openzeppelin/contracts/access/Ownable.sol\":1373:1405  _transferOwnership(initialOwner) */\n  tag_10\n    /* \"@openzeppelin/contracts/access/Ownable.sol\":1392:1404  initialOwner */\n  dup2\n    /* \"@openzeppelin/contracts/access/Ownable.sol\":1373:1391  _transferOwnership */\n  shl(0x20, tag_11)\n    /* \"@openzeppelin/contracts/access/Ownable.sol\":1373:1405  _transferOwnership(initialOwner) */\n  0x20\n  shr\n  jump\t// in\ntag_10:\n    /* \"@openzeppelin/contracts/access/Ownable.sol\":1225:1412  constructor(address initialOwner) {... */\n  pop\n    /* \"contracts/ContentAccess.sol\":855:867  tokenAddress */\n  dup1\n    /* \"contracts/ContentAccess.sol\":840:845  token */\n  0x01\n  0x00\n    /* \"contracts/ContentAccess.sol\":840:868  token = IERC20(tokenAddress) */\n  0x0100\n  exp\n  dup2\n  sload\n  dup2\n  0xffffffffffffffffffffffffffffffffffffffff\n  mul\n  not\n  and\n  swap1\n  dup4\n  0xffffffffffffffffffffffffffffffffffffffff\n  and\n  mul\n  or\n  swap1\n  sstore\n  pop\n    /* \"contracts/ContentAccess.sol\":966:1000  TierInfo({ tokenRequirement: 10 }) */\n  mload(0x40)\n  dup1\n  0x20\n  add\n  0x40\n  mstore\n  dup1\n    /* \"contracts/ContentAccess.sol\":995:997  10 */\n  0x0a\n    /* \"contracts/ContentAccess.sol\":966:1000  TierInfo({ tokenRequirement: 10 }) */\n  dup2\n  mstore\n  pop\n    /* \"contracts/ContentAccess.sol\":945:950  tiers */\n  0x02\n    /* \"contracts/ContentAccess.sol\":945:963  tiers[Tier.Bronze] */\n  0x00\n    /* \"contracts/ContentAccess.sol\":951:962  Tier.Bronze */\n  dup1\n    /* \"contracts/ContentAccess.sol\":945:963  tiers[Tier.Bronze] */\n  0x02\n  dup2\n  gt\n  iszero\n  tag_13\n  jumpi\n  tag_14\n  tag_15\n  jump\t// in\ntag_14:\ntag_13:\n  0x02\n  dup2\n  gt\n  iszero\n  tag_16\n  jumpi\n  tag_17\n  tag_15\n  jump\t// in\ntag_17:\ntag_16:\n  dup2\n  mstore\n  0x20\n  add\n  swap1\n  dup2\n  mstore\n  0x20\n  add\n  0x00\n  keccak256\n    /* \"contracts/ContentAccess.sol\":945:1000  tiers[Tier.Bronze] = TierInfo({ tokenRequirement: 10 }) */\n  0x00\n  dup3\n  add\n  mload\n  dup2\n  0x00\n  add\n  sstore\n  swap1\n  pop\n  pop\n    /* \"contracts/ContentAccess.sol\":1032:1066  TierInfo({ tokenRequirement: 50 }) */\n  mload(0x40)\n  dup1\n  0x20\n  add\n  0x40\n  mstore\n  dup1\n    /* \"contracts/ContentAccess.sol\":1061:1063  50 */\n  0x32\n    /* \"contracts/ContentAccess.sol\":1032:1066  TierInfo({ tokenRequirement: 50 }) */\n  dup2\n  mstore\n  pop\n    /* \"contracts/ContentAccess.sol\":1011:1016  tiers */\n  0x02\n    /* \"contracts/ContentAccess.sol\":1011:1029  tiers[Tier.Silver] */\n  0x00\n    /* \"contracts/ContentAccess.sol\":1017:1028  Tier.Silver */\n  0x01\n    /* \"contracts/ContentAccess.sol\":1011:1029  tiers[Tier.Silver] */\n  0x02\n  dup2\n  gt\n  iszero\n  tag_18\n  jumpi\n  tag_19\n  tag_15\n  jump\t// in\ntag_19:\ntag_18:\n  0x02\n  dup2\n  gt\n  iszero\n  tag_20\n  jumpi\n  tag_21\n  tag_15\n  jump\t// in\ntag_21:\ntag_20:\n  dup2\n  mstore\n  0x20\n  add\n  swap1\n  dup2\n  mstore\n  0x20\n  add\n  0x00\n  keccak256\n    /* \"contracts/ContentAccess.sol\":1011:1066  tiers[Tier.Silver] = TierInfo({ tokenRequirement: 50 }) */\n  0x00\n  dup3\n  add\n  mload\n  dup2\n  0x00\n  add\n  sstore\n  swap1\n  pop\n  pop\n    /* \"contracts/ContentAccess.sol\":1096:1131  TierInfo({ tokenRequirement: 100 }) */\n  mload(0x40)\n  dup1\n  0x20\n  add\n  0x40\n  mstore\n  dup1\n    /* \"contracts/ContentAccess.sol\":1125:1128  100 */\n  0x64\n    /* \"contracts/ContentAccess.sol\":1096:1131  TierInfo({ tokenRequirement: 100 }) */\n  dup2\n  mstore\n  pop\n    /* \"contracts/ContentAccess.sol\":1077:1082  tiers */\n  0x02\n    /* \"contracts/ContentAccess.sol\":1077:1093  tiers[Tier.Gold] */\n  0x00\n    /* \"contracts/ContentAccess.sol\":1083:1092  Tier.Gold */\n  0x02\n    /* \"contracts/ContentAccess.sol\":1077:1093  tiers[Tier.Gold] */\n  dup1\n  dup2\n  gt\n  iszero\n  tag_22\n  jumpi\n  tag_23\n  tag_15\n  jump\t// in\ntag_23:\ntag_22:\n  0x02\n  dup2\n  gt\n  iszero\n  tag_24\n  jumpi\n  tag_25\n  tag_15\n  jump\t// in\ntag_25:\ntag_24:\n  dup2\n  mstore\n  0x20\n  add\n  swap1\n  dup2\n  mstore\n  0x20\n  add\n  0x00\n  keccak256\n    /* \"contracts/ContentAccess.sol\":1077:1131  tiers[Tier.Gold] = TierInfo({ tokenRequirement: 100 }) */\n  0x00\n  dup3\n  add\n  mload\n  dup2\n  0x00\n  add\n  sstore\n  swap1\n  pop\n  pop\n    /* \"contracts/ContentAccess.sol\":774:1139  constructor(address tokenAddress) Ownable (msg.sender) {... */\n  pop\n    /* \"contracts/ContentAccess.sol\":302:2144  contract ContentAccess is Ownable {... */\n  jump(tag_26)\n    /* \"@openzeppelin/contracts/access/Ownable.sol\":2912:3099  function _transferOwnership(address newOwner) internal virtual {... */\ntag_11:\n    /* \"@openzeppelin/contracts/access/Ownable.sol\":2985:3001  address oldOwner */\n  0x00\n    /* \"@openzeppelin/contracts/access/Ownable.sol\":3004:3010  _owner */\n  dup1\n  0x00\n  swap1\n  sload\n  swap1\n  0x0100\n  exp\n  swap1\n  div\n  0xffffffffffffffffffffffffffffffffffffffff\n  and\n    /* \"@openzeppelin/contracts/access/Ownable.sol\":2985:3010  address oldOwner = _owner */\n  swap1\n  pop\n    /* \"@openzeppelin/contracts/access/Ownable.sol\":3029:3037  newOwner */\n  dup2\n    /* \"@openzeppelin/contracts/access/Ownable.sol\":3020:3026  _owner */\n  0x00\n  dup1\n    /* \"@openzeppelin/contracts/access/Ownable.sol\":3020:3037  _owner = newOwner */\n  0x0100\n  exp\n  dup2\n  sload\n  dup2\n  0xffffffffffffffffffffffffffffffffffffffff\n  mul\n  not\n  and\n  swap1\n  dup4\n  0xffffffffffffffffffffffffffffffffffffffff\n  and\n  mul\n  or\n  swap1\n  sstore\n  pop\n    /* \"@openzeppelin/contracts/access/Ownable.sol\":3083:3091  newOwner */\n  dup2\n    /* \"@openzeppelin/contracts/access/Ownable.sol\":3052:3092  OwnershipTransferred(oldOwner, newOwner) */\n  0xffffffffffffffffffffffffffffffffffffffff\n  and\n    /* \"@openzeppelin/contracts/access/Ownable.sol\":3073:3081  oldOwner */\n  dup2\n    /* \"@openzeppelin/contracts/access/Ownable.sol\":3052:3092  OwnershipTransferred(oldOwner, newOwner) */\n  0xffffffffffffffffffffffffffffffffffffffff\n  and\n  0x8be0079c531659141344cd1fd0a4f28419497f9722a3daafe3b4186f6b6457e0\n  mload(0x40)\n  mload(0x40)\n  dup1\n  swap2\n  sub\n  swap1\n  log3\n    /* \"@openzeppelin/contracts/access/Ownable.sol\":2975:3099  {... */\n  pop\n    /* \"@openzeppelin/contracts/access/Ownable.sol\":2912:3099  function _transferOwnership(address newOwner) internal virtual {... */\n  pop\n  jump\t// out\n    /* \"#utility.yul\":88:205   */\ntag_29:\n    /* \"#utility.yul\":197:198   */\n  0x00\n    /* \"#utility.yul\":194:195   */\n  dup1\n    /* \"#utility.yul\":187:199   */\n  revert\n    /* \"#utility.yul\":334:460   */\ntag_31:\n    /* \"#utility.yul\":371:378   */\n  0x00\n    /* \"#utility.yul\":411:453   */\n  0xffffffffffffffffffffffffffffffffffffffff\n    /* \"#utility.yul\":404:409   */\n  dup3\n    /* \"#utility.yul\":400:454   */\n  and\n    /* \"#utility.yul\":389:454   */\n  swap1\n  pop\n    /* \"#utility.yul\":334:460   */\n  swap2\n  swap1\n  pop\n  jump\t// out\n    /* \"#utility.yul\":466:562   */\ntag_32:\n    /* \"#utility.yul\":503:510   */\n  0x00\n    /* \"#utility.yul\":532:556   */\n  tag_42\n    /* \"#utility.yul\":550:555   */\n  dup3\n    /* \"#utility.yul\":532:556   */\n  tag_31\n  jump\t// in\ntag_42:\n    /* \"#utility.yul\":521:556   */\n  swap1\n  pop\n    /* \"#utility.yul\":466:562   */\n  swap2\n  swap1\n  pop\n  jump\t// out\n    /* \"#utility.yul\":568:690   */\ntag_33:\n    /* \"#utility.yul\":641:665   */\n  tag_44\n    /* \"#utility.yul\":659:664   */\n  dup2\n    /* \"#utility.yul\":641:665   */\n  tag_32\n  jump\t// in\ntag_44:\n    /* \"#utility.yul\":634:639   */\n  dup2\n    /* \"#utility.yul\":631:666   */\n  eq\n    /* \"#utility.yul\":621:684   */\n  tag_45\n  jumpi\n    /* \"#utility.yul\":680:681   */\n  0x00\n    /* \"#utility.yul\":677:678   */\n  dup1\n    /* \"#utility.yul\":670:682   */\n  revert\n    /* \"#utility.yul\":621:684   */\ntag_45:\n    /* \"#utility.yul\":568:690   */\n  pop\n  jump\t// out\n    /* \"#utility.yul\":696:839   */\ntag_34:\n    /* \"#utility.yul\":753:758   */\n  0x00\n    /* \"#utility.yul\":784:790   */\n  dup2\n    /* \"#utility.yul\":778:791   */\n  mload\n    /* \"#utility.yul\":769:791   */\n  swap1\n  pop\n    /* \"#utility.yul\":800:833   */\n  tag_47\n    /* \"#utility.yul\":827:832   */\n  dup2\n    /* \"#utility.yul\":800:833   */\n  tag_33\n  jump\t// in\ntag_47:\n    /* \"#utility.yul\":696:839   */\n  swap3\n  swap2\n  pop\n  pop\n  jump\t// out\n    /* \"#utility.yul\":845:1196   */\ntag_3:\n    /* \"#utility.yul\":915:921   */\n  0x00\n    /* \"#utility.yul\":964:966   */\n  0x20\n    /* \"#utility.yul\":952:961   */\n  dup3\n    /* \"#utility.yul\":943:950   */\n  dup5\n    /* \"#utility.yul\":939:962   */\n  sub\n    /* \"#utility.yul\":935:967   */\n  slt\n    /* \"#utility.yul\":932:1051   */\n  iszero\n  tag_49\n  jumpi\n    /* \"#utility.yul\":970:1049   */\n  tag_50\n  tag_29\n  jump\t// in\ntag_50:\n    /* \"#utility.yul\":932:1051   */\ntag_49:\n    /* \"#utility.yul\":1090:1091   */\n  0x00\n    /* \"#utility.yul\":1115:1179   */\n  tag_51\n    /* \"#utility.yul\":1171:1178   */\n  dup5\n    /* \"#utility.yul\":1162:1168   */\n  dup3\n    /* \"#utility.yul\":1151:1160   */\n  dup6\n    /* \"#utility.yul\":1147:1169   */\n  add\n    /* \"#utility.yul\":1115:1179   */\n  tag_34\n  jump\t// in\ntag_51:\n    /* \"#utility.yul\":1105:1179   */\n  swap2\n  pop\n    /* \"#utility.yul\":1061:1189   */\n  pop\n    /* \"#utility.yul\":845:1196   */\n  swap3\n  swap2\n  pop\n  pop\n  jump\t// out\n    /* \"#utility.yul\":1202:1320   */\ntag_35:\n    /* \"#utility.yul\":1289:1313   */\n  tag_53\n    /* \"#utility.yul\":1307:1312   */\n  dup2\n    /* \"#utility.yul\":1289:1313   */\n  tag_32\n  jump\t// in\ntag_53:\n    /* \"#utility.yul\":1284:1287   */\n  dup3\n    /* \"#utility.yul\":1277:1314   */\n  mstore\n    /* \"#utility.yul\":1202:1320   */\n  pop\n  pop\n  jump\t// out\n    /* \"#utility.yul\":1326:1548   */\ntag_9:\n    /* \"#utility.yul\":1419:1423   */\n  0x00\n    /* \"#utility.yul\":1457:1459   */\n  0x20\n    /* \"#utility.yul\":1446:1455   */\n  dup3\n    /* \"#utility.yul\":1442:1460   */\n  add\n    /* \"#utility.yul\":1434:1460   */\n  swap1\n  pop\n    /* \"#utility.yul\":1470:1541   */\n  tag_55\n    /* \"#utility.yul\":1538:1539   */\n  0x00\n    /* \"#utility.yul\":1527:1536   */\n  dup4\n    /* \"#utility.yul\":1523:1540   */\n  add\n    /* \"#utility.yul\":1514:1520   */\n  dup5\n    /* \"#utility.yul\":1470:1541   */\n  tag_35\n  jump\t// in\ntag_55:\n    /* \"#utility.yul\":1326:1548   */\n  swap3\n  swap2\n  pop\n  pop\n  jump\t// out\n    /* \"#utility.yul\":1554:1734   */\ntag_15:\n    /* \"#utility.yul\":1602:1679   */\n  0x4e487b7100000000000000000000000000000000000000000000000000000000\n    /* \"#utility.yul\":1599:1600   */\n  0x00\n    /* \"#utility.yul\":1592:1680   */\n  mstore\n    /* \"#utility.yul\":1699:1703   */\n  0x21\n    /* \"#utility.yul\":1696:1697   */\n  0x04\n    /* \"#utility.yul\":1689:1704   */\n  mstore\n    /* \"#utility.yul\":1723:1727   */\n  0x24\n    /* \"#utility.yul\":1720:1721   */\n  0x00\n    /* \"#utility.yul\":1713:1728   */\n  revert\n    /* \"contracts/ContentAccess.sol\":302:2144  contract ContentAccess is Ownable {... */\ntag_26:\n  dataSize(sub_0)\n  dup1\n  dataOffset(sub_0)\n  0x00\n  codecopy\n  0x00\n  return\nstop\n\nsub_0: assembly {\n        /* \"contracts/ContentAccess.sol\":302:2144  contract ContentAccess is Ownable {... */\n      mstore(0x40, 0x80)\n      callvalue\n      dup1\n      iszero\n      tag_1\n      jumpi\n      0x00\n      dup1\n      revert\n    tag_1:\n      pop\n      jumpi(tag_2, lt(calldatasize, 0x04))\n      shr(0xe0, calldataload(0x00))\n      dup1\n      0x8da5cb5b\n      gt\n      tag_14\n      jumpi\n      dup1\n      0x8da5cb5b\n      eq\n      tag_8\n      jumpi\n      dup1\n      0xc6530e41\n      eq\n      tag_9\n      jumpi\n      dup1\n      0xcb1637de\n      eq\n      tag_10\n      jumpi\n      dup1\n      0xd1d79974\n      eq\n      tag_11\n      jumpi\n      dup1\n      0xf2fde38b\n      eq\n      tag_12\n      jumpi\n      dup1\n      0xfc0c546a\n      eq\n      tag_13\n      jumpi\n      jump(tag_2)\n    tag_14:\n      dup1\n      0x06b091f9\n      eq\n      tag_3\n      jumpi\n      dup1\n      0x12247e80\n      eq\n      tag_4\n      jumpi\n      dup1\n      0x28d82e30\n      eq\n      tag_5\n      jumpi\n      dup1\n      0x6c2c5b55\n      eq\n      tag_6\n      jumpi\n      dup1\n      0x715018a6\n      eq\n      tag_7\n      jumpi\n    tag_2:\n      0x00\n      dup1\n      revert\n        /* \"contracts/ContentAccess.sol\":1918:2141  function withdrawTokens(address recipient, uint256 amount) external onlyOwner {... */\n    tag_3:\n      tag_15\n      0x04\n      dup1\n      calldatasize\n      sub\n      dup2\n      add\n      swap1\n      tag_16\n      swap2\n      swap1\n      tag_17\n      jump\t// in\n    tag_16:\n      tag_18\n      jump\t// in\n    tag_15:\n      stop\n        /* \"contracts/ContentAccess.sol\":1147:1287  function setTierRequirement(Tier tier, uint256 requirement) external onlyOwner {... */\n    tag_4:\n      tag_19\n      0x04\n      dup1\n      calldatasize\n      sub\n      dup2\n      add\n      swap1\n      tag_20\n      swap2\n      swap1\n      tag_21\n      jump\t// in\n    tag_20:\n      tag_22\n      jump\t// in\n    tag_19:\n      stop\n        /* \"contracts/ContentAccess.sol\":1697:1910  function unlockContent(uint256 contentId) external {... */\n    tag_5:\n      tag_23\n      0x04\n      dup1\n      calldatasize\n      sub\n      dup2\n      add\n      swap1\n      tag_24\n      swap2\n      swap1\n      tag_25\n      jump\t// in\n    tag_24:\n      tag_26\n      jump\t// in\n    tag_23:\n      stop\n        /* \"contracts/ContentAccess.sol\":1295:1417  function setContentTier(uint256 contentId, Tier tier) external onlyOwner {... */\n    tag_6:\n      tag_27\n      0x04\n      dup1\n      calldatasize\n      sub\n      dup2\n      add\n      swap1\n      tag_28\n      swap2\n      swap1\n      tag_29\n      jump\t// in\n    tag_28:\n      tag_30\n      jump\t// in\n    tag_27:\n      stop\n        /* \"@openzeppelin/contracts/access/Ownable.sol\":2293:2394  function renounceOwnership() public virtual onlyOwner {... */\n    tag_7:\n      tag_31\n      tag_32\n      jump\t// in\n    tag_31:\n      stop\n        /* \"@openzeppelin/contracts/access/Ownable.sol\":1638:1723  function owner() public view virtual returns (address) {... */\n    tag_8:\n      tag_33\n      tag_34\n      jump\t// in\n    tag_33:\n      mload(0x40)\n      tag_35\n      swap2\n      swap1\n      tag_36\n      jump\t// in\n    tag_35:\n      mload(0x40)\n      dup1\n      swap2\n      sub\n      swap1\n      return\n        /* \"contracts/ContentAccess.sol\":1425:1689  function hasAccess(address user, uint256 contentId) public view returns (bool) {... */\n    tag_9:\n      tag_37\n      0x04\n      dup1\n      calldatasize\n      sub\n      dup2\n      add\n      swap1\n      tag_38\n      swap2\n      swap1\n      tag_17\n      jump\t// in\n    tag_38:\n      tag_39\n      jump\t// in\n    tag_37:\n      mload(0x40)\n      tag_40\n      swap2\n      swap1\n      tag_41\n      jump\t// in\n    tag_40:\n      mload(0x40)\n      dup1\n      swap2\n      sub\n      swap1\n      return\n        /* \"contracts/ContentAccess.sol\":604:648  mapping(uint256 => Tier) public contentTiers */\n    tag_10:\n      tag_42\n      0x04\n      dup1\n      calldatasize\n      sub\n      dup2\n      add\n      swap1\n      tag_43\n      swap2\n      swap1\n      tag_25\n      jump\t// in\n    tag_43:\n      tag_44\n      jump\t// in\n    tag_42:\n      mload(0x40)\n      tag_45\n      swap2\n      swap1\n      tag_46\n      jump\t// in\n    tag_45:\n      mload(0x40)\n      dup1\n      swap2\n      sub\n      swap1\n      return\n        /* \"contracts/ContentAccess.sol\":518:556  mapping(Tier => TierInfo) public tiers */\n    tag_11:\n      tag_47\n      0x04\n      dup1\n      calldatasize\n      sub\n      dup2\n      add\n      swap1\n      tag_48\n      swap2\n      swap1\n      tag_49\n      jump\t// in\n    tag_48:\n      tag_50\n      jump\t// in\n    tag_47:\n      mload(0x40)\n      tag_51\n      swap2\n      swap1\n      tag_52\n      jump\t// in\n    tag_51:\n      mload(0x40)\n      dup1\n      swap2\n      sub\n      swap1\n      return\n        /* \"@openzeppelin/contracts/access/Ownable.sol\":2543:2758  function transferOwnership(address newOwner) public virtual onlyOwner {... */\n    tag_12:\n      tag_53\n      0x04\n      dup1\n      calldatasize\n      sub\n      dup2\n      add\n      swap1\n      tag_54\n      swap2\n      swap1\n      tag_55\n      jump\t// in\n    tag_54:\n      tag_56\n      jump\t// in\n    tag_53:\n      stop\n        /* \"contracts/ContentAccess.sol\":343:362  IERC20 public token */\n    tag_13:\n      tag_57\n      tag_58\n      jump\t// in\n    tag_57:\n      mload(0x40)\n      tag_59\n      swap2\n      swap1\n      tag_60\n      jump\t// in\n    tag_59:\n      mload(0x40)\n      dup1\n      swap2\n      sub\n      swap1\n      return\n        /* \"contracts/ContentAccess.sol\":1918:2141  function withdrawTokens(address recipient, uint256 amount) external onlyOwner {... */\n    tag_18:\n        /* \"@openzeppelin/contracts/access/Ownable.sol\":1531:1544  _checkOwner() */\n      tag_62\n        /* \"@openzeppelin/contracts/access/Ownable.sol\":1531:1542  _checkOwner */\n      tag_63\n        /* \"@openzeppelin/contracts/access/Ownable.sol\":1531:1544  _checkOwner() */\n      jump\t// in\n    tag_62:\n        /* \"contracts/ContentAccess.sol\":2049:2055  amount */\n      dup1\n        /* \"contracts/ContentAccess.sol\":2015:2020  token */\n      0x01\n      0x00\n      swap1\n      sload\n      swap1\n      0x0100\n      exp\n      swap1\n      div\n      0xffffffffffffffffffffffffffffffffffffffff\n      and\n        /* \"contracts/ContentAccess.sol\":2015:2030  token.balanceOf */\n      0xffffffffffffffffffffffffffffffffffffffff\n      and\n      0x70a08231\n        /* \"contracts/ContentAccess.sol\":2039:2043  this */\n      address\n        /* \"contracts/ContentAccess.sol\":2015:2045  token.balanceOf(address(this)) */\n      mload(0x40)\n      dup3\n      0xffffffff\n      and\n      0xe0\n      shl\n      dup2\n      mstore\n      0x04\n      add\n      tag_65\n      swap2\n      swap1\n      tag_36\n      jump\t// in\n    tag_65:\n      0x20\n      mload(0x40)\n      dup1\n      dup4\n      sub\n      dup2\n      dup7\n      gas\n      staticcall\n      iszero\n      dup1\n      iszero\n      tag_67\n      jumpi\n      returndatasize\n      0x00\n      dup1\n      returndatacopy\n      revert(0x00, returndatasize)\n    tag_67:\n      pop\n      pop\n      pop\n      pop\n      mload(0x40)\n      returndatasize\n      not(0x1f)\n      0x1f\n      dup3\n      add\n      and\n      dup3\n      add\n      dup1\n      0x40\n      mstore\n      pop\n      dup2\n      add\n      swap1\n      tag_68\n      swap2\n      swap1\n      tag_69\n      jump\t// in\n    tag_68:\n        /* \"contracts/ContentAccess.sol\":2015:2055  token.balanceOf(address(this)) >= amount */\n      lt\n      iszero\n        /* \"contracts/ContentAccess.sol\":2007:2089  require(token.balanceOf(address(this)) >= amount, \"Not enough tokens in contract\") */\n      tag_70\n      jumpi\n      mload(0x40)\n      0x08c379a000000000000000000000000000000000000000000000000000000000\n      dup2\n      mstore\n      0x04\n      add\n      tag_71\n      swap1\n      tag_72\n      jump\t// in\n    tag_71:\n      mload(0x40)\n      dup1\n      swap2\n      sub\n      swap1\n      revert\n    tag_70:\n        /* \"contracts/ContentAccess.sol\":2100:2105  token */\n      0x01\n      0x00\n      swap1\n      sload\n      swap1\n      0x0100\n      exp\n      swap1\n      div\n      0xffffffffffffffffffffffffffffffffffffffff\n      and\n        /* \"contracts/ContentAccess.sol\":2100:2114  token.transfer */\n      0xffffffffffffffffffffffffffffffffffffffff\n      and\n      0xa9059cbb\n        /* \"contracts/ContentAccess.sol\":2115:2124  recipient */\n      dup4\n        /* \"contracts/ContentAccess.sol\":2126:2132  amount */\n      dup4\n        /* \"contracts/ContentAccess.sol\":2100:2133  token.transfer(recipient, amount) */\n      mload(0x40)\n      dup4\n      0xffffffff\n      and\n      0xe0\n      shl\n      dup2\n      mstore\n      0x04\n      add\n      tag_73\n      swap3\n      swap2\n      swap1\n      tag_74\n      jump\t// in\n    tag_73:\n      0x20\n      mload(0x40)\n      dup1\n      dup4\n      sub\n      dup2\n      0x00\n      dup8\n      gas\n      call\n      iszero\n      dup1\n      iszero\n      tag_76\n      jumpi\n      returndatasize\n      0x00\n      dup1\n      returndatacopy\n      revert(0x00, returndatasize)\n    tag_76:\n      pop\n      pop\n      pop\n      pop\n      mload(0x40)\n      returndatasize\n      not(0x1f)\n      0x1f\n      dup3\n      add\n      and\n      dup3\n      add\n      dup1\n      0x40\n      mstore\n      pop\n      dup2\n      add\n      swap1\n      tag_77\n      swap2\n      swap1\n      tag_78\n      jump\t// in\n    tag_77:\n      pop\n        /* \"contracts/ContentAccess.sol\":1918:2141  function withdrawTokens(address recipient, uint256 amount) external onlyOwner {... */\n      pop\n      pop\n      jump\t// out\n        /* \"contracts/ContentAccess.sol\":1147:1287  function setTierRequirement(Tier tier, uint256 requirement) external onlyOwner {... */\n    tag_22:\n        /* \"@openzeppelin/contracts/access/Ownable.sol\":1531:1544  _checkOwner() */\n      tag_80\n        /* \"@openzeppelin/contracts/access/Ownable.sol\":1531:1542  _checkOwner */\n      tag_63\n        /* \"@openzeppelin/contracts/access/Ownable.sol\":1531:1544  _checkOwner() */\n      jump\t// in\n    tag_80:\n        /* \"contracts/ContentAccess.sol\":1268:1279  requirement */\n      dup1\n        /* \"contracts/ContentAccess.sol\":1237:1242  tiers */\n      0x02\n        /* \"contracts/ContentAccess.sol\":1237:1248  tiers[tier] */\n      0x00\n        /* \"contracts/ContentAccess.sol\":1243:1247  tier */\n      dup5\n        /* \"contracts/ContentAccess.sol\":1237:1248  tiers[tier] */\n      0x02\n      dup2\n      gt\n      iszero\n      tag_82\n      jumpi\n      tag_83\n      tag_84\n      jump\t// in\n    tag_83:\n    tag_82:\n      0x02\n      dup2\n      gt\n      iszero\n      tag_85\n      jumpi\n      tag_86\n      tag_84\n      jump\t// in\n    tag_86:\n    tag_85:\n      dup2\n      mstore\n      0x20\n      add\n      swap1\n      dup2\n      mstore\n      0x20\n      add\n      0x00\n      keccak256\n        /* \"contracts/ContentAccess.sol\":1237:1265  tiers[tier].tokenRequirement */\n      0x00\n      add\n        /* \"contracts/ContentAccess.sol\":1237:1279  tiers[tier].tokenRequirement = requirement */\n      dup2\n      swap1\n      sstore\n      pop\n        /* \"contracts/ContentAccess.sol\":1147:1287  function setTierRequirement(Tier tier, uint256 requirement) external onlyOwner {... */\n      pop\n      pop\n      jump\t// out\n        /* \"contracts/ContentAccess.sol\":1697:1910  function unlockContent(uint256 contentId) external {... */\n    tag_26:\n        /* \"contracts/ContentAccess.sol\":1767:1799  hasAccess(msg.sender, contentId) */\n      tag_88\n        /* \"contracts/ContentAccess.sol\":1777:1787  msg.sender */\n      caller\n        /* \"contracts/ContentAccess.sol\":1789:1798  contentId */\n      dup3\n        /* \"contracts/ContentAccess.sol\":1767:1776  hasAccess */\n      tag_39\n        /* \"contracts/ContentAccess.sol\":1767:1799  hasAccess(msg.sender, contentId) */\n      jump\t// in\n    tag_88:\n        /* \"contracts/ContentAccess.sol\":1759:1848  require(hasAccess(msg.sender, contentId), \"Insufficient token balance to unlock content\") */\n      tag_89\n      jumpi\n      mload(0x40)\n      0x08c379a000000000000000000000000000000000000000000000000000000000\n      dup2\n      mstore\n      0x04\n      add\n      tag_90\n      swap1\n      tag_91\n      jump\t// in\n    tag_90:\n      mload(0x40)\n      dup1\n      swap2\n      sub\n      swap1\n      revert\n    tag_89:\n        /* \"contracts/ContentAccess.sol\":1880:1890  msg.sender */\n      caller\n        /* \"contracts/ContentAccess.sol\":1864:1902  ContentUnlocked(msg.sender, contentId) */\n      0xffffffffffffffffffffffffffffffffffffffff\n      and\n      0xecf62147db5136d5778c55e194d29ffae725bbae2f9f15f9f08b9a11bf55106f\n        /* \"contracts/ContentAccess.sol\":1892:1901  contentId */\n      dup3\n        /* \"contracts/ContentAccess.sol\":1864:1902  ContentUnlocked(msg.sender, contentId) */\n      mload(0x40)\n      tag_92\n      swap2\n      swap1\n      tag_52\n      jump\t// in\n    tag_92:\n      mload(0x40)\n      dup1\n      swap2\n      sub\n      swap1\n      log2\n        /* \"contracts/ContentAccess.sol\":1697:1910  function unlockContent(uint256 contentId) external {... */\n      pop\n      jump\t// out\n        /* \"contracts/ContentAccess.sol\":1295:1417  function setContentTier(uint256 contentId, Tier tier) external onlyOwner {... */\n    tag_30:\n        /* \"@openzeppelin/contracts/access/Ownable.sol\":1531:1544  _checkOwner() */\n      tag_94\n        /* \"@openzeppelin/contracts/access/Ownable.sol\":1531:1542  _checkOwner */\n      tag_63\n        /* \"@openzeppelin/contracts/access/Ownable.sol\":1531:1544  _checkOwner() */\n      jump\t// in\n    tag_94:\n        /* \"contracts/ContentAccess.sol\":1405:1409  tier */\n      dup1\n        /* \"contracts/ContentAccess.sol\":1379:1391  contentTiers */\n      0x03\n        /* \"contracts/ContentAccess.sol\":1379:1402  contentTiers[contentId] */\n      0x00\n        /* \"contracts/ContentAccess.sol\":1392:1401  contentId */\n      dup5\n        /* \"contracts/ContentAccess.sol\":1379:1402  contentTiers[contentId] */\n      dup2\n      mstore\n      0x20\n      add\n      swap1\n      dup2\n      mstore\n      0x20\n      add\n      0x00\n      keccak256\n      0x00\n        /* \"contracts/ContentAccess.sol\":1379:1409  contentTiers[contentId] = tier */\n      0x0100\n      exp\n      dup2\n      sload\n      dup2\n      0xff\n      mul\n      not\n      and\n      swap1\n      dup4\n      0x02\n      dup2\n      gt\n      iszero\n      tag_96\n      jumpi\n      tag_97\n      tag_84\n      jump\t// in\n    tag_97:\n    tag_96:\n      mul\n      or\n      swap1\n      sstore\n      pop\n        /* \"contracts/ContentAccess.sol\":1295:1417  function setContentTier(uint256 contentId, Tier tier) external onlyOwner {... */\n      pop\n      pop\n      jump\t// out\n        /* \"@openzeppelin/contracts/access/Ownable.sol\":2293:2394  function renounceOwnership() public virtual onlyOwner {... */\n    tag_32:\n        /* \"@openzeppelin/contracts/access/Ownable.sol\":1531:1544  _checkOwner() */\n      tag_99\n        /* \"@openzeppelin/contracts/access/Ownable.sol\":1531:1542  _checkOwner */\n      tag_63\n        /* \"@openzeppelin/contracts/access/Ownable.sol\":1531:1544  _checkOwner() */\n      jump\t// in\n    tag_99:\n        /* \"@openzeppelin/contracts/access/Ownable.sol\":2357:2387  _transferOwnership(address(0)) */\n      tag_101\n        /* \"@openzeppelin/contracts/access/Ownable.sol\":2384:2385  0 */\n      0x00\n        /* \"@openzeppelin/contracts/access/Ownable.sol\":2357:2375  _transferOwnership */\n      tag_102\n        /* \"@openzeppelin/contracts/access/Ownable.sol\":2357:2387  _transferOwnership(address(0)) */\n      jump\t// in\n    tag_101:\n        /* \"@openzeppelin/contracts/access/Ownable.sol\":2293:2394  function renounceOwnership() public virtual onlyOwner {... */\n      jump\t// out\n        /* \"@openzeppelin/contracts/access/Ownable.sol\":1638:1723  function owner() public view virtual returns (address) {... */\n    tag_34:\n        /* \"@openzeppelin/contracts/access/Ownable.sol\":1684:1691  address */\n      0x00\n        /* \"@openzeppelin/contracts/access/Ownable.sol\":1710:1716  _owner */\n      dup1\n      0x00\n      swap1\n      sload\n      swap1\n      0x0100\n      exp\n      swap1\n      div\n      0xffffffffffffffffffffffffffffffffffffffff\n      and\n        /* \"@openzeppelin/contracts/access/Ownable.sol\":1703:1716  return _owner */\n      swap1\n      pop\n        /* \"@openzeppelin/contracts/access/Ownable.sol\":1638:1723  function owner() public view virtual returns (address) {... */\n      swap1\n      jump\t// out\n        /* \"contracts/ContentAccess.sol\":1425:1689  function hasAccess(address user, uint256 contentId) public view returns (bool) {... */\n    tag_39:\n        /* \"contracts/ContentAccess.sol\":1498:1502  bool */\n      0x00\n        /* \"contracts/ContentAccess.sol\":1515:1532  Tier requiredTier */\n      dup1\n        /* \"contracts/ContentAccess.sol\":1535:1547  contentTiers */\n      0x03\n        /* \"contracts/ContentAccess.sol\":1535:1558  contentTiers[contentId] */\n      0x00\n        /* \"contracts/ContentAccess.sol\":1548:1557  contentId */\n      dup5\n        /* \"contracts/ContentAccess.sol\":1535:1558  contentTiers[contentId] */\n      dup2\n      mstore\n      0x20\n      add\n      swap1\n      dup2\n      mstore\n      0x20\n      add\n      0x00\n      keccak256\n      0x00\n      swap1\n      sload\n      swap1\n      0x0100\n      exp\n      swap1\n      div\n      0xff\n      and\n        /* \"contracts/ContentAccess.sol\":1515:1558  Tier requiredTier = contentTiers[contentId] */\n      swap1\n      pop\n        /* \"contracts/ContentAccess.sol\":1569:1588  uint256 userBalance */\n      0x00\n        /* \"contracts/ContentAccess.sol\":1591:1596  token */\n      0x01\n      0x00\n      swap1\n      sload\n      swap1\n      0x0100\n      exp\n      swap1\n      div\n      0xffffffffffffffffffffffffffffffffffffffff\n      and\n        /* \"contracts/ContentAccess.sol\":1591:1606  token.balanceOf */\n      0xffffffffffffffffffffffffffffffffffffffff\n      and\n      0x70a08231\n        /* \"contracts/ContentAccess.sol\":1607:1611  user */\n      dup7\n        /* \"contracts/ContentAccess.sol\":1591:1612  token.balanceOf(user) */\n      mload(0x40)\n      dup3\n      0xffffffff\n      and\n      0xe0\n      shl\n      dup2\n      mstore\n      0x04\n      add\n      tag_105\n      swap2\n      swap1\n      tag_36\n      jump\t// in\n    tag_105:\n      0x20\n      mload(0x40)\n      dup1\n      dup4\n      sub\n      dup2\n      dup7\n      gas\n      staticcall\n      iszero\n      dup1\n      iszero\n      tag_107\n      jumpi\n      returndatasize\n      0x00\n      dup1\n      returndatacopy\n      revert(0x00, returndatasize)\n    tag_107:\n      pop\n      pop\n      pop\n      pop\n      mload(0x40)\n      returndatasize\n      not(0x1f)\n      0x1f\n      dup3\n      add\n      and\n      dup3\n      add\n      dup1\n      0x40\n      mstore\n      pop\n      dup2\n      add\n      swap1\n      tag_108\n      swap2\n      swap1\n      tag_69\n      jump\t// in\n    tag_108:\n        /* \"contracts/ContentAccess.sol\":1569:1612  uint256 userBalance = token.balanceOf(user) */\n      swap1\n      pop\n        /* \"contracts/ContentAccess.sol\":1645:1650  tiers */\n      0x02\n        /* \"contracts/ContentAccess.sol\":1645:1664  tiers[requiredTier] */\n      0x00\n        /* \"contracts/ContentAccess.sol\":1651:1663  requiredTier */\n      dup4\n        /* \"contracts/ContentAccess.sol\":1645:1664  tiers[requiredTier] */\n      0x02\n      dup2\n      gt\n      iszero\n      tag_109\n      jumpi\n      tag_110\n      tag_84\n      jump\t// in\n    tag_110:\n    tag_109:\n      0x02\n      dup2\n      gt\n      iszero\n      tag_111\n      jumpi\n      tag_112\n      tag_84\n      jump\t// in\n    tag_112:\n    tag_111:\n      dup2\n      mstore\n      0x20\n      add\n      swap1\n      dup2\n      mstore\n      0x20\n      add\n      0x00\n      keccak256\n        /* \"contracts/ContentAccess.sol\":1645:1681  tiers[requiredTier].tokenRequirement */\n      0x00\n      add\n      sload\n        /* \"contracts/ContentAccess.sol\":1630:1641  userBalance */\n      dup2\n        /* \"contracts/ContentAccess.sol\":1630:1681  userBalance >= tiers[requiredTier].tokenRequirement */\n      lt\n      iszero\n        /* \"contracts/ContentAccess.sol\":1623:1681  return userBalance >= tiers[requiredTier].tokenRequirement */\n      swap3\n      pop\n      pop\n      pop\n        /* \"contracts/ContentAccess.sol\":1425:1689  function hasAccess(address user, uint256 contentId) public view returns (bool) {... */\n      swap3\n      swap2\n      pop\n      pop\n      jump\t// out\n        /* \"contracts/ContentAccess.sol\":604:648  mapping(uint256 => Tier) public contentTiers */\n    tag_44:\n      mstore(0x20, 0x03)\n      dup1\n      0x00\n      mstore\n      keccak256(0x00, 0x40)\n      0x00\n      swap2\n      pop\n      sload\n      swap1\n      0x0100\n      exp\n      swap1\n      div\n      0xff\n      and\n      dup2\n      jump\t// out\n        /* \"contracts/ContentAccess.sol\":518:556  mapping(Tier => TierInfo) public tiers */\n    tag_50:\n      mstore(0x20, 0x02)\n      dup1\n      0x00\n      mstore\n      keccak256(0x00, 0x40)\n      0x00\n      swap2\n      pop\n      swap1\n      pop\n      dup1\n      0x00\n      add\n      sload\n      swap1\n      pop\n      dup2\n      jump\t// out\n        /* \"@openzeppelin/contracts/access/Ownable.sol\":2543:2758  function transferOwnership(address newOwner) public virtual onlyOwner {... */\n    tag_56:\n        /* \"@openzeppelin/contracts/access/Ownable.sol\":1531:1544  _checkOwner() */\n      tag_114\n        /* \"@openzeppelin/contracts/access/Ownable.sol\":1531:1542  _checkOwner */\n      tag_63\n        /* \"@openzeppelin/contracts/access/Ownable.sol\":1531:1544  _checkOwner() */\n      jump\t// in\n    tag_114:\n        /* \"@openzeppelin/contracts/access/Ownable.sol\":2647:2648  0 */\n      0x00\n        /* \"@openzeppelin/contracts/access/Ownable.sol\":2627:2649  newOwner == address(0) */\n      0xffffffffffffffffffffffffffffffffffffffff\n      and\n        /* \"@openzeppelin/contracts/access/Ownable.sol\":2627:2635  newOwner */\n      dup2\n        /* \"@openzeppelin/contracts/access/Ownable.sol\":2627:2649  newOwner == address(0) */\n      0xffffffffffffffffffffffffffffffffffffffff\n      and\n      sub\n        /* \"@openzeppelin/contracts/access/Ownable.sol\":2623:2714  if (newOwner == address(0)) {... */\n      tag_116\n      jumpi\n        /* \"@openzeppelin/contracts/access/Ownable.sol\":2700:2701  0 */\n      0x00\n        /* \"@openzeppelin/contracts/access/Ownable.sol\":2672:2703  OwnableInvalidOwner(address(0)) */\n      mload(0x40)\n      0x1e4fbdf700000000000000000000000000000000000000000000000000000000\n      dup2\n      mstore\n      0x04\n      add\n      tag_117\n      swap2\n      swap1\n      tag_36\n      jump\t// in\n    tag_117:\n      mload(0x40)\n      dup1\n      swap2\n      sub\n      swap1\n      revert\n        /* \"@openzeppelin/contracts/access/Ownable.sol\":2623:2714  if (newOwner == address(0)) {... */\n    tag_116:\n        /* \"@openzeppelin/contracts/access/Ownable.sol\":2723:2751  _transferOwnership(newOwner) */\n      tag_118\n        /* \"@openzeppelin/contracts/access/Ownable.sol\":2742:2750  newOwner */\n      dup2\n        /* \"@openzeppelin/contracts/access/Ownable.sol\":2723:2741  _transferOwnership */\n      tag_102\n        /* \"@openzeppelin/contracts/access/Ownable.sol\":2723:2751  _transferOwnership(newOwner) */\n      jump\t// in\n    tag_118:\n        /* \"@openzeppelin/contracts/access/Ownable.sol\":2543:2758  function transferOwnership(address newOwner) public virtual onlyOwner {... */\n      pop\n      jump\t// out\n        /* \"contracts/ContentAccess.sol\":343:362  IERC20 public token */\n    tag_58:\n      0x01\n      0x00\n      swap1\n      sload\n      swap1\n      0x0100\n      exp\n      swap1\n      div\n      0xffffffffffffffffffffffffffffffffffffffff\n      and\n      dup2\n      jump\t// out\n        /* \"@openzeppelin/contracts/access/Ownable.sol\":1796:1958  function _checkOwner() internal view virtual {... */\n    tag_63:\n        /* \"@openzeppelin/contracts/access/Ownable.sol\":1866:1878  _msgSender() */\n      tag_120\n        /* \"@openzeppelin/contracts/access/Ownable.sol\":1866:1876  _msgSender */\n      tag_121\n        /* \"@openzeppelin/contracts/access/Ownable.sol\":1866:1878  _msgSender() */\n      jump\t// in\n    tag_120:\n        /* \"@openzeppelin/contracts/access/Ownable.sol\":1855:1878  owner() != _msgSender() */\n      0xffffffffffffffffffffffffffffffffffffffff\n      and\n        /* \"@openzeppelin/contracts/access/Ownable.sol\":1855:1862  owner() */\n      tag_122\n        /* \"@openzeppelin/contracts/access/Ownable.sol\":1855:1860  owner */\n      tag_34\n        /* \"@openzeppelin/contracts/access/Ownable.sol\":1855:1862  owner() */\n      jump\t// in\n    tag_122:\n        /* \"@openzeppelin/contracts/access/Ownable.sol\":1855:1878  owner() != _msgSender() */\n      0xffffffffffffffffffffffffffffffffffffffff\n      and\n      eq\n        /* \"@openzeppelin/contracts/access/Ownable.sol\":1851:1952  if (owner() != _msgSender()) {... */\n      tag_123\n      jumpi\n        /* \"@openzeppelin/contracts/access/Ownable.sol\":1928:1940  _msgSender() */\n      tag_124\n        /* \"@openzeppelin/contracts/access/Ownable.sol\":1928:1938  _msgSender */\n      tag_121\n        /* \"@openzeppelin/contracts/access/Ownable.sol\":1928:1940  _msgSender() */\n      jump\t// in\n    tag_124:\n        /* \"@openzeppelin/contracts/access/Ownable.sol\":1901:1941  OwnableUnauthorizedAccount(_msgSender()) */\n      mload(0x40)\n      0x118cdaa700000000000000000000000000000000000000000000000000000000\n      dup2\n      mstore\n      0x04\n      add\n      tag_125\n      swap2\n      swap1\n      tag_36\n      jump\t// in\n    tag_125:\n      mload(0x40)\n      dup1\n      swap2\n      sub\n      swap1\n      revert\n        /* \"@openzeppelin/contracts/access/Ownable.sol\":1851:1952  if (owner() != _msgSender()) {... */\n    tag_123:\n        /* \"@openzeppelin/contracts/access/Ownable.sol\":1796:1958  function _checkOwner() internal view virtual {... */\n      jump\t// out\n        /* \"@openzeppelin/contracts/access/Ownable.sol\":2912:3099  function _transferOwnership(address newOwner) internal virtual {... */\n    tag_102:\n        /* \"@openzeppelin/contracts/access/Ownable.sol\":2985:3001  address oldOwner */\n      0x00\n        /* \"@openzeppelin/contracts/access/Ownable.sol\":3004:3010  _owner */\n      dup1\n      0x00\n      swap1\n      sload\n      swap1\n      0x0100\n      exp\n      swap1\n      div\n      0xffffffffffffffffffffffffffffffffffffffff\n      and\n        /* \"@openzeppelin/contracts/access/Ownable.sol\":2985:3010  address oldOwner = _owner */\n      swap1\n      pop\n        /* \"@openzeppelin/contracts/access/Ownable.sol\":3029:3037  newOwner */\n      dup2\n        /* \"@openzeppelin/contracts/access/Ownable.sol\":3020:3026  _owner */\n      0x00\n      dup1\n        /* \"@openzeppelin/contracts/access/Ownable.sol\":3020:3037  _owner = newOwner */\n      0x0100\n      exp\n      dup2\n      sload\n      dup2\n      0xffffffffffffffffffffffffffffffffffffffff\n      mul\n      not\n      and\n      swap1\n      dup4\n      0xffffffffffffffffffffffffffffffffffffffff\n      and\n      mul\n      or\n      swap1\n      sstore\n      pop\n        /* \"@openzeppelin/contracts/access/Ownable.sol\":3083:3091  newOwner */\n      dup2\n        /* \"@openzeppelin/contracts/access/Ownable.sol\":3052:3092  OwnershipTransferred(oldOwner, newOwner) */\n      0xffffffffffffffffffffffffffffffffffffffff\n      and\n        /* \"@openzeppelin/contracts/access/Ownable.sol\":3073:3081  oldOwner */\n      dup2\n        /* \"@openzeppelin/contracts/access/Ownable.sol\":3052:3092  OwnershipTransferred(oldOwner, newOwner) */\n      0xffffffffffffffffffffffffffffffffffffffff\n      and\n      0x8be0079c531659141344cd1fd0a4f28419497f9722a3daafe3b4186f6b6457e0\n      mload(0x40)\n      mload(0x40)\n      dup1\n      swap2\n      sub\n      swap1\n      log3\n        /* \"@openzeppelin/contracts/access/Ownable.sol\":2975:3099  {... */\n      pop\n        /* \"@openzeppelin/contracts/access/Ownable.sol\":2912:3099  function _transferOwnership(address newOwner) internal virtual {... */\n      pop\n      jump\t// out\n        /* \"@openzeppelin/contracts/utils/Context.sol\":656:752  function _msgSender() internal view virtual returns (address) {... */\n    tag_121:\n        /* \"@openzeppelin/contracts/utils/Context.sol\":709:716  address */\n      0x00\n        /* \"@openzeppelin/contracts/utils/Context.sol\":735:745  msg.sender */\n      caller\n        /* \"@openzeppelin/contracts/utils/Context.sol\":728:745  return msg.sender */\n      swap1\n      pop\n        /* \"@openzeppelin/contracts/utils/Context.sol\":656:752  function _msgSender() internal view virtual returns (address) {... */\n      swap1\n      jump\t// out\n        /* \"#utility.yul\":88:205   */\n    tag_129:\n        /* \"#utility.yul\":197:198   */\n      0x00\n        /* \"#utility.yul\":194:195   */\n      dup1\n        /* \"#utility.yul\":187:199   */\n      revert\n        /* \"#utility.yul\":334:460   */\n    tag_131:\n        /* \"#utility.yul\":371:378   */\n      0x00\n        /* \"#utility.yul\":411:453   */\n      0xffffffffffffffffffffffffffffffffffffffff\n        /* \"#utility.yul\":404:409   */\n      dup3\n        /* \"#utility.yul\":400:454   */\n      and\n        /* \"#utility.yul\":389:454   */\n      swap1\n      pop\n        /* \"#utility.yul\":334:460   */\n      swap2\n      swap1\n      pop\n      jump\t// out\n        /* \"#utility.yul\":466:562   */\n    tag_132:\n        /* \"#utility.yul\":503:510   */\n      0x00\n        /* \"#utility.yul\":532:556   */\n      tag_167\n        /* \"#utility.yul\":550:555   */\n      dup3\n        /* \"#utility.yul\":532:556   */\n      tag_131\n      jump\t// in\n    tag_167:\n        /* \"#utility.yul\":521:556   */\n      swap1\n      pop\n        /* \"#utility.yul\":466:562   */\n      swap2\n      swap1\n      pop\n      jump\t// out\n        /* \"#utility.yul\":568:690   */\n    tag_133:\n        /* \"#utility.yul\":641:665   */\n      tag_169\n        /* \"#utility.yul\":659:664   */\n      dup2\n        /* \"#utility.yul\":641:665   */\n      tag_132\n      jump\t// in\n    tag_169:\n        /* \"#utility.yul\":634:639   */\n      dup2\n        /* \"#utility.yul\":631:666   */\n      eq\n        /* \"#utility.yul\":621:684   */\n      tag_170\n      jumpi\n        /* \"#utility.yul\":680:681   */\n      0x00\n        /* \"#utility.yul\":677:678   */\n      dup1\n        /* \"#utility.yul\":670:682   */\n      revert\n        /* \"#utility.yul\":621:684   */\n    tag_170:\n        /* \"#utility.yul\":568:690   */\n      pop\n      jump\t// out\n        /* \"#utility.yul\":696:835   */\n    tag_134:\n        /* \"#utility.yul\":742:747   */\n      0x00\n        /* \"#utility.yul\":780:786   */\n      dup2\n        /* \"#utility.yul\":767:787   */\n      calldataload\n        /* \"#utility.yul\":758:787   */\n      swap1\n      pop\n        /* \"#utility.yul\":796:829   */\n      tag_172\n        /* \"#utility.yul\":823:828   */\n      dup2\n        /* \"#utility.yul\":796:829   */\n      tag_133\n      jump\t// in\n    tag_172:\n        /* \"#utility.yul\":696:835   */\n      swap3\n      swap2\n      pop\n      pop\n      jump\t// out\n        /* \"#utility.yul\":841:918   */\n    tag_135:\n        /* \"#utility.yul\":878:885   */\n      0x00\n        /* \"#utility.yul\":907:912   */\n      dup2\n        /* \"#utility.yul\":896:912   */\n      swap1\n      pop\n        /* \"#utility.yul\":841:918   */\n      swap2\n      swap1\n      pop\n      jump\t// out\n        /* \"#utility.yul\":924:1046   */\n    tag_136:\n        /* \"#utility.yul\":997:1021   */\n      tag_175\n        /* \"#utility.yul\":1015:1020   */\n      dup2\n        /* \"#utility.yul\":997:1021   */\n      tag_135\n      jump\t// in\n    tag_175:\n        /* \"#utility.yul\":990:995   */\n      dup2\n        /* \"#utility.yul\":987:1022   */\n      eq\n        /* \"#utility.yul\":977:1040   */\n      tag_176\n      jumpi\n        /* \"#utility.yul\":1036:1037   */\n      0x00\n        /* \"#utility.yul\":1033:1034   */\n      dup1\n        /* \"#utility.yul\":1026:1038   */\n      revert\n        /* \"#utility.yul\":977:1040   */\n    tag_176:\n        /* \"#utility.yul\":924:1046   */\n      pop\n      jump\t// out\n        /* \"#utility.yul\":1052:1191   */\n    tag_137:\n        /* \"#utility.yul\":1098:1103   */\n      0x00\n        /* \"#utility.yul\":1136:1142   */\n      dup2\n        /* \"#utility.yul\":1123:1143   */\n      calldataload\n        /* \"#utility.yul\":1114:1143   */\n      swap1\n      pop\n        /* \"#utility.yul\":1152:1185   */\n      tag_178\n        /* \"#utility.yul\":1179:1184   */\n      dup2\n        /* \"#utility.yul\":1152:1185   */\n      tag_136\n      jump\t// in\n    tag_178:\n        /* \"#utility.yul\":1052:1191   */\n      swap3\n      swap2\n      pop\n      pop\n      jump\t// out\n        /* \"#utility.yul\":1197:1671   */\n    tag_17:\n        /* \"#utility.yul\":1265:1271   */\n      0x00\n        /* \"#utility.yul\":1273:1279   */\n      dup1\n        /* \"#utility.yul\":1322:1324   */\n      0x40\n        /* \"#utility.yul\":1310:1319   */\n      dup4\n        /* \"#utility.yul\":1301:1308   */\n      dup6\n        /* \"#utility.yul\":1297:1320   */\n      sub\n        /* \"#utility.yul\":1293:1325   */\n      slt\n        /* \"#utility.yul\":1290:1409   */\n      iszero\n      tag_180\n      jumpi\n        /* \"#utility.yul\":1328:1407   */\n      tag_181\n      tag_129\n      jump\t// in\n    tag_181:\n        /* \"#utility.yul\":1290:1409   */\n    tag_180:\n        /* \"#utility.yul\":1448:1449   */\n      0x00\n        /* \"#utility.yul\":1473:1526   */\n      tag_182\n        /* \"#utility.yul\":1518:1525   */\n      dup6\n        /* \"#utility.yul\":1509:1515   */\n      dup3\n        /* \"#utility.yul\":1498:1507   */\n      dup7\n        /* \"#utility.yul\":1494:1516   */\n      add\n        /* \"#utility.yul\":1473:1526   */\n      tag_134\n      jump\t// in\n    tag_182:\n        /* \"#utility.yul\":1463:1526   */\n      swap3\n      pop\n        /* \"#utility.yul\":1419:1536   */\n      pop\n        /* \"#utility.yul\":1575:1577   */\n      0x20\n        /* \"#utility.yul\":1601:1654   */\n      tag_183\n        /* \"#utility.yul\":1646:1653   */\n      dup6\n        /* \"#utility.yul\":1637:1643   */\n      dup3\n        /* \"#utility.yul\":1626:1635   */\n      dup7\n        /* \"#utility.yul\":1622:1644   */\n      add\n        /* \"#utility.yul\":1601:1654   */\n      tag_137\n      jump\t// in\n    tag_183:\n        /* \"#utility.yul\":1591:1654   */\n      swap2\n      pop\n        /* \"#utility.yul\":1546:1664   */\n      pop\n        /* \"#utility.yul\":1197:1671   */\n      swap3\n      pop\n      swap3\n      swap1\n      pop\n      jump\t// out\n        /* \"#utility.yul\":1677:1784   */\n    tag_138:\n        /* \"#utility.yul\":1758:1759   */\n      0x03\n        /* \"#utility.yul\":1751:1756   */\n      dup2\n        /* \"#utility.yul\":1748:1760   */\n      lt\n        /* \"#utility.yul\":1738:1778   */\n      tag_185\n      jumpi\n        /* \"#utility.yul\":1774:1775   */\n      0x00\n        /* \"#utility.yul\":1771:1772   */\n      dup1\n        /* \"#utility.yul\":1764:1776   */\n      revert\n        /* \"#utility.yul\":1738:1778   */\n    tag_185:\n        /* \"#utility.yul\":1677:1784   */\n      pop\n      jump\t// out\n        /* \"#utility.yul\":1790:1945   */\n    tag_139:\n        /* \"#utility.yul\":1844:1849   */\n      0x00\n        /* \"#utility.yul\":1882:1888   */\n      dup2\n        /* \"#utility.yul\":1869:1889   */\n      calldataload\n        /* \"#utility.yul\":1860:1889   */\n      swap1\n      pop\n        /* \"#utility.yul\":1898:1939   */\n      tag_187\n        /* \"#utility.yul\":1933:1938   */\n      dup2\n        /* \"#utility.yul\":1898:1939   */\n      tag_138\n      jump\t// in\n    tag_187:\n        /* \"#utility.yul\":1790:1945   */\n      swap3\n      swap2\n      pop\n      pop\n      jump\t// out\n        /* \"#utility.yul\":1951:2441   */\n    tag_21:\n        /* \"#utility.yul\":2027:2033   */\n      0x00\n        /* \"#utility.yul\":2035:2041   */\n      dup1\n        /* \"#utility.yul\":2084:2086   */\n      0x40\n        /* \"#utility.yul\":2072:2081   */\n      dup4\n        /* \"#utility.yul\":2063:2070   */\n      dup6\n        /* \"#utility.yul\":2059:2082   */\n      sub\n        /* \"#utility.yul\":2055:2087   */\n      slt\n        /* \"#utility.yul\":2052:2171   */\n      iszero\n      tag_189\n      jumpi\n        /* \"#utility.yul\":2090:2169   */\n      tag_190\n      tag_129\n      jump\t// in\n    tag_190:\n        /* \"#utility.yul\":2052:2171   */\n    tag_189:\n        /* \"#utility.yul\":2210:2211   */\n      0x00\n        /* \"#utility.yul\":2235:2296   */\n      tag_191\n        /* \"#utility.yul\":2288:2295   */\n      dup6\n        /* \"#utility.yul\":2279:2285   */\n      dup3\n        /* \"#utility.yul\":2268:2277   */\n      dup7\n        /* \"#utility.yul\":2264:2286   */\n      add\n        /* \"#utility.yul\":2235:2296   */\n      tag_139\n      jump\t// in\n    tag_191:\n        /* \"#utility.yul\":2225:2296   */\n      swap3\n      pop\n        /* \"#utility.yul\":2181:2306   */\n      pop\n        /* \"#utility.yul\":2345:2347   */\n      0x20\n        /* \"#utility.yul\":2371:2424   */\n      tag_192\n        /* \"#utility.yul\":2416:2423   */\n      dup6\n        /* \"#utility.yul\":2407:2413   */\n      dup3\n        /* \"#utility.yul\":2396:2405   */\n      dup7\n        /* \"#utility.yul\":2392:2414   */\n      add\n        /* \"#utility.yul\":2371:2424   */\n      tag_137\n      jump\t// in\n    tag_192:\n        /* \"#utility.yul\":2361:2424   */\n      swap2\n      pop\n        /* \"#utility.yul\":2316:2434   */\n      pop\n        /* \"#utility.yul\":1951:2441   */\n      swap3\n      pop\n      swap3\n      swap1\n      pop\n      jump\t// out\n        /* \"#utility.yul\":2447:2776   */\n    tag_25:\n        /* \"#utility.yul\":2506:2512   */\n      0x00\n        /* \"#utility.yul\":2555:2557   */\n      0x20\n        /* \"#utility.yul\":2543:2552   */\n      dup3\n        /* \"#utility.yul\":2534:2541   */\n      dup5\n        /* \"#utility.yul\":2530:2553   */\n      sub\n        /* \"#utility.yul\":2526:2558   */\n      slt\n        /* \"#utility.yul\":2523:2642   */\n      iszero\n      tag_194\n      jumpi\n        /* \"#utility.yul\":2561:2640   */\n      tag_195\n      tag_129\n      jump\t// in\n    tag_195:\n        /* \"#utility.yul\":2523:2642   */\n    tag_194:\n        /* \"#utility.yul\":2681:2682   */\n      0x00\n        /* \"#utility.yul\":2706:2759   */\n      tag_196\n        /* \"#utility.yul\":2751:2758   */\n      dup5\n        /* \"#utility.yul\":2742:2748   */\n      dup3\n        /* \"#utility.yul\":2731:2740   */\n      dup6\n        /* \"#utility.yul\":2727:2749   */\n      add\n        /* \"#utility.yul\":2706:2759   */\n      tag_137\n      jump\t// in\n    tag_196:\n        /* \"#utility.yul\":2696:2759   */\n      swap2\n      pop\n        /* \"#utility.yul\":2652:2769   */\n      pop\n        /* \"#utility.yul\":2447:2776   */\n      swap3\n      swap2\n      pop\n      pop\n      jump\t// out\n        /* \"#utility.yul\":2782:3272   */\n    tag_29:\n        /* \"#utility.yul\":2858:2864   */\n      0x00\n        /* \"#utility.yul\":2866:2872   */\n      dup1\n        /* \"#utility.yul\":2915:2917   */\n      0x40\n        /* \"#utility.yul\":2903:2912   */\n      dup4\n        /* \"#utility.yul\":2894:2901   */\n      dup6\n        /* \"#utility.yul\":2890:2913   */\n      sub\n        /* \"#utility.yul\":2886:2918   */\n      slt\n        /* \"#utility.yul\":2883:3002   */\n      iszero\n      tag_198\n      jumpi\n        /* \"#utility.yul\":2921:3000   */\n      tag_199\n      tag_129\n      jump\t// in\n    tag_199:\n        /* \"#utility.yul\":2883:3002   */\n    tag_198:\n        /* \"#utility.yul\":3041:3042   */\n      0x00\n        /* \"#utility.yul\":3066:3119   */\n      tag_200\n        /* \"#utility.yul\":3111:3118   */\n      dup6\n        /* \"#utility.yul\":3102:3108   */\n      dup3\n        /* \"#utility.yul\":3091:3100   */\n      dup7\n        /* \"#utility.yul\":3087:3109   */\n      add\n        /* \"#utility.yul\":3066:3119   */\n      tag_137\n      jump\t// in\n    tag_200:\n        /* \"#utility.yul\":3056:3119   */\n      swap3\n      pop\n        /* \"#utility.yul\":3012:3129   */\n      pop\n        /* \"#utility.yul\":3168:3170   */\n      0x20\n        /* \"#utility.yul\":3194:3255   */\n      tag_201\n        /* \"#utility.yul\":3247:3254   */\n      dup6\n        /* \"#utility.yul\":3238:3244   */\n      dup3\n        /* \"#utility.yul\":3227:3236   */\n      dup7\n        /* \"#utility.yul\":3223:3245   */\n      add\n        /* \"#utility.yul\":3194:3255   */\n      tag_139\n      jump\t// in\n    tag_201:\n        /* \"#utility.yul\":3184:3255   */\n      swap2\n      pop\n        /* \"#utility.yul\":3139:3265   */\n      pop\n        /* \"#utility.yul\":2782:3272   */\n      swap3\n      pop\n      swap3\n      swap1\n      pop\n      jump\t// out\n        /* \"#utility.yul\":3278:3396   */\n    tag_140:\n        /* \"#utility.yul\":3365:3389   */\n      tag_203\n        /* \"#utility.yul\":3383:3388   */\n      dup2\n        /* \"#utility.yul\":3365:3389   */\n      tag_132\n      jump\t// in\n    tag_203:\n        /* \"#utility.yul\":3360:3363   */\n      dup3\n        /* \"#utility.yul\":3353:3390   */\n      mstore\n        /* \"#utility.yul\":3278:3396   */\n      pop\n      pop\n      jump\t// out\n        /* \"#utility.yul\":3402:3624   */\n    tag_36:\n        /* \"#utility.yul\":3495:3499   */\n      0x00\n        /* \"#utility.yul\":3533:3535   */\n      0x20\n        /* \"#utility.yul\":3522:3531   */\n      dup3\n        /* \"#utility.yul\":3518:3536   */\n      add\n        /* \"#utility.yul\":3510:3536   */\n      swap1\n      pop\n        /* \"#utility.yul\":3546:3617   */\n      tag_205\n        /* \"#utility.yul\":3614:3615   */\n      0x00\n        /* \"#utility.yul\":3603:3612   */\n      dup4\n        /* \"#utility.yul\":3599:3616   */\n      add\n        /* \"#utility.yul\":3590:3596   */\n      dup5\n        /* \"#utility.yul\":3546:3617   */\n      tag_140\n      jump\t// in\n    tag_205:\n        /* \"#utility.yul\":3402:3624   */\n      swap3\n      swap2\n      pop\n      pop\n      jump\t// out\n        /* \"#utility.yul\":3630:3720   */\n    tag_141:\n        /* \"#utility.yul\":3664:3671   */\n      0x00\n        /* \"#utility.yul\":3707:3712   */\n      dup2\n        /* \"#utility.yul\":3700:3713   */\n      iszero\n        /* \"#utility.yul\":3693:3714   */\n      iszero\n        /* \"#utility.yul\":3682:3714   */\n      swap1\n      pop\n        /* \"#utility.yul\":3630:3720   */\n      swap2\n      swap1\n      pop\n      jump\t// out\n        /* \"#utility.yul\":3726:3835   */\n    tag_142:\n        /* \"#utility.yul\":3807:3828   */\n      tag_208\n        /* \"#utility.yul\":3822:3827   */\n      dup2\n        /* \"#utility.yul\":3807:3828   */\n      tag_141\n      jump\t// in\n    tag_208:\n        /* \"#utility.yul\":3802:3805   */\n      dup3\n        /* \"#utility.yul\":3795:3829   */\n      mstore\n        /* \"#utility.yul\":3726:3835   */\n      pop\n      pop\n      jump\t// out\n        /* \"#utility.yul\":3841:4051   */\n    tag_41:\n        /* \"#utility.yul\":3928:3932   */\n      0x00\n        /* \"#utility.yul\":3966:3968   */\n      0x20\n        /* \"#utility.yul\":3955:3964   */\n      dup3\n        /* \"#utility.yul\":3951:3969   */\n      add\n        /* \"#utility.yul\":3943:3969   */\n      swap1\n      pop\n        /* \"#utility.yul\":3979:4044   */\n      tag_210\n        /* \"#utility.yul\":4041:4042   */\n      0x00\n        /* \"#utility.yul\":4030:4039   */\n      dup4\n        /* \"#utility.yul\":4026:4043   */\n      add\n        /* \"#utility.yul\":4017:4023   */\n      dup5\n        /* \"#utility.yul\":3979:4044   */\n      tag_142\n      jump\t// in\n    tag_210:\n        /* \"#utility.yul\":3841:4051   */\n      swap3\n      swap2\n      pop\n      pop\n      jump\t// out\n        /* \"#utility.yul\":4057:4237   */\n    tag_84:\n        /* \"#utility.yul\":4105:4182   */\n      0x4e487b7100000000000000000000000000000000000000000000000000000000\n        /* \"#utility.yul\":4102:4103   */\n      0x00\n        /* \"#utility.yul\":4095:4183   */\n      mstore\n        /* \"#utility.yul\":4202:4206   */\n      0x21\n        /* \"#utility.yul\":4199:4200   */\n      0x04\n        /* \"#utility.yul\":4192:4207   */\n      mstore\n        /* \"#utility.yul\":4226:4230   */\n      0x24\n        /* \"#utility.yul\":4223:4224   */\n      0x00\n        /* \"#utility.yul\":4216:4231   */\n      revert\n        /* \"#utility.yul\":4243:4356   */\n    tag_143:\n        /* \"#utility.yul\":4324:4325   */\n      0x03\n        /* \"#utility.yul\":4317:4322   */\n      dup2\n        /* \"#utility.yul\":4314:4326   */\n      lt\n        /* \"#utility.yul\":4304:4350   */\n      tag_213\n      jumpi\n        /* \"#utility.yul\":4330:4348   */\n      tag_214\n      tag_84\n      jump\t// in\n    tag_214:\n        /* \"#utility.yul\":4304:4350   */\n    tag_213:\n        /* \"#utility.yul\":4243:4356   */\n      pop\n      jump\t// out\n        /* \"#utility.yul\":4362:4489   */\n    tag_144:\n        /* \"#utility.yul\":4407:4414   */\n      0x00\n        /* \"#utility.yul\":4436:4441   */\n      dup2\n        /* \"#utility.yul\":4425:4441   */\n      swap1\n      pop\n        /* \"#utility.yul\":4442:4483   */\n      tag_216\n        /* \"#utility.yul\":4477:4482   */\n      dup3\n        /* \"#utility.yul\":4442:4483   */\n      tag_143\n      jump\t// in\n    tag_216:\n        /* \"#utility.yul\":4362:4489   */\n      swap2\n      swap1\n      pop\n      jump\t// out\n        /* \"#utility.yul\":4495:4622   */\n    tag_145:\n        /* \"#utility.yul\":4551:4560   */\n      0x00\n        /* \"#utility.yul\":4584:4616   */\n      tag_218\n        /* \"#utility.yul\":4610:4615   */\n      dup3\n        /* \"#utility.yul\":4584:4616   */\n      tag_144\n      jump\t// in\n    tag_218:\n        /* \"#utility.yul\":4571:4616   */\n      swap1\n      pop\n        /* \"#utility.yul\":4495:4622   */\n      swap2\n      swap1\n      pop\n      jump\t// out\n        /* \"#utility.yul\":4628:4771   */\n    tag_146:\n        /* \"#utility.yul\":4721:4764   */\n      tag_220\n        /* \"#utility.yul\":4758:4763   */\n      dup2\n        /* \"#utility.yul\":4721:4764   */\n      tag_145\n      jump\t// in\n    tag_220:\n        /* \"#utility.yul\":4716:4719   */\n      dup3\n        /* \"#utility.yul\":4709:4765   */\n      mstore\n        /* \"#utility.yul\":4628:4771   */\n      pop\n      pop\n      jump\t// out\n        /* \"#utility.yul\":4777:5011   */\n    tag_46:\n        /* \"#utility.yul\":4876:4880   */\n      0x00\n        /* \"#utility.yul\":4914:4916   */\n      0x20\n        /* \"#utility.yul\":4903:4912   */\n      dup3\n        /* \"#utility.yul\":4899:4917   */\n      add\n        /* \"#utility.yul\":4891:4917   */\n      swap1\n      pop\n        /* \"#utility.yul\":4927:5004   */\n      tag_222\n        /* \"#utility.yul\":5001:5002   */\n      0x00\n        /* \"#utility.yul\":4990:4999   */\n      dup4\n        /* \"#utility.yul\":4986:5003   */\n      add\n        /* \"#utility.yul\":4977:4983   */\n      dup5\n        /* \"#utility.yul\":4927:5004   */\n      tag_146\n      jump\t// in\n    tag_222:\n        /* \"#utility.yul\":4777:5011   */\n      swap3\n      swap2\n      pop\n      pop\n      jump\t// out\n        /* \"#utility.yul\":5017:5362   */\n    tag_49:\n        /* \"#utility.yul\":5084:5090   */\n      0x00\n        /* \"#utility.yul\":5133:5135   */\n      0x20\n        /* \"#utility.yul\":5121:5130   */\n      dup3\n        /* \"#utility.yul\":5112:5119   */\n      dup5\n        /* \"#utility.yul\":5108:5131   */\n      sub\n        /* \"#utility.yul\":5104:5136   */\n      slt\n        /* \"#utility.yul\":5101:5220   */\n      iszero\n      tag_224\n      jumpi\n        /* \"#utility.yul\":5139:5218   */\n      tag_225\n      tag_129\n      jump\t// in\n    tag_225:\n        /* \"#utility.yul\":5101:5220   */\n    tag_224:\n        /* \"#utility.yul\":5259:5260   */\n      0x00\n        /* \"#utility.yul\":5284:5345   */\n      tag_226\n        /* \"#utility.yul\":5337:5344   */\n      dup5\n        /* \"#utility.yul\":5328:5334   */\n      dup3\n        /* \"#utility.yul\":5317:5326   */\n      dup6\n        /* \"#utility.yul\":5313:5335   */\n      add\n        /* \"#utility.yul\":5284:5345   */\n      tag_139\n      jump\t// in\n    tag_226:\n        /* \"#utility.yul\":5274:5345   */\n      swap2\n      pop\n        /* \"#utility.yul\":5230:5355   */\n      pop\n        /* \"#utility.yul\":5017:5362   */\n      swap3\n      swap2\n      pop\n      pop\n      jump\t// out\n        /* \"#utility.yul\":5368:5486   */\n    tag_147:\n        /* \"#utility.yul\":5455:5479   */\n      tag_228\n        /* \"#utility.yul\":5473:5478   */\n      dup2\n        /* \"#utility.yul\":5455:5479   */\n      tag_135\n      jump\t// in\n    tag_228:\n        /* \"#utility.yul\":5450:5453   */\n      dup3\n        /* \"#utility.yul\":5443:5480   */\n      mstore\n        /* \"#utility.yul\":5368:5486   */\n      pop\n      pop\n      jump\t// out\n        /* \"#utility.yul\":5492:5714   */\n    tag_52:\n        /* \"#utility.yul\":5585:5589   */\n      0x00\n        /* \"#utility.yul\":5623:5625   */\n      0x20\n        /* \"#utility.yul\":5612:5621   */\n      dup3\n        /* \"#utility.yul\":5608:5626   */\n      add\n        /* \"#utility.yul\":5600:5626   */\n      swap1\n      pop\n        /* \"#utility.yul\":5636:5707   */\n      tag_230\n        /* \"#utility.yul\":5704:5705   */\n      0x00\n        /* \"#utility.yul\":5693:5702   */\n      dup4\n        /* \"#utility.yul\":5689:5706   */\n      add\n        /* \"#utility.yul\":5680:5686   */\n      dup5\n        /* \"#utility.yul\":5636:5707   */\n      tag_147\n      jump\t// in\n    tag_230:\n        /* \"#utility.yul\":5492:5714   */\n      swap3\n      swap2\n      pop\n      pop\n      jump\t// out\n        /* \"#utility.yul\":5720:6049   */\n    tag_55:\n        /* \"#utility.yul\":5779:5785   */\n      0x00\n        /* \"#utility.yul\":5828:5830   */\n      0x20\n        /* \"#utility.yul\":5816:5825   */\n      dup3\n        /* \"#utility.yul\":5807:5814   */\n      dup5\n        /* \"#utility.yul\":5803:5826   */\n      sub\n        /* \"#utility.yul\":5799:5831   */\n      slt\n        /* \"#utility.yul\":5796:5915   */\n      iszero\n      tag_232\n      jumpi\n        /* \"#utility.yul\":5834:5913   */\n      tag_233\n      tag_129\n      jump\t// in\n    tag_233:\n        /* \"#utility.yul\":5796:5915   */\n    tag_232:\n        /* \"#utility.yul\":5954:5955   */\n      0x00\n        /* \"#utility.yul\":5979:6032   */\n      tag_234\n        /* \"#utility.yul\":6024:6031   */\n      dup5\n        /* \"#utility.yul\":6015:6021   */\n      dup3\n        /* \"#utility.yul\":6004:6013   */\n      dup6\n        /* \"#utility.yul\":6000:6022   */\n      add\n        /* \"#utility.yul\":5979:6032   */\n      tag_134\n      jump\t// in\n    tag_234:\n        /* \"#utility.yul\":5969:6032   */\n      swap2\n      pop\n        /* \"#utility.yul\":5925:6042   */\n      pop\n        /* \"#utility.yul\":5720:6049   */\n      swap3\n      swap2\n      pop\n      pop\n      jump\t// out\n        /* \"#utility.yul\":6055:6115   */\n    tag_148:\n        /* \"#utility.yul\":6083:6086   */\n      0x00\n        /* \"#utility.yul\":6104:6109   */\n      dup2\n        /* \"#utility.yul\":6097:6109   */\n      swap1\n      pop\n        /* \"#utility.yul\":6055:6115   */\n      swap2\n      swap1\n      pop\n      jump\t// out\n        /* \"#utility.yul\":6121:6263   */\n    tag_149:\n        /* \"#utility.yul\":6171:6180   */\n      0x00\n        /* \"#utility.yul\":6204:6257   */\n      tag_237\n        /* \"#utility.yul\":6222:6256   */\n      tag_238\n        /* \"#utility.yul\":6231:6255   */\n      tag_239\n        /* \"#utility.yul\":6249:6254   */\n      dup5\n        /* \"#utility.yul\":6231:6255   */\n      tag_131\n      jump\t// in\n    tag_239:\n        /* \"#utility.yul\":6222:6256   */\n      tag_148\n      jump\t// in\n    tag_238:\n        /* \"#utility.yul\":6204:6257   */\n      tag_131\n      jump\t// in\n    tag_237:\n        /* \"#utility.yul\":6191:6257   */\n      swap1\n      pop\n        /* \"#utility.yul\":6121:6263   */\n      swap2\n      swap1\n      pop\n      jump\t// out\n        /* \"#utility.yul\":6269:6395   */\n    tag_150:\n        /* \"#utility.yul\":6319:6328   */\n      0x00\n        /* \"#utility.yul\":6352:6389   */\n      tag_241\n        /* \"#utility.yul\":6383:6388   */\n      dup3\n        /* \"#utility.yul\":6352:6389   */\n      tag_149\n      jump\t// in\n    tag_241:\n        /* \"#utility.yul\":6339:6389   */\n      swap1\n      pop\n        /* \"#utility.yul\":6269:6395   */\n      swap2\n      swap1\n      pop\n      jump\t// out\n        /* \"#utility.yul\":6401:6541   */\n    tag_151:\n        /* \"#utility.yul\":6465:6474   */\n      0x00\n        /* \"#utility.yul\":6498:6535   */\n      tag_243\n        /* \"#utility.yul\":6529:6534   */\n      dup3\n        /* \"#utility.yul\":6498:6535   */\n      tag_150\n      jump\t// in\n    tag_243:\n        /* \"#utility.yul\":6485:6535   */\n      swap1\n      pop\n        /* \"#utility.yul\":6401:6541   */\n      swap2\n      swap1\n      pop\n      jump\t// out\n        /* \"#utility.yul\":6547:6706   */\n    tag_152:\n        /* \"#utility.yul\":6648:6699   */\n      tag_245\n        /* \"#utility.yul\":6693:6698   */\n      dup2\n        /* \"#utility.yul\":6648:6699   */\n      tag_151\n      jump\t// in\n    tag_245:\n        /* \"#utility.yul\":6643:6646   */\n      dup3\n        /* \"#utility.yul\":6636:6700   */\n      mstore\n        /* \"#utility.yul\":6547:6706   */\n      pop\n      pop\n      jump\t// out\n        /* \"#utility.yul\":6712:6962   */\n    tag_60:\n        /* \"#utility.yul\":6819:6823   */\n      0x00\n        /* \"#utility.yul\":6857:6859   */\n      0x20\n        /* \"#utility.yul\":6846:6855   */\n      dup3\n        /* \"#utility.yul\":6842:6860   */\n      add\n        /* \"#utility.yul\":6834:6860   */\n      swap1\n      pop\n        /* \"#utility.yul\":6870:6955   */\n      tag_247\n        /* \"#utility.yul\":6952:6953   */\n      0x00\n        /* \"#utility.yul\":6941:6950   */\n      dup4\n        /* \"#utility.yul\":6937:6954   */\n      add\n        /* \"#utility.yul\":6928:6934   */\n      dup5\n        /* \"#utility.yul\":6870:6955   */\n      tag_152\n      jump\t// in\n    tag_247:\n        /* \"#utility.yul\":6712:6962   */\n      swap3\n      swap2\n      pop\n      pop\n      jump\t// out\n        /* \"#utility.yul\":6968:7111   */\n    tag_153:\n        /* \"#utility.yul\":7025:7030   */\n      0x00\n        /* \"#utility.yul\":7056:7062   */\n      dup2\n        /* \"#utility.yul\":7050:7063   */\n      mload\n        /* \"#utility.yul\":7041:7063   */\n      swap1\n      pop\n        /* \"#utility.yul\":7072:7105   */\n      tag_249\n        /* \"#utility.yul\":7099:7104   */\n      dup2\n        /* \"#utility.yul\":7072:7105   */\n      tag_136\n      jump\t// in\n    tag_249:\n        /* \"#utility.yul\":6968:7111   */\n      swap3\n      swap2\n      pop\n      pop\n      jump\t// out\n        /* \"#utility.yul\":7117:7468   */\n    tag_69:\n        /* \"#utility.yul\":7187:7193   */\n      0x00\n        /* \"#utility.yul\":7236:7238   */\n      0x20\n        /* \"#utility.yul\":7224:7233   */\n      dup3\n        /* \"#utility.yul\":7215:7222   */\n      dup5\n        /* \"#utility.yul\":7211:7234   */\n      sub\n        /* \"#utility.yul\":7207:7239   */\n      slt\n        /* \"#utility.yul\":7204:7323   */\n      iszero\n      tag_251\n      jumpi\n        /* \"#utility.yul\":7242:7321   */\n      tag_252\n      tag_129\n      jump\t// in\n    tag_252:\n        /* \"#utility.yul\":7204:7323   */\n    tag_251:\n        /* \"#utility.yul\":7362:7363   */\n      0x00\n        /* \"#utility.yul\":7387:7451   */\n      tag_253\n        /* \"#utility.yul\":7443:7450   */\n      dup5\n        /* \"#utility.yul\":7434:7440   */\n      dup3\n        /* \"#utility.yul\":7423:7432   */\n      dup6\n        /* \"#utility.yul\":7419:7441   */\n      add\n        /* \"#utility.yul\":7387:7451   */\n      tag_153\n      jump\t// in\n    tag_253:\n        /* \"#utility.yul\":7377:7451   */\n      swap2\n      pop\n        /* \"#utility.yul\":7333:7461   */\n      pop\n        /* \"#utility.yul\":7117:7468   */\n      swap3\n      swap2\n      pop\n      pop\n      jump\t// out\n        /* \"#utility.yul\":7474:7643   */\n    tag_154:\n        /* \"#utility.yul\":7558:7569   */\n      0x00\n        /* \"#utility.yul\":7592:7598   */\n      dup3\n        /* \"#utility.yul\":7587:7590   */\n      dup3\n        /* \"#utility.yul\":7580:7599   */\n      mstore\n        /* \"#utility.yul\":7632:7636   */\n      0x20\n        /* \"#utility.yul\":7627:7630   */\n      dup3\n        /* \"#utility.yul\":7623:7637   */\n      add\n        /* \"#utility.yul\":7608:7637   */\n      swap1\n      pop\n        /* \"#utility.yul\":7474:7643   */\n      swap3\n      swap2\n      pop\n      pop\n      jump\t// out\n        /* \"#utility.yul\":7649:7828   */\n    tag_155:\n        /* \"#utility.yul\":7789:7820   */\n      0x4e6f7420656e6f75676820746f6b656e7320696e20636f6e7472616374000000\n        /* \"#utility.yul\":7785:7786   */\n      0x00\n        /* \"#utility.yul\":7777:7783   */\n      dup3\n        /* \"#utility.yul\":7773:7787   */\n      add\n        /* \"#utility.yul\":7766:7821   */\n      mstore\n        /* \"#utility.yul\":7649:7828   */\n      pop\n      jump\t// out\n        /* \"#utility.yul\":7834:8200   */\n    tag_156:\n        /* \"#utility.yul\":7976:7979   */\n      0x00\n        /* \"#utility.yul\":7997:8064   */\n      tag_257\n        /* \"#utility.yul\":8061:8063   */\n      0x1d\n        /* \"#utility.yul\":8056:8059   */\n      dup4\n        /* \"#utility.yul\":7997:8064   */\n      tag_154\n      jump\t// in\n    tag_257:\n        /* \"#utility.yul\":7990:8064   */\n      swap2\n      pop\n        /* \"#utility.yul\":8073:8166   */\n      tag_258\n        /* \"#utility.yul\":8162:8165   */\n      dup3\n        /* \"#utility.yul\":8073:8166   */\n      tag_155\n      jump\t// in\n    tag_258:\n        /* \"#utility.yul\":8191:8193   */\n      0x20\n        /* \"#utility.yul\":8186:8189   */\n      dup3\n        /* \"#utility.yul\":8182:8194   */\n      add\n        /* \"#utility.yul\":8175:8194   */\n      swap1\n      pop\n        /* \"#utility.yul\":7834:8200   */\n      swap2\n      swap1\n      pop\n      jump\t// out\n        /* \"#utility.yul\":8206:8625   */\n    tag_72:\n        /* \"#utility.yul\":8372:8376   */\n      0x00\n        /* \"#utility.yul\":8410:8412   */\n      0x20\n        /* \"#utility.yul\":8399:8408   */\n      dup3\n        /* \"#utility.yul\":8395:8413   */\n      add\n        /* \"#utility.yul\":8387:8413   */\n      swap1\n      pop\n        /* \"#utility.yul\":8459:8468   */\n      dup2\n        /* \"#utility.yul\":8453:8457   */\n      dup2\n        /* \"#utility.yul\":8449:8469   */\n      sub\n        /* \"#utility.yul\":8445:8446   */\n      0x00\n        /* \"#utility.yul\":8434:8443   */\n      dup4\n        /* \"#utility.yul\":8430:8447   */\n      add\n        /* \"#utility.yul\":8423:8470   */\n      mstore\n        /* \"#utility.yul\":8487:8618   */\n      tag_260\n        /* \"#utility.yul\":8613:8617   */\n      dup2\n        /* \"#utility.yul\":8487:8618   */\n      tag_156\n      jump\t// in\n    tag_260:\n        /* \"#utility.yul\":8479:8618   */\n      swap1\n      pop\n        /* \"#utility.yul\":8206:8625   */\n      swap2\n      swap1\n      pop\n      jump\t// out\n        /* \"#utility.yul\":8631:8963   */\n    tag_74:\n        /* \"#utility.yul\":8752:8756   */\n      0x00\n        /* \"#utility.yul\":8790:8792   */\n      0x40\n        /* \"#utility.yul\":8779:8788   */\n      dup3\n        /* \"#utility.yul\":8775:8793   */\n      add\n        /* \"#utility.yul\":8767:8793   */\n      swap1\n      pop\n        /* \"#utility.yul\":8803:8874   */\n      tag_262\n        /* \"#utility.yul\":8871:8872   */\n      0x00\n        /* \"#utility.yul\":8860:8869   */\n      dup4\n        /* \"#utility.yul\":8856:8873   */\n      add\n        /* \"#utility.yul\":8847:8853   */\n      dup6\n        /* \"#utility.yul\":8803:8874   */\n      tag_140\n      jump\t// in\n    tag_262:\n        /* \"#utility.yul\":8884:8956   */\n      tag_263\n        /* \"#utility.yul\":8952:8954   */\n      0x20\n        /* \"#utility.yul\":8941:8950   */\n      dup4\n        /* \"#utility.yul\":8937:8955   */\n      add\n        /* \"#utility.yul\":8928:8934   */\n      dup5\n        /* \"#utility.yul\":8884:8956   */\n      tag_147\n      jump\t// in\n    tag_263:\n        /* \"#utility.yul\":8631:8963   */\n      swap4\n      swap3\n      pop\n      pop\n      pop\n      jump\t// out\n        /* \"#utility.yul\":8969:9085   */\n    tag_157:\n        /* \"#utility.yul\":9039:9060   */\n      tag_265\n        /* \"#utility.yul\":9054:9059   */\n      dup2\n        /* \"#utility.yul\":9039:9060   */\n      tag_141\n      jump\t// in\n    tag_265:\n        /* \"#utility.yul\":9032:9037   */\n      dup2\n        /* \"#utility.yul\":9029:9061   */\n      eq\n        /* \"#utility.yul\":9019:9079   */\n      tag_266\n      jumpi\n        /* \"#utility.yul\":9075:9076   */\n      0x00\n        /* \"#utility.yul\":9072:9073   */\n      dup1\n        /* \"#utility.yul\":9065:9077   */\n      revert\n        /* \"#utility.yul\":9019:9079   */\n    tag_266:\n        /* \"#utility.yul\":8969:9085   */\n      pop\n      jump\t// out\n        /* \"#utility.yul\":9091:9228   */\n    tag_158:\n        /* \"#utility.yul\":9145:9150   */\n      0x00\n        /* \"#utility.yul\":9176:9182   */\n      dup2\n        /* \"#utility.yul\":9170:9183   */\n      mload\n        /* \"#utility.yul\":9161:9183   */\n      swap1\n      pop\n        /* \"#utility.yul\":9192:9222   */\n      tag_268\n        /* \"#utility.yul\":9216:9221   */\n      dup2\n        /* \"#utility.yul\":9192:9222   */\n      tag_157\n      jump\t// in\n    tag_268:\n        /* \"#utility.yul\":9091:9228   */\n      swap3\n      swap2\n      pop\n      pop\n      jump\t// out\n        /* \"#utility.yul\":9234:9579   */\n    tag_78:\n        /* \"#utility.yul\":9301:9307   */\n      0x00\n        /* \"#utility.yul\":9350:9352   */\n      0x20\n        /* \"#utility.yul\":9338:9347   */\n      dup3\n        /* \"#utility.yul\":9329:9336   */\n      dup5\n        /* \"#utility.yul\":9325:9348   */\n      sub\n        /* \"#utility.yul\":9321:9353   */\n      slt\n        /* \"#utility.yul\":9318:9437   */\n      iszero\n      tag_270\n      jumpi\n        /* \"#utility.yul\":9356:9435   */\n      tag_271\n      tag_129\n      jump\t// in\n    tag_271:\n        /* \"#utility.yul\":9318:9437   */\n    tag_270:\n        /* \"#utility.yul\":9476:9477   */\n      0x00\n        /* \"#utility.yul\":9501:9562   */\n      tag_272\n        /* \"#utility.yul\":9554:9561   */\n      dup5\n        /* \"#utility.yul\":9545:9551   */\n      dup3\n        /* \"#utility.yul\":9534:9543   */\n      dup6\n        /* \"#utility.yul\":9530:9552   */\n      add\n        /* \"#utility.yul\":9501:9562   */\n      tag_158\n      jump\t// in\n    tag_272:\n        /* \"#utility.yul\":9491:9562   */\n      swap2\n      pop\n        /* \"#utility.yul\":9447:9572   */\n      pop\n        /* \"#utility.yul\":9234:9579   */\n      swap3\n      swap2\n      pop\n      pop\n      jump\t// out\n        /* \"#utility.yul\":9585:9816   */\n    tag_159:\n        /* \"#utility.yul\":9725:9759   */\n      0x496e73756666696369656e7420746f6b656e2062616c616e636520746f20756e\n        /* \"#utility.yul\":9721:9722   */\n      0x00\n        /* \"#utility.yul\":9713:9719   */\n      dup3\n        /* \"#utility.yul\":9709:9723   */\n      add\n        /* \"#utility.yul\":9702:9760   */\n      mstore\n        /* \"#utility.yul\":9794:9808   */\n      0x6c6f636b20636f6e74656e740000000000000000000000000000000000000000\n        /* \"#utility.yul\":9789:9791   */\n      0x20\n        /* \"#utility.yul\":9781:9787   */\n      dup3\n        /* \"#utility.yul\":9777:9792   */\n      add\n        /* \"#utility.yul\":9770:9809   */\n      mstore\n        /* \"#utility.yul\":9585:9816   */\n      pop\n      jump\t// out\n        /* \"#utility.yul\":9822:10188   */\n    tag_160:\n        /* \"#utility.yul\":9964:9967   */\n      0x00\n        /* \"#utility.yul\":9985:10052   */\n      tag_275\n        /* \"#utility.yul\":10049:10051   */\n      0x2c\n        /* \"#utility.yul\":10044:10047   */\n      dup4\n        /* \"#utility.yul\":9985:10052   */\n      tag_154\n      jump\t// in\n    tag_275:\n        /* \"#utility.yul\":9978:10052   */\n      swap2\n      pop\n        /* \"#utility.yul\":10061:10154   */\n      tag_276\n        /* \"#utility.yul\":10150:10153   */\n      dup3\n        /* \"#utility.yul\":10061:10154   */\n      tag_159\n      jump\t// in\n    tag_276:\n        /* \"#utility.yul\":10179:10181   */\n      0x40\n        /* \"#utility.yul\":10174:10177   */\n      dup3\n        /* \"#utility.yul\":10170:10182   */\n      add\n        /* \"#utility.yul\":10163:10182   */\n      swap1\n      pop\n        /* \"#utility.yul\":9822:10188   */\n      swap2\n      swap1\n      pop\n      jump\t// out\n        /* \"#utility.yul\":10194:10613   */\n    tag_91:\n        /* \"#utility.yul\":10360:10364   */\n      0x00\n        /* \"#utility.yul\":10398:10400   */\n      0x20\n        /* \"#utility.yul\":10387:10396   */\n      dup3\n        /* \"#utility.yul\":10383:10401   */\n      add\n        /* \"#utility.yul\":10375:10401   */\n      swap1\n      pop\n        /* \"#utility.yul\":10447:10456   */\n      dup2\n        /* \"#utility.yul\":10441:10445   */\n      dup2\n        /* \"#utility.yul\":10437:10457   */\n      sub\n        /* \"#utility.yul\":10433:10434   */\n      0x00\n        /* \"#utility.yul\":10422:10431   */\n      dup4\n        /* \"#utility.yul\":10418:10435   */\n      add\n        /* \"#utility.yul\":10411:10458   */\n      mstore\n        /* \"#utility.yul\":10475:10606   */\n      tag_278\n        /* \"#utility.yul\":10601:10605   */\n      dup2\n        /* \"#utility.yul\":10475:10606   */\n      tag_160\n      jump\t// in\n    tag_278:\n        /* \"#utility.yul\":10467:10606   */\n      swap1\n      pop\n        /* \"#utility.yul\":10194:10613   */\n      swap2\n      swap1\n      pop\n      jump\t// out\n\n    auxdata: 0xa26469706673582212206dc8dd1ede88e41771511a50d49b4f1a5bd96ffa752466b5f922633e61d48afe64736f6c634300081a0033\n}\n",
				"bytecode": {
					"linkReferences": {},
					"object": "608060405234801561000f575f80fd5b5060405161112138038061112183398181016040528101906100319190610308565b335f73ffffffffffffffffffffffffffffffffffffffff168173ffffffffffffffffffffffffffffffffffffffff16036100a2575f6040517f1e4fbdf70000000000000000000000000000000000000000000000000000000081526004016100999190610342565b60405180910390fd5b6100b1816101e960201b60201c565b508060015f6101000a81548173ffffffffffffffffffffffffffffffffffffffff021916908373ffffffffffffffffffffffffffffffffffffffff1602179055506040518060200160405280600a81525060025f8060028111156101185761011761035b565b5b600281111561012a5761012961035b565b5b81526020019081526020015f205f820151815f01559050506040518060200160405280603281525060025f600160028111156101695761016861035b565b5b600281111561017b5761017a61035b565b5b81526020019081526020015f205f820151815f01559050506040518060200160405280606481525060025f6002808111156101b9576101b861035b565b5b60028111156101cb576101ca61035b565b5b81526020019081526020015f205f820151815f015590505050610388565b5f805f9054906101000a900473ffffffffffffffffffffffffffffffffffffffff169050815f806101000a81548173ffffffffffffffffffffffffffffffffffffffff021916908373ffffffffffffffffffffffffffffffffffffffff1602179055508173ffffffffffffffffffffffffffffffffffffffff168173ffffffffffffffffffffffffffffffffffffffff167f8be0079c531659141344cd1fd0a4f28419497f9722a3daafe3b4186f6b6457e060405160405180910390a35050565b5f80fd5b5f73ffffffffffffffffffffffffffffffffffffffff82169050919050565b5f6102d7826102ae565b9050919050565b6102e7816102cd565b81146102f1575f80fd5b50565b5f81519050610302816102de565b92915050565b5f6020828403121561031d5761031c6102aa565b5b5f61032a848285016102f4565b91505092915050565b61033c816102cd565b82525050565b5f6020820190506103555f830184610333565b92915050565b7f4e487b71000000000000000000000000000000000000000000000000000000005f52602160045260245ffd5b610d8c806103955f395ff3fe608060405234801561000f575f80fd5b50600436106100a7575f3560e01c80638da5cb5b1161006f5780638da5cb5b14610125578063c6530e4114610143578063cb1637de14610173578063d1d79974146101a3578063f2fde38b146101d3578063fc0c546a146101ef576100a7565b806306b091f9146100ab57806312247e80146100c757806328d82e30146100e35780636c2c5b55146100ff578063715018a61461011b575b5f80fd5b6100c560048036038101906100c091906108b4565b61020d565b005b6100e160048036038101906100dc9190610915565b610391565b005b6100fd60048036038101906100f89190610953565b6103d9565b005b6101196004803603810190610114919061097e565b610473565b005b6101236104b7565b005b61012d6104ca565b60405161013a91906109cb565b60405180910390f35b61015d600480360381019061015891906108b4565b6104f1565b60405161016a91906109fe565b60405180910390f35b61018d60048036038101906101889190610953565b6105f4565b60405161019a9190610a8a565b60405180910390f35b6101bd60048036038101906101b89190610aa3565b610611565b6040516101ca9190610add565b60405180910390f35b6101ed60048036038101906101e89190610af6565b61062b565b005b6101f76106af565b6040516102049190610b7c565b60405180910390f35b6102156106d4565b8060015f9054906101000a900473ffffffffffffffffffffffffffffffffffffffff1673ffffffffffffffffffffffffffffffffffffffff166370a08231306040518263ffffffff1660e01b815260040161027091906109cb565b602060405180830381865afa15801561028b573d5f803e3d5ffd5b505050506040513d601f19601f820116820180604052508101906102af9190610ba9565b10156102f0576040517f08c379a00000000000000000000000000000000000000000000000000000000081526004016102e790610c2e565b60405180910390fd5b60015f9054906101000a900473ffffffffffffffffffffffffffffffffffffffff1673ffffffffffffffffffffffffffffffffffffffff1663a9059cbb83836040518363ffffffff1660e01b815260040161034c929190610c4c565b6020604051808303815f875af1158015610368573d5f803e3d5ffd5b505050506040513d601f19601f8201168201806040525081019061038c9190610c9d565b505050565b6103996106d4565b8060025f8460028111156103b0576103af610a17565b5b60028111156103c2576103c1610a17565b5b81526020019081526020015f205f01819055505050565b6103e333826104f1565b610422576040517f08c379a000000000000000000000000000000000000000000000000000000000815260040161041990610d38565b60405180910390fd5b3373ffffffffffffffffffffffffffffffffffffffff167fecf62147db5136d5778c55e194d29ffae725bbae2f9f15f9f08b9a11bf55106f826040516104689190610add565b60405180910390a250565b61047b6106d4565b8060035f8481526020019081526020015f205f6101000a81548160ff021916908360028111156104ae576104ad610a17565b5b02179055505050565b6104bf6106d4565b6104c85f61075b565b565b5f805f9054906101000a900473ffffffffffffffffffffffffffffffffffffffff16905090565b5f8060035f8481526020019081526020015f205f9054906101000a900460ff1690505f60015f9054906101000a900473ffffffffffffffffffffffffffffffffffffffff1673ffffffffffffffffffffffffffffffffffffffff166370a08231866040518263ffffffff1660e01b815260040161056e91906109cb565b602060405180830381865afa158015610589573d5f803e3d5ffd5b505050506040513d601f19601f820116820180604052508101906105ad9190610ba9565b905060025f8360028111156105c5576105c4610a17565b5b60028111156105d7576105d6610a17565b5b81526020019081526020015f205f01548110159250505092915050565b6003602052805f5260405f205f915054906101000a900460ff1681565b6002602052805f5260405f205f91509050805f0154905081565b6106336106d4565b5f73ffffffffffffffffffffffffffffffffffffffff168173ffffffffffffffffffffffffffffffffffffffff16036106a3575f6040517f1e4fbdf700000000000000000000000000000000000000000000000000000000815260040161069a91906109cb565b60405180910390fd5b6106ac8161075b565b50565b60015f9054906101000a900473ffffffffffffffffffffffffffffffffffffffff1681565b6106dc61081c565b73ffffffffffffffffffffffffffffffffffffffff166106fa6104ca565b73ffffffffffffffffffffffffffffffffffffffff16146107595761071d61081c565b6040517f118cdaa700000000000000000000000000000000000000000000000000000000815260040161075091906109cb565b60405180910390fd5b565b5f805f9054906101000a900473ffffffffffffffffffffffffffffffffffffffff169050815f806101000a81548173ffffffffffffffffffffffffffffffffffffffff021916908373ffffffffffffffffffffffffffffffffffffffff1602179055508173ffffffffffffffffffffffffffffffffffffffff168173ffffffffffffffffffffffffffffffffffffffff167f8be0079c531659141344cd1fd0a4f28419497f9722a3daafe3b4186f6b6457e060405160405180910390a35050565b5f33905090565b5f80fd5b5f73ffffffffffffffffffffffffffffffffffffffff82169050919050565b5f61085082610827565b9050919050565b61086081610846565b811461086a575f80fd5b50565b5f8135905061087b81610857565b92915050565b5f819050919050565b61089381610881565b811461089d575f80fd5b50565b5f813590506108ae8161088a565b92915050565b5f80604083850312156108ca576108c9610823565b5b5f6108d78582860161086d565b92505060206108e8858286016108a0565b9150509250929050565b600381106108fe575f80fd5b50565b5f8135905061090f816108f2565b92915050565b5f806040838503121561092b5761092a610823565b5b5f61093885828601610901565b9250506020610949858286016108a0565b9150509250929050565b5f6020828403121561096857610967610823565b5b5f610975848285016108a0565b91505092915050565b5f806040838503121561099457610993610823565b5b5f6109a1858286016108a0565b92505060206109b285828601610901565b9150509250929050565b6109c581610846565b82525050565b5f6020820190506109de5f8301846109bc565b92915050565b5f8115159050919050565b6109f8816109e4565b82525050565b5f602082019050610a115f8301846109ef565b92915050565b7f4e487b71000000000000000000000000000000000000000000000000000000005f52602160045260245ffd5b60038110610a5557610a54610a17565b5b50565b5f819050610a6582610a44565b919050565b5f610a7482610a58565b9050919050565b610a8481610a6a565b82525050565b5f602082019050610a9d5f830184610a7b565b92915050565b5f60208284031215610ab857610ab7610823565b5b5f610ac584828501610901565b91505092915050565b610ad781610881565b82525050565b5f602082019050610af05f830184610ace565b92915050565b5f60208284031215610b0b57610b0a610823565b5b5f610b188482850161086d565b91505092915050565b5f819050919050565b5f610b44610b3f610b3a84610827565b610b21565b610827565b9050919050565b5f610b5582610b2a565b9050919050565b5f610b6682610b4b565b9050919050565b610b7681610b5c565b82525050565b5f602082019050610b8f5f830184610b6d565b92915050565b5f81519050610ba38161088a565b92915050565b5f60208284031215610bbe57610bbd610823565b5b5f610bcb84828501610b95565b91505092915050565b5f82825260208201905092915050565b7f4e6f7420656e6f75676820746f6b656e7320696e20636f6e74726163740000005f82015250565b5f610c18601d83610bd4565b9150610c2382610be4565b602082019050919050565b5f6020820190508181035f830152610c4581610c0c565b9050919050565b5f604082019050610c5f5f8301856109bc565b610c6c6020830184610ace565b9392505050565b610c7c816109e4565b8114610c86575f80fd5b50565b5f81519050610c9781610c73565b92915050565b5f60208284031215610cb257610cb1610823565b5b5f610cbf84828501610c89565b91505092915050565b7f496e73756666696369656e7420746f6b656e2062616c616e636520746f20756e5f8201527f6c6f636b20636f6e74656e740000000000000000000000000000000000000000602082015250565b5f610d22602c83610bd4565b9150610d2d82610cc8565b604082019050919050565b5f6020820190508181035f830152610d4f81610d16565b905091905056fea26469706673582212206dc8dd1ede88e41771511a50d49b4f1a5bd96ffa752466b5f922633e61d48afe64736f6c634300081a0033",
					"opcodes": "PUSH1 0x80 PUSH1 0x40 MSTORE CALLVALUE DUP1 ISZERO PUSH2 0xF JUMPI PUSH0 DUP1 REVERT JUMPDEST POP PUSH1 0x40 MLOAD PUSH2 0x1121 CODESIZE SUB DUP1 PUSH2 0x1121 DUP4 CODECOPY DUP2 DUP2 ADD PUSH1 0x40 MSTORE DUP2 ADD SWAP1 PUSH2 0x31 SWAP2 SWAP1 PUSH2 0x308 JUMP JUMPDEST CALLER PUSH0 PUSH20 0xFFFFFFFFFFFFFFFFFFFFFFFFFFFFFFFFFFFFFFFF AND DUP2 PUSH20 0xFFFFFFFFFFFFFFFFFFFFFFFFFFFFFFFFFFFFFFFF AND SUB PUSH2 0xA2 JUMPI PUSH0 PUSH1 0x40 MLOAD PUSH32 0x1E4FBDF700000000000000000000000000000000000000000000000000000000 DUP2 MSTORE PUSH1 0x4 ADD PUSH2 0x99 SWAP2 SWAP1 PUSH2 0x342 JUMP JUMPDEST PUSH1 0x40 MLOAD DUP1 SWAP2 SUB SWAP1 REVERT JUMPDEST PUSH2 0xB1 DUP2 PUSH2 0x1E9 PUSH1 0x20 SHL PUSH1 0x20 SHR JUMP JUMPDEST POP DUP1 PUSH1 0x1 PUSH0 PUSH2 0x100 EXP DUP2 SLOAD DUP2 PUSH20 0xFFFFFFFFFFFFFFFFFFFFFFFFFFFFFFFFFFFFFFFF MUL NOT AND SWAP1 DUP4 PUSH20 0xFFFFFFFFFFFFFFFFFFFFFFFFFFFFFFFFFFFFFFFF AND MUL OR SWAP1 SSTORE POP PUSH1 0x40 MLOAD DUP1 PUSH1 0x20 ADD PUSH1 0x40 MSTORE DUP1 PUSH1 0xA DUP2 MSTORE POP PUSH1 0x2 PUSH0 DUP1 PUSH1 0x2 DUP2 GT ISZERO PUSH2 0x118 JUMPI PUSH2 0x117 PUSH2 0x35B JUMP JUMPDEST JUMPDEST PUSH1 0x2 DUP2 GT ISZERO PUSH2 0x12A JUMPI PUSH2 0x129 PUSH2 0x35B JUMP JUMPDEST JUMPDEST DUP2 MSTORE PUSH1 0x20 ADD SWAP1 DUP2 MSTORE PUSH1 0x20 ADD PUSH0 KECCAK256 PUSH0 DUP3 ADD MLOAD DUP2 PUSH0 ADD SSTORE SWAP1 POP POP PUSH1 0x40 MLOAD DUP1 PUSH1 0x20 ADD PUSH1 0x40 MSTORE DUP1 PUSH1 0x32 DUP2 MSTORE POP PUSH1 0x2 PUSH0 PUSH1 0x1 PUSH1 0x2 DUP2 GT ISZERO PUSH2 0x169 JUMPI PUSH2 0x168 PUSH2 0x35B JUMP JUMPDEST JUMPDEST PUSH1 0x2 DUP2 GT ISZERO PUSH2 0x17B JUMPI PUSH2 0x17A PUSH2 0x35B JUMP JUMPDEST JUMPDEST DUP2 MSTORE PUSH1 0x20 ADD SWAP1 DUP2 MSTORE PUSH1 0x20 ADD PUSH0 KECCAK256 PUSH0 DUP3 ADD MLOAD DUP2 PUSH0 ADD SSTORE SWAP1 POP POP PUSH1 0x40 MLOAD DUP1 PUSH1 0x20 ADD PUSH1 0x40 MSTORE DUP1 PUSH1 0x64 DUP2 MSTORE POP PUSH1 0x2 PUSH0 PUSH1 0x2 DUP1 DUP2 GT ISZERO PUSH2 0x1B9 JUMPI PUSH2 0x1B8 PUSH2 0x35B JUMP JUMPDEST JUMPDEST PUSH1 0x2 DUP2 GT ISZERO PUSH2 0x1CB JUMPI PUSH2 0x1CA PUSH2 0x35B JUMP JUMPDEST JUMPDEST DUP2 MSTORE PUSH1 0x20 ADD SWAP1 DUP2 MSTORE PUSH1 0x20 ADD PUSH0 KECCAK256 PUSH0 DUP3 ADD MLOAD DUP2 PUSH0 ADD SSTORE SWAP1 POP POP POP PUSH2 0x388 JUMP JUMPDEST PUSH0 DUP1 PUSH0 SWAP1 SLOAD SWAP1 PUSH2 0x100 EXP SWAP1 DIV PUSH20 0xFFFFFFFFFFFFFFFFFFFFFFFFFFFFFFFFFFFFFFFF AND SWAP1 POP DUP2 PUSH0 DUP1 PUSH2 0x100 EXP DUP2 SLOAD DUP2 PUSH20 0xFFFFFFFFFFFFFFFFFFFFFFFFFFFFFFFFFFFFFFFF MUL NOT AND SWAP1 DUP4 PUSH20 0xFFFFFFFFFFFFFFFFFFFFFFFFFFFFFFFFFFFFFFFF AND MUL OR SWAP1 SSTORE POP DUP2 PUSH20 0xFFFFFFFFFFFFFFFFFFFFFFFFFFFFFFFFFFFFFFFF AND DUP2 PUSH20 0xFFFFFFFFFFFFFFFFFFFFFFFFFFFFFFFFFFFFFFFF AND PUSH32 0x8BE0079C531659141344CD1FD0A4F28419497F9722A3DAAFE3B4186F6B6457E0 PUSH1 0x40 MLOAD PUSH1 0x40 MLOAD DUP1 SWAP2 SUB SWAP1 LOG3 POP POP JUMP JUMPDEST PUSH0 DUP1 REVERT JUMPDEST PUSH0 PUSH20 0xFFFFFFFFFFFFFFFFFFFFFFFFFFFFFFFFFFFFFFFF DUP3 AND SWAP1 POP SWAP2 SWAP1 POP JUMP JUMPDEST PUSH0 PUSH2 0x2D7 DUP3 PUSH2 0x2AE JUMP JUMPDEST SWAP1 POP SWAP2 SWAP1 POP JUMP JUMPDEST PUSH2 0x2E7 DUP2 PUSH2 0x2CD JUMP JUMPDEST DUP2 EQ PUSH2 0x2F1 JUMPI PUSH0 DUP1 REVERT JUMPDEST POP JUMP JUMPDEST PUSH0 DUP2 MLOAD SWAP1 POP PUSH2 0x302 DUP2 PUSH2 0x2DE JUMP JUMPDEST SWAP3 SWAP2 POP POP JUMP JUMPDEST PUSH0 PUSH1 0x20 DUP3 DUP5 SUB SLT ISZERO PUSH2 0x31D JUMPI PUSH2 0x31C PUSH2 0x2AA JUMP JUMPDEST JUMPDEST PUSH0 PUSH2 0x32A DUP5 DUP3 DUP6 ADD PUSH2 0x2F4 JUMP JUMPDEST SWAP2 POP POP SWAP3 SWAP2 POP POP JUMP JUMPDEST PUSH2 0x33C DUP2 PUSH2 0x2CD JUMP JUMPDEST DUP3 MSTORE POP POP JUMP JUMPDEST PUSH0 PUSH1 0x20 DUP3 ADD SWAP1 POP PUSH2 0x355 PUSH0 DUP4 ADD DUP5 PUSH2 0x333 JUMP JUMPDEST SWAP3 SWAP2 POP POP JUMP JUMPDEST PUSH32 0x4E487B7100000000000000000000000000000000000000000000000000000000 PUSH0 MSTORE PUSH1 0x21 PUSH1 0x4 MSTORE PUSH1 0x24 PUSH0 REVERT JUMPDEST PUSH2 0xD8C DUP1 PUSH2 0x395 PUSH0 CODECOPY PUSH0 RETURN INVALID PUSH1 0x80 PUSH1 0x40 MSTORE CALLVALUE DUP1 ISZERO PUSH2 0xF JUMPI PUSH0 DUP1 REVERT JUMPDEST POP PUSH1 0x4 CALLDATASIZE LT PUSH2 0xA7 JUMPI PUSH0 CALLDATALOAD PUSH1 0xE0 SHR DUP1 PUSH4 0x8DA5CB5B GT PUSH2 0x6F JUMPI DUP1 PUSH4 0x8DA5CB5B EQ PUSH2 0x125 JUMPI DUP1 PUSH4 0xC6530E41 EQ PUSH2 0x143 JUMPI DUP1 PUSH4 0xCB1637DE EQ PUSH2 0x173 JUMPI DUP1 PUSH4 0xD1D79974 EQ PUSH2 0x1A3 JUMPI DUP1 PUSH4 0xF2FDE38B EQ PUSH2 0x1D3 JUMPI DUP1 PUSH4 0xFC0C546A EQ PUSH2 0x1EF JUMPI PUSH2 0xA7 JUMP JUMPDEST DUP1 PUSH4 0x6B091F9 EQ PUSH2 0xAB JUMPI DUP1 PUSH4 0x12247E80 EQ PUSH2 0xC7 JUMPI DUP1 PUSH4 0x28D82E30 EQ PUSH2 0xE3 JUMPI DUP1 PUSH4 0x6C2C5B55 EQ PUSH2 0xFF JUMPI DUP1 PUSH4 0x715018A6 EQ PUSH2 0x11B JUMPI JUMPDEST PUSH0 DUP1 REVERT JUMPDEST PUSH2 0xC5 PUSH1 0x4 DUP1 CALLDATASIZE SUB DUP2 ADD SWAP1 PUSH2 0xC0 SWAP2 SWAP1 PUSH2 0x8B4 JUMP JUMPDEST PUSH2 0x20D JUMP JUMPDEST STOP JUMPDEST PUSH2 0xE1 PUSH1 0x4 DUP1 CALLDATASIZE SUB DUP2 ADD SWAP1 PUSH2 0xDC SWAP2 SWAP1 PUSH2 0x915 JUMP JUMPDEST PUSH2 0x391 JUMP JUMPDEST STOP JUMPDEST PUSH2 0xFD PUSH1 0x4 DUP1 CALLDATASIZE SUB DUP2 ADD SWAP1 PUSH2 0xF8 SWAP2 SWAP1 PUSH2 0x953 JUMP JUMPDEST PUSH2 0x3D9 JUMP JUMPDEST STOP JUMPDEST PUSH2 0x119 PUSH1 0x4 DUP1 CALLDATASIZE SUB DUP2 ADD SWAP1 PUSH2 0x114 SWAP2 SWAP1 PUSH2 0x97E JUMP JUMPDEST PUSH2 0x473 JUMP JUMPDEST STOP JUMPDEST PUSH2 0x123 PUSH2 0x4B7 JUMP JUMPDEST STOP JUMPDEST PUSH2 0x12D PUSH2 0x4CA JUMP JUMPDEST PUSH1 0x40 MLOAD PUSH2 0x13A SWAP2 SWAP1 PUSH2 0x9CB JUMP JUMPDEST PUSH1 0x40 MLOAD DUP1 SWAP2 SUB SWAP1 RETURN JUMPDEST PUSH2 0x15D PUSH1 0x4 DUP1 CALLDATASIZE SUB DUP2 ADD SWAP1 PUSH2 0x158 SWAP2 SWAP1 PUSH2 0x8B4 JUMP JUMPDEST PUSH2 0x4F1 JUMP JUMPDEST PUSH1 0x40 MLOAD PUSH2 0x16A SWAP2 SWAP1 PUSH2 0x9FE JUMP JUMPDEST PUSH1 0x40 MLOAD DUP1 SWAP2 SUB SWAP1 RETURN JUMPDEST PUSH2 0x18D PUSH1 0x4 DUP1 CALLDATASIZE SUB DUP2 ADD SWAP1 PUSH2 0x188 SWAP2 SWAP1 PUSH2 0x953 JUMP JUMPDEST PUSH2 0x5F4 JUMP JUMPDEST PUSH1 0x40 MLOAD PUSH2 0x19A SWAP2 SWAP1 PUSH2 0xA8A JUMP JUMPDEST PUSH1 0x40 MLOAD DUP1 SWAP2 SUB SWAP1 RETURN JUMPDEST PUSH2 0x1BD PUSH1 0x4 DUP1 CALLDATASIZE SUB DUP2 ADD SWAP1 PUSH2 0x1B8 SWAP2 SWAP1 PUSH2 0xAA3 JUMP JUMPDEST PUSH2 0x611 JUMP JUMPDEST PUSH1 0x40 MLOAD PUSH2 0x1CA SWAP2 SWAP1 PUSH2 0xADD JUMP JUMPDEST PUSH1 0x40 MLOAD DUP1 SWAP2 SUB SWAP1 RETURN JUMPDEST PUSH2 0x1ED PUSH1 0x4 DUP1 CALLDATASIZE SUB DUP2 ADD SWAP1 PUSH2 0x1E8 SWAP2 SWAP1 PUSH2 0xAF6 JUMP JUMPDEST PUSH2 0x62B JUMP JUMPDEST STOP JUMPDEST PUSH2 0x1F7 PUSH2 0x6AF JUMP JUMPDEST PUSH1 0x40 MLOAD PUSH2 0x204 SWAP2 SWAP1 PUSH2 0xB7C JUMP JUMPDEST PUSH1 0x40 MLOAD DUP1 SWAP2 SUB SWAP1 RETURN JUMPDEST PUSH2 0x215 PUSH2 0x6D4 JUMP JUMPDEST DUP1 PUSH1 0x1 PUSH0 SWAP1 SLOAD SWAP1 PUSH2 0x100 EXP SWAP1 DIV PUSH20 0xFFFFFFFFFFFFFFFFFFFFFFFFFFFFFFFFFFFFFFFF AND PUSH20 0xFFFFFFFFFFFFFFFFFFFFFFFFFFFFFFFFFFFFFFFF AND PUSH4 0x70A08231 ADDRESS PUSH1 0x40 MLOAD DUP3 PUSH4 0xFFFFFFFF AND PUSH1 0xE0 SHL DUP2 MSTORE PUSH1 0x4 ADD PUSH2 0x270 SWAP2 SWAP1 PUSH2 0x9CB JUMP JUMPDEST PUSH1 0x20 PUSH1 0x40 MLOAD DUP1 DUP4 SUB DUP2 DUP7 GAS STATICCALL ISZERO DUP1 ISZERO PUSH2 0x28B JUMPI RETURNDATASIZE PUSH0 DUP1 RETURNDATACOPY RETURNDATASIZE PUSH0 REVERT JUMPDEST POP POP POP POP PUSH1 0x40 MLOAD RETURNDATASIZE PUSH1 0x1F NOT PUSH1 0x1F DUP3 ADD AND DUP3 ADD DUP1 PUSH1 0x40 MSTORE POP DUP2 ADD SWAP1 PUSH2 0x2AF SWAP2 SWAP1 PUSH2 0xBA9 JUMP JUMPDEST LT ISZERO PUSH2 0x2F0 JUMPI PUSH1 0x40 MLOAD PUSH32 0x8C379A000000000000000000000000000000000000000000000000000000000 DUP2 MSTORE PUSH1 0x4 ADD PUSH2 0x2E7 SWAP1 PUSH2 0xC2E JUMP JUMPDEST PUSH1 0x40 MLOAD DUP1 SWAP2 SUB SWAP1 REVERT JUMPDEST PUSH1 0x1 PUSH0 SWAP1 SLOAD SWAP1 PUSH2 0x100 EXP SWAP1 DIV PUSH20 0xFFFFFFFFFFFFFFFFFFFFFFFFFFFFFFFFFFFFFFFF AND PUSH20 0xFFFFFFFFFFFFFFFFFFFFFFFFFFFFFFFFFFFFFFFF AND PUSH4 0xA9059CBB DUP4 DUP4 PUSH1 0x40 MLOAD DUP4 PUSH4 0xFFFFFFFF AND PUSH1 0xE0 SHL DUP2 MSTORE PUSH1 0x4 ADD PUSH2 0x34C SWAP3 SWAP2 SWAP1 PUSH2 0xC4C JUMP JUMPDEST PUSH1 0x20 PUSH1 0x40 MLOAD DUP1 DUP4 SUB DUP2 PUSH0 DUP8 GAS CALL ISZERO DUP1 ISZERO PUSH2 0x368 JUMPI RETURNDATASIZE PUSH0 DUP1 RETURNDATACOPY RETURNDATASIZE PUSH0 REVERT JUMPDEST POP POP POP POP PUSH1 0x40 MLOAD RETURNDATASIZE PUSH1 0x1F NOT PUSH1 0x1F DUP3 ADD AND DUP3 ADD DUP1 PUSH1 0x40 MSTORE POP DUP2 ADD SWAP1 PUSH2 0x38C SWAP2 SWAP1 PUSH2 0xC9D JUMP JUMPDEST POP POP POP JUMP JUMPDEST PUSH2 0x399 PUSH2 0x6D4 JUMP JUMPDEST DUP1 PUSH1 0x2 PUSH0 DUP5 PUSH1 0x2 DUP2 GT ISZERO PUSH2 0x3B0 JUMPI PUSH2 0x3AF PUSH2 0xA17 JUMP JUMPDEST JUMPDEST PUSH1 0x2 DUP2 GT ISZERO PUSH2 0x3C2 JUMPI PUSH2 0x3C1 PUSH2 0xA17 JUMP JUMPDEST JUMPDEST DUP2 MSTORE PUSH1 0x20 ADD SWAP1 DUP2 MSTORE PUSH1 0x20 ADD PUSH0 KECCAK256 PUSH0 ADD DUP2 SWAP1 SSTORE POP POP POP JUMP JUMPDEST PUSH2 0x3E3 CALLER DUP3 PUSH2 0x4F1 JUMP JUMPDEST PUSH2 0x422 JUMPI PUSH1 0x40 MLOAD PUSH32 0x8C379A000000000000000000000000000000000000000000000000000000000 DUP2 MSTORE PUSH1 0x4 ADD PUSH2 0x419 SWAP1 PUSH2 0xD38 JUMP JUMPDEST PUSH1 0x40 MLOAD DUP1 SWAP2 SUB SWAP1 REVERT JUMPDEST CALLER PUSH20 0xFFFFFFFFFFFFFFFFFFFFFFFFFFFFFFFFFFFFFFFF AND PUSH32 0xECF62147DB5136D5778C55E194D29FFAE725BBAE2F9F15F9F08B9A11BF55106F DUP3 PUSH1 0x40 MLOAD PUSH2 0x468 SWAP2 SWAP1 PUSH2 0xADD JUMP JUMPDEST PUSH1 0x40 MLOAD DUP1 SWAP2 SUB SWAP1 LOG2 POP JUMP JUMPDEST PUSH2 0x47B PUSH2 0x6D4 JUMP JUMPDEST DUP1 PUSH1 0x3 PUSH0 DUP5 DUP2 MSTORE PUSH1 0x20 ADD SWAP1 DUP2 MSTORE PUSH1 0x20 ADD PUSH0 KECCAK256 PUSH0 PUSH2 0x100 EXP DUP2 SLOAD DUP2 PUSH1 0xFF MUL NOT AND SWAP1 DUP4 PUSH1 0x2 DUP2 GT ISZERO PUSH2 0x4AE JUMPI PUSH2 0x4AD PUSH2 0xA17 JUMP JUMPDEST JUMPDEST MUL OR SWAP1 SSTORE POP POP POP JUMP JUMPDEST PUSH2 0x4BF PUSH2 0x6D4 JUMP JUMPDEST PUSH2 0x4C8 PUSH0 PUSH2 0x75B JUMP JUMPDEST JUMP JUMPDEST PUSH0 DUP1 PUSH0 SWAP1 SLOAD SWAP1 PUSH2 0x100 EXP SWAP1 DIV PUSH20 0xFFFFFFFFFFFFFFFFFFFFFFFFFFFFFFFFFFFFFFFF AND SWAP1 POP SWAP1 JUMP JUMPDEST PUSH0 DUP1 PUSH1 0x3 PUSH0 DUP5 DUP2 MSTORE PUSH1 0x20 ADD SWAP1 DUP2 MSTORE PUSH1 0x20 ADD PUSH0 KECCAK256 PUSH0 SWAP1 SLOAD SWAP1 PUSH2 0x100 EXP SWAP1 DIV PUSH1 0xFF AND SWAP1 POP PUSH0 PUSH1 0x1 PUSH0 SWAP1 SLOAD SWAP1 PUSH2 0x100 EXP SWAP1 DIV PUSH20 0xFFFFFFFFFFFFFFFFFFFFFFFFFFFFFFFFFFFFFFFF AND PUSH20 0xFFFFFFFFFFFFFFFFFFFFFFFFFFFFFFFFFFFFFFFF AND PUSH4 0x70A08231 DUP7 PUSH1 0x40 MLOAD DUP3 PUSH4 0xFFFFFFFF AND PUSH1 0xE0 SHL DUP2 MSTORE PUSH1 0x4 ADD PUSH2 0x56E SWAP2 SWAP1 PUSH2 0x9CB JUMP JUMPDEST PUSH1 0x20 PUSH1 0x40 MLOAD DUP1 DUP4 SUB DUP2 DUP7 GAS STATICCALL ISZERO DUP1 ISZERO PUSH2 0x589 JUMPI RETURNDATASIZE PUSH0 DUP1 RETURNDATACOPY RETURNDATASIZE PUSH0 REVERT JUMPDEST POP POP POP POP PUSH1 0x40 MLOAD RETURNDATASIZE PUSH1 0x1F NOT PUSH1 0x1F DUP3 ADD AND DUP3 ADD DUP1 PUSH1 0x40 MSTORE POP DUP2 ADD SWAP1 PUSH2 0x5AD SWAP2 SWAP1 PUSH2 0xBA9 JUMP JUMPDEST SWAP1 POP PUSH1 0x2 PUSH0 DUP4 PUSH1 0x2 DUP2 GT ISZERO PUSH2 0x5C5 JUMPI PUSH2 0x5C4 PUSH2 0xA17 JUMP JUMPDEST JUMPDEST PUSH1 0x2 DUP2 GT ISZERO PUSH2 0x5D7 JUMPI PUSH2 0x5D6 PUSH2 0xA17 JUMP JUMPDEST JUMPDEST DUP2 MSTORE PUSH1 0x20 ADD SWAP1 DUP2 MSTORE PUSH1 0x20 ADD PUSH0 KECCAK256 PUSH0 ADD SLOAD DUP2 LT ISZERO SWAP3 POP POP POP SWAP3 SWAP2 POP POP JUMP JUMPDEST PUSH1 0x3 PUSH1 0x20 MSTORE DUP1 PUSH0 MSTORE PUSH1 0x40 PUSH0 KECCAK256 PUSH0 SWAP2 POP SLOAD SWAP1 PUSH2 0x100 EXP SWAP1 DIV PUSH1 0xFF AND DUP2 JUMP JUMPDEST PUSH1 0x2 PUSH1 0x20 MSTORE DUP1 PUSH0 MSTORE PUSH1 0x40 PUSH0 KECCAK256 PUSH0 SWAP2 POP SWAP1 POP DUP1 PUSH0 ADD SLOAD SWAP1 POP DUP2 JUMP JUMPDEST PUSH2 0x633 PUSH2 0x6D4 JUMP JUMPDEST PUSH0 PUSH20 0xFFFFFFFFFFFFFFFFFFFFFFFFFFFFFFFFFFFFFFFF AND DUP2 PUSH20 0xFFFFFFFFFFFFFFFFFFFFFFFFFFFFFFFFFFFFFFFF AND SUB PUSH2 0x6A3 JUMPI PUSH0 PUSH1 0x40 MLOAD PUSH32 0x1E4FBDF700000000000000000000000000000000000000000000000000000000 DUP2 MSTORE PUSH1 0x4 ADD PUSH2 0x69A SWAP2 SWAP1 PUSH2 0x9CB JUMP JUMPDEST PUSH1 0x40 MLOAD DUP1 SWAP2 SUB SWAP1 REVERT JUMPDEST PUSH2 0x6AC DUP2 PUSH2 0x75B JUMP JUMPDEST POP JUMP JUMPDEST PUSH1 0x1 PUSH0 SWAP1 SLOAD SWAP1 PUSH2 0x100 EXP SWAP1 DIV PUSH20 0xFFFFFFFFFFFFFFFFFFFFFFFFFFFFFFFFFFFFFFFF AND DUP2 JUMP JUMPDEST PUSH2 0x6DC PUSH2 0x81C JUMP JUMPDEST PUSH20 0xFFFFFFFFFFFFFFFFFFFFFFFFFFFFFFFFFFFFFFFF AND PUSH2 0x6FA PUSH2 0x4CA JUMP JUMPDEST PUSH20 0xFFFFFFFFFFFFFFFFFFFFFFFFFFFFFFFFFFFFFFFF AND EQ PUSH2 0x759 JUMPI PUSH2 0x71D PUSH2 0x81C JUMP JUMPDEST PUSH1 0x40 MLOAD PUSH32 0x118CDAA700000000000000000000000000000000000000000000000000000000 DUP2 MSTORE PUSH1 0x4 ADD PUSH2 0x750 SWAP2 SWAP1 PUSH2 0x9CB JUMP JUMPDEST PUSH1 0x40 MLOAD DUP1 SWAP2 SUB SWAP1 REVERT JUMPDEST JUMP JUMPDEST PUSH0 DUP1 PUSH0 SWAP1 SLOAD SWAP1 PUSH2 0x100 EXP SWAP1 DIV PUSH20 0xFFFFFFFFFFFFFFFFFFFFFFFFFFFFFFFFFFFFFFFF AND SWAP1 POP DUP2 PUSH0 DUP1 PUSH2 0x100 EXP DUP2 SLOAD DUP2 PUSH20 0xFFFFFFFFFFFFFFFFFFFFFFFFFFFFFFFFFFFFFFFF MUL NOT AND SWAP1 DUP4 PUSH20 0xFFFFFFFFFFFFFFFFFFFFFFFFFFFFFFFFFFFFFFFF AND MUL OR SWAP1 SSTORE POP DUP2 PUSH20 0xFFFFFFFFFFFFFFFFFFFFFFFFFFFFFFFFFFFFFFFF AND DUP2 PUSH20 0xFFFFFFFFFFFFFFFFFFFFFFFFFFFFFFFFFFFFFFFF AND PUSH32 0x8BE0079C531659141344CD1FD0A4F28419497F9722A3DAAFE3B4186F6B6457E0 PUSH1 0x40 MLOAD PUSH1 0x40 MLOAD DUP1 SWAP2 SUB SWAP1 LOG3 POP POP JUMP JUMPDEST PUSH0 CALLER SWAP1 POP SWAP1 JUMP JUMPDEST PUSH0 DUP1 REVERT JUMPDEST PUSH0 PUSH20 0xFFFFFFFFFFFFFFFFFFFFFFFFFFFFFFFFFFFFFFFF DUP3 AND SWAP1 POP SWAP2 SWAP1 POP JUMP JUMPDEST PUSH0 PUSH2 0x850 DUP3 PUSH2 0x827 JUMP JUMPDEST SWAP1 POP SWAP2 SWAP1 POP JUMP JUMPDEST PUSH2 0x860 DUP2 PUSH2 0x846 JUMP JUMPDEST DUP2 EQ PUSH2 0x86A JUMPI PUSH0 DUP1 REVERT JUMPDEST POP JUMP JUMPDEST PUSH0 DUP2 CALLDATALOAD SWAP1 POP PUSH2 0x87B DUP2 PUSH2 0x857 JUMP JUMPDEST SWAP3 SWAP2 POP POP JUMP JUMPDEST PUSH0 DUP2 SWAP1 POP SWAP2 SWAP1 POP JUMP JUMPDEST PUSH2 0x893 DUP2 PUSH2 0x881 JUMP JUMPDEST DUP2 EQ PUSH2 0x89D JUMPI PUSH0 DUP1 REVERT JUMPDEST POP JUMP JUMPDEST PUSH0 DUP2 CALLDATALOAD SWAP1 POP PUSH2 0x8AE DUP2 PUSH2 0x88A JUMP JUMPDEST SWAP3 SWAP2 POP POP JUMP JUMPDEST PUSH0 DUP1 PUSH1 0x40 DUP4 DUP6 SUB SLT ISZERO PUSH2 0x8CA JUMPI PUSH2 0x8C9 PUSH2 0x823 JUMP JUMPDEST JUMPDEST PUSH0 PUSH2 0x8D7 DUP6 DUP3 DUP7 ADD PUSH2 0x86D JUMP JUMPDEST SWAP3 POP POP PUSH1 0x20 PUSH2 0x8E8 DUP6 DUP3 DUP7 ADD PUSH2 0x8A0 JUMP JUMPDEST SWAP2 POP POP SWAP3 POP SWAP3 SWAP1 POP JUMP JUMPDEST PUSH1 0x3 DUP2 LT PUSH2 0x8FE JUMPI PUSH0 DUP1 REVERT JUMPDEST POP JUMP JUMPDEST PUSH0 DUP2 CALLDATALOAD SWAP1 POP PUSH2 0x90F DUP2 PUSH2 0x8F2 JUMP JUMPDEST SWAP3 SWAP2 POP POP JUMP JUMPDEST PUSH0 DUP1 PUSH1 0x40 DUP4 DUP6 SUB SLT ISZERO PUSH2 0x92B JUMPI PUSH2 0x92A PUSH2 0x823 JUMP JUMPDEST JUMPDEST PUSH0 PUSH2 0x938 DUP6 DUP3 DUP7 ADD PUSH2 0x901 JUMP JUMPDEST SWAP3 POP POP PUSH1 0x20 PUSH2 0x949 DUP6 DUP3 DUP7 ADD PUSH2 0x8A0 JUMP JUMPDEST SWAP2 POP POP SWAP3 POP SWAP3 SWAP1 POP JUMP JUMPDEST PUSH0 PUSH1 0x20 DUP3 DUP5 SUB SLT ISZERO PUSH2 0x968 JUMPI PUSH2 0x967 PUSH2 0x823 JUMP JUMPDEST JUMPDEST PUSH0 PUSH2 0x975 DUP5 DUP3 DUP6 ADD PUSH2 0x8A0 JUMP JUMPDEST SWAP2 POP POP SWAP3 SWAP2 POP POP JUMP JUMPDEST PUSH0 DUP1 PUSH1 0x40 DUP4 DUP6 SUB SLT ISZERO PUSH2 0x994 JUMPI PUSH2 0x993 PUSH2 0x823 JUMP JUMPDEST JUMPDEST PUSH0 PUSH2 0x9A1 DUP6 DUP3 DUP7 ADD PUSH2 0x8A0 JUMP JUMPDEST SWAP3 POP POP PUSH1 0x20 PUSH2 0x9B2 DUP6 DUP3 DUP7 ADD PUSH2 0x901 JUMP JUMPDEST SWAP2 POP POP SWAP3 POP SWAP3 SWAP1 POP JUMP JUMPDEST PUSH2 0x9C5 DUP2 PUSH2 0x846 JUMP JUMPDEST DUP3 MSTORE POP POP JUMP JUMPDEST PUSH0 PUSH1 0x20 DUP3 ADD SWAP1 POP PUSH2 0x9DE PUSH0 DUP4 ADD DUP5 PUSH2 0x9BC JUMP JUMPDEST SWAP3 SWAP2 POP POP JUMP JUMPDEST PUSH0 DUP2 ISZERO ISZERO SWAP1 POP SWAP2 SWAP1 POP JUMP JUMPDEST PUSH2 0x9F8 DUP2 PUSH2 0x9E4 JUMP JUMPDEST DUP3 MSTORE POP POP JUMP JUMPDEST PUSH0 PUSH1 0x20 DUP3 ADD SWAP1 POP PUSH2 0xA11 PUSH0 DUP4 ADD DUP5 PUSH2 0x9EF JUMP JUMPDEST SWAP3 SWAP2 POP POP JUMP JUMPDEST PUSH32 0x4E487B7100000000000000000000000000000000000000000000000000000000 PUSH0 MSTORE PUSH1 0x21 PUSH1 0x4 MSTORE PUSH1 0x24 PUSH0 REVERT JUMPDEST PUSH1 0x3 DUP2 LT PUSH2 0xA55 JUMPI PUSH2 0xA54 PUSH2 0xA17 JUMP JUMPDEST JUMPDEST POP JUMP JUMPDEST PUSH0 DUP2 SWAP1 POP PUSH2 0xA65 DUP3 PUSH2 0xA44 JUMP JUMPDEST SWAP2 SWAP1 POP JUMP JUMPDEST PUSH0 PUSH2 0xA74 DUP3 PUSH2 0xA58 JUMP JUMPDEST SWAP1 POP SWAP2 SWAP1 POP JUMP JUMPDEST PUSH2 0xA84 DUP2 PUSH2 0xA6A JUMP JUMPDEST DUP3 MSTORE POP POP JUMP JUMPDEST PUSH0 PUSH1 0x20 DUP3 ADD SWAP1 POP PUSH2 0xA9D PUSH0 DUP4 ADD DUP5 PUSH2 0xA7B JUMP JUMPDEST SWAP3 SWAP2 POP POP JUMP JUMPDEST PUSH0 PUSH1 0x20 DUP3 DUP5 SUB SLT ISZERO PUSH2 0xAB8 JUMPI PUSH2 0xAB7 PUSH2 0x823 JUMP JUMPDEST JUMPDEST PUSH0 PUSH2 0xAC5 DUP5 DUP3 DUP6 ADD PUSH2 0x901 JUMP JUMPDEST SWAP2 POP POP SWAP3 SWAP2 POP POP JUMP JUMPDEST PUSH2 0xAD7 DUP2 PUSH2 0x881 JUMP JUMPDEST DUP3 MSTORE POP POP JUMP JUMPDEST PUSH0 PUSH1 0x20 DUP3 ADD SWAP1 POP PUSH2 0xAF0 PUSH0 DUP4 ADD DUP5 PUSH2 0xACE JUMP JUMPDEST SWAP3 SWAP2 POP POP JUMP JUMPDEST PUSH0 PUSH1 0x20 DUP3 DUP5 SUB SLT ISZERO PUSH2 0xB0B JUMPI PUSH2 0xB0A PUSH2 0x823 JUMP JUMPDEST JUMPDEST PUSH0 PUSH2 0xB18 DUP5 DUP3 DUP6 ADD PUSH2 0x86D JUMP JUMPDEST SWAP2 POP POP SWAP3 SWAP2 POP POP JUMP JUMPDEST PUSH0 DUP2 SWAP1 POP SWAP2 SWAP1 POP JUMP JUMPDEST PUSH0 PUSH2 0xB44 PUSH2 0xB3F PUSH2 0xB3A DUP5 PUSH2 0x827 JUMP JUMPDEST PUSH2 0xB21 JUMP JUMPDEST PUSH2 0x827 JUMP JUMPDEST SWAP1 POP SWAP2 SWAP1 POP JUMP JUMPDEST PUSH0 PUSH2 0xB55 DUP3 PUSH2 0xB2A JUMP JUMPDEST SWAP1 POP SWAP2 SWAP1 POP JUMP JUMPDEST PUSH0 PUSH2 0xB66 DUP3 PUSH2 0xB4B JUMP JUMPDEST SWAP1 POP SWAP2 SWAP1 POP JUMP JUMPDEST PUSH2 0xB76 DUP2 PUSH2 0xB5C JUMP JUMPDEST DUP3 MSTORE POP POP JUMP JUMPDEST PUSH0 PUSH1 0x20 DUP3 ADD SWAP1 POP PUSH2 0xB8F PUSH0 DUP4 ADD DUP5 PUSH2 0xB6D JUMP JUMPDEST SWAP3 SWAP2 POP POP JUMP JUMPDEST PUSH0 DUP2 MLOAD SWAP1 POP PUSH2 0xBA3 DUP2 PUSH2 0x88A JUMP JUMPDEST SWAP3 SWAP2 POP POP JUMP JUMPDEST PUSH0 PUSH1 0x20 DUP3 DUP5 SUB SLT ISZERO PUSH2 0xBBE JUMPI PUSH2 0xBBD PUSH2 0x823 JUMP JUMPDEST JUMPDEST PUSH0 PUSH2 0xBCB DUP5 DUP3 DUP6 ADD PUSH2 0xB95 JUMP JUMPDEST SWAP2 POP POP SWAP3 SWAP2 POP POP JUMP JUMPDEST PUSH0 DUP3 DUP3 MSTORE PUSH1 0x20 DUP3 ADD SWAP1 POP SWAP3 SWAP2 POP POP JUMP JUMPDEST PUSH32 0x4E6F7420656E6F75676820746F6B656E7320696E20636F6E7472616374000000 PUSH0 DUP3 ADD MSTORE POP JUMP JUMPDEST PUSH0 PUSH2 0xC18 PUSH1 0x1D DUP4 PUSH2 0xBD4 JUMP JUMPDEST SWAP2 POP PUSH2 0xC23 DUP3 PUSH2 0xBE4 JUMP JUMPDEST PUSH1 0x20 DUP3 ADD SWAP1 POP SWAP2 SWAP1 POP JUMP JUMPDEST PUSH0 PUSH1 0x20 DUP3 ADD SWAP1 POP DUP2 DUP2 SUB PUSH0 DUP4 ADD MSTORE PUSH2 0xC45 DUP2 PUSH2 0xC0C JUMP JUMPDEST SWAP1 POP SWAP2 SWAP1 POP JUMP JUMPDEST PUSH0 PUSH1 0x40 DUP3 ADD SWAP1 POP PUSH2 0xC5F PUSH0 DUP4 ADD DUP6 PUSH2 0x9BC JUMP JUMPDEST PUSH2 0xC6C PUSH1 0x20 DUP4 ADD DUP5 PUSH2 0xACE JUMP JUMPDEST SWAP4 SWAP3 POP POP POP JUMP JUMPDEST PUSH2 0xC7C DUP2 PUSH2 0x9E4 JUMP JUMPDEST DUP2 EQ PUSH2 0xC86 JUMPI PUSH0 DUP1 REVERT JUMPDEST POP JUMP JUMPDEST PUSH0 DUP2 MLOAD SWAP1 POP PUSH2 0xC97 DUP2 PUSH2 0xC73 JUMP JUMPDEST SWAP3 SWAP2 POP POP JUMP JUMPDEST PUSH0 PUSH1 0x20 DUP3 DUP5 SUB SLT ISZERO PUSH2 0xCB2 JUMPI PUSH2 0xCB1 PUSH2 0x823 JUMP JUMPDEST JUMPDEST PUSH0 PUSH2 0xCBF DUP5 DUP3 DUP6 ADD PUSH2 0xC89 JUMP JUMPDEST SWAP2 POP POP SWAP3 SWAP2 POP POP JUMP JUMPDEST PUSH32 0x496E73756666696369656E7420746F6B656E2062616C616E636520746F20756E PUSH0 DUP3 ADD MSTORE PUSH32 0x6C6F636B20636F6E74656E740000000000000000000000000000000000000000 PUSH1 0x20 DUP3 ADD MSTORE POP JUMP JUMPDEST PUSH0 PUSH2 0xD22 PUSH1 0x2C DUP4 PUSH2 0xBD4 JUMP JUMPDEST SWAP2 POP PUSH2 0xD2D DUP3 PUSH2 0xCC8 JUMP JUMPDEST PUSH1 0x40 DUP3 ADD SWAP1 POP SWAP2 SWAP1 POP JUMP JUMPDEST PUSH0 PUSH1 0x20 DUP3 ADD SWAP1 POP DUP2 DUP2 SUB PUSH0 DUP4 ADD MSTORE PUSH2 0xD4F DUP2 PUSH2 0xD16 JUMP JUMPDEST SWAP1 POP SWAP2 SWAP1 POP JUMP INVALID LOG2 PUSH5 0x6970667358 0x22 SLT KECCAK256 PUSH14 0xC8DD1EDE88E41771511A50D49B4F BYTE JUMPDEST 0xD9 PUSH16 0xFA752466B5F922633E61D48AFE64736F PUSH13 0x634300081A0033000000000000 "
				},
				"gasEstimates": {
					"creation": {
						"codeDepositCost": "693600",
						"executionCost": "infinite",
						"totalCost": "infinite"
					},
					"external": {
						"contentTiers(uint256)": "2917",
						"hasAccess(address,uint256)": "infinite",
						"owner()": "2515",
						"renounceOwnership()": "infinite",
						"setContentTier(uint256,uint8)": "infinite",
						"setTierRequirement(uint8,uint256)": "infinite",
						"tiers(uint8)": "2791",
						"token()": "infinite",
						"transferOwnership(address)": "infinite",
						"unlockContent(uint256)": "infinite",
						"withdrawTokens(address,uint256)": "infinite"
					}
				},
				"methodIdentifiers": {
					"contentTiers(uint256)": "cb1637de",
					"hasAccess(address,uint256)": "c6530e41",
					"owner()": "8da5cb5b",
					"renounceOwnership()": "715018a6",
					"setContentTier(uint256,uint8)": "6c2c5b55",
					"setTierRequirement(uint8,uint256)": "12247e80",
					"tiers(uint8)": "d1d79974",
					"token()": "fc0c546a",
					"transferOwnership(address)": "f2fde38b",
					"unlockContent(uint256)": "28d82e30",
					"withdrawTokens(address,uint256)": "06b091f9"
				}
			},
			"storageLayout": {
				"storage": [
					{
						"astId": 8,
						"contract": "contracts/ContentAccess.sol:ContentAccess",
						"label": "_owner",
						"offset": 0,
						"slot": "0",
						"type": "t_address"
					},
					{
						"astId": 265,
						"contract": "contracts/ContentAccess.sol:ContentAccess",
						"label": "token",
						"offset": 0,
						"slot": "1",
						"type": "t_contract(IERC20)225"
					},
					{
						"astId": 278,
						"contract": "contracts/ContentAccess.sol:ContentAccess",
						"label": "tiers",
						"offset": 0,
						"slot": "2",
						"type": "t_mapping(t_enum(Tier)269,t_struct(TierInfo)272_storage)"
					},
					{
						"astId": 283,
						"contract": "contracts/ContentAccess.sol:ContentAccess",
						"label": "contentTiers",
						"offset": 0,
						"slot": "3",
						"type": "t_mapping(t_uint256,t_enum(Tier)269)"
					}
				],
				"types": {
					"t_address": {
						"encoding": "inplace",
						"label": "address",
						"numberOfBytes": "20"
					},
					"t_contract(IERC20)225": {
						"encoding": "inplace",
						"label": "contract IERC20",
						"numberOfBytes": "20"
					},
					"t_enum(Tier)269": {
						"encoding": "inplace",
						"label": "enum ContentAccess.Tier",
						"numberOfBytes": "1"
					},
					"t_mapping(t_enum(Tier)269,t_struct(TierInfo)272_storage)": {
						"encoding": "mapping",
						"key": "t_enum(Tier)269",
						"label": "mapping(enum ContentAccess.Tier => struct ContentAccess.TierInfo)",
						"numberOfBytes": "32",
						"value": "t_struct(TierInfo)272_storage"
					},
					"t_mapping(t_uint256,t_enum(Tier)269)": {
						"encoding": "mapping",
						"key": "t_uint256",
						"label": "mapping(uint256 => enum ContentAccess.Tier)",
						"numberOfBytes": "32",
						"value": "t_enum(Tier)269"
					},
					"t_struct(TierInfo)272_storage": {
						"encoding": "inplace",
						"label": "struct ContentAccess.TierInfo",
						"members": [
							{
								"astId": 271,
								"contract": "contracts/ContentAccess.sol:ContentAccess",
								"label": "tokenRequirement",
								"offset": 0,
								"slot": "0",
								"type": "t_uint256"
							}
						],
						"numberOfBytes": "32"
					},
					"t_uint256": {
						"encoding": "inplace",
						"label": "uint256",
						"numberOfBytes": "32"
					}
				}
			},
			"userdoc": {
				"kind": "user",
				"methods": {},
				"version": 1
			}
		}
	}
}