{
	"contracts/Tokens.sol": {
		"CreatorTokenManager": {
			"abi": [
				{
					"inputs": [
						{
							"internalType": "address",
							"name": "owner",
							"type": "address"
						}
					],
					"name": "OwnableInvalidOwner",
					"type": "error"
				},
				{
					"inputs": [
						{
							"internalType": "address",
							"name": "account",
							"type": "address"
						}
					],
					"name": "OwnableUnauthorizedAccount",
					"type": "error"
				},
				{
					"anonymous": false,
					"inputs": [
						{
							"indexed": true,
							"internalType": "address",
							"name": "previousOwner",
							"type": "address"
						},
						{
							"indexed": true,
							"internalType": "address",
							"name": "newOwner",
							"type": "address"
						}
					],
					"name": "OwnershipTransferred",
					"type": "event"
				},
				{
					"anonymous": false,
					"inputs": [
						{
							"indexed": true,
							"internalType": "address",
							"name": "token",
							"type": "address"
						},
						{
							"indexed": false,
							"internalType": "uint256",
							"name": "tierId",
							"type": "uint256"
						},
						{
							"indexed": false,
							"internalType": "string",
							"name": "name",
							"type": "string"
						},
						{
							"indexed": false,
							"internalType": "uint256",
							"name": "supply",
							"type": "uint256"
						},
						{
							"indexed": false,
							"internalType": "uint256",
							"name": "price",
							"type": "uint256"
						}
					],
					"name": "TierAdded",
					"type": "event"
				},
				{
					"anonymous": false,
					"inputs": [
						{
							"indexed": true,
							"internalType": "address",
							"name": "creator",
							"type": "address"
						},
						{
							"indexed": false,
							"internalType": "address",
							"name": "tokenAddress",
							"type": "address"
						}
					],
					"name": "TokenCreated",
					"type": "event"
				},
				{
					"anonymous": false,
					"inputs": [
						{
							"indexed": true,
							"internalType": "address",
							"name": "token",
							"type": "address"
						},
						{
							"indexed": true,
							"internalType": "address",
							"name": "creator",
							"type": "address"
						},
						{
							"indexed": false,
							"internalType": "uint256",
							"name": "amount",
							"type": "uint256"
						}
					],
					"name": "TokensBurned",
					"type": "event"
				},
				{
					"anonymous": false,
					"inputs": [
						{
							"indexed": true,
							"internalType": "address",
							"name": "token",
							"type": "address"
						},
						{
							"indexed": true,
							"internalType": "address",
							"name": "recipient",
							"type": "address"
						},
						{
							"indexed": false,
							"internalType": "uint256",
							"name": "tierId",
							"type": "uint256"
						},
						{
							"indexed": false,
							"internalType": "uint256",
							"name": "amount",
							"type": "uint256"
						}
					],
					"name": "TokensMinted",
					"type": "event"
				},
				{
					"inputs": [
						{
							"internalType": "address",
							"name": "token",
							"type": "address"
						},
						{
							"internalType": "uint256",
							"name": "tierId",
							"type": "uint256"
						},
						{
							"internalType": "string",
							"name": "name",
							"type": "string"
						},
						{
							"internalType": "uint256",
							"name": "supply",
							"type": "uint256"
						},
						{
							"internalType": "uint256",
							"name": "price",
							"type": "uint256"
						}
					],
					"name": "addTier",
					"outputs": [],
					"stateMutability": "nonpayable",
					"type": "function"
				},
				{
					"inputs": [
						{
							"internalType": "address",
							"name": "token",
							"type": "address"
						},
						{
							"internalType": "uint256",
							"name": "amount",
							"type": "uint256"
						}
					],
					"name": "burnTokens",
					"outputs": [],
					"stateMutability": "nonpayable",
					"type": "function"
				},
				{
					"inputs": [
						{
							"internalType": "string",
							"name": "name",
							"type": "string"
						},
						{
							"internalType": "string",
							"name": "symbol",
							"type": "string"
						}
					],
					"name": "createToken",
					"outputs": [],
					"stateMutability": "nonpayable",
					"type": "function"
				},
				{
					"inputs": [
						{
							"internalType": "address",
							"name": "",
							"type": "address"
						}
					],
					"name": "creatorTokens",
					"outputs": [
						{
							"internalType": "address",
							"name": "",
							"type": "address"
						}
					],
					"stateMutability": "view",
					"type": "function"
				},
				{
					"inputs": [
						{
							"internalType": "address",
							"name": "token",
							"type": "address"
						},
						{
							"internalType": "uint256",
							"name": "tierId",
							"type": "uint256"
						},
						{
							"internalType": "uint256",
							"name": "amount",
							"type": "uint256"
						},
						{
							"internalType": "address",
							"name": "recipient",
							"type": "address"
						}
					],
					"name": "mintTokens",
					"outputs": [],
					"stateMutability": "payable",
					"type": "function"
				},
				{
					"inputs": [],
					"name": "owner",
					"outputs": [
						{
							"internalType": "address",
							"name": "",
							"type": "address"
						}
					],
					"stateMutability": "view",
					"type": "function"
				},
				{
					"inputs": [],
					"name": "renounceOwnership",
					"outputs": [],
					"stateMutability": "nonpayable",
					"type": "function"
				},
				{
					"inputs": [
						{
							"internalType": "address",
							"name": "",
							"type": "address"
						},
						{
							"internalType": "uint256",
							"name": "",
							"type": "uint256"
						}
					],
					"name": "tokenTiers",
					"outputs": [
						{
							"internalType": "string",
							"name": "name",
							"type": "string"
						},
						{
							"internalType": "uint256",
							"name": "supply",
							"type": "uint256"
						},
						{
							"internalType": "uint256",
							"name": "minted",
							"type": "uint256"
						},
						{
							"internalType": "uint256",
							"name": "price",
							"type": "uint256"
						}
					],
					"stateMutability": "view",
					"type": "function"
				},
				{
					"inputs": [
						{
							"internalType": "address",
							"name": "newOwner",
							"type": "address"
						}
					],
					"name": "transferOwnership",
					"outputs": [],
					"stateMutability": "nonpayable",
					"type": "function"
				}
			],
			"devdoc": {
				"details": "Smart contract for creators to mint, burn, and manage tier-based fungible tokens.",
				"errors": {
					"OwnableInvalidOwner(address)": [
						{
							"details": "The owner is not a valid owner account. (eg. `address(0)`)"
						}
					],
					"OwnableUnauthorizedAccount(address)": [
						{
							"details": "The caller account is not authorized to perform an operation."
						}
					]
				},
				"kind": "dev",
				"methods": {
					"addTier(address,uint256,string,uint256,uint256)": {
						"details": "Add a new tier for a creator's token.",
						"params": {
							"name": "Name of the tier.",
							"price": "Price per token in the tier.",
							"supply": "Maximum supply for the tier.",
							"tierId": "ID of the tier.",
							"token": "Address of the creator's token."
						}
					},
					"burnTokens(address,uint256)": {
						"details": "Burn tokens from the creator's token contract.",
						"params": {
							"amount": "Number of tokens to burn.",
							"token": "Address of the creator's token."
						}
					},
					"createToken(string,string)": {
						"details": "Create a new token contract for a creator.",
						"params": {
							"name": "Name of the token.",
							"symbol": "Symbol of the token."
						}
					},
					"mintTokens(address,uint256,uint256,address)": {
						"details": "Mint tokens for a specific tier.",
						"params": {
							"amount": "Number of tokens to mint.",
							"recipient": "Address to receive the tokens.",
							"tierId": "ID of the tier.",
							"token": "Address of the creator's token."
						}
					},
					"owner()": {
						"details": "Returns the address of the current owner."
					},
					"renounceOwnership()": {
						"details": "Leaves the contract without owner. It will not be possible to call `onlyOwner` functions. Can only be called by the current owner. NOTE: Renouncing ownership will leave the contract without an owner, thereby disabling any functionality that is only available to the owner."
					},
					"transferOwnership(address)": {
						"details": "Transfers ownership of the contract to a new account (`newOwner`). Can only be called by the current owner."
					}
				},
				"title": "CreatorTokenManager",
				"version": 1
			},
			"evm": {
				"assembly": "    /* \"contracts/Tokens.sol\":407:4132  contract CreatorTokenManager is Ownable   (msg.sender) {... */\n  mstore(0x40, 0x80)\n  callvalue\n  dup1\n  iszero\n  tag_1\n  jumpi\n  0x00\n  dup1\n  revert\ntag_1:\n  pop\n    /* \"contracts/Tokens.sol\":450:460  msg.sender */\n  caller\n    /* \"@openzeppelin/contracts/access/Ownable.sol\":1297:1298  0 */\n  0x00\n    /* \"@openzeppelin/contracts/access/Ownable.sol\":1273:1299  initialOwner == address(0) */\n  0xffffffffffffffffffffffffffffffffffffffff\n  and\n    /* \"@openzeppelin/contracts/access/Ownable.sol\":1273:1285  initialOwner */\n  dup2\n    /* \"@openzeppelin/contracts/access/Ownable.sol\":1273:1299  initialOwner == address(0) */\n  0xffffffffffffffffffffffffffffffffffffffff\n  and\n  sub\n    /* \"@openzeppelin/contracts/access/Ownable.sol\":1269:1364  if (initialOwner == address(0)) {... */\n  tag_4\n  jumpi\n    /* \"@openzeppelin/contracts/access/Ownable.sol\":1350:1351  0 */\n  0x00\n    /* \"@openzeppelin/contracts/access/Ownable.sol\":1322:1353  OwnableInvalidOwner(address(0)) */\n  mload(0x40)\n  0x1e4fbdf700000000000000000000000000000000000000000000000000000000\n  dup2\n  mstore\n  0x04\n  add\n  tag_5\n  swap2\n  swap1\n  tag_6\n  jump\t// in\ntag_5:\n  mload(0x40)\n  dup1\n  swap2\n  sub\n  swap1\n  revert\n    /* \"@openzeppelin/contracts/access/Ownable.sol\":1269:1364  if (initialOwner == address(0)) {... */\ntag_4:\n    /* \"@openzeppelin/contracts/access/Ownable.sol\":1373:1405  _transferOwnership(initialOwner) */\n  tag_7\n    /* \"@openzeppelin/contracts/access/Ownable.sol\":1392:1404  initialOwner */\n  dup2\n    /* \"@openzeppelin/contracts/access/Ownable.sol\":1373:1391  _transferOwnership */\n  shl(0x20, tag_8)\n    /* \"@openzeppelin/contracts/access/Ownable.sol\":1373:1405  _transferOwnership(initialOwner) */\n  0x20\n  shr\n  jump\t// in\ntag_7:\n    /* \"@openzeppelin/contracts/access/Ownable.sol\":1225:1412  constructor(address initialOwner) {... */\n  pop\n    /* \"contracts/Tokens.sol\":407:4132  contract CreatorTokenManager is Ownable   (msg.sender) {... */\n  jump(tag_9)\n    /* \"@openzeppelin/contracts/access/Ownable.sol\":2912:3099  function _transferOwnership(address newOwner) internal virtual {... */\ntag_8:\n    /* \"@openzeppelin/contracts/access/Ownable.sol\":2985:3001  address oldOwner */\n  0x00\n    /* \"@openzeppelin/contracts/access/Ownable.sol\":3004:3010  _owner */\n  dup1\n  0x00\n  swap1\n  sload\n  swap1\n  0x0100\n  exp\n  swap1\n  div\n  0xffffffffffffffffffffffffffffffffffffffff\n  and\n    /* \"@openzeppelin/contracts/access/Ownable.sol\":2985:3010  address oldOwner = _owner */\n  swap1\n  pop\n    /* \"@openzeppelin/contracts/access/Ownable.sol\":3029:3037  newOwner */\n  dup2\n    /* \"@openzeppelin/contracts/access/Ownable.sol\":3020:3026  _owner */\n  0x00\n  dup1\n    /* \"@openzeppelin/contracts/access/Ownable.sol\":3020:3037  _owner = newOwner */\n  0x0100\n  exp\n  dup2\n  sload\n  dup2\n  0xffffffffffffffffffffffffffffffffffffffff\n  mul\n  not\n  and\n  swap1\n  dup4\n  0xffffffffffffffffffffffffffffffffffffffff\n  and\n  mul\n  or\n  swap1\n  sstore\n  pop\n    /* \"@openzeppelin/contracts/access/Ownable.sol\":3083:3091  newOwner */\n  dup2\n    /* \"@openzeppelin/contracts/access/Ownable.sol\":3052:3092  OwnershipTransferred(oldOwner, newOwner) */\n  0xffffffffffffffffffffffffffffffffffffffff\n  and\n    /* \"@openzeppelin/contracts/access/Ownable.sol\":3073:3081  oldOwner */\n  dup2\n    /* \"@openzeppelin/contracts/access/Ownable.sol\":3052:3092  OwnershipTransferred(oldOwner, newOwner) */\n  0xffffffffffffffffffffffffffffffffffffffff\n  and\n  0x8be0079c531659141344cd1fd0a4f28419497f9722a3daafe3b4186f6b6457e0\n  mload(0x40)\n  mload(0x40)\n  dup1\n  swap2\n  sub\n  swap1\n  log3\n    /* \"@openzeppelin/contracts/access/Ownable.sol\":2975:3099  {... */\n  pop\n    /* \"@openzeppelin/contracts/access/Ownable.sol\":2912:3099  function _transferOwnership(address newOwner) internal virtual {... */\n  pop\n  jump\t// out\n    /* \"#utility.yul\":7:133   */\ntag_11:\n    /* \"#utility.yul\":44:51   */\n  0x00\n    /* \"#utility.yul\":84:126   */\n  0xffffffffffffffffffffffffffffffffffffffff\n    /* \"#utility.yul\":77:82   */\n  dup3\n    /* \"#utility.yul\":73:127   */\n  and\n    /* \"#utility.yul\":62:127   */\n  swap1\n  pop\n    /* \"#utility.yul\":7:133   */\n  swap2\n  swap1\n  pop\n  jump\t// out\n    /* \"#utility.yul\":139:235   */\ntag_12:\n    /* \"#utility.yul\":176:183   */\n  0x00\n    /* \"#utility.yul\":205:229   */\n  tag_17\n    /* \"#utility.yul\":223:228   */\n  dup3\n    /* \"#utility.yul\":205:229   */\n  tag_11\n  jump\t// in\ntag_17:\n    /* \"#utility.yul\":194:229   */\n  swap1\n  pop\n    /* \"#utility.yul\":139:235   */\n  swap2\n  swap1\n  pop\n  jump\t// out\n    /* \"#utility.yul\":241:359   */\ntag_13:\n    /* \"#utility.yul\":328:352   */\n  tag_19\n    /* \"#utility.yul\":346:351   */\n  dup2\n    /* \"#utility.yul\":328:352   */\n  tag_12\n  jump\t// in\ntag_19:\n    /* \"#utility.yul\":323:326   */\n  dup3\n    /* \"#utility.yul\":316:353   */\n  mstore\n    /* \"#utility.yul\":241:359   */\n  pop\n  pop\n  jump\t// out\n    /* \"#utility.yul\":365:587   */\ntag_6:\n    /* \"#utility.yul\":458:462   */\n  0x00\n    /* \"#utility.yul\":496:498   */\n  0x20\n    /* \"#utility.yul\":485:494   */\n  dup3\n    /* \"#utility.yul\":481:499   */\n  add\n    /* \"#utility.yul\":473:499   */\n  swap1\n  pop\n    /* \"#utility.yul\":509:580   */\n  tag_21\n    /* \"#utility.yul\":577:578   */\n  0x00\n    /* \"#utility.yul\":566:575   */\n  dup4\n    /* \"#utility.yul\":562:579   */\n  add\n    /* \"#utility.yul\":553:559   */\n  dup5\n    /* \"#utility.yul\":509:580   */\n  tag_13\n  jump\t// in\ntag_21:\n    /* \"#utility.yul\":365:587   */\n  swap3\n  swap2\n  pop\n  pop\n  jump\t// out\n    /* \"contracts/Tokens.sol\":407:4132  contract CreatorTokenManager is Ownable   (msg.sender) {... */\ntag_9:\n  dataSize(sub_0)\n  dup1\n  dataOffset(sub_0)\n  0x00\n  codecopy\n  0x00\n  return\nstop\n\nsub_0: assembly {\n        /* \"contracts/Tokens.sol\":407:4132  contract CreatorTokenManager is Ownable   (msg.sender) {... */\n      mstore(0x40, 0x80)\n      jumpi(tag_1, lt(calldatasize, 0x04))\n      shr(0xe0, calldataload(0x00))\n      dup1\n      0x715018a6\n      gt\n      tag_11\n      jumpi\n      dup1\n      0x715018a6\n      eq\n      tag_6\n      jumpi\n      dup1\n      0x8da5cb5b\n      eq\n      tag_7\n      jumpi\n      dup1\n      0xd6b17418\n      eq\n      tag_8\n      jumpi\n      dup1\n      0xe1f04175\n      eq\n      tag_9\n      jumpi\n      dup1\n      0xf2fde38b\n      eq\n      tag_10\n      jumpi\n      jump(tag_1)\n    tag_11:\n      dup1\n      0x0d1118ce\n      eq\n      tag_2\n      jumpi\n      dup1\n      0x1ad18426\n      eq\n      tag_3\n      jumpi\n      dup1\n      0x29c81b91\n      eq\n      tag_4\n      jumpi\n      dup1\n      0x2f2f2d56\n      eq\n      tag_5\n      jumpi\n    tag_1:\n      0x00\n      dup1\n      revert\n        /* \"contracts/Tokens.sol\":3879:4129  function burnTokens(address token, uint256 amount) external {... */\n    tag_2:\n      callvalue\n      dup1\n      iszero\n      tag_12\n      jumpi\n      0x00\n      dup1\n      revert\n    tag_12:\n      pop\n      tag_13\n      0x04\n      dup1\n      calldatasize\n      sub\n      dup2\n      add\n      swap1\n      tag_14\n      swap2\n      swap1\n      tag_15\n      jump\t// in\n    tag_14:\n      tag_16\n      jump\t// in\n    tag_13:\n      stop\n        /* \"contracts/Tokens.sol\":934:996  mapping(address => mapping(uint256 => Tier)) public tokenTiers */\n    tag_3:\n      callvalue\n      dup1\n      iszero\n      tag_17\n      jumpi\n      0x00\n      dup1\n      revert\n    tag_17:\n      pop\n      tag_18\n      0x04\n      dup1\n      calldatasize\n      sub\n      dup2\n      add\n      swap1\n      tag_19\n      swap2\n      swap1\n      tag_15\n      jump\t// in\n    tag_19:\n      tag_20\n      jump\t// in\n    tag_18:\n      mload(0x40)\n      tag_21\n      swap5\n      swap4\n      swap3\n      swap2\n      swap1\n      tag_22\n      jump\t// in\n    tag_21:\n      mload(0x40)\n      dup1\n      swap2\n      sub\n      swap1\n      return\n        /* \"contracts/Tokens.sol\":824:872  mapping(address => address) public creatorTokens */\n    tag_4:\n      callvalue\n      dup1\n      iszero\n      tag_23\n      jumpi\n      0x00\n      dup1\n      revert\n    tag_23:\n      pop\n      tag_24\n      0x04\n      dup1\n      calldatasize\n      sub\n      dup2\n      add\n      swap1\n      tag_25\n      swap2\n      swap1\n      tag_26\n      jump\t// in\n    tag_25:\n      tag_27\n      jump\t// in\n    tag_24:\n      mload(0x40)\n      tag_28\n      swap2\n      swap1\n      tag_29\n      jump\t// in\n    tag_28:\n      mload(0x40)\n      dup1\n      swap2\n      sub\n      swap1\n      return\n        /* \"contracts/Tokens.sol\":1679:2021  function createToken(string memory name, string memory symbol) external {... */\n    tag_5:\n      callvalue\n      dup1\n      iszero\n      tag_30\n      jumpi\n      0x00\n      dup1\n      revert\n    tag_30:\n      pop\n      tag_31\n      0x04\n      dup1\n      calldatasize\n      sub\n      dup2\n      add\n      swap1\n      tag_32\n      swap2\n      swap1\n      tag_33\n      jump\t// in\n    tag_32:\n      tag_34\n      jump\t// in\n    tag_31:\n      stop\n        /* \"@openzeppelin/contracts/access/Ownable.sol\":2293:2394  function renounceOwnership() public virtual onlyOwner {... */\n    tag_6:\n      callvalue\n      dup1\n      iszero\n      tag_35\n      jumpi\n      0x00\n      dup1\n      revert\n    tag_35:\n      pop\n      tag_36\n      tag_37\n      jump\t// in\n    tag_36:\n      stop\n        /* \"@openzeppelin/contracts/access/Ownable.sol\":1638:1723  function owner() public view virtual returns (address) {... */\n    tag_7:\n      callvalue\n      dup1\n      iszero\n      tag_38\n      jumpi\n      0x00\n      dup1\n      revert\n    tag_38:\n      pop\n      tag_39\n      tag_40\n      jump\t// in\n    tag_39:\n      mload(0x40)\n      tag_41\n      swap2\n      swap1\n      tag_29\n      jump\t// in\n    tag_41:\n      mload(0x40)\n      dup1\n      swap2\n      sub\n      swap1\n      return\n        /* \"contracts/Tokens.sol\":3089:3692  function mintTokens(address token, uint256 tierId, uint256 amount, address recipient) external payable {... */\n    tag_8:\n      tag_42\n      0x04\n      dup1\n      calldatasize\n      sub\n      dup2\n      add\n      swap1\n      tag_43\n      swap2\n      swap1\n      tag_44\n      jump\t// in\n    tag_43:\n      tag_45\n      jump\t// in\n    tag_42:\n      stop\n        /* \"contracts/Tokens.sol\":2328:2822  function addTier(address token, uint256 tierId, string memory name, uint256 supply, uint256 price) external {... */\n    tag_9:\n      callvalue\n      dup1\n      iszero\n      tag_46\n      jumpi\n      0x00\n      dup1\n      revert\n    tag_46:\n      pop\n      tag_47\n      0x04\n      dup1\n      calldatasize\n      sub\n      dup2\n      add\n      swap1\n      tag_48\n      swap2\n      swap1\n      tag_49\n      jump\t// in\n    tag_48:\n      tag_50\n      jump\t// in\n    tag_47:\n      stop\n        /* \"@openzeppelin/contracts/access/Ownable.sol\":2543:2758  function transferOwnership(address newOwner) public virtual onlyOwner {... */\n    tag_10:\n      callvalue\n      dup1\n      iszero\n      tag_51\n      jumpi\n      0x00\n      dup1\n      revert\n    tag_51:\n      pop\n      tag_52\n      0x04\n      dup1\n      calldatasize\n      sub\n      dup2\n      add\n      swap1\n      tag_53\n      swap2\n      swap1\n      tag_26\n      jump\t// in\n    tag_53:\n      tag_54\n      jump\t// in\n    tag_52:\n      stop\n        /* \"contracts/Tokens.sol\":3879:4129  function burnTokens(address token, uint256 amount) external {... */\n    tag_16:\n        /* \"contracts/Tokens.sol\":3987:3992  token */\n      dup2\n        /* \"contracts/Tokens.sol\":3958:3992  creatorTokens[msg.sender] == token */\n      0xffffffffffffffffffffffffffffffffffffffff\n      and\n        /* \"contracts/Tokens.sol\":3958:3971  creatorTokens */\n      0x01\n        /* \"contracts/Tokens.sol\":3958:3983  creatorTokens[msg.sender] */\n      0x00\n        /* \"contracts/Tokens.sol\":3972:3982  msg.sender */\n      caller\n        /* \"contracts/Tokens.sol\":3958:3983  creatorTokens[msg.sender] */\n      0xffffffffffffffffffffffffffffffffffffffff\n      and\n      0xffffffffffffffffffffffffffffffffffffffff\n      and\n      dup2\n      mstore\n      0x20\n      add\n      swap1\n      dup2\n      mstore\n      0x20\n      add\n      0x00\n      keccak256\n      0x00\n      swap1\n      sload\n      swap1\n      0x0100\n      exp\n      swap1\n      div\n      0xffffffffffffffffffffffffffffffffffffffff\n      and\n        /* \"contracts/Tokens.sol\":3958:3992  creatorTokens[msg.sender] == token */\n      0xffffffffffffffffffffffffffffffffffffffff\n      and\n      eq\n        /* \"contracts/Tokens.sol\":3950:4011  require(creatorTokens[msg.sender] == token, \"Not your token\") */\n      tag_56\n      jumpi\n      mload(0x40)\n      0x08c379a000000000000000000000000000000000000000000000000000000000\n      dup2\n      mstore\n      0x04\n      add\n      tag_57\n      swap1\n      tag_58\n      jump\t// in\n    tag_57:\n      mload(0x40)\n      dup1\n      swap2\n      sub\n      swap1\n      revert\n    tag_56:\n        /* \"contracts/Tokens.sol\":4035:4040  token */\n      dup2\n        /* \"contracts/Tokens.sol\":4022:4046  CreatorToken(token).burn */\n      0xffffffffffffffffffffffffffffffffffffffff\n      and\n      0x9dc29fac\n        /* \"contracts/Tokens.sol\":4047:4057  msg.sender */\n      caller\n        /* \"contracts/Tokens.sol\":4059:4065  amount */\n      dup4\n        /* \"contracts/Tokens.sol\":4022:4066  CreatorToken(token).burn(msg.sender, amount) */\n      mload(0x40)\n      dup4\n      0xffffffff\n      and\n      0xe0\n      shl\n      dup2\n      mstore\n      0x04\n      add\n      tag_59\n      swap3\n      swap2\n      swap1\n      tag_60\n      jump\t// in\n    tag_59:\n      0x00\n      mload(0x40)\n      dup1\n      dup4\n      sub\n      dup2\n      0x00\n      dup8\n      dup1\n      extcodesize\n      iszero\n      dup1\n      iszero\n      tag_61\n      jumpi\n      0x00\n      dup1\n      revert\n    tag_61:\n      pop\n      gas\n      call\n      iszero\n      dup1\n      iszero\n      tag_63\n      jumpi\n      returndatasize\n      0x00\n      dup1\n      returndatacopy\n      revert(0x00, returndatasize)\n    tag_63:\n      pop\n      pop\n      pop\n      pop\n        /* \"contracts/Tokens.sol\":4102:4112  msg.sender */\n      caller\n        /* \"contracts/Tokens.sol\":4082:4121  TokensBurned(token, msg.sender, amount) */\n      0xffffffffffffffffffffffffffffffffffffffff\n      and\n        /* \"contracts/Tokens.sol\":4095:4100  token */\n      dup3\n        /* \"contracts/Tokens.sol\":4082:4121  TokensBurned(token, msg.sender, amount) */\n      0xffffffffffffffffffffffffffffffffffffffff\n      and\n      0x857ac1c9e97cc66ecae5f524c9c611463ae748b85af3ca454a5ec4d7d341924d\n        /* \"contracts/Tokens.sol\":4114:4120  amount */\n      dup4\n        /* \"contracts/Tokens.sol\":4082:4121  TokensBurned(token, msg.sender, amount) */\n      mload(0x40)\n      tag_64\n      swap2\n      swap1\n      tag_65\n      jump\t// in\n    tag_64:\n      mload(0x40)\n      dup1\n      swap2\n      sub\n      swap1\n      log3\n        /* \"contracts/Tokens.sol\":3879:4129  function burnTokens(address token, uint256 amount) external {... */\n      pop\n      pop\n      jump\t// out\n        /* \"contracts/Tokens.sol\":934:996  mapping(address => mapping(uint256 => Tier)) public tokenTiers */\n    tag_20:\n      mstore(0x20, 0x02)\n      dup2\n      0x00\n      mstore\n      mstore(0x20, keccak256(0x00, 0x40))\n      dup1\n      0x00\n      mstore\n      keccak256(0x00, 0x40)\n      0x00\n      swap2\n      pop\n      swap2\n      pop\n      pop\n      dup1\n      0x00\n      add\n      dup1\n      sload\n      tag_66\n      swap1\n      tag_67\n      jump\t// in\n    tag_66:\n      dup1\n      0x1f\n      add\n      0x20\n      dup1\n      swap2\n      div\n      mul\n      0x20\n      add\n      mload(0x40)\n      swap1\n      dup2\n      add\n      0x40\n      mstore\n      dup1\n      swap3\n      swap2\n      swap1\n      dup2\n      dup2\n      mstore\n      0x20\n      add\n      dup3\n      dup1\n      sload\n      tag_68\n      swap1\n      tag_67\n      jump\t// in\n    tag_68:\n      dup1\n      iszero\n      tag_69\n      jumpi\n      dup1\n      0x1f\n      lt\n      tag_70\n      jumpi\n      0x0100\n      dup1\n      dup4\n      sload\n      div\n      mul\n      dup4\n      mstore\n      swap2\n      0x20\n      add\n      swap2\n      jump(tag_69)\n    tag_70:\n      dup3\n      add\n      swap2\n      swap1\n      0x00\n      mstore\n      keccak256(0x00, 0x20)\n      swap1\n    tag_71:\n      dup2\n      sload\n      dup2\n      mstore\n      swap1\n      0x01\n      add\n      swap1\n      0x20\n      add\n      dup1\n      dup4\n      gt\n      tag_71\n      jumpi\n      dup3\n      swap1\n      sub\n      0x1f\n      and\n      dup3\n      add\n      swap2\n    tag_69:\n      pop\n      pop\n      pop\n      pop\n      pop\n      swap1\n      dup1\n      0x01\n      add\n      sload\n      swap1\n      dup1\n      0x02\n      add\n      sload\n      swap1\n      dup1\n      0x03\n      add\n      sload\n      swap1\n      pop\n      dup5\n      jump\t// out\n        /* \"contracts/Tokens.sol\":824:872  mapping(address => address) public creatorTokens */\n    tag_27:\n      mstore(0x20, 0x01)\n      dup1\n      0x00\n      mstore\n      keccak256(0x00, 0x40)\n      0x00\n      swap2\n      pop\n      sload\n      swap1\n      0x0100\n      exp\n      swap1\n      div\n      0xffffffffffffffffffffffffffffffffffffffff\n      and\n      dup2\n      jump\t// out\n        /* \"contracts/Tokens.sol\":1679:2021  function createToken(string memory name, string memory symbol) external {... */\n    tag_34:\n        /* \"contracts/Tokens.sol\":1807:1808  0 */\n      0x00\n        /* \"contracts/Tokens.sol\":1770:1809  creatorTokens[msg.sender] == address(0) */\n      0xffffffffffffffffffffffffffffffffffffffff\n      and\n        /* \"contracts/Tokens.sol\":1770:1783  creatorTokens */\n      0x01\n        /* \"contracts/Tokens.sol\":1770:1795  creatorTokens[msg.sender] */\n      0x00\n        /* \"contracts/Tokens.sol\":1784:1794  msg.sender */\n      caller\n        /* \"contracts/Tokens.sol\":1770:1795  creatorTokens[msg.sender] */\n      0xffffffffffffffffffffffffffffffffffffffff\n      and\n      0xffffffffffffffffffffffffffffffffffffffff\n      and\n      dup2\n      mstore\n      0x20\n      add\n      swap1\n      dup2\n      mstore\n      0x20\n      add\n      0x00\n      keccak256\n      0x00\n      swap1\n      sload\n      swap1\n      0x0100\n      exp\n      swap1\n      div\n      0xffffffffffffffffffffffffffffffffffffffff\n      and\n        /* \"contracts/Tokens.sol\":1770:1809  creatorTokens[msg.sender] == address(0) */\n      0xffffffffffffffffffffffffffffffffffffffff\n      and\n      eq\n        /* \"contracts/Tokens.sol\":1762:1835  require(creatorTokens[msg.sender] == address(0), \"Token already created\") */\n      tag_73\n      jumpi\n      mload(0x40)\n      0x08c379a000000000000000000000000000000000000000000000000000000000\n      dup2\n      mstore\n      0x04\n      add\n      tag_74\n      swap1\n      tag_75\n      jump\t// in\n    tag_74:\n      mload(0x40)\n      dup1\n      swap2\n      sub\n      swap1\n      revert\n    tag_73:\n        /* \"contracts/Tokens.sol\":1846:1862  address newToken */\n      0x00\n        /* \"contracts/Tokens.sol\":1890:1894  name */\n      dup3\n        /* \"contracts/Tokens.sol\":1896:1902  symbol */\n      dup3\n        /* \"contracts/Tokens.sol\":1904:1914  msg.sender */\n      caller\n        /* \"contracts/Tokens.sol\":1873:1915  new CreatorToken(name, symbol, msg.sender) */\n      mload(0x40)\n      tag_76\n      swap1\n      tag_77\n      jump\t// in\n    tag_76:\n      tag_78\n      swap4\n      swap3\n      swap2\n      swap1\n      tag_79\n      jump\t// in\n    tag_78:\n      mload(0x40)\n      dup1\n      swap2\n      sub\n      swap1\n      0x00\n      create\n      dup1\n      iszero\n      dup1\n      iszero\n      tag_80\n      jumpi\n      returndatasize\n      0x00\n      dup1\n      returndatacopy\n      revert(0x00, returndatasize)\n    tag_80:\n      pop\n        /* \"contracts/Tokens.sol\":1846:1916  address newToken = address(new CreatorToken(name, symbol, msg.sender)) */\n      swap1\n      pop\n        /* \"contracts/Tokens.sol\":1955:1963  newToken */\n      dup1\n        /* \"contracts/Tokens.sol\":1927:1940  creatorTokens */\n      0x01\n        /* \"contracts/Tokens.sol\":1927:1952  creatorTokens[msg.sender] */\n      0x00\n        /* \"contracts/Tokens.sol\":1941:1951  msg.sender */\n      caller\n        /* \"contracts/Tokens.sol\":1927:1952  creatorTokens[msg.sender] */\n      0xffffffffffffffffffffffffffffffffffffffff\n      and\n      0xffffffffffffffffffffffffffffffffffffffff\n      and\n      dup2\n      mstore\n      0x20\n      add\n      swap1\n      dup2\n      mstore\n      0x20\n      add\n      0x00\n      keccak256\n      0x00\n        /* \"contracts/Tokens.sol\":1927:1963  creatorTokens[msg.sender] = newToken */\n      0x0100\n      exp\n      dup2\n      sload\n      dup2\n      0xffffffffffffffffffffffffffffffffffffffff\n      mul\n      not\n      and\n      swap1\n      dup4\n      0xffffffffffffffffffffffffffffffffffffffff\n      and\n      mul\n      or\n      swap1\n      sstore\n      pop\n        /* \"contracts/Tokens.sol\":1992:2002  msg.sender */\n      caller\n        /* \"contracts/Tokens.sol\":1979:2013  TokenCreated(msg.sender, newToken) */\n      0xffffffffffffffffffffffffffffffffffffffff\n      and\n      0xd5f9bdf12adf29dab0248c349842c3822d53ae2bb4f36352f301630d018c8139\n        /* \"contracts/Tokens.sol\":2004:2012  newToken */\n      dup3\n        /* \"contracts/Tokens.sol\":1979:2013  TokenCreated(msg.sender, newToken) */\n      mload(0x40)\n      tag_81\n      swap2\n      swap1\n      tag_29\n      jump\t// in\n    tag_81:\n      mload(0x40)\n      dup1\n      swap2\n      sub\n      swap1\n      log2\n        /* \"contracts/Tokens.sol\":1751:2021  {... */\n      pop\n        /* \"contracts/Tokens.sol\":1679:2021  function createToken(string memory name, string memory symbol) external {... */\n      pop\n      pop\n      jump\t// out\n        /* \"@openzeppelin/contracts/access/Ownable.sol\":2293:2394  function renounceOwnership() public virtual onlyOwner {... */\n    tag_37:\n        /* \"@openzeppelin/contracts/access/Ownable.sol\":1531:1544  _checkOwner() */\n      tag_83\n        /* \"@openzeppelin/contracts/access/Ownable.sol\":1531:1542  _checkOwner */\n      tag_84\n        /* \"@openzeppelin/contracts/access/Ownable.sol\":1531:1544  _checkOwner() */\n      jump\t// in\n    tag_83:\n        /* \"@openzeppelin/contracts/access/Ownable.sol\":2357:2387  _transferOwnership(address(0)) */\n      tag_86\n        /* \"@openzeppelin/contracts/access/Ownable.sol\":2384:2385  0 */\n      0x00\n        /* \"@openzeppelin/contracts/access/Ownable.sol\":2357:2375  _transferOwnership */\n      tag_87\n        /* \"@openzeppelin/contracts/access/Ownable.sol\":2357:2387  _transferOwnership(address(0)) */\n      jump\t// in\n    tag_86:\n        /* \"@openzeppelin/contracts/access/Ownable.sol\":2293:2394  function renounceOwnership() public virtual onlyOwner {... */\n      jump\t// out\n        /* \"@openzeppelin/contracts/access/Ownable.sol\":1638:1723  function owner() public view virtual returns (address) {... */\n    tag_40:\n        /* \"@openzeppelin/contracts/access/Ownable.sol\":1684:1691  address */\n      0x00\n        /* \"@openzeppelin/contracts/access/Ownable.sol\":1710:1716  _owner */\n      dup1\n      0x00\n      swap1\n      sload\n      swap1\n      0x0100\n      exp\n      swap1\n      div\n      0xffffffffffffffffffffffffffffffffffffffff\n      and\n        /* \"@openzeppelin/contracts/access/Ownable.sol\":1703:1716  return _owner */\n      swap1\n      pop\n        /* \"@openzeppelin/contracts/access/Ownable.sol\":1638:1723  function owner() public view virtual returns (address) {... */\n      swap1\n      jump\t// out\n        /* \"contracts/Tokens.sol\":3089:3692  function mintTokens(address token, uint256 tierId, uint256 amount, address recipient) external payable {... */\n    tag_45:\n        /* \"contracts/Tokens.sol\":3240:3245  token */\n      dup4\n        /* \"contracts/Tokens.sol\":3211:3245  creatorTokens[msg.sender] == token */\n      0xffffffffffffffffffffffffffffffffffffffff\n      and\n        /* \"contracts/Tokens.sol\":3211:3224  creatorTokens */\n      0x01\n        /* \"contracts/Tokens.sol\":3211:3236  creatorTokens[msg.sender] */\n      0x00\n        /* \"contracts/Tokens.sol\":3225:3235  msg.sender */\n      caller\n        /* \"contracts/Tokens.sol\":3211:3236  creatorTokens[msg.sender] */\n      0xffffffffffffffffffffffffffffffffffffffff\n      and\n      0xffffffffffffffffffffffffffffffffffffffff\n      and\n      dup2\n      mstore\n      0x20\n      add\n      swap1\n      dup2\n      mstore\n      0x20\n      add\n      0x00\n      keccak256\n      0x00\n      swap1\n      sload\n      swap1\n      0x0100\n      exp\n      swap1\n      div\n      0xffffffffffffffffffffffffffffffffffffffff\n      and\n        /* \"contracts/Tokens.sol\":3211:3245  creatorTokens[msg.sender] == token */\n      0xffffffffffffffffffffffffffffffffffffffff\n      and\n      eq\n        /* \"contracts/Tokens.sol\":3203:3264  require(creatorTokens[msg.sender] == token, \"Not your token\") */\n      tag_90\n      jumpi\n      mload(0x40)\n      0x08c379a000000000000000000000000000000000000000000000000000000000\n      dup2\n      mstore\n      0x04\n      add\n      tag_91\n      swap1\n      tag_58\n      jump\t// in\n    tag_91:\n      mload(0x40)\n      dup1\n      swap2\n      sub\n      swap1\n      revert\n    tag_90:\n        /* \"contracts/Tokens.sol\":3275:3292  Tier storage tier */\n      0x00\n        /* \"contracts/Tokens.sol\":3295:3305  tokenTiers */\n      0x02\n        /* \"contracts/Tokens.sol\":3295:3312  tokenTiers[token] */\n      0x00\n        /* \"contracts/Tokens.sol\":3306:3311  token */\n      dup7\n        /* \"contracts/Tokens.sol\":3295:3312  tokenTiers[token] */\n      0xffffffffffffffffffffffffffffffffffffffff\n      and\n      0xffffffffffffffffffffffffffffffffffffffff\n      and\n      dup2\n      mstore\n      0x20\n      add\n      swap1\n      dup2\n      mstore\n      0x20\n      add\n      0x00\n      keccak256\n        /* \"contracts/Tokens.sol\":3295:3320  tokenTiers[token][tierId] */\n      0x00\n        /* \"contracts/Tokens.sol\":3313:3319  tierId */\n      dup6\n        /* \"contracts/Tokens.sol\":3295:3320  tokenTiers[token][tierId] */\n      dup2\n      mstore\n      0x20\n      add\n      swap1\n      dup2\n      mstore\n      0x20\n      add\n      0x00\n      keccak256\n        /* \"contracts/Tokens.sol\":3275:3320  Tier storage tier = tokenTiers[token][tierId] */\n      swap1\n      pop\n        /* \"contracts/Tokens.sol\":3353:3354  0 */\n      0x00\n        /* \"contracts/Tokens.sol\":3339:3343  tier */\n      dup2\n        /* \"contracts/Tokens.sol\":3339:3350  tier.supply */\n      0x01\n      add\n      sload\n        /* \"contracts/Tokens.sol\":3339:3354  tier.supply > 0 */\n      gt\n        /* \"contracts/Tokens.sol\":3331:3378  require(tier.supply > 0, \"Tier does not exist\") */\n      tag_92\n      jumpi\n      mload(0x40)\n      0x08c379a000000000000000000000000000000000000000000000000000000000\n      dup2\n      mstore\n      0x04\n      add\n      tag_93\n      swap1\n      tag_94\n      jump\t// in\n    tag_93:\n      mload(0x40)\n      dup1\n      swap2\n      sub\n      swap1\n      revert\n    tag_92:\n        /* \"contracts/Tokens.sol\":3421:3425  tier */\n      dup1\n        /* \"contracts/Tokens.sol\":3421:3432  tier.supply */\n      0x01\n      add\n      sload\n        /* \"contracts/Tokens.sol\":3411:3417  amount */\n      dup4\n        /* \"contracts/Tokens.sol\":3397:3401  tier */\n      dup3\n        /* \"contracts/Tokens.sol\":3397:3408  tier.minted */\n      0x02\n      add\n      sload\n        /* \"contracts/Tokens.sol\":3397:3417  tier.minted + amount */\n      tag_95\n      swap2\n      swap1\n      tag_96\n      jump\t// in\n    tag_95:\n        /* \"contracts/Tokens.sol\":3397:3432  tier.minted + amount <= tier.supply */\n      gt\n      iszero\n        /* \"contracts/Tokens.sol\":3389:3456  require(tier.minted + amount <= tier.supply, \"Exceeds tier supply\") */\n      tag_97\n      jumpi\n      mload(0x40)\n      0x08c379a000000000000000000000000000000000000000000000000000000000\n      dup2\n      mstore\n      0x04\n      add\n      tag_98\n      swap1\n      tag_99\n      jump\t// in\n    tag_98:\n      mload(0x40)\n      dup1\n      swap2\n      sub\n      swap1\n      revert\n    tag_97:\n        /* \"contracts/Tokens.sol\":3501:3507  amount */\n      dup3\n        /* \"contracts/Tokens.sol\":3488:3492  tier */\n      dup2\n        /* \"contracts/Tokens.sol\":3488:3498  tier.price */\n      0x03\n      add\n      sload\n        /* \"contracts/Tokens.sol\":3488:3507  tier.price * amount */\n      tag_100\n      swap2\n      swap1\n      tag_101\n      jump\t// in\n    tag_100:\n        /* \"contracts/Tokens.sol\":3475:3484  msg.value */\n      callvalue\n        /* \"contracts/Tokens.sol\":3475:3507  msg.value >= tier.price * amount */\n      lt\n      iszero\n        /* \"contracts/Tokens.sol\":3467:3532  require(msg.value >= tier.price * amount, \"Insufficient payment\") */\n      tag_102\n      jumpi\n      mload(0x40)\n      0x08c379a000000000000000000000000000000000000000000000000000000000\n      dup2\n      mstore\n      0x04\n      add\n      tag_103\n      swap1\n      tag_104\n      jump\t// in\n    tag_103:\n      mload(0x40)\n      dup1\n      swap2\n      sub\n      swap1\n      revert\n    tag_102:\n        /* \"contracts/Tokens.sol\":3560:3566  amount */\n      dup3\n        /* \"contracts/Tokens.sol\":3545:3549  tier */\n      dup2\n        /* \"contracts/Tokens.sol\":3545:3556  tier.minted */\n      0x02\n      add\n      0x00\n        /* \"contracts/Tokens.sol\":3545:3566  tier.minted += amount */\n      dup3\n      dup3\n      sload\n      tag_105\n      swap2\n      swap1\n      tag_96\n      jump\t// in\n    tag_105:\n      swap3\n      pop\n      pop\n      dup2\n      swap1\n      sstore\n      pop\n        /* \"contracts/Tokens.sol\":3590:3595  token */\n      dup5\n        /* \"contracts/Tokens.sol\":3577:3601  CreatorToken(token).mint */\n      0xffffffffffffffffffffffffffffffffffffffff\n      and\n      0x40c10f19\n        /* \"contracts/Tokens.sol\":3602:3611  recipient */\n      dup4\n        /* \"contracts/Tokens.sol\":3613:3619  amount */\n      dup6\n        /* \"contracts/Tokens.sol\":3577:3620  CreatorToken(token).mint(recipient, amount) */\n      mload(0x40)\n      dup4\n      0xffffffff\n      and\n      0xe0\n      shl\n      dup2\n      mstore\n      0x04\n      add\n      tag_106\n      swap3\n      swap2\n      swap1\n      tag_60\n      jump\t// in\n    tag_106:\n      0x00\n      mload(0x40)\n      dup1\n      dup4\n      sub\n      dup2\n      0x00\n      dup8\n      dup1\n      extcodesize\n      iszero\n      dup1\n      iszero\n      tag_107\n      jumpi\n      0x00\n      dup1\n      revert\n    tag_107:\n      pop\n      gas\n      call\n      iszero\n      dup1\n      iszero\n      tag_109\n      jumpi\n      returndatasize\n      0x00\n      dup1\n      returndatacopy\n      revert(0x00, returndatasize)\n    tag_109:\n      pop\n      pop\n      pop\n      pop\n        /* \"contracts/Tokens.sol\":3658:3667  recipient */\n      dup2\n        /* \"contracts/Tokens.sol\":3638:3684  TokensMinted(token, recipient, tierId, amount) */\n      0xffffffffffffffffffffffffffffffffffffffff\n      and\n        /* \"contracts/Tokens.sol\":3651:3656  token */\n      dup6\n        /* \"contracts/Tokens.sol\":3638:3684  TokensMinted(token, recipient, tierId, amount) */\n      0xffffffffffffffffffffffffffffffffffffffff\n      and\n      0xe456f0d575ef17126ead0c00ffd703adb3aa7b837d5b32ae967c707f804fa867\n        /* \"contracts/Tokens.sol\":3669:3675  tierId */\n      dup7\n        /* \"contracts/Tokens.sol\":3677:3683  amount */\n      dup7\n        /* \"contracts/Tokens.sol\":3638:3684  TokensMinted(token, recipient, tierId, amount) */\n      mload(0x40)\n      tag_110\n      swap3\n      swap2\n      swap1\n      tag_111\n      jump\t// in\n    tag_110:\n      mload(0x40)\n      dup1\n      swap2\n      sub\n      swap1\n      log3\n        /* \"contracts/Tokens.sol\":3192:3692  {... */\n      pop\n        /* \"contracts/Tokens.sol\":3089:3692  function mintTokens(address token, uint256 tierId, uint256 amount, address recipient) external payable {... */\n      pop\n      pop\n      pop\n      pop\n      jump\t// out\n        /* \"contracts/Tokens.sol\":2328:2822  function addTier(address token, uint256 tierId, string memory name, uint256 supply, uint256 price) external {... */\n    tag_50:\n        /* \"contracts/Tokens.sol\":2484:2489  token */\n      dup5\n        /* \"contracts/Tokens.sol\":2455:2489  creatorTokens[msg.sender] == token */\n      0xffffffffffffffffffffffffffffffffffffffff\n      and\n        /* \"contracts/Tokens.sol\":2455:2468  creatorTokens */\n      0x01\n        /* \"contracts/Tokens.sol\":2455:2480  creatorTokens[msg.sender] */\n      0x00\n        /* \"contracts/Tokens.sol\":2469:2479  msg.sender */\n      caller\n        /* \"contracts/Tokens.sol\":2455:2480  creatorTokens[msg.sender] */\n      0xffffffffffffffffffffffffffffffffffffffff\n      and\n      0xffffffffffffffffffffffffffffffffffffffff\n      and\n      dup2\n      mstore\n      0x20\n      add\n      swap1\n      dup2\n      mstore\n      0x20\n      add\n      0x00\n      keccak256\n      0x00\n      swap1\n      sload\n      swap1\n      0x0100\n      exp\n      swap1\n      div\n      0xffffffffffffffffffffffffffffffffffffffff\n      and\n        /* \"contracts/Tokens.sol\":2455:2489  creatorTokens[msg.sender] == token */\n      0xffffffffffffffffffffffffffffffffffffffff\n      and\n      eq\n        /* \"contracts/Tokens.sol\":2447:2508  require(creatorTokens[msg.sender] == token, \"Not your token\") */\n      tag_113\n      jumpi\n      mload(0x40)\n      0x08c379a000000000000000000000000000000000000000000000000000000000\n      dup2\n      mstore\n      0x04\n      add\n      tag_114\n      swap1\n      tag_58\n      jump\t// in\n    tag_114:\n      mload(0x40)\n      dup1\n      swap2\n      sub\n      swap1\n      revert\n    tag_113:\n        /* \"contracts/Tokens.sol\":2563:2564  0 */\n      0x00\n        /* \"contracts/Tokens.sol\":2527:2537  tokenTiers */\n      0x02\n        /* \"contracts/Tokens.sol\":2527:2544  tokenTiers[token] */\n      0x00\n        /* \"contracts/Tokens.sol\":2538:2543  token */\n      dup8\n        /* \"contracts/Tokens.sol\":2527:2544  tokenTiers[token] */\n      0xffffffffffffffffffffffffffffffffffffffff\n      and\n      0xffffffffffffffffffffffffffffffffffffffff\n      and\n      dup2\n      mstore\n      0x20\n      add\n      swap1\n      dup2\n      mstore\n      0x20\n      add\n      0x00\n      keccak256\n        /* \"contracts/Tokens.sol\":2527:2552  tokenTiers[token][tierId] */\n      0x00\n        /* \"contracts/Tokens.sol\":2545:2551  tierId */\n      dup7\n        /* \"contracts/Tokens.sol\":2527:2552  tokenTiers[token][tierId] */\n      dup2\n      mstore\n      0x20\n      add\n      swap1\n      dup2\n      mstore\n      0x20\n      add\n      0x00\n      keccak256\n        /* \"contracts/Tokens.sol\":2527:2559  tokenTiers[token][tierId].supply */\n      0x01\n      add\n      sload\n        /* \"contracts/Tokens.sol\":2527:2564  tokenTiers[token][tierId].supply == 0 */\n      eq\n        /* \"contracts/Tokens.sol\":2519:2588  require(tokenTiers[token][tierId].supply == 0, \"Tier already exists\") */\n      tag_115\n      jumpi\n      mload(0x40)\n      0x08c379a000000000000000000000000000000000000000000000000000000000\n      dup2\n      mstore\n      0x04\n      add\n      tag_116\n      swap1\n      tag_117\n      jump\t// in\n    tag_116:\n      mload(0x40)\n      dup1\n      swap2\n      sub\n      swap1\n      revert\n    tag_115:\n        /* \"contracts/Tokens.sol\":2629:2751  Tier({... */\n      mload(0x40)\n      dup1\n      0x80\n      add\n      0x40\n      mstore\n      dup1\n        /* \"contracts/Tokens.sol\":2655:2659  name */\n      dup5\n        /* \"contracts/Tokens.sol\":2629:2751  Tier({... */\n      dup2\n      mstore\n      0x20\n      add\n        /* \"contracts/Tokens.sol\":2682:2688  supply */\n      dup4\n        /* \"contracts/Tokens.sol\":2629:2751  Tier({... */\n      dup2\n      mstore\n      0x20\n      add\n        /* \"contracts/Tokens.sol\":2711:2712  0 */\n      0x00\n        /* \"contracts/Tokens.sol\":2629:2751  Tier({... */\n      dup2\n      mstore\n      0x20\n      add\n        /* \"contracts/Tokens.sol\":2734:2739  price */\n      dup3\n        /* \"contracts/Tokens.sol\":2629:2751  Tier({... */\n      dup2\n      mstore\n      pop\n        /* \"contracts/Tokens.sol\":2601:2611  tokenTiers */\n      0x02\n        /* \"contracts/Tokens.sol\":2601:2618  tokenTiers[token] */\n      0x00\n        /* \"contracts/Tokens.sol\":2612:2617  token */\n      dup8\n        /* \"contracts/Tokens.sol\":2601:2618  tokenTiers[token] */\n      0xffffffffffffffffffffffffffffffffffffffff\n      and\n      0xffffffffffffffffffffffffffffffffffffffff\n      and\n      dup2\n      mstore\n      0x20\n      add\n      swap1\n      dup2\n      mstore\n      0x20\n      add\n      0x00\n      keccak256\n        /* \"contracts/Tokens.sol\":2601:2626  tokenTiers[token][tierId] */\n      0x00\n        /* \"contracts/Tokens.sol\":2619:2625  tierId */\n      dup7\n        /* \"contracts/Tokens.sol\":2601:2626  tokenTiers[token][tierId] */\n      dup2\n      mstore\n      0x20\n      add\n      swap1\n      dup2\n      mstore\n      0x20\n      add\n      0x00\n      keccak256\n        /* \"contracts/Tokens.sol\":2601:2751  tokenTiers[token][tierId] = Tier({... */\n      0x00\n      dup3\n      add\n      mload\n      dup2\n      0x00\n      add\n      swap1\n      dup2\n      tag_118\n      swap2\n      swap1\n      tag_119\n      jump\t// in\n    tag_118:\n      pop\n      0x20\n      dup3\n      add\n      mload\n      dup2\n      0x01\n      add\n      sstore\n      0x40\n      dup3\n      add\n      mload\n      dup2\n      0x02\n      add\n      sstore\n      0x60\n      dup3\n      add\n      mload\n      dup2\n      0x03\n      add\n      sstore\n      swap1\n      pop\n      pop\n        /* \"contracts/Tokens.sol\":2779:2784  token */\n      dup5\n        /* \"contracts/Tokens.sol\":2769:2814  TierAdded(token, tierId, name, supply, price) */\n      0xffffffffffffffffffffffffffffffffffffffff\n      and\n      0xa7973c2fc2736eea44b46b6f4216f2378ea4f7a84ba3268bee4436fa12a50b1e\n        /* \"contracts/Tokens.sol\":2786:2792  tierId */\n      dup6\n        /* \"contracts/Tokens.sol\":2794:2798  name */\n      dup6\n        /* \"contracts/Tokens.sol\":2800:2806  supply */\n      dup6\n        /* \"contracts/Tokens.sol\":2808:2813  price */\n      dup6\n        /* \"contracts/Tokens.sol\":2769:2814  TierAdded(token, tierId, name, supply, price) */\n      mload(0x40)\n      tag_120\n      swap5\n      swap4\n      swap3\n      swap2\n      swap1\n      tag_121\n      jump\t// in\n    tag_120:\n      mload(0x40)\n      dup1\n      swap2\n      sub\n      swap1\n      log2\n        /* \"contracts/Tokens.sol\":2328:2822  function addTier(address token, uint256 tierId, string memory name, uint256 supply, uint256 price) external {... */\n      pop\n      pop\n      pop\n      pop\n      pop\n      jump\t// out\n        /* \"@openzeppelin/contracts/access/Ownable.sol\":2543:2758  function transferOwnership(address newOwner) public virtual onlyOwner {... */\n    tag_54:\n        /* \"@openzeppelin/contracts/access/Ownable.sol\":1531:1544  _checkOwner() */\n      tag_123\n        /* \"@openzeppelin/contracts/access/Ownable.sol\":1531:1542  _checkOwner */\n      tag_84\n        /* \"@openzeppelin/contracts/access/Ownable.sol\":1531:1544  _checkOwner() */\n      jump\t// in\n    tag_123:\n        /* \"@openzeppelin/contracts/access/Ownable.sol\":2647:2648  0 */\n      0x00\n        /* \"@openzeppelin/contracts/access/Ownable.sol\":2627:2649  newOwner == address(0) */\n      0xffffffffffffffffffffffffffffffffffffffff\n      and\n        /* \"@openzeppelin/contracts/access/Ownable.sol\":2627:2635  newOwner */\n      dup2\n        /* \"@openzeppelin/contracts/access/Ownable.sol\":2627:2649  newOwner == address(0) */\n      0xffffffffffffffffffffffffffffffffffffffff\n      and\n      sub\n        /* \"@openzeppelin/contracts/access/Ownable.sol\":2623:2714  if (newOwner == address(0)) {... */\n      tag_125\n      jumpi\n        /* \"@openzeppelin/contracts/access/Ownable.sol\":2700:2701  0 */\n      0x00\n        /* \"@openzeppelin/contracts/access/Ownable.sol\":2672:2703  OwnableInvalidOwner(address(0)) */\n      mload(0x40)\n      0x1e4fbdf700000000000000000000000000000000000000000000000000000000\n      dup2\n      mstore\n      0x04\n      add\n      tag_126\n      swap2\n      swap1\n      tag_29\n      jump\t// in\n    tag_126:\n      mload(0x40)\n      dup1\n      swap2\n      sub\n      swap1\n      revert\n        /* \"@openzeppelin/contracts/access/Ownable.sol\":2623:2714  if (newOwner == address(0)) {... */\n    tag_125:\n        /* \"@openzeppelin/contracts/access/Ownable.sol\":2723:2751  _transferOwnership(newOwner) */\n      tag_127\n        /* \"@openzeppelin/contracts/access/Ownable.sol\":2742:2750  newOwner */\n      dup2\n        /* \"@openzeppelin/contracts/access/Ownable.sol\":2723:2741  _transferOwnership */\n      tag_87\n        /* \"@openzeppelin/contracts/access/Ownable.sol\":2723:2751  _transferOwnership(newOwner) */\n      jump\t// in\n    tag_127:\n        /* \"@openzeppelin/contracts/access/Ownable.sol\":2543:2758  function transferOwnership(address newOwner) public virtual onlyOwner {... */\n      pop\n      jump\t// out\n        /* \"@openzeppelin/contracts/access/Ownable.sol\":1796:1958  function _checkOwner() internal view virtual {... */\n    tag_84:\n        /* \"@openzeppelin/contracts/access/Ownable.sol\":1866:1878  _msgSender() */\n      tag_129\n        /* \"@openzeppelin/contracts/access/Ownable.sol\":1866:1876  _msgSender */\n      tag_130\n        /* \"@openzeppelin/contracts/access/Ownable.sol\":1866:1878  _msgSender() */\n      jump\t// in\n    tag_129:\n        /* \"@openzeppelin/contracts/access/Ownable.sol\":1855:1878  owner() != _msgSender() */\n      0xffffffffffffffffffffffffffffffffffffffff\n      and\n        /* \"@openzeppelin/contracts/access/Ownable.sol\":1855:1862  owner() */\n      tag_131\n        /* \"@openzeppelin/contracts/access/Ownable.sol\":1855:1860  owner */\n      tag_40\n        /* \"@openzeppelin/contracts/access/Ownable.sol\":1855:1862  owner() */\n      jump\t// in\n    tag_131:\n        /* \"@openzeppelin/contracts/access/Ownable.sol\":1855:1878  owner() != _msgSender() */\n      0xffffffffffffffffffffffffffffffffffffffff\n      and\n      eq\n        /* \"@openzeppelin/contracts/access/Ownable.sol\":1851:1952  if (owner() != _msgSender()) {... */\n      tag_132\n      jumpi\n        /* \"@openzeppelin/contracts/access/Ownable.sol\":1928:1940  _msgSender() */\n      tag_133\n        /* \"@openzeppelin/contracts/access/Ownable.sol\":1928:1938  _msgSender */\n      tag_130\n        /* \"@openzeppelin/contracts/access/Ownable.sol\":1928:1940  _msgSender() */\n      jump\t// in\n    tag_133:\n        /* \"@openzeppelin/contracts/access/Ownable.sol\":1901:1941  OwnableUnauthorizedAccount(_msgSender()) */\n      mload(0x40)\n      0x118cdaa700000000000000000000000000000000000000000000000000000000\n      dup2\n      mstore\n      0x04\n      add\n      tag_134\n      swap2\n      swap1\n      tag_29\n      jump\t// in\n    tag_134:\n      mload(0x40)\n      dup1\n      swap2\n      sub\n      swap1\n      revert\n        /* \"@openzeppelin/contracts/access/Ownable.sol\":1851:1952  if (owner() != _msgSender()) {... */\n    tag_132:\n        /* \"@openzeppelin/contracts/access/Ownable.sol\":1796:1958  function _checkOwner() internal view virtual {... */\n      jump\t// out\n        /* \"@openzeppelin/contracts/access/Ownable.sol\":2912:3099  function _transferOwnership(address newOwner) internal virtual {... */\n    tag_87:\n        /* \"@openzeppelin/contracts/access/Ownable.sol\":2985:3001  address oldOwner */\n      0x00\n        /* \"@openzeppelin/contracts/access/Ownable.sol\":3004:3010  _owner */\n      dup1\n      0x00\n      swap1\n      sload\n      swap1\n      0x0100\n      exp\n      swap1\n      div\n      0xffffffffffffffffffffffffffffffffffffffff\n      and\n        /* \"@openzeppelin/contracts/access/Ownable.sol\":2985:3010  address oldOwner = _owner */\n      swap1\n      pop\n        /* \"@openzeppelin/contracts/access/Ownable.sol\":3029:3037  newOwner */\n      dup2\n        /* \"@openzeppelin/contracts/access/Ownable.sol\":3020:3026  _owner */\n      0x00\n      dup1\n        /* \"@openzeppelin/contracts/access/Ownable.sol\":3020:3037  _owner = newOwner */\n      0x0100\n      exp\n      dup2\n      sload\n      dup2\n      0xffffffffffffffffffffffffffffffffffffffff\n      mul\n      not\n      and\n      swap1\n      dup4\n      0xffffffffffffffffffffffffffffffffffffffff\n      and\n      mul\n      or\n      swap1\n      sstore\n      pop\n        /* \"@openzeppelin/contracts/access/Ownable.sol\":3083:3091  newOwner */\n      dup2\n        /* \"@openzeppelin/contracts/access/Ownable.sol\":3052:3092  OwnershipTransferred(oldOwner, newOwner) */\n      0xffffffffffffffffffffffffffffffffffffffff\n      and\n        /* \"@openzeppelin/contracts/access/Ownable.sol\":3073:3081  oldOwner */\n      dup2\n        /* \"@openzeppelin/contracts/access/Ownable.sol\":3052:3092  OwnershipTransferred(oldOwner, newOwner) */\n      0xffffffffffffffffffffffffffffffffffffffff\n      and\n      0x8be0079c531659141344cd1fd0a4f28419497f9722a3daafe3b4186f6b6457e0\n      mload(0x40)\n      mload(0x40)\n      dup1\n      swap2\n      sub\n      swap1\n      log3\n        /* \"@openzeppelin/contracts/access/Ownable.sol\":2975:3099  {... */\n      pop\n        /* \"@openzeppelin/contracts/access/Ownable.sol\":2912:3099  function _transferOwnership(address newOwner) internal virtual {... */\n      pop\n      jump\t// out\n        /* \"@openzeppelin/contracts/utils/Context.sol\":656:752  function _msgSender() internal view virtual returns (address) {... */\n    tag_130:\n        /* \"@openzeppelin/contracts/utils/Context.sol\":709:716  address */\n      0x00\n        /* \"@openzeppelin/contracts/utils/Context.sol\":735:745  msg.sender */\n      caller\n        /* \"@openzeppelin/contracts/utils/Context.sol\":728:745  return msg.sender */\n      swap1\n      pop\n        /* \"@openzeppelin/contracts/utils/Context.sol\":656:752  function _msgSender() internal view virtual returns (address) {... */\n      swap1\n      jump\t// out\n    tag_77:\n      dataSize(sub_0)\n      dup1\n      dataOffset(sub_0)\n      dup4\n      codecopy\n      add\n      swap1\n      jump\t// out\n        /* \"#utility.yul\":7:82   */\n    tag_137:\n        /* \"#utility.yul\":40:46   */\n      0x00\n        /* \"#utility.yul\":73:75   */\n      0x40\n        /* \"#utility.yul\":67:76   */\n      mload\n        /* \"#utility.yul\":57:76   */\n      swap1\n      pop\n        /* \"#utility.yul\":7:82   */\n      swap1\n      jump\t// out\n        /* \"#utility.yul\":88:205   */\n    tag_138:\n        /* \"#utility.yul\":197:198   */\n      0x00\n        /* \"#utility.yul\":194:195   */\n      dup1\n        /* \"#utility.yul\":187:199   */\n      revert\n        /* \"#utility.yul\":211:328   */\n    tag_139:\n        /* \"#utility.yul\":320:321   */\n      0x00\n        /* \"#utility.yul\":317:318   */\n      dup1\n        /* \"#utility.yul\":310:322   */\n      revert\n        /* \"#utility.yul\":334:460   */\n    tag_140:\n        /* \"#utility.yul\":371:378   */\n      0x00\n        /* \"#utility.yul\":411:453   */\n      0xffffffffffffffffffffffffffffffffffffffff\n        /* \"#utility.yul\":404:409   */\n      dup3\n        /* \"#utility.yul\":400:454   */\n      and\n        /* \"#utility.yul\":389:454   */\n      swap1\n      pop\n        /* \"#utility.yul\":334:460   */\n      swap2\n      swap1\n      pop\n      jump\t// out\n        /* \"#utility.yul\":466:562   */\n    tag_141:\n        /* \"#utility.yul\":503:510   */\n      0x00\n        /* \"#utility.yul\":532:556   */\n      tag_198\n        /* \"#utility.yul\":550:555   */\n      dup3\n        /* \"#utility.yul\":532:556   */\n      tag_140\n      jump\t// in\n    tag_198:\n        /* \"#utility.yul\":521:556   */\n      swap1\n      pop\n        /* \"#utility.yul\":466:562   */\n      swap2\n      swap1\n      pop\n      jump\t// out\n        /* \"#utility.yul\":568:690   */\n    tag_142:\n        /* \"#utility.yul\":641:665   */\n      tag_200\n        /* \"#utility.yul\":659:664   */\n      dup2\n        /* \"#utility.yul\":641:665   */\n      tag_141\n      jump\t// in\n    tag_200:\n        /* \"#utility.yul\":634:639   */\n      dup2\n        /* \"#utility.yul\":631:666   */\n      eq\n        /* \"#utility.yul\":621:684   */\n      tag_201\n      jumpi\n        /* \"#utility.yul\":680:681   */\n      0x00\n        /* \"#utility.yul\":677:678   */\n      dup1\n        /* \"#utility.yul\":670:682   */\n      revert\n        /* \"#utility.yul\":621:684   */\n    tag_201:\n        /* \"#utility.yul\":568:690   */\n      pop\n      jump\t// out\n        /* \"#utility.yul\":696:835   */\n    tag_143:\n        /* \"#utility.yul\":742:747   */\n      0x00\n        /* \"#utility.yul\":780:786   */\n      dup2\n        /* \"#utility.yul\":767:787   */\n      calldataload\n        /* \"#utility.yul\":758:787   */\n      swap1\n      pop\n        /* \"#utility.yul\":796:829   */\n      tag_203\n        /* \"#utility.yul\":823:828   */\n      dup2\n        /* \"#utility.yul\":796:829   */\n      tag_142\n      jump\t// in\n    tag_203:\n        /* \"#utility.yul\":696:835   */\n      swap3\n      swap2\n      pop\n      pop\n      jump\t// out\n        /* \"#utility.yul\":841:918   */\n    tag_144:\n        /* \"#utility.yul\":878:885   */\n      0x00\n        /* \"#utility.yul\":907:912   */\n      dup2\n        /* \"#utility.yul\":896:912   */\n      swap1\n      pop\n        /* \"#utility.yul\":841:918   */\n      swap2\n      swap1\n      pop\n      jump\t// out\n        /* \"#utility.yul\":924:1046   */\n    tag_145:\n        /* \"#utility.yul\":997:1021   */\n      tag_206\n        /* \"#utility.yul\":1015:1020   */\n      dup2\n        /* \"#utility.yul\":997:1021   */\n      tag_144\n      jump\t// in\n    tag_206:\n        /* \"#utility.yul\":990:995   */\n      dup2\n        /* \"#utility.yul\":987:1022   */\n      eq\n        /* \"#utility.yul\":977:1040   */\n      tag_207\n      jumpi\n        /* \"#utility.yul\":1036:1037   */\n      0x00\n        /* \"#utility.yul\":1033:1034   */\n      dup1\n        /* \"#utility.yul\":1026:1038   */\n      revert\n        /* \"#utility.yul\":977:1040   */\n    tag_207:\n        /* \"#utility.yul\":924:1046   */\n      pop\n      jump\t// out\n        /* \"#utility.yul\":1052:1191   */\n    tag_146:\n        /* \"#utility.yul\":1098:1103   */\n      0x00\n        /* \"#utility.yul\":1136:1142   */\n      dup2\n        /* \"#utility.yul\":1123:1143   */\n      calldataload\n        /* \"#utility.yul\":1114:1143   */\n      swap1\n      pop\n        /* \"#utility.yul\":1152:1185   */\n      tag_209\n        /* \"#utility.yul\":1179:1184   */\n      dup2\n        /* \"#utility.yul\":1152:1185   */\n      tag_145\n      jump\t// in\n    tag_209:\n        /* \"#utility.yul\":1052:1191   */\n      swap3\n      swap2\n      pop\n      pop\n      jump\t// out\n        /* \"#utility.yul\":1197:1671   */\n    tag_15:\n        /* \"#utility.yul\":1265:1271   */\n      0x00\n        /* \"#utility.yul\":1273:1279   */\n      dup1\n        /* \"#utility.yul\":1322:1324   */\n      0x40\n        /* \"#utility.yul\":1310:1319   */\n      dup4\n        /* \"#utility.yul\":1301:1308   */\n      dup6\n        /* \"#utility.yul\":1297:1320   */\n      sub\n        /* \"#utility.yul\":1293:1325   */\n      slt\n        /* \"#utility.yul\":1290:1409   */\n      iszero\n      tag_211\n      jumpi\n        /* \"#utility.yul\":1328:1407   */\n      tag_212\n      tag_138\n      jump\t// in\n    tag_212:\n        /* \"#utility.yul\":1290:1409   */\n    tag_211:\n        /* \"#utility.yul\":1448:1449   */\n      0x00\n        /* \"#utility.yul\":1473:1526   */\n      tag_213\n        /* \"#utility.yul\":1518:1525   */\n      dup6\n        /* \"#utility.yul\":1509:1515   */\n      dup3\n        /* \"#utility.yul\":1498:1507   */\n      dup7\n        /* \"#utility.yul\":1494:1516   */\n      add\n        /* \"#utility.yul\":1473:1526   */\n      tag_143\n      jump\t// in\n    tag_213:\n        /* \"#utility.yul\":1463:1526   */\n      swap3\n      pop\n        /* \"#utility.yul\":1419:1536   */\n      pop\n        /* \"#utility.yul\":1575:1577   */\n      0x20\n        /* \"#utility.yul\":1601:1654   */\n      tag_214\n        /* \"#utility.yul\":1646:1653   */\n      dup6\n        /* \"#utility.yul\":1637:1643   */\n      dup3\n        /* \"#utility.yul\":1626:1635   */\n      dup7\n        /* \"#utility.yul\":1622:1644   */\n      add\n        /* \"#utility.yul\":1601:1654   */\n      tag_146\n      jump\t// in\n    tag_214:\n        /* \"#utility.yul\":1591:1654   */\n      swap2\n      pop\n        /* \"#utility.yul\":1546:1664   */\n      pop\n        /* \"#utility.yul\":1197:1671   */\n      swap3\n      pop\n      swap3\n      swap1\n      pop\n      jump\t// out\n        /* \"#utility.yul\":1677:1776   */\n    tag_147:\n        /* \"#utility.yul\":1729:1735   */\n      0x00\n        /* \"#utility.yul\":1763:1768   */\n      dup2\n        /* \"#utility.yul\":1757:1769   */\n      mload\n        /* \"#utility.yul\":1747:1769   */\n      swap1\n      pop\n        /* \"#utility.yul\":1677:1776   */\n      swap2\n      swap1\n      pop\n      jump\t// out\n        /* \"#utility.yul\":1782:1951   */\n    tag_148:\n        /* \"#utility.yul\":1866:1877   */\n      0x00\n        /* \"#utility.yul\":1900:1906   */\n      dup3\n        /* \"#utility.yul\":1895:1898   */\n      dup3\n        /* \"#utility.yul\":1888:1907   */\n      mstore\n        /* \"#utility.yul\":1940:1944   */\n      0x20\n        /* \"#utility.yul\":1935:1938   */\n      dup3\n        /* \"#utility.yul\":1931:1945   */\n      add\n        /* \"#utility.yul\":1916:1945   */\n      swap1\n      pop\n        /* \"#utility.yul\":1782:1951   */\n      swap3\n      swap2\n      pop\n      pop\n      jump\t// out\n        /* \"#utility.yul\":1957:2096   */\n    tag_149:\n        /* \"#utility.yul\":2046:2052   */\n      dup3\n        /* \"#utility.yul\":2041:2044   */\n      dup2\n        /* \"#utility.yul\":2036:2039   */\n      dup4\n        /* \"#utility.yul\":2030:2053   */\n      mcopy\n        /* \"#utility.yul\":2087:2088   */\n      0x00\n        /* \"#utility.yul\":2078:2084   */\n      dup4\n        /* \"#utility.yul\":2073:2076   */\n      dup4\n        /* \"#utility.yul\":2069:2085   */\n      add\n        /* \"#utility.yul\":2062:2089   */\n      mstore\n        /* \"#utility.yul\":1957:2096   */\n      pop\n      pop\n      pop\n      jump\t// out\n        /* \"#utility.yul\":2102:2204   */\n    tag_150:\n        /* \"#utility.yul\":2143:2149   */\n      0x00\n        /* \"#utility.yul\":2194:2196   */\n      0x1f\n        /* \"#utility.yul\":2190:2197   */\n      not\n        /* \"#utility.yul\":2185:2187   */\n      0x1f\n        /* \"#utility.yul\":2178:2183   */\n      dup4\n        /* \"#utility.yul\":2174:2188   */\n      add\n        /* \"#utility.yul\":2170:2198   */\n      and\n        /* \"#utility.yul\":2160:2198   */\n      swap1\n      pop\n        /* \"#utility.yul\":2102:2204   */\n      swap2\n      swap1\n      pop\n      jump\t// out\n        /* \"#utility.yul\":2210:2587   */\n    tag_151:\n        /* \"#utility.yul\":2298:2301   */\n      0x00\n        /* \"#utility.yul\":2326:2365   */\n      tag_220\n        /* \"#utility.yul\":2359:2364   */\n      dup3\n        /* \"#utility.yul\":2326:2365   */\n      tag_147\n      jump\t// in\n    tag_220:\n        /* \"#utility.yul\":2381:2452   */\n      tag_221\n        /* \"#utility.yul\":2445:2451   */\n      dup2\n        /* \"#utility.yul\":2440:2443   */\n      dup6\n        /* \"#utility.yul\":2381:2452   */\n      tag_148\n      jump\t// in\n    tag_221:\n        /* \"#utility.yul\":2374:2452   */\n      swap4\n      pop\n        /* \"#utility.yul\":2461:2526   */\n      tag_222\n        /* \"#utility.yul\":2519:2525   */\n      dup2\n        /* \"#utility.yul\":2514:2517   */\n      dup6\n        /* \"#utility.yul\":2507:2511   */\n      0x20\n        /* \"#utility.yul\":2500:2505   */\n      dup7\n        /* \"#utility.yul\":2496:2512   */\n      add\n        /* \"#utility.yul\":2461:2526   */\n      tag_149\n      jump\t// in\n    tag_222:\n        /* \"#utility.yul\":2551:2580   */\n      tag_223\n        /* \"#utility.yul\":2573:2579   */\n      dup2\n        /* \"#utility.yul\":2551:2580   */\n      tag_150\n      jump\t// in\n    tag_223:\n        /* \"#utility.yul\":2546:2549   */\n      dup5\n        /* \"#utility.yul\":2542:2581   */\n      add\n        /* \"#utility.yul\":2535:2581   */\n      swap2\n      pop\n        /* \"#utility.yul\":2302:2587   */\n      pop\n        /* \"#utility.yul\":2210:2587   */\n      swap3\n      swap2\n      pop\n      pop\n      jump\t// out\n        /* \"#utility.yul\":2593:2711   */\n    tag_152:\n        /* \"#utility.yul\":2680:2704   */\n      tag_225\n        /* \"#utility.yul\":2698:2703   */\n      dup2\n        /* \"#utility.yul\":2680:2704   */\n      tag_144\n      jump\t// in\n    tag_225:\n        /* \"#utility.yul\":2675:2678   */\n      dup3\n        /* \"#utility.yul\":2668:2705   */\n      mstore\n        /* \"#utility.yul\":2593:2711   */\n      pop\n      pop\n      jump\t// out\n        /* \"#utility.yul\":2717:3361   */\n    tag_22:\n        /* \"#utility.yul\":2914:2918   */\n      0x00\n        /* \"#utility.yul\":2952:2955   */\n      0x80\n        /* \"#utility.yul\":2941:2950   */\n      dup3\n        /* \"#utility.yul\":2937:2956   */\n      add\n        /* \"#utility.yul\":2929:2956   */\n      swap1\n      pop\n        /* \"#utility.yul\":3002:3011   */\n      dup2\n        /* \"#utility.yul\":2996:3000   */\n      dup2\n        /* \"#utility.yul\":2992:3012   */\n      sub\n        /* \"#utility.yul\":2988:2989   */\n      0x00\n        /* \"#utility.yul\":2977:2986   */\n      dup4\n        /* \"#utility.yul\":2973:2990   */\n      add\n        /* \"#utility.yul\":2966:3013   */\n      mstore\n        /* \"#utility.yul\":3030:3108   */\n      tag_227\n        /* \"#utility.yul\":3103:3107   */\n      dup2\n        /* \"#utility.yul\":3094:3100   */\n      dup8\n        /* \"#utility.yul\":3030:3108   */\n      tag_151\n      jump\t// in\n    tag_227:\n        /* \"#utility.yul\":3022:3108   */\n      swap1\n      pop\n        /* \"#utility.yul\":3118:3190   */\n      tag_228\n        /* \"#utility.yul\":3186:3188   */\n      0x20\n        /* \"#utility.yul\":3175:3184   */\n      dup4\n        /* \"#utility.yul\":3171:3189   */\n      add\n        /* \"#utility.yul\":3162:3168   */\n      dup7\n        /* \"#utility.yul\":3118:3190   */\n      tag_152\n      jump\t// in\n    tag_228:\n        /* \"#utility.yul\":3200:3272   */\n      tag_229\n        /* \"#utility.yul\":3268:3270   */\n      0x40\n        /* \"#utility.yul\":3257:3266   */\n      dup4\n        /* \"#utility.yul\":3253:3271   */\n      add\n        /* \"#utility.yul\":3244:3250   */\n      dup6\n        /* \"#utility.yul\":3200:3272   */\n      tag_152\n      jump\t// in\n    tag_229:\n        /* \"#utility.yul\":3282:3354   */\n      tag_230\n        /* \"#utility.yul\":3350:3352   */\n      0x60\n        /* \"#utility.yul\":3339:3348   */\n      dup4\n        /* \"#utility.yul\":3335:3353   */\n      add\n        /* \"#utility.yul\":3326:3332   */\n      dup5\n        /* \"#utility.yul\":3282:3354   */\n      tag_152\n      jump\t// in\n    tag_230:\n        /* \"#utility.yul\":2717:3361   */\n      swap6\n      swap5\n      pop\n      pop\n      pop\n      pop\n      pop\n      jump\t// out\n        /* \"#utility.yul\":3367:3696   */\n    tag_26:\n        /* \"#utility.yul\":3426:3432   */\n      0x00\n        /* \"#utility.yul\":3475:3477   */\n      0x20\n        /* \"#utility.yul\":3463:3472   */\n      dup3\n        /* \"#utility.yul\":3454:3461   */\n      dup5\n        /* \"#utility.yul\":3450:3473   */\n      sub\n        /* \"#utility.yul\":3446:3478   */\n      slt\n        /* \"#utility.yul\":3443:3562   */\n      iszero\n      tag_232\n      jumpi\n        /* \"#utility.yul\":3481:3560   */\n      tag_233\n      tag_138\n      jump\t// in\n    tag_233:\n        /* \"#utility.yul\":3443:3562   */\n    tag_232:\n        /* \"#utility.yul\":3601:3602   */\n      0x00\n        /* \"#utility.yul\":3626:3679   */\n      tag_234\n        /* \"#utility.yul\":3671:3678   */\n      dup5\n        /* \"#utility.yul\":3662:3668   */\n      dup3\n        /* \"#utility.yul\":3651:3660   */\n      dup6\n        /* \"#utility.yul\":3647:3669   */\n      add\n        /* \"#utility.yul\":3626:3679   */\n      tag_143\n      jump\t// in\n    tag_234:\n        /* \"#utility.yul\":3616:3679   */\n      swap2\n      pop\n        /* \"#utility.yul\":3572:3689   */\n      pop\n        /* \"#utility.yul\":3367:3696   */\n      swap3\n      swap2\n      pop\n      pop\n      jump\t// out\n        /* \"#utility.yul\":3702:3820   */\n    tag_153:\n        /* \"#utility.yul\":3789:3813   */\n      tag_236\n        /* \"#utility.yul\":3807:3812   */\n      dup2\n        /* \"#utility.yul\":3789:3813   */\n      tag_141\n      jump\t// in\n    tag_236:\n        /* \"#utility.yul\":3784:3787   */\n      dup3\n        /* \"#utility.yul\":3777:3814   */\n      mstore\n        /* \"#utility.yul\":3702:3820   */\n      pop\n      pop\n      jump\t// out\n        /* \"#utility.yul\":3826:4048   */\n    tag_29:\n        /* \"#utility.yul\":3919:3923   */\n      0x00\n        /* \"#utility.yul\":3957:3959   */\n      0x20\n        /* \"#utility.yul\":3946:3955   */\n      dup3\n        /* \"#utility.yul\":3942:3960   */\n      add\n        /* \"#utility.yul\":3934:3960   */\n      swap1\n      pop\n        /* \"#utility.yul\":3970:4041   */\n      tag_238\n        /* \"#utility.yul\":4038:4039   */\n      0x00\n        /* \"#utility.yul\":4027:4036   */\n      dup4\n        /* \"#utility.yul\":4023:4040   */\n      add\n        /* \"#utility.yul\":4014:4020   */\n      dup5\n        /* \"#utility.yul\":3970:4041   */\n      tag_153\n      jump\t// in\n    tag_238:\n        /* \"#utility.yul\":3826:4048   */\n      swap3\n      swap2\n      pop\n      pop\n      jump\t// out\n        /* \"#utility.yul\":4054:4171   */\n    tag_154:\n        /* \"#utility.yul\":4163:4164   */\n      0x00\n        /* \"#utility.yul\":4160:4161   */\n      dup1\n        /* \"#utility.yul\":4153:4165   */\n      revert\n        /* \"#utility.yul\":4177:4294   */\n    tag_155:\n        /* \"#utility.yul\":4286:4287   */\n      0x00\n        /* \"#utility.yul\":4283:4284   */\n      dup1\n        /* \"#utility.yul\":4276:4288   */\n      revert\n        /* \"#utility.yul\":4300:4480   */\n    tag_156:\n        /* \"#utility.yul\":4348:4425   */\n      0x4e487b7100000000000000000000000000000000000000000000000000000000\n        /* \"#utility.yul\":4345:4346   */\n      0x00\n        /* \"#utility.yul\":4338:4426   */\n      mstore\n        /* \"#utility.yul\":4445:4449   */\n      0x41\n        /* \"#utility.yul\":4442:4443   */\n      0x04\n        /* \"#utility.yul\":4435:4450   */\n      mstore\n        /* \"#utility.yul\":4469:4473   */\n      0x24\n        /* \"#utility.yul\":4466:4467   */\n      0x00\n        /* \"#utility.yul\":4459:4474   */\n      revert\n        /* \"#utility.yul\":4486:4767   */\n    tag_157:\n        /* \"#utility.yul\":4569:4596   */\n      tag_243\n        /* \"#utility.yul\":4591:4595   */\n      dup3\n        /* \"#utility.yul\":4569:4596   */\n      tag_150\n      jump\t// in\n    tag_243:\n        /* \"#utility.yul\":4561:4567   */\n      dup2\n        /* \"#utility.yul\":4557:4597   */\n      add\n        /* \"#utility.yul\":4699:4705   */\n      dup2\n        /* \"#utility.yul\":4687:4697   */\n      dup2\n        /* \"#utility.yul\":4684:4706   */\n      lt\n        /* \"#utility.yul\":4663:4681   */\n      0xffffffffffffffff\n        /* \"#utility.yul\":4651:4661   */\n      dup3\n        /* \"#utility.yul\":4648:4682   */\n      gt\n        /* \"#utility.yul\":4645:4707   */\n      or\n        /* \"#utility.yul\":4642:4730   */\n      iszero\n      tag_244\n      jumpi\n        /* \"#utility.yul\":4710:4728   */\n      tag_245\n      tag_156\n      jump\t// in\n    tag_245:\n        /* \"#utility.yul\":4642:4730   */\n    tag_244:\n        /* \"#utility.yul\":4750:4760   */\n      dup1\n        /* \"#utility.yul\":4746:4748   */\n      0x40\n        /* \"#utility.yul\":4739:4761   */\n      mstore\n        /* \"#utility.yul\":4529:4767   */\n      pop\n        /* \"#utility.yul\":4486:4767   */\n      pop\n      pop\n      jump\t// out\n        /* \"#utility.yul\":4773:4902   */\n    tag_158:\n        /* \"#utility.yul\":4807:4813   */\n      0x00\n        /* \"#utility.yul\":4834:4854   */\n      tag_247\n      tag_137\n      jump\t// in\n    tag_247:\n        /* \"#utility.yul\":4824:4854   */\n      swap1\n      pop\n        /* \"#utility.yul\":4863:4896   */\n      tag_248\n        /* \"#utility.yul\":4891:4895   */\n      dup3\n        /* \"#utility.yul\":4883:4889   */\n      dup3\n        /* \"#utility.yul\":4863:4896   */\n      tag_157\n      jump\t// in\n    tag_248:\n        /* \"#utility.yul\":4773:4902   */\n      swap2\n      swap1\n      pop\n      jump\t// out\n        /* \"#utility.yul\":4908:5216   */\n    tag_159:\n        /* \"#utility.yul\":4970:4974   */\n      0x00\n        /* \"#utility.yul\":5060:5078   */\n      0xffffffffffffffff\n        /* \"#utility.yul\":5052:5058   */\n      dup3\n        /* \"#utility.yul\":5049:5079   */\n      gt\n        /* \"#utility.yul\":5046:5102   */\n      iszero\n      tag_250\n      jumpi\n        /* \"#utility.yul\":5082:5100   */\n      tag_251\n      tag_156\n      jump\t// in\n    tag_251:\n        /* \"#utility.yul\":5046:5102   */\n    tag_250:\n        /* \"#utility.yul\":5120:5149   */\n      tag_252\n        /* \"#utility.yul\":5142:5148   */\n      dup3\n        /* \"#utility.yul\":5120:5149   */\n      tag_150\n      jump\t// in\n    tag_252:\n        /* \"#utility.yul\":5112:5149   */\n      swap1\n      pop\n        /* \"#utility.yul\":5204:5208   */\n      0x20\n        /* \"#utility.yul\":5198:5202   */\n      dup2\n        /* \"#utility.yul\":5194:5209   */\n      add\n        /* \"#utility.yul\":5186:5209   */\n      swap1\n      pop\n        /* \"#utility.yul\":4908:5216   */\n      swap2\n      swap1\n      pop\n      jump\t// out\n        /* \"#utility.yul\":5222:5370   */\n    tag_160:\n        /* \"#utility.yul\":5320:5326   */\n      dup3\n        /* \"#utility.yul\":5315:5318   */\n      dup2\n        /* \"#utility.yul\":5310:5313   */\n      dup4\n        /* \"#utility.yul\":5297:5327   */\n      calldatacopy\n        /* \"#utility.yul\":5361:5362   */\n      0x00\n        /* \"#utility.yul\":5352:5358   */\n      dup4\n        /* \"#utility.yul\":5347:5350   */\n      dup4\n        /* \"#utility.yul\":5343:5359   */\n      add\n        /* \"#utility.yul\":5336:5363   */\n      mstore\n        /* \"#utility.yul\":5222:5370   */\n      pop\n      pop\n      pop\n      jump\t// out\n        /* \"#utility.yul\":5376:5801   */\n    tag_161:\n        /* \"#utility.yul\":5454:5459   */\n      0x00\n        /* \"#utility.yul\":5479:5545   */\n      tag_255\n        /* \"#utility.yul\":5495:5544   */\n      tag_256\n        /* \"#utility.yul\":5537:5543   */\n      dup5\n        /* \"#utility.yul\":5495:5544   */\n      tag_159\n      jump\t// in\n    tag_256:\n        /* \"#utility.yul\":5479:5545   */\n      tag_158\n      jump\t// in\n    tag_255:\n        /* \"#utility.yul\":5470:5545   */\n      swap1\n      pop\n        /* \"#utility.yul\":5568:5574   */\n      dup3\n        /* \"#utility.yul\":5561:5566   */\n      dup2\n        /* \"#utility.yul\":5554:5575   */\n      mstore\n        /* \"#utility.yul\":5606:5610   */\n      0x20\n        /* \"#utility.yul\":5599:5604   */\n      dup2\n        /* \"#utility.yul\":5595:5611   */\n      add\n        /* \"#utility.yul\":5644:5647   */\n      dup5\n        /* \"#utility.yul\":5635:5641   */\n      dup5\n        /* \"#utility.yul\":5630:5633   */\n      dup5\n        /* \"#utility.yul\":5626:5642   */\n      add\n        /* \"#utility.yul\":5623:5648   */\n      gt\n        /* \"#utility.yul\":5620:5732   */\n      iszero\n      tag_257\n      jumpi\n        /* \"#utility.yul\":5651:5730   */\n      tag_258\n      tag_155\n      jump\t// in\n    tag_258:\n        /* \"#utility.yul\":5620:5732   */\n    tag_257:\n        /* \"#utility.yul\":5741:5795   */\n      tag_259\n        /* \"#utility.yul\":5788:5794   */\n      dup5\n        /* \"#utility.yul\":5783:5786   */\n      dup3\n        /* \"#utility.yul\":5778:5781   */\n      dup6\n        /* \"#utility.yul\":5741:5795   */\n      tag_160\n      jump\t// in\n    tag_259:\n        /* \"#utility.yul\":5460:5801   */\n      pop\n        /* \"#utility.yul\":5376:5801   */\n      swap4\n      swap3\n      pop\n      pop\n      pop\n      jump\t// out\n        /* \"#utility.yul\":5821:6161   */\n    tag_162:\n        /* \"#utility.yul\":5877:5882   */\n      0x00\n        /* \"#utility.yul\":5926:5929   */\n      dup3\n        /* \"#utility.yul\":5919:5923   */\n      0x1f\n        /* \"#utility.yul\":5911:5917   */\n      dup4\n        /* \"#utility.yul\":5907:5924   */\n      add\n        /* \"#utility.yul\":5903:5930   */\n      slt\n        /* \"#utility.yul\":5893:6015   */\n      tag_261\n      jumpi\n        /* \"#utility.yul\":5934:6013   */\n      tag_262\n      tag_154\n      jump\t// in\n    tag_262:\n        /* \"#utility.yul\":5893:6015   */\n    tag_261:\n        /* \"#utility.yul\":6051:6057   */\n      dup2\n        /* \"#utility.yul\":6038:6058   */\n      calldataload\n        /* \"#utility.yul\":6076:6155   */\n      tag_263\n        /* \"#utility.yul\":6151:6154   */\n      dup5\n        /* \"#utility.yul\":6143:6149   */\n      dup3\n        /* \"#utility.yul\":6136:6140   */\n      0x20\n        /* \"#utility.yul\":6128:6134   */\n      dup7\n        /* \"#utility.yul\":6124:6141   */\n      add\n        /* \"#utility.yul\":6076:6155   */\n      tag_161\n      jump\t// in\n    tag_263:\n        /* \"#utility.yul\":6067:6155   */\n      swap2\n      pop\n        /* \"#utility.yul\":5883:6161   */\n      pop\n        /* \"#utility.yul\":5821:6161   */\n      swap3\n      swap2\n      pop\n      pop\n      jump\t// out\n        /* \"#utility.yul\":6167:7001   */\n    tag_33:\n        /* \"#utility.yul\":6255:6261   */\n      0x00\n        /* \"#utility.yul\":6263:6269   */\n      dup1\n        /* \"#utility.yul\":6312:6314   */\n      0x40\n        /* \"#utility.yul\":6300:6309   */\n      dup4\n        /* \"#utility.yul\":6291:6298   */\n      dup6\n        /* \"#utility.yul\":6287:6310   */\n      sub\n        /* \"#utility.yul\":6283:6315   */\n      slt\n        /* \"#utility.yul\":6280:6399   */\n      iszero\n      tag_265\n      jumpi\n        /* \"#utility.yul\":6318:6397   */\n      tag_266\n      tag_138\n      jump\t// in\n    tag_266:\n        /* \"#utility.yul\":6280:6399   */\n    tag_265:\n        /* \"#utility.yul\":6466:6467   */\n      0x00\n        /* \"#utility.yul\":6455:6464   */\n      dup4\n        /* \"#utility.yul\":6451:6468   */\n      add\n        /* \"#utility.yul\":6438:6469   */\n      calldataload\n        /* \"#utility.yul\":6496:6514   */\n      0xffffffffffffffff\n        /* \"#utility.yul\":6488:6494   */\n      dup2\n        /* \"#utility.yul\":6485:6515   */\n      gt\n        /* \"#utility.yul\":6482:6599   */\n      iszero\n      tag_267\n      jumpi\n        /* \"#utility.yul\":6518:6597   */\n      tag_268\n      tag_139\n      jump\t// in\n    tag_268:\n        /* \"#utility.yul\":6482:6599   */\n    tag_267:\n        /* \"#utility.yul\":6623:6686   */\n      tag_269\n        /* \"#utility.yul\":6678:6685   */\n      dup6\n        /* \"#utility.yul\":6669:6675   */\n      dup3\n        /* \"#utility.yul\":6658:6667   */\n      dup7\n        /* \"#utility.yul\":6654:6676   */\n      add\n        /* \"#utility.yul\":6623:6686   */\n      tag_162\n      jump\t// in\n    tag_269:\n        /* \"#utility.yul\":6613:6686   */\n      swap3\n      pop\n        /* \"#utility.yul\":6409:6696   */\n      pop\n        /* \"#utility.yul\":6763:6765   */\n      0x20\n        /* \"#utility.yul\":6752:6761   */\n      dup4\n        /* \"#utility.yul\":6748:6766   */\n      add\n        /* \"#utility.yul\":6735:6767   */\n      calldataload\n        /* \"#utility.yul\":6794:6812   */\n      0xffffffffffffffff\n        /* \"#utility.yul\":6786:6792   */\n      dup2\n        /* \"#utility.yul\":6783:6813   */\n      gt\n        /* \"#utility.yul\":6780:6897   */\n      iszero\n      tag_270\n      jumpi\n        /* \"#utility.yul\":6816:6895   */\n      tag_271\n      tag_139\n      jump\t// in\n    tag_271:\n        /* \"#utility.yul\":6780:6897   */\n    tag_270:\n        /* \"#utility.yul\":6921:6984   */\n      tag_272\n        /* \"#utility.yul\":6976:6983   */\n      dup6\n        /* \"#utility.yul\":6967:6973   */\n      dup3\n        /* \"#utility.yul\":6956:6965   */\n      dup7\n        /* \"#utility.yul\":6952:6974   */\n      add\n        /* \"#utility.yul\":6921:6984   */\n      tag_162\n      jump\t// in\n    tag_272:\n        /* \"#utility.yul\":6911:6984   */\n      swap2\n      pop\n        /* \"#utility.yul\":6706:6994   */\n      pop\n        /* \"#utility.yul\":6167:7001   */\n      swap3\n      pop\n      swap3\n      swap1\n      pop\n      jump\t// out\n        /* \"#utility.yul\":7007:7772   */\n    tag_44:\n        /* \"#utility.yul\":7093:7099   */\n      0x00\n        /* \"#utility.yul\":7101:7107   */\n      dup1\n        /* \"#utility.yul\":7109:7115   */\n      0x00\n        /* \"#utility.yul\":7117:7123   */\n      dup1\n        /* \"#utility.yul\":7166:7169   */\n      0x80\n        /* \"#utility.yul\":7154:7163   */\n      dup6\n        /* \"#utility.yul\":7145:7152   */\n      dup8\n        /* \"#utility.yul\":7141:7164   */\n      sub\n        /* \"#utility.yul\":7137:7170   */\n      slt\n        /* \"#utility.yul\":7134:7254   */\n      iszero\n      tag_274\n      jumpi\n        /* \"#utility.yul\":7173:7252   */\n      tag_275\n      tag_138\n      jump\t// in\n    tag_275:\n        /* \"#utility.yul\":7134:7254   */\n    tag_274:\n        /* \"#utility.yul\":7293:7294   */\n      0x00\n        /* \"#utility.yul\":7318:7371   */\n      tag_276\n        /* \"#utility.yul\":7363:7370   */\n      dup8\n        /* \"#utility.yul\":7354:7360   */\n      dup3\n        /* \"#utility.yul\":7343:7352   */\n      dup9\n        /* \"#utility.yul\":7339:7361   */\n      add\n        /* \"#utility.yul\":7318:7371   */\n      tag_143\n      jump\t// in\n    tag_276:\n        /* \"#utility.yul\":7308:7371   */\n      swap5\n      pop\n        /* \"#utility.yul\":7264:7381   */\n      pop\n        /* \"#utility.yul\":7420:7422   */\n      0x20\n        /* \"#utility.yul\":7446:7499   */\n      tag_277\n        /* \"#utility.yul\":7491:7498   */\n      dup8\n        /* \"#utility.yul\":7482:7488   */\n      dup3\n        /* \"#utility.yul\":7471:7480   */\n      dup9\n        /* \"#utility.yul\":7467:7489   */\n      add\n        /* \"#utility.yul\":7446:7499   */\n      tag_146\n      jump\t// in\n    tag_277:\n        /* \"#utility.yul\":7436:7499   */\n      swap4\n      pop\n        /* \"#utility.yul\":7391:7509   */\n      pop\n        /* \"#utility.yul\":7548:7550   */\n      0x40\n        /* \"#utility.yul\":7574:7627   */\n      tag_278\n        /* \"#utility.yul\":7619:7626   */\n      dup8\n        /* \"#utility.yul\":7610:7616   */\n      dup3\n        /* \"#utility.yul\":7599:7608   */\n      dup9\n        /* \"#utility.yul\":7595:7617   */\n      add\n        /* \"#utility.yul\":7574:7627   */\n      tag_146\n      jump\t// in\n    tag_278:\n        /* \"#utility.yul\":7564:7627   */\n      swap3\n      pop\n        /* \"#utility.yul\":7519:7637   */\n      pop\n        /* \"#utility.yul\":7676:7678   */\n      0x60\n        /* \"#utility.yul\":7702:7755   */\n      tag_279\n        /* \"#utility.yul\":7747:7754   */\n      dup8\n        /* \"#utility.yul\":7738:7744   */\n      dup3\n        /* \"#utility.yul\":7727:7736   */\n      dup9\n        /* \"#utility.yul\":7723:7745   */\n      add\n        /* \"#utility.yul\":7702:7755   */\n      tag_143\n      jump\t// in\n    tag_279:\n        /* \"#utility.yul\":7692:7755   */\n      swap2\n      pop\n        /* \"#utility.yul\":7647:7765   */\n      pop\n        /* \"#utility.yul\":7007:7772   */\n      swap3\n      swap6\n      swap2\n      swap5\n      pop\n      swap3\n      pop\n      jump\t// out\n        /* \"#utility.yul\":7778:8869   */\n    tag_49:\n        /* \"#utility.yul\":7883:7889   */\n      0x00\n        /* \"#utility.yul\":7891:7897   */\n      dup1\n        /* \"#utility.yul\":7899:7905   */\n      0x00\n        /* \"#utility.yul\":7907:7913   */\n      dup1\n        /* \"#utility.yul\":7915:7921   */\n      0x00\n        /* \"#utility.yul\":7964:7967   */\n      0xa0\n        /* \"#utility.yul\":7952:7961   */\n      dup7\n        /* \"#utility.yul\":7943:7950   */\n      dup9\n        /* \"#utility.yul\":7939:7962   */\n      sub\n        /* \"#utility.yul\":7935:7968   */\n      slt\n        /* \"#utility.yul\":7932:8052   */\n      iszero\n      tag_281\n      jumpi\n        /* \"#utility.yul\":7971:8050   */\n      tag_282\n      tag_138\n      jump\t// in\n    tag_282:\n        /* \"#utility.yul\":7932:8052   */\n    tag_281:\n        /* \"#utility.yul\":8091:8092   */\n      0x00\n        /* \"#utility.yul\":8116:8169   */\n      tag_283\n        /* \"#utility.yul\":8161:8168   */\n      dup9\n        /* \"#utility.yul\":8152:8158   */\n      dup3\n        /* \"#utility.yul\":8141:8150   */\n      dup10\n        /* \"#utility.yul\":8137:8159   */\n      add\n        /* \"#utility.yul\":8116:8169   */\n      tag_143\n      jump\t// in\n    tag_283:\n        /* \"#utility.yul\":8106:8169   */\n      swap6\n      pop\n        /* \"#utility.yul\":8062:8179   */\n      pop\n        /* \"#utility.yul\":8218:8220   */\n      0x20\n        /* \"#utility.yul\":8244:8297   */\n      tag_284\n        /* \"#utility.yul\":8289:8296   */\n      dup9\n        /* \"#utility.yul\":8280:8286   */\n      dup3\n        /* \"#utility.yul\":8269:8278   */\n      dup10\n        /* \"#utility.yul\":8265:8287   */\n      add\n        /* \"#utility.yul\":8244:8297   */\n      tag_146\n      jump\t// in\n    tag_284:\n        /* \"#utility.yul\":8234:8297   */\n      swap5\n      pop\n        /* \"#utility.yul\":8189:8307   */\n      pop\n        /* \"#utility.yul\":8374:8376   */\n      0x40\n        /* \"#utility.yul\":8363:8372   */\n      dup7\n        /* \"#utility.yul\":8359:8377   */\n      add\n        /* \"#utility.yul\":8346:8378   */\n      calldataload\n        /* \"#utility.yul\":8405:8423   */\n      0xffffffffffffffff\n        /* \"#utility.yul\":8397:8403   */\n      dup2\n        /* \"#utility.yul\":8394:8424   */\n      gt\n        /* \"#utility.yul\":8391:8508   */\n      iszero\n      tag_285\n      jumpi\n        /* \"#utility.yul\":8427:8506   */\n      tag_286\n      tag_139\n      jump\t// in\n    tag_286:\n        /* \"#utility.yul\":8391:8508   */\n    tag_285:\n        /* \"#utility.yul\":8532:8595   */\n      tag_287\n        /* \"#utility.yul\":8587:8594   */\n      dup9\n        /* \"#utility.yul\":8578:8584   */\n      dup3\n        /* \"#utility.yul\":8567:8576   */\n      dup10\n        /* \"#utility.yul\":8563:8585   */\n      add\n        /* \"#utility.yul\":8532:8595   */\n      tag_162\n      jump\t// in\n    tag_287:\n        /* \"#utility.yul\":8522:8595   */\n      swap4\n      pop\n        /* \"#utility.yul\":8317:8605   */\n      pop\n        /* \"#utility.yul\":8644:8646   */\n      0x60\n        /* \"#utility.yul\":8670:8723   */\n      tag_288\n        /* \"#utility.yul\":8715:8722   */\n      dup9\n        /* \"#utility.yul\":8706:8712   */\n      dup3\n        /* \"#utility.yul\":8695:8704   */\n      dup10\n        /* \"#utility.yul\":8691:8713   */\n      add\n        /* \"#utility.yul\":8670:8723   */\n      tag_146\n      jump\t// in\n    tag_288:\n        /* \"#utility.yul\":8660:8723   */\n      swap3\n      pop\n        /* \"#utility.yul\":8615:8733   */\n      pop\n        /* \"#utility.yul\":8772:8775   */\n      0x80\n        /* \"#utility.yul\":8799:8852   */\n      tag_289\n        /* \"#utility.yul\":8844:8851   */\n      dup9\n        /* \"#utility.yul\":8835:8841   */\n      dup3\n        /* \"#utility.yul\":8824:8833   */\n      dup10\n        /* \"#utility.yul\":8820:8842   */\n      add\n        /* \"#utility.yul\":8799:8852   */\n      tag_146\n      jump\t// in\n    tag_289:\n        /* \"#utility.yul\":8789:8852   */\n      swap2\n      pop\n        /* \"#utility.yul\":8743:8862   */\n      pop\n        /* \"#utility.yul\":7778:8869   */\n      swap3\n      swap6\n      pop\n      swap3\n      swap6\n      swap1\n      swap4\n      pop\n      jump\t// out\n        /* \"#utility.yul\":8875:9039   */\n    tag_163:\n        /* \"#utility.yul\":9015:9031   */\n      0x4e6f7420796f757220746f6b656e000000000000000000000000000000000000\n        /* \"#utility.yul\":9011:9012   */\n      0x00\n        /* \"#utility.yul\":9003:9009   */\n      dup3\n        /* \"#utility.yul\":8999:9013   */\n      add\n        /* \"#utility.yul\":8992:9032   */\n      mstore\n        /* \"#utility.yul\":8875:9039   */\n      pop\n      jump\t// out\n        /* \"#utility.yul\":9045:9411   */\n    tag_164:\n        /* \"#utility.yul\":9187:9190   */\n      0x00\n        /* \"#utility.yul\":9208:9275   */\n      tag_292\n        /* \"#utility.yul\":9272:9274   */\n      0x0e\n        /* \"#utility.yul\":9267:9270   */\n      dup4\n        /* \"#utility.yul\":9208:9275   */\n      tag_148\n      jump\t// in\n    tag_292:\n        /* \"#utility.yul\":9201:9275   */\n      swap2\n      pop\n        /* \"#utility.yul\":9284:9377   */\n      tag_293\n        /* \"#utility.yul\":9373:9376   */\n      dup3\n        /* \"#utility.yul\":9284:9377   */\n      tag_163\n      jump\t// in\n    tag_293:\n        /* \"#utility.yul\":9402:9404   */\n      0x20\n        /* \"#utility.yul\":9397:9400   */\n      dup3\n        /* \"#utility.yul\":9393:9405   */\n      add\n        /* \"#utility.yul\":9386:9405   */\n      swap1\n      pop\n        /* \"#utility.yul\":9045:9411   */\n      swap2\n      swap1\n      pop\n      jump\t// out\n        /* \"#utility.yul\":9417:9836   */\n    tag_58:\n        /* \"#utility.yul\":9583:9587   */\n      0x00\n        /* \"#utility.yul\":9621:9623   */\n      0x20\n        /* \"#utility.yul\":9610:9619   */\n      dup3\n        /* \"#utility.yul\":9606:9624   */\n      add\n        /* \"#utility.yul\":9598:9624   */\n      swap1\n      pop\n        /* \"#utility.yul\":9670:9679   */\n      dup2\n        /* \"#utility.yul\":9664:9668   */\n      dup2\n        /* \"#utility.yul\":9660:9680   */\n      sub\n        /* \"#utility.yul\":9656:9657   */\n      0x00\n        /* \"#utility.yul\":9645:9654   */\n      dup4\n        /* \"#utility.yul\":9641:9658   */\n      add\n        /* \"#utility.yul\":9634:9681   */\n      mstore\n        /* \"#utility.yul\":9698:9829   */\n      tag_295\n        /* \"#utility.yul\":9824:9828   */\n      dup2\n        /* \"#utility.yul\":9698:9829   */\n      tag_164\n      jump\t// in\n    tag_295:\n        /* \"#utility.yul\":9690:9829   */\n      swap1\n      pop\n        /* \"#utility.yul\":9417:9836   */\n      swap2\n      swap1\n      pop\n      jump\t// out\n        /* \"#utility.yul\":9842:10174   */\n    tag_60:\n        /* \"#utility.yul\":9963:9967   */\n      0x00\n        /* \"#utility.yul\":10001:10003   */\n      0x40\n        /* \"#utility.yul\":9990:9999   */\n      dup3\n        /* \"#utility.yul\":9986:10004   */\n      add\n        /* \"#utility.yul\":9978:10004   */\n      swap1\n      pop\n        /* \"#utility.yul\":10014:10085   */\n      tag_297\n        /* \"#utility.yul\":10082:10083   */\n      0x00\n        /* \"#utility.yul\":10071:10080   */\n      dup4\n        /* \"#utility.yul\":10067:10084   */\n      add\n        /* \"#utility.yul\":10058:10064   */\n      dup6\n        /* \"#utility.yul\":10014:10085   */\n      tag_153\n      jump\t// in\n    tag_297:\n        /* \"#utility.yul\":10095:10167   */\n      tag_298\n        /* \"#utility.yul\":10163:10165   */\n      0x20\n        /* \"#utility.yul\":10152:10161   */\n      dup4\n        /* \"#utility.yul\":10148:10166   */\n      add\n        /* \"#utility.yul\":10139:10145   */\n      dup5\n        /* \"#utility.yul\":10095:10167   */\n      tag_152\n      jump\t// in\n    tag_298:\n        /* \"#utility.yul\":9842:10174   */\n      swap4\n      swap3\n      pop\n      pop\n      pop\n      jump\t// out\n        /* \"#utility.yul\":10180:10402   */\n    tag_65:\n        /* \"#utility.yul\":10273:10277   */\n      0x00\n        /* \"#utility.yul\":10311:10313   */\n      0x20\n        /* \"#utility.yul\":10300:10309   */\n      dup3\n        /* \"#utility.yul\":10296:10314   */\n      add\n        /* \"#utility.yul\":10288:10314   */\n      swap1\n      pop\n        /* \"#utility.yul\":10324:10395   */\n      tag_300\n        /* \"#utility.yul\":10392:10393   */\n      0x00\n        /* \"#utility.yul\":10381:10390   */\n      dup4\n        /* \"#utility.yul\":10377:10394   */\n      add\n        /* \"#utility.yul\":10368:10374   */\n      dup5\n        /* \"#utility.yul\":10324:10395   */\n      tag_152\n      jump\t// in\n    tag_300:\n        /* \"#utility.yul\":10180:10402   */\n      swap3\n      swap2\n      pop\n      pop\n      jump\t// out\n        /* \"#utility.yul\":10408:10588   */\n    tag_165:\n        /* \"#utility.yul\":10456:10533   */\n      0x4e487b7100000000000000000000000000000000000000000000000000000000\n        /* \"#utility.yul\":10453:10454   */\n      0x00\n        /* \"#utility.yul\":10446:10534   */\n      mstore\n        /* \"#utility.yul\":10553:10557   */\n      0x22\n        /* \"#utility.yul\":10550:10551   */\n      0x04\n        /* \"#utility.yul\":10543:10558   */\n      mstore\n        /* \"#utility.yul\":10577:10581   */\n      0x24\n        /* \"#utility.yul\":10574:10575   */\n      0x00\n        /* \"#utility.yul\":10567:10582   */\n      revert\n        /* \"#utility.yul\":10594:10914   */\n    tag_67:\n        /* \"#utility.yul\":10638:10644   */\n      0x00\n        /* \"#utility.yul\":10675:10676   */\n      0x02\n        /* \"#utility.yul\":10669:10673   */\n      dup3\n        /* \"#utility.yul\":10665:10677   */\n      div\n        /* \"#utility.yul\":10655:10677   */\n      swap1\n      pop\n        /* \"#utility.yul\":10722:10723   */\n      0x01\n        /* \"#utility.yul\":10716:10720   */\n      dup3\n        /* \"#utility.yul\":10712:10724   */\n      and\n        /* \"#utility.yul\":10743:10761   */\n      dup1\n        /* \"#utility.yul\":10733:10814   */\n      tag_303\n      jumpi\n        /* \"#utility.yul\":10799:10803   */\n      0x7f\n        /* \"#utility.yul\":10791:10797   */\n      dup3\n        /* \"#utility.yul\":10787:10804   */\n      and\n        /* \"#utility.yul\":10777:10804   */\n      swap2\n      pop\n        /* \"#utility.yul\":10733:10814   */\n    tag_303:\n        /* \"#utility.yul\":10861:10863   */\n      0x20\n        /* \"#utility.yul\":10853:10859   */\n      dup3\n        /* \"#utility.yul\":10850:10864   */\n      lt\n        /* \"#utility.yul\":10830:10848   */\n      dup2\n        /* \"#utility.yul\":10827:10865   */\n      sub\n        /* \"#utility.yul\":10824:10908   */\n      tag_304\n      jumpi\n        /* \"#utility.yul\":10880:10898   */\n      tag_305\n      tag_165\n      jump\t// in\n    tag_305:\n        /* \"#utility.yul\":10824:10908   */\n    tag_304:\n        /* \"#utility.yul\":10645:10914   */\n      pop\n        /* \"#utility.yul\":10594:10914   */\n      swap2\n      swap1\n      pop\n      jump\t// out\n        /* \"#utility.yul\":10920:11091   */\n    tag_166:\n        /* \"#utility.yul\":11060:11083   */\n      0x546f6b656e20616c726561647920637265617465640000000000000000000000\n        /* \"#utility.yul\":11056:11057   */\n      0x00\n        /* \"#utility.yul\":11048:11054   */\n      dup3\n        /* \"#utility.yul\":11044:11058   */\n      add\n        /* \"#utility.yul\":11037:11084   */\n      mstore\n        /* \"#utility.yul\":10920:11091   */\n      pop\n      jump\t// out\n        /* \"#utility.yul\":11097:11463   */\n    tag_167:\n        /* \"#utility.yul\":11239:11242   */\n      0x00\n        /* \"#utility.yul\":11260:11327   */\n      tag_308\n        /* \"#utility.yul\":11324:11326   */\n      0x15\n        /* \"#utility.yul\":11319:11322   */\n      dup4\n        /* \"#utility.yul\":11260:11327   */\n      tag_148\n      jump\t// in\n    tag_308:\n        /* \"#utility.yul\":11253:11327   */\n      swap2\n      pop\n        /* \"#utility.yul\":11336:11429   */\n      tag_309\n        /* \"#utility.yul\":11425:11428   */\n      dup3\n        /* \"#utility.yul\":11336:11429   */\n      tag_166\n      jump\t// in\n    tag_309:\n        /* \"#utility.yul\":11454:11456   */\n      0x20\n        /* \"#utility.yul\":11449:11452   */\n      dup3\n        /* \"#utility.yul\":11445:11457   */\n      add\n        /* \"#utility.yul\":11438:11457   */\n      swap1\n      pop\n        /* \"#utility.yul\":11097:11463   */\n      swap2\n      swap1\n      pop\n      jump\t// out\n        /* \"#utility.yul\":11469:11888   */\n    tag_75:\n        /* \"#utility.yul\":11635:11639   */\n      0x00\n        /* \"#utility.yul\":11673:11675   */\n      0x20\n        /* \"#utility.yul\":11662:11671   */\n      dup3\n        /* \"#utility.yul\":11658:11676   */\n      add\n        /* \"#utility.yul\":11650:11676   */\n      swap1\n      pop\n        /* \"#utility.yul\":11722:11731   */\n      dup2\n        /* \"#utility.yul\":11716:11720   */\n      dup2\n        /* \"#utility.yul\":11712:11732   */\n      sub\n        /* \"#utility.yul\":11708:11709   */\n      0x00\n        /* \"#utility.yul\":11697:11706   */\n      dup4\n        /* \"#utility.yul\":11693:11710   */\n      add\n        /* \"#utility.yul\":11686:11733   */\n      mstore\n        /* \"#utility.yul\":11750:11881   */\n      tag_311\n        /* \"#utility.yul\":11876:11880   */\n      dup2\n        /* \"#utility.yul\":11750:11881   */\n      tag_167\n      jump\t// in\n    tag_311:\n        /* \"#utility.yul\":11742:11881   */\n      swap1\n      pop\n        /* \"#utility.yul\":11469:11888   */\n      swap2\n      swap1\n      pop\n      jump\t// out\n        /* \"#utility.yul\":11894:12518   */\n    tag_79:\n        /* \"#utility.yul\":12083:12087   */\n      0x00\n        /* \"#utility.yul\":12121:12123   */\n      0x60\n        /* \"#utility.yul\":12110:12119   */\n      dup3\n        /* \"#utility.yul\":12106:12124   */\n      add\n        /* \"#utility.yul\":12098:12124   */\n      swap1\n      pop\n        /* \"#utility.yul\":12170:12179   */\n      dup2\n        /* \"#utility.yul\":12164:12168   */\n      dup2\n        /* \"#utility.yul\":12160:12180   */\n      sub\n        /* \"#utility.yul\":12156:12157   */\n      0x00\n        /* \"#utility.yul\":12145:12154   */\n      dup4\n        /* \"#utility.yul\":12141:12158   */\n      add\n        /* \"#utility.yul\":12134:12181   */\n      mstore\n        /* \"#utility.yul\":12198:12276   */\n      tag_313\n        /* \"#utility.yul\":12271:12275   */\n      dup2\n        /* \"#utility.yul\":12262:12268   */\n      dup7\n        /* \"#utility.yul\":12198:12276   */\n      tag_151\n      jump\t// in\n    tag_313:\n        /* \"#utility.yul\":12190:12276   */\n      swap1\n      pop\n        /* \"#utility.yul\":12323:12332   */\n      dup2\n        /* \"#utility.yul\":12317:12321   */\n      dup2\n        /* \"#utility.yul\":12313:12333   */\n      sub\n        /* \"#utility.yul\":12308:12310   */\n      0x20\n        /* \"#utility.yul\":12297:12306   */\n      dup4\n        /* \"#utility.yul\":12293:12311   */\n      add\n        /* \"#utility.yul\":12286:12334   */\n      mstore\n        /* \"#utility.yul\":12351:12429   */\n      tag_314\n        /* \"#utility.yul\":12424:12428   */\n      dup2\n        /* \"#utility.yul\":12415:12421   */\n      dup6\n        /* \"#utility.yul\":12351:12429   */\n      tag_151\n      jump\t// in\n    tag_314:\n        /* \"#utility.yul\":12343:12429   */\n      swap1\n      pop\n        /* \"#utility.yul\":12439:12511   */\n      tag_315\n        /* \"#utility.yul\":12507:12509   */\n      0x40\n        /* \"#utility.yul\":12496:12505   */\n      dup4\n        /* \"#utility.yul\":12492:12510   */\n      add\n        /* \"#utility.yul\":12483:12489   */\n      dup5\n        /* \"#utility.yul\":12439:12511   */\n      tag_153\n      jump\t// in\n    tag_315:\n        /* \"#utility.yul\":11894:12518   */\n      swap5\n      swap4\n      pop\n      pop\n      pop\n      pop\n      jump\t// out\n        /* \"#utility.yul\":12524:12693   */\n    tag_168:\n        /* \"#utility.yul\":12664:12685   */\n      0x5469657220646f6573206e6f7420657869737400000000000000000000000000\n        /* \"#utility.yul\":12660:12661   */\n      0x00\n        /* \"#utility.yul\":12652:12658   */\n      dup3\n        /* \"#utility.yul\":12648:12662   */\n      add\n        /* \"#utility.yul\":12641:12686   */\n      mstore\n        /* \"#utility.yul\":12524:12693   */\n      pop\n      jump\t// out\n        /* \"#utility.yul\":12699:13065   */\n    tag_169:\n        /* \"#utility.yul\":12841:12844   */\n      0x00\n        /* \"#utility.yul\":12862:12929   */\n      tag_318\n        /* \"#utility.yul\":12926:12928   */\n      0x13\n        /* \"#utility.yul\":12921:12924   */\n      dup4\n        /* \"#utility.yul\":12862:12929   */\n      tag_148\n      jump\t// in\n    tag_318:\n        /* \"#utility.yul\":12855:12929   */\n      swap2\n      pop\n        /* \"#utility.yul\":12938:13031   */\n      tag_319\n        /* \"#utility.yul\":13027:13030   */\n      dup3\n        /* \"#utility.yul\":12938:13031   */\n      tag_168\n      jump\t// in\n    tag_319:\n        /* \"#utility.yul\":13056:13058   */\n      0x20\n        /* \"#utility.yul\":13051:13054   */\n      dup3\n        /* \"#utility.yul\":13047:13059   */\n      add\n        /* \"#utility.yul\":13040:13059   */\n      swap1\n      pop\n        /* \"#utility.yul\":12699:13065   */\n      swap2\n      swap1\n      pop\n      jump\t// out\n        /* \"#utility.yul\":13071:13490   */\n    tag_94:\n        /* \"#utility.yul\":13237:13241   */\n      0x00\n        /* \"#utility.yul\":13275:13277   */\n      0x20\n        /* \"#utility.yul\":13264:13273   */\n      dup3\n        /* \"#utility.yul\":13260:13278   */\n      add\n        /* \"#utility.yul\":13252:13278   */\n      swap1\n      pop\n        /* \"#utility.yul\":13324:13333   */\n      dup2\n        /* \"#utility.yul\":13318:13322   */\n      dup2\n        /* \"#utility.yul\":13314:13334   */\n      sub\n        /* \"#utility.yul\":13310:13311   */\n      0x00\n        /* \"#utility.yul\":13299:13308   */\n      dup4\n        /* \"#utility.yul\":13295:13312   */\n      add\n        /* \"#utility.yul\":13288:13335   */\n      mstore\n        /* \"#utility.yul\":13352:13483   */\n      tag_321\n        /* \"#utility.yul\":13478:13482   */\n      dup2\n        /* \"#utility.yul\":13352:13483   */\n      tag_169\n      jump\t// in\n    tag_321:\n        /* \"#utility.yul\":13344:13483   */\n      swap1\n      pop\n        /* \"#utility.yul\":13071:13490   */\n      swap2\n      swap1\n      pop\n      jump\t// out\n        /* \"#utility.yul\":13496:13676   */\n    tag_170:\n        /* \"#utility.yul\":13544:13621   */\n      0x4e487b7100000000000000000000000000000000000000000000000000000000\n        /* \"#utility.yul\":13541:13542   */\n      0x00\n        /* \"#utility.yul\":13534:13622   */\n      mstore\n        /* \"#utility.yul\":13641:13645   */\n      0x11\n        /* \"#utility.yul\":13638:13639   */\n      0x04\n        /* \"#utility.yul\":13631:13646   */\n      mstore\n        /* \"#utility.yul\":13665:13669   */\n      0x24\n        /* \"#utility.yul\":13662:13663   */\n      0x00\n        /* \"#utility.yul\":13655:13670   */\n      revert\n        /* \"#utility.yul\":13682:13873   */\n    tag_96:\n        /* \"#utility.yul\":13722:13725   */\n      0x00\n        /* \"#utility.yul\":13741:13761   */\n      tag_324\n        /* \"#utility.yul\":13759:13760   */\n      dup3\n        /* \"#utility.yul\":13741:13761   */\n      tag_144\n      jump\t// in\n    tag_324:\n        /* \"#utility.yul\":13736:13761   */\n      swap2\n      pop\n        /* \"#utility.yul\":13775:13795   */\n      tag_325\n        /* \"#utility.yul\":13793:13794   */\n      dup4\n        /* \"#utility.yul\":13775:13795   */\n      tag_144\n      jump\t// in\n    tag_325:\n        /* \"#utility.yul\":13770:13795   */\n      swap3\n      pop\n        /* \"#utility.yul\":13818:13819   */\n      dup3\n        /* \"#utility.yul\":13815:13816   */\n      dup3\n        /* \"#utility.yul\":13811:13820   */\n      add\n        /* \"#utility.yul\":13804:13820   */\n      swap1\n      pop\n        /* \"#utility.yul\":13839:13842   */\n      dup1\n        /* \"#utility.yul\":13836:13837   */\n      dup3\n        /* \"#utility.yul\":13833:13843   */\n      gt\n        /* \"#utility.yul\":13830:13866   */\n      iszero\n      tag_326\n      jumpi\n        /* \"#utility.yul\":13846:13864   */\n      tag_327\n      tag_170\n      jump\t// in\n    tag_327:\n        /* \"#utility.yul\":13830:13866   */\n    tag_326:\n        /* \"#utility.yul\":13682:13873   */\n      swap3\n      swap2\n      pop\n      pop\n      jump\t// out\n        /* \"#utility.yul\":13879:14048   */\n    tag_171:\n        /* \"#utility.yul\":14019:14040   */\n      0x45786365656473207469657220737570706c7900000000000000000000000000\n        /* \"#utility.yul\":14015:14016   */\n      0x00\n        /* \"#utility.yul\":14007:14013   */\n      dup3\n        /* \"#utility.yul\":14003:14017   */\n      add\n        /* \"#utility.yul\":13996:14041   */\n      mstore\n        /* \"#utility.yul\":13879:14048   */\n      pop\n      jump\t// out\n        /* \"#utility.yul\":14054:14420   */\n    tag_172:\n        /* \"#utility.yul\":14196:14199   */\n      0x00\n        /* \"#utility.yul\":14217:14284   */\n      tag_330\n        /* \"#utility.yul\":14281:14283   */\n      0x13\n        /* \"#utility.yul\":14276:14279   */\n      dup4\n        /* \"#utility.yul\":14217:14284   */\n      tag_148\n      jump\t// in\n    tag_330:\n        /* \"#utility.yul\":14210:14284   */\n      swap2\n      pop\n        /* \"#utility.yul\":14293:14386   */\n      tag_331\n        /* \"#utility.yul\":14382:14385   */\n      dup3\n        /* \"#utility.yul\":14293:14386   */\n      tag_171\n      jump\t// in\n    tag_331:\n        /* \"#utility.yul\":14411:14413   */\n      0x20\n        /* \"#utility.yul\":14406:14409   */\n      dup3\n        /* \"#utility.yul\":14402:14414   */\n      add\n        /* \"#utility.yul\":14395:14414   */\n      swap1\n      pop\n        /* \"#utility.yul\":14054:14420   */\n      swap2\n      swap1\n      pop\n      jump\t// out\n        /* \"#utility.yul\":14426:14845   */\n    tag_99:\n        /* \"#utility.yul\":14592:14596   */\n      0x00\n        /* \"#utility.yul\":14630:14632   */\n      0x20\n        /* \"#utility.yul\":14619:14628   */\n      dup3\n        /* \"#utility.yul\":14615:14633   */\n      add\n        /* \"#utility.yul\":14607:14633   */\n      swap1\n      pop\n        /* \"#utility.yul\":14679:14688   */\n      dup2\n        /* \"#utility.yul\":14673:14677   */\n      dup2\n        /* \"#utility.yul\":14669:14689   */\n      sub\n        /* \"#utility.yul\":14665:14666   */\n      0x00\n        /* \"#utility.yul\":14654:14663   */\n      dup4\n        /* \"#utility.yul\":14650:14667   */\n      add\n        /* \"#utility.yul\":14643:14690   */\n      mstore\n        /* \"#utility.yul\":14707:14838   */\n      tag_333\n        /* \"#utility.yul\":14833:14837   */\n      dup2\n        /* \"#utility.yul\":14707:14838   */\n      tag_172\n      jump\t// in\n    tag_333:\n        /* \"#utility.yul\":14699:14838   */\n      swap1\n      pop\n        /* \"#utility.yul\":14426:14845   */\n      swap2\n      swap1\n      pop\n      jump\t// out\n        /* \"#utility.yul\":14851:15261   */\n    tag_101:\n        /* \"#utility.yul\":14891:14898   */\n      0x00\n        /* \"#utility.yul\":14914:14934   */\n      tag_335\n        /* \"#utility.yul\":14932:14933   */\n      dup3\n        /* \"#utility.yul\":14914:14934   */\n      tag_144\n      jump\t// in\n    tag_335:\n        /* \"#utility.yul\":14909:14934   */\n      swap2\n      pop\n        /* \"#utility.yul\":14948:14968   */\n      tag_336\n        /* \"#utility.yul\":14966:14967   */\n      dup4\n        /* \"#utility.yul\":14948:14968   */\n      tag_144\n      jump\t// in\n    tag_336:\n        /* \"#utility.yul\":14943:14968   */\n      swap3\n      pop\n        /* \"#utility.yul\":15003:15004   */\n      dup3\n        /* \"#utility.yul\":15000:15001   */\n      dup3\n        /* \"#utility.yul\":14996:15005   */\n      mul\n        /* \"#utility.yul\":15025:15055   */\n      tag_337\n        /* \"#utility.yul\":15043:15054   */\n      dup2\n        /* \"#utility.yul\":15025:15055   */\n      tag_144\n      jump\t// in\n    tag_337:\n        /* \"#utility.yul\":15014:15055   */\n      swap2\n      pop\n        /* \"#utility.yul\":15204:15205   */\n      dup3\n        /* \"#utility.yul\":15195:15202   */\n      dup3\n        /* \"#utility.yul\":15191:15206   */\n      div\n        /* \"#utility.yul\":15188:15189   */\n      dup5\n        /* \"#utility.yul\":15185:15207   */\n      eq\n        /* \"#utility.yul\":15165:15166   */\n      dup4\n        /* \"#utility.yul\":15158:15167   */\n      iszero\n        /* \"#utility.yul\":15138:15221   */\n      or\n        /* \"#utility.yul\":15115:15254   */\n      tag_338\n      jumpi\n        /* \"#utility.yul\":15234:15252   */\n      tag_339\n      tag_170\n      jump\t// in\n    tag_339:\n        /* \"#utility.yul\":15115:15254   */\n    tag_338:\n        /* \"#utility.yul\":14899:15261   */\n      pop\n        /* \"#utility.yul\":14851:15261   */\n      swap3\n      swap2\n      pop\n      pop\n      jump\t// out\n        /* \"#utility.yul\":15267:15437   */\n    tag_173:\n        /* \"#utility.yul\":15407:15429   */\n      0x496e73756666696369656e74207061796d656e74000000000000000000000000\n        /* \"#utility.yul\":15403:15404   */\n      0x00\n        /* \"#utility.yul\":15395:15401   */\n      dup3\n        /* \"#utility.yul\":15391:15405   */\n      add\n        /* \"#utility.yul\":15384:15430   */\n      mstore\n        /* \"#utility.yul\":15267:15437   */\n      pop\n      jump\t// out\n        /* \"#utility.yul\":15443:15809   */\n    tag_174:\n        /* \"#utility.yul\":15585:15588   */\n      0x00\n        /* \"#utility.yul\":15606:15673   */\n      tag_342\n        /* \"#utility.yul\":15670:15672   */\n      0x14\n        /* \"#utility.yul\":15665:15668   */\n      dup4\n        /* \"#utility.yul\":15606:15673   */\n      tag_148\n      jump\t// in\n    tag_342:\n        /* \"#utility.yul\":15599:15673   */\n      swap2\n      pop\n        /* \"#utility.yul\":15682:15775   */\n      tag_343\n        /* \"#utility.yul\":15771:15774   */\n      dup3\n        /* \"#utility.yul\":15682:15775   */\n      tag_173\n      jump\t// in\n    tag_343:\n        /* \"#utility.yul\":15800:15802   */\n      0x20\n        /* \"#utility.yul\":15795:15798   */\n      dup3\n        /* \"#utility.yul\":15791:15803   */\n      add\n        /* \"#utility.yul\":15784:15803   */\n      swap1\n      pop\n        /* \"#utility.yul\":15443:15809   */\n      swap2\n      swap1\n      pop\n      jump\t// out\n        /* \"#utility.yul\":15815:16234   */\n    tag_104:\n        /* \"#utility.yul\":15981:15985   */\n      0x00\n        /* \"#utility.yul\":16019:16021   */\n      0x20\n        /* \"#utility.yul\":16008:16017   */\n      dup3\n        /* \"#utility.yul\":16004:16022   */\n      add\n        /* \"#utility.yul\":15996:16022   */\n      swap1\n      pop\n        /* \"#utility.yul\":16068:16077   */\n      dup2\n        /* \"#utility.yul\":16062:16066   */\n      dup2\n        /* \"#utility.yul\":16058:16078   */\n      sub\n        /* \"#utility.yul\":16054:16055   */\n      0x00\n        /* \"#utility.yul\":16043:16052   */\n      dup4\n        /* \"#utility.yul\":16039:16056   */\n      add\n        /* \"#utility.yul\":16032:16079   */\n      mstore\n        /* \"#utility.yul\":16096:16227   */\n      tag_345\n        /* \"#utility.yul\":16222:16226   */\n      dup2\n        /* \"#utility.yul\":16096:16227   */\n      tag_174\n      jump\t// in\n    tag_345:\n        /* \"#utility.yul\":16088:16227   */\n      swap1\n      pop\n        /* \"#utility.yul\":15815:16234   */\n      swap2\n      swap1\n      pop\n      jump\t// out\n        /* \"#utility.yul\":16240:16572   */\n    tag_111:\n        /* \"#utility.yul\":16361:16365   */\n      0x00\n        /* \"#utility.yul\":16399:16401   */\n      0x40\n        /* \"#utility.yul\":16388:16397   */\n      dup3\n        /* \"#utility.yul\":16384:16402   */\n      add\n        /* \"#utility.yul\":16376:16402   */\n      swap1\n      pop\n        /* \"#utility.yul\":16412:16483   */\n      tag_347\n        /* \"#utility.yul\":16480:16481   */\n      0x00\n        /* \"#utility.yul\":16469:16478   */\n      dup4\n        /* \"#utility.yul\":16465:16482   */\n      add\n        /* \"#utility.yul\":16456:16462   */\n      dup6\n        /* \"#utility.yul\":16412:16483   */\n      tag_152\n      jump\t// in\n    tag_347:\n        /* \"#utility.yul\":16493:16565   */\n      tag_348\n        /* \"#utility.yul\":16561:16563   */\n      0x20\n        /* \"#utility.yul\":16550:16559   */\n      dup4\n        /* \"#utility.yul\":16546:16564   */\n      add\n        /* \"#utility.yul\":16537:16543   */\n      dup5\n        /* \"#utility.yul\":16493:16565   */\n      tag_152\n      jump\t// in\n    tag_348:\n        /* \"#utility.yul\":16240:16572   */\n      swap4\n      swap3\n      pop\n      pop\n      pop\n      jump\t// out\n        /* \"#utility.yul\":16578:16747   */\n    tag_175:\n        /* \"#utility.yul\":16718:16739   */\n      0x5469657220616c72656164792065786973747300000000000000000000000000\n        /* \"#utility.yul\":16714:16715   */\n      0x00\n        /* \"#utility.yul\":16706:16712   */\n      dup3\n        /* \"#utility.yul\":16702:16716   */\n      add\n        /* \"#utility.yul\":16695:16740   */\n      mstore\n        /* \"#utility.yul\":16578:16747   */\n      pop\n      jump\t// out\n        /* \"#utility.yul\":16753:17119   */\n    tag_176:\n        /* \"#utility.yul\":16895:16898   */\n      0x00\n        /* \"#utility.yul\":16916:16983   */\n      tag_351\n        /* \"#utility.yul\":16980:16982   */\n      0x13\n        /* \"#utility.yul\":16975:16978   */\n      dup4\n        /* \"#utility.yul\":16916:16983   */\n      tag_148\n      jump\t// in\n    tag_351:\n        /* \"#utility.yul\":16909:16983   */\n      swap2\n      pop\n        /* \"#utility.yul\":16992:17085   */\n      tag_352\n        /* \"#utility.yul\":17081:17084   */\n      dup3\n        /* \"#utility.yul\":16992:17085   */\n      tag_175\n      jump\t// in\n    tag_352:\n        /* \"#utility.yul\":17110:17112   */\n      0x20\n        /* \"#utility.yul\":17105:17108   */\n      dup3\n        /* \"#utility.yul\":17101:17113   */\n      add\n        /* \"#utility.yul\":17094:17113   */\n      swap1\n      pop\n        /* \"#utility.yul\":16753:17119   */\n      swap2\n      swap1\n      pop\n      jump\t// out\n        /* \"#utility.yul\":17125:17544   */\n    tag_117:\n        /* \"#utility.yul\":17291:17295   */\n      0x00\n        /* \"#utility.yul\":17329:17331   */\n      0x20\n        /* \"#utility.yul\":17318:17327   */\n      dup3\n        /* \"#utility.yul\":17314:17332   */\n      add\n        /* \"#utility.yul\":17306:17332   */\n      swap1\n      pop\n        /* \"#utility.yul\":17378:17387   */\n      dup2\n        /* \"#utility.yul\":17372:17376   */\n      dup2\n        /* \"#utility.yul\":17368:17388   */\n      sub\n        /* \"#utility.yul\":17364:17365   */\n      0x00\n        /* \"#utility.yul\":17353:17362   */\n      dup4\n        /* \"#utility.yul\":17349:17366   */\n      add\n        /* \"#utility.yul\":17342:17389   */\n      mstore\n        /* \"#utility.yul\":17406:17537   */\n      tag_354\n        /* \"#utility.yul\":17532:17536   */\n      dup2\n        /* \"#utility.yul\":17406:17537   */\n      tag_176\n      jump\t// in\n    tag_354:\n        /* \"#utility.yul\":17398:17537   */\n      swap1\n      pop\n        /* \"#utility.yul\":17125:17544   */\n      swap2\n      swap1\n      pop\n      jump\t// out\n        /* \"#utility.yul\":17550:17691   */\n    tag_177:\n        /* \"#utility.yul\":17599:17603   */\n      0x00\n        /* \"#utility.yul\":17622:17625   */\n      dup2\n        /* \"#utility.yul\":17614:17625   */\n      swap1\n      pop\n        /* \"#utility.yul\":17645:17648   */\n      dup2\n        /* \"#utility.yul\":17642:17643   */\n      0x00\n        /* \"#utility.yul\":17635:17649   */\n      mstore\n        /* \"#utility.yul\":17679:17683   */\n      0x20\n        /* \"#utility.yul\":17676:17677   */\n      0x00\n        /* \"#utility.yul\":17666:17684   */\n      keccak256\n        /* \"#utility.yul\":17658:17684   */\n      swap1\n      pop\n        /* \"#utility.yul\":17550:17691   */\n      swap2\n      swap1\n      pop\n      jump\t// out\n        /* \"#utility.yul\":17697:17790   */\n    tag_178:\n        /* \"#utility.yul\":17734:17740   */\n      0x00\n        /* \"#utility.yul\":17781:17783   */\n      0x20\n        /* \"#utility.yul\":17776:17778   */\n      0x1f\n        /* \"#utility.yul\":17769:17774   */\n      dup4\n        /* \"#utility.yul\":17765:17779   */\n      add\n        /* \"#utility.yul\":17761:17784   */\n      div\n        /* \"#utility.yul\":17751:17784   */\n      swap1\n      pop\n        /* \"#utility.yul\":17697:17790   */\n      swap2\n      swap1\n      pop\n      jump\t// out\n        /* \"#utility.yul\":17796:17903   */\n    tag_179:\n        /* \"#utility.yul\":17840:17848   */\n      0x00\n        /* \"#utility.yul\":17890:17895   */\n      dup3\n        /* \"#utility.yul\":17884:17888   */\n      dup3\n        /* \"#utility.yul\":17880:17896   */\n      shl\n        /* \"#utility.yul\":17859:17896   */\n      swap1\n      pop\n        /* \"#utility.yul\":17796:17903   */\n      swap3\n      swap2\n      pop\n      pop\n      jump\t// out\n        /* \"#utility.yul\":17909:18302   */\n    tag_180:\n        /* \"#utility.yul\":17978:17984   */\n      0x00\n        /* \"#utility.yul\":18028:18029   */\n      0x08\n        /* \"#utility.yul\":18016:18026   */\n      dup4\n        /* \"#utility.yul\":18012:18030   */\n      mul\n        /* \"#utility.yul\":18051:18148   */\n      tag_359\n        /* \"#utility.yul\":18081:18147   */\n      0xffffffffffffffffffffffffffffffffffffffffffffffffffffffffffffffff\n        /* \"#utility.yul\":18070:18079   */\n      dup3\n        /* \"#utility.yul\":18051:18148   */\n      tag_179\n      jump\t// in\n    tag_359:\n        /* \"#utility.yul\":18169:18208   */\n      tag_360\n        /* \"#utility.yul\":18199:18207   */\n      dup7\n        /* \"#utility.yul\":18188:18197   */\n      dup4\n        /* \"#utility.yul\":18169:18208   */\n      tag_179\n      jump\t// in\n    tag_360:\n        /* \"#utility.yul\":18157:18208   */\n      swap6\n      pop\n        /* \"#utility.yul\":18241:18245   */\n      dup1\n        /* \"#utility.yul\":18237:18246   */\n      not\n        /* \"#utility.yul\":18230:18235   */\n      dup5\n        /* \"#utility.yul\":18226:18247   */\n      and\n        /* \"#utility.yul\":18217:18247   */\n      swap4\n      pop\n        /* \"#utility.yul\":18290:18294   */\n      dup1\n        /* \"#utility.yul\":18280:18288   */\n      dup7\n        /* \"#utility.yul\":18276:18295   */\n      and\n        /* \"#utility.yul\":18269:18274   */\n      dup5\n        /* \"#utility.yul\":18266:18296   */\n      or\n        /* \"#utility.yul\":18256:18296   */\n      swap3\n      pop\n        /* \"#utility.yul\":17985:18302   */\n      pop\n      pop\n        /* \"#utility.yul\":17909:18302   */\n      swap4\n      swap3\n      pop\n      pop\n      pop\n      jump\t// out\n        /* \"#utility.yul\":18308:18368   */\n    tag_181:\n        /* \"#utility.yul\":18336:18339   */\n      0x00\n        /* \"#utility.yul\":18357:18362   */\n      dup2\n        /* \"#utility.yul\":18350:18362   */\n      swap1\n      pop\n        /* \"#utility.yul\":18308:18368   */\n      swap2\n      swap1\n      pop\n      jump\t// out\n        /* \"#utility.yul\":18374:18516   */\n    tag_182:\n        /* \"#utility.yul\":18424:18433   */\n      0x00\n        /* \"#utility.yul\":18457:18510   */\n      tag_363\n        /* \"#utility.yul\":18475:18509   */\n      tag_364\n        /* \"#utility.yul\":18484:18508   */\n      tag_365\n        /* \"#utility.yul\":18502:18507   */\n      dup5\n        /* \"#utility.yul\":18484:18508   */\n      tag_144\n      jump\t// in\n    tag_365:\n        /* \"#utility.yul\":18475:18509   */\n      tag_181\n      jump\t// in\n    tag_364:\n        /* \"#utility.yul\":18457:18510   */\n      tag_144\n      jump\t// in\n    tag_363:\n        /* \"#utility.yul\":18444:18510   */\n      swap1\n      pop\n        /* \"#utility.yul\":18374:18516   */\n      swap2\n      swap1\n      pop\n      jump\t// out\n        /* \"#utility.yul\":18522:18597   */\n    tag_183:\n        /* \"#utility.yul\":18565:18568   */\n      0x00\n        /* \"#utility.yul\":18586:18591   */\n      dup2\n        /* \"#utility.yul\":18579:18591   */\n      swap1\n      pop\n        /* \"#utility.yul\":18522:18597   */\n      swap2\n      swap1\n      pop\n      jump\t// out\n        /* \"#utility.yul\":18603:18872   */\n    tag_184:\n        /* \"#utility.yul\":18713:18752   */\n      tag_368\n        /* \"#utility.yul\":18744:18751   */\n      dup4\n        /* \"#utility.yul\":18713:18752   */\n      tag_182\n      jump\t// in\n    tag_368:\n        /* \"#utility.yul\":18774:18865   */\n      tag_369\n        /* \"#utility.yul\":18823:18864   */\n      tag_370\n        /* \"#utility.yul\":18847:18863   */\n      dup3\n        /* \"#utility.yul\":18823:18864   */\n      tag_183\n      jump\t// in\n    tag_370:\n        /* \"#utility.yul\":18815:18821   */\n      dup5\n        /* \"#utility.yul\":18808:18812   */\n      dup5\n        /* \"#utility.yul\":18802:18813   */\n      sload\n        /* \"#utility.yul\":18774:18865   */\n      tag_180\n      jump\t// in\n    tag_369:\n        /* \"#utility.yul\":18768:18772   */\n      dup3\n        /* \"#utility.yul\":18761:18866   */\n      sstore\n        /* \"#utility.yul\":18679:18872   */\n      pop\n        /* \"#utility.yul\":18603:18872   */\n      pop\n      pop\n      pop\n      jump\t// out\n        /* \"#utility.yul\":18878:18951   */\n    tag_185:\n        /* \"#utility.yul\":18923:18926   */\n      0x00\n        /* \"#utility.yul\":18878:18951   */\n      swap1\n      jump\t// out\n        /* \"#utility.yul\":18957:19146   */\n    tag_186:\n        /* \"#utility.yul\":19034:19066   */\n      tag_373\n      tag_185\n      jump\t// in\n    tag_373:\n        /* \"#utility.yul\":19075:19140   */\n      tag_374\n        /* \"#utility.yul\":19133:19139   */\n      dup2\n        /* \"#utility.yul\":19125:19131   */\n      dup5\n        /* \"#utility.yul\":19119:19123   */\n      dup5\n        /* \"#utility.yul\":19075:19140   */\n      tag_184\n      jump\t// in\n    tag_374:\n        /* \"#utility.yul\":19010:19146   */\n      pop\n        /* \"#utility.yul\":18957:19146   */\n      pop\n      pop\n      jump\t// out\n        /* \"#utility.yul\":19152:19338   */\n    tag_187:\n        /* \"#utility.yul\":19212:19332   */\n    tag_376:\n        /* \"#utility.yul\":19229:19232   */\n      dup2\n        /* \"#utility.yul\":19222:19227   */\n      dup2\n        /* \"#utility.yul\":19219:19233   */\n      lt\n        /* \"#utility.yul\":19212:19332   */\n      iszero\n      tag_378\n      jumpi\n        /* \"#utility.yul\":19283:19322   */\n      tag_379\n        /* \"#utility.yul\":19320:19321   */\n      0x00\n        /* \"#utility.yul\":19313:19318   */\n      dup3\n        /* \"#utility.yul\":19283:19322   */\n      tag_186\n      jump\t// in\n    tag_379:\n        /* \"#utility.yul\":19256:19257   */\n      0x01\n        /* \"#utility.yul\":19249:19254   */\n      dup2\n        /* \"#utility.yul\":19245:19258   */\n      add\n        /* \"#utility.yul\":19236:19258   */\n      swap1\n      pop\n        /* \"#utility.yul\":19212:19332   */\n      jump(tag_376)\n    tag_378:\n        /* \"#utility.yul\":19152:19338   */\n      pop\n      pop\n      jump\t// out\n        /* \"#utility.yul\":19344:19887   */\n    tag_188:\n        /* \"#utility.yul\":19445:19447   */\n      0x1f\n        /* \"#utility.yul\":19440:19443   */\n      dup3\n        /* \"#utility.yul\":19437:19448   */\n      gt\n        /* \"#utility.yul\":19434:19880   */\n      iszero\n      tag_381\n      jumpi\n        /* \"#utility.yul\":19479:19517   */\n      tag_382\n        /* \"#utility.yul\":19511:19516   */\n      dup2\n        /* \"#utility.yul\":19479:19517   */\n      tag_177\n      jump\t// in\n    tag_382:\n        /* \"#utility.yul\":19563:19592   */\n      tag_383\n        /* \"#utility.yul\":19581:19591   */\n      dup5\n        /* \"#utility.yul\":19563:19592   */\n      tag_178\n      jump\t// in\n    tag_383:\n        /* \"#utility.yul\":19553:19561   */\n      dup2\n        /* \"#utility.yul\":19549:19593   */\n      add\n        /* \"#utility.yul\":19746:19748   */\n      0x20\n        /* \"#utility.yul\":19734:19744   */\n      dup6\n        /* \"#utility.yul\":19731:19749   */\n      lt\n        /* \"#utility.yul\":19728:19777   */\n      iszero\n      tag_384\n      jumpi\n        /* \"#utility.yul\":19767:19775   */\n      dup2\n        /* \"#utility.yul\":19752:19775   */\n      swap1\n      pop\n        /* \"#utility.yul\":19728:19777   */\n    tag_384:\n        /* \"#utility.yul\":19790:19870   */\n      tag_385\n        /* \"#utility.yul\":19846:19868   */\n      tag_386\n        /* \"#utility.yul\":19864:19867   */\n      dup6\n        /* \"#utility.yul\":19846:19868   */\n      tag_178\n      jump\t// in\n    tag_386:\n        /* \"#utility.yul\":19836:19844   */\n      dup4\n        /* \"#utility.yul\":19832:19869   */\n      add\n        /* \"#utility.yul\":19819:19830   */\n      dup3\n        /* \"#utility.yul\":19790:19870   */\n      tag_187\n      jump\t// in\n    tag_385:\n        /* \"#utility.yul\":19449:19880   */\n      pop\n      pop\n        /* \"#utility.yul\":19434:19880   */\n    tag_381:\n        /* \"#utility.yul\":19344:19887   */\n      pop\n      pop\n      pop\n      jump\t// out\n        /* \"#utility.yul\":19893:20010   */\n    tag_189:\n        /* \"#utility.yul\":19947:19955   */\n      0x00\n        /* \"#utility.yul\":19997:20002   */\n      dup3\n        /* \"#utility.yul\":19991:19995   */\n      dup3\n        /* \"#utility.yul\":19987:20003   */\n      shr\n        /* \"#utility.yul\":19966:20003   */\n      swap1\n      pop\n        /* \"#utility.yul\":19893:20010   */\n      swap3\n      swap2\n      pop\n      pop\n      jump\t// out\n        /* \"#utility.yul\":20016:20185   */\n    tag_190:\n        /* \"#utility.yul\":20060:20066   */\n      0x00\n        /* \"#utility.yul\":20093:20144   */\n      tag_389\n        /* \"#utility.yul\":20141:20142   */\n      0x00\n        /* \"#utility.yul\":20137:20143   */\n      not\n        /* \"#utility.yul\":20129:20134   */\n      dup5\n        /* \"#utility.yul\":20126:20127   */\n      0x08\n        /* \"#utility.yul\":20122:20135   */\n      mul\n        /* \"#utility.yul\":20093:20144   */\n      tag_189\n      jump\t// in\n    tag_389:\n        /* \"#utility.yul\":20089:20145   */\n      not\n        /* \"#utility.yul\":20174:20178   */\n      dup1\n        /* \"#utility.yul\":20168:20172   */\n      dup4\n        /* \"#utility.yul\":20164:20179   */\n      and\n        /* \"#utility.yul\":20154:20179   */\n      swap2\n      pop\n        /* \"#utility.yul\":20067:20185   */\n      pop\n        /* \"#utility.yul\":20016:20185   */\n      swap3\n      swap2\n      pop\n      pop\n      jump\t// out\n        /* \"#utility.yul\":20190:20485   */\n    tag_191:\n        /* \"#utility.yul\":20266:20270   */\n      0x00\n        /* \"#utility.yul\":20412:20441   */\n      tag_391\n        /* \"#utility.yul\":20437:20440   */\n      dup4\n        /* \"#utility.yul\":20431:20435   */\n      dup4\n        /* \"#utility.yul\":20412:20441   */\n      tag_190\n      jump\t// in\n    tag_391:\n        /* \"#utility.yul\":20404:20441   */\n      swap2\n      pop\n        /* \"#utility.yul\":20474:20477   */\n      dup3\n        /* \"#utility.yul\":20471:20472   */\n      0x02\n        /* \"#utility.yul\":20467:20478   */\n      mul\n        /* \"#utility.yul\":20461:20465   */\n      dup3\n        /* \"#utility.yul\":20458:20479   */\n      or\n        /* \"#utility.yul\":20450:20479   */\n      swap1\n      pop\n        /* \"#utility.yul\":20190:20485   */\n      swap3\n      swap2\n      pop\n      pop\n      jump\t// out\n        /* \"#utility.yul\":20490:21885   */\n    tag_119:\n        /* \"#utility.yul\":20607:20644   */\n      tag_393\n        /* \"#utility.yul\":20640:20643   */\n      dup3\n        /* \"#utility.yul\":20607:20644   */\n      tag_147\n      jump\t// in\n    tag_393:\n        /* \"#utility.yul\":20709:20727   */\n      0xffffffffffffffff\n        /* \"#utility.yul\":20701:20707   */\n      dup2\n        /* \"#utility.yul\":20698:20728   */\n      gt\n        /* \"#utility.yul\":20695:20751   */\n      iszero\n      tag_394\n      jumpi\n        /* \"#utility.yul\":20731:20749   */\n      tag_395\n      tag_156\n      jump\t// in\n    tag_395:\n        /* \"#utility.yul\":20695:20751   */\n    tag_394:\n        /* \"#utility.yul\":20775:20813   */\n      tag_396\n        /* \"#utility.yul\":20807:20811   */\n      dup3\n        /* \"#utility.yul\":20801:20812   */\n      sload\n        /* \"#utility.yul\":20775:20813   */\n      tag_67\n      jump\t// in\n    tag_396:\n        /* \"#utility.yul\":20860:20927   */\n      tag_397\n        /* \"#utility.yul\":20920:20926   */\n      dup3\n        /* \"#utility.yul\":20912:20918   */\n      dup3\n        /* \"#utility.yul\":20906:20910   */\n      dup6\n        /* \"#utility.yul\":20860:20927   */\n      tag_188\n      jump\t// in\n    tag_397:\n        /* \"#utility.yul\":20954:20955   */\n      0x00\n        /* \"#utility.yul\":20978:20982   */\n      0x20\n        /* \"#utility.yul\":20965:20982   */\n      swap1\n      pop\n        /* \"#utility.yul\":21010:21012   */\n      0x1f\n        /* \"#utility.yul\":21002:21008   */\n      dup4\n        /* \"#utility.yul\":20999:21013   */\n      gt\n        /* \"#utility.yul\":21027:21028   */\n      0x01\n        /* \"#utility.yul\":21022:21640   */\n      dup2\n      eq\n      tag_399\n      jumpi\n        /* \"#utility.yul\":21684:21685   */\n      0x00\n        /* \"#utility.yul\":21701:21707   */\n      dup5\n        /* \"#utility.yul\":21698:21775   */\n      iszero\n      tag_400\n      jumpi\n        /* \"#utility.yul\":21750:21759   */\n      dup3\n        /* \"#utility.yul\":21745:21748   */\n      dup8\n        /* \"#utility.yul\":21741:21760   */\n      add\n        /* \"#utility.yul\":21735:21761   */\n      mload\n        /* \"#utility.yul\":21726:21761   */\n      swap1\n      pop\n        /* \"#utility.yul\":21698:21775   */\n    tag_400:\n        /* \"#utility.yul\":21801:21868   */\n      tag_401\n        /* \"#utility.yul\":21861:21867   */\n      dup6\n        /* \"#utility.yul\":21854:21859   */\n      dup3\n        /* \"#utility.yul\":21801:21868   */\n      tag_191\n      jump\t// in\n    tag_401:\n        /* \"#utility.yul\":21795:21799   */\n      dup7\n        /* \"#utility.yul\":21788:21869   */\n      sstore\n        /* \"#utility.yul\":21657:21879   */\n      pop\n        /* \"#utility.yul\":20992:21879   */\n      jump(tag_398)\n        /* \"#utility.yul\":21022:21640   */\n    tag_399:\n        /* \"#utility.yul\":21074:21078   */\n      0x1f\n        /* \"#utility.yul\":21070:21079   */\n      not\n        /* \"#utility.yul\":21062:21068   */\n      dup5\n        /* \"#utility.yul\":21058:21080   */\n      and\n        /* \"#utility.yul\":21108:21145   */\n      tag_402\n        /* \"#utility.yul\":21140:21144   */\n      dup7\n        /* \"#utility.yul\":21108:21145   */\n      tag_177\n      jump\t// in\n    tag_402:\n        /* \"#utility.yul\":21167:21168   */\n      0x00\n        /* \"#utility.yul\":21181:21389   */\n    tag_403:\n        /* \"#utility.yul\":21195:21202   */\n      dup3\n        /* \"#utility.yul\":21192:21193   */\n      dup2\n        /* \"#utility.yul\":21189:21203   */\n      lt\n        /* \"#utility.yul\":21181:21389   */\n      iszero\n      tag_405\n      jumpi\n        /* \"#utility.yul\":21274:21283   */\n      dup5\n        /* \"#utility.yul\":21269:21272   */\n      dup10\n        /* \"#utility.yul\":21265:21284   */\n      add\n        /* \"#utility.yul\":21259:21285   */\n      mload\n        /* \"#utility.yul\":21251:21257   */\n      dup3\n        /* \"#utility.yul\":21244:21286   */\n      sstore\n        /* \"#utility.yul\":21325:21326   */\n      0x01\n        /* \"#utility.yul\":21317:21323   */\n      dup3\n        /* \"#utility.yul\":21313:21327   */\n      add\n        /* \"#utility.yul\":21303:21327   */\n      swap2\n      pop\n        /* \"#utility.yul\":21372:21374   */\n      0x20\n        /* \"#utility.yul\":21361:21370   */\n      dup6\n        /* \"#utility.yul\":21357:21375   */\n      add\n        /* \"#utility.yul\":21344:21375   */\n      swap5\n      pop\n        /* \"#utility.yul\":21218:21222   */\n      0x20\n        /* \"#utility.yul\":21215:21216   */\n      dup2\n        /* \"#utility.yul\":21211:21223   */\n      add\n        /* \"#utility.yul\":21206:21223   */\n      swap1\n      pop\n        /* \"#utility.yul\":21181:21389   */\n      jump(tag_403)\n    tag_405:\n        /* \"#utility.yul\":21417:21423   */\n      dup7\n        /* \"#utility.yul\":21408:21415   */\n      dup4\n        /* \"#utility.yul\":21405:21424   */\n      lt\n        /* \"#utility.yul\":21402:21581   */\n      iszero\n      tag_406\n      jumpi\n        /* \"#utility.yul\":21475:21484   */\n      dup5\n        /* \"#utility.yul\":21470:21473   */\n      dup10\n        /* \"#utility.yul\":21466:21485   */\n      add\n        /* \"#utility.yul\":21460:21486   */\n      mload\n        /* \"#utility.yul\":21518:21566   */\n      tag_407\n        /* \"#utility.yul\":21560:21564   */\n      0x1f\n        /* \"#utility.yul\":21552:21558   */\n      dup10\n        /* \"#utility.yul\":21548:21565   */\n      and\n        /* \"#utility.yul\":21537:21546   */\n      dup3\n        /* \"#utility.yul\":21518:21566   */\n      tag_190\n      jump\t// in\n    tag_407:\n        /* \"#utility.yul\":21510:21516   */\n      dup4\n        /* \"#utility.yul\":21503:21567   */\n      sstore\n        /* \"#utility.yul\":21425:21581   */\n      pop\n        /* \"#utility.yul\":21402:21581   */\n    tag_406:\n        /* \"#utility.yul\":21627:21628   */\n      0x01\n        /* \"#utility.yul\":21623:21624   */\n      0x02\n        /* \"#utility.yul\":21615:21621   */\n      dup9\n        /* \"#utility.yul\":21611:21625   */\n      mul\n        /* \"#utility.yul\":21607:21629   */\n      add\n        /* \"#utility.yul\":21601:21605   */\n      dup9\n        /* \"#utility.yul\":21594:21630   */\n      sstore\n        /* \"#utility.yul\":21029:21640   */\n      pop\n      pop\n      pop\n        /* \"#utility.yul\":20992:21879   */\n    tag_398:\n      pop\n        /* \"#utility.yul\":20582:21885   */\n      pop\n      pop\n      pop\n        /* \"#utility.yul\":20490:21885   */\n      pop\n      pop\n      jump\t// out\n        /* \"#utility.yul\":21891:22535   */\n    tag_121:\n        /* \"#utility.yul\":22088:22092   */\n      0x00\n        /* \"#utility.yul\":22126:22129   */\n      0x80\n        /* \"#utility.yul\":22115:22124   */\n      dup3\n        /* \"#utility.yul\":22111:22130   */\n      add\n        /* \"#utility.yul\":22103:22130   */\n      swap1\n      pop\n        /* \"#utility.yul\":22140:22211   */\n      tag_409\n        /* \"#utility.yul\":22208:22209   */\n      0x00\n        /* \"#utility.yul\":22197:22206   */\n      dup4\n        /* \"#utility.yul\":22193:22210   */\n      add\n        /* \"#utility.yul\":22184:22190   */\n      dup8\n        /* \"#utility.yul\":22140:22211   */\n      tag_152\n      jump\t// in\n    tag_409:\n        /* \"#utility.yul\":22258:22267   */\n      dup2\n        /* \"#utility.yul\":22252:22256   */\n      dup2\n        /* \"#utility.yul\":22248:22268   */\n      sub\n        /* \"#utility.yul\":22243:22245   */\n      0x20\n        /* \"#utility.yul\":22232:22241   */\n      dup4\n        /* \"#utility.yul\":22228:22246   */\n      add\n        /* \"#utility.yul\":22221:22269   */\n      mstore\n        /* \"#utility.yul\":22286:22364   */\n      tag_410\n        /* \"#utility.yul\":22359:22363   */\n      dup2\n        /* \"#utility.yul\":22350:22356   */\n      dup7\n        /* \"#utility.yul\":22286:22364   */\n      tag_151\n      jump\t// in\n    tag_410:\n        /* \"#utility.yul\":22278:22364   */\n      swap1\n      pop\n        /* \"#utility.yul\":22374:22446   */\n      tag_411\n        /* \"#utility.yul\":22442:22444   */\n      0x40\n        /* \"#utility.yul\":22431:22440   */\n      dup4\n        /* \"#utility.yul\":22427:22445   */\n      add\n        /* \"#utility.yul\":22418:22424   */\n      dup6\n        /* \"#utility.yul\":22374:22446   */\n      tag_152\n      jump\t// in\n    tag_411:\n        /* \"#utility.yul\":22456:22528   */\n      tag_412\n        /* \"#utility.yul\":22524:22526   */\n      0x60\n        /* \"#utility.yul\":22513:22522   */\n      dup4\n        /* \"#utility.yul\":22509:22527   */\n      add\n        /* \"#utility.yul\":22500:22506   */\n      dup5\n        /* \"#utility.yul\":22456:22528   */\n      tag_152\n      jump\t// in\n    tag_412:\n        /* \"#utility.yul\":21891:22535   */\n      swap6\n      swap5\n      pop\n      pop\n      pop\n      pop\n      pop\n      jump\t// out\n    stop\n\n    sub_0: assembly {\n            /* \"contracts/Tokens.sol\":4225:4755  contract CreatorToken is ERC20 {... */\n          mstore(0x40, 0x80)\n            /* \"contracts/Tokens.sol\":4405:4534  constructor(string memory name, string memory symbol, address _creator) ERC20(name, symbol) {... */\n          callvalue\n          dup1\n          iszero\n          tag_1\n          jumpi\n          0x00\n          dup1\n          revert\n        tag_1:\n          pop\n          mload(0x40)\n          sub(codesize, bytecodeSize)\n          dup1\n          bytecodeSize\n          dup4\n          codecopy\n          dup2\n          dup2\n          add\n          0x40\n          mstore\n          dup2\n          add\n          swap1\n          tag_2\n          swap2\n          swap1\n          tag_3\n          jump\t// in\n        tag_2:\n            /* \"contracts/Tokens.sol\":4483:4487  name */\n          dup3\n            /* \"contracts/Tokens.sol\":4489:4495  symbol */\n          dup3\n            /* \"@openzeppelin/contracts/token/ERC20/ERC20.sol\":1675:1680  name_ */\n          dup2\n            /* \"@openzeppelin/contracts/token/ERC20/ERC20.sol\":1667:1672  _name */\n          0x03\n            /* \"@openzeppelin/contracts/token/ERC20/ERC20.sol\":1667:1680  _name = name_ */\n          swap1\n          dup2\n          tag_7\n          swap2\n          swap1\n          tag_8\n          jump\t// in\n        tag_7:\n          pop\n            /* \"@openzeppelin/contracts/token/ERC20/ERC20.sol\":1700:1707  symbol_ */\n          dup1\n            /* \"@openzeppelin/contracts/token/ERC20/ERC20.sol\":1690:1697  _symbol */\n          0x04\n            /* \"@openzeppelin/contracts/token/ERC20/ERC20.sol\":1690:1707  _symbol = symbol_ */\n          swap1\n          dup2\n          tag_9\n          swap2\n          swap1\n          tag_8\n          jump\t// in\n        tag_9:\n          pop\n            /* \"@openzeppelin/contracts/token/ERC20/ERC20.sol\":1601:1714  constructor(string memory name_, string memory symbol_) {... */\n          pop\n          pop\n            /* \"contracts/Tokens.sol\":4518:4526  _creator */\n          dup1\n            /* \"contracts/Tokens.sol\":4508:4515  creator */\n          0x05\n          0x00\n            /* \"contracts/Tokens.sol\":4508:4526  creator = _creator */\n          0x0100\n          exp\n          dup2\n          sload\n          dup2\n          0xffffffffffffffffffffffffffffffffffffffff\n          mul\n          not\n          and\n          swap1\n          dup4\n          0xffffffffffffffffffffffffffffffffffffffff\n          and\n          mul\n          or\n          swap1\n          sstore\n          pop\n            /* \"contracts/Tokens.sol\":4405:4534  constructor(string memory name, string memory symbol, address _creator) ERC20(name, symbol) {... */\n          pop\n          pop\n          pop\n            /* \"contracts/Tokens.sol\":4225:4755  contract CreatorToken is ERC20 {... */\n          jump(tag_11)\n            /* \"#utility.yul\":7:82   */\n        tag_12:\n            /* \"#utility.yul\":40:46   */\n          0x00\n            /* \"#utility.yul\":73:75   */\n          0x40\n            /* \"#utility.yul\":67:76   */\n          mload\n            /* \"#utility.yul\":57:76   */\n          swap1\n          pop\n            /* \"#utility.yul\":7:82   */\n          swap1\n          jump\t// out\n            /* \"#utility.yul\":88:205   */\n        tag_13:\n            /* \"#utility.yul\":197:198   */\n          0x00\n            /* \"#utility.yul\":194:195   */\n          dup1\n            /* \"#utility.yul\":187:199   */\n          revert\n            /* \"#utility.yul\":211:328   */\n        tag_14:\n            /* \"#utility.yul\":320:321   */\n          0x00\n            /* \"#utility.yul\":317:318   */\n          dup1\n            /* \"#utility.yul\":310:322   */\n          revert\n            /* \"#utility.yul\":334:451   */\n        tag_15:\n            /* \"#utility.yul\":443:444   */\n          0x00\n            /* \"#utility.yul\":440:441   */\n          dup1\n            /* \"#utility.yul\":433:445   */\n          revert\n            /* \"#utility.yul\":457:574   */\n        tag_16:\n            /* \"#utility.yul\":566:567   */\n          0x00\n            /* \"#utility.yul\":563:564   */\n          dup1\n            /* \"#utility.yul\":556:568   */\n          revert\n            /* \"#utility.yul\":580:682   */\n        tag_17:\n            /* \"#utility.yul\":621:627   */\n          0x00\n            /* \"#utility.yul\":672:674   */\n          0x1f\n            /* \"#utility.yul\":668:675   */\n          not\n            /* \"#utility.yul\":663:665   */\n          0x1f\n            /* \"#utility.yul\":656:661   */\n          dup4\n            /* \"#utility.yul\":652:666   */\n          add\n            /* \"#utility.yul\":648:676   */\n          and\n            /* \"#utility.yul\":638:676   */\n          swap1\n          pop\n            /* \"#utility.yul\":580:682   */\n          swap2\n          swap1\n          pop\n          jump\t// out\n            /* \"#utility.yul\":688:868   */\n        tag_18:\n            /* \"#utility.yul\":736:813   */\n          0x4e487b7100000000000000000000000000000000000000000000000000000000\n            /* \"#utility.yul\":733:734   */\n          0x00\n            /* \"#utility.yul\":726:814   */\n          mstore\n            /* \"#utility.yul\":833:837   */\n          0x41\n            /* \"#utility.yul\":830:831   */\n          0x04\n            /* \"#utility.yul\":823:838   */\n          mstore\n            /* \"#utility.yul\":857:861   */\n          0x24\n            /* \"#utility.yul\":854:855   */\n          0x00\n            /* \"#utility.yul\":847:862   */\n          revert\n            /* \"#utility.yul\":874:1155   */\n        tag_19:\n            /* \"#utility.yul\":957:984   */\n          tag_57\n            /* \"#utility.yul\":979:983   */\n          dup3\n            /* \"#utility.yul\":957:984   */\n          tag_17\n          jump\t// in\n        tag_57:\n            /* \"#utility.yul\":949:955   */\n          dup2\n            /* \"#utility.yul\":945:985   */\n          add\n            /* \"#utility.yul\":1087:1093   */\n          dup2\n            /* \"#utility.yul\":1075:1085   */\n          dup2\n            /* \"#utility.yul\":1072:1094   */\n          lt\n            /* \"#utility.yul\":1051:1069   */\n          0xffffffffffffffff\n            /* \"#utility.yul\":1039:1049   */\n          dup3\n            /* \"#utility.yul\":1036:1070   */\n          gt\n            /* \"#utility.yul\":1033:1095   */\n          or\n            /* \"#utility.yul\":1030:1118   */\n          iszero\n          tag_58\n          jumpi\n            /* \"#utility.yul\":1098:1116   */\n          tag_59\n          tag_18\n          jump\t// in\n        tag_59:\n            /* \"#utility.yul\":1030:1118   */\n        tag_58:\n            /* \"#utility.yul\":1138:1148   */\n          dup1\n            /* \"#utility.yul\":1134:1136   */\n          0x40\n            /* \"#utility.yul\":1127:1149   */\n          mstore\n            /* \"#utility.yul\":917:1155   */\n          pop\n            /* \"#utility.yul\":874:1155   */\n          pop\n          pop\n          jump\t// out\n            /* \"#utility.yul\":1161:1290   */\n        tag_20:\n            /* \"#utility.yul\":1195:1201   */\n          0x00\n            /* \"#utility.yul\":1222:1242   */\n          tag_61\n          tag_12\n          jump\t// in\n        tag_61:\n            /* \"#utility.yul\":1212:1242   */\n          swap1\n          pop\n            /* \"#utility.yul\":1251:1284   */\n          tag_62\n            /* \"#utility.yul\":1279:1283   */\n          dup3\n            /* \"#utility.yul\":1271:1277   */\n          dup3\n            /* \"#utility.yul\":1251:1284   */\n          tag_19\n          jump\t// in\n        tag_62:\n            /* \"#utility.yul\":1161:1290   */\n          swap2\n          swap1\n          pop\n          jump\t// out\n            /* \"#utility.yul\":1296:1604   */\n        tag_21:\n            /* \"#utility.yul\":1358:1362   */\n          0x00\n            /* \"#utility.yul\":1448:1466   */\n          0xffffffffffffffff\n            /* \"#utility.yul\":1440:1446   */\n          dup3\n            /* \"#utility.yul\":1437:1467   */\n          gt\n            /* \"#utility.yul\":1434:1490   */\n          iszero\n          tag_64\n          jumpi\n            /* \"#utility.yul\":1470:1488   */\n          tag_65\n          tag_18\n          jump\t// in\n        tag_65:\n            /* \"#utility.yul\":1434:1490   */\n        tag_64:\n            /* \"#utility.yul\":1508:1537   */\n          tag_66\n            /* \"#utility.yul\":1530:1536   */\n          dup3\n            /* \"#utility.yul\":1508:1537   */\n          tag_17\n          jump\t// in\n        tag_66:\n            /* \"#utility.yul\":1500:1537   */\n          swap1\n          pop\n            /* \"#utility.yul\":1592:1596   */\n          0x20\n            /* \"#utility.yul\":1586:1590   */\n          dup2\n            /* \"#utility.yul\":1582:1597   */\n          add\n            /* \"#utility.yul\":1574:1597   */\n          swap1\n          pop\n            /* \"#utility.yul\":1296:1604   */\n          swap2\n          swap1\n          pop\n          jump\t// out\n            /* \"#utility.yul\":1610:1749   */\n        tag_22:\n            /* \"#utility.yul\":1699:1705   */\n          dup3\n            /* \"#utility.yul\":1694:1697   */\n          dup2\n            /* \"#utility.yul\":1689:1692   */\n          dup4\n            /* \"#utility.yul\":1683:1706   */\n          mcopy\n            /* \"#utility.yul\":1740:1741   */\n          0x00\n            /* \"#utility.yul\":1731:1737   */\n          dup4\n            /* \"#utility.yul\":1726:1729   */\n          dup4\n            /* \"#utility.yul\":1722:1738   */\n          add\n            /* \"#utility.yul\":1715:1742   */\n          mstore\n            /* \"#utility.yul\":1610:1749   */\n          pop\n          pop\n          pop\n          jump\t// out\n            /* \"#utility.yul\":1755:2189   */\n        tag_23:\n            /* \"#utility.yul\":1844:1849   */\n          0x00\n            /* \"#utility.yul\":1869:1935   */\n          tag_69\n            /* \"#utility.yul\":1885:1934   */\n          tag_70\n            /* \"#utility.yul\":1927:1933   */\n          dup5\n            /* \"#utility.yul\":1885:1934   */\n          tag_21\n          jump\t// in\n        tag_70:\n            /* \"#utility.yul\":1869:1935   */\n          tag_20\n          jump\t// in\n        tag_69:\n            /* \"#utility.yul\":1860:1935   */\n          swap1\n          pop\n            /* \"#utility.yul\":1958:1964   */\n          dup3\n            /* \"#utility.yul\":1951:1956   */\n          dup2\n            /* \"#utility.yul\":1944:1965   */\n          mstore\n            /* \"#utility.yul\":1996:2000   */\n          0x20\n            /* \"#utility.yul\":1989:1994   */\n          dup2\n            /* \"#utility.yul\":1985:2001   */\n          add\n            /* \"#utility.yul\":2034:2037   */\n          dup5\n            /* \"#utility.yul\":2025:2031   */\n          dup5\n            /* \"#utility.yul\":2020:2023   */\n          dup5\n            /* \"#utility.yul\":2016:2032   */\n          add\n            /* \"#utility.yul\":2013:2038   */\n          gt\n            /* \"#utility.yul\":2010:2122   */\n          iszero\n          tag_71\n          jumpi\n            /* \"#utility.yul\":2041:2120   */\n          tag_72\n          tag_16\n          jump\t// in\n        tag_72:\n            /* \"#utility.yul\":2010:2122   */\n        tag_71:\n            /* \"#utility.yul\":2131:2183   */\n          tag_73\n            /* \"#utility.yul\":2176:2182   */\n          dup5\n            /* \"#utility.yul\":2171:2174   */\n          dup3\n            /* \"#utility.yul\":2166:2169   */\n          dup6\n            /* \"#utility.yul\":2131:2183   */\n          tag_22\n          jump\t// in\n        tag_73:\n            /* \"#utility.yul\":1850:2189   */\n          pop\n            /* \"#utility.yul\":1755:2189   */\n          swap4\n          swap3\n          pop\n          pop\n          pop\n          jump\t// out\n            /* \"#utility.yul\":2209:2564   */\n        tag_24:\n            /* \"#utility.yul\":2276:2281   */\n          0x00\n            /* \"#utility.yul\":2325:2328   */\n          dup3\n            /* \"#utility.yul\":2318:2322   */\n          0x1f\n            /* \"#utility.yul\":2310:2316   */\n          dup4\n            /* \"#utility.yul\":2306:2323   */\n          add\n            /* \"#utility.yul\":2302:2329   */\n          slt\n            /* \"#utility.yul\":2292:2414   */\n          tag_75\n          jumpi\n            /* \"#utility.yul\":2333:2412   */\n          tag_76\n          tag_15\n          jump\t// in\n        tag_76:\n            /* \"#utility.yul\":2292:2414   */\n        tag_75:\n            /* \"#utility.yul\":2443:2449   */\n          dup2\n            /* \"#utility.yul\":2437:2450   */\n          mload\n            /* \"#utility.yul\":2468:2558   */\n          tag_77\n            /* \"#utility.yul\":2554:2557   */\n          dup5\n            /* \"#utility.yul\":2546:2552   */\n          dup3\n            /* \"#utility.yul\":2539:2543   */\n          0x20\n            /* \"#utility.yul\":2531:2537   */\n          dup7\n            /* \"#utility.yul\":2527:2544   */\n          add\n            /* \"#utility.yul\":2468:2558   */\n          tag_23\n          jump\t// in\n        tag_77:\n            /* \"#utility.yul\":2459:2558   */\n          swap2\n          pop\n            /* \"#utility.yul\":2282:2564   */\n          pop\n            /* \"#utility.yul\":2209:2564   */\n          swap3\n          swap2\n          pop\n          pop\n          jump\t// out\n            /* \"#utility.yul\":2570:2696   */\n        tag_25:\n            /* \"#utility.yul\":2607:2614   */\n          0x00\n            /* \"#utility.yul\":2647:2689   */\n          0xffffffffffffffffffffffffffffffffffffffff\n            /* \"#utility.yul\":2640:2645   */\n          dup3\n            /* \"#utility.yul\":2636:2690   */\n          and\n            /* \"#utility.yul\":2625:2690   */\n          swap1\n          pop\n            /* \"#utility.yul\":2570:2696   */\n          swap2\n          swap1\n          pop\n          jump\t// out\n            /* \"#utility.yul\":2702:2798   */\n        tag_26:\n            /* \"#utility.yul\":2739:2746   */\n          0x00\n            /* \"#utility.yul\":2768:2792   */\n          tag_80\n            /* \"#utility.yul\":2786:2791   */\n          dup3\n            /* \"#utility.yul\":2768:2792   */\n          tag_25\n          jump\t// in\n        tag_80:\n            /* \"#utility.yul\":2757:2792   */\n          swap1\n          pop\n            /* \"#utility.yul\":2702:2798   */\n          swap2\n          swap1\n          pop\n          jump\t// out\n            /* \"#utility.yul\":2804:2926   */\n        tag_27:\n            /* \"#utility.yul\":2877:2901   */\n          tag_82\n            /* \"#utility.yul\":2895:2900   */\n          dup2\n            /* \"#utility.yul\":2877:2901   */\n          tag_26\n          jump\t// in\n        tag_82:\n            /* \"#utility.yul\":2870:2875   */\n          dup2\n            /* \"#utility.yul\":2867:2902   */\n          eq\n            /* \"#utility.yul\":2857:2920   */\n          tag_83\n          jumpi\n            /* \"#utility.yul\":2916:2917   */\n          0x00\n            /* \"#utility.yul\":2913:2914   */\n          dup1\n            /* \"#utility.yul\":2906:2918   */\n          revert\n            /* \"#utility.yul\":2857:2920   */\n        tag_83:\n            /* \"#utility.yul\":2804:2926   */\n          pop\n          jump\t// out\n            /* \"#utility.yul\":2932:3075   */\n        tag_28:\n            /* \"#utility.yul\":2989:2994   */\n          0x00\n            /* \"#utility.yul\":3020:3026   */\n          dup2\n            /* \"#utility.yul\":3014:3027   */\n          mload\n            /* \"#utility.yul\":3005:3027   */\n          swap1\n          pop\n            /* \"#utility.yul\":3036:3069   */\n          tag_85\n            /* \"#utility.yul\":3063:3068   */\n          dup2\n            /* \"#utility.yul\":3036:3069   */\n          tag_27\n          jump\t// in\n        tag_85:\n            /* \"#utility.yul\":2932:3075   */\n          swap3\n          swap2\n          pop\n          pop\n          jump\t// out\n            /* \"#utility.yul\":3081:4090   */\n        tag_3:\n            /* \"#utility.yul\":3189:3195   */\n          0x00\n            /* \"#utility.yul\":3197:3203   */\n          dup1\n            /* \"#utility.yul\":3205:3211   */\n          0x00\n            /* \"#utility.yul\":3254:3256   */\n          0x60\n            /* \"#utility.yul\":3242:3251   */\n          dup5\n            /* \"#utility.yul\":3233:3240   */\n          dup7\n            /* \"#utility.yul\":3229:3252   */\n          sub\n            /* \"#utility.yul\":3225:3257   */\n          slt\n            /* \"#utility.yul\":3222:3341   */\n          iszero\n          tag_87\n          jumpi\n            /* \"#utility.yul\":3260:3339   */\n          tag_88\n          tag_13\n          jump\t// in\n        tag_88:\n            /* \"#utility.yul\":3222:3341   */\n        tag_87:\n            /* \"#utility.yul\":3401:3402   */\n          0x00\n            /* \"#utility.yul\":3390:3399   */\n          dup5\n            /* \"#utility.yul\":3386:3403   */\n          add\n            /* \"#utility.yul\":3380:3404   */\n          mload\n            /* \"#utility.yul\":3431:3449   */\n          0xffffffffffffffff\n            /* \"#utility.yul\":3423:3429   */\n          dup2\n            /* \"#utility.yul\":3420:3450   */\n          gt\n            /* \"#utility.yul\":3417:3534   */\n          iszero\n          tag_89\n          jumpi\n            /* \"#utility.yul\":3453:3532   */\n          tag_90\n          tag_14\n          jump\t// in\n        tag_90:\n            /* \"#utility.yul\":3417:3534   */\n        tag_89:\n            /* \"#utility.yul\":3558:3632   */\n          tag_91\n            /* \"#utility.yul\":3624:3631   */\n          dup7\n            /* \"#utility.yul\":3615:3621   */\n          dup3\n            /* \"#utility.yul\":3604:3613   */\n          dup8\n            /* \"#utility.yul\":3600:3622   */\n          add\n            /* \"#utility.yul\":3558:3632   */\n          tag_24\n          jump\t// in\n        tag_91:\n            /* \"#utility.yul\":3548:3632   */\n          swap4\n          pop\n            /* \"#utility.yul\":3351:3642   */\n          pop\n            /* \"#utility.yul\":3702:3704   */\n          0x20\n            /* \"#utility.yul\":3691:3700   */\n          dup5\n            /* \"#utility.yul\":3687:3705   */\n          add\n            /* \"#utility.yul\":3681:3706   */\n          mload\n            /* \"#utility.yul\":3733:3751   */\n          0xffffffffffffffff\n            /* \"#utility.yul\":3725:3731   */\n          dup2\n            /* \"#utility.yul\":3722:3752   */\n          gt\n            /* \"#utility.yul\":3719:3836   */\n          iszero\n          tag_92\n          jumpi\n            /* \"#utility.yul\":3755:3834   */\n          tag_93\n          tag_14\n          jump\t// in\n        tag_93:\n            /* \"#utility.yul\":3719:3836   */\n        tag_92:\n            /* \"#utility.yul\":3860:3934   */\n          tag_94\n            /* \"#utility.yul\":3926:3933   */\n          dup7\n            /* \"#utility.yul\":3917:3923   */\n          dup3\n            /* \"#utility.yul\":3906:3915   */\n          dup8\n            /* \"#utility.yul\":3902:3924   */\n          add\n            /* \"#utility.yul\":3860:3934   */\n          tag_24\n          jump\t// in\n        tag_94:\n            /* \"#utility.yul\":3850:3934   */\n          swap3\n          pop\n            /* \"#utility.yul\":3652:3944   */\n          pop\n            /* \"#utility.yul\":3983:3985   */\n          0x40\n            /* \"#utility.yul\":4009:4073   */\n          tag_95\n            /* \"#utility.yul\":4065:4072   */\n          dup7\n            /* \"#utility.yul\":4056:4062   */\n          dup3\n            /* \"#utility.yul\":4045:4054   */\n          dup8\n            /* \"#utility.yul\":4041:4063   */\n          add\n            /* \"#utility.yul\":4009:4073   */\n          tag_28\n          jump\t// in\n        tag_95:\n            /* \"#utility.yul\":3999:4073   */\n          swap2\n          pop\n            /* \"#utility.yul\":3954:4083   */\n          pop\n            /* \"#utility.yul\":3081:4090   */\n          swap3\n          pop\n          swap3\n          pop\n          swap3\n          jump\t// out\n            /* \"#utility.yul\":4096:4195   */\n        tag_29:\n            /* \"#utility.yul\":4148:4154   */\n          0x00\n            /* \"#utility.yul\":4182:4187   */\n          dup2\n            /* \"#utility.yul\":4176:4188   */\n          mload\n            /* \"#utility.yul\":4166:4188   */\n          swap1\n          pop\n            /* \"#utility.yul\":4096:4195   */\n          swap2\n          swap1\n          pop\n          jump\t// out\n            /* \"#utility.yul\":4201:4381   */\n        tag_30:\n            /* \"#utility.yul\":4249:4326   */\n          0x4e487b7100000000000000000000000000000000000000000000000000000000\n            /* \"#utility.yul\":4246:4247   */\n          0x00\n            /* \"#utility.yul\":4239:4327   */\n          mstore\n            /* \"#utility.yul\":4346:4350   */\n          0x22\n            /* \"#utility.yul\":4343:4344   */\n          0x04\n            /* \"#utility.yul\":4336:4351   */\n          mstore\n            /* \"#utility.yul\":4370:4374   */\n          0x24\n            /* \"#utility.yul\":4367:4368   */\n          0x00\n            /* \"#utility.yul\":4360:4375   */\n          revert\n            /* \"#utility.yul\":4387:4707   */\n        tag_31:\n            /* \"#utility.yul\":4431:4437   */\n          0x00\n            /* \"#utility.yul\":4468:4469   */\n          0x02\n            /* \"#utility.yul\":4462:4466   */\n          dup3\n            /* \"#utility.yul\":4458:4470   */\n          div\n            /* \"#utility.yul\":4448:4470   */\n          swap1\n          pop\n            /* \"#utility.yul\":4515:4516   */\n          0x01\n            /* \"#utility.yul\":4509:4513   */\n          dup3\n            /* \"#utility.yul\":4505:4517   */\n          and\n            /* \"#utility.yul\":4536:4554   */\n          dup1\n            /* \"#utility.yul\":4526:4607   */\n          tag_99\n          jumpi\n            /* \"#utility.yul\":4592:4596   */\n          0x7f\n            /* \"#utility.yul\":4584:4590   */\n          dup3\n            /* \"#utility.yul\":4580:4597   */\n          and\n            /* \"#utility.yul\":4570:4597   */\n          swap2\n          pop\n            /* \"#utility.yul\":4526:4607   */\n        tag_99:\n            /* \"#utility.yul\":4654:4656   */\n          0x20\n            /* \"#utility.yul\":4646:4652   */\n          dup3\n            /* \"#utility.yul\":4643:4657   */\n          lt\n            /* \"#utility.yul\":4623:4641   */\n          dup2\n            /* \"#utility.yul\":4620:4658   */\n          sub\n            /* \"#utility.yul\":4617:4701   */\n          tag_100\n          jumpi\n            /* \"#utility.yul\":4673:4691   */\n          tag_101\n          tag_30\n          jump\t// in\n        tag_101:\n            /* \"#utility.yul\":4617:4701   */\n        tag_100:\n            /* \"#utility.yul\":4438:4707   */\n          pop\n            /* \"#utility.yul\":4387:4707   */\n          swap2\n          swap1\n          pop\n          jump\t// out\n            /* \"#utility.yul\":4713:4854   */\n        tag_32:\n            /* \"#utility.yul\":4762:4766   */\n          0x00\n            /* \"#utility.yul\":4785:4788   */\n          dup2\n            /* \"#utility.yul\":4777:4788   */\n          swap1\n          pop\n            /* \"#utility.yul\":4808:4811   */\n          dup2\n            /* \"#utility.yul\":4805:4806   */\n          0x00\n            /* \"#utility.yul\":4798:4812   */\n          mstore\n            /* \"#utility.yul\":4842:4846   */\n          0x20\n            /* \"#utility.yul\":4839:4840   */\n          0x00\n            /* \"#utility.yul\":4829:4847   */\n          keccak256\n            /* \"#utility.yul\":4821:4847   */\n          swap1\n          pop\n            /* \"#utility.yul\":4713:4854   */\n          swap2\n          swap1\n          pop\n          jump\t// out\n            /* \"#utility.yul\":4860:4953   */\n        tag_33:\n            /* \"#utility.yul\":4897:4903   */\n          0x00\n            /* \"#utility.yul\":4944:4946   */\n          0x20\n            /* \"#utility.yul\":4939:4941   */\n          0x1f\n            /* \"#utility.yul\":4932:4937   */\n          dup4\n            /* \"#utility.yul\":4928:4942   */\n          add\n            /* \"#utility.yul\":4924:4947   */\n          div\n            /* \"#utility.yul\":4914:4947   */\n          swap1\n          pop\n            /* \"#utility.yul\":4860:4953   */\n          swap2\n          swap1\n          pop\n          jump\t// out\n            /* \"#utility.yul\":4959:5066   */\n        tag_34:\n            /* \"#utility.yul\":5003:5011   */\n          0x00\n            /* \"#utility.yul\":5053:5058   */\n          dup3\n            /* \"#utility.yul\":5047:5051   */\n          dup3\n            /* \"#utility.yul\":5043:5059   */\n          shl\n            /* \"#utility.yul\":5022:5059   */\n          swap1\n          pop\n            /* \"#utility.yul\":4959:5066   */\n          swap3\n          swap2\n          pop\n          pop\n          jump\t// out\n            /* \"#utility.yul\":5072:5465   */\n        tag_35:\n            /* \"#utility.yul\":5141:5147   */\n          0x00\n            /* \"#utility.yul\":5191:5192   */\n          0x08\n            /* \"#utility.yul\":5179:5189   */\n          dup4\n            /* \"#utility.yul\":5175:5193   */\n          mul\n            /* \"#utility.yul\":5214:5311   */\n          tag_106\n            /* \"#utility.yul\":5244:5310   */\n          0xffffffffffffffffffffffffffffffffffffffffffffffffffffffffffffffff\n            /* \"#utility.yul\":5233:5242   */\n          dup3\n            /* \"#utility.yul\":5214:5311   */\n          tag_34\n          jump\t// in\n        tag_106:\n            /* \"#utility.yul\":5332:5371   */\n          tag_107\n            /* \"#utility.yul\":5362:5370   */\n          dup7\n            /* \"#utility.yul\":5351:5360   */\n          dup4\n            /* \"#utility.yul\":5332:5371   */\n          tag_34\n          jump\t// in\n        tag_107:\n            /* \"#utility.yul\":5320:5371   */\n          swap6\n          pop\n            /* \"#utility.yul\":5404:5408   */\n          dup1\n            /* \"#utility.yul\":5400:5409   */\n          not\n            /* \"#utility.yul\":5393:5398   */\n          dup5\n            /* \"#utility.yul\":5389:5410   */\n          and\n            /* \"#utility.yul\":5380:5410   */\n          swap4\n          pop\n            /* \"#utility.yul\":5453:5457   */\n          dup1\n            /* \"#utility.yul\":5443:5451   */\n          dup7\n            /* \"#utility.yul\":5439:5458   */\n          and\n            /* \"#utility.yul\":5432:5437   */\n          dup5\n            /* \"#utility.yul\":5429:5459   */\n          or\n            /* \"#utility.yul\":5419:5459   */\n          swap3\n          pop\n            /* \"#utility.yul\":5148:5465   */\n          pop\n          pop\n            /* \"#utility.yul\":5072:5465   */\n          swap4\n          swap3\n          pop\n          pop\n          pop\n          jump\t// out\n            /* \"#utility.yul\":5471:5548   */\n        tag_36:\n            /* \"#utility.yul\":5508:5515   */\n          0x00\n            /* \"#utility.yul\":5537:5542   */\n          dup2\n            /* \"#utility.yul\":5526:5542   */\n          swap1\n          pop\n            /* \"#utility.yul\":5471:5548   */\n          swap2\n          swap1\n          pop\n          jump\t// out\n            /* \"#utility.yul\":5554:5614   */\n        tag_37:\n            /* \"#utility.yul\":5582:5585   */\n          0x00\n            /* \"#utility.yul\":5603:5608   */\n          dup2\n            /* \"#utility.yul\":5596:5608   */\n          swap1\n          pop\n            /* \"#utility.yul\":5554:5614   */\n          swap2\n          swap1\n          pop\n          jump\t// out\n            /* \"#utility.yul\":5620:5762   */\n        tag_38:\n            /* \"#utility.yul\":5670:5679   */\n          0x00\n            /* \"#utility.yul\":5703:5756   */\n          tag_111\n            /* \"#utility.yul\":5721:5755   */\n          tag_112\n            /* \"#utility.yul\":5730:5754   */\n          tag_113\n            /* \"#utility.yul\":5748:5753   */\n          dup5\n            /* \"#utility.yul\":5730:5754   */\n          tag_36\n          jump\t// in\n        tag_113:\n            /* \"#utility.yul\":5721:5755   */\n          tag_37\n          jump\t// in\n        tag_112:\n            /* \"#utility.yul\":5703:5756   */\n          tag_36\n          jump\t// in\n        tag_111:\n            /* \"#utility.yul\":5690:5756   */\n          swap1\n          pop\n            /* \"#utility.yul\":5620:5762   */\n          swap2\n          swap1\n          pop\n          jump\t// out\n            /* \"#utility.yul\":5768:5843   */\n        tag_39:\n            /* \"#utility.yul\":5811:5814   */\n          0x00\n            /* \"#utility.yul\":5832:5837   */\n          dup2\n            /* \"#utility.yul\":5825:5837   */\n          swap1\n          pop\n            /* \"#utility.yul\":5768:5843   */\n          swap2\n          swap1\n          pop\n          jump\t// out\n            /* \"#utility.yul\":5849:6118   */\n        tag_40:\n            /* \"#utility.yul\":5959:5998   */\n          tag_116\n            /* \"#utility.yul\":5990:5997   */\n          dup4\n            /* \"#utility.yul\":5959:5998   */\n          tag_38\n          jump\t// in\n        tag_116:\n            /* \"#utility.yul\":6020:6111   */\n          tag_117\n            /* \"#utility.yul\":6069:6110   */\n          tag_118\n            /* \"#utility.yul\":6093:6109   */\n          dup3\n            /* \"#utility.yul\":6069:6110   */\n          tag_39\n          jump\t// in\n        tag_118:\n            /* \"#utility.yul\":6061:6067   */\n          dup5\n            /* \"#utility.yul\":6054:6058   */\n          dup5\n            /* \"#utility.yul\":6048:6059   */\n          sload\n            /* \"#utility.yul\":6020:6111   */\n          tag_35\n          jump\t// in\n        tag_117:\n            /* \"#utility.yul\":6014:6018   */\n          dup3\n            /* \"#utility.yul\":6007:6112   */\n          sstore\n            /* \"#utility.yul\":5925:6118   */\n          pop\n            /* \"#utility.yul\":5849:6118   */\n          pop\n          pop\n          pop\n          jump\t// out\n            /* \"#utility.yul\":6124:6197   */\n        tag_41:\n            /* \"#utility.yul\":6169:6172   */\n          0x00\n            /* \"#utility.yul\":6124:6197   */\n          swap1\n          jump\t// out\n            /* \"#utility.yul\":6203:6392   */\n        tag_42:\n            /* \"#utility.yul\":6280:6312   */\n          tag_121\n          tag_41\n          jump\t// in\n        tag_121:\n            /* \"#utility.yul\":6321:6386   */\n          tag_122\n            /* \"#utility.yul\":6379:6385   */\n          dup2\n            /* \"#utility.yul\":6371:6377   */\n          dup5\n            /* \"#utility.yul\":6365:6369   */\n          dup5\n            /* \"#utility.yul\":6321:6386   */\n          tag_40\n          jump\t// in\n        tag_122:\n            /* \"#utility.yul\":6256:6392   */\n          pop\n            /* \"#utility.yul\":6203:6392   */\n          pop\n          pop\n          jump\t// out\n            /* \"#utility.yul\":6398:6584   */\n        tag_43:\n            /* \"#utility.yul\":6458:6578   */\n        tag_124:\n            /* \"#utility.yul\":6475:6478   */\n          dup2\n            /* \"#utility.yul\":6468:6473   */\n          dup2\n            /* \"#utility.yul\":6465:6479   */\n          lt\n            /* \"#utility.yul\":6458:6578   */\n          iszero\n          tag_126\n          jumpi\n            /* \"#utility.yul\":6529:6568   */\n          tag_127\n            /* \"#utility.yul\":6566:6567   */\n          0x00\n            /* \"#utility.yul\":6559:6564   */\n          dup3\n            /* \"#utility.yul\":6529:6568   */\n          tag_42\n          jump\t// in\n        tag_127:\n            /* \"#utility.yul\":6502:6503   */\n          0x01\n            /* \"#utility.yul\":6495:6500   */\n          dup2\n            /* \"#utility.yul\":6491:6504   */\n          add\n            /* \"#utility.yul\":6482:6504   */\n          swap1\n          pop\n            /* \"#utility.yul\":6458:6578   */\n          jump(tag_124)\n        tag_126:\n            /* \"#utility.yul\":6398:6584   */\n          pop\n          pop\n          jump\t// out\n            /* \"#utility.yul\":6590:7133   */\n        tag_44:\n            /* \"#utility.yul\":6691:6693   */\n          0x1f\n            /* \"#utility.yul\":6686:6689   */\n          dup3\n            /* \"#utility.yul\":6683:6694   */\n          gt\n            /* \"#utility.yul\":6680:7126   */\n          iszero\n          tag_129\n          jumpi\n            /* \"#utility.yul\":6725:6763   */\n          tag_130\n            /* \"#utility.yul\":6757:6762   */\n          dup2\n            /* \"#utility.yul\":6725:6763   */\n          tag_32\n          jump\t// in\n        tag_130:\n            /* \"#utility.yul\":6809:6838   */\n          tag_131\n            /* \"#utility.yul\":6827:6837   */\n          dup5\n            /* \"#utility.yul\":6809:6838   */\n          tag_33\n          jump\t// in\n        tag_131:\n            /* \"#utility.yul\":6799:6807   */\n          dup2\n            /* \"#utility.yul\":6795:6839   */\n          add\n            /* \"#utility.yul\":6992:6994   */\n          0x20\n            /* \"#utility.yul\":6980:6990   */\n          dup6\n            /* \"#utility.yul\":6977:6995   */\n          lt\n            /* \"#utility.yul\":6974:7023   */\n          iszero\n          tag_132\n          jumpi\n            /* \"#utility.yul\":7013:7021   */\n          dup2\n            /* \"#utility.yul\":6998:7021   */\n          swap1\n          pop\n            /* \"#utility.yul\":6974:7023   */\n        tag_132:\n            /* \"#utility.yul\":7036:7116   */\n          tag_133\n            /* \"#utility.yul\":7092:7114   */\n          tag_134\n            /* \"#utility.yul\":7110:7113   */\n          dup6\n            /* \"#utility.yul\":7092:7114   */\n          tag_33\n          jump\t// in\n        tag_134:\n            /* \"#utility.yul\":7082:7090   */\n          dup4\n            /* \"#utility.yul\":7078:7115   */\n          add\n            /* \"#utility.yul\":7065:7076   */\n          dup3\n            /* \"#utility.yul\":7036:7116   */\n          tag_43\n          jump\t// in\n        tag_133:\n            /* \"#utility.yul\":6695:7126   */\n          pop\n          pop\n            /* \"#utility.yul\":6680:7126   */\n        tag_129:\n            /* \"#utility.yul\":6590:7133   */\n          pop\n          pop\n          pop\n          jump\t// out\n            /* \"#utility.yul\":7139:7256   */\n        tag_45:\n            /* \"#utility.yul\":7193:7201   */\n          0x00\n            /* \"#utility.yul\":7243:7248   */\n          dup3\n            /* \"#utility.yul\":7237:7241   */\n          dup3\n            /* \"#utility.yul\":7233:7249   */\n          shr\n            /* \"#utility.yul\":7212:7249   */\n          swap1\n          pop\n            /* \"#utility.yul\":7139:7256   */\n          swap3\n          swap2\n          pop\n          pop\n          jump\t// out\n            /* \"#utility.yul\":7262:7431   */\n        tag_46:\n            /* \"#utility.yul\":7306:7312   */\n          0x00\n            /* \"#utility.yul\":7339:7390   */\n          tag_137\n            /* \"#utility.yul\":7387:7388   */\n          0x00\n            /* \"#utility.yul\":7383:7389   */\n          not\n            /* \"#utility.yul\":7375:7380   */\n          dup5\n            /* \"#utility.yul\":7372:7373   */\n          0x08\n            /* \"#utility.yul\":7368:7381   */\n          mul\n            /* \"#utility.yul\":7339:7390   */\n          tag_45\n          jump\t// in\n        tag_137:\n            /* \"#utility.yul\":7335:7391   */\n          not\n            /* \"#utility.yul\":7420:7424   */\n          dup1\n            /* \"#utility.yul\":7414:7418   */\n          dup4\n            /* \"#utility.yul\":7410:7425   */\n          and\n            /* \"#utility.yul\":7400:7425   */\n          swap2\n          pop\n            /* \"#utility.yul\":7313:7431   */\n          pop\n            /* \"#utility.yul\":7262:7431   */\n          swap3\n          swap2\n          pop\n          pop\n          jump\t// out\n            /* \"#utility.yul\":7436:7731   */\n        tag_47:\n            /* \"#utility.yul\":7512:7516   */\n          0x00\n            /* \"#utility.yul\":7658:7687   */\n          tag_139\n            /* \"#utility.yul\":7683:7686   */\n          dup4\n            /* \"#utility.yul\":7677:7681   */\n          dup4\n            /* \"#utility.yul\":7658:7687   */\n          tag_46\n          jump\t// in\n        tag_139:\n            /* \"#utility.yul\":7650:7687   */\n          swap2\n          pop\n            /* \"#utility.yul\":7720:7723   */\n          dup3\n            /* \"#utility.yul\":7717:7718   */\n          0x02\n            /* \"#utility.yul\":7713:7724   */\n          mul\n            /* \"#utility.yul\":7707:7711   */\n          dup3\n            /* \"#utility.yul\":7704:7725   */\n          or\n            /* \"#utility.yul\":7696:7725   */\n          swap1\n          pop\n            /* \"#utility.yul\":7436:7731   */\n          swap3\n          swap2\n          pop\n          pop\n          jump\t// out\n            /* \"#utility.yul\":7736:9131   */\n        tag_8:\n            /* \"#utility.yul\":7853:7890   */\n          tag_141\n            /* \"#utility.yul\":7886:7889   */\n          dup3\n            /* \"#utility.yul\":7853:7890   */\n          tag_29\n          jump\t// in\n        tag_141:\n            /* \"#utility.yul\":7955:7973   */\n          0xffffffffffffffff\n            /* \"#utility.yul\":7947:7953   */\n          dup2\n            /* \"#utility.yul\":7944:7974   */\n          gt\n            /* \"#utility.yul\":7941:7997   */\n          iszero\n          tag_142\n          jumpi\n            /* \"#utility.yul\":7977:7995   */\n          tag_143\n          tag_18\n          jump\t// in\n        tag_143:\n            /* \"#utility.yul\":7941:7997   */\n        tag_142:\n            /* \"#utility.yul\":8021:8059   */\n          tag_144\n            /* \"#utility.yul\":8053:8057   */\n          dup3\n            /* \"#utility.yul\":8047:8058   */\n          sload\n            /* \"#utility.yul\":8021:8059   */\n          tag_31\n          jump\t// in\n        tag_144:\n            /* \"#utility.yul\":8106:8173   */\n          tag_145\n            /* \"#utility.yul\":8166:8172   */\n          dup3\n            /* \"#utility.yul\":8158:8164   */\n          dup3\n            /* \"#utility.yul\":8152:8156   */\n          dup6\n            /* \"#utility.yul\":8106:8173   */\n          tag_44\n          jump\t// in\n        tag_145:\n            /* \"#utility.yul\":8200:8201   */\n          0x00\n            /* \"#utility.yul\":8224:8228   */\n          0x20\n            /* \"#utility.yul\":8211:8228   */\n          swap1\n          pop\n            /* \"#utility.yul\":8256:8258   */\n          0x1f\n            /* \"#utility.yul\":8248:8254   */\n          dup4\n            /* \"#utility.yul\":8245:8259   */\n          gt\n            /* \"#utility.yul\":8273:8274   */\n          0x01\n            /* \"#utility.yul\":8268:8886   */\n          dup2\n          eq\n          tag_147\n          jumpi\n            /* \"#utility.yul\":8930:8931   */\n          0x00\n            /* \"#utility.yul\":8947:8953   */\n          dup5\n            /* \"#utility.yul\":8944:9021   */\n          iszero\n          tag_148\n          jumpi\n            /* \"#utility.yul\":8996:9005   */\n          dup3\n            /* \"#utility.yul\":8991:8994   */\n          dup8\n            /* \"#utility.yul\":8987:9006   */\n          add\n            /* \"#utility.yul\":8981:9007   */\n          mload\n            /* \"#utility.yul\":8972:9007   */\n          swap1\n          pop\n            /* \"#utility.yul\":8944:9021   */\n        tag_148:\n            /* \"#utility.yul\":9047:9114   */\n          tag_149\n            /* \"#utility.yul\":9107:9113   */\n          dup6\n            /* \"#utility.yul\":9100:9105   */\n          dup3\n            /* \"#utility.yul\":9047:9114   */\n          tag_47\n          jump\t// in\n        tag_149:\n            /* \"#utility.yul\":9041:9045   */\n          dup7\n            /* \"#utility.yul\":9034:9115   */\n          sstore\n            /* \"#utility.yul\":8903:9125   */\n          pop\n            /* \"#utility.yul\":8238:9125   */\n          jump(tag_146)\n            /* \"#utility.yul\":8268:8886   */\n        tag_147:\n            /* \"#utility.yul\":8320:8324   */\n          0x1f\n            /* \"#utility.yul\":8316:8325   */\n          not\n            /* \"#utility.yul\":8308:8314   */\n          dup5\n            /* \"#utility.yul\":8304:8326   */\n          and\n            /* \"#utility.yul\":8354:8391   */\n          tag_150\n            /* \"#utility.yul\":8386:8390   */\n          dup7\n            /* \"#utility.yul\":8354:8391   */\n          tag_32\n          jump\t// in\n        tag_150:\n            /* \"#utility.yul\":8413:8414   */\n          0x00\n            /* \"#utility.yul\":8427:8635   */\n        tag_151:\n            /* \"#utility.yul\":8441:8448   */\n          dup3\n            /* \"#utility.yul\":8438:8439   */\n          dup2\n            /* \"#utility.yul\":8435:8449   */\n          lt\n            /* \"#utility.yul\":8427:8635   */\n          iszero\n          tag_153\n          jumpi\n            /* \"#utility.yul\":8520:8529   */\n          dup5\n            /* \"#utility.yul\":8515:8518   */\n          dup10\n            /* \"#utility.yul\":8511:8530   */\n          add\n            /* \"#utility.yul\":8505:8531   */\n          mload\n            /* \"#utility.yul\":8497:8503   */\n          dup3\n            /* \"#utility.yul\":8490:8532   */\n          sstore\n            /* \"#utility.yul\":8571:8572   */\n          0x01\n            /* \"#utility.yul\":8563:8569   */\n          dup3\n            /* \"#utility.yul\":8559:8573   */\n          add\n            /* \"#utility.yul\":8549:8573   */\n          swap2\n          pop\n            /* \"#utility.yul\":8618:8620   */\n          0x20\n            /* \"#utility.yul\":8607:8616   */\n          dup6\n            /* \"#utility.yul\":8603:8621   */\n          add\n            /* \"#utility.yul\":8590:8621   */\n          swap5\n          pop\n            /* \"#utility.yul\":8464:8468   */\n          0x20\n            /* \"#utility.yul\":8461:8462   */\n          dup2\n            /* \"#utility.yul\":8457:8469   */\n          add\n            /* \"#utility.yul\":8452:8469   */\n          swap1\n          pop\n            /* \"#utility.yul\":8427:8635   */\n          jump(tag_151)\n        tag_153:\n            /* \"#utility.yul\":8663:8669   */\n          dup7\n            /* \"#utility.yul\":8654:8661   */\n          dup4\n            /* \"#utility.yul\":8651:8670   */\n          lt\n            /* \"#utility.yul\":8648:8827   */\n          iszero\n          tag_154\n          jumpi\n            /* \"#utility.yul\":8721:8730   */\n          dup5\n            /* \"#utility.yul\":8716:8719   */\n          dup10\n            /* \"#utility.yul\":8712:8731   */\n          add\n            /* \"#utility.yul\":8706:8732   */\n          mload\n            /* \"#utility.yul\":8764:8812   */\n          tag_155\n            /* \"#utility.yul\":8806:8810   */\n          0x1f\n            /* \"#utility.yul\":8798:8804   */\n          dup10\n            /* \"#utility.yul\":8794:8811   */\n          and\n            /* \"#utility.yul\":8783:8792   */\n          dup3\n            /* \"#utility.yul\":8764:8812   */\n          tag_46\n          jump\t// in\n        tag_155:\n            /* \"#utility.yul\":8756:8762   */\n          dup4\n            /* \"#utility.yul\":8749:8813   */\n          sstore\n            /* \"#utility.yul\":8671:8827   */\n          pop\n            /* \"#utility.yul\":8648:8827   */\n        tag_154:\n            /* \"#utility.yul\":8873:8874   */\n          0x01\n            /* \"#utility.yul\":8869:8870   */\n          0x02\n            /* \"#utility.yul\":8861:8867   */\n          dup9\n            /* \"#utility.yul\":8857:8871   */\n          mul\n            /* \"#utility.yul\":8853:8875   */\n          add\n            /* \"#utility.yul\":8847:8851   */\n          dup9\n            /* \"#utility.yul\":8840:8876   */\n          sstore\n            /* \"#utility.yul\":8275:8886   */\n          pop\n          pop\n          pop\n            /* \"#utility.yul\":8238:9125   */\n        tag_146:\n          pop\n            /* \"#utility.yul\":7828:9131   */\n          pop\n          pop\n          pop\n            /* \"#utility.yul\":7736:9131   */\n          pop\n          pop\n          jump\t// out\n            /* \"contracts/Tokens.sol\":4225:4755  contract CreatorToken is ERC20 {... */\n        tag_11:\n          dataSize(sub_0)\n          dup1\n          dataOffset(sub_0)\n          0x00\n          codecopy\n          0x00\n          return\n        stop\n\n        sub_0: assembly {\n                /* \"contracts/Tokens.sol\":4225:4755  contract CreatorToken is ERC20 {... */\n              mstore(0x40, 0x80)\n              callvalue\n              dup1\n              iszero\n              tag_1\n              jumpi\n              0x00\n              dup1\n              revert\n            tag_1:\n              pop\n              jumpi(tag_2, lt(calldatasize, 0x04))\n              shr(0xe0, calldataload(0x00))\n              dup1\n              0x40c10f19\n              gt\n              tag_15\n              jumpi\n              dup1\n              0x40c10f19\n              eq\n              tag_9\n              jumpi\n              dup1\n              0x70a08231\n              eq\n              tag_10\n              jumpi\n              dup1\n              0x95d89b41\n              eq\n              tag_11\n              jumpi\n              dup1\n              0x9dc29fac\n              eq\n              tag_12\n              jumpi\n              dup1\n              0xa9059cbb\n              eq\n              tag_13\n              jumpi\n              dup1\n              0xdd62ed3e\n              eq\n              tag_14\n              jumpi\n              jump(tag_2)\n            tag_15:\n              dup1\n              0x02d05d3f\n              eq\n              tag_3\n              jumpi\n              dup1\n              0x06fdde03\n              eq\n              tag_4\n              jumpi\n              dup1\n              0x095ea7b3\n              eq\n              tag_5\n              jumpi\n              dup1\n              0x18160ddd\n              eq\n              tag_6\n              jumpi\n              dup1\n              0x23b872dd\n              eq\n              tag_7\n              jumpi\n              dup1\n              0x313ce567\n              eq\n              tag_8\n              jumpi\n            tag_2:\n              0x00\n              dup1\n              revert\n                /* \"contracts/Tokens.sol\":4263:4285  address public creator */\n            tag_3:\n              tag_16\n              tag_17\n              jump\t// in\n            tag_16:\n              mload(0x40)\n              tag_18\n              swap2\n              swap1\n              tag_19\n              jump\t// in\n            tag_18:\n              mload(0x40)\n              dup1\n              swap2\n              sub\n              swap1\n              return\n                /* \"@openzeppelin/contracts/token/ERC20/ERC20.sol\":1779:1868  function name() public view virtual returns (string memory) {... */\n            tag_4:\n              tag_20\n              tag_21\n              jump\t// in\n            tag_20:\n              mload(0x40)\n              tag_22\n              swap2\n              swap1\n              tag_23\n              jump\t// in\n            tag_22:\n              mload(0x40)\n              dup1\n              swap2\n              sub\n              swap1\n              return\n                /* \"@openzeppelin/contracts/token/ERC20/ERC20.sol\":3998:4184  function approve(address spender, uint256 value) public virtual returns (bool) {... */\n            tag_5:\n              tag_24\n              0x04\n              dup1\n              calldatasize\n              sub\n              dup2\n              add\n              swap1\n              tag_25\n              swap2\n              swap1\n              tag_26\n              jump\t// in\n            tag_25:\n              tag_27\n              jump\t// in\n            tag_24:\n              mload(0x40)\n              tag_28\n              swap2\n              swap1\n              tag_29\n              jump\t// in\n            tag_28:\n              mload(0x40)\n              dup1\n              swap2\n              sub\n              swap1\n              return\n                /* \"@openzeppelin/contracts/token/ERC20/ERC20.sol\":2849:2946  function totalSupply() public view virtual returns (uint256) {... */\n            tag_6:\n              tag_30\n              tag_31\n              jump\t// in\n            tag_30:\n              mload(0x40)\n              tag_32\n              swap2\n              swap1\n              tag_33\n              jump\t// in\n            tag_32:\n              mload(0x40)\n              dup1\n              swap2\n              sub\n              swap1\n              return\n                /* \"@openzeppelin/contracts/token/ERC20/ERC20.sol\":4776:5020  function transferFrom(address from, address to, uint256 value) public virtual returns (bool) {... */\n            tag_7:\n              tag_34\n              0x04\n              dup1\n              calldatasize\n              sub\n              dup2\n              add\n              swap1\n              tag_35\n              swap2\n              swap1\n              tag_36\n              jump\t// in\n            tag_35:\n              tag_37\n              jump\t// in\n            tag_34:\n              mload(0x40)\n              tag_38\n              swap2\n              swap1\n              tag_29\n              jump\t// in\n            tag_38:\n              mload(0x40)\n              dup1\n              swap2\n              sub\n              swap1\n              return\n                /* \"@openzeppelin/contracts/token/ERC20/ERC20.sol\":2707:2789  function decimals() public view virtual returns (uint8) {... */\n            tag_8:\n              tag_39\n              tag_40\n              jump\t// in\n            tag_39:\n              mload(0x40)\n              tag_41\n              swap2\n              swap1\n              tag_42\n              jump\t// in\n            tag_41:\n              mload(0x40)\n              dup1\n              swap2\n              sub\n              swap1\n              return\n                /* \"contracts/Tokens.sol\":4542:4641  function mint(address to, uint256 amount) external onlyCreator {... */\n            tag_9:\n              tag_43\n              0x04\n              dup1\n              calldatasize\n              sub\n              dup2\n              add\n              swap1\n              tag_44\n              swap2\n              swap1\n              tag_26\n              jump\t// in\n            tag_44:\n              tag_45\n              jump\t// in\n            tag_43:\n              stop\n                /* \"@openzeppelin/contracts/token/ERC20/ERC20.sol\":3004:3120  function balanceOf(address account) public view virtual returns (uint256) {... */\n            tag_10:\n              tag_46\n              0x04\n              dup1\n              calldatasize\n              sub\n              dup2\n              add\n              swap1\n              tag_47\n              swap2\n              swap1\n              tag_48\n              jump\t// in\n            tag_47:\n              tag_49\n              jump\t// in\n            tag_46:\n              mload(0x40)\n              tag_50\n              swap2\n              swap1\n              tag_33\n              jump\t// in\n            tag_50:\n              mload(0x40)\n              dup1\n              swap2\n              sub\n              swap1\n              return\n                /* \"@openzeppelin/contracts/token/ERC20/ERC20.sol\":1981:2074  function symbol() public view virtual returns (string memory) {... */\n            tag_11:\n              tag_51\n              tag_52\n              jump\t// in\n            tag_51:\n              mload(0x40)\n              tag_53\n              swap2\n              swap1\n              tag_23\n              jump\t// in\n            tag_53:\n              mload(0x40)\n              dup1\n              swap2\n              sub\n              swap1\n              return\n                /* \"contracts/Tokens.sol\":4649:4752  function burn(address from, uint256 amount) external onlyCreator {... */\n            tag_12:\n              tag_54\n              0x04\n              dup1\n              calldatasize\n              sub\n              dup2\n              add\n              swap1\n              tag_55\n              swap2\n              swap1\n              tag_26\n              jump\t// in\n            tag_55:\n              tag_56\n              jump\t// in\n            tag_54:\n              stop\n                /* \"@openzeppelin/contracts/token/ERC20/ERC20.sol\":3315:3493  function transfer(address to, uint256 value) public virtual returns (bool) {... */\n            tag_13:\n              tag_57\n              0x04\n              dup1\n              calldatasize\n              sub\n              dup2\n              add\n              swap1\n              tag_58\n              swap2\n              swap1\n              tag_26\n              jump\t// in\n            tag_58:\n              tag_59\n              jump\t// in\n            tag_57:\n              mload(0x40)\n              tag_60\n              swap2\n              swap1\n              tag_29\n              jump\t// in\n            tag_60:\n              mload(0x40)\n              dup1\n              swap2\n              sub\n              swap1\n              return\n                /* \"@openzeppelin/contracts/token/ERC20/ERC20.sol\":3551:3691  function allowance(address owner, address spender) public view virtual returns (uint256) {... */\n            tag_14:\n              tag_61\n              0x04\n              dup1\n              calldatasize\n              sub\n              dup2\n              add\n              swap1\n              tag_62\n              swap2\n              swap1\n              tag_63\n              jump\t// in\n            tag_62:\n              tag_64\n              jump\t// in\n            tag_61:\n              mload(0x40)\n              tag_65\n              swap2\n              swap1\n              tag_33\n              jump\t// in\n            tag_65:\n              mload(0x40)\n              dup1\n              swap2\n              sub\n              swap1\n              return\n                /* \"contracts/Tokens.sol\":4263:4285  address public creator */\n            tag_17:\n              0x05\n              0x00\n              swap1\n              sload\n              swap1\n              0x0100\n              exp\n              swap1\n              div\n              0xffffffffffffffffffffffffffffffffffffffff\n              and\n              dup2\n              jump\t// out\n                /* \"@openzeppelin/contracts/token/ERC20/ERC20.sol\":1779:1868  function name() public view virtual returns (string memory) {... */\n            tag_21:\n                /* \"@openzeppelin/contracts/token/ERC20/ERC20.sol\":1824:1837  string memory */\n              0x60\n                /* \"@openzeppelin/contracts/token/ERC20/ERC20.sol\":1856:1861  _name */\n              0x03\n                /* \"@openzeppelin/contracts/token/ERC20/ERC20.sol\":1849:1861  return _name */\n              dup1\n              sload\n              tag_67\n              swap1\n              tag_68\n              jump\t// in\n            tag_67:\n              dup1\n              0x1f\n              add\n              0x20\n              dup1\n              swap2\n              div\n              mul\n              0x20\n              add\n              mload(0x40)\n              swap1\n              dup2\n              add\n              0x40\n              mstore\n              dup1\n              swap3\n              swap2\n              swap1\n              dup2\n              dup2\n              mstore\n              0x20\n              add\n              dup3\n              dup1\n              sload\n              tag_69\n              swap1\n              tag_68\n              jump\t// in\n            tag_69:\n              dup1\n              iszero\n              tag_70\n              jumpi\n              dup1\n              0x1f\n              lt\n              tag_71\n              jumpi\n              0x0100\n              dup1\n              dup4\n              sload\n              div\n              mul\n              dup4\n              mstore\n              swap2\n              0x20\n              add\n              swap2\n              jump(tag_70)\n            tag_71:\n              dup3\n              add\n              swap2\n              swap1\n              0x00\n              mstore\n              keccak256(0x00, 0x20)\n              swap1\n            tag_72:\n              dup2\n              sload\n              dup2\n              mstore\n              swap1\n              0x01\n              add\n              swap1\n              0x20\n              add\n              dup1\n              dup4\n              gt\n              tag_72\n              jumpi\n              dup3\n              swap1\n              sub\n              0x1f\n              and\n              dup3\n              add\n              swap2\n            tag_70:\n              pop\n              pop\n              pop\n              pop\n              pop\n              swap1\n              pop\n                /* \"@openzeppelin/contracts/token/ERC20/ERC20.sol\":1779:1868  function name() public view virtual returns (string memory) {... */\n              swap1\n              jump\t// out\n                /* \"@openzeppelin/contracts/token/ERC20/ERC20.sol\":3998:4184  function approve(address spender, uint256 value) public virtual returns (bool) {... */\n            tag_27:\n                /* \"@openzeppelin/contracts/token/ERC20/ERC20.sol\":4071:4075  bool */\n              0x00\n                /* \"@openzeppelin/contracts/token/ERC20/ERC20.sol\":4087:4100  address owner */\n              dup1\n                /* \"@openzeppelin/contracts/token/ERC20/ERC20.sol\":4103:4115  _msgSender() */\n              tag_74\n                /* \"@openzeppelin/contracts/token/ERC20/ERC20.sol\":4103:4113  _msgSender */\n              tag_75\n                /* \"@openzeppelin/contracts/token/ERC20/ERC20.sol\":4103:4115  _msgSender() */\n              jump\t// in\n            tag_74:\n                /* \"@openzeppelin/contracts/token/ERC20/ERC20.sol\":4087:4115  address owner = _msgSender() */\n              swap1\n              pop\n                /* \"@openzeppelin/contracts/token/ERC20/ERC20.sol\":4125:4156  _approve(owner, spender, value) */\n              tag_76\n                /* \"@openzeppelin/contracts/token/ERC20/ERC20.sol\":4134:4139  owner */\n              dup2\n                /* \"@openzeppelin/contracts/token/ERC20/ERC20.sol\":4141:4148  spender */\n              dup6\n                /* \"@openzeppelin/contracts/token/ERC20/ERC20.sol\":4150:4155  value */\n              dup6\n                /* \"@openzeppelin/contracts/token/ERC20/ERC20.sol\":4125:4133  _approve */\n              tag_77\n                /* \"@openzeppelin/contracts/token/ERC20/ERC20.sol\":4125:4156  _approve(owner, spender, value) */\n              jump\t// in\n            tag_76:\n                /* \"@openzeppelin/contracts/token/ERC20/ERC20.sol\":4173:4177  true */\n              0x01\n                /* \"@openzeppelin/contracts/token/ERC20/ERC20.sol\":4166:4177  return true */\n              swap2\n              pop\n              pop\n                /* \"@openzeppelin/contracts/token/ERC20/ERC20.sol\":3998:4184  function approve(address spender, uint256 value) public virtual returns (bool) {... */\n              swap3\n              swap2\n              pop\n              pop\n              jump\t// out\n                /* \"@openzeppelin/contracts/token/ERC20/ERC20.sol\":2849:2946  function totalSupply() public view virtual returns (uint256) {... */\n            tag_31:\n                /* \"@openzeppelin/contracts/token/ERC20/ERC20.sol\":2901:2908  uint256 */\n              0x00\n                /* \"@openzeppelin/contracts/token/ERC20/ERC20.sol\":2927:2939  _totalSupply */\n              sload(0x02)\n                /* \"@openzeppelin/contracts/token/ERC20/ERC20.sol\":2920:2939  return _totalSupply */\n              swap1\n              pop\n                /* \"@openzeppelin/contracts/token/ERC20/ERC20.sol\":2849:2946  function totalSupply() public view virtual returns (uint256) {... */\n              swap1\n              jump\t// out\n                /* \"@openzeppelin/contracts/token/ERC20/ERC20.sol\":4776:5020  function transferFrom(address from, address to, uint256 value) public virtual returns (bool) {... */\n            tag_37:\n                /* \"@openzeppelin/contracts/token/ERC20/ERC20.sol\":4863:4867  bool */\n              0x00\n                /* \"@openzeppelin/contracts/token/ERC20/ERC20.sol\":4879:4894  address spender */\n              dup1\n                /* \"@openzeppelin/contracts/token/ERC20/ERC20.sol\":4897:4909  _msgSender() */\n              tag_80\n                /* \"@openzeppelin/contracts/token/ERC20/ERC20.sol\":4897:4907  _msgSender */\n              tag_75\n                /* \"@openzeppelin/contracts/token/ERC20/ERC20.sol\":4897:4909  _msgSender() */\n              jump\t// in\n            tag_80:\n                /* \"@openzeppelin/contracts/token/ERC20/ERC20.sol\":4879:4909  address spender = _msgSender() */\n              swap1\n              pop\n                /* \"@openzeppelin/contracts/token/ERC20/ERC20.sol\":4919:4956  _spendAllowance(from, spender, value) */\n              tag_81\n                /* \"@openzeppelin/contracts/token/ERC20/ERC20.sol\":4935:4939  from */\n              dup6\n                /* \"@openzeppelin/contracts/token/ERC20/ERC20.sol\":4941:4948  spender */\n              dup3\n                /* \"@openzeppelin/contracts/token/ERC20/ERC20.sol\":4950:4955  value */\n              dup6\n                /* \"@openzeppelin/contracts/token/ERC20/ERC20.sol\":4919:4934  _spendAllowance */\n              tag_82\n                /* \"@openzeppelin/contracts/token/ERC20/ERC20.sol\":4919:4956  _spendAllowance(from, spender, value) */\n              jump\t// in\n            tag_81:\n                /* \"@openzeppelin/contracts/token/ERC20/ERC20.sol\":4966:4992  _transfer(from, to, value) */\n              tag_83\n                /* \"@openzeppelin/contracts/token/ERC20/ERC20.sol\":4976:4980  from */\n              dup6\n                /* \"@openzeppelin/contracts/token/ERC20/ERC20.sol\":4982:4984  to */\n              dup6\n                /* \"@openzeppelin/contracts/token/ERC20/ERC20.sol\":4986:4991  value */\n              dup6\n                /* \"@openzeppelin/contracts/token/ERC20/ERC20.sol\":4966:4975  _transfer */\n              tag_84\n                /* \"@openzeppelin/contracts/token/ERC20/ERC20.sol\":4966:4992  _transfer(from, to, value) */\n              jump\t// in\n            tag_83:\n                /* \"@openzeppelin/contracts/token/ERC20/ERC20.sol\":5009:5013  true */\n              0x01\n                /* \"@openzeppelin/contracts/token/ERC20/ERC20.sol\":5002:5013  return true */\n              swap2\n              pop\n              pop\n                /* \"@openzeppelin/contracts/token/ERC20/ERC20.sol\":4776:5020  function transferFrom(address from, address to, uint256 value) public virtual returns (bool) {... */\n              swap4\n              swap3\n              pop\n              pop\n              pop\n              jump\t// out\n                /* \"@openzeppelin/contracts/token/ERC20/ERC20.sol\":2707:2789  function decimals() public view virtual returns (uint8) {... */\n            tag_40:\n                /* \"@openzeppelin/contracts/token/ERC20/ERC20.sol\":2756:2761  uint8 */\n              0x00\n                /* \"@openzeppelin/contracts/token/ERC20/ERC20.sol\":2780:2782  18 */\n              0x12\n                /* \"@openzeppelin/contracts/token/ERC20/ERC20.sol\":2773:2782  return 18 */\n              swap1\n              pop\n                /* \"@openzeppelin/contracts/token/ERC20/ERC20.sol\":2707:2789  function decimals() public view virtual returns (uint8) {... */\n              swap1\n              jump\t// out\n                /* \"contracts/Tokens.sol\":4542:4641  function mint(address to, uint256 amount) external onlyCreator {... */\n            tag_45:\n                /* \"contracts/Tokens.sol\":4350:4357  creator */\n              0x05\n              0x00\n              swap1\n              sload\n              swap1\n              0x0100\n              exp\n              swap1\n              div\n              0xffffffffffffffffffffffffffffffffffffffff\n              and\n                /* \"contracts/Tokens.sol\":4336:4357  msg.sender == creator */\n              0xffffffffffffffffffffffffffffffffffffffff\n              and\n                /* \"contracts/Tokens.sol\":4336:4346  msg.sender */\n              caller\n                /* \"contracts/Tokens.sol\":4336:4357  msg.sender == creator */\n              0xffffffffffffffffffffffffffffffffffffffff\n              and\n              eq\n                /* \"contracts/Tokens.sol\":4328:4377  require(msg.sender == creator, \"Not the creator\") */\n              tag_87\n              jumpi\n              mload(0x40)\n              0x08c379a000000000000000000000000000000000000000000000000000000000\n              dup2\n              mstore\n              0x04\n              add\n              tag_88\n              swap1\n              tag_89\n              jump\t// in\n            tag_88:\n              mload(0x40)\n              dup1\n              swap2\n              sub\n              swap1\n              revert\n            tag_87:\n                /* \"contracts/Tokens.sol\":4616:4633  _mint(to, amount) */\n              tag_91\n                /* \"contracts/Tokens.sol\":4622:4624  to */\n              dup3\n                /* \"contracts/Tokens.sol\":4626:4632  amount */\n              dup3\n                /* \"contracts/Tokens.sol\":4616:4621  _mint */\n              tag_92\n                /* \"contracts/Tokens.sol\":4616:4633  _mint(to, amount) */\n              jump\t// in\n            tag_91:\n                /* \"contracts/Tokens.sol\":4542:4641  function mint(address to, uint256 amount) external onlyCreator {... */\n              pop\n              pop\n              jump\t// out\n                /* \"@openzeppelin/contracts/token/ERC20/ERC20.sol\":3004:3120  function balanceOf(address account) public view virtual returns (uint256) {... */\n            tag_49:\n                /* \"@openzeppelin/contracts/token/ERC20/ERC20.sol\":3069:3076  uint256 */\n              0x00\n                /* \"@openzeppelin/contracts/token/ERC20/ERC20.sol\":3095:3104  _balances */\n              dup1\n                /* \"@openzeppelin/contracts/token/ERC20/ERC20.sol\":3095:3113  _balances[account] */\n              0x00\n                /* \"@openzeppelin/contracts/token/ERC20/ERC20.sol\":3105:3112  account */\n              dup4\n                /* \"@openzeppelin/contracts/token/ERC20/ERC20.sol\":3095:3113  _balances[account] */\n              0xffffffffffffffffffffffffffffffffffffffff\n              and\n              0xffffffffffffffffffffffffffffffffffffffff\n              and\n              dup2\n              mstore\n              0x20\n              add\n              swap1\n              dup2\n              mstore\n              0x20\n              add\n              0x00\n              keccak256\n              sload\n                /* \"@openzeppelin/contracts/token/ERC20/ERC20.sol\":3088:3113  return _balances[account] */\n              swap1\n              pop\n                /* \"@openzeppelin/contracts/token/ERC20/ERC20.sol\":3004:3120  function balanceOf(address account) public view virtual returns (uint256) {... */\n              swap2\n              swap1\n              pop\n              jump\t// out\n                /* \"@openzeppelin/contracts/token/ERC20/ERC20.sol\":1981:2074  function symbol() public view virtual returns (string memory) {... */\n            tag_52:\n                /* \"@openzeppelin/contracts/token/ERC20/ERC20.sol\":2028:2041  string memory */\n              0x60\n                /* \"@openzeppelin/contracts/token/ERC20/ERC20.sol\":2060:2067  _symbol */\n              0x04\n                /* \"@openzeppelin/contracts/token/ERC20/ERC20.sol\":2053:2067  return _symbol */\n              dup1\n              sload\n              tag_95\n              swap1\n              tag_68\n              jump\t// in\n            tag_95:\n              dup1\n              0x1f\n              add\n              0x20\n              dup1\n              swap2\n              div\n              mul\n              0x20\n              add\n              mload(0x40)\n              swap1\n              dup2\n              add\n              0x40\n              mstore\n              dup1\n              swap3\n              swap2\n              swap1\n              dup2\n              dup2\n              mstore\n              0x20\n              add\n              dup3\n              dup1\n              sload\n              tag_96\n              swap1\n              tag_68\n              jump\t// in\n            tag_96:\n              dup1\n              iszero\n              tag_97\n              jumpi\n              dup1\n              0x1f\n              lt\n              tag_98\n              jumpi\n              0x0100\n              dup1\n              dup4\n              sload\n              div\n              mul\n              dup4\n              mstore\n              swap2\n              0x20\n              add\n              swap2\n              jump(tag_97)\n            tag_98:\n              dup3\n              add\n              swap2\n              swap1\n              0x00\n              mstore\n              keccak256(0x00, 0x20)\n              swap1\n            tag_99:\n              dup2\n              sload\n              dup2\n              mstore\n              swap1\n              0x01\n              add\n              swap1\n              0x20\n              add\n              dup1\n              dup4\n              gt\n              tag_99\n              jumpi\n              dup3\n              swap1\n              sub\n              0x1f\n              and\n              dup3\n              add\n              swap2\n            tag_97:\n              pop\n              pop\n              pop\n              pop\n              pop\n              swap1\n              pop\n                /* \"@openzeppelin/contracts/token/ERC20/ERC20.sol\":1981:2074  function symbol() public view virtual returns (string memory) {... */\n              swap1\n              jump\t// out\n                /* \"contracts/Tokens.sol\":4649:4752  function burn(address from, uint256 amount) external onlyCreator {... */\n            tag_56:\n                /* \"contracts/Tokens.sol\":4350:4357  creator */\n              0x05\n              0x00\n              swap1\n              sload\n              swap1\n              0x0100\n              exp\n              swap1\n              div\n              0xffffffffffffffffffffffffffffffffffffffff\n              and\n                /* \"contracts/Tokens.sol\":4336:4357  msg.sender == creator */\n              0xffffffffffffffffffffffffffffffffffffffff\n              and\n                /* \"contracts/Tokens.sol\":4336:4346  msg.sender */\n              caller\n                /* \"contracts/Tokens.sol\":4336:4357  msg.sender == creator */\n              0xffffffffffffffffffffffffffffffffffffffff\n              and\n              eq\n                /* \"contracts/Tokens.sol\":4328:4377  require(msg.sender == creator, \"Not the creator\") */\n              tag_101\n              jumpi\n              mload(0x40)\n              0x08c379a000000000000000000000000000000000000000000000000000000000\n              dup2\n              mstore\n              0x04\n              add\n              tag_102\n              swap1\n              tag_89\n              jump\t// in\n            tag_102:\n              mload(0x40)\n              dup1\n              swap2\n              sub\n              swap1\n              revert\n            tag_101:\n                /* \"contracts/Tokens.sol\":4725:4744  _burn(from, amount) */\n              tag_104\n                /* \"contracts/Tokens.sol\":4731:4735  from */\n              dup3\n                /* \"contracts/Tokens.sol\":4737:4743  amount */\n              dup3\n                /* \"contracts/Tokens.sol\":4725:4730  _burn */\n              tag_105\n                /* \"contracts/Tokens.sol\":4725:4744  _burn(from, amount) */\n              jump\t// in\n            tag_104:\n                /* \"contracts/Tokens.sol\":4649:4752  function burn(address from, uint256 amount) external onlyCreator {... */\n              pop\n              pop\n              jump\t// out\n                /* \"@openzeppelin/contracts/token/ERC20/ERC20.sol\":3315:3493  function transfer(address to, uint256 value) public virtual returns (bool) {... */\n            tag_59:\n                /* \"@openzeppelin/contracts/token/ERC20/ERC20.sol\":3384:3388  bool */\n              0x00\n                /* \"@openzeppelin/contracts/token/ERC20/ERC20.sol\":3400:3413  address owner */\n              dup1\n                /* \"@openzeppelin/contracts/token/ERC20/ERC20.sol\":3416:3428  _msgSender() */\n              tag_107\n                /* \"@openzeppelin/contracts/token/ERC20/ERC20.sol\":3416:3426  _msgSender */\n              tag_75\n                /* \"@openzeppelin/contracts/token/ERC20/ERC20.sol\":3416:3428  _msgSender() */\n              jump\t// in\n            tag_107:\n                /* \"@openzeppelin/contracts/token/ERC20/ERC20.sol\":3400:3428  address owner = _msgSender() */\n              swap1\n              pop\n                /* \"@openzeppelin/contracts/token/ERC20/ERC20.sol\":3438:3465  _transfer(owner, to, value) */\n              tag_108\n                /* \"@openzeppelin/contracts/token/ERC20/ERC20.sol\":3448:3453  owner */\n              dup2\n                /* \"@openzeppelin/contracts/token/ERC20/ERC20.sol\":3455:3457  to */\n              dup6\n                /* \"@openzeppelin/contracts/token/ERC20/ERC20.sol\":3459:3464  value */\n              dup6\n                /* \"@openzeppelin/contracts/token/ERC20/ERC20.sol\":3438:3447  _transfer */\n              tag_84\n                /* \"@openzeppelin/contracts/token/ERC20/ERC20.sol\":3438:3465  _transfer(owner, to, value) */\n              jump\t// in\n            tag_108:\n                /* \"@openzeppelin/contracts/token/ERC20/ERC20.sol\":3482:3486  true */\n              0x01\n                /* \"@openzeppelin/contracts/token/ERC20/ERC20.sol\":3475:3486  return true */\n              swap2\n              pop\n              pop\n                /* \"@openzeppelin/contracts/token/ERC20/ERC20.sol\":3315:3493  function transfer(address to, uint256 value) public virtual returns (bool) {... */\n              swap3\n              swap2\n              pop\n              pop\n              jump\t// out\n                /* \"@openzeppelin/contracts/token/ERC20/ERC20.sol\":3551:3691  function allowance(address owner, address spender) public view virtual returns (uint256) {... */\n            tag_64:\n                /* \"@openzeppelin/contracts/token/ERC20/ERC20.sol\":3631:3638  uint256 */\n              0x00\n                /* \"@openzeppelin/contracts/token/ERC20/ERC20.sol\":3657:3668  _allowances */\n              0x01\n                /* \"@openzeppelin/contracts/token/ERC20/ERC20.sol\":3657:3675  _allowances[owner] */\n              0x00\n                /* \"@openzeppelin/contracts/token/ERC20/ERC20.sol\":3669:3674  owner */\n              dup5\n                /* \"@openzeppelin/contracts/token/ERC20/ERC20.sol\":3657:3675  _allowances[owner] */\n              0xffffffffffffffffffffffffffffffffffffffff\n              and\n              0xffffffffffffffffffffffffffffffffffffffff\n              and\n              dup2\n              mstore\n              0x20\n              add\n              swap1\n              dup2\n              mstore\n              0x20\n              add\n              0x00\n              keccak256\n                /* \"@openzeppelin/contracts/token/ERC20/ERC20.sol\":3657:3684  _allowances[owner][spender] */\n              0x00\n                /* \"@openzeppelin/contracts/token/ERC20/ERC20.sol\":3676:3683  spender */\n              dup4\n                /* \"@openzeppelin/contracts/token/ERC20/ERC20.sol\":3657:3684  _allowances[owner][spender] */\n              0xffffffffffffffffffffffffffffffffffffffff\n              and\n              0xffffffffffffffffffffffffffffffffffffffff\n              and\n              dup2\n              mstore\n              0x20\n              add\n              swap1\n              dup2\n              mstore\n              0x20\n              add\n              0x00\n              keccak256\n              sload\n                /* \"@openzeppelin/contracts/token/ERC20/ERC20.sol\":3650:3684  return _allowances[owner][spender] */\n              swap1\n              pop\n                /* \"@openzeppelin/contracts/token/ERC20/ERC20.sol\":3551:3691  function allowance(address owner, address spender) public view virtual returns (uint256) {... */\n              swap3\n              swap2\n              pop\n              pop\n              jump\t// out\n                /* \"@openzeppelin/contracts/utils/Context.sol\":656:752  function _msgSender() internal view virtual returns (address) {... */\n            tag_75:\n                /* \"@openzeppelin/contracts/utils/Context.sol\":709:716  address */\n              0x00\n                /* \"@openzeppelin/contracts/utils/Context.sol\":735:745  msg.sender */\n              caller\n                /* \"@openzeppelin/contracts/utils/Context.sol\":728:745  return msg.sender */\n              swap1\n              pop\n                /* \"@openzeppelin/contracts/utils/Context.sol\":656:752  function _msgSender() internal view virtual returns (address) {... */\n              swap1\n              jump\t// out\n                /* \"@openzeppelin/contracts/token/ERC20/ERC20.sol\":8726:8854  function _approve(address owner, address spender, uint256 value) internal {... */\n            tag_77:\n                /* \"@openzeppelin/contracts/token/ERC20/ERC20.sol\":8810:8847  _approve(owner, spender, value, true) */\n              tag_112\n                /* \"@openzeppelin/contracts/token/ERC20/ERC20.sol\":8819:8824  owner */\n              dup4\n                /* \"@openzeppelin/contracts/token/ERC20/ERC20.sol\":8826:8833  spender */\n              dup4\n                /* \"@openzeppelin/contracts/token/ERC20/ERC20.sol\":8835:8840  value */\n              dup4\n                /* \"@openzeppelin/contracts/token/ERC20/ERC20.sol\":8842:8846  true */\n              0x01\n                /* \"@openzeppelin/contracts/token/ERC20/ERC20.sol\":8810:8818  _approve */\n              tag_113\n                /* \"@openzeppelin/contracts/token/ERC20/ERC20.sol\":8810:8847  _approve(owner, spender, value, true) */\n              jump\t// in\n            tag_112:\n                /* \"@openzeppelin/contracts/token/ERC20/ERC20.sol\":8726:8854  function _approve(address owner, address spender, uint256 value) internal {... */\n              pop\n              pop\n              pop\n              jump\t// out\n                /* \"@openzeppelin/contracts/token/ERC20/ERC20.sol\":10415:10891  function _spendAllowance(address owner, address spender, uint256 value) internal virtual {... */\n            tag_82:\n                /* \"@openzeppelin/contracts/token/ERC20/ERC20.sol\":10514:10538  uint256 currentAllowance */\n              0x00\n                /* \"@openzeppelin/contracts/token/ERC20/ERC20.sol\":10541:10566  allowance(owner, spender) */\n              tag_115\n                /* \"@openzeppelin/contracts/token/ERC20/ERC20.sol\":10551:10556  owner */\n              dup5\n                /* \"@openzeppelin/contracts/token/ERC20/ERC20.sol\":10558:10565  spender */\n              dup5\n                /* \"@openzeppelin/contracts/token/ERC20/ERC20.sol\":10541:10550  allowance */\n              tag_64\n                /* \"@openzeppelin/contracts/token/ERC20/ERC20.sol\":10541:10566  allowance(owner, spender) */\n              jump\t// in\n            tag_115:\n                /* \"@openzeppelin/contracts/token/ERC20/ERC20.sol\":10514:10566  uint256 currentAllowance = allowance(owner, spender) */\n              swap1\n              pop\n                /* \"@openzeppelin/contracts/token/ERC20/ERC20.sol\":10599:10616  type(uint256).max */\n              0xffffffffffffffffffffffffffffffffffffffffffffffffffffffffffffffff\n                /* \"@openzeppelin/contracts/token/ERC20/ERC20.sol\":10580:10596  currentAllowance */\n              dup2\n                /* \"@openzeppelin/contracts/token/ERC20/ERC20.sol\":10580:10616  currentAllowance < type(uint256).max */\n              lt\n                /* \"@openzeppelin/contracts/token/ERC20/ERC20.sol\":10576:10885  if (currentAllowance < type(uint256).max) {... */\n              iszero\n              tag_116\n              jumpi\n                /* \"@openzeppelin/contracts/token/ERC20/ERC20.sol\":10655:10660  value */\n              dup2\n                /* \"@openzeppelin/contracts/token/ERC20/ERC20.sol\":10636:10652  currentAllowance */\n              dup2\n                /* \"@openzeppelin/contracts/token/ERC20/ERC20.sol\":10636:10660  currentAllowance < value */\n              lt\n                /* \"@openzeppelin/contracts/token/ERC20/ERC20.sol\":10632:10762  if (currentAllowance < value) {... */\n              iszero\n              tag_117\n              jumpi\n                /* \"@openzeppelin/contracts/token/ERC20/ERC20.sol\":10714:10721  spender */\n              dup3\n                /* \"@openzeppelin/contracts/token/ERC20/ERC20.sol\":10723:10739  currentAllowance */\n              dup2\n                /* \"@openzeppelin/contracts/token/ERC20/ERC20.sol\":10741:10746  value */\n              dup4\n                /* \"@openzeppelin/contracts/token/ERC20/ERC20.sol\":10687:10747  ERC20InsufficientAllowance(spender, currentAllowance, value) */\n              mload(0x40)\n              0xfb8f41b200000000000000000000000000000000000000000000000000000000\n              dup2\n              mstore\n              0x04\n              add\n              tag_118\n              swap4\n              swap3\n              swap2\n              swap1\n              tag_119\n              jump\t// in\n            tag_118:\n              mload(0x40)\n              dup1\n              swap2\n              sub\n              swap1\n              revert\n                /* \"@openzeppelin/contracts/token/ERC20/ERC20.sol\":10632:10762  if (currentAllowance < value) {... */\n            tag_117:\n                /* \"@openzeppelin/contracts/token/ERC20/ERC20.sol\":10803:10860  _approve(owner, spender, currentAllowance - value, false) */\n              tag_120\n                /* \"@openzeppelin/contracts/token/ERC20/ERC20.sol\":10812:10817  owner */\n              dup5\n                /* \"@openzeppelin/contracts/token/ERC20/ERC20.sol\":10819:10826  spender */\n              dup5\n                /* \"@openzeppelin/contracts/token/ERC20/ERC20.sol\":10847:10852  value */\n              dup5\n                /* \"@openzeppelin/contracts/token/ERC20/ERC20.sol\":10828:10844  currentAllowance */\n              dup5\n                /* \"@openzeppelin/contracts/token/ERC20/ERC20.sol\":10828:10852  currentAllowance - value */\n              sub\n                /* \"@openzeppelin/contracts/token/ERC20/ERC20.sol\":10854:10859  false */\n              0x00\n                /* \"@openzeppelin/contracts/token/ERC20/ERC20.sol\":10803:10811  _approve */\n              tag_113\n                /* \"@openzeppelin/contracts/token/ERC20/ERC20.sol\":10803:10860  _approve(owner, spender, currentAllowance - value, false) */\n              jump\t// in\n            tag_120:\n                /* \"@openzeppelin/contracts/token/ERC20/ERC20.sol\":10576:10885  if (currentAllowance < type(uint256).max) {... */\n            tag_116:\n                /* \"@openzeppelin/contracts/token/ERC20/ERC20.sol\":10504:10891  {... */\n              pop\n                /* \"@openzeppelin/contracts/token/ERC20/ERC20.sol\":10415:10891  function _spendAllowance(address owner, address spender, uint256 value) internal virtual {... */\n              pop\n              pop\n              pop\n              jump\t// out\n                /* \"@openzeppelin/contracts/token/ERC20/ERC20.sol\":5393:5693  function _transfer(address from, address to, uint256 value) internal {... */\n            tag_84:\n                /* \"@openzeppelin/contracts/token/ERC20/ERC20.sol\":5492:5493  0 */\n              0x00\n                /* \"@openzeppelin/contracts/token/ERC20/ERC20.sol\":5476:5494  from == address(0) */\n              0xffffffffffffffffffffffffffffffffffffffff\n              and\n                /* \"@openzeppelin/contracts/token/ERC20/ERC20.sol\":5476:5480  from */\n              dup4\n                /* \"@openzeppelin/contracts/token/ERC20/ERC20.sol\":5476:5494  from == address(0) */\n              0xffffffffffffffffffffffffffffffffffffffff\n              and\n              sub\n                /* \"@openzeppelin/contracts/token/ERC20/ERC20.sol\":5472:5558  if (from == address(0)) {... */\n              tag_122\n              jumpi\n                /* \"@openzeppelin/contracts/token/ERC20/ERC20.sol\":5544:5545  0 */\n              0x00\n                /* \"@openzeppelin/contracts/token/ERC20/ERC20.sol\":5517:5547  ERC20InvalidSender(address(0)) */\n              mload(0x40)\n              0x96c6fd1e00000000000000000000000000000000000000000000000000000000\n              dup2\n              mstore\n              0x04\n              add\n              tag_123\n              swap2\n              swap1\n              tag_19\n              jump\t// in\n            tag_123:\n              mload(0x40)\n              dup1\n              swap2\n              sub\n              swap1\n              revert\n                /* \"@openzeppelin/contracts/token/ERC20/ERC20.sol\":5472:5558  if (from == address(0)) {... */\n            tag_122:\n                /* \"@openzeppelin/contracts/token/ERC20/ERC20.sol\":5585:5586  0 */\n              0x00\n                /* \"@openzeppelin/contracts/token/ERC20/ERC20.sol\":5571:5587  to == address(0) */\n              0xffffffffffffffffffffffffffffffffffffffff\n              and\n                /* \"@openzeppelin/contracts/token/ERC20/ERC20.sol\":5571:5573  to */\n              dup3\n                /* \"@openzeppelin/contracts/token/ERC20/ERC20.sol\":5571:5587  to == address(0) */\n              0xffffffffffffffffffffffffffffffffffffffff\n              and\n              sub\n                /* \"@openzeppelin/contracts/token/ERC20/ERC20.sol\":5567:5653  if (to == address(0)) {... */\n              tag_124\n              jumpi\n                /* \"@openzeppelin/contracts/token/ERC20/ERC20.sol\":5639:5640  0 */\n              0x00\n                /* \"@openzeppelin/contracts/token/ERC20/ERC20.sol\":5610:5642  ERC20InvalidReceiver(address(0)) */\n              mload(0x40)\n              0xec442f0500000000000000000000000000000000000000000000000000000000\n              dup2\n              mstore\n              0x04\n              add\n              tag_125\n              swap2\n              swap1\n              tag_19\n              jump\t// in\n            tag_125:\n              mload(0x40)\n              dup1\n              swap2\n              sub\n              swap1\n              revert\n                /* \"@openzeppelin/contracts/token/ERC20/ERC20.sol\":5567:5653  if (to == address(0)) {... */\n            tag_124:\n                /* \"@openzeppelin/contracts/token/ERC20/ERC20.sol\":5662:5686  _update(from, to, value) */\n              tag_126\n                /* \"@openzeppelin/contracts/token/ERC20/ERC20.sol\":5670:5674  from */\n              dup4\n                /* \"@openzeppelin/contracts/token/ERC20/ERC20.sol\":5676:5678  to */\n              dup4\n                /* \"@openzeppelin/contracts/token/ERC20/ERC20.sol\":5680:5685  value */\n              dup4\n                /* \"@openzeppelin/contracts/token/ERC20/ERC20.sol\":5662:5669  _update */\n              tag_127\n                /* \"@openzeppelin/contracts/token/ERC20/ERC20.sol\":5662:5686  _update(from, to, value) */\n              jump\t// in\n            tag_126:\n                /* \"@openzeppelin/contracts/token/ERC20/ERC20.sol\":5393:5693  function _transfer(address from, address to, uint256 value) internal {... */\n              pop\n              pop\n              pop\n              jump\t// out\n                /* \"@openzeppelin/contracts/token/ERC20/ERC20.sol\":7458:7666  function _mint(address account, uint256 value) internal {... */\n            tag_92:\n                /* \"@openzeppelin/contracts/token/ERC20/ERC20.sol\":7547:7548  0 */\n              0x00\n                /* \"@openzeppelin/contracts/token/ERC20/ERC20.sol\":7528:7549  account == address(0) */\n              0xffffffffffffffffffffffffffffffffffffffff\n              and\n                /* \"@openzeppelin/contracts/token/ERC20/ERC20.sol\":7528:7535  account */\n              dup3\n                /* \"@openzeppelin/contracts/token/ERC20/ERC20.sol\":7528:7549  account == address(0) */\n              0xffffffffffffffffffffffffffffffffffffffff\n              and\n              sub\n                /* \"@openzeppelin/contracts/token/ERC20/ERC20.sol\":7524:7615  if (account == address(0)) {... */\n              tag_129\n              jumpi\n                /* \"@openzeppelin/contracts/token/ERC20/ERC20.sol\":7601:7602  0 */\n              0x00\n                /* \"@openzeppelin/contracts/token/ERC20/ERC20.sol\":7572:7604  ERC20InvalidReceiver(address(0)) */\n              mload(0x40)\n              0xec442f0500000000000000000000000000000000000000000000000000000000\n              dup2\n              mstore\n              0x04\n              add\n              tag_130\n              swap2\n              swap1\n              tag_19\n              jump\t// in\n            tag_130:\n              mload(0x40)\n              dup1\n              swap2\n              sub\n              swap1\n              revert\n                /* \"@openzeppelin/contracts/token/ERC20/ERC20.sol\":7524:7615  if (account == address(0)) {... */\n            tag_129:\n                /* \"@openzeppelin/contracts/token/ERC20/ERC20.sol\":7624:7659  _update(address(0), account, value) */\n              tag_131\n                /* \"@openzeppelin/contracts/token/ERC20/ERC20.sol\":7640:7641  0 */\n              0x00\n                /* \"@openzeppelin/contracts/token/ERC20/ERC20.sol\":7644:7651  account */\n              dup4\n                /* \"@openzeppelin/contracts/token/ERC20/ERC20.sol\":7653:7658  value */\n              dup4\n                /* \"@openzeppelin/contracts/token/ERC20/ERC20.sol\":7624:7631  _update */\n              tag_127\n                /* \"@openzeppelin/contracts/token/ERC20/ERC20.sol\":7624:7659  _update(address(0), account, value) */\n              jump\t// in\n            tag_131:\n                /* \"@openzeppelin/contracts/token/ERC20/ERC20.sol\":7458:7666  function _mint(address account, uint256 value) internal {... */\n              pop\n              pop\n              jump\t// out\n                /* \"@openzeppelin/contracts/token/ERC20/ERC20.sol\":7984:8190  function _burn(address account, uint256 value) internal {... */\n            tag_105:\n                /* \"@openzeppelin/contracts/token/ERC20/ERC20.sol\":8073:8074  0 */\n              0x00\n                /* \"@openzeppelin/contracts/token/ERC20/ERC20.sol\":8054:8075  account == address(0) */\n              0xffffffffffffffffffffffffffffffffffffffff\n              and\n                /* \"@openzeppelin/contracts/token/ERC20/ERC20.sol\":8054:8061  account */\n              dup3\n                /* \"@openzeppelin/contracts/token/ERC20/ERC20.sol\":8054:8075  account == address(0) */\n              0xffffffffffffffffffffffffffffffffffffffff\n              and\n              sub\n                /* \"@openzeppelin/contracts/token/ERC20/ERC20.sol\":8050:8139  if (account == address(0)) {... */\n              tag_133\n              jumpi\n                /* \"@openzeppelin/contracts/token/ERC20/ERC20.sol\":8125:8126  0 */\n              0x00\n                /* \"@openzeppelin/contracts/token/ERC20/ERC20.sol\":8098:8128  ERC20InvalidSender(address(0)) */\n              mload(0x40)\n              0x96c6fd1e00000000000000000000000000000000000000000000000000000000\n              dup2\n              mstore\n              0x04\n              add\n              tag_134\n              swap2\n              swap1\n              tag_19\n              jump\t// in\n            tag_134:\n              mload(0x40)\n              dup1\n              swap2\n              sub\n              swap1\n              revert\n                /* \"@openzeppelin/contracts/token/ERC20/ERC20.sol\":8050:8139  if (account == address(0)) {... */\n            tag_133:\n                /* \"@openzeppelin/contracts/token/ERC20/ERC20.sol\":8148:8183  _update(account, address(0), value) */\n              tag_135\n                /* \"@openzeppelin/contracts/token/ERC20/ERC20.sol\":8156:8163  account */\n              dup3\n                /* \"@openzeppelin/contracts/token/ERC20/ERC20.sol\":8173:8174  0 */\n              0x00\n                /* \"@openzeppelin/contracts/token/ERC20/ERC20.sol\":8177:8182  value */\n              dup4\n                /* \"@openzeppelin/contracts/token/ERC20/ERC20.sol\":8148:8155  _update */\n              tag_127\n                /* \"@openzeppelin/contracts/token/ERC20/ERC20.sol\":8148:8183  _update(account, address(0), value) */\n              jump\t// in\n            tag_135:\n                /* \"@openzeppelin/contracts/token/ERC20/ERC20.sol\":7984:8190  function _burn(address account, uint256 value) internal {... */\n              pop\n              pop\n              jump\t// out\n                /* \"@openzeppelin/contracts/token/ERC20/ERC20.sol\":9701:10133  function _approve(address owner, address spender, uint256 value, bool emitEvent) internal virtual {... */\n            tag_113:\n                /* \"@openzeppelin/contracts/token/ERC20/ERC20.sol\":9830:9831  0 */\n              0x00\n                /* \"@openzeppelin/contracts/token/ERC20/ERC20.sol\":9813:9832  owner == address(0) */\n              0xffffffffffffffffffffffffffffffffffffffff\n              and\n                /* \"@openzeppelin/contracts/token/ERC20/ERC20.sol\":9813:9818  owner */\n              dup5\n                /* \"@openzeppelin/contracts/token/ERC20/ERC20.sol\":9813:9832  owner == address(0) */\n              0xffffffffffffffffffffffffffffffffffffffff\n              and\n              sub\n                /* \"@openzeppelin/contracts/token/ERC20/ERC20.sol\":9809:9898  if (owner == address(0)) {... */\n              tag_137\n              jumpi\n                /* \"@openzeppelin/contracts/token/ERC20/ERC20.sol\":9884:9885  0 */\n              0x00\n                /* \"@openzeppelin/contracts/token/ERC20/ERC20.sol\":9855:9887  ERC20InvalidApprover(address(0)) */\n              mload(0x40)\n              0xe602df0500000000000000000000000000000000000000000000000000000000\n              dup2\n              mstore\n              0x04\n              add\n              tag_138\n              swap2\n              swap1\n              tag_19\n              jump\t// in\n            tag_138:\n              mload(0x40)\n              dup1\n              swap2\n              sub\n              swap1\n              revert\n                /* \"@openzeppelin/contracts/token/ERC20/ERC20.sol\":9809:9898  if (owner == address(0)) {... */\n            tag_137:\n                /* \"@openzeppelin/contracts/token/ERC20/ERC20.sol\":9930:9931  0 */\n              0x00\n                /* \"@openzeppelin/contracts/token/ERC20/ERC20.sol\":9911:9932  spender == address(0) */\n              0xffffffffffffffffffffffffffffffffffffffff\n              and\n                /* \"@openzeppelin/contracts/token/ERC20/ERC20.sol\":9911:9918  spender */\n              dup4\n                /* \"@openzeppelin/contracts/token/ERC20/ERC20.sol\":9911:9932  spender == address(0) */\n              0xffffffffffffffffffffffffffffffffffffffff\n              and\n              sub\n                /* \"@openzeppelin/contracts/token/ERC20/ERC20.sol\":9907:9997  if (spender == address(0)) {... */\n              tag_139\n              jumpi\n                /* \"@openzeppelin/contracts/token/ERC20/ERC20.sol\":9983:9984  0 */\n              0x00\n                /* \"@openzeppelin/contracts/token/ERC20/ERC20.sol\":9955:9986  ERC20InvalidSpender(address(0)) */\n              mload(0x40)\n              0x94280d6200000000000000000000000000000000000000000000000000000000\n              dup2\n              mstore\n              0x04\n              add\n              tag_140\n              swap2\n              swap1\n              tag_19\n              jump\t// in\n            tag_140:\n              mload(0x40)\n              dup1\n              swap2\n              sub\n              swap1\n              revert\n                /* \"@openzeppelin/contracts/token/ERC20/ERC20.sol\":9907:9997  if (spender == address(0)) {... */\n            tag_139:\n                /* \"@openzeppelin/contracts/token/ERC20/ERC20.sol\":10036:10041  value */\n              dup2\n                /* \"@openzeppelin/contracts/token/ERC20/ERC20.sol\":10006:10017  _allowances */\n              0x01\n                /* \"@openzeppelin/contracts/token/ERC20/ERC20.sol\":10006:10024  _allowances[owner] */\n              0x00\n                /* \"@openzeppelin/contracts/token/ERC20/ERC20.sol\":10018:10023  owner */\n              dup7\n                /* \"@openzeppelin/contracts/token/ERC20/ERC20.sol\":10006:10024  _allowances[owner] */\n              0xffffffffffffffffffffffffffffffffffffffff\n              and\n              0xffffffffffffffffffffffffffffffffffffffff\n              and\n              dup2\n              mstore\n              0x20\n              add\n              swap1\n              dup2\n              mstore\n              0x20\n              add\n              0x00\n              keccak256\n                /* \"@openzeppelin/contracts/token/ERC20/ERC20.sol\":10006:10033  _allowances[owner][spender] */\n              0x00\n                /* \"@openzeppelin/contracts/token/ERC20/ERC20.sol\":10025:10032  spender */\n              dup6\n                /* \"@openzeppelin/contracts/token/ERC20/ERC20.sol\":10006:10033  _allowances[owner][spender] */\n              0xffffffffffffffffffffffffffffffffffffffff\n              and\n              0xffffffffffffffffffffffffffffffffffffffff\n              and\n              dup2\n              mstore\n              0x20\n              add\n              swap1\n              dup2\n              mstore\n              0x20\n              add\n              0x00\n              keccak256\n                /* \"@openzeppelin/contracts/token/ERC20/ERC20.sol\":10006:10041  _allowances[owner][spender] = value */\n              dup2\n              swap1\n              sstore\n              pop\n                /* \"@openzeppelin/contracts/token/ERC20/ERC20.sol\":10055:10064  emitEvent */\n              dup1\n                /* \"@openzeppelin/contracts/token/ERC20/ERC20.sol\":10051:10127  if (emitEvent) {... */\n              iszero\n              tag_141\n              jumpi\n                /* \"@openzeppelin/contracts/token/ERC20/ERC20.sol\":10101:10108  spender */\n              dup3\n                /* \"@openzeppelin/contracts/token/ERC20/ERC20.sol\":10085:10116  Approval(owner, spender, value) */\n              0xffffffffffffffffffffffffffffffffffffffff\n              and\n                /* \"@openzeppelin/contracts/token/ERC20/ERC20.sol\":10094:10099  owner */\n              dup5\n                /* \"@openzeppelin/contracts/token/ERC20/ERC20.sol\":10085:10116  Approval(owner, spender, value) */\n              0xffffffffffffffffffffffffffffffffffffffff\n              and\n              0x8c5be1e5ebec7d5bd14f71427d1e84f3dd0314c0f7b2291e5b200ac8c7c3b925\n                /* \"@openzeppelin/contracts/token/ERC20/ERC20.sol\":10110:10115  value */\n              dup5\n                /* \"@openzeppelin/contracts/token/ERC20/ERC20.sol\":10085:10116  Approval(owner, spender, value) */\n              mload(0x40)\n              tag_142\n              swap2\n              swap1\n              tag_33\n              jump\t// in\n            tag_142:\n              mload(0x40)\n              dup1\n              swap2\n              sub\n              swap1\n              log3\n                /* \"@openzeppelin/contracts/token/ERC20/ERC20.sol\":10051:10127  if (emitEvent) {... */\n            tag_141:\n                /* \"@openzeppelin/contracts/token/ERC20/ERC20.sol\":9701:10133  function _approve(address owner, address spender, uint256 value, bool emitEvent) internal virtual {... */\n              pop\n              pop\n              pop\n              pop\n              jump\t// out\n                /* \"@openzeppelin/contracts/token/ERC20/ERC20.sol\":6008:7115  function _update(address from, address to, uint256 value) internal virtual {... */\n            tag_127:\n                /* \"@openzeppelin/contracts/token/ERC20/ERC20.sol\":6113:6114  0 */\n              0x00\n                /* \"@openzeppelin/contracts/token/ERC20/ERC20.sol\":6097:6115  from == address(0) */\n              0xffffffffffffffffffffffffffffffffffffffff\n              and\n                /* \"@openzeppelin/contracts/token/ERC20/ERC20.sol\":6097:6101  from */\n              dup4\n                /* \"@openzeppelin/contracts/token/ERC20/ERC20.sol\":6097:6115  from == address(0) */\n              0xffffffffffffffffffffffffffffffffffffffff\n              and\n              sub\n                /* \"@openzeppelin/contracts/token/ERC20/ERC20.sol\":6093:6633  if (from == address(0)) {... */\n              tag_144\n              jumpi\n                /* \"@openzeppelin/contracts/token/ERC20/ERC20.sol\":6249:6254  value */\n              dup1\n                /* \"@openzeppelin/contracts/token/ERC20/ERC20.sol\":6233:6245  _totalSupply */\n              0x02\n              0x00\n                /* \"@openzeppelin/contracts/token/ERC20/ERC20.sol\":6233:6254  _totalSupply += value */\n              dup3\n              dup3\n              sload\n              tag_145\n              swap2\n              swap1\n              tag_146\n              jump\t// in\n            tag_145:\n              swap3\n              pop\n              pop\n              dup2\n              swap1\n              sstore\n              pop\n                /* \"@openzeppelin/contracts/token/ERC20/ERC20.sol\":6093:6633  if (from == address(0)) {... */\n              jump(tag_147)\n            tag_144:\n                /* \"@openzeppelin/contracts/token/ERC20/ERC20.sol\":6285:6304  uint256 fromBalance */\n              0x00\n                /* \"@openzeppelin/contracts/token/ERC20/ERC20.sol\":6307:6316  _balances */\n              dup1\n                /* \"@openzeppelin/contracts/token/ERC20/ERC20.sol\":6307:6322  _balances[from] */\n              0x00\n                /* \"@openzeppelin/contracts/token/ERC20/ERC20.sol\":6317:6321  from */\n              dup6\n                /* \"@openzeppelin/contracts/token/ERC20/ERC20.sol\":6307:6322  _balances[from] */\n              0xffffffffffffffffffffffffffffffffffffffff\n              and\n              0xffffffffffffffffffffffffffffffffffffffff\n              and\n              dup2\n              mstore\n              0x20\n              add\n              swap1\n              dup2\n              mstore\n              0x20\n              add\n              0x00\n              keccak256\n              sload\n                /* \"@openzeppelin/contracts/token/ERC20/ERC20.sol\":6285:6322  uint256 fromBalance = _balances[from] */\n              swap1\n              pop\n                /* \"@openzeppelin/contracts/token/ERC20/ERC20.sol\":6354:6359  value */\n              dup2\n                /* \"@openzeppelin/contracts/token/ERC20/ERC20.sol\":6340:6351  fromBalance */\n              dup2\n                /* \"@openzeppelin/contracts/token/ERC20/ERC20.sol\":6340:6359  fromBalance < value */\n              lt\n                /* \"@openzeppelin/contracts/token/ERC20/ERC20.sol\":6336:6451  if (fromBalance < value) {... */\n              iszero\n              tag_148\n              jumpi\n                /* \"@openzeppelin/contracts/token/ERC20/ERC20.sol\":6411:6415  from */\n              dup4\n                /* \"@openzeppelin/contracts/token/ERC20/ERC20.sol\":6417:6428  fromBalance */\n              dup2\n                /* \"@openzeppelin/contracts/token/ERC20/ERC20.sol\":6430:6435  value */\n              dup4\n                /* \"@openzeppelin/contracts/token/ERC20/ERC20.sol\":6386:6436  ERC20InsufficientBalance(from, fromBalance, value) */\n              mload(0x40)\n              0xe450d38c00000000000000000000000000000000000000000000000000000000\n              dup2\n              mstore\n              0x04\n              add\n              tag_149\n              swap4\n              swap3\n              swap2\n              swap1\n              tag_119\n              jump\t// in\n            tag_149:\n              mload(0x40)\n              dup1\n              swap2\n              sub\n              swap1\n              revert\n                /* \"@openzeppelin/contracts/token/ERC20/ERC20.sol\":6336:6451  if (fromBalance < value) {... */\n            tag_148:\n                /* \"@openzeppelin/contracts/token/ERC20/ERC20.sol\":6603:6608  value */\n              dup2\n                /* \"@openzeppelin/contracts/token/ERC20/ERC20.sol\":6589:6600  fromBalance */\n              dup2\n                /* \"@openzeppelin/contracts/token/ERC20/ERC20.sol\":6589:6608  fromBalance - value */\n              sub\n                /* \"@openzeppelin/contracts/token/ERC20/ERC20.sol\":6571:6580  _balances */\n              0x00\n                /* \"@openzeppelin/contracts/token/ERC20/ERC20.sol\":6571:6586  _balances[from] */\n              dup1\n                /* \"@openzeppelin/contracts/token/ERC20/ERC20.sol\":6581:6585  from */\n              dup7\n                /* \"@openzeppelin/contracts/token/ERC20/ERC20.sol\":6571:6586  _balances[from] */\n              0xffffffffffffffffffffffffffffffffffffffff\n              and\n              0xffffffffffffffffffffffffffffffffffffffff\n              and\n              dup2\n              mstore\n              0x20\n              add\n              swap1\n              dup2\n              mstore\n              0x20\n              add\n              0x00\n              keccak256\n                /* \"@openzeppelin/contracts/token/ERC20/ERC20.sol\":6571:6608  _balances[from] = fromBalance - value */\n              dup2\n              swap1\n              sstore\n              pop\n                /* \"@openzeppelin/contracts/token/ERC20/ERC20.sol\":6271:6633  {... */\n              pop\n                /* \"@openzeppelin/contracts/token/ERC20/ERC20.sol\":6093:6633  if (from == address(0)) {... */\n            tag_147:\n                /* \"@openzeppelin/contracts/token/ERC20/ERC20.sol\":6661:6662  0 */\n              0x00\n                /* \"@openzeppelin/contracts/token/ERC20/ERC20.sol\":6647:6663  to == address(0) */\n              0xffffffffffffffffffffffffffffffffffffffff\n              and\n                /* \"@openzeppelin/contracts/token/ERC20/ERC20.sol\":6647:6649  to */\n              dup3\n                /* \"@openzeppelin/contracts/token/ERC20/ERC20.sol\":6647:6663  to == address(0) */\n              0xffffffffffffffffffffffffffffffffffffffff\n              and\n              sub\n                /* \"@openzeppelin/contracts/token/ERC20/ERC20.sol\":6643:7068  if (to == address(0)) {... */\n              tag_150\n              jumpi\n                /* \"@openzeppelin/contracts/token/ERC20/ERC20.sol\":6826:6831  value */\n              dup1\n                /* \"@openzeppelin/contracts/token/ERC20/ERC20.sol\":6810:6822  _totalSupply */\n              0x02\n              0x00\n                /* \"@openzeppelin/contracts/token/ERC20/ERC20.sol\":6810:6831  _totalSupply -= value */\n              dup3\n              dup3\n              sload\n              sub\n              swap3\n              pop\n              pop\n              dup2\n              swap1\n              sstore\n              pop\n                /* \"@openzeppelin/contracts/token/ERC20/ERC20.sol\":6643:7068  if (to == address(0)) {... */\n              jump(tag_151)\n            tag_150:\n                /* \"@openzeppelin/contracts/token/ERC20/ERC20.sol\":7038:7043  value */\n              dup1\n                /* \"@openzeppelin/contracts/token/ERC20/ERC20.sol\":7021:7030  _balances */\n              0x00\n                /* \"@openzeppelin/contracts/token/ERC20/ERC20.sol\":7021:7034  _balances[to] */\n              dup1\n                /* \"@openzeppelin/contracts/token/ERC20/ERC20.sol\":7031:7033  to */\n              dup5\n                /* \"@openzeppelin/contracts/token/ERC20/ERC20.sol\":7021:7034  _balances[to] */\n              0xffffffffffffffffffffffffffffffffffffffff\n              and\n              0xffffffffffffffffffffffffffffffffffffffff\n              and\n              dup2\n              mstore\n              0x20\n              add\n              swap1\n              dup2\n              mstore\n              0x20\n              add\n              0x00\n              keccak256\n              0x00\n                /* \"@openzeppelin/contracts/token/ERC20/ERC20.sol\":7021:7043  _balances[to] += value */\n              dup3\n              dup3\n              sload\n              add\n              swap3\n              pop\n              pop\n              dup2\n              swap1\n              sstore\n              pop\n                /* \"@openzeppelin/contracts/token/ERC20/ERC20.sol\":6643:7068  if (to == address(0)) {... */\n            tag_151:\n                /* \"@openzeppelin/contracts/token/ERC20/ERC20.sol\":7098:7100  to */\n              dup2\n                /* \"@openzeppelin/contracts/token/ERC20/ERC20.sol\":7083:7108  Transfer(from, to, value) */\n              0xffffffffffffffffffffffffffffffffffffffff\n              and\n                /* \"@openzeppelin/contracts/token/ERC20/ERC20.sol\":7092:7096  from */\n              dup4\n                /* \"@openzeppelin/contracts/token/ERC20/ERC20.sol\":7083:7108  Transfer(from, to, value) */\n              0xffffffffffffffffffffffffffffffffffffffff\n              and\n              0xddf252ad1be2c89b69c2b068fc378daa952ba7f163c4a11628f55a4df523b3ef\n                /* \"@openzeppelin/contracts/token/ERC20/ERC20.sol\":7102:7107  value */\n              dup4\n                /* \"@openzeppelin/contracts/token/ERC20/ERC20.sol\":7083:7108  Transfer(from, to, value) */\n              mload(0x40)\n              tag_152\n              swap2\n              swap1\n              tag_33\n              jump\t// in\n            tag_152:\n              mload(0x40)\n              dup1\n              swap2\n              sub\n              swap1\n              log3\n                /* \"@openzeppelin/contracts/token/ERC20/ERC20.sol\":6008:7115  function _update(address from, address to, uint256 value) internal virtual {... */\n              pop\n              pop\n              pop\n              jump\t// out\n                /* \"#utility.yul\":7:133   */\n            tag_153:\n                /* \"#utility.yul\":44:51   */\n              0x00\n                /* \"#utility.yul\":84:126   */\n              0xffffffffffffffffffffffffffffffffffffffff\n                /* \"#utility.yul\":77:82   */\n              dup3\n                /* \"#utility.yul\":73:127   */\n              and\n                /* \"#utility.yul\":62:127   */\n              swap1\n              pop\n                /* \"#utility.yul\":7:133   */\n              swap2\n              swap1\n              pop\n              jump\t// out\n                /* \"#utility.yul\":139:235   */\n            tag_154:\n                /* \"#utility.yul\":176:183   */\n              0x00\n                /* \"#utility.yul\":205:229   */\n              tag_181\n                /* \"#utility.yul\":223:228   */\n              dup3\n                /* \"#utility.yul\":205:229   */\n              tag_153\n              jump\t// in\n            tag_181:\n                /* \"#utility.yul\":194:229   */\n              swap1\n              pop\n                /* \"#utility.yul\":139:235   */\n              swap2\n              swap1\n              pop\n              jump\t// out\n                /* \"#utility.yul\":241:359   */\n            tag_155:\n                /* \"#utility.yul\":328:352   */\n              tag_183\n                /* \"#utility.yul\":346:351   */\n              dup2\n                /* \"#utility.yul\":328:352   */\n              tag_154\n              jump\t// in\n            tag_183:\n                /* \"#utility.yul\":323:326   */\n              dup3\n                /* \"#utility.yul\":316:353   */\n              mstore\n                /* \"#utility.yul\":241:359   */\n              pop\n              pop\n              jump\t// out\n                /* \"#utility.yul\":365:587   */\n            tag_19:\n                /* \"#utility.yul\":458:462   */\n              0x00\n                /* \"#utility.yul\":496:498   */\n              0x20\n                /* \"#utility.yul\":485:494   */\n              dup3\n                /* \"#utility.yul\":481:499   */\n              add\n                /* \"#utility.yul\":473:499   */\n              swap1\n              pop\n                /* \"#utility.yul\":509:580   */\n              tag_185\n                /* \"#utility.yul\":577:578   */\n              0x00\n                /* \"#utility.yul\":566:575   */\n              dup4\n                /* \"#utility.yul\":562:579   */\n              add\n                /* \"#utility.yul\":553:559   */\n              dup5\n                /* \"#utility.yul\":509:580   */\n              tag_155\n              jump\t// in\n            tag_185:\n                /* \"#utility.yul\":365:587   */\n              swap3\n              swap2\n              pop\n              pop\n              jump\t// out\n                /* \"#utility.yul\":593:692   */\n            tag_156:\n                /* \"#utility.yul\":645:651   */\n              0x00\n                /* \"#utility.yul\":679:684   */\n              dup2\n                /* \"#utility.yul\":673:685   */\n              mload\n                /* \"#utility.yul\":663:685   */\n              swap1\n              pop\n                /* \"#utility.yul\":593:692   */\n              swap2\n              swap1\n              pop\n              jump\t// out\n                /* \"#utility.yul\":698:867   */\n            tag_157:\n                /* \"#utility.yul\":782:793   */\n              0x00\n                /* \"#utility.yul\":816:822   */\n              dup3\n                /* \"#utility.yul\":811:814   */\n              dup3\n                /* \"#utility.yul\":804:823   */\n              mstore\n                /* \"#utility.yul\":856:860   */\n              0x20\n                /* \"#utility.yul\":851:854   */\n              dup3\n                /* \"#utility.yul\":847:861   */\n              add\n                /* \"#utility.yul\":832:861   */\n              swap1\n              pop\n                /* \"#utility.yul\":698:867   */\n              swap3\n              swap2\n              pop\n              pop\n              jump\t// out\n                /* \"#utility.yul\":873:1012   */\n            tag_158:\n                /* \"#utility.yul\":962:968   */\n              dup3\n                /* \"#utility.yul\":957:960   */\n              dup2\n                /* \"#utility.yul\":952:955   */\n              dup4\n                /* \"#utility.yul\":946:969   */\n              mcopy\n                /* \"#utility.yul\":1003:1004   */\n              0x00\n                /* \"#utility.yul\":994:1000   */\n              dup4\n                /* \"#utility.yul\":989:992   */\n              dup4\n                /* \"#utility.yul\":985:1001   */\n              add\n                /* \"#utility.yul\":978:1005   */\n              mstore\n                /* \"#utility.yul\":873:1012   */\n              pop\n              pop\n              pop\n              jump\t// out\n                /* \"#utility.yul\":1018:1120   */\n            tag_159:\n                /* \"#utility.yul\":1059:1065   */\n              0x00\n                /* \"#utility.yul\":1110:1112   */\n              0x1f\n                /* \"#utility.yul\":1106:1113   */\n              not\n                /* \"#utility.yul\":1101:1103   */\n              0x1f\n                /* \"#utility.yul\":1094:1099   */\n              dup4\n                /* \"#utility.yul\":1090:1104   */\n              add\n                /* \"#utility.yul\":1086:1114   */\n              and\n                /* \"#utility.yul\":1076:1114   */\n              swap1\n              pop\n                /* \"#utility.yul\":1018:1120   */\n              swap2\n              swap1\n              pop\n              jump\t// out\n                /* \"#utility.yul\":1126:1503   */\n            tag_160:\n                /* \"#utility.yul\":1214:1217   */\n              0x00\n                /* \"#utility.yul\":1242:1281   */\n              tag_191\n                /* \"#utility.yul\":1275:1280   */\n              dup3\n                /* \"#utility.yul\":1242:1281   */\n              tag_156\n              jump\t// in\n            tag_191:\n                /* \"#utility.yul\":1297:1368   */\n              tag_192\n                /* \"#utility.yul\":1361:1367   */\n              dup2\n                /* \"#utility.yul\":1356:1359   */\n              dup6\n                /* \"#utility.yul\":1297:1368   */\n              tag_157\n              jump\t// in\n            tag_192:\n                /* \"#utility.yul\":1290:1368   */\n              swap4\n              pop\n                /* \"#utility.yul\":1377:1442   */\n              tag_193\n                /* \"#utility.yul\":1435:1441   */\n              dup2\n                /* \"#utility.yul\":1430:1433   */\n              dup6\n                /* \"#utility.yul\":1423:1427   */\n              0x20\n                /* \"#utility.yul\":1416:1421   */\n              dup7\n                /* \"#utility.yul\":1412:1428   */\n              add\n                /* \"#utility.yul\":1377:1442   */\n              tag_158\n              jump\t// in\n            tag_193:\n                /* \"#utility.yul\":1467:1496   */\n              tag_194\n                /* \"#utility.yul\":1489:1495   */\n              dup2\n                /* \"#utility.yul\":1467:1496   */\n              tag_159\n              jump\t// in\n            tag_194:\n                /* \"#utility.yul\":1462:1465   */\n              dup5\n                /* \"#utility.yul\":1458:1497   */\n              add\n                /* \"#utility.yul\":1451:1497   */\n              swap2\n              pop\n                /* \"#utility.yul\":1218:1503   */\n              pop\n                /* \"#utility.yul\":1126:1503   */\n              swap3\n              swap2\n              pop\n              pop\n              jump\t// out\n                /* \"#utility.yul\":1509:1822   */\n            tag_23:\n                /* \"#utility.yul\":1622:1626   */\n              0x00\n                /* \"#utility.yul\":1660:1662   */\n              0x20\n                /* \"#utility.yul\":1649:1658   */\n              dup3\n                /* \"#utility.yul\":1645:1663   */\n              add\n                /* \"#utility.yul\":1637:1663   */\n              swap1\n              pop\n                /* \"#utility.yul\":1709:1718   */\n              dup2\n                /* \"#utility.yul\":1703:1707   */\n              dup2\n                /* \"#utility.yul\":1699:1719   */\n              sub\n                /* \"#utility.yul\":1695:1696   */\n              0x00\n                /* \"#utility.yul\":1684:1693   */\n              dup4\n                /* \"#utility.yul\":1680:1697   */\n              add\n                /* \"#utility.yul\":1673:1720   */\n              mstore\n                /* \"#utility.yul\":1737:1815   */\n              tag_196\n                /* \"#utility.yul\":1810:1814   */\n              dup2\n                /* \"#utility.yul\":1801:1807   */\n              dup5\n                /* \"#utility.yul\":1737:1815   */\n              tag_160\n              jump\t// in\n            tag_196:\n                /* \"#utility.yul\":1729:1815   */\n              swap1\n              pop\n                /* \"#utility.yul\":1509:1822   */\n              swap3\n              swap2\n              pop\n              pop\n              jump\t// out\n                /* \"#utility.yul\":1909:2026   */\n            tag_162:\n                /* \"#utility.yul\":2018:2019   */\n              0x00\n                /* \"#utility.yul\":2015:2016   */\n              dup1\n                /* \"#utility.yul\":2008:2020   */\n              revert\n                /* \"#utility.yul\":2155:2277   */\n            tag_164:\n                /* \"#utility.yul\":2228:2252   */\n              tag_201\n                /* \"#utility.yul\":2246:2251   */\n              dup2\n                /* \"#utility.yul\":2228:2252   */\n              tag_154\n              jump\t// in\n            tag_201:\n                /* \"#utility.yul\":2221:2226   */\n              dup2\n                /* \"#utility.yul\":2218:2253   */\n              eq\n                /* \"#utility.yul\":2208:2271   */\n              tag_202\n              jumpi\n                /* \"#utility.yul\":2267:2268   */\n              0x00\n                /* \"#utility.yul\":2264:2265   */\n              dup1\n                /* \"#utility.yul\":2257:2269   */\n              revert\n                /* \"#utility.yul\":2208:2271   */\n            tag_202:\n                /* \"#utility.yul\":2155:2277   */\n              pop\n              jump\t// out\n                /* \"#utility.yul\":2283:2422   */\n            tag_165:\n                /* \"#utility.yul\":2329:2334   */\n              0x00\n                /* \"#utility.yul\":2367:2373   */\n              dup2\n                /* \"#utility.yul\":2354:2374   */\n              calldataload\n                /* \"#utility.yul\":2345:2374   */\n              swap1\n              pop\n                /* \"#utility.yul\":2383:2416   */\n              tag_204\n                /* \"#utility.yul\":2410:2415   */\n              dup2\n                /* \"#utility.yul\":2383:2416   */\n              tag_164\n              jump\t// in\n            tag_204:\n                /* \"#utility.yul\":2283:2422   */\n              swap3\n              swap2\n              pop\n              pop\n              jump\t// out\n                /* \"#utility.yul\":2428:2505   */\n            tag_166:\n                /* \"#utility.yul\":2465:2472   */\n              0x00\n                /* \"#utility.yul\":2494:2499   */\n              dup2\n                /* \"#utility.yul\":2483:2499   */\n              swap1\n              pop\n                /* \"#utility.yul\":2428:2505   */\n              swap2\n              swap1\n              pop\n              jump\t// out\n                /* \"#utility.yul\":2511:2633   */\n            tag_167:\n                /* \"#utility.yul\":2584:2608   */\n              tag_207\n                /* \"#utility.yul\":2602:2607   */\n              dup2\n                /* \"#utility.yul\":2584:2608   */\n              tag_166\n              jump\t// in\n            tag_207:\n                /* \"#utility.yul\":2577:2582   */\n              dup2\n                /* \"#utility.yul\":2574:2609   */\n              eq\n                /* \"#utility.yul\":2564:2627   */\n              tag_208\n              jumpi\n                /* \"#utility.yul\":2623:2624   */\n              0x00\n                /* \"#utility.yul\":2620:2621   */\n              dup1\n                /* \"#utility.yul\":2613:2625   */\n              revert\n                /* \"#utility.yul\":2564:2627   */\n            tag_208:\n                /* \"#utility.yul\":2511:2633   */\n              pop\n              jump\t// out\n                /* \"#utility.yul\":2639:2778   */\n            tag_168:\n                /* \"#utility.yul\":2685:2690   */\n              0x00\n                /* \"#utility.yul\":2723:2729   */\n              dup2\n                /* \"#utility.yul\":2710:2730   */\n              calldataload\n                /* \"#utility.yul\":2701:2730   */\n              swap1\n              pop\n                /* \"#utility.yul\":2739:2772   */\n              tag_210\n                /* \"#utility.yul\":2766:2771   */\n              dup2\n                /* \"#utility.yul\":2739:2772   */\n              tag_167\n              jump\t// in\n            tag_210:\n                /* \"#utility.yul\":2639:2778   */\n              swap3\n              swap2\n              pop\n              pop\n              jump\t// out\n                /* \"#utility.yul\":2784:3258   */\n            tag_26:\n                /* \"#utility.yul\":2852:2858   */\n              0x00\n                /* \"#utility.yul\":2860:2866   */\n              dup1\n                /* \"#utility.yul\":2909:2911   */\n              0x40\n                /* \"#utility.yul\":2897:2906   */\n              dup4\n                /* \"#utility.yul\":2888:2895   */\n              dup6\n                /* \"#utility.yul\":2884:2907   */\n              sub\n                /* \"#utility.yul\":2880:2912   */\n              slt\n                /* \"#utility.yul\":2877:2996   */\n              iszero\n              tag_212\n              jumpi\n                /* \"#utility.yul\":2915:2994   */\n              tag_213\n              tag_162\n              jump\t// in\n            tag_213:\n                /* \"#utility.yul\":2877:2996   */\n            tag_212:\n                /* \"#utility.yul\":3035:3036   */\n              0x00\n                /* \"#utility.yul\":3060:3113   */\n              tag_214\n                /* \"#utility.yul\":3105:3112   */\n              dup6\n                /* \"#utility.yul\":3096:3102   */\n              dup3\n                /* \"#utility.yul\":3085:3094   */\n              dup7\n                /* \"#utility.yul\":3081:3103   */\n              add\n                /* \"#utility.yul\":3060:3113   */\n              tag_165\n              jump\t// in\n            tag_214:\n                /* \"#utility.yul\":3050:3113   */\n              swap3\n              pop\n                /* \"#utility.yul\":3006:3123   */\n              pop\n                /* \"#utility.yul\":3162:3164   */\n              0x20\n                /* \"#utility.yul\":3188:3241   */\n              tag_215\n                /* \"#utility.yul\":3233:3240   */\n              dup6\n                /* \"#utility.yul\":3224:3230   */\n              dup3\n                /* \"#utility.yul\":3213:3222   */\n              dup7\n                /* \"#utility.yul\":3209:3231   */\n              add\n                /* \"#utility.yul\":3188:3241   */\n              tag_168\n              jump\t// in\n            tag_215:\n                /* \"#utility.yul\":3178:3241   */\n              swap2\n              pop\n                /* \"#utility.yul\":3133:3251   */\n              pop\n                /* \"#utility.yul\":2784:3258   */\n              swap3\n              pop\n              swap3\n              swap1\n              pop\n              jump\t// out\n                /* \"#utility.yul\":3264:3354   */\n            tag_169:\n                /* \"#utility.yul\":3298:3305   */\n              0x00\n                /* \"#utility.yul\":3341:3346   */\n              dup2\n                /* \"#utility.yul\":3334:3347   */\n              iszero\n                /* \"#utility.yul\":3327:3348   */\n              iszero\n                /* \"#utility.yul\":3316:3348   */\n              swap1\n              pop\n                /* \"#utility.yul\":3264:3354   */\n              swap2\n              swap1\n              pop\n              jump\t// out\n                /* \"#utility.yul\":3360:3469   */\n            tag_170:\n                /* \"#utility.yul\":3441:3462   */\n              tag_218\n                /* \"#utility.yul\":3456:3461   */\n              dup2\n                /* \"#utility.yul\":3441:3462   */\n              tag_169\n              jump\t// in\n            tag_218:\n                /* \"#utility.yul\":3436:3439   */\n              dup3\n                /* \"#utility.yul\":3429:3463   */\n              mstore\n                /* \"#utility.yul\":3360:3469   */\n              pop\n              pop\n              jump\t// out\n                /* \"#utility.yul\":3475:3685   */\n            tag_29:\n                /* \"#utility.yul\":3562:3566   */\n              0x00\n                /* \"#utility.yul\":3600:3602   */\n              0x20\n                /* \"#utility.yul\":3589:3598   */\n              dup3\n                /* \"#utility.yul\":3585:3603   */\n              add\n                /* \"#utility.yul\":3577:3603   */\n              swap1\n              pop\n                /* \"#utility.yul\":3613:3678   */\n              tag_220\n                /* \"#utility.yul\":3675:3676   */\n              0x00\n                /* \"#utility.yul\":3664:3673   */\n              dup4\n                /* \"#utility.yul\":3660:3677   */\n              add\n                /* \"#utility.yul\":3651:3657   */\n              dup5\n                /* \"#utility.yul\":3613:3678   */\n              tag_170\n              jump\t// in\n            tag_220:\n                /* \"#utility.yul\":3475:3685   */\n              swap3\n              swap2\n              pop\n              pop\n              jump\t// out\n                /* \"#utility.yul\":3691:3809   */\n            tag_171:\n                /* \"#utility.yul\":3778:3802   */\n              tag_222\n                /* \"#utility.yul\":3796:3801   */\n              dup2\n                /* \"#utility.yul\":3778:3802   */\n              tag_166\n              jump\t// in\n            tag_222:\n                /* \"#utility.yul\":3773:3776   */\n              dup3\n                /* \"#utility.yul\":3766:3803   */\n              mstore\n                /* \"#utility.yul\":3691:3809   */\n              pop\n              pop\n              jump\t// out\n                /* \"#utility.yul\":3815:4037   */\n            tag_33:\n                /* \"#utility.yul\":3908:3912   */\n              0x00\n                /* \"#utility.yul\":3946:3948   */\n              0x20\n                /* \"#utility.yul\":3935:3944   */\n              dup3\n                /* \"#utility.yul\":3931:3949   */\n              add\n                /* \"#utility.yul\":3923:3949   */\n              swap1\n              pop\n                /* \"#utility.yul\":3959:4030   */\n              tag_224\n                /* \"#utility.yul\":4027:4028   */\n              0x00\n                /* \"#utility.yul\":4016:4025   */\n              dup4\n                /* \"#utility.yul\":4012:4029   */\n              add\n                /* \"#utility.yul\":4003:4009   */\n              dup5\n                /* \"#utility.yul\":3959:4030   */\n              tag_171\n              jump\t// in\n            tag_224:\n                /* \"#utility.yul\":3815:4037   */\n              swap3\n              swap2\n              pop\n              pop\n              jump\t// out\n                /* \"#utility.yul\":4043:4662   */\n            tag_36:\n                /* \"#utility.yul\":4120:4126   */\n              0x00\n                /* \"#utility.yul\":4128:4134   */\n              dup1\n                /* \"#utility.yul\":4136:4142   */\n              0x00\n                /* \"#utility.yul\":4185:4187   */\n              0x60\n                /* \"#utility.yul\":4173:4182   */\n              dup5\n                /* \"#utility.yul\":4164:4171   */\n              dup7\n                /* \"#utility.yul\":4160:4183   */\n              sub\n                /* \"#utility.yul\":4156:4188   */\n              slt\n                /* \"#utility.yul\":4153:4272   */\n              iszero\n              tag_226\n              jumpi\n                /* \"#utility.yul\":4191:4270   */\n              tag_227\n              tag_162\n              jump\t// in\n            tag_227:\n                /* \"#utility.yul\":4153:4272   */\n            tag_226:\n                /* \"#utility.yul\":4311:4312   */\n              0x00\n                /* \"#utility.yul\":4336:4389   */\n              tag_228\n                /* \"#utility.yul\":4381:4388   */\n              dup7\n                /* \"#utility.yul\":4372:4378   */\n              dup3\n                /* \"#utility.yul\":4361:4370   */\n              dup8\n                /* \"#utility.yul\":4357:4379   */\n              add\n                /* \"#utility.yul\":4336:4389   */\n              tag_165\n              jump\t// in\n            tag_228:\n                /* \"#utility.yul\":4326:4389   */\n              swap4\n              pop\n                /* \"#utility.yul\":4282:4399   */\n              pop\n                /* \"#utility.yul\":4438:4440   */\n              0x20\n                /* \"#utility.yul\":4464:4517   */\n              tag_229\n                /* \"#utility.yul\":4509:4516   */\n              dup7\n                /* \"#utility.yul\":4500:4506   */\n              dup3\n                /* \"#utility.yul\":4489:4498   */\n              dup8\n                /* \"#utility.yul\":4485:4507   */\n              add\n                /* \"#utility.yul\":4464:4517   */\n              tag_165\n              jump\t// in\n            tag_229:\n                /* \"#utility.yul\":4454:4517   */\n              swap3\n              pop\n                /* \"#utility.yul\":4409:4527   */\n              pop\n                /* \"#utility.yul\":4566:4568   */\n              0x40\n                /* \"#utility.yul\":4592:4645   */\n              tag_230\n                /* \"#utility.yul\":4637:4644   */\n              dup7\n                /* \"#utility.yul\":4628:4634   */\n              dup3\n                /* \"#utility.yul\":4617:4626   */\n              dup8\n                /* \"#utility.yul\":4613:4635   */\n              add\n                /* \"#utility.yul\":4592:4645   */\n              tag_168\n              jump\t// in\n            tag_230:\n                /* \"#utility.yul\":4582:4645   */\n              swap2\n              pop\n                /* \"#utility.yul\":4537:4655   */\n              pop\n                /* \"#utility.yul\":4043:4662   */\n              swap3\n              pop\n              swap3\n              pop\n              swap3\n              jump\t// out\n                /* \"#utility.yul\":4668:4754   */\n            tag_172:\n                /* \"#utility.yul\":4703:4710   */\n              0x00\n                /* \"#utility.yul\":4743:4747   */\n              0xff\n                /* \"#utility.yul\":4736:4741   */\n              dup3\n                /* \"#utility.yul\":4732:4748   */\n              and\n                /* \"#utility.yul\":4721:4748   */\n              swap1\n              pop\n                /* \"#utility.yul\":4668:4754   */\n              swap2\n              swap1\n              pop\n              jump\t// out\n                /* \"#utility.yul\":4760:4872   */\n            tag_173:\n                /* \"#utility.yul\":4843:4865   */\n              tag_233\n                /* \"#utility.yul\":4859:4864   */\n              dup2\n                /* \"#utility.yul\":4843:4865   */\n              tag_172\n              jump\t// in\n            tag_233:\n                /* \"#utility.yul\":4838:4841   */\n              dup3\n                /* \"#utility.yul\":4831:4866   */\n              mstore\n                /* \"#utility.yul\":4760:4872   */\n              pop\n              pop\n              jump\t// out\n                /* \"#utility.yul\":4878:5092   */\n            tag_42:\n                /* \"#utility.yul\":4967:4971   */\n              0x00\n                /* \"#utility.yul\":5005:5007   */\n              0x20\n                /* \"#utility.yul\":4994:5003   */\n              dup3\n                /* \"#utility.yul\":4990:5008   */\n              add\n                /* \"#utility.yul\":4982:5008   */\n              swap1\n              pop\n                /* \"#utility.yul\":5018:5085   */\n              tag_235\n                /* \"#utility.yul\":5082:5083   */\n              0x00\n                /* \"#utility.yul\":5071:5080   */\n              dup4\n                /* \"#utility.yul\":5067:5084   */\n              add\n                /* \"#utility.yul\":5058:5064   */\n              dup5\n                /* \"#utility.yul\":5018:5085   */\n              tag_173\n              jump\t// in\n            tag_235:\n                /* \"#utility.yul\":4878:5092   */\n              swap3\n              swap2\n              pop\n              pop\n              jump\t// out\n                /* \"#utility.yul\":5098:5427   */\n            tag_48:\n                /* \"#utility.yul\":5157:5163   */\n              0x00\n                /* \"#utility.yul\":5206:5208   */\n              0x20\n                /* \"#utility.yul\":5194:5203   */\n              dup3\n                /* \"#utility.yul\":5185:5192   */\n              dup5\n                /* \"#utility.yul\":5181:5204   */\n              sub\n                /* \"#utility.yul\":5177:5209   */\n              slt\n                /* \"#utility.yul\":5174:5293   */\n              iszero\n              tag_237\n              jumpi\n                /* \"#utility.yul\":5212:5291   */\n              tag_238\n              tag_162\n              jump\t// in\n            tag_238:\n                /* \"#utility.yul\":5174:5293   */\n            tag_237:\n                /* \"#utility.yul\":5332:5333   */\n              0x00\n                /* \"#utility.yul\":5357:5410   */\n              tag_239\n                /* \"#utility.yul\":5402:5409   */\n              dup5\n                /* \"#utility.yul\":5393:5399   */\n              dup3\n                /* \"#utility.yul\":5382:5391   */\n              dup6\n                /* \"#utility.yul\":5378:5400   */\n              add\n                /* \"#utility.yul\":5357:5410   */\n              tag_165\n              jump\t// in\n            tag_239:\n                /* \"#utility.yul\":5347:5410   */\n              swap2\n              pop\n                /* \"#utility.yul\":5303:5420   */\n              pop\n                /* \"#utility.yul\":5098:5427   */\n              swap3\n              swap2\n              pop\n              pop\n              jump\t// out\n                /* \"#utility.yul\":5433:5907   */\n            tag_63:\n                /* \"#utility.yul\":5501:5507   */\n              0x00\n                /* \"#utility.yul\":5509:5515   */\n              dup1\n                /* \"#utility.yul\":5558:5560   */\n              0x40\n                /* \"#utility.yul\":5546:5555   */\n              dup4\n                /* \"#utility.yul\":5537:5544   */\n              dup6\n                /* \"#utility.yul\":5533:5556   */\n              sub\n                /* \"#utility.yul\":5529:5561   */\n              slt\n                /* \"#utility.yul\":5526:5645   */\n              iszero\n              tag_241\n              jumpi\n                /* \"#utility.yul\":5564:5643   */\n              tag_242\n              tag_162\n              jump\t// in\n            tag_242:\n                /* \"#utility.yul\":5526:5645   */\n            tag_241:\n                /* \"#utility.yul\":5684:5685   */\n              0x00\n                /* \"#utility.yul\":5709:5762   */\n              tag_243\n                /* \"#utility.yul\":5754:5761   */\n              dup6\n                /* \"#utility.yul\":5745:5751   */\n              dup3\n                /* \"#utility.yul\":5734:5743   */\n              dup7\n                /* \"#utility.yul\":5730:5752   */\n              add\n                /* \"#utility.yul\":5709:5762   */\n              tag_165\n              jump\t// in\n            tag_243:\n                /* \"#utility.yul\":5699:5762   */\n              swap3\n              pop\n                /* \"#utility.yul\":5655:5772   */\n              pop\n                /* \"#utility.yul\":5811:5813   */\n              0x20\n                /* \"#utility.yul\":5837:5890   */\n              tag_244\n                /* \"#utility.yul\":5882:5889   */\n              dup6\n                /* \"#utility.yul\":5873:5879   */\n              dup3\n                /* \"#utility.yul\":5862:5871   */\n              dup7\n                /* \"#utility.yul\":5858:5880   */\n              add\n                /* \"#utility.yul\":5837:5890   */\n              tag_165\n              jump\t// in\n            tag_244:\n                /* \"#utility.yul\":5827:5890   */\n              swap2\n              pop\n                /* \"#utility.yul\":5782:5900   */\n              pop\n                /* \"#utility.yul\":5433:5907   */\n              swap3\n              pop\n              swap3\n              swap1\n              pop\n              jump\t// out\n                /* \"#utility.yul\":5913:6093   */\n            tag_174:\n                /* \"#utility.yul\":5961:6038   */\n              0x4e487b7100000000000000000000000000000000000000000000000000000000\n                /* \"#utility.yul\":5958:5959   */\n              0x00\n                /* \"#utility.yul\":5951:6039   */\n              mstore\n                /* \"#utility.yul\":6058:6062   */\n              0x22\n                /* \"#utility.yul\":6055:6056   */\n              0x04\n                /* \"#utility.yul\":6048:6063   */\n              mstore\n                /* \"#utility.yul\":6082:6086   */\n              0x24\n                /* \"#utility.yul\":6079:6080   */\n              0x00\n                /* \"#utility.yul\":6072:6087   */\n              revert\n                /* \"#utility.yul\":6099:6419   */\n            tag_68:\n                /* \"#utility.yul\":6143:6149   */\n              0x00\n                /* \"#utility.yul\":6180:6181   */\n              0x02\n                /* \"#utility.yul\":6174:6178   */\n              dup3\n                /* \"#utility.yul\":6170:6182   */\n              div\n                /* \"#utility.yul\":6160:6182   */\n              swap1\n              pop\n                /* \"#utility.yul\":6227:6228   */\n              0x01\n                /* \"#utility.yul\":6221:6225   */\n              dup3\n                /* \"#utility.yul\":6217:6229   */\n              and\n                /* \"#utility.yul\":6248:6266   */\n              dup1\n                /* \"#utility.yul\":6238:6319   */\n              tag_247\n              jumpi\n                /* \"#utility.yul\":6304:6308   */\n              0x7f\n                /* \"#utility.yul\":6296:6302   */\n              dup3\n                /* \"#utility.yul\":6292:6309   */\n              and\n                /* \"#utility.yul\":6282:6309   */\n              swap2\n              pop\n                /* \"#utility.yul\":6238:6319   */\n            tag_247:\n                /* \"#utility.yul\":6366:6368   */\n              0x20\n                /* \"#utility.yul\":6358:6364   */\n              dup3\n                /* \"#utility.yul\":6355:6369   */\n              lt\n                /* \"#utility.yul\":6335:6353   */\n              dup2\n                /* \"#utility.yul\":6332:6370   */\n              sub\n                /* \"#utility.yul\":6329:6413   */\n              tag_248\n              jumpi\n                /* \"#utility.yul\":6385:6403   */\n              tag_249\n              tag_174\n              jump\t// in\n            tag_249:\n                /* \"#utility.yul\":6329:6413   */\n            tag_248:\n                /* \"#utility.yul\":6150:6419   */\n              pop\n                /* \"#utility.yul\":6099:6419   */\n              swap2\n              swap1\n              pop\n              jump\t// out\n                /* \"#utility.yul\":6425:6590   */\n            tag_175:\n                /* \"#utility.yul\":6565:6582   */\n              0x4e6f74207468652063726561746f720000000000000000000000000000000000\n                /* \"#utility.yul\":6561:6562   */\n              0x00\n                /* \"#utility.yul\":6553:6559   */\n              dup3\n                /* \"#utility.yul\":6549:6563   */\n              add\n                /* \"#utility.yul\":6542:6583   */\n              mstore\n                /* \"#utility.yul\":6425:6590   */\n              pop\n              jump\t// out\n                /* \"#utility.yul\":6596:6962   */\n            tag_176:\n                /* \"#utility.yul\":6738:6741   */\n              0x00\n                /* \"#utility.yul\":6759:6826   */\n              tag_252\n                /* \"#utility.yul\":6823:6825   */\n              0x0f\n                /* \"#utility.yul\":6818:6821   */\n              dup4\n                /* \"#utility.yul\":6759:6826   */\n              tag_157\n              jump\t// in\n            tag_252:\n                /* \"#utility.yul\":6752:6826   */\n              swap2\n              pop\n                /* \"#utility.yul\":6835:6928   */\n              tag_253\n                /* \"#utility.yul\":6924:6927   */\n              dup3\n                /* \"#utility.yul\":6835:6928   */\n              tag_175\n              jump\t// in\n            tag_253:\n                /* \"#utility.yul\":6953:6955   */\n              0x20\n                /* \"#utility.yul\":6948:6951   */\n              dup3\n                /* \"#utility.yul\":6944:6956   */\n              add\n                /* \"#utility.yul\":6937:6956   */\n              swap1\n              pop\n                /* \"#utility.yul\":6596:6962   */\n              swap2\n              swap1\n              pop\n              jump\t// out\n                /* \"#utility.yul\":6968:7387   */\n            tag_89:\n                /* \"#utility.yul\":7134:7138   */\n              0x00\n                /* \"#utility.yul\":7172:7174   */\n              0x20\n                /* \"#utility.yul\":7161:7170   */\n              dup3\n                /* \"#utility.yul\":7157:7175   */\n              add\n                /* \"#utility.yul\":7149:7175   */\n              swap1\n              pop\n                /* \"#utility.yul\":7221:7230   */\n              dup2\n                /* \"#utility.yul\":7215:7219   */\n              dup2\n                /* \"#utility.yul\":7211:7231   */\n              sub\n                /* \"#utility.yul\":7207:7208   */\n              0x00\n                /* \"#utility.yul\":7196:7205   */\n              dup4\n                /* \"#utility.yul\":7192:7209   */\n              add\n                /* \"#utility.yul\":7185:7232   */\n              mstore\n                /* \"#utility.yul\":7249:7380   */\n              tag_255\n                /* \"#utility.yul\":7375:7379   */\n              dup2\n                /* \"#utility.yul\":7249:7380   */\n              tag_176\n              jump\t// in\n            tag_255:\n                /* \"#utility.yul\":7241:7380   */\n              swap1\n              pop\n                /* \"#utility.yul\":6968:7387   */\n              swap2\n              swap1\n              pop\n              jump\t// out\n                /* \"#utility.yul\":7393:7835   */\n            tag_119:\n                /* \"#utility.yul\":7542:7546   */\n              0x00\n                /* \"#utility.yul\":7580:7582   */\n              0x60\n                /* \"#utility.yul\":7569:7578   */\n              dup3\n                /* \"#utility.yul\":7565:7583   */\n              add\n                /* \"#utility.yul\":7557:7583   */\n              swap1\n              pop\n                /* \"#utility.yul\":7593:7664   */\n              tag_257\n                /* \"#utility.yul\":7661:7662   */\n              0x00\n                /* \"#utility.yul\":7650:7659   */\n              dup4\n                /* \"#utility.yul\":7646:7663   */\n              add\n                /* \"#utility.yul\":7637:7643   */\n              dup7\n                /* \"#utility.yul\":7593:7664   */\n              tag_155\n              jump\t// in\n            tag_257:\n                /* \"#utility.yul\":7674:7746   */\n              tag_258\n                /* \"#utility.yul\":7742:7744   */\n              0x20\n                /* \"#utility.yul\":7731:7740   */\n              dup4\n                /* \"#utility.yul\":7727:7745   */\n              add\n                /* \"#utility.yul\":7718:7724   */\n              dup6\n                /* \"#utility.yul\":7674:7746   */\n              tag_171\n              jump\t// in\n            tag_258:\n                /* \"#utility.yul\":7756:7828   */\n              tag_259\n                /* \"#utility.yul\":7824:7826   */\n              0x40\n                /* \"#utility.yul\":7813:7822   */\n              dup4\n                /* \"#utility.yul\":7809:7827   */\n              add\n                /* \"#utility.yul\":7800:7806   */\n              dup5\n                /* \"#utility.yul\":7756:7828   */\n              tag_171\n              jump\t// in\n            tag_259:\n                /* \"#utility.yul\":7393:7835   */\n              swap5\n              swap4\n              pop\n              pop\n              pop\n              pop\n              jump\t// out\n                /* \"#utility.yul\":7841:8021   */\n            tag_177:\n                /* \"#utility.yul\":7889:7966   */\n              0x4e487b7100000000000000000000000000000000000000000000000000000000\n                /* \"#utility.yul\":7886:7887   */\n              0x00\n                /* \"#utility.yul\":7879:7967   */\n              mstore\n                /* \"#utility.yul\":7986:7990   */\n              0x11\n                /* \"#utility.yul\":7983:7984   */\n              0x04\n                /* \"#utility.yul\":7976:7991   */\n              mstore\n                /* \"#utility.yul\":8010:8014   */\n              0x24\n                /* \"#utility.yul\":8007:8008   */\n              0x00\n                /* \"#utility.yul\":8000:8015   */\n              revert\n                /* \"#utility.yul\":8027:8218   */\n            tag_146:\n                /* \"#utility.yul\":8067:8070   */\n              0x00\n                /* \"#utility.yul\":8086:8106   */\n              tag_262\n                /* \"#utility.yul\":8104:8105   */\n              dup3\n                /* \"#utility.yul\":8086:8106   */\n              tag_166\n              jump\t// in\n            tag_262:\n                /* \"#utility.yul\":8081:8106   */\n              swap2\n              pop\n                /* \"#utility.yul\":8120:8140   */\n              tag_263\n                /* \"#utility.yul\":8138:8139   */\n              dup4\n                /* \"#utility.yul\":8120:8140   */\n              tag_166\n              jump\t// in\n            tag_263:\n                /* \"#utility.yul\":8115:8140   */\n              swap3\n              pop\n                /* \"#utility.yul\":8163:8164   */\n              dup3\n                /* \"#utility.yul\":8160:8161   */\n              dup3\n                /* \"#utility.yul\":8156:8165   */\n              add\n                /* \"#utility.yul\":8149:8165   */\n              swap1\n              pop\n                /* \"#utility.yul\":8184:8187   */\n              dup1\n                /* \"#utility.yul\":8181:8182   */\n              dup3\n                /* \"#utility.yul\":8178:8188   */\n              gt\n                /* \"#utility.yul\":8175:8211   */\n              iszero\n              tag_264\n              jumpi\n                /* \"#utility.yul\":8191:8209   */\n              tag_265\n              tag_177\n              jump\t// in\n            tag_265:\n                /* \"#utility.yul\":8175:8211   */\n            tag_264:\n                /* \"#utility.yul\":8027:8218   */\n              swap3\n              swap2\n              pop\n              pop\n              jump\t// out\n\n            auxdata: 0xa26469706673582212201f3ba1cd9a1dea59a4ec57bb43cc908534eb33e62b4a135530352632d985c6ef64736f6c634300081a0033\n        }\n    }\n\n    auxdata: 0xa2646970667358221220a60ec600ed16d2e0f42614fffece2e3a5c4e4265e440cbfd874ff666f066c0c664736f6c634300081a0033\n}\n",
				"bytecode": {
					"linkReferences": {},
					"object": "608060405234801561000f575f80fd5b50335f73ffffffffffffffffffffffffffffffffffffffff168173ffffffffffffffffffffffffffffffffffffffff1603610081575f6040517f1e4fbdf70000000000000000000000000000000000000000000000000000000081526004016100789190610196565b60405180910390fd5b6100908161009660201b60201c565b506101af565b5f805f9054906101000a900473ffffffffffffffffffffffffffffffffffffffff169050815f806101000a81548173ffffffffffffffffffffffffffffffffffffffff021916908373ffffffffffffffffffffffffffffffffffffffff1602179055508173ffffffffffffffffffffffffffffffffffffffff168173ffffffffffffffffffffffffffffffffffffffff167f8be0079c531659141344cd1fd0a4f28419497f9722a3daafe3b4186f6b6457e060405160405180910390a35050565b5f73ffffffffffffffffffffffffffffffffffffffff82169050919050565b5f61018082610157565b9050919050565b61019081610176565b82525050565b5f6020820190506101a95f830184610187565b92915050565b613029806101bc5f395ff3fe608060405260043610610085575f3560e01c8063715018a611610058578063715018a6146101545780638da5cb5b1461016a578063d6b1741814610194578063e1f04175146101b0578063f2fde38b146101d857610085565b80630d1118ce146100895780631ad18426146100b157806329c81b91146100f05780632f2f2d561461012c575b5f80fd5b348015610094575f80fd5b506100af60048036038101906100aa9190610e5f565b610200565b005b3480156100bc575f80fd5b506100d760048036038101906100d29190610e5f565b61039b565b6040516100e79493929190610f1c565b60405180910390f35b3480156100fb575f80fd5b5061011660048036038101906101119190610f66565b610458565b6040516101239190610fa0565b60405180910390f35b348015610137575f80fd5b50610152600480360381019061014d91906110e5565b610488565b005b34801561015f575f80fd5b50610168610658565b005b348015610175575f80fd5b5061017e61066b565b60405161018b9190610fa0565b60405180910390f35b6101ae60048036038101906101a9919061115b565b610692565b005b3480156101bb575f80fd5b506101d660048036038101906101d191906111bf565b610989565b005b3480156101e3575f80fd5b506101fe60048036038101906101f99190610f66565b610be1565b005b8173ffffffffffffffffffffffffffffffffffffffff1660015f3373ffffffffffffffffffffffffffffffffffffffff1673ffffffffffffffffffffffffffffffffffffffff1681526020019081526020015f205f9054906101000a900473ffffffffffffffffffffffffffffffffffffffff1673ffffffffffffffffffffffffffffffffffffffff16146102ca576040517f08c379a00000000000000000000000000000000000000000000000000000000081526004016102c19061129c565b60405180910390fd5b8173ffffffffffffffffffffffffffffffffffffffff16639dc29fac33836040518363ffffffff1660e01b81526004016103059291906112ba565b5f604051808303815f87803b15801561031c575f80fd5b505af115801561032e573d5f803e3d5ffd5b505050503373ffffffffffffffffffffffffffffffffffffffff168273ffffffffffffffffffffffffffffffffffffffff167f857ac1c9e97cc66ecae5f524c9c611463ae748b85af3ca454a5ec4d7d341924d8360405161038f91906112e1565b60405180910390a35050565b6002602052815f5260405f20602052805f5260405f205f9150915050805f0180546103c590611327565b80601f01602080910402602001604051908101604052809291908181526020018280546103f190611327565b801561043c5780601f106104135761010080835404028352916020019161043c565b820191905f5260205f20905b81548152906001019060200180831161041f57829003601f168201915b5050505050908060010154908060020154908060030154905084565b6001602052805f5260405f205f915054906101000a900473ffffffffffffffffffffffffffffffffffffffff1681565b5f73ffffffffffffffffffffffffffffffffffffffff1660015f3373ffffffffffffffffffffffffffffffffffffffff1673ffffffffffffffffffffffffffffffffffffffff1681526020019081526020015f205f9054906101000a900473ffffffffffffffffffffffffffffffffffffffff1673ffffffffffffffffffffffffffffffffffffffff1614610552576040517f08c379a0000000000000000000000000000000000000000000000000000000008152600401610549906113a1565b60405180910390fd5b5f82823360405161056290610db4565b61056e939291906113bf565b604051809103905ff080158015610587573d5f803e3d5ffd5b5090508060015f3373ffffffffffffffffffffffffffffffffffffffff1673ffffffffffffffffffffffffffffffffffffffff1681526020019081526020015f205f6101000a81548173ffffffffffffffffffffffffffffffffffffffff021916908373ffffffffffffffffffffffffffffffffffffffff1602179055503373ffffffffffffffffffffffffffffffffffffffff167fd5f9bdf12adf29dab0248c349842c3822d53ae2bb4f36352f301630d018c81398260405161064b9190610fa0565b60405180910390a2505050565b610660610c65565b6106695f610cec565b565b5f805f9054906101000a900473ffffffffffffffffffffffffffffffffffffffff16905090565b8373ffffffffffffffffffffffffffffffffffffffff1660015f3373ffffffffffffffffffffffffffffffffffffffff1673ffffffffffffffffffffffffffffffffffffffff1681526020019081526020015f205f9054906101000a900473ffffffffffffffffffffffffffffffffffffffff1673ffffffffffffffffffffffffffffffffffffffff161461075c576040517f08c379a00000000000000000000000000000000000000000000000000000000081526004016107539061129c565b60405180910390fd5b5f60025f8673ffffffffffffffffffffffffffffffffffffffff1673ffffffffffffffffffffffffffffffffffffffff1681526020019081526020015f205f8581526020019081526020015f2090505f8160010154116107f1576040517f08c379a00000000000000000000000000000000000000000000000000000000081526004016107e89061144c565b60405180910390fd5b80600101548382600201546108069190611497565b1115610847576040517f08c379a000000000000000000000000000000000000000000000000000000000815260040161083e90611514565b60405180910390fd5b8281600301546108579190611532565b341015610899576040517f08c379a0000000000000000000000000000000000000000000000000000000008152600401610890906115bd565b60405180910390fd5b82816002015f8282546108ac9190611497565b925050819055508473ffffffffffffffffffffffffffffffffffffffff166340c10f1983856040518363ffffffff1660e01b81526004016108ee9291906112ba565b5f604051808303815f87803b158015610905575f80fd5b505af1158015610917573d5f803e3d5ffd5b505050508173ffffffffffffffffffffffffffffffffffffffff168573ffffffffffffffffffffffffffffffffffffffff167fe456f0d575ef17126ead0c00ffd703adb3aa7b837d5b32ae967c707f804fa867868660405161097a9291906115db565b60405180910390a35050505050565b8473ffffffffffffffffffffffffffffffffffffffff1660015f3373ffffffffffffffffffffffffffffffffffffffff1673ffffffffffffffffffffffffffffffffffffffff1681526020019081526020015f205f9054906101000a900473ffffffffffffffffffffffffffffffffffffffff1673ffffffffffffffffffffffffffffffffffffffff1614610a53576040517f08c379a0000000000000000000000000000000000000000000000000000000008152600401610a4a9061129c565b60405180910390fd5b5f60025f8773ffffffffffffffffffffffffffffffffffffffff1673ffffffffffffffffffffffffffffffffffffffff1681526020019081526020015f205f8681526020019081526020015f206001015414610ae4576040517f08c379a0000000000000000000000000000000000000000000000000000000008152600401610adb9061164c565b60405180910390fd5b60405180608001604052808481526020018381526020015f81526020018281525060025f8773ffffffffffffffffffffffffffffffffffffffff1673ffffffffffffffffffffffffffffffffffffffff1681526020019081526020015f205f8681526020019081526020015f205f820151815f019081610b649190611807565b506020820151816001015560408201518160020155606082015181600301559050508473ffffffffffffffffffffffffffffffffffffffff167fa7973c2fc2736eea44b46b6f4216f2378ea4f7a84ba3268bee4436fa12a50b1e85858585604051610bd294939291906118d6565b60405180910390a25050505050565b610be9610c65565b5f73ffffffffffffffffffffffffffffffffffffffff168173ffffffffffffffffffffffffffffffffffffffff1603610c59575f6040517f1e4fbdf7000000000000000000000000000000000000000000000000000000008152600401610c509190610fa0565b60405180910390fd5b610c6281610cec565b50565b610c6d610dad565b73ffffffffffffffffffffffffffffffffffffffff16610c8b61066b565b73ffffffffffffffffffffffffffffffffffffffff1614610cea57610cae610dad565b6040517f118cdaa7000000000000000000000000000000000000000000000000000000008152600401610ce19190610fa0565b60405180910390fd5b565b5f805f9054906101000a900473ffffffffffffffffffffffffffffffffffffffff169050815f806101000a81548173ffffffffffffffffffffffffffffffffffffffff021916908373ffffffffffffffffffffffffffffffffffffffff1602179055508173ffffffffffffffffffffffffffffffffffffffff168173ffffffffffffffffffffffffffffffffffffffff167f8be0079c531659141344cd1fd0a4f28419497f9722a3daafe3b4186f6b6457e060405160405180910390a35050565b5f33905090565b6116d38061192183390190565b5f604051905090565b5f80fd5b5f80fd5b5f73ffffffffffffffffffffffffffffffffffffffff82169050919050565b5f610dfb82610dd2565b9050919050565b610e0b81610df1565b8114610e15575f80fd5b50565b5f81359050610e2681610e02565b92915050565b5f819050919050565b610e3e81610e2c565b8114610e48575f80fd5b50565b5f81359050610e5981610e35565b92915050565b5f8060408385031215610e7557610e74610dca565b5b5f610e8285828601610e18565b9250506020610e9385828601610e4b565b9150509250929050565b5f81519050919050565b5f82825260208201905092915050565b8281835e5f83830152505050565b5f601f19601f8301169050919050565b5f610edf82610e9d565b610ee98185610ea7565b9350610ef9818560208601610eb7565b610f0281610ec5565b840191505092915050565b610f1681610e2c565b82525050565b5f6080820190508181035f830152610f348187610ed5565b9050610f436020830186610f0d565b610f506040830185610f0d565b610f5d6060830184610f0d565b95945050505050565b5f60208284031215610f7b57610f7a610dca565b5b5f610f8884828501610e18565b91505092915050565b610f9a81610df1565b82525050565b5f602082019050610fb35f830184610f91565b92915050565b5f80fd5b5f80fd5b7f4e487b71000000000000000000000000000000000000000000000000000000005f52604160045260245ffd5b610ff782610ec5565b810181811067ffffffffffffffff8211171561101657611015610fc1565b5b80604052505050565b5f611028610dc1565b90506110348282610fee565b919050565b5f67ffffffffffffffff82111561105357611052610fc1565b5b61105c82610ec5565b9050602081019050919050565b828183375f83830152505050565b5f61108961108484611039565b61101f565b9050828152602081018484840111156110a5576110a4610fbd565b5b6110b0848285611069565b509392505050565b5f82601f8301126110cc576110cb610fb9565b5b81356110dc848260208601611077565b91505092915050565b5f80604083850312156110fb576110fa610dca565b5b5f83013567ffffffffffffffff81111561111857611117610dce565b5b611124858286016110b8565b925050602083013567ffffffffffffffff81111561114557611144610dce565b5b611151858286016110b8565b9150509250929050565b5f805f806080858703121561117357611172610dca565b5b5f61118087828801610e18565b945050602061119187828801610e4b565b93505060406111a287828801610e4b565b92505060606111b387828801610e18565b91505092959194509250565b5f805f805f60a086880312156111d8576111d7610dca565b5b5f6111e588828901610e18565b95505060206111f688828901610e4b565b945050604086013567ffffffffffffffff81111561121757611216610dce565b5b611223888289016110b8565b935050606061123488828901610e4b565b925050608061124588828901610e4b565b9150509295509295909350565b7f4e6f7420796f757220746f6b656e0000000000000000000000000000000000005f82015250565b5f611286600e83610ea7565b915061129182611252565b602082019050919050565b5f6020820190508181035f8301526112b38161127a565b9050919050565b5f6040820190506112cd5f830185610f91565b6112da6020830184610f0d565b9392505050565b5f6020820190506112f45f830184610f0d565b92915050565b7f4e487b71000000000000000000000000000000000000000000000000000000005f52602260045260245ffd5b5f600282049050600182168061133e57607f821691505b602082108103611351576113506112fa565b5b50919050565b7f546f6b656e20616c7265616479206372656174656400000000000000000000005f82015250565b5f61138b601583610ea7565b915061139682611357565b602082019050919050565b5f6020820190508181035f8301526113b88161137f565b9050919050565b5f6060820190508181035f8301526113d78186610ed5565b905081810360208301526113eb8185610ed5565b90506113fa6040830184610f91565b949350505050565b7f5469657220646f6573206e6f74206578697374000000000000000000000000005f82015250565b5f611436601383610ea7565b915061144182611402565b602082019050919050565b5f6020820190508181035f8301526114638161142a565b9050919050565b7f4e487b71000000000000000000000000000000000000000000000000000000005f52601160045260245ffd5b5f6114a182610e2c565b91506114ac83610e2c565b92508282019050808211156114c4576114c361146a565b5b92915050565b7f45786365656473207469657220737570706c79000000000000000000000000005f82015250565b5f6114fe601383610ea7565b9150611509826114ca565b602082019050919050565b5f6020820190508181035f83015261152b816114f2565b9050919050565b5f61153c82610e2c565b915061154783610e2c565b925082820261155581610e2c565b9150828204841483151761156c5761156b61146a565b5b5092915050565b7f496e73756666696369656e74207061796d656e740000000000000000000000005f82015250565b5f6115a7601483610ea7565b91506115b282611573565b602082019050919050565b5f6020820190508181035f8301526115d48161159b565b9050919050565b5f6040820190506115ee5f830185610f0d565b6115fb6020830184610f0d565b9392505050565b7f5469657220616c726561647920657869737473000000000000000000000000005f82015250565b5f611636601383610ea7565b915061164182611602565b602082019050919050565b5f6020820190508181035f8301526116638161162a565b9050919050565b5f819050815f5260205f209050919050565b5f6020601f8301049050919050565b5f82821b905092915050565b5f600883026116c67fffffffffffffffffffffffffffffffffffffffffffffffffffffffffffffffff8261168b565b6116d0868361168b565b95508019841693508086168417925050509392505050565b5f819050919050565b5f61170b61170661170184610e2c565b6116e8565b610e2c565b9050919050565b5f819050919050565b611724836116f1565b61173861173082611712565b848454611697565b825550505050565b5f90565b61174c611740565b61175781848461171b565b505050565b5b8181101561177a5761176f5f82611744565b60018101905061175d565b5050565b601f8211156117bf576117908161166a565b6117998461167c565b810160208510156117a8578190505b6117bc6117b48561167c565b83018261175c565b50505b505050565b5f82821c905092915050565b5f6117df5f19846008026117c4565b1980831691505092915050565b5f6117f783836117d0565b9150826002028217905092915050565b61181082610e9d565b67ffffffffffffffff81111561182957611828610fc1565b5b6118338254611327565b61183e82828561177e565b5f60209050601f83116001811461186f575f841561185d578287015190505b61186785826117ec565b8655506118ce565b601f19841661187d8661166a565b5f5b828110156118a45784890151825560018201915060208501945060208101905061187f565b868310156118c157848901516118bd601f8916826117d0565b8355505b6001600288020188555050505b505050505050565b5f6080820190506118e95f830187610f0d565b81810360208301526118fb8186610ed5565b905061190a6040830185610f0d565b6119176060830184610f0d565b9594505050505056fe608060405234801561000f575f80fd5b506040516116d33803806116d383398181016040528101906100319190610244565b8282816003908161004291906104d9565b50806004908161005291906104d9565b5050508060055f6101000a81548173ffffffffffffffffffffffffffffffffffffffff021916908373ffffffffffffffffffffffffffffffffffffffff1602179055505050506105a8565b5f604051905090565b5f80fd5b5f80fd5b5f80fd5b5f80fd5b5f601f19601f8301169050919050565b7f4e487b71000000000000000000000000000000000000000000000000000000005f52604160045260245ffd5b6100fc826100b6565b810181811067ffffffffffffffff8211171561011b5761011a6100c6565b5b80604052505050565b5f61012d61009d565b905061013982826100f3565b919050565b5f67ffffffffffffffff821115610158576101576100c6565b5b610161826100b6565b9050602081019050919050565b8281835e5f83830152505050565b5f61018e6101898461013e565b610124565b9050828152602081018484840111156101aa576101a96100b2565b5b6101b584828561016e565b509392505050565b5f82601f8301126101d1576101d06100ae565b5b81516101e184826020860161017c565b91505092915050565b5f73ffffffffffffffffffffffffffffffffffffffff82169050919050565b5f610213826101ea565b9050919050565b61022381610209565b811461022d575f80fd5b50565b5f8151905061023e8161021a565b92915050565b5f805f6060848603121561025b5761025a6100a6565b5b5f84015167ffffffffffffffff811115610278576102776100aa565b5b610284868287016101bd565b935050602084015167ffffffffffffffff8111156102a5576102a46100aa565b5b6102b1868287016101bd565b92505060406102c286828701610230565b9150509250925092565b5f81519050919050565b7f4e487b71000000000000000000000000000000000000000000000000000000005f52602260045260245ffd5b5f600282049050600182168061031a57607f821691505b60208210810361032d5761032c6102d6565b5b50919050565b5f819050815f5260205f209050919050565b5f6020601f8301049050919050565b5f82821b905092915050565b5f6008830261038f7fffffffffffffffffffffffffffffffffffffffffffffffffffffffffffffffff82610354565b6103998683610354565b95508019841693508086168417925050509392505050565b5f819050919050565b5f819050919050565b5f6103dd6103d86103d3846103b1565b6103ba565b6103b1565b9050919050565b5f819050919050565b6103f6836103c3565b61040a610402826103e4565b848454610360565b825550505050565b5f90565b61041e610412565b6104298184846103ed565b505050565b5b8181101561044c576104415f82610416565b60018101905061042f565b5050565b601f8211156104915761046281610333565b61046b84610345565b8101602085101561047a578190505b61048e61048685610345565b83018261042e565b50505b505050565b5f82821c905092915050565b5f6104b15f1984600802610496565b1980831691505092915050565b5f6104c983836104a2565b9150826002028217905092915050565b6104e2826102cc565b67ffffffffffffffff8111156104fb576104fa6100c6565b5b6105058254610303565b610510828285610450565b5f60209050601f831160018114610541575f841561052f578287015190505b61053985826104be565b8655506105a0565b601f19841661054f86610333565b5f5b8281101561057657848901518255600182019150602085019450602081019050610551565b86831015610593578489015161058f601f8916826104a2565b8355505b6001600288020188555050505b505050505050565b61111e806105b55f395ff3fe608060405234801561000f575f80fd5b50600436106100b2575f3560e01c806340c10f191161006f57806340c10f191461018e57806370a08231146101aa57806395d89b41146101da5780639dc29fac146101f8578063a9059cbb14610214578063dd62ed3e14610244576100b2565b806302d05d3f146100b657806306fdde03146100d4578063095ea7b3146100f257806318160ddd1461012257806323b872dd14610140578063313ce56714610170575b5f80fd5b6100be610274565b6040516100cb9190610cfe565b60405180910390f35b6100dc610299565b6040516100e99190610d87565b60405180910390f35b61010c60048036038101906101079190610e08565b610329565b6040516101199190610e60565b60405180910390f35b61012a61034b565b6040516101379190610e88565b60405180910390f35b61015a60048036038101906101559190610ea1565b610354565b6040516101679190610e60565b60405180910390f35b610178610382565b6040516101859190610f0c565b60405180910390f35b6101a860048036038101906101a39190610e08565b61038a565b005b6101c460048036038101906101bf9190610f25565b610427565b6040516101d19190610e88565b60405180910390f35b6101e261046c565b6040516101ef9190610d87565b60405180910390f35b610212600480360381019061020d9190610e08565b6104fc565b005b61022e60048036038101906102299190610e08565b610599565b60405161023b9190610e60565b60405180910390f35b61025e60048036038101906102599190610f50565b6105bb565b60405161026b9190610e88565b60405180910390f35b60055f9054906101000a900473ffffffffffffffffffffffffffffffffffffffff1681565b6060600380546102a890610fbb565b80601f01602080910402602001604051908101604052809291908181526020018280546102d490610fbb565b801561031f5780601f106102f65761010080835404028352916020019161031f565b820191905f5260205f20905b81548152906001019060200180831161030257829003601f168201915b5050505050905090565b5f8061033361063d565b9050610340818585610644565b600191505092915050565b5f600254905090565b5f8061035e61063d565b905061036b858285610656565b6103768585856106e9565b60019150509392505050565b5f6012905090565b60055f9054906101000a900473ffffffffffffffffffffffffffffffffffffffff1673ffffffffffffffffffffffffffffffffffffffff163373ffffffffffffffffffffffffffffffffffffffff1614610419576040517f08c379a000000000000000000000000000000000000000000000000000000000815260040161041090611035565b60405180910390fd5b61042382826107d9565b5050565b5f805f8373ffffffffffffffffffffffffffffffffffffffff1673ffffffffffffffffffffffffffffffffffffffff1681526020019081526020015f20549050919050565b60606004805461047b90610fbb565b80601f01602080910402602001604051908101604052809291908181526020018280546104a790610fbb565b80156104f25780601f106104c9576101008083540402835291602001916104f2565b820191905f5260205f20905b8154815290600101906020018083116104d557829003601f168201915b5050505050905090565b60055f9054906101000a900473ffffffffffffffffffffffffffffffffffffffff1673ffffffffffffffffffffffffffffffffffffffff163373ffffffffffffffffffffffffffffffffffffffff161461058b576040517f08c379a000000000000000000000000000000000000000000000000000000000815260040161058290611035565b60405180910390fd5b6105958282610858565b5050565b5f806105a361063d565b90506105b08185856106e9565b600191505092915050565b5f60015f8473ffffffffffffffffffffffffffffffffffffffff1673ffffffffffffffffffffffffffffffffffffffff1681526020019081526020015f205f8373ffffffffffffffffffffffffffffffffffffffff1673ffffffffffffffffffffffffffffffffffffffff1681526020019081526020015f2054905092915050565b5f33905090565b61065183838360016108d7565b505050565b5f61066184846105bb565b90507fffffffffffffffffffffffffffffffffffffffffffffffffffffffffffffffff8110156106e357818110156106d4578281836040517ffb8f41b20000000000000000000000000000000000000000000000000000000081526004016106cb93929190611053565b60405180910390fd5b6106e284848484035f6108d7565b5b50505050565b5f73ffffffffffffffffffffffffffffffffffffffff168373ffffffffffffffffffffffffffffffffffffffff1603610759575f6040517f96c6fd1e0000000000000000000000000000000000000000000000000000000081526004016107509190610cfe565b60405180910390fd5b5f73ffffffffffffffffffffffffffffffffffffffff168273ffffffffffffffffffffffffffffffffffffffff16036107c9575f6040517fec442f050000000000000000000000000000000000000000000000000000000081526004016107c09190610cfe565b60405180910390fd5b6107d4838383610aa6565b505050565b5f73ffffffffffffffffffffffffffffffffffffffff168273ffffffffffffffffffffffffffffffffffffffff1603610849575f6040517fec442f050000000000000000000000000000000000000000000000000000000081526004016108409190610cfe565b60405180910390fd5b6108545f8383610aa6565b5050565b5f73ffffffffffffffffffffffffffffffffffffffff168273ffffffffffffffffffffffffffffffffffffffff16036108c8575f6040517f96c6fd1e0000000000000000000000000000000000000000000000000000000081526004016108bf9190610cfe565b60405180910390fd5b6108d3825f83610aa6565b5050565b5f73ffffffffffffffffffffffffffffffffffffffff168473ffffffffffffffffffffffffffffffffffffffff1603610947575f6040517fe602df0500000000000000000000000000000000000000000000000000000000815260040161093e9190610cfe565b60405180910390fd5b5f73ffffffffffffffffffffffffffffffffffffffff168373ffffffffffffffffffffffffffffffffffffffff16036109b7575f6040517f94280d620000000000000000000000000000000000000000000000000000000081526004016109ae9190610cfe565b60405180910390fd5b8160015f8673ffffffffffffffffffffffffffffffffffffffff1673ffffffffffffffffffffffffffffffffffffffff1681526020019081526020015f205f8573ffffffffffffffffffffffffffffffffffffffff1673ffffffffffffffffffffffffffffffffffffffff1681526020019081526020015f20819055508015610aa0578273ffffffffffffffffffffffffffffffffffffffff168473ffffffffffffffffffffffffffffffffffffffff167f8c5be1e5ebec7d5bd14f71427d1e84f3dd0314c0f7b2291e5b200ac8c7c3b92584604051610a979190610e88565b60405180910390a35b50505050565b5f73ffffffffffffffffffffffffffffffffffffffff168373ffffffffffffffffffffffffffffffffffffffff1603610af6578060025f828254610aea91906110b5565b92505081905550610bc4565b5f805f8573ffffffffffffffffffffffffffffffffffffffff1673ffffffffffffffffffffffffffffffffffffffff1681526020019081526020015f2054905081811015610b7f578381836040517fe450d38c000000000000000000000000000000000000000000000000000000008152600401610b7693929190611053565b60405180910390fd5b8181035f808673ffffffffffffffffffffffffffffffffffffffff1673ffffffffffffffffffffffffffffffffffffffff1681526020019081526020015f2081905550505b5f73ffffffffffffffffffffffffffffffffffffffff168273ffffffffffffffffffffffffffffffffffffffff1603610c0b578060025f8282540392505081905550610c55565b805f808473ffffffffffffffffffffffffffffffffffffffff1673ffffffffffffffffffffffffffffffffffffffff1681526020019081526020015f205f82825401925050819055505b8173ffffffffffffffffffffffffffffffffffffffff168373ffffffffffffffffffffffffffffffffffffffff167fddf252ad1be2c89b69c2b068fc378daa952ba7f163c4a11628f55a4df523b3ef83604051610cb29190610e88565b60405180910390a3505050565b5f73ffffffffffffffffffffffffffffffffffffffff82169050919050565b5f610ce882610cbf565b9050919050565b610cf881610cde565b82525050565b5f602082019050610d115f830184610cef565b92915050565b5f81519050919050565b5f82825260208201905092915050565b8281835e5f83830152505050565b5f601f19601f8301169050919050565b5f610d5982610d17565b610d638185610d21565b9350610d73818560208601610d31565b610d7c81610d3f565b840191505092915050565b5f6020820190508181035f830152610d9f8184610d4f565b905092915050565b5f80fd5b610db481610cde565b8114610dbe575f80fd5b50565b5f81359050610dcf81610dab565b92915050565b5f819050919050565b610de781610dd5565b8114610df1575f80fd5b50565b5f81359050610e0281610dde565b92915050565b5f8060408385031215610e1e57610e1d610da7565b5b5f610e2b85828601610dc1565b9250506020610e3c85828601610df4565b9150509250929050565b5f8115159050919050565b610e5a81610e46565b82525050565b5f602082019050610e735f830184610e51565b92915050565b610e8281610dd5565b82525050565b5f602082019050610e9b5f830184610e79565b92915050565b5f805f60608486031215610eb857610eb7610da7565b5b5f610ec586828701610dc1565b9350506020610ed686828701610dc1565b9250506040610ee786828701610df4565b9150509250925092565b5f60ff82169050919050565b610f0681610ef1565b82525050565b5f602082019050610f1f5f830184610efd565b92915050565b5f60208284031215610f3a57610f39610da7565b5b5f610f4784828501610dc1565b91505092915050565b5f8060408385031215610f6657610f65610da7565b5b5f610f7385828601610dc1565b9250506020610f8485828601610dc1565b9150509250929050565b7f4e487b71000000000000000000000000000000000000000000000000000000005f52602260045260245ffd5b5f6002820490506001821680610fd257607f821691505b602082108103610fe557610fe4610f8e565b5b50919050565b7f4e6f74207468652063726561746f7200000000000000000000000000000000005f82015250565b5f61101f600f83610d21565b915061102a82610feb565b602082019050919050565b5f6020820190508181035f83015261104c81611013565b9050919050565b5f6060820190506110665f830186610cef565b6110736020830185610e79565b6110806040830184610e79565b949350505050565b7f4e487b71000000000000000000000000000000000000000000000000000000005f52601160045260245ffd5b5f6110bf82610dd5565b91506110ca83610dd5565b92508282019050808211156110e2576110e1611088565b5b9291505056fea26469706673582212201f3ba1cd9a1dea59a4ec57bb43cc908534eb33e62b4a135530352632d985c6ef64736f6c634300081a0033a2646970667358221220a60ec600ed16d2e0f42614fffece2e3a5c4e4265e440cbfd874ff666f066c0c664736f6c634300081a0033",
					"opcodes": "PUSH1 0x80 PUSH1 0x40 MSTORE CALLVALUE DUP1 ISZERO PUSH2 0xF JUMPI PUSH0 DUP1 REVERT JUMPDEST POP CALLER PUSH0 PUSH20 0xFFFFFFFFFFFFFFFFFFFFFFFFFFFFFFFFFFFFFFFF AND DUP2 PUSH20 0xFFFFFFFFFFFFFFFFFFFFFFFFFFFFFFFFFFFFFFFF AND SUB PUSH2 0x81 JUMPI PUSH0 PUSH1 0x40 MLOAD PUSH32 0x1E4FBDF700000000000000000000000000000000000000000000000000000000 DUP2 MSTORE PUSH1 0x4 ADD PUSH2 0x78 SWAP2 SWAP1 PUSH2 0x196 JUMP JUMPDEST PUSH1 0x40 MLOAD DUP1 SWAP2 SUB SWAP1 REVERT JUMPDEST PUSH2 0x90 DUP2 PUSH2 0x96 PUSH1 0x20 SHL PUSH1 0x20 SHR JUMP JUMPDEST POP PUSH2 0x1AF JUMP JUMPDEST PUSH0 DUP1 PUSH0 SWAP1 SLOAD SWAP1 PUSH2 0x100 EXP SWAP1 DIV PUSH20 0xFFFFFFFFFFFFFFFFFFFFFFFFFFFFFFFFFFFFFFFF AND SWAP1 POP DUP2 PUSH0 DUP1 PUSH2 0x100 EXP DUP2 SLOAD DUP2 PUSH20 0xFFFFFFFFFFFFFFFFFFFFFFFFFFFFFFFFFFFFFFFF MUL NOT AND SWAP1 DUP4 PUSH20 0xFFFFFFFFFFFFFFFFFFFFFFFFFFFFFFFFFFFFFFFF AND MUL OR SWAP1 SSTORE POP DUP2 PUSH20 0xFFFFFFFFFFFFFFFFFFFFFFFFFFFFFFFFFFFFFFFF AND DUP2 PUSH20 0xFFFFFFFFFFFFFFFFFFFFFFFFFFFFFFFFFFFFFFFF AND PUSH32 0x8BE0079C531659141344CD1FD0A4F28419497F9722A3DAAFE3B4186F6B6457E0 PUSH1 0x40 MLOAD PUSH1 0x40 MLOAD DUP1 SWAP2 SUB SWAP1 LOG3 POP POP JUMP JUMPDEST PUSH0 PUSH20 0xFFFFFFFFFFFFFFFFFFFFFFFFFFFFFFFFFFFFFFFF DUP3 AND SWAP1 POP SWAP2 SWAP1 POP JUMP JUMPDEST PUSH0 PUSH2 0x180 DUP3 PUSH2 0x157 JUMP JUMPDEST SWAP1 POP SWAP2 SWAP1 POP JUMP JUMPDEST PUSH2 0x190 DUP2 PUSH2 0x176 JUMP JUMPDEST DUP3 MSTORE POP POP JUMP JUMPDEST PUSH0 PUSH1 0x20 DUP3 ADD SWAP1 POP PUSH2 0x1A9 PUSH0 DUP4 ADD DUP5 PUSH2 0x187 JUMP JUMPDEST SWAP3 SWAP2 POP POP JUMP JUMPDEST PUSH2 0x3029 DUP1 PUSH2 0x1BC PUSH0 CODECOPY PUSH0 RETURN INVALID PUSH1 0x80 PUSH1 0x40 MSTORE PUSH1 0x4 CALLDATASIZE LT PUSH2 0x85 JUMPI PUSH0 CALLDATALOAD PUSH1 0xE0 SHR DUP1 PUSH4 0x715018A6 GT PUSH2 0x58 JUMPI DUP1 PUSH4 0x715018A6 EQ PUSH2 0x154 JUMPI DUP1 PUSH4 0x8DA5CB5B EQ PUSH2 0x16A JUMPI DUP1 PUSH4 0xD6B17418 EQ PUSH2 0x194 JUMPI DUP1 PUSH4 0xE1F04175 EQ PUSH2 0x1B0 JUMPI DUP1 PUSH4 0xF2FDE38B EQ PUSH2 0x1D8 JUMPI PUSH2 0x85 JUMP JUMPDEST DUP1 PUSH4 0xD1118CE EQ PUSH2 0x89 JUMPI DUP1 PUSH4 0x1AD18426 EQ PUSH2 0xB1 JUMPI DUP1 PUSH4 0x29C81B91 EQ PUSH2 0xF0 JUMPI DUP1 PUSH4 0x2F2F2D56 EQ PUSH2 0x12C JUMPI JUMPDEST PUSH0 DUP1 REVERT JUMPDEST CALLVALUE DUP1 ISZERO PUSH2 0x94 JUMPI PUSH0 DUP1 REVERT JUMPDEST POP PUSH2 0xAF PUSH1 0x4 DUP1 CALLDATASIZE SUB DUP2 ADD SWAP1 PUSH2 0xAA SWAP2 SWAP1 PUSH2 0xE5F JUMP JUMPDEST PUSH2 0x200 JUMP JUMPDEST STOP JUMPDEST CALLVALUE DUP1 ISZERO PUSH2 0xBC JUMPI PUSH0 DUP1 REVERT JUMPDEST POP PUSH2 0xD7 PUSH1 0x4 DUP1 CALLDATASIZE SUB DUP2 ADD SWAP1 PUSH2 0xD2 SWAP2 SWAP1 PUSH2 0xE5F JUMP JUMPDEST PUSH2 0x39B JUMP JUMPDEST PUSH1 0x40 MLOAD PUSH2 0xE7 SWAP5 SWAP4 SWAP3 SWAP2 SWAP1 PUSH2 0xF1C JUMP JUMPDEST PUSH1 0x40 MLOAD DUP1 SWAP2 SUB SWAP1 RETURN JUMPDEST CALLVALUE DUP1 ISZERO PUSH2 0xFB JUMPI PUSH0 DUP1 REVERT JUMPDEST POP PUSH2 0x116 PUSH1 0x4 DUP1 CALLDATASIZE SUB DUP2 ADD SWAP1 PUSH2 0x111 SWAP2 SWAP1 PUSH2 0xF66 JUMP JUMPDEST PUSH2 0x458 JUMP JUMPDEST PUSH1 0x40 MLOAD PUSH2 0x123 SWAP2 SWAP1 PUSH2 0xFA0 JUMP JUMPDEST PUSH1 0x40 MLOAD DUP1 SWAP2 SUB SWAP1 RETURN JUMPDEST CALLVALUE DUP1 ISZERO PUSH2 0x137 JUMPI PUSH0 DUP1 REVERT JUMPDEST POP PUSH2 0x152 PUSH1 0x4 DUP1 CALLDATASIZE SUB DUP2 ADD SWAP1 PUSH2 0x14D SWAP2 SWAP1 PUSH2 0x10E5 JUMP JUMPDEST PUSH2 0x488 JUMP JUMPDEST STOP JUMPDEST CALLVALUE DUP1 ISZERO PUSH2 0x15F JUMPI PUSH0 DUP1 REVERT JUMPDEST POP PUSH2 0x168 PUSH2 0x658 JUMP JUMPDEST STOP JUMPDEST CALLVALUE DUP1 ISZERO PUSH2 0x175 JUMPI PUSH0 DUP1 REVERT JUMPDEST POP PUSH2 0x17E PUSH2 0x66B JUMP JUMPDEST PUSH1 0x40 MLOAD PUSH2 0x18B SWAP2 SWAP1 PUSH2 0xFA0 JUMP JUMPDEST PUSH1 0x40 MLOAD DUP1 SWAP2 SUB SWAP1 RETURN JUMPDEST PUSH2 0x1AE PUSH1 0x4 DUP1 CALLDATASIZE SUB DUP2 ADD SWAP1 PUSH2 0x1A9 SWAP2 SWAP1 PUSH2 0x115B JUMP JUMPDEST PUSH2 0x692 JUMP JUMPDEST STOP JUMPDEST CALLVALUE DUP1 ISZERO PUSH2 0x1BB JUMPI PUSH0 DUP1 REVERT JUMPDEST POP PUSH2 0x1D6 PUSH1 0x4 DUP1 CALLDATASIZE SUB DUP2 ADD SWAP1 PUSH2 0x1D1 SWAP2 SWAP1 PUSH2 0x11BF JUMP JUMPDEST PUSH2 0x989 JUMP JUMPDEST STOP JUMPDEST CALLVALUE DUP1 ISZERO PUSH2 0x1E3 JUMPI PUSH0 DUP1 REVERT JUMPDEST POP PUSH2 0x1FE PUSH1 0x4 DUP1 CALLDATASIZE SUB DUP2 ADD SWAP1 PUSH2 0x1F9 SWAP2 SWAP1 PUSH2 0xF66 JUMP JUMPDEST PUSH2 0xBE1 JUMP JUMPDEST STOP JUMPDEST DUP2 PUSH20 0xFFFFFFFFFFFFFFFFFFFFFFFFFFFFFFFFFFFFFFFF AND PUSH1 0x1 PUSH0 CALLER PUSH20 0xFFFFFFFFFFFFFFFFFFFFFFFFFFFFFFFFFFFFFFFF AND PUSH20 0xFFFFFFFFFFFFFFFFFFFFFFFFFFFFFFFFFFFFFFFF AND DUP2 MSTORE PUSH1 0x20 ADD SWAP1 DUP2 MSTORE PUSH1 0x20 ADD PUSH0 KECCAK256 PUSH0 SWAP1 SLOAD SWAP1 PUSH2 0x100 EXP SWAP1 DIV PUSH20 0xFFFFFFFFFFFFFFFFFFFFFFFFFFFFFFFFFFFFFFFF AND PUSH20 0xFFFFFFFFFFFFFFFFFFFFFFFFFFFFFFFFFFFFFFFF AND EQ PUSH2 0x2CA JUMPI PUSH1 0x40 MLOAD PUSH32 0x8C379A000000000000000000000000000000000000000000000000000000000 DUP2 MSTORE PUSH1 0x4 ADD PUSH2 0x2C1 SWAP1 PUSH2 0x129C JUMP JUMPDEST PUSH1 0x40 MLOAD DUP1 SWAP2 SUB SWAP1 REVERT JUMPDEST DUP2 PUSH20 0xFFFFFFFFFFFFFFFFFFFFFFFFFFFFFFFFFFFFFFFF AND PUSH4 0x9DC29FAC CALLER DUP4 PUSH1 0x40 MLOAD DUP4 PUSH4 0xFFFFFFFF AND PUSH1 0xE0 SHL DUP2 MSTORE PUSH1 0x4 ADD PUSH2 0x305 SWAP3 SWAP2 SWAP1 PUSH2 0x12BA JUMP JUMPDEST PUSH0 PUSH1 0x40 MLOAD DUP1 DUP4 SUB DUP2 PUSH0 DUP8 DUP1 EXTCODESIZE ISZERO DUP1 ISZERO PUSH2 0x31C JUMPI PUSH0 DUP1 REVERT JUMPDEST POP GAS CALL ISZERO DUP1 ISZERO PUSH2 0x32E JUMPI RETURNDATASIZE PUSH0 DUP1 RETURNDATACOPY RETURNDATASIZE PUSH0 REVERT JUMPDEST POP POP POP POP CALLER PUSH20 0xFFFFFFFFFFFFFFFFFFFFFFFFFFFFFFFFFFFFFFFF AND DUP3 PUSH20 0xFFFFFFFFFFFFFFFFFFFFFFFFFFFFFFFFFFFFFFFF AND PUSH32 0x857AC1C9E97CC66ECAE5F524C9C611463AE748B85AF3CA454A5EC4D7D341924D DUP4 PUSH1 0x40 MLOAD PUSH2 0x38F SWAP2 SWAP1 PUSH2 0x12E1 JUMP JUMPDEST PUSH1 0x40 MLOAD DUP1 SWAP2 SUB SWAP1 LOG3 POP POP JUMP JUMPDEST PUSH1 0x2 PUSH1 0x20 MSTORE DUP2 PUSH0 MSTORE PUSH1 0x40 PUSH0 KECCAK256 PUSH1 0x20 MSTORE DUP1 PUSH0 MSTORE PUSH1 0x40 PUSH0 KECCAK256 PUSH0 SWAP2 POP SWAP2 POP POP DUP1 PUSH0 ADD DUP1 SLOAD PUSH2 0x3C5 SWAP1 PUSH2 0x1327 JUMP JUMPDEST DUP1 PUSH1 0x1F ADD PUSH1 0x20 DUP1 SWAP2 DIV MUL PUSH1 0x20 ADD PUSH1 0x40 MLOAD SWAP1 DUP2 ADD PUSH1 0x40 MSTORE DUP1 SWAP3 SWAP2 SWAP1 DUP2 DUP2 MSTORE PUSH1 0x20 ADD DUP3 DUP1 SLOAD PUSH2 0x3F1 SWAP1 PUSH2 0x1327 JUMP JUMPDEST DUP1 ISZERO PUSH2 0x43C JUMPI DUP1 PUSH1 0x1F LT PUSH2 0x413 JUMPI PUSH2 0x100 DUP1 DUP4 SLOAD DIV MUL DUP4 MSTORE SWAP2 PUSH1 0x20 ADD SWAP2 PUSH2 0x43C JUMP JUMPDEST DUP3 ADD SWAP2 SWAP1 PUSH0 MSTORE PUSH1 0x20 PUSH0 KECCAK256 SWAP1 JUMPDEST DUP2 SLOAD DUP2 MSTORE SWAP1 PUSH1 0x1 ADD SWAP1 PUSH1 0x20 ADD DUP1 DUP4 GT PUSH2 0x41F JUMPI DUP3 SWAP1 SUB PUSH1 0x1F AND DUP3 ADD SWAP2 JUMPDEST POP POP POP POP POP SWAP1 DUP1 PUSH1 0x1 ADD SLOAD SWAP1 DUP1 PUSH1 0x2 ADD SLOAD SWAP1 DUP1 PUSH1 0x3 ADD SLOAD SWAP1 POP DUP5 JUMP JUMPDEST PUSH1 0x1 PUSH1 0x20 MSTORE DUP1 PUSH0 MSTORE PUSH1 0x40 PUSH0 KECCAK256 PUSH0 SWAP2 POP SLOAD SWAP1 PUSH2 0x100 EXP SWAP1 DIV PUSH20 0xFFFFFFFFFFFFFFFFFFFFFFFFFFFFFFFFFFFFFFFF AND DUP2 JUMP JUMPDEST PUSH0 PUSH20 0xFFFFFFFFFFFFFFFFFFFFFFFFFFFFFFFFFFFFFFFF AND PUSH1 0x1 PUSH0 CALLER PUSH20 0xFFFFFFFFFFFFFFFFFFFFFFFFFFFFFFFFFFFFFFFF AND PUSH20 0xFFFFFFFFFFFFFFFFFFFFFFFFFFFFFFFFFFFFFFFF AND DUP2 MSTORE PUSH1 0x20 ADD SWAP1 DUP2 MSTORE PUSH1 0x20 ADD PUSH0 KECCAK256 PUSH0 SWAP1 SLOAD SWAP1 PUSH2 0x100 EXP SWAP1 DIV PUSH20 0xFFFFFFFFFFFFFFFFFFFFFFFFFFFFFFFFFFFFFFFF AND PUSH20 0xFFFFFFFFFFFFFFFFFFFFFFFFFFFFFFFFFFFFFFFF AND EQ PUSH2 0x552 JUMPI PUSH1 0x40 MLOAD PUSH32 0x8C379A000000000000000000000000000000000000000000000000000000000 DUP2 MSTORE PUSH1 0x4 ADD PUSH2 0x549 SWAP1 PUSH2 0x13A1 JUMP JUMPDEST PUSH1 0x40 MLOAD DUP1 SWAP2 SUB SWAP1 REVERT JUMPDEST PUSH0 DUP3 DUP3 CALLER PUSH1 0x40 MLOAD PUSH2 0x562 SWAP1 PUSH2 0xDB4 JUMP JUMPDEST PUSH2 0x56E SWAP4 SWAP3 SWAP2 SWAP1 PUSH2 0x13BF JUMP JUMPDEST PUSH1 0x40 MLOAD DUP1 SWAP2 SUB SWAP1 PUSH0 CREATE DUP1 ISZERO DUP1 ISZERO PUSH2 0x587 JUMPI RETURNDATASIZE PUSH0 DUP1 RETURNDATACOPY RETURNDATASIZE PUSH0 REVERT JUMPDEST POP SWAP1 POP DUP1 PUSH1 0x1 PUSH0 CALLER PUSH20 0xFFFFFFFFFFFFFFFFFFFFFFFFFFFFFFFFFFFFFFFF AND PUSH20 0xFFFFFFFFFFFFFFFFFFFFFFFFFFFFFFFFFFFFFFFF AND DUP2 MSTORE PUSH1 0x20 ADD SWAP1 DUP2 MSTORE PUSH1 0x20 ADD PUSH0 KECCAK256 PUSH0 PUSH2 0x100 EXP DUP2 SLOAD DUP2 PUSH20 0xFFFFFFFFFFFFFFFFFFFFFFFFFFFFFFFFFFFFFFFF MUL NOT AND SWAP1 DUP4 PUSH20 0xFFFFFFFFFFFFFFFFFFFFFFFFFFFFFFFFFFFFFFFF AND MUL OR SWAP1 SSTORE POP CALLER PUSH20 0xFFFFFFFFFFFFFFFFFFFFFFFFFFFFFFFFFFFFFFFF AND PUSH32 0xD5F9BDF12ADF29DAB0248C349842C3822D53AE2BB4F36352F301630D018C8139 DUP3 PUSH1 0x40 MLOAD PUSH2 0x64B SWAP2 SWAP1 PUSH2 0xFA0 JUMP JUMPDEST PUSH1 0x40 MLOAD DUP1 SWAP2 SUB SWAP1 LOG2 POP POP POP JUMP JUMPDEST PUSH2 0x660 PUSH2 0xC65 JUMP JUMPDEST PUSH2 0x669 PUSH0 PUSH2 0xCEC JUMP JUMPDEST JUMP JUMPDEST PUSH0 DUP1 PUSH0 SWAP1 SLOAD SWAP1 PUSH2 0x100 EXP SWAP1 DIV PUSH20 0xFFFFFFFFFFFFFFFFFFFFFFFFFFFFFFFFFFFFFFFF AND SWAP1 POP SWAP1 JUMP JUMPDEST DUP4 PUSH20 0xFFFFFFFFFFFFFFFFFFFFFFFFFFFFFFFFFFFFFFFF AND PUSH1 0x1 PUSH0 CALLER PUSH20 0xFFFFFFFFFFFFFFFFFFFFFFFFFFFFFFFFFFFFFFFF AND PUSH20 0xFFFFFFFFFFFFFFFFFFFFFFFFFFFFFFFFFFFFFFFF AND DUP2 MSTORE PUSH1 0x20 ADD SWAP1 DUP2 MSTORE PUSH1 0x20 ADD PUSH0 KECCAK256 PUSH0 SWAP1 SLOAD SWAP1 PUSH2 0x100 EXP SWAP1 DIV PUSH20 0xFFFFFFFFFFFFFFFFFFFFFFFFFFFFFFFFFFFFFFFF AND PUSH20 0xFFFFFFFFFFFFFFFFFFFFFFFFFFFFFFFFFFFFFFFF AND EQ PUSH2 0x75C JUMPI PUSH1 0x40 MLOAD PUSH32 0x8C379A000000000000000000000000000000000000000000000000000000000 DUP2 MSTORE PUSH1 0x4 ADD PUSH2 0x753 SWAP1 PUSH2 0x129C JUMP JUMPDEST PUSH1 0x40 MLOAD DUP1 SWAP2 SUB SWAP1 REVERT JUMPDEST PUSH0 PUSH1 0x2 PUSH0 DUP7 PUSH20 0xFFFFFFFFFFFFFFFFFFFFFFFFFFFFFFFFFFFFFFFF AND PUSH20 0xFFFFFFFFFFFFFFFFFFFFFFFFFFFFFFFFFFFFFFFF AND DUP2 MSTORE PUSH1 0x20 ADD SWAP1 DUP2 MSTORE PUSH1 0x20 ADD PUSH0 KECCAK256 PUSH0 DUP6 DUP2 MSTORE PUSH1 0x20 ADD SWAP1 DUP2 MSTORE PUSH1 0x20 ADD PUSH0 KECCAK256 SWAP1 POP PUSH0 DUP2 PUSH1 0x1 ADD SLOAD GT PUSH2 0x7F1 JUMPI PUSH1 0x40 MLOAD PUSH32 0x8C379A000000000000000000000000000000000000000000000000000000000 DUP2 MSTORE PUSH1 0x4 ADD PUSH2 0x7E8 SWAP1 PUSH2 0x144C JUMP JUMPDEST PUSH1 0x40 MLOAD DUP1 SWAP2 SUB SWAP1 REVERT JUMPDEST DUP1 PUSH1 0x1 ADD SLOAD DUP4 DUP3 PUSH1 0x2 ADD SLOAD PUSH2 0x806 SWAP2 SWAP1 PUSH2 0x1497 JUMP JUMPDEST GT ISZERO PUSH2 0x847 JUMPI PUSH1 0x40 MLOAD PUSH32 0x8C379A000000000000000000000000000000000000000000000000000000000 DUP2 MSTORE PUSH1 0x4 ADD PUSH2 0x83E SWAP1 PUSH2 0x1514 JUMP JUMPDEST PUSH1 0x40 MLOAD DUP1 SWAP2 SUB SWAP1 REVERT JUMPDEST DUP3 DUP2 PUSH1 0x3 ADD SLOAD PUSH2 0x857 SWAP2 SWAP1 PUSH2 0x1532 JUMP JUMPDEST CALLVALUE LT ISZERO PUSH2 0x899 JUMPI PUSH1 0x40 MLOAD PUSH32 0x8C379A000000000000000000000000000000000000000000000000000000000 DUP2 MSTORE PUSH1 0x4 ADD PUSH2 0x890 SWAP1 PUSH2 0x15BD JUMP JUMPDEST PUSH1 0x40 MLOAD DUP1 SWAP2 SUB SWAP1 REVERT JUMPDEST DUP3 DUP2 PUSH1 0x2 ADD PUSH0 DUP3 DUP3 SLOAD PUSH2 0x8AC SWAP2 SWAP1 PUSH2 0x1497 JUMP JUMPDEST SWAP3 POP POP DUP2 SWAP1 SSTORE POP DUP5 PUSH20 0xFFFFFFFFFFFFFFFFFFFFFFFFFFFFFFFFFFFFFFFF AND PUSH4 0x40C10F19 DUP4 DUP6 PUSH1 0x40 MLOAD DUP4 PUSH4 0xFFFFFFFF AND PUSH1 0xE0 SHL DUP2 MSTORE PUSH1 0x4 ADD PUSH2 0x8EE SWAP3 SWAP2 SWAP1 PUSH2 0x12BA JUMP JUMPDEST PUSH0 PUSH1 0x40 MLOAD DUP1 DUP4 SUB DUP2 PUSH0 DUP8 DUP1 EXTCODESIZE ISZERO DUP1 ISZERO PUSH2 0x905 JUMPI PUSH0 DUP1 REVERT JUMPDEST POP GAS CALL ISZERO DUP1 ISZERO PUSH2 0x917 JUMPI RETURNDATASIZE PUSH0 DUP1 RETURNDATACOPY RETURNDATASIZE PUSH0 REVERT JUMPDEST POP POP POP POP DUP2 PUSH20 0xFFFFFFFFFFFFFFFFFFFFFFFFFFFFFFFFFFFFFFFF AND DUP6 PUSH20 0xFFFFFFFFFFFFFFFFFFFFFFFFFFFFFFFFFFFFFFFF AND PUSH32 0xE456F0D575EF17126EAD0C00FFD703ADB3AA7B837D5B32AE967C707F804FA867 DUP7 DUP7 PUSH1 0x40 MLOAD PUSH2 0x97A SWAP3 SWAP2 SWAP1 PUSH2 0x15DB JUMP JUMPDEST PUSH1 0x40 MLOAD DUP1 SWAP2 SUB SWAP1 LOG3 POP POP POP POP POP JUMP JUMPDEST DUP5 PUSH20 0xFFFFFFFFFFFFFFFFFFFFFFFFFFFFFFFFFFFFFFFF AND PUSH1 0x1 PUSH0 CALLER PUSH20 0xFFFFFFFFFFFFFFFFFFFFFFFFFFFFFFFFFFFFFFFF AND PUSH20 0xFFFFFFFFFFFFFFFFFFFFFFFFFFFFFFFFFFFFFFFF AND DUP2 MSTORE PUSH1 0x20 ADD SWAP1 DUP2 MSTORE PUSH1 0x20 ADD PUSH0 KECCAK256 PUSH0 SWAP1 SLOAD SWAP1 PUSH2 0x100 EXP SWAP1 DIV PUSH20 0xFFFFFFFFFFFFFFFFFFFFFFFFFFFFFFFFFFFFFFFF AND PUSH20 0xFFFFFFFFFFFFFFFFFFFFFFFFFFFFFFFFFFFFFFFF AND EQ PUSH2 0xA53 JUMPI PUSH1 0x40 MLOAD PUSH32 0x8C379A000000000000000000000000000000000000000000000000000000000 DUP2 MSTORE PUSH1 0x4 ADD PUSH2 0xA4A SWAP1 PUSH2 0x129C JUMP JUMPDEST PUSH1 0x40 MLOAD DUP1 SWAP2 SUB SWAP1 REVERT JUMPDEST PUSH0 PUSH1 0x2 PUSH0 DUP8 PUSH20 0xFFFFFFFFFFFFFFFFFFFFFFFFFFFFFFFFFFFFFFFF AND PUSH20 0xFFFFFFFFFFFFFFFFFFFFFFFFFFFFFFFFFFFFFFFF AND DUP2 MSTORE PUSH1 0x20 ADD SWAP1 DUP2 MSTORE PUSH1 0x20 ADD PUSH0 KECCAK256 PUSH0 DUP7 DUP2 MSTORE PUSH1 0x20 ADD SWAP1 DUP2 MSTORE PUSH1 0x20 ADD PUSH0 KECCAK256 PUSH1 0x1 ADD SLOAD EQ PUSH2 0xAE4 JUMPI PUSH1 0x40 MLOAD PUSH32 0x8C379A000000000000000000000000000000000000000000000000000000000 DUP2 MSTORE PUSH1 0x4 ADD PUSH2 0xADB SWAP1 PUSH2 0x164C JUMP JUMPDEST PUSH1 0x40 MLOAD DUP1 SWAP2 SUB SWAP1 REVERT JUMPDEST PUSH1 0x40 MLOAD DUP1 PUSH1 0x80 ADD PUSH1 0x40 MSTORE DUP1 DUP5 DUP2 MSTORE PUSH1 0x20 ADD DUP4 DUP2 MSTORE PUSH1 0x20 ADD PUSH0 DUP2 MSTORE PUSH1 0x20 ADD DUP3 DUP2 MSTORE POP PUSH1 0x2 PUSH0 DUP8 PUSH20 0xFFFFFFFFFFFFFFFFFFFFFFFFFFFFFFFFFFFFFFFF AND PUSH20 0xFFFFFFFFFFFFFFFFFFFFFFFFFFFFFFFFFFFFFFFF AND DUP2 MSTORE PUSH1 0x20 ADD SWAP1 DUP2 MSTORE PUSH1 0x20 ADD PUSH0 KECCAK256 PUSH0 DUP7 DUP2 MSTORE PUSH1 0x20 ADD SWAP1 DUP2 MSTORE PUSH1 0x20 ADD PUSH0 KECCAK256 PUSH0 DUP3 ADD MLOAD DUP2 PUSH0 ADD SWAP1 DUP2 PUSH2 0xB64 SWAP2 SWAP1 PUSH2 0x1807 JUMP JUMPDEST POP PUSH1 0x20 DUP3 ADD MLOAD DUP2 PUSH1 0x1 ADD SSTORE PUSH1 0x40 DUP3 ADD MLOAD DUP2 PUSH1 0x2 ADD SSTORE PUSH1 0x60 DUP3 ADD MLOAD DUP2 PUSH1 0x3 ADD SSTORE SWAP1 POP POP DUP5 PUSH20 0xFFFFFFFFFFFFFFFFFFFFFFFFFFFFFFFFFFFFFFFF AND PUSH32 0xA7973C2FC2736EEA44B46B6F4216F2378EA4F7A84BA3268BEE4436FA12A50B1E DUP6 DUP6 DUP6 DUP6 PUSH1 0x40 MLOAD PUSH2 0xBD2 SWAP5 SWAP4 SWAP3 SWAP2 SWAP1 PUSH2 0x18D6 JUMP JUMPDEST PUSH1 0x40 MLOAD DUP1 SWAP2 SUB SWAP1 LOG2 POP POP POP POP POP JUMP JUMPDEST PUSH2 0xBE9 PUSH2 0xC65 JUMP JUMPDEST PUSH0 PUSH20 0xFFFFFFFFFFFFFFFFFFFFFFFFFFFFFFFFFFFFFFFF AND DUP2 PUSH20 0xFFFFFFFFFFFFFFFFFFFFFFFFFFFFFFFFFFFFFFFF AND SUB PUSH2 0xC59 JUMPI PUSH0 PUSH1 0x40 MLOAD PUSH32 0x1E4FBDF700000000000000000000000000000000000000000000000000000000 DUP2 MSTORE PUSH1 0x4 ADD PUSH2 0xC50 SWAP2 SWAP1 PUSH2 0xFA0 JUMP JUMPDEST PUSH1 0x40 MLOAD DUP1 SWAP2 SUB SWAP1 REVERT JUMPDEST PUSH2 0xC62 DUP2 PUSH2 0xCEC JUMP JUMPDEST POP JUMP JUMPDEST PUSH2 0xC6D PUSH2 0xDAD JUMP JUMPDEST PUSH20 0xFFFFFFFFFFFFFFFFFFFFFFFFFFFFFFFFFFFFFFFF AND PUSH2 0xC8B PUSH2 0x66B JUMP JUMPDEST PUSH20 0xFFFFFFFFFFFFFFFFFFFFFFFFFFFFFFFFFFFFFFFF AND EQ PUSH2 0xCEA JUMPI PUSH2 0xCAE PUSH2 0xDAD JUMP JUMPDEST PUSH1 0x40 MLOAD PUSH32 0x118CDAA700000000000000000000000000000000000000000000000000000000 DUP2 MSTORE PUSH1 0x4 ADD PUSH2 0xCE1 SWAP2 SWAP1 PUSH2 0xFA0 JUMP JUMPDEST PUSH1 0x40 MLOAD DUP1 SWAP2 SUB SWAP1 REVERT JUMPDEST JUMP JUMPDEST PUSH0 DUP1 PUSH0 SWAP1 SLOAD SWAP1 PUSH2 0x100 EXP SWAP1 DIV PUSH20 0xFFFFFFFFFFFFFFFFFFFFFFFFFFFFFFFFFFFFFFFF AND SWAP1 POP DUP2 PUSH0 DUP1 PUSH2 0x100 EXP DUP2 SLOAD DUP2 PUSH20 0xFFFFFFFFFFFFFFFFFFFFFFFFFFFFFFFFFFFFFFFF MUL NOT AND SWAP1 DUP4 PUSH20 0xFFFFFFFFFFFFFFFFFFFFFFFFFFFFFFFFFFFFFFFF AND MUL OR SWAP1 SSTORE POP DUP2 PUSH20 0xFFFFFFFFFFFFFFFFFFFFFFFFFFFFFFFFFFFFFFFF AND DUP2 PUSH20 0xFFFFFFFFFFFFFFFFFFFFFFFFFFFFFFFFFFFFFFFF AND PUSH32 0x8BE0079C531659141344CD1FD0A4F28419497F9722A3DAAFE3B4186F6B6457E0 PUSH1 0x40 MLOAD PUSH1 0x40 MLOAD DUP1 SWAP2 SUB SWAP1 LOG3 POP POP JUMP JUMPDEST PUSH0 CALLER SWAP1 POP SWAP1 JUMP JUMPDEST PUSH2 0x16D3 DUP1 PUSH2 0x1921 DUP4 CODECOPY ADD SWAP1 JUMP JUMPDEST PUSH0 PUSH1 0x40 MLOAD SWAP1 POP SWAP1 JUMP JUMPDEST PUSH0 DUP1 REVERT JUMPDEST PUSH0 DUP1 REVERT JUMPDEST PUSH0 PUSH20 0xFFFFFFFFFFFFFFFFFFFFFFFFFFFFFFFFFFFFFFFF DUP3 AND SWAP1 POP SWAP2 SWAP1 POP JUMP JUMPDEST PUSH0 PUSH2 0xDFB DUP3 PUSH2 0xDD2 JUMP JUMPDEST SWAP1 POP SWAP2 SWAP1 POP JUMP JUMPDEST PUSH2 0xE0B DUP2 PUSH2 0xDF1 JUMP JUMPDEST DUP2 EQ PUSH2 0xE15 JUMPI PUSH0 DUP1 REVERT JUMPDEST POP JUMP JUMPDEST PUSH0 DUP2 CALLDATALOAD SWAP1 POP PUSH2 0xE26 DUP2 PUSH2 0xE02 JUMP JUMPDEST SWAP3 SWAP2 POP POP JUMP JUMPDEST PUSH0 DUP2 SWAP1 POP SWAP2 SWAP1 POP JUMP JUMPDEST PUSH2 0xE3E DUP2 PUSH2 0xE2C JUMP JUMPDEST DUP2 EQ PUSH2 0xE48 JUMPI PUSH0 DUP1 REVERT JUMPDEST POP JUMP JUMPDEST PUSH0 DUP2 CALLDATALOAD SWAP1 POP PUSH2 0xE59 DUP2 PUSH2 0xE35 JUMP JUMPDEST SWAP3 SWAP2 POP POP JUMP JUMPDEST PUSH0 DUP1 PUSH1 0x40 DUP4 DUP6 SUB SLT ISZERO PUSH2 0xE75 JUMPI PUSH2 0xE74 PUSH2 0xDCA JUMP JUMPDEST JUMPDEST PUSH0 PUSH2 0xE82 DUP6 DUP3 DUP7 ADD PUSH2 0xE18 JUMP JUMPDEST SWAP3 POP POP PUSH1 0x20 PUSH2 0xE93 DUP6 DUP3 DUP7 ADD PUSH2 0xE4B JUMP JUMPDEST SWAP2 POP POP SWAP3 POP SWAP3 SWAP1 POP JUMP JUMPDEST PUSH0 DUP2 MLOAD SWAP1 POP SWAP2 SWAP1 POP JUMP JUMPDEST PUSH0 DUP3 DUP3 MSTORE PUSH1 0x20 DUP3 ADD SWAP1 POP SWAP3 SWAP2 POP POP JUMP JUMPDEST DUP3 DUP2 DUP4 MCOPY PUSH0 DUP4 DUP4 ADD MSTORE POP POP POP JUMP JUMPDEST PUSH0 PUSH1 0x1F NOT PUSH1 0x1F DUP4 ADD AND SWAP1 POP SWAP2 SWAP1 POP JUMP JUMPDEST PUSH0 PUSH2 0xEDF DUP3 PUSH2 0xE9D JUMP JUMPDEST PUSH2 0xEE9 DUP2 DUP6 PUSH2 0xEA7 JUMP JUMPDEST SWAP4 POP PUSH2 0xEF9 DUP2 DUP6 PUSH1 0x20 DUP7 ADD PUSH2 0xEB7 JUMP JUMPDEST PUSH2 0xF02 DUP2 PUSH2 0xEC5 JUMP JUMPDEST DUP5 ADD SWAP2 POP POP SWAP3 SWAP2 POP POP JUMP JUMPDEST PUSH2 0xF16 DUP2 PUSH2 0xE2C JUMP JUMPDEST DUP3 MSTORE POP POP JUMP JUMPDEST PUSH0 PUSH1 0x80 DUP3 ADD SWAP1 POP DUP2 DUP2 SUB PUSH0 DUP4 ADD MSTORE PUSH2 0xF34 DUP2 DUP8 PUSH2 0xED5 JUMP JUMPDEST SWAP1 POP PUSH2 0xF43 PUSH1 0x20 DUP4 ADD DUP7 PUSH2 0xF0D JUMP JUMPDEST PUSH2 0xF50 PUSH1 0x40 DUP4 ADD DUP6 PUSH2 0xF0D JUMP JUMPDEST PUSH2 0xF5D PUSH1 0x60 DUP4 ADD DUP5 PUSH2 0xF0D JUMP JUMPDEST SWAP6 SWAP5 POP POP POP POP POP JUMP JUMPDEST PUSH0 PUSH1 0x20 DUP3 DUP5 SUB SLT ISZERO PUSH2 0xF7B JUMPI PUSH2 0xF7A PUSH2 0xDCA JUMP JUMPDEST JUMPDEST PUSH0 PUSH2 0xF88 DUP5 DUP3 DUP6 ADD PUSH2 0xE18 JUMP JUMPDEST SWAP2 POP POP SWAP3 SWAP2 POP POP JUMP JUMPDEST PUSH2 0xF9A DUP2 PUSH2 0xDF1 JUMP JUMPDEST DUP3 MSTORE POP POP JUMP JUMPDEST PUSH0 PUSH1 0x20 DUP3 ADD SWAP1 POP PUSH2 0xFB3 PUSH0 DUP4 ADD DUP5 PUSH2 0xF91 JUMP JUMPDEST SWAP3 SWAP2 POP POP JUMP JUMPDEST PUSH0 DUP1 REVERT JUMPDEST PUSH0 DUP1 REVERT JUMPDEST PUSH32 0x4E487B7100000000000000000000000000000000000000000000000000000000 PUSH0 MSTORE PUSH1 0x41 PUSH1 0x4 MSTORE PUSH1 0x24 PUSH0 REVERT JUMPDEST PUSH2 0xFF7 DUP3 PUSH2 0xEC5 JUMP JUMPDEST DUP2 ADD DUP2 DUP2 LT PUSH8 0xFFFFFFFFFFFFFFFF DUP3 GT OR ISZERO PUSH2 0x1016 JUMPI PUSH2 0x1015 PUSH2 0xFC1 JUMP JUMPDEST JUMPDEST DUP1 PUSH1 0x40 MSTORE POP POP POP JUMP JUMPDEST PUSH0 PUSH2 0x1028 PUSH2 0xDC1 JUMP JUMPDEST SWAP1 POP PUSH2 0x1034 DUP3 DUP3 PUSH2 0xFEE JUMP JUMPDEST SWAP2 SWAP1 POP JUMP JUMPDEST PUSH0 PUSH8 0xFFFFFFFFFFFFFFFF DUP3 GT ISZERO PUSH2 0x1053 JUMPI PUSH2 0x1052 PUSH2 0xFC1 JUMP JUMPDEST JUMPDEST PUSH2 0x105C DUP3 PUSH2 0xEC5 JUMP JUMPDEST SWAP1 POP PUSH1 0x20 DUP2 ADD SWAP1 POP SWAP2 SWAP1 POP JUMP JUMPDEST DUP3 DUP2 DUP4 CALLDATACOPY PUSH0 DUP4 DUP4 ADD MSTORE POP POP POP JUMP JUMPDEST PUSH0 PUSH2 0x1089 PUSH2 0x1084 DUP5 PUSH2 0x1039 JUMP JUMPDEST PUSH2 0x101F JUMP JUMPDEST SWAP1 POP DUP3 DUP2 MSTORE PUSH1 0x20 DUP2 ADD DUP5 DUP5 DUP5 ADD GT ISZERO PUSH2 0x10A5 JUMPI PUSH2 0x10A4 PUSH2 0xFBD JUMP JUMPDEST JUMPDEST PUSH2 0x10B0 DUP5 DUP3 DUP6 PUSH2 0x1069 JUMP JUMPDEST POP SWAP4 SWAP3 POP POP POP JUMP JUMPDEST PUSH0 DUP3 PUSH1 0x1F DUP4 ADD SLT PUSH2 0x10CC JUMPI PUSH2 0x10CB PUSH2 0xFB9 JUMP JUMPDEST JUMPDEST DUP2 CALLDATALOAD PUSH2 0x10DC DUP5 DUP3 PUSH1 0x20 DUP7 ADD PUSH2 0x1077 JUMP JUMPDEST SWAP2 POP POP SWAP3 SWAP2 POP POP JUMP JUMPDEST PUSH0 DUP1 PUSH1 0x40 DUP4 DUP6 SUB SLT ISZERO PUSH2 0x10FB JUMPI PUSH2 0x10FA PUSH2 0xDCA JUMP JUMPDEST JUMPDEST PUSH0 DUP4 ADD CALLDATALOAD PUSH8 0xFFFFFFFFFFFFFFFF DUP2 GT ISZERO PUSH2 0x1118 JUMPI PUSH2 0x1117 PUSH2 0xDCE JUMP JUMPDEST JUMPDEST PUSH2 0x1124 DUP6 DUP3 DUP7 ADD PUSH2 0x10B8 JUMP JUMPDEST SWAP3 POP POP PUSH1 0x20 DUP4 ADD CALLDATALOAD PUSH8 0xFFFFFFFFFFFFFFFF DUP2 GT ISZERO PUSH2 0x1145 JUMPI PUSH2 0x1144 PUSH2 0xDCE JUMP JUMPDEST JUMPDEST PUSH2 0x1151 DUP6 DUP3 DUP7 ADD PUSH2 0x10B8 JUMP JUMPDEST SWAP2 POP POP SWAP3 POP SWAP3 SWAP1 POP JUMP JUMPDEST PUSH0 DUP1 PUSH0 DUP1 PUSH1 0x80 DUP6 DUP8 SUB SLT ISZERO PUSH2 0x1173 JUMPI PUSH2 0x1172 PUSH2 0xDCA JUMP JUMPDEST JUMPDEST PUSH0 PUSH2 0x1180 DUP8 DUP3 DUP9 ADD PUSH2 0xE18 JUMP JUMPDEST SWAP5 POP POP PUSH1 0x20 PUSH2 0x1191 DUP8 DUP3 DUP9 ADD PUSH2 0xE4B JUMP JUMPDEST SWAP4 POP POP PUSH1 0x40 PUSH2 0x11A2 DUP8 DUP3 DUP9 ADD PUSH2 0xE4B JUMP JUMPDEST SWAP3 POP POP PUSH1 0x60 PUSH2 0x11B3 DUP8 DUP3 DUP9 ADD PUSH2 0xE18 JUMP JUMPDEST SWAP2 POP POP SWAP3 SWAP6 SWAP2 SWAP5 POP SWAP3 POP JUMP JUMPDEST PUSH0 DUP1 PUSH0 DUP1 PUSH0 PUSH1 0xA0 DUP7 DUP9 SUB SLT ISZERO PUSH2 0x11D8 JUMPI PUSH2 0x11D7 PUSH2 0xDCA JUMP JUMPDEST JUMPDEST PUSH0 PUSH2 0x11E5 DUP9 DUP3 DUP10 ADD PUSH2 0xE18 JUMP JUMPDEST SWAP6 POP POP PUSH1 0x20 PUSH2 0x11F6 DUP9 DUP3 DUP10 ADD PUSH2 0xE4B JUMP JUMPDEST SWAP5 POP POP PUSH1 0x40 DUP7 ADD CALLDATALOAD PUSH8 0xFFFFFFFFFFFFFFFF DUP2 GT ISZERO PUSH2 0x1217 JUMPI PUSH2 0x1216 PUSH2 0xDCE JUMP JUMPDEST JUMPDEST PUSH2 0x1223 DUP9 DUP3 DUP10 ADD PUSH2 0x10B8 JUMP JUMPDEST SWAP4 POP POP PUSH1 0x60 PUSH2 0x1234 DUP9 DUP3 DUP10 ADD PUSH2 0xE4B JUMP JUMPDEST SWAP3 POP POP PUSH1 0x80 PUSH2 0x1245 DUP9 DUP3 DUP10 ADD PUSH2 0xE4B JUMP JUMPDEST SWAP2 POP POP SWAP3 SWAP6 POP SWAP3 SWAP6 SWAP1 SWAP4 POP JUMP JUMPDEST PUSH32 0x4E6F7420796F757220746F6B656E000000000000000000000000000000000000 PUSH0 DUP3 ADD MSTORE POP JUMP JUMPDEST PUSH0 PUSH2 0x1286 PUSH1 0xE DUP4 PUSH2 0xEA7 JUMP JUMPDEST SWAP2 POP PUSH2 0x1291 DUP3 PUSH2 0x1252 JUMP JUMPDEST PUSH1 0x20 DUP3 ADD SWAP1 POP SWAP2 SWAP1 POP JUMP JUMPDEST PUSH0 PUSH1 0x20 DUP3 ADD SWAP1 POP DUP2 DUP2 SUB PUSH0 DUP4 ADD MSTORE PUSH2 0x12B3 DUP2 PUSH2 0x127A JUMP JUMPDEST SWAP1 POP SWAP2 SWAP1 POP JUMP JUMPDEST PUSH0 PUSH1 0x40 DUP3 ADD SWAP1 POP PUSH2 0x12CD PUSH0 DUP4 ADD DUP6 PUSH2 0xF91 JUMP JUMPDEST PUSH2 0x12DA PUSH1 0x20 DUP4 ADD DUP5 PUSH2 0xF0D JUMP JUMPDEST SWAP4 SWAP3 POP POP POP JUMP JUMPDEST PUSH0 PUSH1 0x20 DUP3 ADD SWAP1 POP PUSH2 0x12F4 PUSH0 DUP4 ADD DUP5 PUSH2 0xF0D JUMP JUMPDEST SWAP3 SWAP2 POP POP JUMP JUMPDEST PUSH32 0x4E487B7100000000000000000000000000000000000000000000000000000000 PUSH0 MSTORE PUSH1 0x22 PUSH1 0x4 MSTORE PUSH1 0x24 PUSH0 REVERT JUMPDEST PUSH0 PUSH1 0x2 DUP3 DIV SWAP1 POP PUSH1 0x1 DUP3 AND DUP1 PUSH2 0x133E JUMPI PUSH1 0x7F DUP3 AND SWAP2 POP JUMPDEST PUSH1 0x20 DUP3 LT DUP2 SUB PUSH2 0x1351 JUMPI PUSH2 0x1350 PUSH2 0x12FA JUMP JUMPDEST JUMPDEST POP SWAP2 SWAP1 POP JUMP JUMPDEST PUSH32 0x546F6B656E20616C726561647920637265617465640000000000000000000000 PUSH0 DUP3 ADD MSTORE POP JUMP JUMPDEST PUSH0 PUSH2 0x138B PUSH1 0x15 DUP4 PUSH2 0xEA7 JUMP JUMPDEST SWAP2 POP PUSH2 0x1396 DUP3 PUSH2 0x1357 JUMP JUMPDEST PUSH1 0x20 DUP3 ADD SWAP1 POP SWAP2 SWAP1 POP JUMP JUMPDEST PUSH0 PUSH1 0x20 DUP3 ADD SWAP1 POP DUP2 DUP2 SUB PUSH0 DUP4 ADD MSTORE PUSH2 0x13B8 DUP2 PUSH2 0x137F JUMP JUMPDEST SWAP1 POP SWAP2 SWAP1 POP JUMP JUMPDEST PUSH0 PUSH1 0x60 DUP3 ADD SWAP1 POP DUP2 DUP2 SUB PUSH0 DUP4 ADD MSTORE PUSH2 0x13D7 DUP2 DUP7 PUSH2 0xED5 JUMP JUMPDEST SWAP1 POP DUP2 DUP2 SUB PUSH1 0x20 DUP4 ADD MSTORE PUSH2 0x13EB DUP2 DUP6 PUSH2 0xED5 JUMP JUMPDEST SWAP1 POP PUSH2 0x13FA PUSH1 0x40 DUP4 ADD DUP5 PUSH2 0xF91 JUMP JUMPDEST SWAP5 SWAP4 POP POP POP POP JUMP JUMPDEST PUSH32 0x5469657220646F6573206E6F7420657869737400000000000000000000000000 PUSH0 DUP3 ADD MSTORE POP JUMP JUMPDEST PUSH0 PUSH2 0x1436 PUSH1 0x13 DUP4 PUSH2 0xEA7 JUMP JUMPDEST SWAP2 POP PUSH2 0x1441 DUP3 PUSH2 0x1402 JUMP JUMPDEST PUSH1 0x20 DUP3 ADD SWAP1 POP SWAP2 SWAP1 POP JUMP JUMPDEST PUSH0 PUSH1 0x20 DUP3 ADD SWAP1 POP DUP2 DUP2 SUB PUSH0 DUP4 ADD MSTORE PUSH2 0x1463 DUP2 PUSH2 0x142A JUMP JUMPDEST SWAP1 POP SWAP2 SWAP1 POP JUMP JUMPDEST PUSH32 0x4E487B7100000000000000000000000000000000000000000000000000000000 PUSH0 MSTORE PUSH1 0x11 PUSH1 0x4 MSTORE PUSH1 0x24 PUSH0 REVERT JUMPDEST PUSH0 PUSH2 0x14A1 DUP3 PUSH2 0xE2C JUMP JUMPDEST SWAP2 POP PUSH2 0x14AC DUP4 PUSH2 0xE2C JUMP JUMPDEST SWAP3 POP DUP3 DUP3 ADD SWAP1 POP DUP1 DUP3 GT ISZERO PUSH2 0x14C4 JUMPI PUSH2 0x14C3 PUSH2 0x146A JUMP JUMPDEST JUMPDEST SWAP3 SWAP2 POP POP JUMP JUMPDEST PUSH32 0x45786365656473207469657220737570706C7900000000000000000000000000 PUSH0 DUP3 ADD MSTORE POP JUMP JUMPDEST PUSH0 PUSH2 0x14FE PUSH1 0x13 DUP4 PUSH2 0xEA7 JUMP JUMPDEST SWAP2 POP PUSH2 0x1509 DUP3 PUSH2 0x14CA JUMP JUMPDEST PUSH1 0x20 DUP3 ADD SWAP1 POP SWAP2 SWAP1 POP JUMP JUMPDEST PUSH0 PUSH1 0x20 DUP3 ADD SWAP1 POP DUP2 DUP2 SUB PUSH0 DUP4 ADD MSTORE PUSH2 0x152B DUP2 PUSH2 0x14F2 JUMP JUMPDEST SWAP1 POP SWAP2 SWAP1 POP JUMP JUMPDEST PUSH0 PUSH2 0x153C DUP3 PUSH2 0xE2C JUMP JUMPDEST SWAP2 POP PUSH2 0x1547 DUP4 PUSH2 0xE2C JUMP JUMPDEST SWAP3 POP DUP3 DUP3 MUL PUSH2 0x1555 DUP2 PUSH2 0xE2C JUMP JUMPDEST SWAP2 POP DUP3 DUP3 DIV DUP5 EQ DUP4 ISZERO OR PUSH2 0x156C JUMPI PUSH2 0x156B PUSH2 0x146A JUMP JUMPDEST JUMPDEST POP SWAP3 SWAP2 POP POP JUMP JUMPDEST PUSH32 0x496E73756666696369656E74207061796D656E74000000000000000000000000 PUSH0 DUP3 ADD MSTORE POP JUMP JUMPDEST PUSH0 PUSH2 0x15A7 PUSH1 0x14 DUP4 PUSH2 0xEA7 JUMP JUMPDEST SWAP2 POP PUSH2 0x15B2 DUP3 PUSH2 0x1573 JUMP JUMPDEST PUSH1 0x20 DUP3 ADD SWAP1 POP SWAP2 SWAP1 POP JUMP JUMPDEST PUSH0 PUSH1 0x20 DUP3 ADD SWAP1 POP DUP2 DUP2 SUB PUSH0 DUP4 ADD MSTORE PUSH2 0x15D4 DUP2 PUSH2 0x159B JUMP JUMPDEST SWAP1 POP SWAP2 SWAP1 POP JUMP JUMPDEST PUSH0 PUSH1 0x40 DUP3 ADD SWAP1 POP PUSH2 0x15EE PUSH0 DUP4 ADD DUP6 PUSH2 0xF0D JUMP JUMPDEST PUSH2 0x15FB PUSH1 0x20 DUP4 ADD DUP5 PUSH2 0xF0D JUMP JUMPDEST SWAP4 SWAP3 POP POP POP JUMP JUMPDEST PUSH32 0x5469657220616C72656164792065786973747300000000000000000000000000 PUSH0 DUP3 ADD MSTORE POP JUMP JUMPDEST PUSH0 PUSH2 0x1636 PUSH1 0x13 DUP4 PUSH2 0xEA7 JUMP JUMPDEST SWAP2 POP PUSH2 0x1641 DUP3 PUSH2 0x1602 JUMP JUMPDEST PUSH1 0x20 DUP3 ADD SWAP1 POP SWAP2 SWAP1 POP JUMP JUMPDEST PUSH0 PUSH1 0x20 DUP3 ADD SWAP1 POP DUP2 DUP2 SUB PUSH0 DUP4 ADD MSTORE PUSH2 0x1663 DUP2 PUSH2 0x162A JUMP JUMPDEST SWAP1 POP SWAP2 SWAP1 POP JUMP JUMPDEST PUSH0 DUP2 SWAP1 POP DUP2 PUSH0 MSTORE PUSH1 0x20 PUSH0 KECCAK256 SWAP1 POP SWAP2 SWAP1 POP JUMP JUMPDEST PUSH0 PUSH1 0x20 PUSH1 0x1F DUP4 ADD DIV SWAP1 POP SWAP2 SWAP1 POP JUMP JUMPDEST PUSH0 DUP3 DUP3 SHL SWAP1 POP SWAP3 SWAP2 POP POP JUMP JUMPDEST PUSH0 PUSH1 0x8 DUP4 MUL PUSH2 0x16C6 PUSH32 0xFFFFFFFFFFFFFFFFFFFFFFFFFFFFFFFFFFFFFFFFFFFFFFFFFFFFFFFFFFFFFFFF DUP3 PUSH2 0x168B JUMP JUMPDEST PUSH2 0x16D0 DUP7 DUP4 PUSH2 0x168B JUMP JUMPDEST SWAP6 POP DUP1 NOT DUP5 AND SWAP4 POP DUP1 DUP7 AND DUP5 OR SWAP3 POP POP POP SWAP4 SWAP3 POP POP POP JUMP JUMPDEST PUSH0 DUP2 SWAP1 POP SWAP2 SWAP1 POP JUMP JUMPDEST PUSH0 PUSH2 0x170B PUSH2 0x1706 PUSH2 0x1701 DUP5 PUSH2 0xE2C JUMP JUMPDEST PUSH2 0x16E8 JUMP JUMPDEST PUSH2 0xE2C JUMP JUMPDEST SWAP1 POP SWAP2 SWAP1 POP JUMP JUMPDEST PUSH0 DUP2 SWAP1 POP SWAP2 SWAP1 POP JUMP JUMPDEST PUSH2 0x1724 DUP4 PUSH2 0x16F1 JUMP JUMPDEST PUSH2 0x1738 PUSH2 0x1730 DUP3 PUSH2 0x1712 JUMP JUMPDEST DUP5 DUP5 SLOAD PUSH2 0x1697 JUMP JUMPDEST DUP3 SSTORE POP POP POP POP JUMP JUMPDEST PUSH0 SWAP1 JUMP JUMPDEST PUSH2 0x174C PUSH2 0x1740 JUMP JUMPDEST PUSH2 0x1757 DUP2 DUP5 DUP5 PUSH2 0x171B JUMP JUMPDEST POP POP POP JUMP JUMPDEST JUMPDEST DUP2 DUP2 LT ISZERO PUSH2 0x177A JUMPI PUSH2 0x176F PUSH0 DUP3 PUSH2 0x1744 JUMP JUMPDEST PUSH1 0x1 DUP2 ADD SWAP1 POP PUSH2 0x175D JUMP JUMPDEST POP POP JUMP JUMPDEST PUSH1 0x1F DUP3 GT ISZERO PUSH2 0x17BF JUMPI PUSH2 0x1790 DUP2 PUSH2 0x166A JUMP JUMPDEST PUSH2 0x1799 DUP5 PUSH2 0x167C JUMP JUMPDEST DUP2 ADD PUSH1 0x20 DUP6 LT ISZERO PUSH2 0x17A8 JUMPI DUP2 SWAP1 POP JUMPDEST PUSH2 0x17BC PUSH2 0x17B4 DUP6 PUSH2 0x167C JUMP JUMPDEST DUP4 ADD DUP3 PUSH2 0x175C JUMP JUMPDEST POP POP JUMPDEST POP POP POP JUMP JUMPDEST PUSH0 DUP3 DUP3 SHR SWAP1 POP SWAP3 SWAP2 POP POP JUMP JUMPDEST PUSH0 PUSH2 0x17DF PUSH0 NOT DUP5 PUSH1 0x8 MUL PUSH2 0x17C4 JUMP JUMPDEST NOT DUP1 DUP4 AND SWAP2 POP POP SWAP3 SWAP2 POP POP JUMP JUMPDEST PUSH0 PUSH2 0x17F7 DUP4 DUP4 PUSH2 0x17D0 JUMP JUMPDEST SWAP2 POP DUP3 PUSH1 0x2 MUL DUP3 OR SWAP1 POP SWAP3 SWAP2 POP POP JUMP JUMPDEST PUSH2 0x1810 DUP3 PUSH2 0xE9D JUMP JUMPDEST PUSH8 0xFFFFFFFFFFFFFFFF DUP2 GT ISZERO PUSH2 0x1829 JUMPI PUSH2 0x1828 PUSH2 0xFC1 JUMP JUMPDEST JUMPDEST PUSH2 0x1833 DUP3 SLOAD PUSH2 0x1327 JUMP JUMPDEST PUSH2 0x183E DUP3 DUP3 DUP6 PUSH2 0x177E JUMP JUMPDEST PUSH0 PUSH1 0x20 SWAP1 POP PUSH1 0x1F DUP4 GT PUSH1 0x1 DUP2 EQ PUSH2 0x186F JUMPI PUSH0 DUP5 ISZERO PUSH2 0x185D JUMPI DUP3 DUP8 ADD MLOAD SWAP1 POP JUMPDEST PUSH2 0x1867 DUP6 DUP3 PUSH2 0x17EC JUMP JUMPDEST DUP7 SSTORE POP PUSH2 0x18CE JUMP JUMPDEST PUSH1 0x1F NOT DUP5 AND PUSH2 0x187D DUP7 PUSH2 0x166A JUMP JUMPDEST PUSH0 JUMPDEST DUP3 DUP2 LT ISZERO PUSH2 0x18A4 JUMPI DUP5 DUP10 ADD MLOAD DUP3 SSTORE PUSH1 0x1 DUP3 ADD SWAP2 POP PUSH1 0x20 DUP6 ADD SWAP5 POP PUSH1 0x20 DUP2 ADD SWAP1 POP PUSH2 0x187F JUMP JUMPDEST DUP7 DUP4 LT ISZERO PUSH2 0x18C1 JUMPI DUP5 DUP10 ADD MLOAD PUSH2 0x18BD PUSH1 0x1F DUP10 AND DUP3 PUSH2 0x17D0 JUMP JUMPDEST DUP4 SSTORE POP JUMPDEST PUSH1 0x1 PUSH1 0x2 DUP9 MUL ADD DUP9 SSTORE POP POP POP JUMPDEST POP POP POP POP POP POP JUMP JUMPDEST PUSH0 PUSH1 0x80 DUP3 ADD SWAP1 POP PUSH2 0x18E9 PUSH0 DUP4 ADD DUP8 PUSH2 0xF0D JUMP JUMPDEST DUP2 DUP2 SUB PUSH1 0x20 DUP4 ADD MSTORE PUSH2 0x18FB DUP2 DUP7 PUSH2 0xED5 JUMP JUMPDEST SWAP1 POP PUSH2 0x190A PUSH1 0x40 DUP4 ADD DUP6 PUSH2 0xF0D JUMP JUMPDEST PUSH2 0x1917 PUSH1 0x60 DUP4 ADD DUP5 PUSH2 0xF0D JUMP JUMPDEST SWAP6 SWAP5 POP POP POP POP POP JUMP INVALID PUSH1 0x80 PUSH1 0x40 MSTORE CALLVALUE DUP1 ISZERO PUSH2 0xF JUMPI PUSH0 DUP1 REVERT JUMPDEST POP PUSH1 0x40 MLOAD PUSH2 0x16D3 CODESIZE SUB DUP1 PUSH2 0x16D3 DUP4 CODECOPY DUP2 DUP2 ADD PUSH1 0x40 MSTORE DUP2 ADD SWAP1 PUSH2 0x31 SWAP2 SWAP1 PUSH2 0x244 JUMP JUMPDEST DUP3 DUP3 DUP2 PUSH1 0x3 SWAP1 DUP2 PUSH2 0x42 SWAP2 SWAP1 PUSH2 0x4D9 JUMP JUMPDEST POP DUP1 PUSH1 0x4 SWAP1 DUP2 PUSH2 0x52 SWAP2 SWAP1 PUSH2 0x4D9 JUMP JUMPDEST POP POP POP DUP1 PUSH1 0x5 PUSH0 PUSH2 0x100 EXP DUP2 SLOAD DUP2 PUSH20 0xFFFFFFFFFFFFFFFFFFFFFFFFFFFFFFFFFFFFFFFF MUL NOT AND SWAP1 DUP4 PUSH20 0xFFFFFFFFFFFFFFFFFFFFFFFFFFFFFFFFFFFFFFFF AND MUL OR SWAP1 SSTORE POP POP POP POP PUSH2 0x5A8 JUMP JUMPDEST PUSH0 PUSH1 0x40 MLOAD SWAP1 POP SWAP1 JUMP JUMPDEST PUSH0 DUP1 REVERT JUMPDEST PUSH0 DUP1 REVERT JUMPDEST PUSH0 DUP1 REVERT JUMPDEST PUSH0 DUP1 REVERT JUMPDEST PUSH0 PUSH1 0x1F NOT PUSH1 0x1F DUP4 ADD AND SWAP1 POP SWAP2 SWAP1 POP JUMP JUMPDEST PUSH32 0x4E487B7100000000000000000000000000000000000000000000000000000000 PUSH0 MSTORE PUSH1 0x41 PUSH1 0x4 MSTORE PUSH1 0x24 PUSH0 REVERT JUMPDEST PUSH2 0xFC DUP3 PUSH2 0xB6 JUMP JUMPDEST DUP2 ADD DUP2 DUP2 LT PUSH8 0xFFFFFFFFFFFFFFFF DUP3 GT OR ISZERO PUSH2 0x11B JUMPI PUSH2 0x11A PUSH2 0xC6 JUMP JUMPDEST JUMPDEST DUP1 PUSH1 0x40 MSTORE POP POP POP JUMP JUMPDEST PUSH0 PUSH2 0x12D PUSH2 0x9D JUMP JUMPDEST SWAP1 POP PUSH2 0x139 DUP3 DUP3 PUSH2 0xF3 JUMP JUMPDEST SWAP2 SWAP1 POP JUMP JUMPDEST PUSH0 PUSH8 0xFFFFFFFFFFFFFFFF DUP3 GT ISZERO PUSH2 0x158 JUMPI PUSH2 0x157 PUSH2 0xC6 JUMP JUMPDEST JUMPDEST PUSH2 0x161 DUP3 PUSH2 0xB6 JUMP JUMPDEST SWAP1 POP PUSH1 0x20 DUP2 ADD SWAP1 POP SWAP2 SWAP1 POP JUMP JUMPDEST DUP3 DUP2 DUP4 MCOPY PUSH0 DUP4 DUP4 ADD MSTORE POP POP POP JUMP JUMPDEST PUSH0 PUSH2 0x18E PUSH2 0x189 DUP5 PUSH2 0x13E JUMP JUMPDEST PUSH2 0x124 JUMP JUMPDEST SWAP1 POP DUP3 DUP2 MSTORE PUSH1 0x20 DUP2 ADD DUP5 DUP5 DUP5 ADD GT ISZERO PUSH2 0x1AA JUMPI PUSH2 0x1A9 PUSH2 0xB2 JUMP JUMPDEST JUMPDEST PUSH2 0x1B5 DUP5 DUP3 DUP6 PUSH2 0x16E JUMP JUMPDEST POP SWAP4 SWAP3 POP POP POP JUMP JUMPDEST PUSH0 DUP3 PUSH1 0x1F DUP4 ADD SLT PUSH2 0x1D1 JUMPI PUSH2 0x1D0 PUSH2 0xAE JUMP JUMPDEST JUMPDEST DUP2 MLOAD PUSH2 0x1E1 DUP5 DUP3 PUSH1 0x20 DUP7 ADD PUSH2 0x17C JUMP JUMPDEST SWAP2 POP POP SWAP3 SWAP2 POP POP JUMP JUMPDEST PUSH0 PUSH20 0xFFFFFFFFFFFFFFFFFFFFFFFFFFFFFFFFFFFFFFFF DUP3 AND SWAP1 POP SWAP2 SWAP1 POP JUMP JUMPDEST PUSH0 PUSH2 0x213 DUP3 PUSH2 0x1EA JUMP JUMPDEST SWAP1 POP SWAP2 SWAP1 POP JUMP JUMPDEST PUSH2 0x223 DUP2 PUSH2 0x209 JUMP JUMPDEST DUP2 EQ PUSH2 0x22D JUMPI PUSH0 DUP1 REVERT JUMPDEST POP JUMP JUMPDEST PUSH0 DUP2 MLOAD SWAP1 POP PUSH2 0x23E DUP2 PUSH2 0x21A JUMP JUMPDEST SWAP3 SWAP2 POP POP JUMP JUMPDEST PUSH0 DUP1 PUSH0 PUSH1 0x60 DUP5 DUP7 SUB SLT ISZERO PUSH2 0x25B JUMPI PUSH2 0x25A PUSH2 0xA6 JUMP JUMPDEST JUMPDEST PUSH0 DUP5 ADD MLOAD PUSH8 0xFFFFFFFFFFFFFFFF DUP2 GT ISZERO PUSH2 0x278 JUMPI PUSH2 0x277 PUSH2 0xAA JUMP JUMPDEST JUMPDEST PUSH2 0x284 DUP7 DUP3 DUP8 ADD PUSH2 0x1BD JUMP JUMPDEST SWAP4 POP POP PUSH1 0x20 DUP5 ADD MLOAD PUSH8 0xFFFFFFFFFFFFFFFF DUP2 GT ISZERO PUSH2 0x2A5 JUMPI PUSH2 0x2A4 PUSH2 0xAA JUMP JUMPDEST JUMPDEST PUSH2 0x2B1 DUP7 DUP3 DUP8 ADD PUSH2 0x1BD JUMP JUMPDEST SWAP3 POP POP PUSH1 0x40 PUSH2 0x2C2 DUP7 DUP3 DUP8 ADD PUSH2 0x230 JUMP JUMPDEST SWAP2 POP POP SWAP3 POP SWAP3 POP SWAP3 JUMP JUMPDEST PUSH0 DUP2 MLOAD SWAP1 POP SWAP2 SWAP1 POP JUMP JUMPDEST PUSH32 0x4E487B7100000000000000000000000000000000000000000000000000000000 PUSH0 MSTORE PUSH1 0x22 PUSH1 0x4 MSTORE PUSH1 0x24 PUSH0 REVERT JUMPDEST PUSH0 PUSH1 0x2 DUP3 DIV SWAP1 POP PUSH1 0x1 DUP3 AND DUP1 PUSH2 0x31A JUMPI PUSH1 0x7F DUP3 AND SWAP2 POP JUMPDEST PUSH1 0x20 DUP3 LT DUP2 SUB PUSH2 0x32D JUMPI PUSH2 0x32C PUSH2 0x2D6 JUMP JUMPDEST JUMPDEST POP SWAP2 SWAP1 POP JUMP JUMPDEST PUSH0 DUP2 SWAP1 POP DUP2 PUSH0 MSTORE PUSH1 0x20 PUSH0 KECCAK256 SWAP1 POP SWAP2 SWAP1 POP JUMP JUMPDEST PUSH0 PUSH1 0x20 PUSH1 0x1F DUP4 ADD DIV SWAP1 POP SWAP2 SWAP1 POP JUMP JUMPDEST PUSH0 DUP3 DUP3 SHL SWAP1 POP SWAP3 SWAP2 POP POP JUMP JUMPDEST PUSH0 PUSH1 0x8 DUP4 MUL PUSH2 0x38F PUSH32 0xFFFFFFFFFFFFFFFFFFFFFFFFFFFFFFFFFFFFFFFFFFFFFFFFFFFFFFFFFFFFFFFF DUP3 PUSH2 0x354 JUMP JUMPDEST PUSH2 0x399 DUP7 DUP4 PUSH2 0x354 JUMP JUMPDEST SWAP6 POP DUP1 NOT DUP5 AND SWAP4 POP DUP1 DUP7 AND DUP5 OR SWAP3 POP POP POP SWAP4 SWAP3 POP POP POP JUMP JUMPDEST PUSH0 DUP2 SWAP1 POP SWAP2 SWAP1 POP JUMP JUMPDEST PUSH0 DUP2 SWAP1 POP SWAP2 SWAP1 POP JUMP JUMPDEST PUSH0 PUSH2 0x3DD PUSH2 0x3D8 PUSH2 0x3D3 DUP5 PUSH2 0x3B1 JUMP JUMPDEST PUSH2 0x3BA JUMP JUMPDEST PUSH2 0x3B1 JUMP JUMPDEST SWAP1 POP SWAP2 SWAP1 POP JUMP JUMPDEST PUSH0 DUP2 SWAP1 POP SWAP2 SWAP1 POP JUMP JUMPDEST PUSH2 0x3F6 DUP4 PUSH2 0x3C3 JUMP JUMPDEST PUSH2 0x40A PUSH2 0x402 DUP3 PUSH2 0x3E4 JUMP JUMPDEST DUP5 DUP5 SLOAD PUSH2 0x360 JUMP JUMPDEST DUP3 SSTORE POP POP POP POP JUMP JUMPDEST PUSH0 SWAP1 JUMP JUMPDEST PUSH2 0x41E PUSH2 0x412 JUMP JUMPDEST PUSH2 0x429 DUP2 DUP5 DUP5 PUSH2 0x3ED JUMP JUMPDEST POP POP POP JUMP JUMPDEST JUMPDEST DUP2 DUP2 LT ISZERO PUSH2 0x44C JUMPI PUSH2 0x441 PUSH0 DUP3 PUSH2 0x416 JUMP JUMPDEST PUSH1 0x1 DUP2 ADD SWAP1 POP PUSH2 0x42F JUMP JUMPDEST POP POP JUMP JUMPDEST PUSH1 0x1F DUP3 GT ISZERO PUSH2 0x491 JUMPI PUSH2 0x462 DUP2 PUSH2 0x333 JUMP JUMPDEST PUSH2 0x46B DUP5 PUSH2 0x345 JUMP JUMPDEST DUP2 ADD PUSH1 0x20 DUP6 LT ISZERO PUSH2 0x47A JUMPI DUP2 SWAP1 POP JUMPDEST PUSH2 0x48E PUSH2 0x486 DUP6 PUSH2 0x345 JUMP JUMPDEST DUP4 ADD DUP3 PUSH2 0x42E JUMP JUMPDEST POP POP JUMPDEST POP POP POP JUMP JUMPDEST PUSH0 DUP3 DUP3 SHR SWAP1 POP SWAP3 SWAP2 POP POP JUMP JUMPDEST PUSH0 PUSH2 0x4B1 PUSH0 NOT DUP5 PUSH1 0x8 MUL PUSH2 0x496 JUMP JUMPDEST NOT DUP1 DUP4 AND SWAP2 POP POP SWAP3 SWAP2 POP POP JUMP JUMPDEST PUSH0 PUSH2 0x4C9 DUP4 DUP4 PUSH2 0x4A2 JUMP JUMPDEST SWAP2 POP DUP3 PUSH1 0x2 MUL DUP3 OR SWAP1 POP SWAP3 SWAP2 POP POP JUMP JUMPDEST PUSH2 0x4E2 DUP3 PUSH2 0x2CC JUMP JUMPDEST PUSH8 0xFFFFFFFFFFFFFFFF DUP2 GT ISZERO PUSH2 0x4FB JUMPI PUSH2 0x4FA PUSH2 0xC6 JUMP JUMPDEST JUMPDEST PUSH2 0x505 DUP3 SLOAD PUSH2 0x303 JUMP JUMPDEST PUSH2 0x510 DUP3 DUP3 DUP6 PUSH2 0x450 JUMP JUMPDEST PUSH0 PUSH1 0x20 SWAP1 POP PUSH1 0x1F DUP4 GT PUSH1 0x1 DUP2 EQ PUSH2 0x541 JUMPI PUSH0 DUP5 ISZERO PUSH2 0x52F JUMPI DUP3 DUP8 ADD MLOAD SWAP1 POP JUMPDEST PUSH2 0x539 DUP6 DUP3 PUSH2 0x4BE JUMP JUMPDEST DUP7 SSTORE POP PUSH2 0x5A0 JUMP JUMPDEST PUSH1 0x1F NOT DUP5 AND PUSH2 0x54F DUP7 PUSH2 0x333 JUMP JUMPDEST PUSH0 JUMPDEST DUP3 DUP2 LT ISZERO PUSH2 0x576 JUMPI DUP5 DUP10 ADD MLOAD DUP3 SSTORE PUSH1 0x1 DUP3 ADD SWAP2 POP PUSH1 0x20 DUP6 ADD SWAP5 POP PUSH1 0x20 DUP2 ADD SWAP1 POP PUSH2 0x551 JUMP JUMPDEST DUP7 DUP4 LT ISZERO PUSH2 0x593 JUMPI DUP5 DUP10 ADD MLOAD PUSH2 0x58F PUSH1 0x1F DUP10 AND DUP3 PUSH2 0x4A2 JUMP JUMPDEST DUP4 SSTORE POP JUMPDEST PUSH1 0x1 PUSH1 0x2 DUP9 MUL ADD DUP9 SSTORE POP POP POP JUMPDEST POP POP POP POP POP POP JUMP JUMPDEST PUSH2 0x111E DUP1 PUSH2 0x5B5 PUSH0 CODECOPY PUSH0 RETURN INVALID PUSH1 0x80 PUSH1 0x40 MSTORE CALLVALUE DUP1 ISZERO PUSH2 0xF JUMPI PUSH0 DUP1 REVERT JUMPDEST POP PUSH1 0x4 CALLDATASIZE LT PUSH2 0xB2 JUMPI PUSH0 CALLDATALOAD PUSH1 0xE0 SHR DUP1 PUSH4 0x40C10F19 GT PUSH2 0x6F JUMPI DUP1 PUSH4 0x40C10F19 EQ PUSH2 0x18E JUMPI DUP1 PUSH4 0x70A08231 EQ PUSH2 0x1AA JUMPI DUP1 PUSH4 0x95D89B41 EQ PUSH2 0x1DA JUMPI DUP1 PUSH4 0x9DC29FAC EQ PUSH2 0x1F8 JUMPI DUP1 PUSH4 0xA9059CBB EQ PUSH2 0x214 JUMPI DUP1 PUSH4 0xDD62ED3E EQ PUSH2 0x244 JUMPI PUSH2 0xB2 JUMP JUMPDEST DUP1 PUSH4 0x2D05D3F EQ PUSH2 0xB6 JUMPI DUP1 PUSH4 0x6FDDE03 EQ PUSH2 0xD4 JUMPI DUP1 PUSH4 0x95EA7B3 EQ PUSH2 0xF2 JUMPI DUP1 PUSH4 0x18160DDD EQ PUSH2 0x122 JUMPI DUP1 PUSH4 0x23B872DD EQ PUSH2 0x140 JUMPI DUP1 PUSH4 0x313CE567 EQ PUSH2 0x170 JUMPI JUMPDEST PUSH0 DUP1 REVERT JUMPDEST PUSH2 0xBE PUSH2 0x274 JUMP JUMPDEST PUSH1 0x40 MLOAD PUSH2 0xCB SWAP2 SWAP1 PUSH2 0xCFE JUMP JUMPDEST PUSH1 0x40 MLOAD DUP1 SWAP2 SUB SWAP1 RETURN JUMPDEST PUSH2 0xDC PUSH2 0x299 JUMP JUMPDEST PUSH1 0x40 MLOAD PUSH2 0xE9 SWAP2 SWAP1 PUSH2 0xD87 JUMP JUMPDEST PUSH1 0x40 MLOAD DUP1 SWAP2 SUB SWAP1 RETURN JUMPDEST PUSH2 0x10C PUSH1 0x4 DUP1 CALLDATASIZE SUB DUP2 ADD SWAP1 PUSH2 0x107 SWAP2 SWAP1 PUSH2 0xE08 JUMP JUMPDEST PUSH2 0x329 JUMP JUMPDEST PUSH1 0x40 MLOAD PUSH2 0x119 SWAP2 SWAP1 PUSH2 0xE60 JUMP JUMPDEST PUSH1 0x40 MLOAD DUP1 SWAP2 SUB SWAP1 RETURN JUMPDEST PUSH2 0x12A PUSH2 0x34B JUMP JUMPDEST PUSH1 0x40 MLOAD PUSH2 0x137 SWAP2 SWAP1 PUSH2 0xE88 JUMP JUMPDEST PUSH1 0x40 MLOAD DUP1 SWAP2 SUB SWAP1 RETURN JUMPDEST PUSH2 0x15A PUSH1 0x4 DUP1 CALLDATASIZE SUB DUP2 ADD SWAP1 PUSH2 0x155 SWAP2 SWAP1 PUSH2 0xEA1 JUMP JUMPDEST PUSH2 0x354 JUMP JUMPDEST PUSH1 0x40 MLOAD PUSH2 0x167 SWAP2 SWAP1 PUSH2 0xE60 JUMP JUMPDEST PUSH1 0x40 MLOAD DUP1 SWAP2 SUB SWAP1 RETURN JUMPDEST PUSH2 0x178 PUSH2 0x382 JUMP JUMPDEST PUSH1 0x40 MLOAD PUSH2 0x185 SWAP2 SWAP1 PUSH2 0xF0C JUMP JUMPDEST PUSH1 0x40 MLOAD DUP1 SWAP2 SUB SWAP1 RETURN JUMPDEST PUSH2 0x1A8 PUSH1 0x4 DUP1 CALLDATASIZE SUB DUP2 ADD SWAP1 PUSH2 0x1A3 SWAP2 SWAP1 PUSH2 0xE08 JUMP JUMPDEST PUSH2 0x38A JUMP JUMPDEST STOP JUMPDEST PUSH2 0x1C4 PUSH1 0x4 DUP1 CALLDATASIZE SUB DUP2 ADD SWAP1 PUSH2 0x1BF SWAP2 SWAP1 PUSH2 0xF25 JUMP JUMPDEST PUSH2 0x427 JUMP JUMPDEST PUSH1 0x40 MLOAD PUSH2 0x1D1 SWAP2 SWAP1 PUSH2 0xE88 JUMP JUMPDEST PUSH1 0x40 MLOAD DUP1 SWAP2 SUB SWAP1 RETURN JUMPDEST PUSH2 0x1E2 PUSH2 0x46C JUMP JUMPDEST PUSH1 0x40 MLOAD PUSH2 0x1EF SWAP2 SWAP1 PUSH2 0xD87 JUMP JUMPDEST PUSH1 0x40 MLOAD DUP1 SWAP2 SUB SWAP1 RETURN JUMPDEST PUSH2 0x212 PUSH1 0x4 DUP1 CALLDATASIZE SUB DUP2 ADD SWAP1 PUSH2 0x20D SWAP2 SWAP1 PUSH2 0xE08 JUMP JUMPDEST PUSH2 0x4FC JUMP JUMPDEST STOP JUMPDEST PUSH2 0x22E PUSH1 0x4 DUP1 CALLDATASIZE SUB DUP2 ADD SWAP1 PUSH2 0x229 SWAP2 SWAP1 PUSH2 0xE08 JUMP JUMPDEST PUSH2 0x599 JUMP JUMPDEST PUSH1 0x40 MLOAD PUSH2 0x23B SWAP2 SWAP1 PUSH2 0xE60 JUMP JUMPDEST PUSH1 0x40 MLOAD DUP1 SWAP2 SUB SWAP1 RETURN JUMPDEST PUSH2 0x25E PUSH1 0x4 DUP1 CALLDATASIZE SUB DUP2 ADD SWAP1 PUSH2 0x259 SWAP2 SWAP1 PUSH2 0xF50 JUMP JUMPDEST PUSH2 0x5BB JUMP JUMPDEST PUSH1 0x40 MLOAD PUSH2 0x26B SWAP2 SWAP1 PUSH2 0xE88 JUMP JUMPDEST PUSH1 0x40 MLOAD DUP1 SWAP2 SUB SWAP1 RETURN JUMPDEST PUSH1 0x5 PUSH0 SWAP1 SLOAD SWAP1 PUSH2 0x100 EXP SWAP1 DIV PUSH20 0xFFFFFFFFFFFFFFFFFFFFFFFFFFFFFFFFFFFFFFFF AND DUP2 JUMP JUMPDEST PUSH1 0x60 PUSH1 0x3 DUP1 SLOAD PUSH2 0x2A8 SWAP1 PUSH2 0xFBB JUMP JUMPDEST DUP1 PUSH1 0x1F ADD PUSH1 0x20 DUP1 SWAP2 DIV MUL PUSH1 0x20 ADD PUSH1 0x40 MLOAD SWAP1 DUP2 ADD PUSH1 0x40 MSTORE DUP1 SWAP3 SWAP2 SWAP1 DUP2 DUP2 MSTORE PUSH1 0x20 ADD DUP3 DUP1 SLOAD PUSH2 0x2D4 SWAP1 PUSH2 0xFBB JUMP JUMPDEST DUP1 ISZERO PUSH2 0x31F JUMPI DUP1 PUSH1 0x1F LT PUSH2 0x2F6 JUMPI PUSH2 0x100 DUP1 DUP4 SLOAD DIV MUL DUP4 MSTORE SWAP2 PUSH1 0x20 ADD SWAP2 PUSH2 0x31F JUMP JUMPDEST DUP3 ADD SWAP2 SWAP1 PUSH0 MSTORE PUSH1 0x20 PUSH0 KECCAK256 SWAP1 JUMPDEST DUP2 SLOAD DUP2 MSTORE SWAP1 PUSH1 0x1 ADD SWAP1 PUSH1 0x20 ADD DUP1 DUP4 GT PUSH2 0x302 JUMPI DUP3 SWAP1 SUB PUSH1 0x1F AND DUP3 ADD SWAP2 JUMPDEST POP POP POP POP POP SWAP1 POP SWAP1 JUMP JUMPDEST PUSH0 DUP1 PUSH2 0x333 PUSH2 0x63D JUMP JUMPDEST SWAP1 POP PUSH2 0x340 DUP2 DUP6 DUP6 PUSH2 0x644 JUMP JUMPDEST PUSH1 0x1 SWAP2 POP POP SWAP3 SWAP2 POP POP JUMP JUMPDEST PUSH0 PUSH1 0x2 SLOAD SWAP1 POP SWAP1 JUMP JUMPDEST PUSH0 DUP1 PUSH2 0x35E PUSH2 0x63D JUMP JUMPDEST SWAP1 POP PUSH2 0x36B DUP6 DUP3 DUP6 PUSH2 0x656 JUMP JUMPDEST PUSH2 0x376 DUP6 DUP6 DUP6 PUSH2 0x6E9 JUMP JUMPDEST PUSH1 0x1 SWAP2 POP POP SWAP4 SWAP3 POP POP POP JUMP JUMPDEST PUSH0 PUSH1 0x12 SWAP1 POP SWAP1 JUMP JUMPDEST PUSH1 0x5 PUSH0 SWAP1 SLOAD SWAP1 PUSH2 0x100 EXP SWAP1 DIV PUSH20 0xFFFFFFFFFFFFFFFFFFFFFFFFFFFFFFFFFFFFFFFF AND PUSH20 0xFFFFFFFFFFFFFFFFFFFFFFFFFFFFFFFFFFFFFFFF AND CALLER PUSH20 0xFFFFFFFFFFFFFFFFFFFFFFFFFFFFFFFFFFFFFFFF AND EQ PUSH2 0x419 JUMPI PUSH1 0x40 MLOAD PUSH32 0x8C379A000000000000000000000000000000000000000000000000000000000 DUP2 MSTORE PUSH1 0x4 ADD PUSH2 0x410 SWAP1 PUSH2 0x1035 JUMP JUMPDEST PUSH1 0x40 MLOAD DUP1 SWAP2 SUB SWAP1 REVERT JUMPDEST PUSH2 0x423 DUP3 DUP3 PUSH2 0x7D9 JUMP JUMPDEST POP POP JUMP JUMPDEST PUSH0 DUP1 PUSH0 DUP4 PUSH20 0xFFFFFFFFFFFFFFFFFFFFFFFFFFFFFFFFFFFFFFFF AND PUSH20 0xFFFFFFFFFFFFFFFFFFFFFFFFFFFFFFFFFFFFFFFF AND DUP2 MSTORE PUSH1 0x20 ADD SWAP1 DUP2 MSTORE PUSH1 0x20 ADD PUSH0 KECCAK256 SLOAD SWAP1 POP SWAP2 SWAP1 POP JUMP JUMPDEST PUSH1 0x60 PUSH1 0x4 DUP1 SLOAD PUSH2 0x47B SWAP1 PUSH2 0xFBB JUMP JUMPDEST DUP1 PUSH1 0x1F ADD PUSH1 0x20 DUP1 SWAP2 DIV MUL PUSH1 0x20 ADD PUSH1 0x40 MLOAD SWAP1 DUP2 ADD PUSH1 0x40 MSTORE DUP1 SWAP3 SWAP2 SWAP1 DUP2 DUP2 MSTORE PUSH1 0x20 ADD DUP3 DUP1 SLOAD PUSH2 0x4A7 SWAP1 PUSH2 0xFBB JUMP JUMPDEST DUP1 ISZERO PUSH2 0x4F2 JUMPI DUP1 PUSH1 0x1F LT PUSH2 0x4C9 JUMPI PUSH2 0x100 DUP1 DUP4 SLOAD DIV MUL DUP4 MSTORE SWAP2 PUSH1 0x20 ADD SWAP2 PUSH2 0x4F2 JUMP JUMPDEST DUP3 ADD SWAP2 SWAP1 PUSH0 MSTORE PUSH1 0x20 PUSH0 KECCAK256 SWAP1 JUMPDEST DUP2 SLOAD DUP2 MSTORE SWAP1 PUSH1 0x1 ADD SWAP1 PUSH1 0x20 ADD DUP1 DUP4 GT PUSH2 0x4D5 JUMPI DUP3 SWAP1 SUB PUSH1 0x1F AND DUP3 ADD SWAP2 JUMPDEST POP POP POP POP POP SWAP1 POP SWAP1 JUMP JUMPDEST PUSH1 0x5 PUSH0 SWAP1 SLOAD SWAP1 PUSH2 0x100 EXP SWAP1 DIV PUSH20 0xFFFFFFFFFFFFFFFFFFFFFFFFFFFFFFFFFFFFFFFF AND PUSH20 0xFFFFFFFFFFFFFFFFFFFFFFFFFFFFFFFFFFFFFFFF AND CALLER PUSH20 0xFFFFFFFFFFFFFFFFFFFFFFFFFFFFFFFFFFFFFFFF AND EQ PUSH2 0x58B JUMPI PUSH1 0x40 MLOAD PUSH32 0x8C379A000000000000000000000000000000000000000000000000000000000 DUP2 MSTORE PUSH1 0x4 ADD PUSH2 0x582 SWAP1 PUSH2 0x1035 JUMP JUMPDEST PUSH1 0x40 MLOAD DUP1 SWAP2 SUB SWAP1 REVERT JUMPDEST PUSH2 0x595 DUP3 DUP3 PUSH2 0x858 JUMP JUMPDEST POP POP JUMP JUMPDEST PUSH0 DUP1 PUSH2 0x5A3 PUSH2 0x63D JUMP JUMPDEST SWAP1 POP PUSH2 0x5B0 DUP2 DUP6 DUP6 PUSH2 0x6E9 JUMP JUMPDEST PUSH1 0x1 SWAP2 POP POP SWAP3 SWAP2 POP POP JUMP JUMPDEST PUSH0 PUSH1 0x1 PUSH0 DUP5 PUSH20 0xFFFFFFFFFFFFFFFFFFFFFFFFFFFFFFFFFFFFFFFF AND PUSH20 0xFFFFFFFFFFFFFFFFFFFFFFFFFFFFFFFFFFFFFFFF AND DUP2 MSTORE PUSH1 0x20 ADD SWAP1 DUP2 MSTORE PUSH1 0x20 ADD PUSH0 KECCAK256 PUSH0 DUP4 PUSH20 0xFFFFFFFFFFFFFFFFFFFFFFFFFFFFFFFFFFFFFFFF AND PUSH20 0xFFFFFFFFFFFFFFFFFFFFFFFFFFFFFFFFFFFFFFFF AND DUP2 MSTORE PUSH1 0x20 ADD SWAP1 DUP2 MSTORE PUSH1 0x20 ADD PUSH0 KECCAK256 SLOAD SWAP1 POP SWAP3 SWAP2 POP POP JUMP JUMPDEST PUSH0 CALLER SWAP1 POP SWAP1 JUMP JUMPDEST PUSH2 0x651 DUP4 DUP4 DUP4 PUSH1 0x1 PUSH2 0x8D7 JUMP JUMPDEST POP POP POP JUMP JUMPDEST PUSH0 PUSH2 0x661 DUP5 DUP5 PUSH2 0x5BB JUMP JUMPDEST SWAP1 POP PUSH32 0xFFFFFFFFFFFFFFFFFFFFFFFFFFFFFFFFFFFFFFFFFFFFFFFFFFFFFFFFFFFFFFFF DUP2 LT ISZERO PUSH2 0x6E3 JUMPI DUP2 DUP2 LT ISZERO PUSH2 0x6D4 JUMPI DUP3 DUP2 DUP4 PUSH1 0x40 MLOAD PUSH32 0xFB8F41B200000000000000000000000000000000000000000000000000000000 DUP2 MSTORE PUSH1 0x4 ADD PUSH2 0x6CB SWAP4 SWAP3 SWAP2 SWAP1 PUSH2 0x1053 JUMP JUMPDEST PUSH1 0x40 MLOAD DUP1 SWAP2 SUB SWAP1 REVERT JUMPDEST PUSH2 0x6E2 DUP5 DUP5 DUP5 DUP5 SUB PUSH0 PUSH2 0x8D7 JUMP JUMPDEST JUMPDEST POP POP POP POP JUMP JUMPDEST PUSH0 PUSH20 0xFFFFFFFFFFFFFFFFFFFFFFFFFFFFFFFFFFFFFFFF AND DUP4 PUSH20 0xFFFFFFFFFFFFFFFFFFFFFFFFFFFFFFFFFFFFFFFF AND SUB PUSH2 0x759 JUMPI PUSH0 PUSH1 0x40 MLOAD PUSH32 0x96C6FD1E00000000000000000000000000000000000000000000000000000000 DUP2 MSTORE PUSH1 0x4 ADD PUSH2 0x750 SWAP2 SWAP1 PUSH2 0xCFE JUMP JUMPDEST PUSH1 0x40 MLOAD DUP1 SWAP2 SUB SWAP1 REVERT JUMPDEST PUSH0 PUSH20 0xFFFFFFFFFFFFFFFFFFFFFFFFFFFFFFFFFFFFFFFF AND DUP3 PUSH20 0xFFFFFFFFFFFFFFFFFFFFFFFFFFFFFFFFFFFFFFFF AND SUB PUSH2 0x7C9 JUMPI PUSH0 PUSH1 0x40 MLOAD PUSH32 0xEC442F0500000000000000000000000000000000000000000000000000000000 DUP2 MSTORE PUSH1 0x4 ADD PUSH2 0x7C0 SWAP2 SWAP1 PUSH2 0xCFE JUMP JUMPDEST PUSH1 0x40 MLOAD DUP1 SWAP2 SUB SWAP1 REVERT JUMPDEST PUSH2 0x7D4 DUP4 DUP4 DUP4 PUSH2 0xAA6 JUMP JUMPDEST POP POP POP JUMP JUMPDEST PUSH0 PUSH20 0xFFFFFFFFFFFFFFFFFFFFFFFFFFFFFFFFFFFFFFFF AND DUP3 PUSH20 0xFFFFFFFFFFFFFFFFFFFFFFFFFFFFFFFFFFFFFFFF AND SUB PUSH2 0x849 JUMPI PUSH0 PUSH1 0x40 MLOAD PUSH32 0xEC442F0500000000000000000000000000000000000000000000000000000000 DUP2 MSTORE PUSH1 0x4 ADD PUSH2 0x840 SWAP2 SWAP1 PUSH2 0xCFE JUMP JUMPDEST PUSH1 0x40 MLOAD DUP1 SWAP2 SUB SWAP1 REVERT JUMPDEST PUSH2 0x854 PUSH0 DUP4 DUP4 PUSH2 0xAA6 JUMP JUMPDEST POP POP JUMP JUMPDEST PUSH0 PUSH20 0xFFFFFFFFFFFFFFFFFFFFFFFFFFFFFFFFFFFFFFFF AND DUP3 PUSH20 0xFFFFFFFFFFFFFFFFFFFFFFFFFFFFFFFFFFFFFFFF AND SUB PUSH2 0x8C8 JUMPI PUSH0 PUSH1 0x40 MLOAD PUSH32 0x96C6FD1E00000000000000000000000000000000000000000000000000000000 DUP2 MSTORE PUSH1 0x4 ADD PUSH2 0x8BF SWAP2 SWAP1 PUSH2 0xCFE JUMP JUMPDEST PUSH1 0x40 MLOAD DUP1 SWAP2 SUB SWAP1 REVERT JUMPDEST PUSH2 0x8D3 DUP3 PUSH0 DUP4 PUSH2 0xAA6 JUMP JUMPDEST POP POP JUMP JUMPDEST PUSH0 PUSH20 0xFFFFFFFFFFFFFFFFFFFFFFFFFFFFFFFFFFFFFFFF AND DUP5 PUSH20 0xFFFFFFFFFFFFFFFFFFFFFFFFFFFFFFFFFFFFFFFF AND SUB PUSH2 0x947 JUMPI PUSH0 PUSH1 0x40 MLOAD PUSH32 0xE602DF0500000000000000000000000000000000000000000000000000000000 DUP2 MSTORE PUSH1 0x4 ADD PUSH2 0x93E SWAP2 SWAP1 PUSH2 0xCFE JUMP JUMPDEST PUSH1 0x40 MLOAD DUP1 SWAP2 SUB SWAP1 REVERT JUMPDEST PUSH0 PUSH20 0xFFFFFFFFFFFFFFFFFFFFFFFFFFFFFFFFFFFFFFFF AND DUP4 PUSH20 0xFFFFFFFFFFFFFFFFFFFFFFFFFFFFFFFFFFFFFFFF AND SUB PUSH2 0x9B7 JUMPI PUSH0 PUSH1 0x40 MLOAD PUSH32 0x94280D6200000000000000000000000000000000000000000000000000000000 DUP2 MSTORE PUSH1 0x4 ADD PUSH2 0x9AE SWAP2 SWAP1 PUSH2 0xCFE JUMP JUMPDEST PUSH1 0x40 MLOAD DUP1 SWAP2 SUB SWAP1 REVERT JUMPDEST DUP2 PUSH1 0x1 PUSH0 DUP7 PUSH20 0xFFFFFFFFFFFFFFFFFFFFFFFFFFFFFFFFFFFFFFFF AND PUSH20 0xFFFFFFFFFFFFFFFFFFFFFFFFFFFFFFFFFFFFFFFF AND DUP2 MSTORE PUSH1 0x20 ADD SWAP1 DUP2 MSTORE PUSH1 0x20 ADD PUSH0 KECCAK256 PUSH0 DUP6 PUSH20 0xFFFFFFFFFFFFFFFFFFFFFFFFFFFFFFFFFFFFFFFF AND PUSH20 0xFFFFFFFFFFFFFFFFFFFFFFFFFFFFFFFFFFFFFFFF AND DUP2 MSTORE PUSH1 0x20 ADD SWAP1 DUP2 MSTORE PUSH1 0x20 ADD PUSH0 KECCAK256 DUP2 SWAP1 SSTORE POP DUP1 ISZERO PUSH2 0xAA0 JUMPI DUP3 PUSH20 0xFFFFFFFFFFFFFFFFFFFFFFFFFFFFFFFFFFFFFFFF AND DUP5 PUSH20 0xFFFFFFFFFFFFFFFFFFFFFFFFFFFFFFFFFFFFFFFF AND PUSH32 0x8C5BE1E5EBEC7D5BD14F71427D1E84F3DD0314C0F7B2291E5B200AC8C7C3B925 DUP5 PUSH1 0x40 MLOAD PUSH2 0xA97 SWAP2 SWAP1 PUSH2 0xE88 JUMP JUMPDEST PUSH1 0x40 MLOAD DUP1 SWAP2 SUB SWAP1 LOG3 JUMPDEST POP POP POP POP JUMP JUMPDEST PUSH0 PUSH20 0xFFFFFFFFFFFFFFFFFFFFFFFFFFFFFFFFFFFFFFFF AND DUP4 PUSH20 0xFFFFFFFFFFFFFFFFFFFFFFFFFFFFFFFFFFFFFFFF AND SUB PUSH2 0xAF6 JUMPI DUP1 PUSH1 0x2 PUSH0 DUP3 DUP3 SLOAD PUSH2 0xAEA SWAP2 SWAP1 PUSH2 0x10B5 JUMP JUMPDEST SWAP3 POP POP DUP2 SWAP1 SSTORE POP PUSH2 0xBC4 JUMP JUMPDEST PUSH0 DUP1 PUSH0 DUP6 PUSH20 0xFFFFFFFFFFFFFFFFFFFFFFFFFFFFFFFFFFFFFFFF AND PUSH20 0xFFFFFFFFFFFFFFFFFFFFFFFFFFFFFFFFFFFFFFFF AND DUP2 MSTORE PUSH1 0x20 ADD SWAP1 DUP2 MSTORE PUSH1 0x20 ADD PUSH0 KECCAK256 SLOAD SWAP1 POP DUP2 DUP2 LT ISZERO PUSH2 0xB7F JUMPI DUP4 DUP2 DUP4 PUSH1 0x40 MLOAD PUSH32 0xE450D38C00000000000000000000000000000000000000000000000000000000 DUP2 MSTORE PUSH1 0x4 ADD PUSH2 0xB76 SWAP4 SWAP3 SWAP2 SWAP1 PUSH2 0x1053 JUMP JUMPDEST PUSH1 0x40 MLOAD DUP1 SWAP2 SUB SWAP1 REVERT JUMPDEST DUP2 DUP2 SUB PUSH0 DUP1 DUP7 PUSH20 0xFFFFFFFFFFFFFFFFFFFFFFFFFFFFFFFFFFFFFFFF AND PUSH20 0xFFFFFFFFFFFFFFFFFFFFFFFFFFFFFFFFFFFFFFFF AND DUP2 MSTORE PUSH1 0x20 ADD SWAP1 DUP2 MSTORE PUSH1 0x20 ADD PUSH0 KECCAK256 DUP2 SWAP1 SSTORE POP POP JUMPDEST PUSH0 PUSH20 0xFFFFFFFFFFFFFFFFFFFFFFFFFFFFFFFFFFFFFFFF AND DUP3 PUSH20 0xFFFFFFFFFFFFFFFFFFFFFFFFFFFFFFFFFFFFFFFF AND SUB PUSH2 0xC0B JUMPI DUP1 PUSH1 0x2 PUSH0 DUP3 DUP3 SLOAD SUB SWAP3 POP POP DUP2 SWAP1 SSTORE POP PUSH2 0xC55 JUMP JUMPDEST DUP1 PUSH0 DUP1 DUP5 PUSH20 0xFFFFFFFFFFFFFFFFFFFFFFFFFFFFFFFFFFFFFFFF AND PUSH20 0xFFFFFFFFFFFFFFFFFFFFFFFFFFFFFFFFFFFFFFFF AND DUP2 MSTORE PUSH1 0x20 ADD SWAP1 DUP2 MSTORE PUSH1 0x20 ADD PUSH0 KECCAK256 PUSH0 DUP3 DUP3 SLOAD ADD SWAP3 POP POP DUP2 SWAP1 SSTORE POP JUMPDEST DUP2 PUSH20 0xFFFFFFFFFFFFFFFFFFFFFFFFFFFFFFFFFFFFFFFF AND DUP4 PUSH20 0xFFFFFFFFFFFFFFFFFFFFFFFFFFFFFFFFFFFFFFFF AND PUSH32 0xDDF252AD1BE2C89B69C2B068FC378DAA952BA7F163C4A11628F55A4DF523B3EF DUP4 PUSH1 0x40 MLOAD PUSH2 0xCB2 SWAP2 SWAP1 PUSH2 0xE88 JUMP JUMPDEST PUSH1 0x40 MLOAD DUP1 SWAP2 SUB SWAP1 LOG3 POP POP POP JUMP JUMPDEST PUSH0 PUSH20 0xFFFFFFFFFFFFFFFFFFFFFFFFFFFFFFFFFFFFFFFF DUP3 AND SWAP1 POP SWAP2 SWAP1 POP JUMP JUMPDEST PUSH0 PUSH2 0xCE8 DUP3 PUSH2 0xCBF JUMP JUMPDEST SWAP1 POP SWAP2 SWAP1 POP JUMP JUMPDEST PUSH2 0xCF8 DUP2 PUSH2 0xCDE JUMP JUMPDEST DUP3 MSTORE POP POP JUMP JUMPDEST PUSH0 PUSH1 0x20 DUP3 ADD SWAP1 POP PUSH2 0xD11 PUSH0 DUP4 ADD DUP5 PUSH2 0xCEF JUMP JUMPDEST SWAP3 SWAP2 POP POP JUMP JUMPDEST PUSH0 DUP2 MLOAD SWAP1 POP SWAP2 SWAP1 POP JUMP JUMPDEST PUSH0 DUP3 DUP3 MSTORE PUSH1 0x20 DUP3 ADD SWAP1 POP SWAP3 SWAP2 POP POP JUMP JUMPDEST DUP3 DUP2 DUP4 MCOPY PUSH0 DUP4 DUP4 ADD MSTORE POP POP POP JUMP JUMPDEST PUSH0 PUSH1 0x1F NOT PUSH1 0x1F DUP4 ADD AND SWAP1 POP SWAP2 SWAP1 POP JUMP JUMPDEST PUSH0 PUSH2 0xD59 DUP3 PUSH2 0xD17 JUMP JUMPDEST PUSH2 0xD63 DUP2 DUP6 PUSH2 0xD21 JUMP JUMPDEST SWAP4 POP PUSH2 0xD73 DUP2 DUP6 PUSH1 0x20 DUP7 ADD PUSH2 0xD31 JUMP JUMPDEST PUSH2 0xD7C DUP2 PUSH2 0xD3F JUMP JUMPDEST DUP5 ADD SWAP2 POP POP SWAP3 SWAP2 POP POP JUMP JUMPDEST PUSH0 PUSH1 0x20 DUP3 ADD SWAP1 POP DUP2 DUP2 SUB PUSH0 DUP4 ADD MSTORE PUSH2 0xD9F DUP2 DUP5 PUSH2 0xD4F JUMP JUMPDEST SWAP1 POP SWAP3 SWAP2 POP POP JUMP JUMPDEST PUSH0 DUP1 REVERT JUMPDEST PUSH2 0xDB4 DUP2 PUSH2 0xCDE JUMP JUMPDEST DUP2 EQ PUSH2 0xDBE JUMPI PUSH0 DUP1 REVERT JUMPDEST POP JUMP JUMPDEST PUSH0 DUP2 CALLDATALOAD SWAP1 POP PUSH2 0xDCF DUP2 PUSH2 0xDAB JUMP JUMPDEST SWAP3 SWAP2 POP POP JUMP JUMPDEST PUSH0 DUP2 SWAP1 POP SWAP2 SWAP1 POP JUMP JUMPDEST PUSH2 0xDE7 DUP2 PUSH2 0xDD5 JUMP JUMPDEST DUP2 EQ PUSH2 0xDF1 JUMPI PUSH0 DUP1 REVERT JUMPDEST POP JUMP JUMPDEST PUSH0 DUP2 CALLDATALOAD SWAP1 POP PUSH2 0xE02 DUP2 PUSH2 0xDDE JUMP JUMPDEST SWAP3 SWAP2 POP POP JUMP JUMPDEST PUSH0 DUP1 PUSH1 0x40 DUP4 DUP6 SUB SLT ISZERO PUSH2 0xE1E JUMPI PUSH2 0xE1D PUSH2 0xDA7 JUMP JUMPDEST JUMPDEST PUSH0 PUSH2 0xE2B DUP6 DUP3 DUP7 ADD PUSH2 0xDC1 JUMP JUMPDEST SWAP3 POP POP PUSH1 0x20 PUSH2 0xE3C DUP6 DUP3 DUP7 ADD PUSH2 0xDF4 JUMP JUMPDEST SWAP2 POP POP SWAP3 POP SWAP3 SWAP1 POP JUMP JUMPDEST PUSH0 DUP2 ISZERO ISZERO SWAP1 POP SWAP2 SWAP1 POP JUMP JUMPDEST PUSH2 0xE5A DUP2 PUSH2 0xE46 JUMP JUMPDEST DUP3 MSTORE POP POP JUMP JUMPDEST PUSH0 PUSH1 0x20 DUP3 ADD SWAP1 POP PUSH2 0xE73 PUSH0 DUP4 ADD DUP5 PUSH2 0xE51 JUMP JUMPDEST SWAP3 SWAP2 POP POP JUMP JUMPDEST PUSH2 0xE82 DUP2 PUSH2 0xDD5 JUMP JUMPDEST DUP3 MSTORE POP POP JUMP JUMPDEST PUSH0 PUSH1 0x20 DUP3 ADD SWAP1 POP PUSH2 0xE9B PUSH0 DUP4 ADD DUP5 PUSH2 0xE79 JUMP JUMPDEST SWAP3 SWAP2 POP POP JUMP JUMPDEST PUSH0 DUP1 PUSH0 PUSH1 0x60 DUP5 DUP7 SUB SLT ISZERO PUSH2 0xEB8 JUMPI PUSH2 0xEB7 PUSH2 0xDA7 JUMP JUMPDEST JUMPDEST PUSH0 PUSH2 0xEC5 DUP7 DUP3 DUP8 ADD PUSH2 0xDC1 JUMP JUMPDEST SWAP4 POP POP PUSH1 0x20 PUSH2 0xED6 DUP7 DUP3 DUP8 ADD PUSH2 0xDC1 JUMP JUMPDEST SWAP3 POP POP PUSH1 0x40 PUSH2 0xEE7 DUP7 DUP3 DUP8 ADD PUSH2 0xDF4 JUMP JUMPDEST SWAP2 POP POP SWAP3 POP SWAP3 POP SWAP3 JUMP JUMPDEST PUSH0 PUSH1 0xFF DUP3 AND SWAP1 POP SWAP2 SWAP1 POP JUMP JUMPDEST PUSH2 0xF06 DUP2 PUSH2 0xEF1 JUMP JUMPDEST DUP3 MSTORE POP POP JUMP JUMPDEST PUSH0 PUSH1 0x20 DUP3 ADD SWAP1 POP PUSH2 0xF1F PUSH0 DUP4 ADD DUP5 PUSH2 0xEFD JUMP JUMPDEST SWAP3 SWAP2 POP POP JUMP JUMPDEST PUSH0 PUSH1 0x20 DUP3 DUP5 SUB SLT ISZERO PUSH2 0xF3A JUMPI PUSH2 0xF39 PUSH2 0xDA7 JUMP JUMPDEST JUMPDEST PUSH0 PUSH2 0xF47 DUP5 DUP3 DUP6 ADD PUSH2 0xDC1 JUMP JUMPDEST SWAP2 POP POP SWAP3 SWAP2 POP POP JUMP JUMPDEST PUSH0 DUP1 PUSH1 0x40 DUP4 DUP6 SUB SLT ISZERO PUSH2 0xF66 JUMPI PUSH2 0xF65 PUSH2 0xDA7 JUMP JUMPDEST JUMPDEST PUSH0 PUSH2 0xF73 DUP6 DUP3 DUP7 ADD PUSH2 0xDC1 JUMP JUMPDEST SWAP3 POP POP PUSH1 0x20 PUSH2 0xF84 DUP6 DUP3 DUP7 ADD PUSH2 0xDC1 JUMP JUMPDEST SWAP2 POP POP SWAP3 POP SWAP3 SWAP1 POP JUMP JUMPDEST PUSH32 0x4E487B7100000000000000000000000000000000000000000000000000000000 PUSH0 MSTORE PUSH1 0x22 PUSH1 0x4 MSTORE PUSH1 0x24 PUSH0 REVERT JUMPDEST PUSH0 PUSH1 0x2 DUP3 DIV SWAP1 POP PUSH1 0x1 DUP3 AND DUP1 PUSH2 0xFD2 JUMPI PUSH1 0x7F DUP3 AND SWAP2 POP JUMPDEST PUSH1 0x20 DUP3 LT DUP2 SUB PUSH2 0xFE5 JUMPI PUSH2 0xFE4 PUSH2 0xF8E JUMP JUMPDEST JUMPDEST POP SWAP2 SWAP1 POP JUMP JUMPDEST PUSH32 0x4E6F74207468652063726561746F720000000000000000000000000000000000 PUSH0 DUP3 ADD MSTORE POP JUMP JUMPDEST PUSH0 PUSH2 0x101F PUSH1 0xF DUP4 PUSH2 0xD21 JUMP JUMPDEST SWAP2 POP PUSH2 0x102A DUP3 PUSH2 0xFEB JUMP JUMPDEST PUSH1 0x20 DUP3 ADD SWAP1 POP SWAP2 SWAP1 POP JUMP JUMPDEST PUSH0 PUSH1 0x20 DUP3 ADD SWAP1 POP DUP2 DUP2 SUB PUSH0 DUP4 ADD MSTORE PUSH2 0x104C DUP2 PUSH2 0x1013 JUMP JUMPDEST SWAP1 POP SWAP2 SWAP1 POP JUMP JUMPDEST PUSH0 PUSH1 0x60 DUP3 ADD SWAP1 POP PUSH2 0x1066 PUSH0 DUP4 ADD DUP7 PUSH2 0xCEF JUMP JUMPDEST PUSH2 0x1073 PUSH1 0x20 DUP4 ADD DUP6 PUSH2 0xE79 JUMP JUMPDEST PUSH2 0x1080 PUSH1 0x40 DUP4 ADD DUP5 PUSH2 0xE79 JUMP JUMPDEST SWAP5 SWAP4 POP POP POP POP JUMP JUMPDEST PUSH32 0x4E487B7100000000000000000000000000000000000000000000000000000000 PUSH0 MSTORE PUSH1 0x11 PUSH1 0x4 MSTORE PUSH1 0x24 PUSH0 REVERT JUMPDEST PUSH0 PUSH2 0x10BF DUP3 PUSH2 0xDD5 JUMP JUMPDEST SWAP2 POP PUSH2 0x10CA DUP4 PUSH2 0xDD5 JUMP JUMPDEST SWAP3 POP DUP3 DUP3 ADD SWAP1 POP DUP1 DUP3 GT ISZERO PUSH2 0x10E2 JUMPI PUSH2 0x10E1 PUSH2 0x1088 JUMP JUMPDEST JUMPDEST SWAP3 SWAP2 POP POP JUMP INVALID LOG2 PUSH5 0x6970667358 0x22 SLT KECCAK256 0x1F EXTCODESIZE LOG1 0xCD SWAP11 SAR 0xEA MSIZE LOG4 0xEC JUMPI 0xBB NUMBER 0xCC SWAP1 DUP6 CALLVALUE 0xEB CALLER 0xE6 0x2B BLOBBASEFEE SGT SSTORE ADDRESS CALLDATALOAD 0x26 ORIGIN 0xD9 DUP6 0xC6 0xEF PUSH5 0x736F6C6343 STOP ADDMOD BYTE STOP CALLER LOG2 PUSH5 0x6970667358 0x22 SLT KECCAK256 0xA6 0xE 0xC6 STOP 0xED AND 0xD2 0xE0 DELEGATECALL 0x26 EQ SELFDESTRUCT INVALID 0xCE 0x2E GASPRICE TLOAD 0x4E TIMESTAMP PUSH6 0xE440CBFD874F 0xF6 PUSH7 0xF066C0C664736F PUSH13 0x634300081A0033000000000000 "
				},
				"gasEstimates": {
					"creation": {
						"codeDepositCost": "2465800",
						"executionCost": "infinite",
						"totalCost": "infinite"
					},
					"external": {
						"addTier(address,uint256,string,uint256,uint256)": "infinite",
						"burnTokens(address,uint256)": "infinite",
						"createToken(string,string)": "infinite",
						"creatorTokens(address)": "infinite",
						"mintTokens(address,uint256,uint256,address)": "infinite",
						"owner()": "2537",
						"renounceOwnership()": "infinite",
						"tokenTiers(address,uint256)": "infinite",
						"transferOwnership(address)": "infinite"
					}
				},
				"methodIdentifiers": {
					"addTier(address,uint256,string,uint256,uint256)": "e1f04175",
					"burnTokens(address,uint256)": "0d1118ce",
					"createToken(string,string)": "2f2f2d56",
					"creatorTokens(address)": "29c81b91",
					"mintTokens(address,uint256,uint256,address)": "d6b17418",
					"owner()": "8da5cb5b",
					"renounceOwnership()": "715018a6",
					"tokenTiers(address,uint256)": "1ad18426",
					"transferOwnership(address)": "f2fde38b"
				}
			},
			"storageLayout": {
				"storage": [
					{
						"astId": 8,
						"contract": "contracts/Tokens.sol:CreatorTokenManager",
						"label": "_owner",
						"offset": 0,
						"slot": "0",
						"type": "t_address"
					},
					{
						"astId": 961,
						"contract": "contracts/Tokens.sol:CreatorTokenManager",
						"label": "creatorTokens",
						"offset": 0,
						"slot": "1",
						"type": "t_mapping(t_address,t_address)"
					},
					{
						"astId": 968,
						"contract": "contracts/Tokens.sol:CreatorTokenManager",
						"label": "tokenTiers",
						"offset": 0,
						"slot": "2",
						"type": "t_mapping(t_address,t_mapping(t_uint256,t_struct(Tier)957_storage))"
					}
				],
				"types": {
					"t_address": {
						"encoding": "inplace",
						"label": "address",
						"numberOfBytes": "20"
					},
					"t_mapping(t_address,t_address)": {
						"encoding": "mapping",
						"key": "t_address",
						"label": "mapping(address => address)",
						"numberOfBytes": "32",
						"value": "t_address"
					},
					"t_mapping(t_address,t_mapping(t_uint256,t_struct(Tier)957_storage))": {
						"encoding": "mapping",
						"key": "t_address",
						"label": "mapping(address => mapping(uint256 => struct CreatorTokenManager.Tier))",
						"numberOfBytes": "32",
						"value": "t_mapping(t_uint256,t_struct(Tier)957_storage)"
					},
					"t_mapping(t_uint256,t_struct(Tier)957_storage)": {
						"encoding": "mapping",
						"key": "t_uint256",
						"label": "mapping(uint256 => struct CreatorTokenManager.Tier)",
						"numberOfBytes": "32",
						"value": "t_struct(Tier)957_storage"
					},
					"t_string_storage": {
						"encoding": "bytes",
						"label": "string",
						"numberOfBytes": "32"
					},
					"t_struct(Tier)957_storage": {
						"encoding": "inplace",
						"label": "struct CreatorTokenManager.Tier",
						"members": [
							{
								"astId": 950,
								"contract": "contracts/Tokens.sol:CreatorTokenManager",
								"label": "name",
								"offset": 0,
								"slot": "0",
								"type": "t_string_storage"
							},
							{
								"astId": 952,
								"contract": "contracts/Tokens.sol:CreatorTokenManager",
								"label": "supply",
								"offset": 0,
								"slot": "1",
								"type": "t_uint256"
							},
							{
								"astId": 954,
								"contract": "contracts/Tokens.sol:CreatorTokenManager",
								"label": "minted",
								"offset": 0,
								"slot": "2",
								"type": "t_uint256"
							},
							{
								"astId": 956,
								"contract": "contracts/Tokens.sol:CreatorTokenManager",
								"label": "price",
								"offset": 0,
								"slot": "3",
								"type": "t_uint256"
							}
						],
						"numberOfBytes": "128"
					},
					"t_uint256": {
						"encoding": "inplace",
						"label": "uint256",
						"numberOfBytes": "32"
					}
				}
			},
			"userdoc": {
				"kind": "user",
				"methods": {},
				"version": 1
			}
		}
	}
}